{
	"data": {
		"bytecode": {
			"linkReferences": {
				"remix_accounts.sol": {
					"TestsAccounts": [
						{
							"length": 20,
							"start": 8349
						},
						{
							"length": 20,
							"start": 8549
						},
						{
							"length": 20,
							"start": 8749
						},
						{
							"length": 20,
							"start": 8949
						},
						{
							"length": 20,
							"start": 9149
						},
						{
							"length": 20,
							"start": 9349
						}
					]
				},
				"remix_tests.sol": {
					"Assert": [
						{
							"length": 20,
							"start": 1611
						},
						{
							"length": 20,
							"start": 1756
						},
						{
							"length": 20,
							"start": 2155
						},
						{
							"length": 20,
							"start": 2989
						},
						{
							"length": 20,
							"start": 3189
						},
						{
							"length": 20,
							"start": 3881
						},
						{
							"length": 20,
							"start": 4022
						},
						{
							"length": 20,
							"start": 4163
						},
						{
							"length": 20,
							"start": 4304
						},
						{
							"length": 20,
							"start": 4441
						},
						{
							"length": 20,
							"start": 4645
						},
						{
							"length": 20,
							"start": 4837
						},
						{
							"length": 20,
							"start": 4982
						},
						{
							"length": 20,
							"start": 5369
						},
						{
							"length": 20,
							"start": 6483
						},
						{
							"length": 20,
							"start": 7356
						},
						{
							"length": 20,
							"start": 7788
						},
						{
							"length": 20,
							"start": 8206
						},
						{
							"length": 20,
							"start": 9994
						},
						{
							"length": 20,
							"start": 10137
						},
						{
							"length": 20,
							"start": 10372
						},
						{
							"length": 20,
							"start": 10607
						},
						{
							"length": 20,
							"start": 10842
						},
						{
							"length": 20,
							"start": 11079
						},
						{
							"length": 20,
							"start": 11285
						},
						{
							"length": 20,
							"start": 11430
						},
						{
							"length": 20,
							"start": 11835
						},
						{
							"length": 20,
							"start": 11978
						},
						{
							"length": 20,
							"start": 12431
						},
						{
							"length": 20,
							"start": 12830
						},
						{
							"length": 20,
							"start": 13141
						},
						{
							"length": 20,
							"start": 13594
						},
						{
							"length": 20,
							"start": 13737
						},
						{
							"length": 20,
							"start": 13874
						},
						{
							"length": 20,
							"start": 14235
						},
						{
							"length": 20,
							"start": 14683
						},
						{
							"length": 20,
							"start": 14826
						},
						{
							"length": 20,
							"start": 15350
						},
						{
							"length": 20,
							"start": 15778
						}
					]
				}
			},
			"object": "60a06040526001600960006101000a81548160ff0219169083151502179055503480156200002c57600080fd5b503373ffffffffffffffffffffffffffffffffffffffff1660808173ffffffffffffffffffffffffffffffffffffffff1660601b815250506000600560006101000a81548160ff021916908360038111156200008d576200008c62000098565b5b0217905550620000c7565b7f4e487b7100000000000000000000000000000000000000000000000000000000600052602160045260246000fd5b60805160601c615c0d6200011060003960008181610d5e015281816110630152818161147a015281816116db015281816118d40152818161243f0152612a510152615c0d6000f3fe608060405234801561001057600080fd5b506004361061023c5760003560e01c80637fea0d4b1161013b578063ad5461d8116100b8578063c19d93fb1161007c578063c19d93fb146104df578063c1c16efc146104fd578063c351f4951461051b578063cd59bdc914610525578063dcd174011461052f5761023c565b8063ad5461d814610473578063b64b116f146104a3578063b798867f146104ad578063bcba4db6146104cb578063c09a7a5f146104d55761023c565b8063a24a4e88116100ff578063a24a4e881461042d578063a3bef4d714610437578063a5627cf014610455578063a743e7761461045f578063a9a4070c146104695761023c565b80637fea0d4b146103fb57806381f4b232146104055780638279a17f1461040f578063848b442714610419578063947aea86146104235761023c565b80633b9f708d116101c95780636d77bd3e1161018d5780636d77bd3e1461038f5780636ec8df91146103bf57806377440e06146103c9578063788d3851146103d35780637899fe2f146103f15761023c565b80633b9f708d146102e857806347098f3614610318578063481c6a75146103365780635df81330146103545780636a9fe400146103855761023c565b80631ddabf7a116102105780631ddabf7a1461028f5780631ec6b60a146102c057806327205128146102ca5780632955fea3146102d457806337525afc146102de5761023c565b8062430ba7146102415780630bb150d61461024b578063124258c61461025557806312a4591a14610285575b600080fd5b610249610539565b005b610253610659565b005b61026f600480360381019061026a91906141c8565b6107e8565b60405161027c91906149f5565b60405180910390f35b61028d610a9b565b005b6102a960048036038101906102a4919061409c565b610c2d565b6040516102b7929190614bc5565b60405180910390f35b6102c8610ce6565b005b6102d2610e17565b005b6102dc6111d3565b005b6102e66112f3565b005b61030260048036038101906102fd91906140f6565b611476565b60405161030f9190614d65565b60405180910390f35b6103206116d3565b60405161032d9190614d65565b60405180910390f35b61033e6116d9565b60405161034b91906148eb565b60405180910390f35b61036e600480360381019061036991906141c8565b6116fd565b60405161037c9291906149cc565b60405180910390f35b61038d611741565b005b6103a960048036038101906103a4919061417f565b6118d0565b6040516103b69190614d65565b60405180910390f35b6103c7611aad565b005b6103d1611c39565b005b6103db611de9565b6040516103e891906149f5565b60405180910390f35b6103f9611dfc565b005b610403611f8b565b005b61040d61243d565b005b6104176124f8565b005b610421612687565b005b61042b612a35565b005b610435612b03565b005b61043f612c23565b60405161044c9190614d65565b60405180910390f35b61045d612c29565b005b610467612db8565b005b61047161300c565b005b61048d600480360381019061048891906141c8565b61319b565b60405161049a9190614ba3565b60405180910390f35b6104ab61323b565b005b6104b5613302565b6040516104c29190614d65565b60405180910390f35b6104d3613308565b005b6104dd613497565b005b6104e76135e0565b6040516104f49190614a7a565b60405180910390f35b6105056135f3565b6040516105129190614ba3565b60405180910390f35b610523613681565b005b61052d613749565b005b6105376138d8565b005b73__$acbfb1c35000d78352310b16a054a6b106$__6339df137f61055d60026107e8565b6040518263ffffffff1660e01b81526004016105799190614a4c565b60206040518083038186803b15801561059157600080fd5b505af41580156105a5573d6000803e3d6000fd5b505050506040513d601f19601f820116820180604052508101906105c99190614152565b5073__$acbfb1c35000d78352310b16a054a6b106$__63abcd796060045460016040518363ffffffff1660e01b8152600401610606929190614e70565b60206040518083038186803b15801561061e57600080fd5b505af4158015610632573d6000803e3d6000fd5b505050506040513d601f19601f820116820180604052508101906106569190614152565b50565b6000600260405160240161066d9190614b1c565b6040516020818303038152906040527f57ef0ceb000000000000000000000000000000000000000000000000000000007bffffffffffffffffffffffffffffffffffffffffffffffffffffffff19166020820180517bffffffffffffffffffffffffffffffffffffffffffffffffffffffff8381831617835250505050905060003073ffffffffffffffffffffffffffffffffffffffff168260405161071391906148bd565b6000604051808303816000865af19150503d8060008114610750576040519150601f19603f3d011682016040523d82523d6000602084013e610755565b606091505b5050905073__$acbfb1c35000d78352310b16a054a6b106$__63767392b38260006040518363ffffffff1660e01b8152600401610793929190614a10565b60206040518083038186803b1580156107ab57600080fd5b505af41580156107bf573d6000803e3d6000fd5b505050506040513d601f19601f820116820180604052508101906107e39190614152565b505050565b6000600160038111156107fe576107fd6154c8565b5b600560009054906101000a900460ff1660038111156108205761081f6154c8565b5b14610860576040517f08c379a000000000000000000000000000000000000000000000000000000000815260040161085790614ca5565b60405180910390fd5b600090506000600160003373ffffffffffffffffffffffffffffffffffffffff1673ffffffffffffffffffffffffffffffffffffffff16815260200190815260200160002060000180546108b3906153be565b905014610a6a5760001515600160003373ffffffffffffffffffffffffffffffffffffffff1673ffffffffffffffffffffffffffffffffffffffff16815260200190815260200160002060010160009054906101000a900460ff1615151415610a695760008060008481526020019081526020016000208054610935906153be565b905014610a68576001905060018060003373ffffffffffffffffffffffffffffffffffffffff1673ffffffffffffffffffffffffffffffffffffffff16815260200190815260200160002060010160006101000a81548160ff0219169083151502179055506109a2613e5c565b33816000019073ffffffffffffffffffffffffffffffffffffffff16908173ffffffffffffffffffffffffffffffffffffffff168152505082816020018181525050600460008154809291906109f790615421565b91905055508060076000600454815260200190815260200160002060008201518160000160006101000a81548173ffffffffffffffffffffffffffffffffffffffff021916908373ffffffffffffffffffffffffffffffffffffffff16021790555060208201518160010155905050505b5b5b60016002600354610a7b919061521d565b610a8591906151c7565b60045410610a9657610a95613d21565b5b919050565b73__$acbfb1c35000d78352310b16a054a6b106$__63abcd7960610af36040518060400160405280600e81526020017f436f7572747961726420436166650000000000000000000000000000000000008152506118d0565b60016040518363ffffffff1660e01b8152600401610b12929190614e34565b60206040518083038186803b158015610b2a57600080fd5b505af4158015610b3e573d6000803e3d6000fd5b505050506040513d601f19601f82011682018060405250810190610b629190614152565b5073__$acbfb1c35000d78352310b16a054a6b106$__63abcd7960610bbb6040518060400160405280600881526020017f556e6920436166650000000000000000000000000000000000000000000000008152506118d0565b60026040518363ffffffff1660e01b8152600401610bda929190614eac565b60206040518083038186803b158015610bf257600080fd5b505af4158015610c06573d6000803e3d6000fd5b505050506040513d601f19601f82011682018060405250810190610c2a9190614152565b50565b6001602052806000526040600020600091509050806000018054610c50906153be565b80601f0160208091040260200160405190810160405280929190818152602001828054610c7c906153be565b8015610cc95780601f10610c9e57610100808354040283529160200191610cc9565b820191906000526020600020905b815481529060010190602001808311610cac57829003601f168201915b5050505050908060010160009054906101000a900460ff16905082565b60006003811115610cfa57610cf96154c8565b5b600560009054906101000a900460ff166003811115610d1c57610d1b6154c8565b5b14610d5c576040517f08c379a0000000000000000000000000000000000000000000000000000000008152600401610d5390614cc5565b60405180910390fd5b7f000000000000000000000000000000000000000000000000000000000000000073ffffffffffffffffffffffffffffffffffffffff163373ffffffffffffffffffffffffffffffffffffffff1614610dea576040517f08c379a0000000000000000000000000000000000000000000000000000000008152600401610de190614d05565b60405180910390fd5b6001600560006101000a81548160ff02191690836003811115610e1057610e0f6154c8565b5b0217905550565b73__$acbfb1c35000d78352310b16a054a6b106$__63abcd796060025460006040518363ffffffff1660e01b8152600401610e53929190614dbc565b60206040518083038186803b158015610e6b57600080fd5b505af4158015610e7f573d6000803e3d6000fd5b505050506040513d601f19601f82011682018060405250810190610ea39190614152565b5073__$acbfb1c35000d78352310b16a054a6b106$__63abcd796060035460006040518363ffffffff1660e01b8152600401610ee0929190614d80565b60206040518083038186803b158015610ef857600080fd5b505af4158015610f0c573d6000803e3d6000fd5b505050506040513d601f19601f82011682018060405250810190610f309190614152565b5073__$acbfb1c35000d78352310b16a054a6b106$__63abcd796060045460006040518363ffffffff1660e01b8152600401610f6d929190614df8565b60206040518083038186803b158015610f8557600080fd5b505af4158015610f99573d6000803e3d6000fd5b505050506040513d601f19601f82011682018060405250810190610fbd9190614152565b5073__$acbfb1c35000d78352310b16a054a6b106$__63e8c2cb1660066040518263ffffffff1660e01b8152600401610ff69190614c3d565b60206040518083038186803b15801561100e57600080fd5b505af4158015611022573d6000803e3d6000fd5b505050506040513d601f19601f820116820180604052508101906110469190614152565b5073__$acbfb1c35000d78352310b16a054a6b106$__63bfba5dd67f0000000000000000000000000000000000000000000000000000000000000000600960019054906101000a900473ffffffffffffffffffffffffffffffffffffffff166040518363ffffffff1660e01b81526004016110c2929190614906565b60206040518083038186803b1580156110da57600080fd5b505af41580156110ee573d6000803e3d6000fd5b505050506040513d601f19601f820116820180604052508101906111129190614152565b5073__$acbfb1c35000d78352310b16a054a6b106$__63abcd7960600560009054906101000a900460ff16600381111561114f5761114e6154c8565b5b60006003811115611163576111626154c8565b5b6040518363ffffffff1660e01b81526004016111809291906150c8565b60206040518083038186803b15801561119857600080fd5b505af41580156111ac573d6000803e3d6000fd5b505050506040513d601f19601f820116820180604052508101906111d09190614152565b50565b73__$acbfb1c35000d78352310b16a054a6b106$__6339df137f6111f760026107e8565b6040518263ffffffff1660e01b81526004016112139190614a4c565b60206040518083038186803b15801561122b57600080fd5b505af415801561123f573d6000803e3d6000fd5b505050506040513d601f19601f820116820180604052508101906112639190614152565b5073__$acbfb1c35000d78352310b16a054a6b106$__63abcd796060045460036040518363ffffffff1660e01b81526004016112a0929190614f60565b60206040518083038186803b1580156112b857600080fd5b505af41580156112cc573d6000803e3d6000fd5b505050506040513d601f19601f820116820180604052508101906112f09190614152565b50565b60006040516024016040516020818303038152906040527f81f4b232000000000000000000000000000000000000000000000000000000007bffffffffffffffffffffffffffffffffffffffffffffffffffffffff19166020820180517bffffffffffffffffffffffffffffffffffffffffffffffffffffffff8381831617835250505050905060003073ffffffffffffffffffffffffffffffffffffffff16826040516113a191906148bd565b6000604051808303816000865af19150503d80600081146113de576040519150601f19603f3d011682016040523d82523d6000602084013e6113e3565b606091505b5050905073__$acbfb1c35000d78352310b16a054a6b106$__63767392b38260006040518363ffffffff1660e01b8152600401611421929190614a10565b60206040518083038186803b15801561143957600080fd5b505af415801561144d573d6000803e3d6000fd5b505050506040513d601f19601f820116820180604052508101906114719190614152565b505050565b60007f000000000000000000000000000000000000000000000000000000000000000073ffffffffffffffffffffffffffffffffffffffff163373ffffffffffffffffffffffffffffffffffffffff1614611506576040517f08c379a00000000000000000000000000000000000000000000000000000000081526004016114fd90614d05565b60405180910390fd5b6000600381111561151a576115196154c8565b5b600560009054906101000a900460ff16600381111561153c5761153b6154c8565b5b1461157c576040517f08c379a000000000000000000000000000000000000000000000000000000000815260040161157390614cc5565b60405180910390fd5b6000600160008573ffffffffffffffffffffffffffffffffffffffff1673ffffffffffffffffffffffffffffffffffffffff16815260200190815260200160002060000180546115cb906153be565b90501461160d576040517f08c379a000000000000000000000000000000000000000000000000000000000815260040161160490614d25565b60405180910390fd5b611615613e8c565b828160000181905250600081602001901515908115158152505080600160008673ffffffffffffffffffffffffffffffffffffffff1673ffffffffffffffffffffffffffffffffffffffff168152602001908152602001600020600082015181600001908051906020019061168b929190613ea8565b5060208201518160010160006101000a81548160ff021916908315150217905550905050600360008154809291906116c290615421565b919050555060035491505092915050565b60035481565b7f000000000000000000000000000000000000000000000000000000000000000081565b60076020528060005260406000206000915090508060000160009054906101000a900473ffffffffffffffffffffffffffffffffffffffff16908060010154905082565b6000600a6040516024016117559190614ab0565b6040516020818303038152906040527f57ef0ceb000000000000000000000000000000000000000000000000000000007bffffffffffffffffffffffffffffffffffffffffffffffffffffffff19166020820180517bffffffffffffffffffffffffffffffffffffffffffffffffffffffff8381831617835250505050905060003073ffffffffffffffffffffffffffffffffffffffff16826040516117fb91906148bd565b6000604051808303816000865af19150503d8060008114611838576040519150601f19603f3d011682016040523d82523d6000602084013e61183d565b606091505b5050905073__$acbfb1c35000d78352310b16a054a6b106$__63767392b38260006040518363ffffffff1660e01b815260040161187b929190614a10565b60206040518083038186803b15801561189357600080fd5b505af41580156118a7573d6000803e3d6000fd5b505050506040513d601f19601f820116820180604052508101906118cb9190614152565b505050565b60007f000000000000000000000000000000000000000000000000000000000000000073ffffffffffffffffffffffffffffffffffffffff163373ffffffffffffffffffffffffffffffffffffffff1614611960576040517f08c379a000000000000000000000000000000000000000000000000000000000815260040161195790614d05565b60405180910390fd5b60006003811115611974576119736154c8565b5b600560009054906101000a900460ff166003811115611996576119956154c8565b5b146119d6576040517f08c379a00000000000000000000000000000000000000000000000000000000081526004016119cd90614cc5565b60405180910390fd5b6000600190505b6002548111611a61578280519060200120600080838152602001908152602001600020604051611a0d91906148d4565b60405180910390201415611a56576040517f08c379a0000000000000000000000000000000000000000000000000000000008152600401611a4d90614c85565b60405180910390fd5b8060010190506119dd565b5060026000815480929190611a7590615421565b91905055508160008060025481526020019081526020016000209080519060200190611aa2929190613ea8565b506002549050919050565b6000604051602401611abe90614d45565b6040516020818303038152906040527f6d77bd3e000000000000000000000000000000000000000000000000000000007bffffffffffffffffffffffffffffffffffffffffffffffffffffffff19166020820180517bffffffffffffffffffffffffffffffffffffffffffffffffffffffff8381831617835250505050905060003073ffffffffffffffffffffffffffffffffffffffff1682604051611b6491906148bd565b6000604051808303816000865af19150503d8060008114611ba1576040519150601f19603f3d011682016040523d82523d6000602084013e611ba6565b606091505b5050905073__$acbfb1c35000d78352310b16a054a6b106$__63767392b38260006040518363ffffffff1660e01b8152600401611be4929190614a10565b60206040518083038186803b158015611bfc57600080fd5b505af4158015611c10573d6000803e3d6000fd5b505050506040513d601f19601f82011682018060405250810190611c349190614152565b505050565b6000600d60009054906101000a900473ffffffffffffffffffffffffffffffffffffffff16604051602401611c6e9190614942565b6040516020818303038152906040527f1eb62036000000000000000000000000000000000000000000000000000000007bffffffffffffffffffffffffffffffffffffffffffffffffffffffff19166020820180517bffffffffffffffffffffffffffffffffffffffffffffffffffffffff8381831617835250505050905060003073ffffffffffffffffffffffffffffffffffffffff1682604051611d1491906148bd565b6000604051808303816000865af19150503d8060008114611d51576040519150601f19603f3d011682016040523d82523d6000602084013e611d56565b606091505b5050905073__$acbfb1c35000d78352310b16a054a6b106$__63767392b38260006040518363ffffffff1660e01b8152600401611d94929190614a10565b60206040518083038186803b158015611dac57600080fd5b505af4158015611dc0573d6000803e3d6000fd5b505050506040513d601f19601f82011682018060405250810190611de49190614152565b505050565b600960009054906101000a900460ff1681565b60006001604051602401611e109190614ae6565b6040516020818303038152906040527f57ef0ceb000000000000000000000000000000000000000000000000000000007bffffffffffffffffffffffffffffffffffffffffffffffffffffffff19166020820180517bffffffffffffffffffffffffffffffffffffffffffffffffffffffff8381831617835250505050905060003073ffffffffffffffffffffffffffffffffffffffff1682604051611eb691906148bd565b6000604051808303816000865af19150503d8060008114611ef3576040519150601f19603f3d011682016040523d82523d6000602084013e611ef8565b606091505b5050905073__$acbfb1c35000d78352310b16a054a6b106$__63767392b38260006040518363ffffffff1660e01b8152600401611f36929190614a10565b60206040518083038186803b158015611f4e57600080fd5b505af4158015611f62573d6000803e3d6000fd5b505050506040513d601f19601f82011682018060405250810190611f869190614152565b505050565b73__$1068a87eb54ed04c4e435de35b2ebf536f$__63ce88b14560006040518263ffffffff1660e01b8152600401611fc39190614a95565b60206040518083038186803b158015611fdb57600080fd5b505af4158015611fef573d6000803e3d6000fd5b505050506040513d601f19601f8201168201806040525081019061201391906140c9565b600960016101000a81548173ffffffffffffffffffffffffffffffffffffffff021916908373ffffffffffffffffffffffffffffffffffffffff16021790555073__$1068a87eb54ed04c4e435de35b2ebf536f$__63ce88b14560016040518263ffffffff1660e01b815260040161208b9190614acb565b60206040518083038186803b1580156120a357600080fd5b505af41580156120b7573d6000803e3d6000fd5b505050506040513d601f19601f820116820180604052508101906120db91906140c9565b600a60006101000a81548173ffffffffffffffffffffffffffffffffffffffff021916908373ffffffffffffffffffffffffffffffffffffffff16021790555073__$1068a87eb54ed04c4e435de35b2ebf536f$__63ce88b14560026040518263ffffffff1660e01b81526004016121539190614b01565b60206040518083038186803b15801561216b57600080fd5b505af415801561217f573d6000803e3d6000fd5b505050506040513d601f19601f820116820180604052508101906121a391906140c9565b600b60006101000a81548173ffffffffffffffffffffffffffffffffffffffff021916908373ffffffffffffffffffffffffffffffffffffffff16021790555073__$1068a87eb54ed04c4e435de35b2ebf536f$__63ce88b14560036040518263ffffffff1660e01b815260040161221b9190614b37565b60206040518083038186803b15801561223357600080fd5b505af4158015612247573d6000803e3d6000fd5b505050506040513d601f19601f8201168201806040525081019061226b91906140c9565b600c60006101000a81548173ffffffffffffffffffffffffffffffffffffffff021916908373ffffffffffffffffffffffffffffffffffffffff16021790555073__$1068a87eb54ed04c4e435de35b2ebf536f$__63ce88b14560046040518263ffffffff1660e01b81526004016122e39190614b52565b60206040518083038186803b1580156122fb57600080fd5b505af415801561230f573d6000803e3d6000fd5b505050506040513d601f19601f8201168201806040525081019061233391906140c9565b600d60006101000a81548173ffffffffffffffffffffffffffffffffffffffff021916908373ffffffffffffffffffffffffffffffffffffffff16021790555073__$1068a87eb54ed04c4e435de35b2ebf536f$__63ce88b14560056040518263ffffffff1660e01b81526004016123ab9190614b88565b60206040518083038186803b1580156123c357600080fd5b505af41580156123d7573d6000803e3d6000fd5b505050506040513d601f19601f820116820180604052508101906123fb91906140c9565b600e60006101000a81548173ffffffffffffffffffffffffffffffffffffffff021916908373ffffffffffffffffffffffffffffffffffffffff160217905550565b7f000000000000000000000000000000000000000000000000000000000000000073ffffffffffffffffffffffffffffffffffffffff163373ffffffffffffffffffffffffffffffffffffffff16146124cb576040517f08c379a00000000000000000000000000000000000000000000000000000000081526004016124c290614d05565b60405180910390fd5b6003600560006101000a81548160ff021916908360038111156124f1576124f06154c8565b5b0217905550565b6000600160405160240161250c9190614ae6565b6040516020818303038152906040527f57ef0ceb000000000000000000000000000000000000000000000000000000007bffffffffffffffffffffffffffffffffffffffffffffffffffffffff19166020820180517bffffffffffffffffffffffffffffffffffffffffffffffffffffffff8381831617835250505050905060003073ffffffffffffffffffffffffffffffffffffffff16826040516125b291906148bd565b6000604051808303816000865af19150503d80600081146125ef576040519150601f19603f3d011682016040523d82523d6000602084013e6125f4565b606091505b5050905073__$acbfb1c35000d78352310b16a054a6b106$__63767392b38260006040518363ffffffff1660e01b8152600401612632929190614a10565b60206040518083038186803b15801561264a57600080fd5b505af415801561265e573d6000803e3d6000fd5b505050506040513d601f19601f820116820180604052508101906126829190614152565b505050565b73__$acbfb1c35000d78352310b16a054a6b106$__63abcd7960612702600960019054906101000a900473ffffffffffffffffffffffffffffffffffffffff166040518060400160405280600581526020017f416c696365000000000000000000000000000000000000000000000000000000815250611476565b60016040518363ffffffff1660e01b8152600401612721929190614e34565b60206040518083038186803b15801561273957600080fd5b505af415801561274d573d6000803e3d6000fd5b505050506040513d601f19601f820116820180604052508101906127719190614152565b5073__$acbfb1c35000d78352310b16a054a6b106$__63abcd79606127ed600a60009054906101000a900473ffffffffffffffffffffffffffffffffffffffff166040518060400160405280600381526020017f426f620000000000000000000000000000000000000000000000000000000000815250611476565b60026040518363ffffffff1660e01b815260040161280c929190614eac565b60206040518083038186803b15801561282457600080fd5b505af4158015612838573d6000803e3d6000fd5b505050506040513d601f19601f8201168201806040525081019061285c9190614152565b5073__$acbfb1c35000d78352310b16a054a6b106$__63abcd79606128d8600b60009054906101000a900473ffffffffffffffffffffffffffffffffffffffff166040518060400160405280600781526020017f436861726c696500000000000000000000000000000000000000000000000000815250611476565b60036040518363ffffffff1660e01b81526004016128f7929190614f24565b60206040518083038186803b15801561290f57600080fd5b505af4158015612923573d6000803e3d6000fd5b505050506040513d601f19601f820116820180604052508101906129479190614152565b5073__$acbfb1c35000d78352310b16a054a6b106$__63abcd79606129c3600c60009054906101000a900473ffffffffffffffffffffffffffffffffffffffff166040518060400160405280600481526020017f4461766500000000000000000000000000000000000000000000000000000000815250611476565b60046040518363ffffffff1660e01b81526004016129e2929190614f9c565b60206040518083038186803b1580156129fa57600080fd5b505af4158015612a0e573d6000803e3d6000fd5b505050506040513d601f19601f82011682018060405250810190612a329190614152565b50565b73__$acbfb1c35000d78352310b16a054a6b106$__63bfba5dd67f0000000000000000000000000000000000000000000000000000000000000000600960019054906101000a900473ffffffffffffffffffffffffffffffffffffffff166040518363ffffffff1660e01b8152600401612ab0929190614906565b60206040518083038186803b158015612ac857600080fd5b505af4158015612adc573d6000803e3d6000fd5b505050506040513d601f19601f82011682018060405250810190612b009190614152565b50565b73__$acbfb1c35000d78352310b16a054a6b106$__6339df137f612b2760016107e8565b6040518263ffffffff1660e01b8152600401612b439190614a4c565b60206040518083038186803b158015612b5b57600080fd5b505af4158015612b6f573d6000803e3d6000fd5b505050506040513d601f19601f82011682018060405250810190612b939190614152565b5073__$acbfb1c35000d78352310b16a054a6b106$__63abcd796060045460026040518363ffffffff1660e01b8152600401612bd0929190614ee8565b60206040518083038186803b158015612be857600080fd5b505af4158015612bfc573d6000803e3d6000fd5b505050506040513d601f19601f82011682018060405250810190612c209190614152565b50565b60045481565b60006001604051602401612c3d9190614ae6565b6040516020818303038152906040527f57ef0ceb000000000000000000000000000000000000000000000000000000007bffffffffffffffffffffffffffffffffffffffffffffffffffffffff19166020820180517bffffffffffffffffffffffffffffffffffffffffffffffffffffffff8381831617835250505050905060003073ffffffffffffffffffffffffffffffffffffffff1682604051612ce391906148bd565b6000604051808303816000865af19150503d8060008114612d20576040519150601f19603f3d011682016040523d82523d6000602084013e612d25565b606091505b5050905073__$acbfb1c35000d78352310b16a054a6b106$__63767392b38260006040518363ffffffff1660e01b8152600401612d63929190614a10565b60206040518083038186803b158015612d7b57600080fd5b505af4158015612d8f573d6000803e3d6000fd5b505050506040513d601f19601f82011682018060405250810190612db39190614152565b505050565b73__$acbfb1c35000d78352310b16a054a6b106$__63abcd7960612e106040518060400160405280600981526020017f554e5357204361666500000000000000000000000000000000000000000000008152506118d0565b60036040518363ffffffff1660e01b8152600401612e2f929190614f24565b60206040518083038186803b158015612e4757600080fd5b505af4158015612e5b573d6000803e3d6000fd5b505050506040513d601f19601f82011682018060405250810190612e7f9190614152565b506000604051602401612e9190614ce5565b6040516020818303038152906040527f6d77bd3e000000000000000000000000000000000000000000000000000000007bffffffffffffffffffffffffffffffffffffffffffffffffffffffff19166020820180517bffffffffffffffffffffffffffffffffffffffffffffffffffffffff8381831617835250505050905060003073ffffffffffffffffffffffffffffffffffffffff1682604051612f3791906148bd565b6000604051808303816000865af19150503d8060008114612f74576040519150601f19603f3d011682016040523d82523d6000602084013e612f79565b606091505b5050905073__$acbfb1c35000d78352310b16a054a6b106$__63767392b38260006040518363ffffffff1660e01b8152600401612fb7929190614a10565b60206040518083038186803b158015612fcf57600080fd5b505af4158015612fe3573d6000803e3d6000fd5b505050506040513d601f19601f820116820180604052508101906130079190614152565b505050565b600060016040516024016130209190614ae6565b6040516020818303038152906040527f57ef0ceb000000000000000000000000000000000000000000000000000000007bffffffffffffffffffffffffffffffffffffffffffffffffffffffff19166020820180517bffffffffffffffffffffffffffffffffffffffffffffffffffffffff8381831617835250505050905060003073ffffffffffffffffffffffffffffffffffffffff16826040516130c691906148bd565b6000604051808303816000865af19150503d8060008114613103576040519150601f19603f3d011682016040523d82523d6000602084013e613108565b606091505b5050905073__$acbfb1c35000d78352310b16a054a6b106$__63767392b38260006040518363ffffffff1660e01b8152600401613146929190614a10565b60206040518083038186803b15801561315e57600080fd5b505af4158015613172573d6000803e3d6000fd5b505050506040513d601f19601f820116820180604052508101906131969190614152565b505050565b600060205280600052604060002060009150905080546131ba906153be565b80601f01602080910402602001604051908101604052809291908181526020018280546131e6906153be565b80156132335780601f1061320857610100808354040283529160200191613233565b820191906000526020600020905b81548152906001019060200180831161321657829003601f168201915b505050505081565b61324361243d565b73__$acbfb1c35000d78352310b16a054a6b106$__63abcd7960600560009054906101000a900460ff16600381111561327f5761327e6154c8565b5b600380811115613292576132916154c8565b5b6040518363ffffffff1660e01b81526004016132af929190615014565b60206040518083038186803b1580156132c757600080fd5b505af41580156132db573d6000803e3d6000fd5b505050506040513d601f19601f820116820180604052508101906132ff9190614152565b50565b60025481565b6000600260405160240161331c9190614b1c565b6040516020818303038152906040527f57ef0ceb000000000000000000000000000000000000000000000000000000007bffffffffffffffffffffffffffffffffffffffffffffffffffffffff19166020820180517bffffffffffffffffffffffffffffffffffffffffffffffffffffffff8381831617835250505050905060003073ffffffffffffffffffffffffffffffffffffffff16826040516133c291906148bd565b6000604051808303816000865af19150503d80600081146133ff576040519150601f19603f3d011682016040523d82523d6000602084013e613404565b606091505b5050905073__$acbfb1c35000d78352310b16a054a6b106$__63767392b38260006040518363ffffffff1660e01b8152600401613442929190614a10565b60206040518083038186803b15801561345a57600080fd5b505af415801561346e573d6000803e3d6000fd5b505050506040513d601f19601f820116820180604052508101906134929190614152565b505050565b73__$acbfb1c35000d78352310b16a054a6b106$__63e8c2cb1660066040518263ffffffff1660e01b81526004016134cf9190614bf5565b60206040518083038186803b1580156134e757600080fd5b505af41580156134fb573d6000803e3d6000fd5b505050506040513d601f19601f8201168201806040525081019061351f9190614152565b5073__$acbfb1c35000d78352310b16a054a6b106$__63abcd7960600560009054906101000a900460ff16600381111561355c5761355b6154c8565b5b600260038111156135705761356f6154c8565b5b6040518363ffffffff1660e01b815260040161358d92919061508c565b60206040518083038186803b1580156135a557600080fd5b505af41580156135b9573d6000803e3d6000fd5b505050506040513d601f19601f820116820180604052508101906135dd9190614152565b50565b600560009054906101000a900460ff1681565b60068054613600906153be565b80601f016020809104026020016040519081016040528092919081815260200182805461362c906153be565b80156136795780601f1061364e57610100808354040283529160200191613679565b820191906000526020600020905b81548152906001019060200180831161365c57829003601f168201915b505050505081565b613689610ce6565b73__$acbfb1c35000d78352310b16a054a6b106$__63abcd7960600560009054906101000a900460ff1660038111156136c5576136c46154c8565b5b600160038111156136d9576136d86154c8565b5b6040518363ffffffff1660e01b81526004016136f6929190615050565b60206040518083038186803b15801561370e57600080fd5b505af4158015613722573d6000803e3d6000fd5b505050506040513d601f19601f820116820180604052508101906137469190614152565b50565b6000600460405160240161375d9190614b6d565b6040516020818303038152906040527f57ef0ceb000000000000000000000000000000000000000000000000000000007bffffffffffffffffffffffffffffffffffffffffffffffffffffffff19166020820180517bffffffffffffffffffffffffffffffffffffffffffffffffffffffff8381831617835250505050905060003073ffffffffffffffffffffffffffffffffffffffff168260405161380391906148bd565b6000604051808303816000865af19150503d8060008114613840576040519150601f19603f3d011682016040523d82523d6000602084013e613845565b606091505b5050905073__$acbfb1c35000d78352310b16a054a6b106$__63767392b38260006040518363ffffffff1660e01b8152600401613883929190614a10565b60206040518083038186803b15801561389b57600080fd5b505af41580156138af573d6000803e3d6000fd5b505050506040513d601f19601f820116820180604052508101906138d39190614152565b505050565b73__$acbfb1c35000d78352310b16a054a6b106$__63abcd7960613953600e60009054906101000a900473ffffffffffffffffffffffffffffffffffffffff166040518060400160405280600481526020017f4a6f686e00000000000000000000000000000000000000000000000000000000815250611476565b60056040518363ffffffff1660e01b8152600401613972929190614fd8565b60206040518083038186803b15801561398a57600080fd5b505af415801561399e573d6000803e3d6000fd5b505050506040513d601f19601f820116820180604052508101906139c29190614152565b506000600e60009054906101000a900473ffffffffffffffffffffffffffffffffffffffff166040516024016139f89190614970565b6040516020818303038152906040527f1eb62036000000000000000000000000000000000000000000000000000000007bffffffffffffffffffffffffffffffffffffffffffffffffffffffff19166020820180517bffffffffffffffffffffffffffffffffffffffffffffffffffffffff8381831617835250505050905060003073ffffffffffffffffffffffffffffffffffffffff1682604051613a9e91906148bd565b6000604051808303816000865af19150503d8060008114613adb576040519150601f19603f3d011682016040523d82523d6000602084013e613ae0565b606091505b5050905073__$acbfb1c35000d78352310b16a054a6b106$__63767392b38260006040518363ffffffff1660e01b8152600401613b1e929190614a10565b60206040518083038186803b158015613b3657600080fd5b505af4158015613b4a573d6000803e3d6000fd5b505050506040513d601f19601f82011682018060405250810190613b6e9190614152565b506000600e60009054906101000a900473ffffffffffffffffffffffffffffffffffffffff16604051602401613ba4919061499e565b6040516020818303038152906040527f1eb62036000000000000000000000000000000000000000000000000000000007bffffffffffffffffffffffffffffffffffffffffffffffffffffffff19166020820180517bffffffffffffffffffffffffffffffffffffffffffffffffffffffff8381831617835250505050905060003073ffffffffffffffffffffffffffffffffffffffff1682604051613c4a91906148bd565b6000604051808303816000865af19150503d8060008114613c87576040519150601f19603f3d011682016040523d82523d6000602084013e613c8c565b606091505b5050905073__$acbfb1c35000d78352310b16a054a6b106$__63767392b38260006040518363ffffffff1660e01b8152600401613cca929190614a10565b60206040518083038186803b158015613ce257600080fd5b505af4158015613cf6573d6000803e3d6000fd5b505050506040513d601f19601f82011682018060405250810190613d1a9190614152565b5050505050565b6000806000600190505b6004548111613e005760006001905060006008600060076000868152602001908152602001600020600101548152602001908152602001600020541115613da45760086000600760008581526020019081526020016000206001015481526020019081526020016000205481613da191906151c7565b90505b8060086000600760008681526020019081526020016000206001015481526020019081526020016000208190555083811115613df457600760008381526020019081526020016000206001015492505b81600101915050613d2b565b506000808281526020019081526020016000206006908054613e21906153be565b613e2c929190613f2e565b506002600560006101000a81548160ff02191690836003811115613e5357613e526154c8565b5b02179055505050565b6040518060400160405280600073ffffffffffffffffffffffffffffffffffffffff168152602001600081525090565b6040518060400160405280606081526020016000151581525090565b828054613eb4906153be565b90600052602060002090601f016020900481019282613ed65760008555613f1d565b82601f10613eef57805160ff1916838001178555613f1d565b82800160010185558215613f1d579182015b82811115613f1c578251825591602001919060010190613f01565b5b509050613f2a9190613fbb565b5090565b828054613f3a906153be565b90600052602060002090601f016020900481019282613f5c5760008555613faa565b82601f10613f6d5780548555613faa565b82800160010185558215613faa57600052602060002091601f016020900482015b82811115613fa9578254825591600101919060010190613f8e565b5b509050613fb79190613fbb565b5090565b5b80821115613fd4576000816000905550600101613fbc565b5090565b6000613feb613fe684615129565b615104565b9050828152602081018484840111156140075761400661555a565b5b61401284828561537c565b509392505050565b60008135905061402981615b92565b92915050565b60008151905061403e81615b92565b92915050565b60008151905061405381615ba9565b92915050565b600082601f83011261406e5761406d615555565b5b813561407e848260208601613fd8565b91505092915050565b60008135905061409681615bc0565b92915050565b6000602082840312156140b2576140b1615564565b5b60006140c08482850161401a565b91505092915050565b6000602082840312156140df576140de615564565b5b60006140ed8482850161402f565b91505092915050565b6000806040838503121561410d5761410c615564565b5b600061411b8582860161401a565b925050602083013567ffffffffffffffff81111561413c5761413b61555f565b5b61414885828601614059565b9150509250929050565b60006020828403121561416857614167615564565b5b600061417684828501614044565b91505092915050565b60006020828403121561419557614194615564565b5b600082013567ffffffffffffffff8111156141b3576141b261555f565b5b6141bf84828501614059565b91505092915050565b6000602082840312156141de576141dd615564565b5b60006141ec84828501614087565b91505092915050565b6141fe8161524e565b82525050565b61420d8161524e565b82525050565b61421c81615260565b82525050565b61422b81615260565b82525050565b600061423c82615184565b614246818561519a565b935061425681856020860161538b565b80840191505092915050565b6000815461426f816153be565b614279818661519a565b9450600182166000811461429457600181146142a5576142d8565b60ff198316865281860193506142d8565b6142ae8561515a565b60005b838110156142d0578154818901526001820191506020810190506142b1565b838801955050505b50505092915050565b6142ea816152b6565b82525050565b6142f9816152c8565b82525050565b614308816152da565b82525050565b614317816152ec565b82525050565b614326816152fe565b82525050565b61433581615310565b82525050565b61434481615322565b82525050565b61435381615334565b82525050565b61436281615346565b82525050565b61437181615358565b82525050565b6143808161536a565b82525050565b60006143918261518f565b61439b81856151a5565b93506143ab81856020860161538b565b6143b481615569565b840191505092915050565b600081546143cc816153be565b6143d681866151b6565b945060018216600081146143f1576001811461440357614436565b60ff1983168652602086019350614436565b61440c8561516f565b60005b8381101561442e5781548189015260018201915060208101905061440f565b808801955050505b50505092915050565b600061444c6005836151a5565b91506144578261557a565b602082019050919050565b600061446f6019836151b6565b915061447a826155a3565b602082019050919050565b60006144926019836151a5565b915061449d826155cc565b602082019050919050565b60006144b56008836151b6565b91506144c0826155f5565b602082019050919050565b60006144d86016836151b6565b91506144e38261561e565b602082019050919050565b60006144fb6024836151a5565b915061450682615647565b604082019050919050565b600061451e6014836151b6565b915061452982615696565b602082019050919050565b6000614541601e836151b6565b915061454c826156bf565b602082019050919050565b60006145646022836151b6565b915061456f826156e8565b604082019050919050565b60006145876014836151b6565b915061459282615737565b602082019050919050565b60006145aa6014836151b6565b91506145b582615760565b602082019050919050565b60006145cd6026836151a5565b91506145d882615789565b604082019050919050565b60006145f06009836151a5565b91506145fb826157d8565b602082019050919050565b6000614613601b836151b6565b915061461e82615801565b602082019050919050565b6000614636601c836151b6565b91506146418261582a565b602082019050919050565b60006146596014836151b6565b915061466482615853565b602082019050919050565b600061467c6022836151b6565b91506146878261587c565b604082019050919050565b600061469f601c836151b6565b91506146aa826158cb565b602082019050919050565b60006146c26023836151a5565b91506146cd826158f4565b604082019050919050565b60006146e56026836151b6565b91506146f082615943565b604082019050919050565b60006147086015836151b6565b915061471382615992565b602082019050919050565b600061472b601b836151b6565b9150614736826159bb565b602082019050919050565b600061474e6018836151b6565b9150614759826159e4565b602082019050919050565b60006147716004836151a5565b915061477c82615a0d565b602082019050919050565b60006147946000836151b6565b915061479f82615a36565b600082019050919050565b60006147b76005836151a5565b91506147c282615a39565b602082019050919050565b60006147da6024836151b6565b91506147e582615a62565b604082019050919050565b60006147fd601d836151a5565b915061480882615ab1565b602082019050919050565b6000614820601b836151b6565b915061482b82615ada565b602082019050919050565b60006148436016836151b6565b915061484e82615b03565b602082019050919050565b60006148666008836151a5565b915061487182615b2c565b602082019050919050565b60006148896014836151b6565b915061489482615b55565b602082019050919050565b6148a88161529f565b82525050565b6148b78161529f565b82525050565b60006148c98284614231565b915081905092915050565b60006148e08284614262565b915081905092915050565b600060208201905061490060008301846141f5565b92915050565b600060608201905061491b6000830185614204565b6149286020830184614204565b818103604083015261493981614836565b90509392505050565b600060408201905061495760008301846141f5565b81810360208301526149688161443f565b905092915050565b600060408201905061498560008301846141f5565b818103602083015261499681614764565b905092915050565b60006040820190506149b360008301846141f5565b81810360208301526149c4816147aa565b905092915050565b60006040820190506149e160008301856141f5565b6149ee602083018461489f565b9392505050565b6000602082019050614a0a6000830184614213565b92915050565b6000606082019050614a256000830185614222565b614a326020830184614222565b8181036040830152614a438161466f565b90509392505050565b6000604082019050614a616000830184614222565b8181036020830152614a7281614629565b905092915050565b6000602082019050614a8f60008301846142e1565b92915050565b6000602082019050614aaa60008301846142f0565b92915050565b6000602082019050614ac560008301846142ff565b92915050565b6000602082019050614ae0600083018461430e565b92915050565b6000602082019050614afb600083018461431d565b92915050565b6000602082019050614b16600083018461432c565b92915050565b6000602082019050614b31600083018461433b565b92915050565b6000602082019050614b4c600083018461434a565b92915050565b6000602082019050614b676000830184614359565b92915050565b6000602082019050614b826000830184614368565b92915050565b6000602082019050614b9d6000830184614377565b92915050565b60006020820190508181036000830152614bbd8184614386565b905092915050565b60006040820190508181036000830152614bdf8185614386565b9050614bee6020830184614213565b9392505050565b60006060820190508181036000830152614c0f81846143bf565b90508181036020830152614c22816144a8565b90508181036040830152614c35816146d8565b905092915050565b60006060820190508181036000830152614c5781846143bf565b90508181036020830152614c6a81614787565b90508181036040830152614c7d816147cd565b905092915050565b60006020820190508181036000830152614c9e81614485565b9050919050565b60006020820190508181036000830152614cbe816144ee565b9050919050565b60006020820190508181036000830152614cde816145c0565b9050919050565b60006020820190508181036000830152614cfe816145e3565b9050919050565b60006020820190508181036000830152614d1e816146b5565b9050919050565b60006020820190508181036000830152614d3e816147f0565b9050919050565b60006020820190508181036000830152614d5e81614859565b9050919050565b6000602082019050614d7a600083018461489f565b92915050565b6000606082019050614d9560008301856148ae565b614da260208301846142f0565b8181036040830152614db381614534565b90509392505050565b6000606082019050614dd160008301856148ae565b614dde60208301846142f0565b8181036040830152614def81614557565b90509392505050565b6000606082019050614e0d60008301856148ae565b614e1a60208301846142f0565b8181036040830152614e2b81614692565b90509392505050565b6000606082019050614e4960008301856148ae565b614e56602083018461430e565b8181036040830152614e678161464c565b90509392505050565b6000606082019050614e8560008301856148ae565b614e92602083018461430e565b8181036040830152614ea38161471e565b90509392505050565b6000606082019050614ec160008301856148ae565b614ece602083018461432c565b8181036040830152614edf81614511565b90509392505050565b6000606082019050614efd60008301856148ae565b614f0a602083018461432c565b8181036040830152614f1b81614813565b90509392505050565b6000606082019050614f3960008301856148ae565b614f46602083018461434a565b8181036040830152614f578161459d565b90509392505050565b6000606082019050614f7560008301856148ae565b614f82602083018461434a565b8181036040830152614f9381614606565b90509392505050565b6000606082019050614fb160008301856148ae565b614fbe6020830184614359565b8181036040830152614fcf8161457a565b90509392505050565b6000606082019050614fed60008301856148ae565b614ffa6020830184614377565b818103604083015261500b8161487c565b90509392505050565b600060608201905061502960008301856148ae565b61503660208301846148ae565b818103604083015261504781614462565b90509392505050565b600060608201905061506560008301856148ae565b61507260208301846148ae565b8181036040830152615083816144cb565b90509392505050565b60006060820190506150a160008301856148ae565b6150ae60208301846148ae565b81810360408301526150bf816146fb565b90509392505050565b60006060820190506150dd60008301856148ae565b6150ea60208301846148ae565b81810360408301526150fb81614741565b90509392505050565b600061510e61511f565b905061511a82826153f0565b919050565b6000604051905090565b600067ffffffffffffffff82111561514457615143615526565b5b61514d82615569565b9050602081019050919050565b60008190508160005260206000209050919050565b60008190508160005260206000209050919050565b600081519050919050565b600081519050919050565b600081905092915050565b600082825260208201905092915050565b600082825260208201905092915050565b60006151d28261529f565b91506151dd8361529f565b9250827fffffffffffffffffffffffffffffffffffffffffffffffffffffffffffffffff038211156152125761521161546a565b5b828201905092915050565b60006152288261529f565b91506152338361529f565b92508261524357615242615499565b5b828204905092915050565b60006152598261527f565b9050919050565b60008115159050919050565b600081905061527a82615b7e565b919050565b600073ffffffffffffffffffffffffffffffffffffffff82169050919050565b6000819050919050565b600060ff82169050919050565b60006152c18261526c565b9050919050565b60006152d38261529f565b9050919050565b60006152e5826152a9565b9050919050565b60006152f78261529f565b9050919050565b6000615309826152a9565b9050919050565b600061531b8261529f565b9050919050565b600061532d826152a9565b9050919050565b600061533f8261529f565b9050919050565b60006153518261529f565b9050919050565b6000615363826152a9565b9050919050565b60006153758261529f565b9050919050565b82818337600083830152505050565b60005b838110156153a957808201518184015260208101905061538e565b838111156153b8576000848401525b50505050565b600060028204905060018216806153d657607f821691505b602082108114156153ea576153e96154f7565b5b50919050565b6153f982615569565b810181811067ffffffffffffffff8211171561541857615417615526565b5b80604052505050565b600061542c8261529f565b91507fffffffffffffffffffffffffffffffffffffffffffffffffffffffffffffffff82141561545f5761545e61546a565b5b600182019050919050565b7f4e487b7100000000000000000000000000000000000000000000000000000000600052601160045260246000fd5b7f4e487b7100000000000000000000000000000000000000000000000000000000600052601260045260246000fd5b7f4e487b7100000000000000000000000000000000000000000000000000000000600052602160045260246000fd5b7f4e487b7100000000000000000000000000000000000000000000000000000000600052602260045260246000fd5b7f4e487b7100000000000000000000000000000000000000000000000000000000600052604160045260246000fd5b600080fd5b600080fd5b600080fd5b600080fd5b6000601f19601f8301169050919050565b7f4461766573000000000000000000000000000000000000000000000000000000600082015250565b7f53746174652073686f756c642062652043616e63656c6c656400000000000000600082015250565b7f52657374617572616e7420616c72656164792065786973747300000000000000600082015250565b7f556e692043616665000000000000000000000000000000000000000000000000600082015250565b7f53746174652073686f756c6420626520566f74696e6700000000000000000000600082015250565b7f43616e206f6e6c7920626520657865637574656420696e20766f74696e67207360008201527f7461746500000000000000000000000000000000000000000000000000000000602082015250565b7f53686f756c6420626520657175616c20746f2032000000000000000000000000600082015250565b7f546865206e756d206f6620667269656e64732073686f756c6420626520300000600082015250565b7f546865206e756d206f662072657374617572616e74732073686f756c6420626560008201527f2030000000000000000000000000000000000000000000000000000000000000602082015250565b7f53686f756c6420626520657175616c20746f2034000000000000000000000000600082015250565b7f53686f756c6420626520657175616c20746f2033000000000000000000000000600082015250565b7f43616e206f6e6c7920626520657865637574656420696e206372656174696e6760008201527f2073746174650000000000000000000000000000000000000000000000000000602082015250565b7f554e535720436166650000000000000000000000000000000000000000000000600082015250565b7f4e756d626572206f6620766f7465732073686f756c6420626520330000000000600082015250565b7f566f74696e6720726573756c742073686f756c64206265207472756500000000600082015250565b7f53686f756c6420626520657175616c20746f2031000000000000000000000000600082015250565b7f657865637574696f6e2073686f756c64206e6f7420626520737563636573736660008201527f756c000000000000000000000000000000000000000000000000000000000000602082015250565b7f546865206e756d206f6620766f7465732073686f756c64206265203000000000600082015250565b7f43616e206f6e6c7920626520657865637574656420627920746865206d616e6160008201527f6765720000000000000000000000000000000000000000000000000000000000602082015250565b7f53656c65637465642072657374617572616e742073686f756c6420626520556e60008201527f6920436166650000000000000000000000000000000000000000000000000000602082015250565b7f53746174652073686f756c6420626520656e6465640000000000000000000000600082015250565b7f4e756d626572206f6620766f7465732073686f756c6420626520310000000000600082015250565b7f53746174652073686f756c64206265204372656174696e670000000000000000600082015250565b7f4a6f686e00000000000000000000000000000000000000000000000000000000600082015250565b50565b7f4a616d6573000000000000000000000000000000000000000000000000000000600082015250565b7f54686520766f7465642072657374617572616e742073686f756c64206265206560008201527f6d70747900000000000000000000000000000000000000000000000000000000602082015250565b7f467269656e64206164647265737320616c726561647920657869737473000000600082015250565b7f4e756d626572206f6620766f7465732073686f756c6420626520320000000000600082015250565b7f4d616e616765722073686f756c64206265206163633000000000000000000000600082015250565b7f4361742043616665000000000000000000000000000000000000000000000000600082015250565b7f53686f756c6420626520657175616c20746f2035000000000000000000000000600082015250565b60048110615b8f57615b8e6154c8565b5b50565b615b9b8161524e565b8114615ba657600080fd5b50565b615bb281615260565b8114615bbd57600080fd5b50565b615bc98161529f565b8114615bd457600080fd5b5056fea26469706673582212207a63b5779c442c8240b0d9cbc7e04d39909682e8b3405525c204b1e6a61dcf9064736f6c63430008050033",
			"opcodes": "PUSH1 0xA0 PUSH1 0x40 MSTORE PUSH1 0x1 PUSH1 0x9 PUSH1 0x0 PUSH2 0x100 EXP DUP2 SLOAD DUP2 PUSH1 0xFF MUL NOT AND SWAP1 DUP4 ISZERO ISZERO MUL OR SWAP1 SSTORE POP CALLVALUE DUP1 ISZERO PUSH3 0x2C JUMPI PUSH1 0x0 DUP1 REVERT JUMPDEST POP CALLER PUSH20 0xFFFFFFFFFFFFFFFFFFFFFFFFFFFFFFFFFFFFFFFF AND PUSH1 0x80 DUP2 PUSH20 0xFFFFFFFFFFFFFFFFFFFFFFFFFFFFFFFFFFFFFFFF AND PUSH1 0x60 SHL DUP2 MSTORE POP POP PUSH1 0x0 PUSH1 0x5 PUSH1 0x0 PUSH2 0x100 EXP DUP2 SLOAD DUP2 PUSH1 0xFF MUL NOT AND SWAP1 DUP4 PUSH1 0x3 DUP2 GT ISZERO PUSH3 0x8D JUMPI PUSH3 0x8C PUSH3 0x98 JUMP JUMPDEST JUMPDEST MUL OR SWAP1 SSTORE POP PUSH3 0xC7 JUMP JUMPDEST PUSH32 0x4E487B7100000000000000000000000000000000000000000000000000000000 PUSH1 0x0 MSTORE PUSH1 0x21 PUSH1 0x4 MSTORE PUSH1 0x24 PUSH1 0x0 REVERT JUMPDEST PUSH1 0x80 MLOAD PUSH1 0x60 SHR PUSH2 0x5C0D PUSH3 0x110 PUSH1 0x0 CODECOPY PUSH1 0x0 DUP2 DUP2 PUSH2 0xD5E ADD MSTORE DUP2 DUP2 PUSH2 0x1063 ADD MSTORE DUP2 DUP2 PUSH2 0x147A ADD MSTORE DUP2 DUP2 PUSH2 0x16DB ADD MSTORE DUP2 DUP2 PUSH2 0x18D4 ADD MSTORE DUP2 DUP2 PUSH2 0x243F ADD MSTORE PUSH2 0x2A51 ADD MSTORE PUSH2 0x5C0D PUSH1 0x0 RETURN INVALID PUSH1 0x80 PUSH1 0x40 MSTORE CALLVALUE DUP1 ISZERO PUSH2 0x10 JUMPI PUSH1 0x0 DUP1 REVERT JUMPDEST POP PUSH1 0x4 CALLDATASIZE LT PUSH2 0x23C JUMPI PUSH1 0x0 CALLDATALOAD PUSH1 0xE0 SHR DUP1 PUSH4 0x7FEA0D4B GT PUSH2 0x13B JUMPI DUP1 PUSH4 0xAD5461D8 GT PUSH2 0xB8 JUMPI DUP1 PUSH4 0xC19D93FB GT PUSH2 0x7C JUMPI DUP1 PUSH4 0xC19D93FB EQ PUSH2 0x4DF JUMPI DUP1 PUSH4 0xC1C16EFC EQ PUSH2 0x4FD JUMPI DUP1 PUSH4 0xC351F495 EQ PUSH2 0x51B JUMPI DUP1 PUSH4 0xCD59BDC9 EQ PUSH2 0x525 JUMPI DUP1 PUSH4 0xDCD17401 EQ PUSH2 0x52F JUMPI PUSH2 0x23C JUMP JUMPDEST DUP1 PUSH4 0xAD5461D8 EQ PUSH2 0x473 JUMPI DUP1 PUSH4 0xB64B116F EQ PUSH2 0x4A3 JUMPI DUP1 PUSH4 0xB798867F EQ PUSH2 0x4AD JUMPI DUP1 PUSH4 0xBCBA4DB6 EQ PUSH2 0x4CB JUMPI DUP1 PUSH4 0xC09A7A5F EQ PUSH2 0x4D5 JUMPI PUSH2 0x23C JUMP JUMPDEST DUP1 PUSH4 0xA24A4E88 GT PUSH2 0xFF JUMPI DUP1 PUSH4 0xA24A4E88 EQ PUSH2 0x42D JUMPI DUP1 PUSH4 0xA3BEF4D7 EQ PUSH2 0x437 JUMPI DUP1 PUSH4 0xA5627CF0 EQ PUSH2 0x455 JUMPI DUP1 PUSH4 0xA743E776 EQ PUSH2 0x45F JUMPI DUP1 PUSH4 0xA9A4070C EQ PUSH2 0x469 JUMPI PUSH2 0x23C JUMP JUMPDEST DUP1 PUSH4 0x7FEA0D4B EQ PUSH2 0x3FB JUMPI DUP1 PUSH4 0x81F4B232 EQ PUSH2 0x405 JUMPI DUP1 PUSH4 0x8279A17F EQ PUSH2 0x40F JUMPI DUP1 PUSH4 0x848B4427 EQ PUSH2 0x419 JUMPI DUP1 PUSH4 0x947AEA86 EQ PUSH2 0x423 JUMPI PUSH2 0x23C JUMP JUMPDEST DUP1 PUSH4 0x3B9F708D GT PUSH2 0x1C9 JUMPI DUP1 PUSH4 0x6D77BD3E GT PUSH2 0x18D JUMPI DUP1 PUSH4 0x6D77BD3E EQ PUSH2 0x38F JUMPI DUP1 PUSH4 0x6EC8DF91 EQ PUSH2 0x3BF JUMPI DUP1 PUSH4 0x77440E06 EQ PUSH2 0x3C9 JUMPI DUP1 PUSH4 0x788D3851 EQ PUSH2 0x3D3 JUMPI DUP1 PUSH4 0x7899FE2F EQ PUSH2 0x3F1 JUMPI PUSH2 0x23C JUMP JUMPDEST DUP1 PUSH4 0x3B9F708D EQ PUSH2 0x2E8 JUMPI DUP1 PUSH4 0x47098F36 EQ PUSH2 0x318 JUMPI DUP1 PUSH4 0x481C6A75 EQ PUSH2 0x336 JUMPI DUP1 PUSH4 0x5DF81330 EQ PUSH2 0x354 JUMPI DUP1 PUSH4 0x6A9FE400 EQ PUSH2 0x385 JUMPI PUSH2 0x23C JUMP JUMPDEST DUP1 PUSH4 0x1DDABF7A GT PUSH2 0x210 JUMPI DUP1 PUSH4 0x1DDABF7A EQ PUSH2 0x28F JUMPI DUP1 PUSH4 0x1EC6B60A EQ PUSH2 0x2C0 JUMPI DUP1 PUSH4 0x27205128 EQ PUSH2 0x2CA JUMPI DUP1 PUSH4 0x2955FEA3 EQ PUSH2 0x2D4 JUMPI DUP1 PUSH4 0x37525AFC EQ PUSH2 0x2DE JUMPI PUSH2 0x23C JUMP JUMPDEST DUP1 PUSH3 0x430BA7 EQ PUSH2 0x241 JUMPI DUP1 PUSH4 0xBB150D6 EQ PUSH2 0x24B JUMPI DUP1 PUSH4 0x124258C6 EQ PUSH2 0x255 JUMPI DUP1 PUSH4 0x12A4591A EQ PUSH2 0x285 JUMPI JUMPDEST PUSH1 0x0 DUP1 REVERT JUMPDEST PUSH2 0x249 PUSH2 0x539 JUMP JUMPDEST STOP JUMPDEST PUSH2 0x253 PUSH2 0x659 JUMP JUMPDEST STOP JUMPDEST PUSH2 0x26F PUSH1 0x4 DUP1 CALLDATASIZE SUB DUP2 ADD SWAP1 PUSH2 0x26A SWAP2 SWAP1 PUSH2 0x41C8 JUMP JUMPDEST PUSH2 0x7E8 JUMP JUMPDEST PUSH1 0x40 MLOAD PUSH2 0x27C SWAP2 SWAP1 PUSH2 0x49F5 JUMP JUMPDEST PUSH1 0x40 MLOAD DUP1 SWAP2 SUB SWAP1 RETURN JUMPDEST PUSH2 0x28D PUSH2 0xA9B JUMP JUMPDEST STOP JUMPDEST PUSH2 0x2A9 PUSH1 0x4 DUP1 CALLDATASIZE SUB DUP2 ADD SWAP1 PUSH2 0x2A4 SWAP2 SWAP1 PUSH2 0x409C JUMP JUMPDEST PUSH2 0xC2D JUMP JUMPDEST PUSH1 0x40 MLOAD PUSH2 0x2B7 SWAP3 SWAP2 SWAP1 PUSH2 0x4BC5 JUMP JUMPDEST PUSH1 0x40 MLOAD DUP1 SWAP2 SUB SWAP1 RETURN JUMPDEST PUSH2 0x2C8 PUSH2 0xCE6 JUMP JUMPDEST STOP JUMPDEST PUSH2 0x2D2 PUSH2 0xE17 JUMP JUMPDEST STOP JUMPDEST PUSH2 0x2DC PUSH2 0x11D3 JUMP JUMPDEST STOP JUMPDEST PUSH2 0x2E6 PUSH2 0x12F3 JUMP JUMPDEST STOP JUMPDEST PUSH2 0x302 PUSH1 0x4 DUP1 CALLDATASIZE SUB DUP2 ADD SWAP1 PUSH2 0x2FD SWAP2 SWAP1 PUSH2 0x40F6 JUMP JUMPDEST PUSH2 0x1476 JUMP JUMPDEST PUSH1 0x40 MLOAD PUSH2 0x30F SWAP2 SWAP1 PUSH2 0x4D65 JUMP JUMPDEST PUSH1 0x40 MLOAD DUP1 SWAP2 SUB SWAP1 RETURN JUMPDEST PUSH2 0x320 PUSH2 0x16D3 JUMP JUMPDEST PUSH1 0x40 MLOAD PUSH2 0x32D SWAP2 SWAP1 PUSH2 0x4D65 JUMP JUMPDEST PUSH1 0x40 MLOAD DUP1 SWAP2 SUB SWAP1 RETURN JUMPDEST PUSH2 0x33E PUSH2 0x16D9 JUMP JUMPDEST PUSH1 0x40 MLOAD PUSH2 0x34B SWAP2 SWAP1 PUSH2 0x48EB JUMP JUMPDEST PUSH1 0x40 MLOAD DUP1 SWAP2 SUB SWAP1 RETURN JUMPDEST PUSH2 0x36E PUSH1 0x4 DUP1 CALLDATASIZE SUB DUP2 ADD SWAP1 PUSH2 0x369 SWAP2 SWAP1 PUSH2 0x41C8 JUMP JUMPDEST PUSH2 0x16FD JUMP JUMPDEST PUSH1 0x40 MLOAD PUSH2 0x37C SWAP3 SWAP2 SWAP1 PUSH2 0x49CC JUMP JUMPDEST PUSH1 0x40 MLOAD DUP1 SWAP2 SUB SWAP1 RETURN JUMPDEST PUSH2 0x38D PUSH2 0x1741 JUMP JUMPDEST STOP JUMPDEST PUSH2 0x3A9 PUSH1 0x4 DUP1 CALLDATASIZE SUB DUP2 ADD SWAP1 PUSH2 0x3A4 SWAP2 SWAP1 PUSH2 0x417F JUMP JUMPDEST PUSH2 0x18D0 JUMP JUMPDEST PUSH1 0x40 MLOAD PUSH2 0x3B6 SWAP2 SWAP1 PUSH2 0x4D65 JUMP JUMPDEST PUSH1 0x40 MLOAD DUP1 SWAP2 SUB SWAP1 RETURN JUMPDEST PUSH2 0x3C7 PUSH2 0x1AAD JUMP JUMPDEST STOP JUMPDEST PUSH2 0x3D1 PUSH2 0x1C39 JUMP JUMPDEST STOP JUMPDEST PUSH2 0x3DB PUSH2 0x1DE9 JUMP JUMPDEST PUSH1 0x40 MLOAD PUSH2 0x3E8 SWAP2 SWAP1 PUSH2 0x49F5 JUMP JUMPDEST PUSH1 0x40 MLOAD DUP1 SWAP2 SUB SWAP1 RETURN JUMPDEST PUSH2 0x3F9 PUSH2 0x1DFC JUMP JUMPDEST STOP JUMPDEST PUSH2 0x403 PUSH2 0x1F8B JUMP JUMPDEST STOP JUMPDEST PUSH2 0x40D PUSH2 0x243D JUMP JUMPDEST STOP JUMPDEST PUSH2 0x417 PUSH2 0x24F8 JUMP JUMPDEST STOP JUMPDEST PUSH2 0x421 PUSH2 0x2687 JUMP JUMPDEST STOP JUMPDEST PUSH2 0x42B PUSH2 0x2A35 JUMP JUMPDEST STOP JUMPDEST PUSH2 0x435 PUSH2 0x2B03 JUMP JUMPDEST STOP JUMPDEST PUSH2 0x43F PUSH2 0x2C23 JUMP JUMPDEST PUSH1 0x40 MLOAD PUSH2 0x44C SWAP2 SWAP1 PUSH2 0x4D65 JUMP JUMPDEST PUSH1 0x40 MLOAD DUP1 SWAP2 SUB SWAP1 RETURN JUMPDEST PUSH2 0x45D PUSH2 0x2C29 JUMP JUMPDEST STOP JUMPDEST PUSH2 0x467 PUSH2 0x2DB8 JUMP JUMPDEST STOP JUMPDEST PUSH2 0x471 PUSH2 0x300C JUMP JUMPDEST STOP JUMPDEST PUSH2 0x48D PUSH1 0x4 DUP1 CALLDATASIZE SUB DUP2 ADD SWAP1 PUSH2 0x488 SWAP2 SWAP1 PUSH2 0x41C8 JUMP JUMPDEST PUSH2 0x319B JUMP JUMPDEST PUSH1 0x40 MLOAD PUSH2 0x49A SWAP2 SWAP1 PUSH2 0x4BA3 JUMP JUMPDEST PUSH1 0x40 MLOAD DUP1 SWAP2 SUB SWAP1 RETURN JUMPDEST PUSH2 0x4AB PUSH2 0x323B JUMP JUMPDEST STOP JUMPDEST PUSH2 0x4B5 PUSH2 0x3302 JUMP JUMPDEST PUSH1 0x40 MLOAD PUSH2 0x4C2 SWAP2 SWAP1 PUSH2 0x4D65 JUMP JUMPDEST PUSH1 0x40 MLOAD DUP1 SWAP2 SUB SWAP1 RETURN JUMPDEST PUSH2 0x4D3 PUSH2 0x3308 JUMP JUMPDEST STOP JUMPDEST PUSH2 0x4DD PUSH2 0x3497 JUMP JUMPDEST STOP JUMPDEST PUSH2 0x4E7 PUSH2 0x35E0 JUMP JUMPDEST PUSH1 0x40 MLOAD PUSH2 0x4F4 SWAP2 SWAP1 PUSH2 0x4A7A JUMP JUMPDEST PUSH1 0x40 MLOAD DUP1 SWAP2 SUB SWAP1 RETURN JUMPDEST PUSH2 0x505 PUSH2 0x35F3 JUMP JUMPDEST PUSH1 0x40 MLOAD PUSH2 0x512 SWAP2 SWAP1 PUSH2 0x4BA3 JUMP JUMPDEST PUSH1 0x40 MLOAD DUP1 SWAP2 SUB SWAP1 RETURN JUMPDEST PUSH2 0x523 PUSH2 0x3681 JUMP JUMPDEST STOP JUMPDEST PUSH2 0x52D PUSH2 0x3749 JUMP JUMPDEST STOP JUMPDEST PUSH2 0x537 PUSH2 0x38D8 JUMP JUMPDEST STOP JUMPDEST PUSH20 0x0 PUSH4 0x39DF137F PUSH2 0x55D PUSH1 0x2 PUSH2 0x7E8 JUMP JUMPDEST PUSH1 0x40 MLOAD DUP3 PUSH4 0xFFFFFFFF AND PUSH1 0xE0 SHL DUP2 MSTORE PUSH1 0x4 ADD PUSH2 0x579 SWAP2 SWAP1 PUSH2 0x4A4C JUMP JUMPDEST PUSH1 0x20 PUSH1 0x40 MLOAD DUP1 DUP4 SUB DUP2 DUP7 DUP1 EXTCODESIZE ISZERO DUP1 ISZERO PUSH2 0x591 JUMPI PUSH1 0x0 DUP1 REVERT JUMPDEST POP GAS DELEGATECALL ISZERO DUP1 ISZERO PUSH2 0x5A5 JUMPI RETURNDATASIZE PUSH1 0x0 DUP1 RETURNDATACOPY RETURNDATASIZE PUSH1 0x0 REVERT JUMPDEST POP POP POP POP PUSH1 0x40 MLOAD RETURNDATASIZE PUSH1 0x1F NOT PUSH1 0x1F DUP3 ADD AND DUP3 ADD DUP1 PUSH1 0x40 MSTORE POP DUP2 ADD SWAP1 PUSH2 0x5C9 SWAP2 SWAP1 PUSH2 0x4152 JUMP JUMPDEST POP PUSH20 0x0 PUSH4 0xABCD7960 PUSH1 0x4 SLOAD PUSH1 0x1 PUSH1 0x40 MLOAD DUP4 PUSH4 0xFFFFFFFF AND PUSH1 0xE0 SHL DUP2 MSTORE PUSH1 0x4 ADD PUSH2 0x606 SWAP3 SWAP2 SWAP1 PUSH2 0x4E70 JUMP JUMPDEST PUSH1 0x20 PUSH1 0x40 MLOAD DUP1 DUP4 SUB DUP2 DUP7 DUP1 EXTCODESIZE ISZERO DUP1 ISZERO PUSH2 0x61E JUMPI PUSH1 0x0 DUP1 REVERT JUMPDEST POP GAS DELEGATECALL ISZERO DUP1 ISZERO PUSH2 0x632 JUMPI RETURNDATASIZE PUSH1 0x0 DUP1 RETURNDATACOPY RETURNDATASIZE PUSH1 0x0 REVERT JUMPDEST POP POP POP POP PUSH1 0x40 MLOAD RETURNDATASIZE PUSH1 0x1F NOT PUSH1 0x1F DUP3 ADD AND DUP3 ADD DUP1 PUSH1 0x40 MSTORE POP DUP2 ADD SWAP1 PUSH2 0x656 SWAP2 SWAP1 PUSH2 0x4152 JUMP JUMPDEST POP JUMP JUMPDEST PUSH1 0x0 PUSH1 0x2 PUSH1 0x40 MLOAD PUSH1 0x24 ADD PUSH2 0x66D SWAP2 SWAP1 PUSH2 0x4B1C JUMP JUMPDEST PUSH1 0x40 MLOAD PUSH1 0x20 DUP2 DUP4 SUB SUB DUP2 MSTORE SWAP1 PUSH1 0x40 MSTORE PUSH32 0x57EF0CEB00000000000000000000000000000000000000000000000000000000 PUSH28 0xFFFFFFFFFFFFFFFFFFFFFFFFFFFFFFFFFFFFFFFFFFFFFFFFFFFFFFFF NOT AND PUSH1 0x20 DUP3 ADD DUP1 MLOAD PUSH28 0xFFFFFFFFFFFFFFFFFFFFFFFFFFFFFFFFFFFFFFFFFFFFFFFFFFFFFFFF DUP4 DUP2 DUP4 AND OR DUP4 MSTORE POP POP POP POP SWAP1 POP PUSH1 0x0 ADDRESS PUSH20 0xFFFFFFFFFFFFFFFFFFFFFFFFFFFFFFFFFFFFFFFF AND DUP3 PUSH1 0x40 MLOAD PUSH2 0x713 SWAP2 SWAP1 PUSH2 0x48BD JUMP JUMPDEST PUSH1 0x0 PUSH1 0x40 MLOAD DUP1 DUP4 SUB DUP2 PUSH1 0x0 DUP7 GAS CALL SWAP2 POP POP RETURNDATASIZE DUP1 PUSH1 0x0 DUP2 EQ PUSH2 0x750 JUMPI PUSH1 0x40 MLOAD SWAP2 POP PUSH1 0x1F NOT PUSH1 0x3F RETURNDATASIZE ADD AND DUP3 ADD PUSH1 0x40 MSTORE RETURNDATASIZE DUP3 MSTORE RETURNDATASIZE PUSH1 0x0 PUSH1 0x20 DUP5 ADD RETURNDATACOPY PUSH2 0x755 JUMP JUMPDEST PUSH1 0x60 SWAP2 POP JUMPDEST POP POP SWAP1 POP PUSH20 0x0 PUSH4 0x767392B3 DUP3 PUSH1 0x0 PUSH1 0x40 MLOAD DUP4 PUSH4 0xFFFFFFFF AND PUSH1 0xE0 SHL DUP2 MSTORE PUSH1 0x4 ADD PUSH2 0x793 SWAP3 SWAP2 SWAP1 PUSH2 0x4A10 JUMP JUMPDEST PUSH1 0x20 PUSH1 0x40 MLOAD DUP1 DUP4 SUB DUP2 DUP7 DUP1 EXTCODESIZE ISZERO DUP1 ISZERO PUSH2 0x7AB JUMPI PUSH1 0x0 DUP1 REVERT JUMPDEST POP GAS DELEGATECALL ISZERO DUP1 ISZERO PUSH2 0x7BF JUMPI RETURNDATASIZE PUSH1 0x0 DUP1 RETURNDATACOPY RETURNDATASIZE PUSH1 0x0 REVERT JUMPDEST POP POP POP POP PUSH1 0x40 MLOAD RETURNDATASIZE PUSH1 0x1F NOT PUSH1 0x1F DUP3 ADD AND DUP3 ADD DUP1 PUSH1 0x40 MSTORE POP DUP2 ADD SWAP1 PUSH2 0x7E3 SWAP2 SWAP1 PUSH2 0x4152 JUMP JUMPDEST POP POP POP JUMP JUMPDEST PUSH1 0x0 PUSH1 0x1 PUSH1 0x3 DUP2 GT ISZERO PUSH2 0x7FE JUMPI PUSH2 0x7FD PUSH2 0x54C8 JUMP JUMPDEST JUMPDEST PUSH1 0x5 PUSH1 0x0 SWAP1 SLOAD SWAP1 PUSH2 0x100 EXP SWAP1 DIV PUSH1 0xFF AND PUSH1 0x3 DUP2 GT ISZERO PUSH2 0x820 JUMPI PUSH2 0x81F PUSH2 0x54C8 JUMP JUMPDEST JUMPDEST EQ PUSH2 0x860 JUMPI PUSH1 0x40 MLOAD PUSH32 0x8C379A000000000000000000000000000000000000000000000000000000000 DUP2 MSTORE PUSH1 0x4 ADD PUSH2 0x857 SWAP1 PUSH2 0x4CA5 JUMP JUMPDEST PUSH1 0x40 MLOAD DUP1 SWAP2 SUB SWAP1 REVERT JUMPDEST PUSH1 0x0 SWAP1 POP PUSH1 0x0 PUSH1 0x1 PUSH1 0x0 CALLER PUSH20 0xFFFFFFFFFFFFFFFFFFFFFFFFFFFFFFFFFFFFFFFF AND PUSH20 0xFFFFFFFFFFFFFFFFFFFFFFFFFFFFFFFFFFFFFFFF AND DUP2 MSTORE PUSH1 0x20 ADD SWAP1 DUP2 MSTORE PUSH1 0x20 ADD PUSH1 0x0 KECCAK256 PUSH1 0x0 ADD DUP1 SLOAD PUSH2 0x8B3 SWAP1 PUSH2 0x53BE JUMP JUMPDEST SWAP1 POP EQ PUSH2 0xA6A JUMPI PUSH1 0x0 ISZERO ISZERO PUSH1 0x1 PUSH1 0x0 CALLER PUSH20 0xFFFFFFFFFFFFFFFFFFFFFFFFFFFFFFFFFFFFFFFF AND PUSH20 0xFFFFFFFFFFFFFFFFFFFFFFFFFFFFFFFFFFFFFFFF AND DUP2 MSTORE PUSH1 0x20 ADD SWAP1 DUP2 MSTORE PUSH1 0x20 ADD PUSH1 0x0 KECCAK256 PUSH1 0x1 ADD PUSH1 0x0 SWAP1 SLOAD SWAP1 PUSH2 0x100 EXP SWAP1 DIV PUSH1 0xFF AND ISZERO ISZERO EQ ISZERO PUSH2 0xA69 JUMPI PUSH1 0x0 DUP1 PUSH1 0x0 DUP5 DUP2 MSTORE PUSH1 0x20 ADD SWAP1 DUP2 MSTORE PUSH1 0x20 ADD PUSH1 0x0 KECCAK256 DUP1 SLOAD PUSH2 0x935 SWAP1 PUSH2 0x53BE JUMP JUMPDEST SWAP1 POP EQ PUSH2 0xA68 JUMPI PUSH1 0x1 SWAP1 POP PUSH1 0x1 DUP1 PUSH1 0x0 CALLER PUSH20 0xFFFFFFFFFFFFFFFFFFFFFFFFFFFFFFFFFFFFFFFF AND PUSH20 0xFFFFFFFFFFFFFFFFFFFFFFFFFFFFFFFFFFFFFFFF AND DUP2 MSTORE PUSH1 0x20 ADD SWAP1 DUP2 MSTORE PUSH1 0x20 ADD PUSH1 0x0 KECCAK256 PUSH1 0x1 ADD PUSH1 0x0 PUSH2 0x100 EXP DUP2 SLOAD DUP2 PUSH1 0xFF MUL NOT AND SWAP1 DUP4 ISZERO ISZERO MUL OR SWAP1 SSTORE POP PUSH2 0x9A2 PUSH2 0x3E5C JUMP JUMPDEST CALLER DUP2 PUSH1 0x0 ADD SWAP1 PUSH20 0xFFFFFFFFFFFFFFFFFFFFFFFFFFFFFFFFFFFFFFFF AND SWAP1 DUP2 PUSH20 0xFFFFFFFFFFFFFFFFFFFFFFFFFFFFFFFFFFFFFFFF AND DUP2 MSTORE POP POP DUP3 DUP2 PUSH1 0x20 ADD DUP2 DUP2 MSTORE POP POP PUSH1 0x4 PUSH1 0x0 DUP2 SLOAD DUP1 SWAP3 SWAP2 SWAP1 PUSH2 0x9F7 SWAP1 PUSH2 0x5421 JUMP JUMPDEST SWAP2 SWAP1 POP SSTORE POP DUP1 PUSH1 0x7 PUSH1 0x0 PUSH1 0x4 SLOAD DUP2 MSTORE PUSH1 0x20 ADD SWAP1 DUP2 MSTORE PUSH1 0x20 ADD PUSH1 0x0 KECCAK256 PUSH1 0x0 DUP3 ADD MLOAD DUP2 PUSH1 0x0 ADD PUSH1 0x0 PUSH2 0x100 EXP DUP2 SLOAD DUP2 PUSH20 0xFFFFFFFFFFFFFFFFFFFFFFFFFFFFFFFFFFFFFFFF MUL NOT AND SWAP1 DUP4 PUSH20 0xFFFFFFFFFFFFFFFFFFFFFFFFFFFFFFFFFFFFFFFF AND MUL OR SWAP1 SSTORE POP PUSH1 0x20 DUP3 ADD MLOAD DUP2 PUSH1 0x1 ADD SSTORE SWAP1 POP POP POP JUMPDEST JUMPDEST JUMPDEST PUSH1 0x1 PUSH1 0x2 PUSH1 0x3 SLOAD PUSH2 0xA7B SWAP2 SWAP1 PUSH2 0x521D JUMP JUMPDEST PUSH2 0xA85 SWAP2 SWAP1 PUSH2 0x51C7 JUMP JUMPDEST PUSH1 0x4 SLOAD LT PUSH2 0xA96 JUMPI PUSH2 0xA95 PUSH2 0x3D21 JUMP JUMPDEST JUMPDEST SWAP2 SWAP1 POP JUMP JUMPDEST PUSH20 0x0 PUSH4 0xABCD7960 PUSH2 0xAF3 PUSH1 0x40 MLOAD DUP1 PUSH1 0x40 ADD PUSH1 0x40 MSTORE DUP1 PUSH1 0xE DUP2 MSTORE PUSH1 0x20 ADD PUSH32 0x436F757274796172642043616665000000000000000000000000000000000000 DUP2 MSTORE POP PUSH2 0x18D0 JUMP JUMPDEST PUSH1 0x1 PUSH1 0x40 MLOAD DUP4 PUSH4 0xFFFFFFFF AND PUSH1 0xE0 SHL DUP2 MSTORE PUSH1 0x4 ADD PUSH2 0xB12 SWAP3 SWAP2 SWAP1 PUSH2 0x4E34 JUMP JUMPDEST PUSH1 0x20 PUSH1 0x40 MLOAD DUP1 DUP4 SUB DUP2 DUP7 DUP1 EXTCODESIZE ISZERO DUP1 ISZERO PUSH2 0xB2A JUMPI PUSH1 0x0 DUP1 REVERT JUMPDEST POP GAS DELEGATECALL ISZERO DUP1 ISZERO PUSH2 0xB3E JUMPI RETURNDATASIZE PUSH1 0x0 DUP1 RETURNDATACOPY RETURNDATASIZE PUSH1 0x0 REVERT JUMPDEST POP POP POP POP PUSH1 0x40 MLOAD RETURNDATASIZE PUSH1 0x1F NOT PUSH1 0x1F DUP3 ADD AND DUP3 ADD DUP1 PUSH1 0x40 MSTORE POP DUP2 ADD SWAP1 PUSH2 0xB62 SWAP2 SWAP1 PUSH2 0x4152 JUMP JUMPDEST POP PUSH20 0x0 PUSH4 0xABCD7960 PUSH2 0xBBB PUSH1 0x40 MLOAD DUP1 PUSH1 0x40 ADD PUSH1 0x40 MSTORE DUP1 PUSH1 0x8 DUP2 MSTORE PUSH1 0x20 ADD PUSH32 0x556E692043616665000000000000000000000000000000000000000000000000 DUP2 MSTORE POP PUSH2 0x18D0 JUMP JUMPDEST PUSH1 0x2 PUSH1 0x40 MLOAD DUP4 PUSH4 0xFFFFFFFF AND PUSH1 0xE0 SHL DUP2 MSTORE PUSH1 0x4 ADD PUSH2 0xBDA SWAP3 SWAP2 SWAP1 PUSH2 0x4EAC JUMP JUMPDEST PUSH1 0x20 PUSH1 0x40 MLOAD DUP1 DUP4 SUB DUP2 DUP7 DUP1 EXTCODESIZE ISZERO DUP1 ISZERO PUSH2 0xBF2 JUMPI PUSH1 0x0 DUP1 REVERT JUMPDEST POP GAS DELEGATECALL ISZERO DUP1 ISZERO PUSH2 0xC06 JUMPI RETURNDATASIZE PUSH1 0x0 DUP1 RETURNDATACOPY RETURNDATASIZE PUSH1 0x0 REVERT JUMPDEST POP POP POP POP PUSH1 0x40 MLOAD RETURNDATASIZE PUSH1 0x1F NOT PUSH1 0x1F DUP3 ADD AND DUP3 ADD DUP1 PUSH1 0x40 MSTORE POP DUP2 ADD SWAP1 PUSH2 0xC2A SWAP2 SWAP1 PUSH2 0x4152 JUMP JUMPDEST POP JUMP JUMPDEST PUSH1 0x1 PUSH1 0x20 MSTORE DUP1 PUSH1 0x0 MSTORE PUSH1 0x40 PUSH1 0x0 KECCAK256 PUSH1 0x0 SWAP2 POP SWAP1 POP DUP1 PUSH1 0x0 ADD DUP1 SLOAD PUSH2 0xC50 SWAP1 PUSH2 0x53BE JUMP JUMPDEST DUP1 PUSH1 0x1F ADD PUSH1 0x20 DUP1 SWAP2 DIV MUL PUSH1 0x20 ADD PUSH1 0x40 MLOAD SWAP1 DUP2 ADD PUSH1 0x40 MSTORE DUP1 SWAP3 SWAP2 SWAP1 DUP2 DUP2 MSTORE PUSH1 0x20 ADD DUP3 DUP1 SLOAD PUSH2 0xC7C SWAP1 PUSH2 0x53BE JUMP JUMPDEST DUP1 ISZERO PUSH2 0xCC9 JUMPI DUP1 PUSH1 0x1F LT PUSH2 0xC9E JUMPI PUSH2 0x100 DUP1 DUP4 SLOAD DIV MUL DUP4 MSTORE SWAP2 PUSH1 0x20 ADD SWAP2 PUSH2 0xCC9 JUMP JUMPDEST DUP3 ADD SWAP2 SWAP1 PUSH1 0x0 MSTORE PUSH1 0x20 PUSH1 0x0 KECCAK256 SWAP1 JUMPDEST DUP2 SLOAD DUP2 MSTORE SWAP1 PUSH1 0x1 ADD SWAP1 PUSH1 0x20 ADD DUP1 DUP4 GT PUSH2 0xCAC JUMPI DUP3 SWAP1 SUB PUSH1 0x1F AND DUP3 ADD SWAP2 JUMPDEST POP POP POP POP POP SWAP1 DUP1 PUSH1 0x1 ADD PUSH1 0x0 SWAP1 SLOAD SWAP1 PUSH2 0x100 EXP SWAP1 DIV PUSH1 0xFF AND SWAP1 POP DUP3 JUMP JUMPDEST PUSH1 0x0 PUSH1 0x3 DUP2 GT ISZERO PUSH2 0xCFA JUMPI PUSH2 0xCF9 PUSH2 0x54C8 JUMP JUMPDEST JUMPDEST PUSH1 0x5 PUSH1 0x0 SWAP1 SLOAD SWAP1 PUSH2 0x100 EXP SWAP1 DIV PUSH1 0xFF AND PUSH1 0x3 DUP2 GT ISZERO PUSH2 0xD1C JUMPI PUSH2 0xD1B PUSH2 0x54C8 JUMP JUMPDEST JUMPDEST EQ PUSH2 0xD5C JUMPI PUSH1 0x40 MLOAD PUSH32 0x8C379A000000000000000000000000000000000000000000000000000000000 DUP2 MSTORE PUSH1 0x4 ADD PUSH2 0xD53 SWAP1 PUSH2 0x4CC5 JUMP JUMPDEST PUSH1 0x40 MLOAD DUP1 SWAP2 SUB SWAP1 REVERT JUMPDEST PUSH32 0x0 PUSH20 0xFFFFFFFFFFFFFFFFFFFFFFFFFFFFFFFFFFFFFFFF AND CALLER PUSH20 0xFFFFFFFFFFFFFFFFFFFFFFFFFFFFFFFFFFFFFFFF AND EQ PUSH2 0xDEA JUMPI PUSH1 0x40 MLOAD PUSH32 0x8C379A000000000000000000000000000000000000000000000000000000000 DUP2 MSTORE PUSH1 0x4 ADD PUSH2 0xDE1 SWAP1 PUSH2 0x4D05 JUMP JUMPDEST PUSH1 0x40 MLOAD DUP1 SWAP2 SUB SWAP1 REVERT JUMPDEST PUSH1 0x1 PUSH1 0x5 PUSH1 0x0 PUSH2 0x100 EXP DUP2 SLOAD DUP2 PUSH1 0xFF MUL NOT AND SWAP1 DUP4 PUSH1 0x3 DUP2 GT ISZERO PUSH2 0xE10 JUMPI PUSH2 0xE0F PUSH2 0x54C8 JUMP JUMPDEST JUMPDEST MUL OR SWAP1 SSTORE POP JUMP JUMPDEST PUSH20 0x0 PUSH4 0xABCD7960 PUSH1 0x2 SLOAD PUSH1 0x0 PUSH1 0x40 MLOAD DUP4 PUSH4 0xFFFFFFFF AND PUSH1 0xE0 SHL DUP2 MSTORE PUSH1 0x4 ADD PUSH2 0xE53 SWAP3 SWAP2 SWAP1 PUSH2 0x4DBC JUMP JUMPDEST PUSH1 0x20 PUSH1 0x40 MLOAD DUP1 DUP4 SUB DUP2 DUP7 DUP1 EXTCODESIZE ISZERO DUP1 ISZERO PUSH2 0xE6B JUMPI PUSH1 0x0 DUP1 REVERT JUMPDEST POP GAS DELEGATECALL ISZERO DUP1 ISZERO PUSH2 0xE7F JUMPI RETURNDATASIZE PUSH1 0x0 DUP1 RETURNDATACOPY RETURNDATASIZE PUSH1 0x0 REVERT JUMPDEST POP POP POP POP PUSH1 0x40 MLOAD RETURNDATASIZE PUSH1 0x1F NOT PUSH1 0x1F DUP3 ADD AND DUP3 ADD DUP1 PUSH1 0x40 MSTORE POP DUP2 ADD SWAP1 PUSH2 0xEA3 SWAP2 SWAP1 PUSH2 0x4152 JUMP JUMPDEST POP PUSH20 0x0 PUSH4 0xABCD7960 PUSH1 0x3 SLOAD PUSH1 0x0 PUSH1 0x40 MLOAD DUP4 PUSH4 0xFFFFFFFF AND PUSH1 0xE0 SHL DUP2 MSTORE PUSH1 0x4 ADD PUSH2 0xEE0 SWAP3 SWAP2 SWAP1 PUSH2 0x4D80 JUMP JUMPDEST PUSH1 0x20 PUSH1 0x40 MLOAD DUP1 DUP4 SUB DUP2 DUP7 DUP1 EXTCODESIZE ISZERO DUP1 ISZERO PUSH2 0xEF8 JUMPI PUSH1 0x0 DUP1 REVERT JUMPDEST POP GAS DELEGATECALL ISZERO DUP1 ISZERO PUSH2 0xF0C JUMPI RETURNDATASIZE PUSH1 0x0 DUP1 RETURNDATACOPY RETURNDATASIZE PUSH1 0x0 REVERT JUMPDEST POP POP POP POP PUSH1 0x40 MLOAD RETURNDATASIZE PUSH1 0x1F NOT PUSH1 0x1F DUP3 ADD AND DUP3 ADD DUP1 PUSH1 0x40 MSTORE POP DUP2 ADD SWAP1 PUSH2 0xF30 SWAP2 SWAP1 PUSH2 0x4152 JUMP JUMPDEST POP PUSH20 0x0 PUSH4 0xABCD7960 PUSH1 0x4 SLOAD PUSH1 0x0 PUSH1 0x40 MLOAD DUP4 PUSH4 0xFFFFFFFF AND PUSH1 0xE0 SHL DUP2 MSTORE PUSH1 0x4 ADD PUSH2 0xF6D SWAP3 SWAP2 SWAP1 PUSH2 0x4DF8 JUMP JUMPDEST PUSH1 0x20 PUSH1 0x40 MLOAD DUP1 DUP4 SUB DUP2 DUP7 DUP1 EXTCODESIZE ISZERO DUP1 ISZERO PUSH2 0xF85 JUMPI PUSH1 0x0 DUP1 REVERT JUMPDEST POP GAS DELEGATECALL ISZERO DUP1 ISZERO PUSH2 0xF99 JUMPI RETURNDATASIZE PUSH1 0x0 DUP1 RETURNDATACOPY RETURNDATASIZE PUSH1 0x0 REVERT JUMPDEST POP POP POP POP PUSH1 0x40 MLOAD RETURNDATASIZE PUSH1 0x1F NOT PUSH1 0x1F DUP3 ADD AND DUP3 ADD DUP1 PUSH1 0x40 MSTORE POP DUP2 ADD SWAP1 PUSH2 0xFBD SWAP2 SWAP1 PUSH2 0x4152 JUMP JUMPDEST POP PUSH20 0x0 PUSH4 0xE8C2CB16 PUSH1 0x6 PUSH1 0x40 MLOAD DUP3 PUSH4 0xFFFFFFFF AND PUSH1 0xE0 SHL DUP2 MSTORE PUSH1 0x4 ADD PUSH2 0xFF6 SWAP2 SWAP1 PUSH2 0x4C3D JUMP JUMPDEST PUSH1 0x20 PUSH1 0x40 MLOAD DUP1 DUP4 SUB DUP2 DUP7 DUP1 EXTCODESIZE ISZERO DUP1 ISZERO PUSH2 0x100E JUMPI PUSH1 0x0 DUP1 REVERT JUMPDEST POP GAS DELEGATECALL ISZERO DUP1 ISZERO PUSH2 0x1022 JUMPI RETURNDATASIZE PUSH1 0x0 DUP1 RETURNDATACOPY RETURNDATASIZE PUSH1 0x0 REVERT JUMPDEST POP POP POP POP PUSH1 0x40 MLOAD RETURNDATASIZE PUSH1 0x1F NOT PUSH1 0x1F DUP3 ADD AND DUP3 ADD DUP1 PUSH1 0x40 MSTORE POP DUP2 ADD SWAP1 PUSH2 0x1046 SWAP2 SWAP1 PUSH2 0x4152 JUMP JUMPDEST POP PUSH20 0x0 PUSH4 0xBFBA5DD6 PUSH32 0x0 PUSH1 0x9 PUSH1 0x1 SWAP1 SLOAD SWAP1 PUSH2 0x100 EXP SWAP1 DIV PUSH20 0xFFFFFFFFFFFFFFFFFFFFFFFFFFFFFFFFFFFFFFFF AND PUSH1 0x40 MLOAD DUP4 PUSH4 0xFFFFFFFF AND PUSH1 0xE0 SHL DUP2 MSTORE PUSH1 0x4 ADD PUSH2 0x10C2 SWAP3 SWAP2 SWAP1 PUSH2 0x4906 JUMP JUMPDEST PUSH1 0x20 PUSH1 0x40 MLOAD DUP1 DUP4 SUB DUP2 DUP7 DUP1 EXTCODESIZE ISZERO DUP1 ISZERO PUSH2 0x10DA JUMPI PUSH1 0x0 DUP1 REVERT JUMPDEST POP GAS DELEGATECALL ISZERO DUP1 ISZERO PUSH2 0x10EE JUMPI RETURNDATASIZE PUSH1 0x0 DUP1 RETURNDATACOPY RETURNDATASIZE PUSH1 0x0 REVERT JUMPDEST POP POP POP POP PUSH1 0x40 MLOAD RETURNDATASIZE PUSH1 0x1F NOT PUSH1 0x1F DUP3 ADD AND DUP3 ADD DUP1 PUSH1 0x40 MSTORE POP DUP2 ADD SWAP1 PUSH2 0x1112 SWAP2 SWAP1 PUSH2 0x4152 JUMP JUMPDEST POP PUSH20 0x0 PUSH4 0xABCD7960 PUSH1 0x5 PUSH1 0x0 SWAP1 SLOAD SWAP1 PUSH2 0x100 EXP SWAP1 DIV PUSH1 0xFF AND PUSH1 0x3 DUP2 GT ISZERO PUSH2 0x114F JUMPI PUSH2 0x114E PUSH2 0x54C8 JUMP JUMPDEST JUMPDEST PUSH1 0x0 PUSH1 0x3 DUP2 GT ISZERO PUSH2 0x1163 JUMPI PUSH2 0x1162 PUSH2 0x54C8 JUMP JUMPDEST JUMPDEST PUSH1 0x40 MLOAD DUP4 PUSH4 0xFFFFFFFF AND PUSH1 0xE0 SHL DUP2 MSTORE PUSH1 0x4 ADD PUSH2 0x1180 SWAP3 SWAP2 SWAP1 PUSH2 0x50C8 JUMP JUMPDEST PUSH1 0x20 PUSH1 0x40 MLOAD DUP1 DUP4 SUB DUP2 DUP7 DUP1 EXTCODESIZE ISZERO DUP1 ISZERO PUSH2 0x1198 JUMPI PUSH1 0x0 DUP1 REVERT JUMPDEST POP GAS DELEGATECALL ISZERO DUP1 ISZERO PUSH2 0x11AC JUMPI RETURNDATASIZE PUSH1 0x0 DUP1 RETURNDATACOPY RETURNDATASIZE PUSH1 0x0 REVERT JUMPDEST POP POP POP POP PUSH1 0x40 MLOAD RETURNDATASIZE PUSH1 0x1F NOT PUSH1 0x1F DUP3 ADD AND DUP3 ADD DUP1 PUSH1 0x40 MSTORE POP DUP2 ADD SWAP1 PUSH2 0x11D0 SWAP2 SWAP1 PUSH2 0x4152 JUMP JUMPDEST POP JUMP JUMPDEST PUSH20 0x0 PUSH4 0x39DF137F PUSH2 0x11F7 PUSH1 0x2 PUSH2 0x7E8 JUMP JUMPDEST PUSH1 0x40 MLOAD DUP3 PUSH4 0xFFFFFFFF AND PUSH1 0xE0 SHL DUP2 MSTORE PUSH1 0x4 ADD PUSH2 0x1213 SWAP2 SWAP1 PUSH2 0x4A4C JUMP JUMPDEST PUSH1 0x20 PUSH1 0x40 MLOAD DUP1 DUP4 SUB DUP2 DUP7 DUP1 EXTCODESIZE ISZERO DUP1 ISZERO PUSH2 0x122B JUMPI PUSH1 0x0 DUP1 REVERT JUMPDEST POP GAS DELEGATECALL ISZERO DUP1 ISZERO PUSH2 0x123F JUMPI RETURNDATASIZE PUSH1 0x0 DUP1 RETURNDATACOPY RETURNDATASIZE PUSH1 0x0 REVERT JUMPDEST POP POP POP POP PUSH1 0x40 MLOAD RETURNDATASIZE PUSH1 0x1F NOT PUSH1 0x1F DUP3 ADD AND DUP3 ADD DUP1 PUSH1 0x40 MSTORE POP DUP2 ADD SWAP1 PUSH2 0x1263 SWAP2 SWAP1 PUSH2 0x4152 JUMP JUMPDEST POP PUSH20 0x0 PUSH4 0xABCD7960 PUSH1 0x4 SLOAD PUSH1 0x3 PUSH1 0x40 MLOAD DUP4 PUSH4 0xFFFFFFFF AND PUSH1 0xE0 SHL DUP2 MSTORE PUSH1 0x4 ADD PUSH2 0x12A0 SWAP3 SWAP2 SWAP1 PUSH2 0x4F60 JUMP JUMPDEST PUSH1 0x20 PUSH1 0x40 MLOAD DUP1 DUP4 SUB DUP2 DUP7 DUP1 EXTCODESIZE ISZERO DUP1 ISZERO PUSH2 0x12B8 JUMPI PUSH1 0x0 DUP1 REVERT JUMPDEST POP GAS DELEGATECALL ISZERO DUP1 ISZERO PUSH2 0x12CC JUMPI RETURNDATASIZE PUSH1 0x0 DUP1 RETURNDATACOPY RETURNDATASIZE PUSH1 0x0 REVERT JUMPDEST POP POP POP POP PUSH1 0x40 MLOAD RETURNDATASIZE PUSH1 0x1F NOT PUSH1 0x1F DUP3 ADD AND DUP3 ADD DUP1 PUSH1 0x40 MSTORE POP DUP2 ADD SWAP1 PUSH2 0x12F0 SWAP2 SWAP1 PUSH2 0x4152 JUMP JUMPDEST POP JUMP JUMPDEST PUSH1 0x0 PUSH1 0x40 MLOAD PUSH1 0x24 ADD PUSH1 0x40 MLOAD PUSH1 0x20 DUP2 DUP4 SUB SUB DUP2 MSTORE SWAP1 PUSH1 0x40 MSTORE PUSH32 0x81F4B23200000000000000000000000000000000000000000000000000000000 PUSH28 0xFFFFFFFFFFFFFFFFFFFFFFFFFFFFFFFFFFFFFFFFFFFFFFFFFFFFFFFF NOT AND PUSH1 0x20 DUP3 ADD DUP1 MLOAD PUSH28 0xFFFFFFFFFFFFFFFFFFFFFFFFFFFFFFFFFFFFFFFFFFFFFFFFFFFFFFFF DUP4 DUP2 DUP4 AND OR DUP4 MSTORE POP POP POP POP SWAP1 POP PUSH1 0x0 ADDRESS PUSH20 0xFFFFFFFFFFFFFFFFFFFFFFFFFFFFFFFFFFFFFFFF AND DUP3 PUSH1 0x40 MLOAD PUSH2 0x13A1 SWAP2 SWAP1 PUSH2 0x48BD JUMP JUMPDEST PUSH1 0x0 PUSH1 0x40 MLOAD DUP1 DUP4 SUB DUP2 PUSH1 0x0 DUP7 GAS CALL SWAP2 POP POP RETURNDATASIZE DUP1 PUSH1 0x0 DUP2 EQ PUSH2 0x13DE JUMPI PUSH1 0x40 MLOAD SWAP2 POP PUSH1 0x1F NOT PUSH1 0x3F RETURNDATASIZE ADD AND DUP3 ADD PUSH1 0x40 MSTORE RETURNDATASIZE DUP3 MSTORE RETURNDATASIZE PUSH1 0x0 PUSH1 0x20 DUP5 ADD RETURNDATACOPY PUSH2 0x13E3 JUMP JUMPDEST PUSH1 0x60 SWAP2 POP JUMPDEST POP POP SWAP1 POP PUSH20 0x0 PUSH4 0x767392B3 DUP3 PUSH1 0x0 PUSH1 0x40 MLOAD DUP4 PUSH4 0xFFFFFFFF AND PUSH1 0xE0 SHL DUP2 MSTORE PUSH1 0x4 ADD PUSH2 0x1421 SWAP3 SWAP2 SWAP1 PUSH2 0x4A10 JUMP JUMPDEST PUSH1 0x20 PUSH1 0x40 MLOAD DUP1 DUP4 SUB DUP2 DUP7 DUP1 EXTCODESIZE ISZERO DUP1 ISZERO PUSH2 0x1439 JUMPI PUSH1 0x0 DUP1 REVERT JUMPDEST POP GAS DELEGATECALL ISZERO DUP1 ISZERO PUSH2 0x144D JUMPI RETURNDATASIZE PUSH1 0x0 DUP1 RETURNDATACOPY RETURNDATASIZE PUSH1 0x0 REVERT JUMPDEST POP POP POP POP PUSH1 0x40 MLOAD RETURNDATASIZE PUSH1 0x1F NOT PUSH1 0x1F DUP3 ADD AND DUP3 ADD DUP1 PUSH1 0x40 MSTORE POP DUP2 ADD SWAP1 PUSH2 0x1471 SWAP2 SWAP1 PUSH2 0x4152 JUMP JUMPDEST POP POP POP JUMP JUMPDEST PUSH1 0x0 PUSH32 0x0 PUSH20 0xFFFFFFFFFFFFFFFFFFFFFFFFFFFFFFFFFFFFFFFF AND CALLER PUSH20 0xFFFFFFFFFFFFFFFFFFFFFFFFFFFFFFFFFFFFFFFF AND EQ PUSH2 0x1506 JUMPI PUSH1 0x40 MLOAD PUSH32 0x8C379A000000000000000000000000000000000000000000000000000000000 DUP2 MSTORE PUSH1 0x4 ADD PUSH2 0x14FD SWAP1 PUSH2 0x4D05 JUMP JUMPDEST PUSH1 0x40 MLOAD DUP1 SWAP2 SUB SWAP1 REVERT JUMPDEST PUSH1 0x0 PUSH1 0x3 DUP2 GT ISZERO PUSH2 0x151A JUMPI PUSH2 0x1519 PUSH2 0x54C8 JUMP JUMPDEST JUMPDEST PUSH1 0x5 PUSH1 0x0 SWAP1 SLOAD SWAP1 PUSH2 0x100 EXP SWAP1 DIV PUSH1 0xFF AND PUSH1 0x3 DUP2 GT ISZERO PUSH2 0x153C JUMPI PUSH2 0x153B PUSH2 0x54C8 JUMP JUMPDEST JUMPDEST EQ PUSH2 0x157C JUMPI PUSH1 0x40 MLOAD PUSH32 0x8C379A000000000000000000000000000000000000000000000000000000000 DUP2 MSTORE PUSH1 0x4 ADD PUSH2 0x1573 SWAP1 PUSH2 0x4CC5 JUMP JUMPDEST PUSH1 0x40 MLOAD DUP1 SWAP2 SUB SWAP1 REVERT JUMPDEST PUSH1 0x0 PUSH1 0x1 PUSH1 0x0 DUP6 PUSH20 0xFFFFFFFFFFFFFFFFFFFFFFFFFFFFFFFFFFFFFFFF AND PUSH20 0xFFFFFFFFFFFFFFFFFFFFFFFFFFFFFFFFFFFFFFFF AND DUP2 MSTORE PUSH1 0x20 ADD SWAP1 DUP2 MSTORE PUSH1 0x20 ADD PUSH1 0x0 KECCAK256 PUSH1 0x0 ADD DUP1 SLOAD PUSH2 0x15CB SWAP1 PUSH2 0x53BE JUMP JUMPDEST SWAP1 POP EQ PUSH2 0x160D JUMPI PUSH1 0x40 MLOAD PUSH32 0x8C379A000000000000000000000000000000000000000000000000000000000 DUP2 MSTORE PUSH1 0x4 ADD PUSH2 0x1604 SWAP1 PUSH2 0x4D25 JUMP JUMPDEST PUSH1 0x40 MLOAD DUP1 SWAP2 SUB SWAP1 REVERT JUMPDEST PUSH2 0x1615 PUSH2 0x3E8C JUMP JUMPDEST DUP3 DUP2 PUSH1 0x0 ADD DUP2 SWAP1 MSTORE POP PUSH1 0x0 DUP2 PUSH1 0x20 ADD SWAP1 ISZERO ISZERO SWAP1 DUP2 ISZERO ISZERO DUP2 MSTORE POP POP DUP1 PUSH1 0x1 PUSH1 0x0 DUP7 PUSH20 0xFFFFFFFFFFFFFFFFFFFFFFFFFFFFFFFFFFFFFFFF AND PUSH20 0xFFFFFFFFFFFFFFFFFFFFFFFFFFFFFFFFFFFFFFFF AND DUP2 MSTORE PUSH1 0x20 ADD SWAP1 DUP2 MSTORE PUSH1 0x20 ADD PUSH1 0x0 KECCAK256 PUSH1 0x0 DUP3 ADD MLOAD DUP2 PUSH1 0x0 ADD SWAP1 DUP1 MLOAD SWAP1 PUSH1 0x20 ADD SWAP1 PUSH2 0x168B SWAP3 SWAP2 SWAP1 PUSH2 0x3EA8 JUMP JUMPDEST POP PUSH1 0x20 DUP3 ADD MLOAD DUP2 PUSH1 0x1 ADD PUSH1 0x0 PUSH2 0x100 EXP DUP2 SLOAD DUP2 PUSH1 0xFF MUL NOT AND SWAP1 DUP4 ISZERO ISZERO MUL OR SWAP1 SSTORE POP SWAP1 POP POP PUSH1 0x3 PUSH1 0x0 DUP2 SLOAD DUP1 SWAP3 SWAP2 SWAP1 PUSH2 0x16C2 SWAP1 PUSH2 0x5421 JUMP JUMPDEST SWAP2 SWAP1 POP SSTORE POP PUSH1 0x3 SLOAD SWAP2 POP POP SWAP3 SWAP2 POP POP JUMP JUMPDEST PUSH1 0x3 SLOAD DUP2 JUMP JUMPDEST PUSH32 0x0 DUP2 JUMP JUMPDEST PUSH1 0x7 PUSH1 0x20 MSTORE DUP1 PUSH1 0x0 MSTORE PUSH1 0x40 PUSH1 0x0 KECCAK256 PUSH1 0x0 SWAP2 POP SWAP1 POP DUP1 PUSH1 0x0 ADD PUSH1 0x0 SWAP1 SLOAD SWAP1 PUSH2 0x100 EXP SWAP1 DIV PUSH20 0xFFFFFFFFFFFFFFFFFFFFFFFFFFFFFFFFFFFFFFFF AND SWAP1 DUP1 PUSH1 0x1 ADD SLOAD SWAP1 POP DUP3 JUMP JUMPDEST PUSH1 0x0 PUSH1 0xA PUSH1 0x40 MLOAD PUSH1 0x24 ADD PUSH2 0x1755 SWAP2 SWAP1 PUSH2 0x4AB0 JUMP JUMPDEST PUSH1 0x40 MLOAD PUSH1 0x20 DUP2 DUP4 SUB SUB DUP2 MSTORE SWAP1 PUSH1 0x40 MSTORE PUSH32 0x57EF0CEB00000000000000000000000000000000000000000000000000000000 PUSH28 0xFFFFFFFFFFFFFFFFFFFFFFFFFFFFFFFFFFFFFFFFFFFFFFFFFFFFFFFF NOT AND PUSH1 0x20 DUP3 ADD DUP1 MLOAD PUSH28 0xFFFFFFFFFFFFFFFFFFFFFFFFFFFFFFFFFFFFFFFFFFFFFFFFFFFFFFFF DUP4 DUP2 DUP4 AND OR DUP4 MSTORE POP POP POP POP SWAP1 POP PUSH1 0x0 ADDRESS PUSH20 0xFFFFFFFFFFFFFFFFFFFFFFFFFFFFFFFFFFFFFFFF AND DUP3 PUSH1 0x40 MLOAD PUSH2 0x17FB SWAP2 SWAP1 PUSH2 0x48BD JUMP JUMPDEST PUSH1 0x0 PUSH1 0x40 MLOAD DUP1 DUP4 SUB DUP2 PUSH1 0x0 DUP7 GAS CALL SWAP2 POP POP RETURNDATASIZE DUP1 PUSH1 0x0 DUP2 EQ PUSH2 0x1838 JUMPI PUSH1 0x40 MLOAD SWAP2 POP PUSH1 0x1F NOT PUSH1 0x3F RETURNDATASIZE ADD AND DUP3 ADD PUSH1 0x40 MSTORE RETURNDATASIZE DUP3 MSTORE RETURNDATASIZE PUSH1 0x0 PUSH1 0x20 DUP5 ADD RETURNDATACOPY PUSH2 0x183D JUMP JUMPDEST PUSH1 0x60 SWAP2 POP JUMPDEST POP POP SWAP1 POP PUSH20 0x0 PUSH4 0x767392B3 DUP3 PUSH1 0x0 PUSH1 0x40 MLOAD DUP4 PUSH4 0xFFFFFFFF AND PUSH1 0xE0 SHL DUP2 MSTORE PUSH1 0x4 ADD PUSH2 0x187B SWAP3 SWAP2 SWAP1 PUSH2 0x4A10 JUMP JUMPDEST PUSH1 0x20 PUSH1 0x40 MLOAD DUP1 DUP4 SUB DUP2 DUP7 DUP1 EXTCODESIZE ISZERO DUP1 ISZERO PUSH2 0x1893 JUMPI PUSH1 0x0 DUP1 REVERT JUMPDEST POP GAS DELEGATECALL ISZERO DUP1 ISZERO PUSH2 0x18A7 JUMPI RETURNDATASIZE PUSH1 0x0 DUP1 RETURNDATACOPY RETURNDATASIZE PUSH1 0x0 REVERT JUMPDEST POP POP POP POP PUSH1 0x40 MLOAD RETURNDATASIZE PUSH1 0x1F NOT PUSH1 0x1F DUP3 ADD AND DUP3 ADD DUP1 PUSH1 0x40 MSTORE POP DUP2 ADD SWAP1 PUSH2 0x18CB SWAP2 SWAP1 PUSH2 0x4152 JUMP JUMPDEST POP POP POP JUMP JUMPDEST PUSH1 0x0 PUSH32 0x0 PUSH20 0xFFFFFFFFFFFFFFFFFFFFFFFFFFFFFFFFFFFFFFFF AND CALLER PUSH20 0xFFFFFFFFFFFFFFFFFFFFFFFFFFFFFFFFFFFFFFFF AND EQ PUSH2 0x1960 JUMPI PUSH1 0x40 MLOAD PUSH32 0x8C379A000000000000000000000000000000000000000000000000000000000 DUP2 MSTORE PUSH1 0x4 ADD PUSH2 0x1957 SWAP1 PUSH2 0x4D05 JUMP JUMPDEST PUSH1 0x40 MLOAD DUP1 SWAP2 SUB SWAP1 REVERT JUMPDEST PUSH1 0x0 PUSH1 0x3 DUP2 GT ISZERO PUSH2 0x1974 JUMPI PUSH2 0x1973 PUSH2 0x54C8 JUMP JUMPDEST JUMPDEST PUSH1 0x5 PUSH1 0x0 SWAP1 SLOAD SWAP1 PUSH2 0x100 EXP SWAP1 DIV PUSH1 0xFF AND PUSH1 0x3 DUP2 GT ISZERO PUSH2 0x1996 JUMPI PUSH2 0x1995 PUSH2 0x54C8 JUMP JUMPDEST JUMPDEST EQ PUSH2 0x19D6 JUMPI PUSH1 0x40 MLOAD PUSH32 0x8C379A000000000000000000000000000000000000000000000000000000000 DUP2 MSTORE PUSH1 0x4 ADD PUSH2 0x19CD SWAP1 PUSH2 0x4CC5 JUMP JUMPDEST PUSH1 0x40 MLOAD DUP1 SWAP2 SUB SWAP1 REVERT JUMPDEST PUSH1 0x0 PUSH1 0x1 SWAP1 POP JUMPDEST PUSH1 0x2 SLOAD DUP2 GT PUSH2 0x1A61 JUMPI DUP3 DUP1 MLOAD SWAP1 PUSH1 0x20 ADD KECCAK256 PUSH1 0x0 DUP1 DUP4 DUP2 MSTORE PUSH1 0x20 ADD SWAP1 DUP2 MSTORE PUSH1 0x20 ADD PUSH1 0x0 KECCAK256 PUSH1 0x40 MLOAD PUSH2 0x1A0D SWAP2 SWAP1 PUSH2 0x48D4 JUMP JUMPDEST PUSH1 0x40 MLOAD DUP1 SWAP2 SUB SWAP1 KECCAK256 EQ ISZERO PUSH2 0x1A56 JUMPI PUSH1 0x40 MLOAD PUSH32 0x8C379A000000000000000000000000000000000000000000000000000000000 DUP2 MSTORE PUSH1 0x4 ADD PUSH2 0x1A4D SWAP1 PUSH2 0x4C85 JUMP JUMPDEST PUSH1 0x40 MLOAD DUP1 SWAP2 SUB SWAP1 REVERT JUMPDEST DUP1 PUSH1 0x1 ADD SWAP1 POP PUSH2 0x19DD JUMP JUMPDEST POP PUSH1 0x2 PUSH1 0x0 DUP2 SLOAD DUP1 SWAP3 SWAP2 SWAP1 PUSH2 0x1A75 SWAP1 PUSH2 0x5421 JUMP JUMPDEST SWAP2 SWAP1 POP SSTORE POP DUP2 PUSH1 0x0 DUP1 PUSH1 0x2 SLOAD DUP2 MSTORE PUSH1 0x20 ADD SWAP1 DUP2 MSTORE PUSH1 0x20 ADD PUSH1 0x0 KECCAK256 SWAP1 DUP1 MLOAD SWAP1 PUSH1 0x20 ADD SWAP1 PUSH2 0x1AA2 SWAP3 SWAP2 SWAP1 PUSH2 0x3EA8 JUMP JUMPDEST POP PUSH1 0x2 SLOAD SWAP1 POP SWAP2 SWAP1 POP JUMP JUMPDEST PUSH1 0x0 PUSH1 0x40 MLOAD PUSH1 0x24 ADD PUSH2 0x1ABE SWAP1 PUSH2 0x4D45 JUMP JUMPDEST PUSH1 0x40 MLOAD PUSH1 0x20 DUP2 DUP4 SUB SUB DUP2 MSTORE SWAP1 PUSH1 0x40 MSTORE PUSH32 0x6D77BD3E00000000000000000000000000000000000000000000000000000000 PUSH28 0xFFFFFFFFFFFFFFFFFFFFFFFFFFFFFFFFFFFFFFFFFFFFFFFFFFFFFFFF NOT AND PUSH1 0x20 DUP3 ADD DUP1 MLOAD PUSH28 0xFFFFFFFFFFFFFFFFFFFFFFFFFFFFFFFFFFFFFFFFFFFFFFFFFFFFFFFF DUP4 DUP2 DUP4 AND OR DUP4 MSTORE POP POP POP POP SWAP1 POP PUSH1 0x0 ADDRESS PUSH20 0xFFFFFFFFFFFFFFFFFFFFFFFFFFFFFFFFFFFFFFFF AND DUP3 PUSH1 0x40 MLOAD PUSH2 0x1B64 SWAP2 SWAP1 PUSH2 0x48BD JUMP JUMPDEST PUSH1 0x0 PUSH1 0x40 MLOAD DUP1 DUP4 SUB DUP2 PUSH1 0x0 DUP7 GAS CALL SWAP2 POP POP RETURNDATASIZE DUP1 PUSH1 0x0 DUP2 EQ PUSH2 0x1BA1 JUMPI PUSH1 0x40 MLOAD SWAP2 POP PUSH1 0x1F NOT PUSH1 0x3F RETURNDATASIZE ADD AND DUP3 ADD PUSH1 0x40 MSTORE RETURNDATASIZE DUP3 MSTORE RETURNDATASIZE PUSH1 0x0 PUSH1 0x20 DUP5 ADD RETURNDATACOPY PUSH2 0x1BA6 JUMP JUMPDEST PUSH1 0x60 SWAP2 POP JUMPDEST POP POP SWAP1 POP PUSH20 0x0 PUSH4 0x767392B3 DUP3 PUSH1 0x0 PUSH1 0x40 MLOAD DUP4 PUSH4 0xFFFFFFFF AND PUSH1 0xE0 SHL DUP2 MSTORE PUSH1 0x4 ADD PUSH2 0x1BE4 SWAP3 SWAP2 SWAP1 PUSH2 0x4A10 JUMP JUMPDEST PUSH1 0x20 PUSH1 0x40 MLOAD DUP1 DUP4 SUB DUP2 DUP7 DUP1 EXTCODESIZE ISZERO DUP1 ISZERO PUSH2 0x1BFC JUMPI PUSH1 0x0 DUP1 REVERT JUMPDEST POP GAS DELEGATECALL ISZERO DUP1 ISZERO PUSH2 0x1C10 JUMPI RETURNDATASIZE PUSH1 0x0 DUP1 RETURNDATACOPY RETURNDATASIZE PUSH1 0x0 REVERT JUMPDEST POP POP POP POP PUSH1 0x40 MLOAD RETURNDATASIZE PUSH1 0x1F NOT PUSH1 0x1F DUP3 ADD AND DUP3 ADD DUP1 PUSH1 0x40 MSTORE POP DUP2 ADD SWAP1 PUSH2 0x1C34 SWAP2 SWAP1 PUSH2 0x4152 JUMP JUMPDEST POP POP POP JUMP JUMPDEST PUSH1 0x0 PUSH1 0xD PUSH1 0x0 SWAP1 SLOAD SWAP1 PUSH2 0x100 EXP SWAP1 DIV PUSH20 0xFFFFFFFFFFFFFFFFFFFFFFFFFFFFFFFFFFFFFFFF AND PUSH1 0x40 MLOAD PUSH1 0x24 ADD PUSH2 0x1C6E SWAP2 SWAP1 PUSH2 0x4942 JUMP JUMPDEST PUSH1 0x40 MLOAD PUSH1 0x20 DUP2 DUP4 SUB SUB DUP2 MSTORE SWAP1 PUSH1 0x40 MSTORE PUSH32 0x1EB6203600000000000000000000000000000000000000000000000000000000 PUSH28 0xFFFFFFFFFFFFFFFFFFFFFFFFFFFFFFFFFFFFFFFFFFFFFFFFFFFFFFFF NOT AND PUSH1 0x20 DUP3 ADD DUP1 MLOAD PUSH28 0xFFFFFFFFFFFFFFFFFFFFFFFFFFFFFFFFFFFFFFFFFFFFFFFFFFFFFFFF DUP4 DUP2 DUP4 AND OR DUP4 MSTORE POP POP POP POP SWAP1 POP PUSH1 0x0 ADDRESS PUSH20 0xFFFFFFFFFFFFFFFFFFFFFFFFFFFFFFFFFFFFFFFF AND DUP3 PUSH1 0x40 MLOAD PUSH2 0x1D14 SWAP2 SWAP1 PUSH2 0x48BD JUMP JUMPDEST PUSH1 0x0 PUSH1 0x40 MLOAD DUP1 DUP4 SUB DUP2 PUSH1 0x0 DUP7 GAS CALL SWAP2 POP POP RETURNDATASIZE DUP1 PUSH1 0x0 DUP2 EQ PUSH2 0x1D51 JUMPI PUSH1 0x40 MLOAD SWAP2 POP PUSH1 0x1F NOT PUSH1 0x3F RETURNDATASIZE ADD AND DUP3 ADD PUSH1 0x40 MSTORE RETURNDATASIZE DUP3 MSTORE RETURNDATASIZE PUSH1 0x0 PUSH1 0x20 DUP5 ADD RETURNDATACOPY PUSH2 0x1D56 JUMP JUMPDEST PUSH1 0x60 SWAP2 POP JUMPDEST POP POP SWAP1 POP PUSH20 0x0 PUSH4 0x767392B3 DUP3 PUSH1 0x0 PUSH1 0x40 MLOAD DUP4 PUSH4 0xFFFFFFFF AND PUSH1 0xE0 SHL DUP2 MSTORE PUSH1 0x4 ADD PUSH2 0x1D94 SWAP3 SWAP2 SWAP1 PUSH2 0x4A10 JUMP JUMPDEST PUSH1 0x20 PUSH1 0x40 MLOAD DUP1 DUP4 SUB DUP2 DUP7 DUP1 EXTCODESIZE ISZERO DUP1 ISZERO PUSH2 0x1DAC JUMPI PUSH1 0x0 DUP1 REVERT JUMPDEST POP GAS DELEGATECALL ISZERO DUP1 ISZERO PUSH2 0x1DC0 JUMPI RETURNDATASIZE PUSH1 0x0 DUP1 RETURNDATACOPY RETURNDATASIZE PUSH1 0x0 REVERT JUMPDEST POP POP POP POP PUSH1 0x40 MLOAD RETURNDATASIZE PUSH1 0x1F NOT PUSH1 0x1F DUP3 ADD AND DUP3 ADD DUP1 PUSH1 0x40 MSTORE POP DUP2 ADD SWAP1 PUSH2 0x1DE4 SWAP2 SWAP1 PUSH2 0x4152 JUMP JUMPDEST POP POP POP JUMP JUMPDEST PUSH1 0x9 PUSH1 0x0 SWAP1 SLOAD SWAP1 PUSH2 0x100 EXP SWAP1 DIV PUSH1 0xFF AND DUP2 JUMP JUMPDEST PUSH1 0x0 PUSH1 0x1 PUSH1 0x40 MLOAD PUSH1 0x24 ADD PUSH2 0x1E10 SWAP2 SWAP1 PUSH2 0x4AE6 JUMP JUMPDEST PUSH1 0x40 MLOAD PUSH1 0x20 DUP2 DUP4 SUB SUB DUP2 MSTORE SWAP1 PUSH1 0x40 MSTORE PUSH32 0x57EF0CEB00000000000000000000000000000000000000000000000000000000 PUSH28 0xFFFFFFFFFFFFFFFFFFFFFFFFFFFFFFFFFFFFFFFFFFFFFFFFFFFFFFFF NOT AND PUSH1 0x20 DUP3 ADD DUP1 MLOAD PUSH28 0xFFFFFFFFFFFFFFFFFFFFFFFFFFFFFFFFFFFFFFFFFFFFFFFFFFFFFFFF DUP4 DUP2 DUP4 AND OR DUP4 MSTORE POP POP POP POP SWAP1 POP PUSH1 0x0 ADDRESS PUSH20 0xFFFFFFFFFFFFFFFFFFFFFFFFFFFFFFFFFFFFFFFF AND DUP3 PUSH1 0x40 MLOAD PUSH2 0x1EB6 SWAP2 SWAP1 PUSH2 0x48BD JUMP JUMPDEST PUSH1 0x0 PUSH1 0x40 MLOAD DUP1 DUP4 SUB DUP2 PUSH1 0x0 DUP7 GAS CALL SWAP2 POP POP RETURNDATASIZE DUP1 PUSH1 0x0 DUP2 EQ PUSH2 0x1EF3 JUMPI PUSH1 0x40 MLOAD SWAP2 POP PUSH1 0x1F NOT PUSH1 0x3F RETURNDATASIZE ADD AND DUP3 ADD PUSH1 0x40 MSTORE RETURNDATASIZE DUP3 MSTORE RETURNDATASIZE PUSH1 0x0 PUSH1 0x20 DUP5 ADD RETURNDATACOPY PUSH2 0x1EF8 JUMP JUMPDEST PUSH1 0x60 SWAP2 POP JUMPDEST POP POP SWAP1 POP PUSH20 0x0 PUSH4 0x767392B3 DUP3 PUSH1 0x0 PUSH1 0x40 MLOAD DUP4 PUSH4 0xFFFFFFFF AND PUSH1 0xE0 SHL DUP2 MSTORE PUSH1 0x4 ADD PUSH2 0x1F36 SWAP3 SWAP2 SWAP1 PUSH2 0x4A10 JUMP JUMPDEST PUSH1 0x20 PUSH1 0x40 MLOAD DUP1 DUP4 SUB DUP2 DUP7 DUP1 EXTCODESIZE ISZERO DUP1 ISZERO PUSH2 0x1F4E JUMPI PUSH1 0x0 DUP1 REVERT JUMPDEST POP GAS DELEGATECALL ISZERO DUP1 ISZERO PUSH2 0x1F62 JUMPI RETURNDATASIZE PUSH1 0x0 DUP1 RETURNDATACOPY RETURNDATASIZE PUSH1 0x0 REVERT JUMPDEST POP POP POP POP PUSH1 0x40 MLOAD RETURNDATASIZE PUSH1 0x1F NOT PUSH1 0x1F DUP3 ADD AND DUP3 ADD DUP1 PUSH1 0x40 MSTORE POP DUP2 ADD SWAP1 PUSH2 0x1F86 SWAP2 SWAP1 PUSH2 0x4152 JUMP JUMPDEST POP POP POP JUMP JUMPDEST PUSH20 0x0 PUSH4 0xCE88B145 PUSH1 0x0 PUSH1 0x40 MLOAD DUP3 PUSH4 0xFFFFFFFF AND PUSH1 0xE0 SHL DUP2 MSTORE PUSH1 0x4 ADD PUSH2 0x1FC3 SWAP2 SWAP1 PUSH2 0x4A95 JUMP JUMPDEST PUSH1 0x20 PUSH1 0x40 MLOAD DUP1 DUP4 SUB DUP2 DUP7 DUP1 EXTCODESIZE ISZERO DUP1 ISZERO PUSH2 0x1FDB JUMPI PUSH1 0x0 DUP1 REVERT JUMPDEST POP GAS DELEGATECALL ISZERO DUP1 ISZERO PUSH2 0x1FEF JUMPI RETURNDATASIZE PUSH1 0x0 DUP1 RETURNDATACOPY RETURNDATASIZE PUSH1 0x0 REVERT JUMPDEST POP POP POP POP PUSH1 0x40 MLOAD RETURNDATASIZE PUSH1 0x1F NOT PUSH1 0x1F DUP3 ADD AND DUP3 ADD DUP1 PUSH1 0x40 MSTORE POP DUP2 ADD SWAP1 PUSH2 0x2013 SWAP2 SWAP1 PUSH2 0x40C9 JUMP JUMPDEST PUSH1 0x9 PUSH1 0x1 PUSH2 0x100 EXP DUP2 SLOAD DUP2 PUSH20 0xFFFFFFFFFFFFFFFFFFFFFFFFFFFFFFFFFFFFFFFF MUL NOT AND SWAP1 DUP4 PUSH20 0xFFFFFFFFFFFFFFFFFFFFFFFFFFFFFFFFFFFFFFFF AND MUL OR SWAP1 SSTORE POP PUSH20 0x0 PUSH4 0xCE88B145 PUSH1 0x1 PUSH1 0x40 MLOAD DUP3 PUSH4 0xFFFFFFFF AND PUSH1 0xE0 SHL DUP2 MSTORE PUSH1 0x4 ADD PUSH2 0x208B SWAP2 SWAP1 PUSH2 0x4ACB JUMP JUMPDEST PUSH1 0x20 PUSH1 0x40 MLOAD DUP1 DUP4 SUB DUP2 DUP7 DUP1 EXTCODESIZE ISZERO DUP1 ISZERO PUSH2 0x20A3 JUMPI PUSH1 0x0 DUP1 REVERT JUMPDEST POP GAS DELEGATECALL ISZERO DUP1 ISZERO PUSH2 0x20B7 JUMPI RETURNDATASIZE PUSH1 0x0 DUP1 RETURNDATACOPY RETURNDATASIZE PUSH1 0x0 REVERT JUMPDEST POP POP POP POP PUSH1 0x40 MLOAD RETURNDATASIZE PUSH1 0x1F NOT PUSH1 0x1F DUP3 ADD AND DUP3 ADD DUP1 PUSH1 0x40 MSTORE POP DUP2 ADD SWAP1 PUSH2 0x20DB SWAP2 SWAP1 PUSH2 0x40C9 JUMP JUMPDEST PUSH1 0xA PUSH1 0x0 PUSH2 0x100 EXP DUP2 SLOAD DUP2 PUSH20 0xFFFFFFFFFFFFFFFFFFFFFFFFFFFFFFFFFFFFFFFF MUL NOT AND SWAP1 DUP4 PUSH20 0xFFFFFFFFFFFFFFFFFFFFFFFFFFFFFFFFFFFFFFFF AND MUL OR SWAP1 SSTORE POP PUSH20 0x0 PUSH4 0xCE88B145 PUSH1 0x2 PUSH1 0x40 MLOAD DUP3 PUSH4 0xFFFFFFFF AND PUSH1 0xE0 SHL DUP2 MSTORE PUSH1 0x4 ADD PUSH2 0x2153 SWAP2 SWAP1 PUSH2 0x4B01 JUMP JUMPDEST PUSH1 0x20 PUSH1 0x40 MLOAD DUP1 DUP4 SUB DUP2 DUP7 DUP1 EXTCODESIZE ISZERO DUP1 ISZERO PUSH2 0x216B JUMPI PUSH1 0x0 DUP1 REVERT JUMPDEST POP GAS DELEGATECALL ISZERO DUP1 ISZERO PUSH2 0x217F JUMPI RETURNDATASIZE PUSH1 0x0 DUP1 RETURNDATACOPY RETURNDATASIZE PUSH1 0x0 REVERT JUMPDEST POP POP POP POP PUSH1 0x40 MLOAD RETURNDATASIZE PUSH1 0x1F NOT PUSH1 0x1F DUP3 ADD AND DUP3 ADD DUP1 PUSH1 0x40 MSTORE POP DUP2 ADD SWAP1 PUSH2 0x21A3 SWAP2 SWAP1 PUSH2 0x40C9 JUMP JUMPDEST PUSH1 0xB PUSH1 0x0 PUSH2 0x100 EXP DUP2 SLOAD DUP2 PUSH20 0xFFFFFFFFFFFFFFFFFFFFFFFFFFFFFFFFFFFFFFFF MUL NOT AND SWAP1 DUP4 PUSH20 0xFFFFFFFFFFFFFFFFFFFFFFFFFFFFFFFFFFFFFFFF AND MUL OR SWAP1 SSTORE POP PUSH20 0x0 PUSH4 0xCE88B145 PUSH1 0x3 PUSH1 0x40 MLOAD DUP3 PUSH4 0xFFFFFFFF AND PUSH1 0xE0 SHL DUP2 MSTORE PUSH1 0x4 ADD PUSH2 0x221B SWAP2 SWAP1 PUSH2 0x4B37 JUMP JUMPDEST PUSH1 0x20 PUSH1 0x40 MLOAD DUP1 DUP4 SUB DUP2 DUP7 DUP1 EXTCODESIZE ISZERO DUP1 ISZERO PUSH2 0x2233 JUMPI PUSH1 0x0 DUP1 REVERT JUMPDEST POP GAS DELEGATECALL ISZERO DUP1 ISZERO PUSH2 0x2247 JUMPI RETURNDATASIZE PUSH1 0x0 DUP1 RETURNDATACOPY RETURNDATASIZE PUSH1 0x0 REVERT JUMPDEST POP POP POP POP PUSH1 0x40 MLOAD RETURNDATASIZE PUSH1 0x1F NOT PUSH1 0x1F DUP3 ADD AND DUP3 ADD DUP1 PUSH1 0x40 MSTORE POP DUP2 ADD SWAP1 PUSH2 0x226B SWAP2 SWAP1 PUSH2 0x40C9 JUMP JUMPDEST PUSH1 0xC PUSH1 0x0 PUSH2 0x100 EXP DUP2 SLOAD DUP2 PUSH20 0xFFFFFFFFFFFFFFFFFFFFFFFFFFFFFFFFFFFFFFFF MUL NOT AND SWAP1 DUP4 PUSH20 0xFFFFFFFFFFFFFFFFFFFFFFFFFFFFFFFFFFFFFFFF AND MUL OR SWAP1 SSTORE POP PUSH20 0x0 PUSH4 0xCE88B145 PUSH1 0x4 PUSH1 0x40 MLOAD DUP3 PUSH4 0xFFFFFFFF AND PUSH1 0xE0 SHL DUP2 MSTORE PUSH1 0x4 ADD PUSH2 0x22E3 SWAP2 SWAP1 PUSH2 0x4B52 JUMP JUMPDEST PUSH1 0x20 PUSH1 0x40 MLOAD DUP1 DUP4 SUB DUP2 DUP7 DUP1 EXTCODESIZE ISZERO DUP1 ISZERO PUSH2 0x22FB JUMPI PUSH1 0x0 DUP1 REVERT JUMPDEST POP GAS DELEGATECALL ISZERO DUP1 ISZERO PUSH2 0x230F JUMPI RETURNDATASIZE PUSH1 0x0 DUP1 RETURNDATACOPY RETURNDATASIZE PUSH1 0x0 REVERT JUMPDEST POP POP POP POP PUSH1 0x40 MLOAD RETURNDATASIZE PUSH1 0x1F NOT PUSH1 0x1F DUP3 ADD AND DUP3 ADD DUP1 PUSH1 0x40 MSTORE POP DUP2 ADD SWAP1 PUSH2 0x2333 SWAP2 SWAP1 PUSH2 0x40C9 JUMP JUMPDEST PUSH1 0xD PUSH1 0x0 PUSH2 0x100 EXP DUP2 SLOAD DUP2 PUSH20 0xFFFFFFFFFFFFFFFFFFFFFFFFFFFFFFFFFFFFFFFF MUL NOT AND SWAP1 DUP4 PUSH20 0xFFFFFFFFFFFFFFFFFFFFFFFFFFFFFFFFFFFFFFFF AND MUL OR SWAP1 SSTORE POP PUSH20 0x0 PUSH4 0xCE88B145 PUSH1 0x5 PUSH1 0x40 MLOAD DUP3 PUSH4 0xFFFFFFFF AND PUSH1 0xE0 SHL DUP2 MSTORE PUSH1 0x4 ADD PUSH2 0x23AB SWAP2 SWAP1 PUSH2 0x4B88 JUMP JUMPDEST PUSH1 0x20 PUSH1 0x40 MLOAD DUP1 DUP4 SUB DUP2 DUP7 DUP1 EXTCODESIZE ISZERO DUP1 ISZERO PUSH2 0x23C3 JUMPI PUSH1 0x0 DUP1 REVERT JUMPDEST POP GAS DELEGATECALL ISZERO DUP1 ISZERO PUSH2 0x23D7 JUMPI RETURNDATASIZE PUSH1 0x0 DUP1 RETURNDATACOPY RETURNDATASIZE PUSH1 0x0 REVERT JUMPDEST POP POP POP POP PUSH1 0x40 MLOAD RETURNDATASIZE PUSH1 0x1F NOT PUSH1 0x1F DUP3 ADD AND DUP3 ADD DUP1 PUSH1 0x40 MSTORE POP DUP2 ADD SWAP1 PUSH2 0x23FB SWAP2 SWAP1 PUSH2 0x40C9 JUMP JUMPDEST PUSH1 0xE PUSH1 0x0 PUSH2 0x100 EXP DUP2 SLOAD DUP2 PUSH20 0xFFFFFFFFFFFFFFFFFFFFFFFFFFFFFFFFFFFFFFFF MUL NOT AND SWAP1 DUP4 PUSH20 0xFFFFFFFFFFFFFFFFFFFFFFFFFFFFFFFFFFFFFFFF AND MUL OR SWAP1 SSTORE POP JUMP JUMPDEST PUSH32 0x0 PUSH20 0xFFFFFFFFFFFFFFFFFFFFFFFFFFFFFFFFFFFFFFFF AND CALLER PUSH20 0xFFFFFFFFFFFFFFFFFFFFFFFFFFFFFFFFFFFFFFFF AND EQ PUSH2 0x24CB JUMPI PUSH1 0x40 MLOAD PUSH32 0x8C379A000000000000000000000000000000000000000000000000000000000 DUP2 MSTORE PUSH1 0x4 ADD PUSH2 0x24C2 SWAP1 PUSH2 0x4D05 JUMP JUMPDEST PUSH1 0x40 MLOAD DUP1 SWAP2 SUB SWAP1 REVERT JUMPDEST PUSH1 0x3 PUSH1 0x5 PUSH1 0x0 PUSH2 0x100 EXP DUP2 SLOAD DUP2 PUSH1 0xFF MUL NOT AND SWAP1 DUP4 PUSH1 0x3 DUP2 GT ISZERO PUSH2 0x24F1 JUMPI PUSH2 0x24F0 PUSH2 0x54C8 JUMP JUMPDEST JUMPDEST MUL OR SWAP1 SSTORE POP JUMP JUMPDEST PUSH1 0x0 PUSH1 0x1 PUSH1 0x40 MLOAD PUSH1 0x24 ADD PUSH2 0x250C SWAP2 SWAP1 PUSH2 0x4AE6 JUMP JUMPDEST PUSH1 0x40 MLOAD PUSH1 0x20 DUP2 DUP4 SUB SUB DUP2 MSTORE SWAP1 PUSH1 0x40 MSTORE PUSH32 0x57EF0CEB00000000000000000000000000000000000000000000000000000000 PUSH28 0xFFFFFFFFFFFFFFFFFFFFFFFFFFFFFFFFFFFFFFFFFFFFFFFFFFFFFFFF NOT AND PUSH1 0x20 DUP3 ADD DUP1 MLOAD PUSH28 0xFFFFFFFFFFFFFFFFFFFFFFFFFFFFFFFFFFFFFFFFFFFFFFFFFFFFFFFF DUP4 DUP2 DUP4 AND OR DUP4 MSTORE POP POP POP POP SWAP1 POP PUSH1 0x0 ADDRESS PUSH20 0xFFFFFFFFFFFFFFFFFFFFFFFFFFFFFFFFFFFFFFFF AND DUP3 PUSH1 0x40 MLOAD PUSH2 0x25B2 SWAP2 SWAP1 PUSH2 0x48BD JUMP JUMPDEST PUSH1 0x0 PUSH1 0x40 MLOAD DUP1 DUP4 SUB DUP2 PUSH1 0x0 DUP7 GAS CALL SWAP2 POP POP RETURNDATASIZE DUP1 PUSH1 0x0 DUP2 EQ PUSH2 0x25EF JUMPI PUSH1 0x40 MLOAD SWAP2 POP PUSH1 0x1F NOT PUSH1 0x3F RETURNDATASIZE ADD AND DUP3 ADD PUSH1 0x40 MSTORE RETURNDATASIZE DUP3 MSTORE RETURNDATASIZE PUSH1 0x0 PUSH1 0x20 DUP5 ADD RETURNDATACOPY PUSH2 0x25F4 JUMP JUMPDEST PUSH1 0x60 SWAP2 POP JUMPDEST POP POP SWAP1 POP PUSH20 0x0 PUSH4 0x767392B3 DUP3 PUSH1 0x0 PUSH1 0x40 MLOAD DUP4 PUSH4 0xFFFFFFFF AND PUSH1 0xE0 SHL DUP2 MSTORE PUSH1 0x4 ADD PUSH2 0x2632 SWAP3 SWAP2 SWAP1 PUSH2 0x4A10 JUMP JUMPDEST PUSH1 0x20 PUSH1 0x40 MLOAD DUP1 DUP4 SUB DUP2 DUP7 DUP1 EXTCODESIZE ISZERO DUP1 ISZERO PUSH2 0x264A JUMPI PUSH1 0x0 DUP1 REVERT JUMPDEST POP GAS DELEGATECALL ISZERO DUP1 ISZERO PUSH2 0x265E JUMPI RETURNDATASIZE PUSH1 0x0 DUP1 RETURNDATACOPY RETURNDATASIZE PUSH1 0x0 REVERT JUMPDEST POP POP POP POP PUSH1 0x40 MLOAD RETURNDATASIZE PUSH1 0x1F NOT PUSH1 0x1F DUP3 ADD AND DUP3 ADD DUP1 PUSH1 0x40 MSTORE POP DUP2 ADD SWAP1 PUSH2 0x2682 SWAP2 SWAP1 PUSH2 0x4152 JUMP JUMPDEST POP POP POP JUMP JUMPDEST PUSH20 0x0 PUSH4 0xABCD7960 PUSH2 0x2702 PUSH1 0x9 PUSH1 0x1 SWAP1 SLOAD SWAP1 PUSH2 0x100 EXP SWAP1 DIV PUSH20 0xFFFFFFFFFFFFFFFFFFFFFFFFFFFFFFFFFFFFFFFF AND PUSH1 0x40 MLOAD DUP1 PUSH1 0x40 ADD PUSH1 0x40 MSTORE DUP1 PUSH1 0x5 DUP2 MSTORE PUSH1 0x20 ADD PUSH32 0x416C696365000000000000000000000000000000000000000000000000000000 DUP2 MSTORE POP PUSH2 0x1476 JUMP JUMPDEST PUSH1 0x1 PUSH1 0x40 MLOAD DUP4 PUSH4 0xFFFFFFFF AND PUSH1 0xE0 SHL DUP2 MSTORE PUSH1 0x4 ADD PUSH2 0x2721 SWAP3 SWAP2 SWAP1 PUSH2 0x4E34 JUMP JUMPDEST PUSH1 0x20 PUSH1 0x40 MLOAD DUP1 DUP4 SUB DUP2 DUP7 DUP1 EXTCODESIZE ISZERO DUP1 ISZERO PUSH2 0x2739 JUMPI PUSH1 0x0 DUP1 REVERT JUMPDEST POP GAS DELEGATECALL ISZERO DUP1 ISZERO PUSH2 0x274D JUMPI RETURNDATASIZE PUSH1 0x0 DUP1 RETURNDATACOPY RETURNDATASIZE PUSH1 0x0 REVERT JUMPDEST POP POP POP POP PUSH1 0x40 MLOAD RETURNDATASIZE PUSH1 0x1F NOT PUSH1 0x1F DUP3 ADD AND DUP3 ADD DUP1 PUSH1 0x40 MSTORE POP DUP2 ADD SWAP1 PUSH2 0x2771 SWAP2 SWAP1 PUSH2 0x4152 JUMP JUMPDEST POP PUSH20 0x0 PUSH4 0xABCD7960 PUSH2 0x27ED PUSH1 0xA PUSH1 0x0 SWAP1 SLOAD SWAP1 PUSH2 0x100 EXP SWAP1 DIV PUSH20 0xFFFFFFFFFFFFFFFFFFFFFFFFFFFFFFFFFFFFFFFF AND PUSH1 0x40 MLOAD DUP1 PUSH1 0x40 ADD PUSH1 0x40 MSTORE DUP1 PUSH1 0x3 DUP2 MSTORE PUSH1 0x20 ADD PUSH32 0x426F620000000000000000000000000000000000000000000000000000000000 DUP2 MSTORE POP PUSH2 0x1476 JUMP JUMPDEST PUSH1 0x2 PUSH1 0x40 MLOAD DUP4 PUSH4 0xFFFFFFFF AND PUSH1 0xE0 SHL DUP2 MSTORE PUSH1 0x4 ADD PUSH2 0x280C SWAP3 SWAP2 SWAP1 PUSH2 0x4EAC JUMP JUMPDEST PUSH1 0x20 PUSH1 0x40 MLOAD DUP1 DUP4 SUB DUP2 DUP7 DUP1 EXTCODESIZE ISZERO DUP1 ISZERO PUSH2 0x2824 JUMPI PUSH1 0x0 DUP1 REVERT JUMPDEST POP GAS DELEGATECALL ISZERO DUP1 ISZERO PUSH2 0x2838 JUMPI RETURNDATASIZE PUSH1 0x0 DUP1 RETURNDATACOPY RETURNDATASIZE PUSH1 0x0 REVERT JUMPDEST POP POP POP POP PUSH1 0x40 MLOAD RETURNDATASIZE PUSH1 0x1F NOT PUSH1 0x1F DUP3 ADD AND DUP3 ADD DUP1 PUSH1 0x40 MSTORE POP DUP2 ADD SWAP1 PUSH2 0x285C SWAP2 SWAP1 PUSH2 0x4152 JUMP JUMPDEST POP PUSH20 0x0 PUSH4 0xABCD7960 PUSH2 0x28D8 PUSH1 0xB PUSH1 0x0 SWAP1 SLOAD SWAP1 PUSH2 0x100 EXP SWAP1 DIV PUSH20 0xFFFFFFFFFFFFFFFFFFFFFFFFFFFFFFFFFFFFFFFF AND PUSH1 0x40 MLOAD DUP1 PUSH1 0x40 ADD PUSH1 0x40 MSTORE DUP1 PUSH1 0x7 DUP2 MSTORE PUSH1 0x20 ADD PUSH32 0x436861726C696500000000000000000000000000000000000000000000000000 DUP2 MSTORE POP PUSH2 0x1476 JUMP JUMPDEST PUSH1 0x3 PUSH1 0x40 MLOAD DUP4 PUSH4 0xFFFFFFFF AND PUSH1 0xE0 SHL DUP2 MSTORE PUSH1 0x4 ADD PUSH2 0x28F7 SWAP3 SWAP2 SWAP1 PUSH2 0x4F24 JUMP JUMPDEST PUSH1 0x20 PUSH1 0x40 MLOAD DUP1 DUP4 SUB DUP2 DUP7 DUP1 EXTCODESIZE ISZERO DUP1 ISZERO PUSH2 0x290F JUMPI PUSH1 0x0 DUP1 REVERT JUMPDEST POP GAS DELEGATECALL ISZERO DUP1 ISZERO PUSH2 0x2923 JUMPI RETURNDATASIZE PUSH1 0x0 DUP1 RETURNDATACOPY RETURNDATASIZE PUSH1 0x0 REVERT JUMPDEST POP POP POP POP PUSH1 0x40 MLOAD RETURNDATASIZE PUSH1 0x1F NOT PUSH1 0x1F DUP3 ADD AND DUP3 ADD DUP1 PUSH1 0x40 MSTORE POP DUP2 ADD SWAP1 PUSH2 0x2947 SWAP2 SWAP1 PUSH2 0x4152 JUMP JUMPDEST POP PUSH20 0x0 PUSH4 0xABCD7960 PUSH2 0x29C3 PUSH1 0xC PUSH1 0x0 SWAP1 SLOAD SWAP1 PUSH2 0x100 EXP SWAP1 DIV PUSH20 0xFFFFFFFFFFFFFFFFFFFFFFFFFFFFFFFFFFFFFFFF AND PUSH1 0x40 MLOAD DUP1 PUSH1 0x40 ADD PUSH1 0x40 MSTORE DUP1 PUSH1 0x4 DUP2 MSTORE PUSH1 0x20 ADD PUSH32 0x4461766500000000000000000000000000000000000000000000000000000000 DUP2 MSTORE POP PUSH2 0x1476 JUMP JUMPDEST PUSH1 0x4 PUSH1 0x40 MLOAD DUP4 PUSH4 0xFFFFFFFF AND PUSH1 0xE0 SHL DUP2 MSTORE PUSH1 0x4 ADD PUSH2 0x29E2 SWAP3 SWAP2 SWAP1 PUSH2 0x4F9C JUMP JUMPDEST PUSH1 0x20 PUSH1 0x40 MLOAD DUP1 DUP4 SUB DUP2 DUP7 DUP1 EXTCODESIZE ISZERO DUP1 ISZERO PUSH2 0x29FA JUMPI PUSH1 0x0 DUP1 REVERT JUMPDEST POP GAS DELEGATECALL ISZERO DUP1 ISZERO PUSH2 0x2A0E JUMPI RETURNDATASIZE PUSH1 0x0 DUP1 RETURNDATACOPY RETURNDATASIZE PUSH1 0x0 REVERT JUMPDEST POP POP POP POP PUSH1 0x40 MLOAD RETURNDATASIZE PUSH1 0x1F NOT PUSH1 0x1F DUP3 ADD AND DUP3 ADD DUP1 PUSH1 0x40 MSTORE POP DUP2 ADD SWAP1 PUSH2 0x2A32 SWAP2 SWAP1 PUSH2 0x4152 JUMP JUMPDEST POP JUMP JUMPDEST PUSH20 0x0 PUSH4 0xBFBA5DD6 PUSH32 0x0 PUSH1 0x9 PUSH1 0x1 SWAP1 SLOAD SWAP1 PUSH2 0x100 EXP SWAP1 DIV PUSH20 0xFFFFFFFFFFFFFFFFFFFFFFFFFFFFFFFFFFFFFFFF AND PUSH1 0x40 MLOAD DUP4 PUSH4 0xFFFFFFFF AND PUSH1 0xE0 SHL DUP2 MSTORE PUSH1 0x4 ADD PUSH2 0x2AB0 SWAP3 SWAP2 SWAP1 PUSH2 0x4906 JUMP JUMPDEST PUSH1 0x20 PUSH1 0x40 MLOAD DUP1 DUP4 SUB DUP2 DUP7 DUP1 EXTCODESIZE ISZERO DUP1 ISZERO PUSH2 0x2AC8 JUMPI PUSH1 0x0 DUP1 REVERT JUMPDEST POP GAS DELEGATECALL ISZERO DUP1 ISZERO PUSH2 0x2ADC JUMPI RETURNDATASIZE PUSH1 0x0 DUP1 RETURNDATACOPY RETURNDATASIZE PUSH1 0x0 REVERT JUMPDEST POP POP POP POP PUSH1 0x40 MLOAD RETURNDATASIZE PUSH1 0x1F NOT PUSH1 0x1F DUP3 ADD AND DUP3 ADD DUP1 PUSH1 0x40 MSTORE POP DUP2 ADD SWAP1 PUSH2 0x2B00 SWAP2 SWAP1 PUSH2 0x4152 JUMP JUMPDEST POP JUMP JUMPDEST PUSH20 0x0 PUSH4 0x39DF137F PUSH2 0x2B27 PUSH1 0x1 PUSH2 0x7E8 JUMP JUMPDEST PUSH1 0x40 MLOAD DUP3 PUSH4 0xFFFFFFFF AND PUSH1 0xE0 SHL DUP2 MSTORE PUSH1 0x4 ADD PUSH2 0x2B43 SWAP2 SWAP1 PUSH2 0x4A4C JUMP JUMPDEST PUSH1 0x20 PUSH1 0x40 MLOAD DUP1 DUP4 SUB DUP2 DUP7 DUP1 EXTCODESIZE ISZERO DUP1 ISZERO PUSH2 0x2B5B JUMPI PUSH1 0x0 DUP1 REVERT JUMPDEST POP GAS DELEGATECALL ISZERO DUP1 ISZERO PUSH2 0x2B6F JUMPI RETURNDATASIZE PUSH1 0x0 DUP1 RETURNDATACOPY RETURNDATASIZE PUSH1 0x0 REVERT JUMPDEST POP POP POP POP PUSH1 0x40 MLOAD RETURNDATASIZE PUSH1 0x1F NOT PUSH1 0x1F DUP3 ADD AND DUP3 ADD DUP1 PUSH1 0x40 MSTORE POP DUP2 ADD SWAP1 PUSH2 0x2B93 SWAP2 SWAP1 PUSH2 0x4152 JUMP JUMPDEST POP PUSH20 0x0 PUSH4 0xABCD7960 PUSH1 0x4 SLOAD PUSH1 0x2 PUSH1 0x40 MLOAD DUP4 PUSH4 0xFFFFFFFF AND PUSH1 0xE0 SHL DUP2 MSTORE PUSH1 0x4 ADD PUSH2 0x2BD0 SWAP3 SWAP2 SWAP1 PUSH2 0x4EE8 JUMP JUMPDEST PUSH1 0x20 PUSH1 0x40 MLOAD DUP1 DUP4 SUB DUP2 DUP7 DUP1 EXTCODESIZE ISZERO DUP1 ISZERO PUSH2 0x2BE8 JUMPI PUSH1 0x0 DUP1 REVERT JUMPDEST POP GAS DELEGATECALL ISZERO DUP1 ISZERO PUSH2 0x2BFC JUMPI RETURNDATASIZE PUSH1 0x0 DUP1 RETURNDATACOPY RETURNDATASIZE PUSH1 0x0 REVERT JUMPDEST POP POP POP POP PUSH1 0x40 MLOAD RETURNDATASIZE PUSH1 0x1F NOT PUSH1 0x1F DUP3 ADD AND DUP3 ADD DUP1 PUSH1 0x40 MSTORE POP DUP2 ADD SWAP1 PUSH2 0x2C20 SWAP2 SWAP1 PUSH2 0x4152 JUMP JUMPDEST POP JUMP JUMPDEST PUSH1 0x4 SLOAD DUP2 JUMP JUMPDEST PUSH1 0x0 PUSH1 0x1 PUSH1 0x40 MLOAD PUSH1 0x24 ADD PUSH2 0x2C3D SWAP2 SWAP1 PUSH2 0x4AE6 JUMP JUMPDEST PUSH1 0x40 MLOAD PUSH1 0x20 DUP2 DUP4 SUB SUB DUP2 MSTORE SWAP1 PUSH1 0x40 MSTORE PUSH32 0x57EF0CEB00000000000000000000000000000000000000000000000000000000 PUSH28 0xFFFFFFFFFFFFFFFFFFFFFFFFFFFFFFFFFFFFFFFFFFFFFFFFFFFFFFFF NOT AND PUSH1 0x20 DUP3 ADD DUP1 MLOAD PUSH28 0xFFFFFFFFFFFFFFFFFFFFFFFFFFFFFFFFFFFFFFFFFFFFFFFFFFFFFFFF DUP4 DUP2 DUP4 AND OR DUP4 MSTORE POP POP POP POP SWAP1 POP PUSH1 0x0 ADDRESS PUSH20 0xFFFFFFFFFFFFFFFFFFFFFFFFFFFFFFFFFFFFFFFF AND DUP3 PUSH1 0x40 MLOAD PUSH2 0x2CE3 SWAP2 SWAP1 PUSH2 0x48BD JUMP JUMPDEST PUSH1 0x0 PUSH1 0x40 MLOAD DUP1 DUP4 SUB DUP2 PUSH1 0x0 DUP7 GAS CALL SWAP2 POP POP RETURNDATASIZE DUP1 PUSH1 0x0 DUP2 EQ PUSH2 0x2D20 JUMPI PUSH1 0x40 MLOAD SWAP2 POP PUSH1 0x1F NOT PUSH1 0x3F RETURNDATASIZE ADD AND DUP3 ADD PUSH1 0x40 MSTORE RETURNDATASIZE DUP3 MSTORE RETURNDATASIZE PUSH1 0x0 PUSH1 0x20 DUP5 ADD RETURNDATACOPY PUSH2 0x2D25 JUMP JUMPDEST PUSH1 0x60 SWAP2 POP JUMPDEST POP POP SWAP1 POP PUSH20 0x0 PUSH4 0x767392B3 DUP3 PUSH1 0x0 PUSH1 0x40 MLOAD DUP4 PUSH4 0xFFFFFFFF AND PUSH1 0xE0 SHL DUP2 MSTORE PUSH1 0x4 ADD PUSH2 0x2D63 SWAP3 SWAP2 SWAP1 PUSH2 0x4A10 JUMP JUMPDEST PUSH1 0x20 PUSH1 0x40 MLOAD DUP1 DUP4 SUB DUP2 DUP7 DUP1 EXTCODESIZE ISZERO DUP1 ISZERO PUSH2 0x2D7B JUMPI PUSH1 0x0 DUP1 REVERT JUMPDEST POP GAS DELEGATECALL ISZERO DUP1 ISZERO PUSH2 0x2D8F JUMPI RETURNDATASIZE PUSH1 0x0 DUP1 RETURNDATACOPY RETURNDATASIZE PUSH1 0x0 REVERT JUMPDEST POP POP POP POP PUSH1 0x40 MLOAD RETURNDATASIZE PUSH1 0x1F NOT PUSH1 0x1F DUP3 ADD AND DUP3 ADD DUP1 PUSH1 0x40 MSTORE POP DUP2 ADD SWAP1 PUSH2 0x2DB3 SWAP2 SWAP1 PUSH2 0x4152 JUMP JUMPDEST POP POP POP JUMP JUMPDEST PUSH20 0x0 PUSH4 0xABCD7960 PUSH2 0x2E10 PUSH1 0x40 MLOAD DUP1 PUSH1 0x40 ADD PUSH1 0x40 MSTORE DUP1 PUSH1 0x9 DUP2 MSTORE PUSH1 0x20 ADD PUSH32 0x554E535720436166650000000000000000000000000000000000000000000000 DUP2 MSTORE POP PUSH2 0x18D0 JUMP JUMPDEST PUSH1 0x3 PUSH1 0x40 MLOAD DUP4 PUSH4 0xFFFFFFFF AND PUSH1 0xE0 SHL DUP2 MSTORE PUSH1 0x4 ADD PUSH2 0x2E2F SWAP3 SWAP2 SWAP1 PUSH2 0x4F24 JUMP JUMPDEST PUSH1 0x20 PUSH1 0x40 MLOAD DUP1 DUP4 SUB DUP2 DUP7 DUP1 EXTCODESIZE ISZERO DUP1 ISZERO PUSH2 0x2E47 JUMPI PUSH1 0x0 DUP1 REVERT JUMPDEST POP GAS DELEGATECALL ISZERO DUP1 ISZERO PUSH2 0x2E5B JUMPI RETURNDATASIZE PUSH1 0x0 DUP1 RETURNDATACOPY RETURNDATASIZE PUSH1 0x0 REVERT JUMPDEST POP POP POP POP PUSH1 0x40 MLOAD RETURNDATASIZE PUSH1 0x1F NOT PUSH1 0x1F DUP3 ADD AND DUP3 ADD DUP1 PUSH1 0x40 MSTORE POP DUP2 ADD SWAP1 PUSH2 0x2E7F SWAP2 SWAP1 PUSH2 0x4152 JUMP JUMPDEST POP PUSH1 0x0 PUSH1 0x40 MLOAD PUSH1 0x24 ADD PUSH2 0x2E91 SWAP1 PUSH2 0x4CE5 JUMP JUMPDEST PUSH1 0x40 MLOAD PUSH1 0x20 DUP2 DUP4 SUB SUB DUP2 MSTORE SWAP1 PUSH1 0x40 MSTORE PUSH32 0x6D77BD3E00000000000000000000000000000000000000000000000000000000 PUSH28 0xFFFFFFFFFFFFFFFFFFFFFFFFFFFFFFFFFFFFFFFFFFFFFFFFFFFFFFFF NOT AND PUSH1 0x20 DUP3 ADD DUP1 MLOAD PUSH28 0xFFFFFFFFFFFFFFFFFFFFFFFFFFFFFFFFFFFFFFFFFFFFFFFFFFFFFFFF DUP4 DUP2 DUP4 AND OR DUP4 MSTORE POP POP POP POP SWAP1 POP PUSH1 0x0 ADDRESS PUSH20 0xFFFFFFFFFFFFFFFFFFFFFFFFFFFFFFFFFFFFFFFF AND DUP3 PUSH1 0x40 MLOAD PUSH2 0x2F37 SWAP2 SWAP1 PUSH2 0x48BD JUMP JUMPDEST PUSH1 0x0 PUSH1 0x40 MLOAD DUP1 DUP4 SUB DUP2 PUSH1 0x0 DUP7 GAS CALL SWAP2 POP POP RETURNDATASIZE DUP1 PUSH1 0x0 DUP2 EQ PUSH2 0x2F74 JUMPI PUSH1 0x40 MLOAD SWAP2 POP PUSH1 0x1F NOT PUSH1 0x3F RETURNDATASIZE ADD AND DUP3 ADD PUSH1 0x40 MSTORE RETURNDATASIZE DUP3 MSTORE RETURNDATASIZE PUSH1 0x0 PUSH1 0x20 DUP5 ADD RETURNDATACOPY PUSH2 0x2F79 JUMP JUMPDEST PUSH1 0x60 SWAP2 POP JUMPDEST POP POP SWAP1 POP PUSH20 0x0 PUSH4 0x767392B3 DUP3 PUSH1 0x0 PUSH1 0x40 MLOAD DUP4 PUSH4 0xFFFFFFFF AND PUSH1 0xE0 SHL DUP2 MSTORE PUSH1 0x4 ADD PUSH2 0x2FB7 SWAP3 SWAP2 SWAP1 PUSH2 0x4A10 JUMP JUMPDEST PUSH1 0x20 PUSH1 0x40 MLOAD DUP1 DUP4 SUB DUP2 DUP7 DUP1 EXTCODESIZE ISZERO DUP1 ISZERO PUSH2 0x2FCF JUMPI PUSH1 0x0 DUP1 REVERT JUMPDEST POP GAS DELEGATECALL ISZERO DUP1 ISZERO PUSH2 0x2FE3 JUMPI RETURNDATASIZE PUSH1 0x0 DUP1 RETURNDATACOPY RETURNDATASIZE PUSH1 0x0 REVERT JUMPDEST POP POP POP POP PUSH1 0x40 MLOAD RETURNDATASIZE PUSH1 0x1F NOT PUSH1 0x1F DUP3 ADD AND DUP3 ADD DUP1 PUSH1 0x40 MSTORE POP DUP2 ADD SWAP1 PUSH2 0x3007 SWAP2 SWAP1 PUSH2 0x4152 JUMP JUMPDEST POP POP POP JUMP JUMPDEST PUSH1 0x0 PUSH1 0x1 PUSH1 0x40 MLOAD PUSH1 0x24 ADD PUSH2 0x3020 SWAP2 SWAP1 PUSH2 0x4AE6 JUMP JUMPDEST PUSH1 0x40 MLOAD PUSH1 0x20 DUP2 DUP4 SUB SUB DUP2 MSTORE SWAP1 PUSH1 0x40 MSTORE PUSH32 0x57EF0CEB00000000000000000000000000000000000000000000000000000000 PUSH28 0xFFFFFFFFFFFFFFFFFFFFFFFFFFFFFFFFFFFFFFFFFFFFFFFFFFFFFFFF NOT AND PUSH1 0x20 DUP3 ADD DUP1 MLOAD PUSH28 0xFFFFFFFFFFFFFFFFFFFFFFFFFFFFFFFFFFFFFFFFFFFFFFFFFFFFFFFF DUP4 DUP2 DUP4 AND OR DUP4 MSTORE POP POP POP POP SWAP1 POP PUSH1 0x0 ADDRESS PUSH20 0xFFFFFFFFFFFFFFFFFFFFFFFFFFFFFFFFFFFFFFFF AND DUP3 PUSH1 0x40 MLOAD PUSH2 0x30C6 SWAP2 SWAP1 PUSH2 0x48BD JUMP JUMPDEST PUSH1 0x0 PUSH1 0x40 MLOAD DUP1 DUP4 SUB DUP2 PUSH1 0x0 DUP7 GAS CALL SWAP2 POP POP RETURNDATASIZE DUP1 PUSH1 0x0 DUP2 EQ PUSH2 0x3103 JUMPI PUSH1 0x40 MLOAD SWAP2 POP PUSH1 0x1F NOT PUSH1 0x3F RETURNDATASIZE ADD AND DUP3 ADD PUSH1 0x40 MSTORE RETURNDATASIZE DUP3 MSTORE RETURNDATASIZE PUSH1 0x0 PUSH1 0x20 DUP5 ADD RETURNDATACOPY PUSH2 0x3108 JUMP JUMPDEST PUSH1 0x60 SWAP2 POP JUMPDEST POP POP SWAP1 POP PUSH20 0x0 PUSH4 0x767392B3 DUP3 PUSH1 0x0 PUSH1 0x40 MLOAD DUP4 PUSH4 0xFFFFFFFF AND PUSH1 0xE0 SHL DUP2 MSTORE PUSH1 0x4 ADD PUSH2 0x3146 SWAP3 SWAP2 SWAP1 PUSH2 0x4A10 JUMP JUMPDEST PUSH1 0x20 PUSH1 0x40 MLOAD DUP1 DUP4 SUB DUP2 DUP7 DUP1 EXTCODESIZE ISZERO DUP1 ISZERO PUSH2 0x315E JUMPI PUSH1 0x0 DUP1 REVERT JUMPDEST POP GAS DELEGATECALL ISZERO DUP1 ISZERO PUSH2 0x3172 JUMPI RETURNDATASIZE PUSH1 0x0 DUP1 RETURNDATACOPY RETURNDATASIZE PUSH1 0x0 REVERT JUMPDEST POP POP POP POP PUSH1 0x40 MLOAD RETURNDATASIZE PUSH1 0x1F NOT PUSH1 0x1F DUP3 ADD AND DUP3 ADD DUP1 PUSH1 0x40 MSTORE POP DUP2 ADD SWAP1 PUSH2 0x3196 SWAP2 SWAP1 PUSH2 0x4152 JUMP JUMPDEST POP POP POP JUMP JUMPDEST PUSH1 0x0 PUSH1 0x20 MSTORE DUP1 PUSH1 0x0 MSTORE PUSH1 0x40 PUSH1 0x0 KECCAK256 PUSH1 0x0 SWAP2 POP SWAP1 POP DUP1 SLOAD PUSH2 0x31BA SWAP1 PUSH2 0x53BE JUMP JUMPDEST DUP1 PUSH1 0x1F ADD PUSH1 0x20 DUP1 SWAP2 DIV MUL PUSH1 0x20 ADD PUSH1 0x40 MLOAD SWAP1 DUP2 ADD PUSH1 0x40 MSTORE DUP1 SWAP3 SWAP2 SWAP1 DUP2 DUP2 MSTORE PUSH1 0x20 ADD DUP3 DUP1 SLOAD PUSH2 0x31E6 SWAP1 PUSH2 0x53BE JUMP JUMPDEST DUP1 ISZERO PUSH2 0x3233 JUMPI DUP1 PUSH1 0x1F LT PUSH2 0x3208 JUMPI PUSH2 0x100 DUP1 DUP4 SLOAD DIV MUL DUP4 MSTORE SWAP2 PUSH1 0x20 ADD SWAP2 PUSH2 0x3233 JUMP JUMPDEST DUP3 ADD SWAP2 SWAP1 PUSH1 0x0 MSTORE PUSH1 0x20 PUSH1 0x0 KECCAK256 SWAP1 JUMPDEST DUP2 SLOAD DUP2 MSTORE SWAP1 PUSH1 0x1 ADD SWAP1 PUSH1 0x20 ADD DUP1 DUP4 GT PUSH2 0x3216 JUMPI DUP3 SWAP1 SUB PUSH1 0x1F AND DUP3 ADD SWAP2 JUMPDEST POP POP POP POP POP DUP2 JUMP JUMPDEST PUSH2 0x3243 PUSH2 0x243D JUMP JUMPDEST PUSH20 0x0 PUSH4 0xABCD7960 PUSH1 0x5 PUSH1 0x0 SWAP1 SLOAD SWAP1 PUSH2 0x100 EXP SWAP1 DIV PUSH1 0xFF AND PUSH1 0x3 DUP2 GT ISZERO PUSH2 0x327F JUMPI PUSH2 0x327E PUSH2 0x54C8 JUMP JUMPDEST JUMPDEST PUSH1 0x3 DUP1 DUP2 GT ISZERO PUSH2 0x3292 JUMPI PUSH2 0x3291 PUSH2 0x54C8 JUMP JUMPDEST JUMPDEST PUSH1 0x40 MLOAD DUP4 PUSH4 0xFFFFFFFF AND PUSH1 0xE0 SHL DUP2 MSTORE PUSH1 0x4 ADD PUSH2 0x32AF SWAP3 SWAP2 SWAP1 PUSH2 0x5014 JUMP JUMPDEST PUSH1 0x20 PUSH1 0x40 MLOAD DUP1 DUP4 SUB DUP2 DUP7 DUP1 EXTCODESIZE ISZERO DUP1 ISZERO PUSH2 0x32C7 JUMPI PUSH1 0x0 DUP1 REVERT JUMPDEST POP GAS DELEGATECALL ISZERO DUP1 ISZERO PUSH2 0x32DB JUMPI RETURNDATASIZE PUSH1 0x0 DUP1 RETURNDATACOPY RETURNDATASIZE PUSH1 0x0 REVERT JUMPDEST POP POP POP POP PUSH1 0x40 MLOAD RETURNDATASIZE PUSH1 0x1F NOT PUSH1 0x1F DUP3 ADD AND DUP3 ADD DUP1 PUSH1 0x40 MSTORE POP DUP2 ADD SWAP1 PUSH2 0x32FF SWAP2 SWAP1 PUSH2 0x4152 JUMP JUMPDEST POP JUMP JUMPDEST PUSH1 0x2 SLOAD DUP2 JUMP JUMPDEST PUSH1 0x0 PUSH1 0x2 PUSH1 0x40 MLOAD PUSH1 0x24 ADD PUSH2 0x331C SWAP2 SWAP1 PUSH2 0x4B1C JUMP JUMPDEST PUSH1 0x40 MLOAD PUSH1 0x20 DUP2 DUP4 SUB SUB DUP2 MSTORE SWAP1 PUSH1 0x40 MSTORE PUSH32 0x57EF0CEB00000000000000000000000000000000000000000000000000000000 PUSH28 0xFFFFFFFFFFFFFFFFFFFFFFFFFFFFFFFFFFFFFFFFFFFFFFFFFFFFFFFF NOT AND PUSH1 0x20 DUP3 ADD DUP1 MLOAD PUSH28 0xFFFFFFFFFFFFFFFFFFFFFFFFFFFFFFFFFFFFFFFFFFFFFFFFFFFFFFFF DUP4 DUP2 DUP4 AND OR DUP4 MSTORE POP POP POP POP SWAP1 POP PUSH1 0x0 ADDRESS PUSH20 0xFFFFFFFFFFFFFFFFFFFFFFFFFFFFFFFFFFFFFFFF AND DUP3 PUSH1 0x40 MLOAD PUSH2 0x33C2 SWAP2 SWAP1 PUSH2 0x48BD JUMP JUMPDEST PUSH1 0x0 PUSH1 0x40 MLOAD DUP1 DUP4 SUB DUP2 PUSH1 0x0 DUP7 GAS CALL SWAP2 POP POP RETURNDATASIZE DUP1 PUSH1 0x0 DUP2 EQ PUSH2 0x33FF JUMPI PUSH1 0x40 MLOAD SWAP2 POP PUSH1 0x1F NOT PUSH1 0x3F RETURNDATASIZE ADD AND DUP3 ADD PUSH1 0x40 MSTORE RETURNDATASIZE DUP3 MSTORE RETURNDATASIZE PUSH1 0x0 PUSH1 0x20 DUP5 ADD RETURNDATACOPY PUSH2 0x3404 JUMP JUMPDEST PUSH1 0x60 SWAP2 POP JUMPDEST POP POP SWAP1 POP PUSH20 0x0 PUSH4 0x767392B3 DUP3 PUSH1 0x0 PUSH1 0x40 MLOAD DUP4 PUSH4 0xFFFFFFFF AND PUSH1 0xE0 SHL DUP2 MSTORE PUSH1 0x4 ADD PUSH2 0x3442 SWAP3 SWAP2 SWAP1 PUSH2 0x4A10 JUMP JUMPDEST PUSH1 0x20 PUSH1 0x40 MLOAD DUP1 DUP4 SUB DUP2 DUP7 DUP1 EXTCODESIZE ISZERO DUP1 ISZERO PUSH2 0x345A JUMPI PUSH1 0x0 DUP1 REVERT JUMPDEST POP GAS DELEGATECALL ISZERO DUP1 ISZERO PUSH2 0x346E JUMPI RETURNDATASIZE PUSH1 0x0 DUP1 RETURNDATACOPY RETURNDATASIZE PUSH1 0x0 REVERT JUMPDEST POP POP POP POP PUSH1 0x40 MLOAD RETURNDATASIZE PUSH1 0x1F NOT PUSH1 0x1F DUP3 ADD AND DUP3 ADD DUP1 PUSH1 0x40 MSTORE POP DUP2 ADD SWAP1 PUSH2 0x3492 SWAP2 SWAP1 PUSH2 0x4152 JUMP JUMPDEST POP POP POP JUMP JUMPDEST PUSH20 0x0 PUSH4 0xE8C2CB16 PUSH1 0x6 PUSH1 0x40 MLOAD DUP3 PUSH4 0xFFFFFFFF AND PUSH1 0xE0 SHL DUP2 MSTORE PUSH1 0x4 ADD PUSH2 0x34CF SWAP2 SWAP1 PUSH2 0x4BF5 JUMP JUMPDEST PUSH1 0x20 PUSH1 0x40 MLOAD DUP1 DUP4 SUB DUP2 DUP7 DUP1 EXTCODESIZE ISZERO DUP1 ISZERO PUSH2 0x34E7 JUMPI PUSH1 0x0 DUP1 REVERT JUMPDEST POP GAS DELEGATECALL ISZERO DUP1 ISZERO PUSH2 0x34FB JUMPI RETURNDATASIZE PUSH1 0x0 DUP1 RETURNDATACOPY RETURNDATASIZE PUSH1 0x0 REVERT JUMPDEST POP POP POP POP PUSH1 0x40 MLOAD RETURNDATASIZE PUSH1 0x1F NOT PUSH1 0x1F DUP3 ADD AND DUP3 ADD DUP1 PUSH1 0x40 MSTORE POP DUP2 ADD SWAP1 PUSH2 0x351F SWAP2 SWAP1 PUSH2 0x4152 JUMP JUMPDEST POP PUSH20 0x0 PUSH4 0xABCD7960 PUSH1 0x5 PUSH1 0x0 SWAP1 SLOAD SWAP1 PUSH2 0x100 EXP SWAP1 DIV PUSH1 0xFF AND PUSH1 0x3 DUP2 GT ISZERO PUSH2 0x355C JUMPI PUSH2 0x355B PUSH2 0x54C8 JUMP JUMPDEST JUMPDEST PUSH1 0x2 PUSH1 0x3 DUP2 GT ISZERO PUSH2 0x3570 JUMPI PUSH2 0x356F PUSH2 0x54C8 JUMP JUMPDEST JUMPDEST PUSH1 0x40 MLOAD DUP4 PUSH4 0xFFFFFFFF AND PUSH1 0xE0 SHL DUP2 MSTORE PUSH1 0x4 ADD PUSH2 0x358D SWAP3 SWAP2 SWAP1 PUSH2 0x508C JUMP JUMPDEST PUSH1 0x20 PUSH1 0x40 MLOAD DUP1 DUP4 SUB DUP2 DUP7 DUP1 EXTCODESIZE ISZERO DUP1 ISZERO PUSH2 0x35A5 JUMPI PUSH1 0x0 DUP1 REVERT JUMPDEST POP GAS DELEGATECALL ISZERO DUP1 ISZERO PUSH2 0x35B9 JUMPI RETURNDATASIZE PUSH1 0x0 DUP1 RETURNDATACOPY RETURNDATASIZE PUSH1 0x0 REVERT JUMPDEST POP POP POP POP PUSH1 0x40 MLOAD RETURNDATASIZE PUSH1 0x1F NOT PUSH1 0x1F DUP3 ADD AND DUP3 ADD DUP1 PUSH1 0x40 MSTORE POP DUP2 ADD SWAP1 PUSH2 0x35DD SWAP2 SWAP1 PUSH2 0x4152 JUMP JUMPDEST POP JUMP JUMPDEST PUSH1 0x5 PUSH1 0x0 SWAP1 SLOAD SWAP1 PUSH2 0x100 EXP SWAP1 DIV PUSH1 0xFF AND DUP2 JUMP JUMPDEST PUSH1 0x6 DUP1 SLOAD PUSH2 0x3600 SWAP1 PUSH2 0x53BE JUMP JUMPDEST DUP1 PUSH1 0x1F ADD PUSH1 0x20 DUP1 SWAP2 DIV MUL PUSH1 0x20 ADD PUSH1 0x40 MLOAD SWAP1 DUP2 ADD PUSH1 0x40 MSTORE DUP1 SWAP3 SWAP2 SWAP1 DUP2 DUP2 MSTORE PUSH1 0x20 ADD DUP3 DUP1 SLOAD PUSH2 0x362C SWAP1 PUSH2 0x53BE JUMP JUMPDEST DUP1 ISZERO PUSH2 0x3679 JUMPI DUP1 PUSH1 0x1F LT PUSH2 0x364E JUMPI PUSH2 0x100 DUP1 DUP4 SLOAD DIV MUL DUP4 MSTORE SWAP2 PUSH1 0x20 ADD SWAP2 PUSH2 0x3679 JUMP JUMPDEST DUP3 ADD SWAP2 SWAP1 PUSH1 0x0 MSTORE PUSH1 0x20 PUSH1 0x0 KECCAK256 SWAP1 JUMPDEST DUP2 SLOAD DUP2 MSTORE SWAP1 PUSH1 0x1 ADD SWAP1 PUSH1 0x20 ADD DUP1 DUP4 GT PUSH2 0x365C JUMPI DUP3 SWAP1 SUB PUSH1 0x1F AND DUP3 ADD SWAP2 JUMPDEST POP POP POP POP POP DUP2 JUMP JUMPDEST PUSH2 0x3689 PUSH2 0xCE6 JUMP JUMPDEST PUSH20 0x0 PUSH4 0xABCD7960 PUSH1 0x5 PUSH1 0x0 SWAP1 SLOAD SWAP1 PUSH2 0x100 EXP SWAP1 DIV PUSH1 0xFF AND PUSH1 0x3 DUP2 GT ISZERO PUSH2 0x36C5 JUMPI PUSH2 0x36C4 PUSH2 0x54C8 JUMP JUMPDEST JUMPDEST PUSH1 0x1 PUSH1 0x3 DUP2 GT ISZERO PUSH2 0x36D9 JUMPI PUSH2 0x36D8 PUSH2 0x54C8 JUMP JUMPDEST JUMPDEST PUSH1 0x40 MLOAD DUP4 PUSH4 0xFFFFFFFF AND PUSH1 0xE0 SHL DUP2 MSTORE PUSH1 0x4 ADD PUSH2 0x36F6 SWAP3 SWAP2 SWAP1 PUSH2 0x5050 JUMP JUMPDEST PUSH1 0x20 PUSH1 0x40 MLOAD DUP1 DUP4 SUB DUP2 DUP7 DUP1 EXTCODESIZE ISZERO DUP1 ISZERO PUSH2 0x370E JUMPI PUSH1 0x0 DUP1 REVERT JUMPDEST POP GAS DELEGATECALL ISZERO DUP1 ISZERO PUSH2 0x3722 JUMPI RETURNDATASIZE PUSH1 0x0 DUP1 RETURNDATACOPY RETURNDATASIZE PUSH1 0x0 REVERT JUMPDEST POP POP POP POP PUSH1 0x40 MLOAD RETURNDATASIZE PUSH1 0x1F NOT PUSH1 0x1F DUP3 ADD AND DUP3 ADD DUP1 PUSH1 0x40 MSTORE POP DUP2 ADD SWAP1 PUSH2 0x3746 SWAP2 SWAP1 PUSH2 0x4152 JUMP JUMPDEST POP JUMP JUMPDEST PUSH1 0x0 PUSH1 0x4 PUSH1 0x40 MLOAD PUSH1 0x24 ADD PUSH2 0x375D SWAP2 SWAP1 PUSH2 0x4B6D JUMP JUMPDEST PUSH1 0x40 MLOAD PUSH1 0x20 DUP2 DUP4 SUB SUB DUP2 MSTORE SWAP1 PUSH1 0x40 MSTORE PUSH32 0x57EF0CEB00000000000000000000000000000000000000000000000000000000 PUSH28 0xFFFFFFFFFFFFFFFFFFFFFFFFFFFFFFFFFFFFFFFFFFFFFFFFFFFFFFFF NOT AND PUSH1 0x20 DUP3 ADD DUP1 MLOAD PUSH28 0xFFFFFFFFFFFFFFFFFFFFFFFFFFFFFFFFFFFFFFFFFFFFFFFFFFFFFFFF DUP4 DUP2 DUP4 AND OR DUP4 MSTORE POP POP POP POP SWAP1 POP PUSH1 0x0 ADDRESS PUSH20 0xFFFFFFFFFFFFFFFFFFFFFFFFFFFFFFFFFFFFFFFF AND DUP3 PUSH1 0x40 MLOAD PUSH2 0x3803 SWAP2 SWAP1 PUSH2 0x48BD JUMP JUMPDEST PUSH1 0x0 PUSH1 0x40 MLOAD DUP1 DUP4 SUB DUP2 PUSH1 0x0 DUP7 GAS CALL SWAP2 POP POP RETURNDATASIZE DUP1 PUSH1 0x0 DUP2 EQ PUSH2 0x3840 JUMPI PUSH1 0x40 MLOAD SWAP2 POP PUSH1 0x1F NOT PUSH1 0x3F RETURNDATASIZE ADD AND DUP3 ADD PUSH1 0x40 MSTORE RETURNDATASIZE DUP3 MSTORE RETURNDATASIZE PUSH1 0x0 PUSH1 0x20 DUP5 ADD RETURNDATACOPY PUSH2 0x3845 JUMP JUMPDEST PUSH1 0x60 SWAP2 POP JUMPDEST POP POP SWAP1 POP PUSH20 0x0 PUSH4 0x767392B3 DUP3 PUSH1 0x0 PUSH1 0x40 MLOAD DUP4 PUSH4 0xFFFFFFFF AND PUSH1 0xE0 SHL DUP2 MSTORE PUSH1 0x4 ADD PUSH2 0x3883 SWAP3 SWAP2 SWAP1 PUSH2 0x4A10 JUMP JUMPDEST PUSH1 0x20 PUSH1 0x40 MLOAD DUP1 DUP4 SUB DUP2 DUP7 DUP1 EXTCODESIZE ISZERO DUP1 ISZERO PUSH2 0x389B JUMPI PUSH1 0x0 DUP1 REVERT JUMPDEST POP GAS DELEGATECALL ISZERO DUP1 ISZERO PUSH2 0x38AF JUMPI RETURNDATASIZE PUSH1 0x0 DUP1 RETURNDATACOPY RETURNDATASIZE PUSH1 0x0 REVERT JUMPDEST POP POP POP POP PUSH1 0x40 MLOAD RETURNDATASIZE PUSH1 0x1F NOT PUSH1 0x1F DUP3 ADD AND DUP3 ADD DUP1 PUSH1 0x40 MSTORE POP DUP2 ADD SWAP1 PUSH2 0x38D3 SWAP2 SWAP1 PUSH2 0x4152 JUMP JUMPDEST POP POP POP JUMP JUMPDEST PUSH20 0x0 PUSH4 0xABCD7960 PUSH2 0x3953 PUSH1 0xE PUSH1 0x0 SWAP1 SLOAD SWAP1 PUSH2 0x100 EXP SWAP1 DIV PUSH20 0xFFFFFFFFFFFFFFFFFFFFFFFFFFFFFFFFFFFFFFFF AND PUSH1 0x40 MLOAD DUP1 PUSH1 0x40 ADD PUSH1 0x40 MSTORE DUP1 PUSH1 0x4 DUP2 MSTORE PUSH1 0x20 ADD PUSH32 0x4A6F686E00000000000000000000000000000000000000000000000000000000 DUP2 MSTORE POP PUSH2 0x1476 JUMP JUMPDEST PUSH1 0x5 PUSH1 0x40 MLOAD DUP4 PUSH4 0xFFFFFFFF AND PUSH1 0xE0 SHL DUP2 MSTORE PUSH1 0x4 ADD PUSH2 0x3972 SWAP3 SWAP2 SWAP1 PUSH2 0x4FD8 JUMP JUMPDEST PUSH1 0x20 PUSH1 0x40 MLOAD DUP1 DUP4 SUB DUP2 DUP7 DUP1 EXTCODESIZE ISZERO DUP1 ISZERO PUSH2 0x398A JUMPI PUSH1 0x0 DUP1 REVERT JUMPDEST POP GAS DELEGATECALL ISZERO DUP1 ISZERO PUSH2 0x399E JUMPI RETURNDATASIZE PUSH1 0x0 DUP1 RETURNDATACOPY RETURNDATASIZE PUSH1 0x0 REVERT JUMPDEST POP POP POP POP PUSH1 0x40 MLOAD RETURNDATASIZE PUSH1 0x1F NOT PUSH1 0x1F DUP3 ADD AND DUP3 ADD DUP1 PUSH1 0x40 MSTORE POP DUP2 ADD SWAP1 PUSH2 0x39C2 SWAP2 SWAP1 PUSH2 0x4152 JUMP JUMPDEST POP PUSH1 0x0 PUSH1 0xE PUSH1 0x0 SWAP1 SLOAD SWAP1 PUSH2 0x100 EXP SWAP1 DIV PUSH20 0xFFFFFFFFFFFFFFFFFFFFFFFFFFFFFFFFFFFFFFFF AND PUSH1 0x40 MLOAD PUSH1 0x24 ADD PUSH2 0x39F8 SWAP2 SWAP1 PUSH2 0x4970 JUMP JUMPDEST PUSH1 0x40 MLOAD PUSH1 0x20 DUP2 DUP4 SUB SUB DUP2 MSTORE SWAP1 PUSH1 0x40 MSTORE PUSH32 0x1EB6203600000000000000000000000000000000000000000000000000000000 PUSH28 0xFFFFFFFFFFFFFFFFFFFFFFFFFFFFFFFFFFFFFFFFFFFFFFFFFFFFFFFF NOT AND PUSH1 0x20 DUP3 ADD DUP1 MLOAD PUSH28 0xFFFFFFFFFFFFFFFFFFFFFFFFFFFFFFFFFFFFFFFFFFFFFFFFFFFFFFFF DUP4 DUP2 DUP4 AND OR DUP4 MSTORE POP POP POP POP SWAP1 POP PUSH1 0x0 ADDRESS PUSH20 0xFFFFFFFFFFFFFFFFFFFFFFFFFFFFFFFFFFFFFFFF AND DUP3 PUSH1 0x40 MLOAD PUSH2 0x3A9E SWAP2 SWAP1 PUSH2 0x48BD JUMP JUMPDEST PUSH1 0x0 PUSH1 0x40 MLOAD DUP1 DUP4 SUB DUP2 PUSH1 0x0 DUP7 GAS CALL SWAP2 POP POP RETURNDATASIZE DUP1 PUSH1 0x0 DUP2 EQ PUSH2 0x3ADB JUMPI PUSH1 0x40 MLOAD SWAP2 POP PUSH1 0x1F NOT PUSH1 0x3F RETURNDATASIZE ADD AND DUP3 ADD PUSH1 0x40 MSTORE RETURNDATASIZE DUP3 MSTORE RETURNDATASIZE PUSH1 0x0 PUSH1 0x20 DUP5 ADD RETURNDATACOPY PUSH2 0x3AE0 JUMP JUMPDEST PUSH1 0x60 SWAP2 POP JUMPDEST POP POP SWAP1 POP PUSH20 0x0 PUSH4 0x767392B3 DUP3 PUSH1 0x0 PUSH1 0x40 MLOAD DUP4 PUSH4 0xFFFFFFFF AND PUSH1 0xE0 SHL DUP2 MSTORE PUSH1 0x4 ADD PUSH2 0x3B1E SWAP3 SWAP2 SWAP1 PUSH2 0x4A10 JUMP JUMPDEST PUSH1 0x20 PUSH1 0x40 MLOAD DUP1 DUP4 SUB DUP2 DUP7 DUP1 EXTCODESIZE ISZERO DUP1 ISZERO PUSH2 0x3B36 JUMPI PUSH1 0x0 DUP1 REVERT JUMPDEST POP GAS DELEGATECALL ISZERO DUP1 ISZERO PUSH2 0x3B4A JUMPI RETURNDATASIZE PUSH1 0x0 DUP1 RETURNDATACOPY RETURNDATASIZE PUSH1 0x0 REVERT JUMPDEST POP POP POP POP PUSH1 0x40 MLOAD RETURNDATASIZE PUSH1 0x1F NOT PUSH1 0x1F DUP3 ADD AND DUP3 ADD DUP1 PUSH1 0x40 MSTORE POP DUP2 ADD SWAP1 PUSH2 0x3B6E SWAP2 SWAP1 PUSH2 0x4152 JUMP JUMPDEST POP PUSH1 0x0 PUSH1 0xE PUSH1 0x0 SWAP1 SLOAD SWAP1 PUSH2 0x100 EXP SWAP1 DIV PUSH20 0xFFFFFFFFFFFFFFFFFFFFFFFFFFFFFFFFFFFFFFFF AND PUSH1 0x40 MLOAD PUSH1 0x24 ADD PUSH2 0x3BA4 SWAP2 SWAP1 PUSH2 0x499E JUMP JUMPDEST PUSH1 0x40 MLOAD PUSH1 0x20 DUP2 DUP4 SUB SUB DUP2 MSTORE SWAP1 PUSH1 0x40 MSTORE PUSH32 0x1EB6203600000000000000000000000000000000000000000000000000000000 PUSH28 0xFFFFFFFFFFFFFFFFFFFFFFFFFFFFFFFFFFFFFFFFFFFFFFFFFFFFFFFF NOT AND PUSH1 0x20 DUP3 ADD DUP1 MLOAD PUSH28 0xFFFFFFFFFFFFFFFFFFFFFFFFFFFFFFFFFFFFFFFFFFFFFFFFFFFFFFFF DUP4 DUP2 DUP4 AND OR DUP4 MSTORE POP POP POP POP SWAP1 POP PUSH1 0x0 ADDRESS PUSH20 0xFFFFFFFFFFFFFFFFFFFFFFFFFFFFFFFFFFFFFFFF AND DUP3 PUSH1 0x40 MLOAD PUSH2 0x3C4A SWAP2 SWAP1 PUSH2 0x48BD JUMP JUMPDEST PUSH1 0x0 PUSH1 0x40 MLOAD DUP1 DUP4 SUB DUP2 PUSH1 0x0 DUP7 GAS CALL SWAP2 POP POP RETURNDATASIZE DUP1 PUSH1 0x0 DUP2 EQ PUSH2 0x3C87 JUMPI PUSH1 0x40 MLOAD SWAP2 POP PUSH1 0x1F NOT PUSH1 0x3F RETURNDATASIZE ADD AND DUP3 ADD PUSH1 0x40 MSTORE RETURNDATASIZE DUP3 MSTORE RETURNDATASIZE PUSH1 0x0 PUSH1 0x20 DUP5 ADD RETURNDATACOPY PUSH2 0x3C8C JUMP JUMPDEST PUSH1 0x60 SWAP2 POP JUMPDEST POP POP SWAP1 POP PUSH20 0x0 PUSH4 0x767392B3 DUP3 PUSH1 0x0 PUSH1 0x40 MLOAD DUP4 PUSH4 0xFFFFFFFF AND PUSH1 0xE0 SHL DUP2 MSTORE PUSH1 0x4 ADD PUSH2 0x3CCA SWAP3 SWAP2 SWAP1 PUSH2 0x4A10 JUMP JUMPDEST PUSH1 0x20 PUSH1 0x40 MLOAD DUP1 DUP4 SUB DUP2 DUP7 DUP1 EXTCODESIZE ISZERO DUP1 ISZERO PUSH2 0x3CE2 JUMPI PUSH1 0x0 DUP1 REVERT JUMPDEST POP GAS DELEGATECALL ISZERO DUP1 ISZERO PUSH2 0x3CF6 JUMPI RETURNDATASIZE PUSH1 0x0 DUP1 RETURNDATACOPY RETURNDATASIZE PUSH1 0x0 REVERT JUMPDEST POP POP POP POP PUSH1 0x40 MLOAD RETURNDATASIZE PUSH1 0x1F NOT PUSH1 0x1F DUP3 ADD AND DUP3 ADD DUP1 PUSH1 0x40 MSTORE POP DUP2 ADD SWAP1 PUSH2 0x3D1A SWAP2 SWAP1 PUSH2 0x4152 JUMP JUMPDEST POP POP POP POP POP JUMP JUMPDEST PUSH1 0x0 DUP1 PUSH1 0x0 PUSH1 0x1 SWAP1 POP JUMPDEST PUSH1 0x4 SLOAD DUP2 GT PUSH2 0x3E00 JUMPI PUSH1 0x0 PUSH1 0x1 SWAP1 POP PUSH1 0x0 PUSH1 0x8 PUSH1 0x0 PUSH1 0x7 PUSH1 0x0 DUP7 DUP2 MSTORE PUSH1 0x20 ADD SWAP1 DUP2 MSTORE PUSH1 0x20 ADD PUSH1 0x0 KECCAK256 PUSH1 0x1 ADD SLOAD DUP2 MSTORE PUSH1 0x20 ADD SWAP1 DUP2 MSTORE PUSH1 0x20 ADD PUSH1 0x0 KECCAK256 SLOAD GT ISZERO PUSH2 0x3DA4 JUMPI PUSH1 0x8 PUSH1 0x0 PUSH1 0x7 PUSH1 0x0 DUP6 DUP2 MSTORE PUSH1 0x20 ADD SWAP1 DUP2 MSTORE PUSH1 0x20 ADD PUSH1 0x0 KECCAK256 PUSH1 0x1 ADD SLOAD DUP2 MSTORE PUSH1 0x20 ADD SWAP1 DUP2 MSTORE PUSH1 0x20 ADD PUSH1 0x0 KECCAK256 SLOAD DUP2 PUSH2 0x3DA1 SWAP2 SWAP1 PUSH2 0x51C7 JUMP JUMPDEST SWAP1 POP JUMPDEST DUP1 PUSH1 0x8 PUSH1 0x0 PUSH1 0x7 PUSH1 0x0 DUP7 DUP2 MSTORE PUSH1 0x20 ADD SWAP1 DUP2 MSTORE PUSH1 0x20 ADD PUSH1 0x0 KECCAK256 PUSH1 0x1 ADD SLOAD DUP2 MSTORE PUSH1 0x20 ADD SWAP1 DUP2 MSTORE PUSH1 0x20 ADD PUSH1 0x0 KECCAK256 DUP2 SWAP1 SSTORE POP DUP4 DUP2 GT ISZERO PUSH2 0x3DF4 JUMPI PUSH1 0x7 PUSH1 0x0 DUP4 DUP2 MSTORE PUSH1 0x20 ADD SWAP1 DUP2 MSTORE PUSH1 0x20 ADD PUSH1 0x0 KECCAK256 PUSH1 0x1 ADD SLOAD SWAP3 POP JUMPDEST DUP2 PUSH1 0x1 ADD SWAP2 POP POP PUSH2 0x3D2B JUMP JUMPDEST POP PUSH1 0x0 DUP1 DUP3 DUP2 MSTORE PUSH1 0x20 ADD SWAP1 DUP2 MSTORE PUSH1 0x20 ADD PUSH1 0x0 KECCAK256 PUSH1 0x6 SWAP1 DUP1 SLOAD PUSH2 0x3E21 SWAP1 PUSH2 0x53BE JUMP JUMPDEST PUSH2 0x3E2C SWAP3 SWAP2 SWAP1 PUSH2 0x3F2E JUMP JUMPDEST POP PUSH1 0x2 PUSH1 0x5 PUSH1 0x0 PUSH2 0x100 EXP DUP2 SLOAD DUP2 PUSH1 0xFF MUL NOT AND SWAP1 DUP4 PUSH1 0x3 DUP2 GT ISZERO PUSH2 0x3E53 JUMPI PUSH2 0x3E52 PUSH2 0x54C8 JUMP JUMPDEST JUMPDEST MUL OR SWAP1 SSTORE POP POP POP JUMP JUMPDEST PUSH1 0x40 MLOAD DUP1 PUSH1 0x40 ADD PUSH1 0x40 MSTORE DUP1 PUSH1 0x0 PUSH20 0xFFFFFFFFFFFFFFFFFFFFFFFFFFFFFFFFFFFFFFFF AND DUP2 MSTORE PUSH1 0x20 ADD PUSH1 0x0 DUP2 MSTORE POP SWAP1 JUMP JUMPDEST PUSH1 0x40 MLOAD DUP1 PUSH1 0x40 ADD PUSH1 0x40 MSTORE DUP1 PUSH1 0x60 DUP2 MSTORE PUSH1 0x20 ADD PUSH1 0x0 ISZERO ISZERO DUP2 MSTORE POP SWAP1 JUMP JUMPDEST DUP3 DUP1 SLOAD PUSH2 0x3EB4 SWAP1 PUSH2 0x53BE JUMP JUMPDEST SWAP1 PUSH1 0x0 MSTORE PUSH1 0x20 PUSH1 0x0 KECCAK256 SWAP1 PUSH1 0x1F ADD PUSH1 0x20 SWAP1 DIV DUP2 ADD SWAP3 DUP3 PUSH2 0x3ED6 JUMPI PUSH1 0x0 DUP6 SSTORE PUSH2 0x3F1D JUMP JUMPDEST DUP3 PUSH1 0x1F LT PUSH2 0x3EEF JUMPI DUP1 MLOAD PUSH1 0xFF NOT AND DUP4 DUP1 ADD OR DUP6 SSTORE PUSH2 0x3F1D JUMP JUMPDEST DUP3 DUP1 ADD PUSH1 0x1 ADD DUP6 SSTORE DUP3 ISZERO PUSH2 0x3F1D JUMPI SWAP2 DUP3 ADD JUMPDEST DUP3 DUP2 GT ISZERO PUSH2 0x3F1C JUMPI DUP3 MLOAD DUP3 SSTORE SWAP2 PUSH1 0x20 ADD SWAP2 SWAP1 PUSH1 0x1 ADD SWAP1 PUSH2 0x3F01 JUMP JUMPDEST JUMPDEST POP SWAP1 POP PUSH2 0x3F2A SWAP2 SWAP1 PUSH2 0x3FBB JUMP JUMPDEST POP SWAP1 JUMP JUMPDEST DUP3 DUP1 SLOAD PUSH2 0x3F3A SWAP1 PUSH2 0x53BE JUMP JUMPDEST SWAP1 PUSH1 0x0 MSTORE PUSH1 0x20 PUSH1 0x0 KECCAK256 SWAP1 PUSH1 0x1F ADD PUSH1 0x20 SWAP1 DIV DUP2 ADD SWAP3 DUP3 PUSH2 0x3F5C JUMPI PUSH1 0x0 DUP6 SSTORE PUSH2 0x3FAA JUMP JUMPDEST DUP3 PUSH1 0x1F LT PUSH2 0x3F6D JUMPI DUP1 SLOAD DUP6 SSTORE PUSH2 0x3FAA JUMP JUMPDEST DUP3 DUP1 ADD PUSH1 0x1 ADD DUP6 SSTORE DUP3 ISZERO PUSH2 0x3FAA JUMPI PUSH1 0x0 MSTORE PUSH1 0x20 PUSH1 0x0 KECCAK256 SWAP2 PUSH1 0x1F ADD PUSH1 0x20 SWAP1 DIV DUP3 ADD JUMPDEST DUP3 DUP2 GT ISZERO PUSH2 0x3FA9 JUMPI DUP3 SLOAD DUP3 SSTORE SWAP2 PUSH1 0x1 ADD SWAP2 SWAP1 PUSH1 0x1 ADD SWAP1 PUSH2 0x3F8E JUMP JUMPDEST JUMPDEST POP SWAP1 POP PUSH2 0x3FB7 SWAP2 SWAP1 PUSH2 0x3FBB JUMP JUMPDEST POP SWAP1 JUMP JUMPDEST JUMPDEST DUP1 DUP3 GT ISZERO PUSH2 0x3FD4 JUMPI PUSH1 0x0 DUP2 PUSH1 0x0 SWAP1 SSTORE POP PUSH1 0x1 ADD PUSH2 0x3FBC JUMP JUMPDEST POP SWAP1 JUMP JUMPDEST PUSH1 0x0 PUSH2 0x3FEB PUSH2 0x3FE6 DUP5 PUSH2 0x5129 JUMP JUMPDEST PUSH2 0x5104 JUMP JUMPDEST SWAP1 POP DUP3 DUP2 MSTORE PUSH1 0x20 DUP2 ADD DUP5 DUP5 DUP5 ADD GT ISZERO PUSH2 0x4007 JUMPI PUSH2 0x4006 PUSH2 0x555A JUMP JUMPDEST JUMPDEST PUSH2 0x4012 DUP5 DUP3 DUP6 PUSH2 0x537C JUMP JUMPDEST POP SWAP4 SWAP3 POP POP POP JUMP JUMPDEST PUSH1 0x0 DUP2 CALLDATALOAD SWAP1 POP PUSH2 0x4029 DUP2 PUSH2 0x5B92 JUMP JUMPDEST SWAP3 SWAP2 POP POP JUMP JUMPDEST PUSH1 0x0 DUP2 MLOAD SWAP1 POP PUSH2 0x403E DUP2 PUSH2 0x5B92 JUMP JUMPDEST SWAP3 SWAP2 POP POP JUMP JUMPDEST PUSH1 0x0 DUP2 MLOAD SWAP1 POP PUSH2 0x4053 DUP2 PUSH2 0x5BA9 JUMP JUMPDEST SWAP3 SWAP2 POP POP JUMP JUMPDEST PUSH1 0x0 DUP3 PUSH1 0x1F DUP4 ADD SLT PUSH2 0x406E JUMPI PUSH2 0x406D PUSH2 0x5555 JUMP JUMPDEST JUMPDEST DUP2 CALLDATALOAD PUSH2 0x407E DUP5 DUP3 PUSH1 0x20 DUP7 ADD PUSH2 0x3FD8 JUMP JUMPDEST SWAP2 POP POP SWAP3 SWAP2 POP POP JUMP JUMPDEST PUSH1 0x0 DUP2 CALLDATALOAD SWAP1 POP PUSH2 0x4096 DUP2 PUSH2 0x5BC0 JUMP JUMPDEST SWAP3 SWAP2 POP POP JUMP JUMPDEST PUSH1 0x0 PUSH1 0x20 DUP3 DUP5 SUB SLT ISZERO PUSH2 0x40B2 JUMPI PUSH2 0x40B1 PUSH2 0x5564 JUMP JUMPDEST JUMPDEST PUSH1 0x0 PUSH2 0x40C0 DUP5 DUP3 DUP6 ADD PUSH2 0x401A JUMP JUMPDEST SWAP2 POP POP SWAP3 SWAP2 POP POP JUMP JUMPDEST PUSH1 0x0 PUSH1 0x20 DUP3 DUP5 SUB SLT ISZERO PUSH2 0x40DF JUMPI PUSH2 0x40DE PUSH2 0x5564 JUMP JUMPDEST JUMPDEST PUSH1 0x0 PUSH2 0x40ED DUP5 DUP3 DUP6 ADD PUSH2 0x402F JUMP JUMPDEST SWAP2 POP POP SWAP3 SWAP2 POP POP JUMP JUMPDEST PUSH1 0x0 DUP1 PUSH1 0x40 DUP4 DUP6 SUB SLT ISZERO PUSH2 0x410D JUMPI PUSH2 0x410C PUSH2 0x5564 JUMP JUMPDEST JUMPDEST PUSH1 0x0 PUSH2 0x411B DUP6 DUP3 DUP7 ADD PUSH2 0x401A JUMP JUMPDEST SWAP3 POP POP PUSH1 0x20 DUP4 ADD CALLDATALOAD PUSH8 0xFFFFFFFFFFFFFFFF DUP2 GT ISZERO PUSH2 0x413C JUMPI PUSH2 0x413B PUSH2 0x555F JUMP JUMPDEST JUMPDEST PUSH2 0x4148 DUP6 DUP3 DUP7 ADD PUSH2 0x4059 JUMP JUMPDEST SWAP2 POP POP SWAP3 POP SWAP3 SWAP1 POP JUMP JUMPDEST PUSH1 0x0 PUSH1 0x20 DUP3 DUP5 SUB SLT ISZERO PUSH2 0x4168 JUMPI PUSH2 0x4167 PUSH2 0x5564 JUMP JUMPDEST JUMPDEST PUSH1 0x0 PUSH2 0x4176 DUP5 DUP3 DUP6 ADD PUSH2 0x4044 JUMP JUMPDEST SWAP2 POP POP SWAP3 SWAP2 POP POP JUMP JUMPDEST PUSH1 0x0 PUSH1 0x20 DUP3 DUP5 SUB SLT ISZERO PUSH2 0x4195 JUMPI PUSH2 0x4194 PUSH2 0x5564 JUMP JUMPDEST JUMPDEST PUSH1 0x0 DUP3 ADD CALLDATALOAD PUSH8 0xFFFFFFFFFFFFFFFF DUP2 GT ISZERO PUSH2 0x41B3 JUMPI PUSH2 0x41B2 PUSH2 0x555F JUMP JUMPDEST JUMPDEST PUSH2 0x41BF DUP5 DUP3 DUP6 ADD PUSH2 0x4059 JUMP JUMPDEST SWAP2 POP POP SWAP3 SWAP2 POP POP JUMP JUMPDEST PUSH1 0x0 PUSH1 0x20 DUP3 DUP5 SUB SLT ISZERO PUSH2 0x41DE JUMPI PUSH2 0x41DD PUSH2 0x5564 JUMP JUMPDEST JUMPDEST PUSH1 0x0 PUSH2 0x41EC DUP5 DUP3 DUP6 ADD PUSH2 0x4087 JUMP JUMPDEST SWAP2 POP POP SWAP3 SWAP2 POP POP JUMP JUMPDEST PUSH2 0x41FE DUP2 PUSH2 0x524E JUMP JUMPDEST DUP3 MSTORE POP POP JUMP JUMPDEST PUSH2 0x420D DUP2 PUSH2 0x524E JUMP JUMPDEST DUP3 MSTORE POP POP JUMP JUMPDEST PUSH2 0x421C DUP2 PUSH2 0x5260 JUMP JUMPDEST DUP3 MSTORE POP POP JUMP JUMPDEST PUSH2 0x422B DUP2 PUSH2 0x5260 JUMP JUMPDEST DUP3 MSTORE POP POP JUMP JUMPDEST PUSH1 0x0 PUSH2 0x423C DUP3 PUSH2 0x5184 JUMP JUMPDEST PUSH2 0x4246 DUP2 DUP6 PUSH2 0x519A JUMP JUMPDEST SWAP4 POP PUSH2 0x4256 DUP2 DUP6 PUSH1 0x20 DUP7 ADD PUSH2 0x538B JUMP JUMPDEST DUP1 DUP5 ADD SWAP2 POP POP SWAP3 SWAP2 POP POP JUMP JUMPDEST PUSH1 0x0 DUP2 SLOAD PUSH2 0x426F DUP2 PUSH2 0x53BE JUMP JUMPDEST PUSH2 0x4279 DUP2 DUP7 PUSH2 0x519A JUMP JUMPDEST SWAP5 POP PUSH1 0x1 DUP3 AND PUSH1 0x0 DUP2 EQ PUSH2 0x4294 JUMPI PUSH1 0x1 DUP2 EQ PUSH2 0x42A5 JUMPI PUSH2 0x42D8 JUMP JUMPDEST PUSH1 0xFF NOT DUP4 AND DUP7 MSTORE DUP2 DUP7 ADD SWAP4 POP PUSH2 0x42D8 JUMP JUMPDEST PUSH2 0x42AE DUP6 PUSH2 0x515A JUMP JUMPDEST PUSH1 0x0 JUMPDEST DUP4 DUP2 LT ISZERO PUSH2 0x42D0 JUMPI DUP2 SLOAD DUP2 DUP10 ADD MSTORE PUSH1 0x1 DUP3 ADD SWAP2 POP PUSH1 0x20 DUP2 ADD SWAP1 POP PUSH2 0x42B1 JUMP JUMPDEST DUP4 DUP9 ADD SWAP6 POP POP POP JUMPDEST POP POP POP SWAP3 SWAP2 POP POP JUMP JUMPDEST PUSH2 0x42EA DUP2 PUSH2 0x52B6 JUMP JUMPDEST DUP3 MSTORE POP POP JUMP JUMPDEST PUSH2 0x42F9 DUP2 PUSH2 0x52C8 JUMP JUMPDEST DUP3 MSTORE POP POP JUMP JUMPDEST PUSH2 0x4308 DUP2 PUSH2 0x52DA JUMP JUMPDEST DUP3 MSTORE POP POP JUMP JUMPDEST PUSH2 0x4317 DUP2 PUSH2 0x52EC JUMP JUMPDEST DUP3 MSTORE POP POP JUMP JUMPDEST PUSH2 0x4326 DUP2 PUSH2 0x52FE JUMP JUMPDEST DUP3 MSTORE POP POP JUMP JUMPDEST PUSH2 0x4335 DUP2 PUSH2 0x5310 JUMP JUMPDEST DUP3 MSTORE POP POP JUMP JUMPDEST PUSH2 0x4344 DUP2 PUSH2 0x5322 JUMP JUMPDEST DUP3 MSTORE POP POP JUMP JUMPDEST PUSH2 0x4353 DUP2 PUSH2 0x5334 JUMP JUMPDEST DUP3 MSTORE POP POP JUMP JUMPDEST PUSH2 0x4362 DUP2 PUSH2 0x5346 JUMP JUMPDEST DUP3 MSTORE POP POP JUMP JUMPDEST PUSH2 0x4371 DUP2 PUSH2 0x5358 JUMP JUMPDEST DUP3 MSTORE POP POP JUMP JUMPDEST PUSH2 0x4380 DUP2 PUSH2 0x536A JUMP JUMPDEST DUP3 MSTORE POP POP JUMP JUMPDEST PUSH1 0x0 PUSH2 0x4391 DUP3 PUSH2 0x518F JUMP JUMPDEST PUSH2 0x439B DUP2 DUP6 PUSH2 0x51A5 JUMP JUMPDEST SWAP4 POP PUSH2 0x43AB DUP2 DUP6 PUSH1 0x20 DUP7 ADD PUSH2 0x538B JUMP JUMPDEST PUSH2 0x43B4 DUP2 PUSH2 0x5569 JUMP JUMPDEST DUP5 ADD SWAP2 POP POP SWAP3 SWAP2 POP POP JUMP JUMPDEST PUSH1 0x0 DUP2 SLOAD PUSH2 0x43CC DUP2 PUSH2 0x53BE JUMP JUMPDEST PUSH2 0x43D6 DUP2 DUP7 PUSH2 0x51B6 JUMP JUMPDEST SWAP5 POP PUSH1 0x1 DUP3 AND PUSH1 0x0 DUP2 EQ PUSH2 0x43F1 JUMPI PUSH1 0x1 DUP2 EQ PUSH2 0x4403 JUMPI PUSH2 0x4436 JUMP JUMPDEST PUSH1 0xFF NOT DUP4 AND DUP7 MSTORE PUSH1 0x20 DUP7 ADD SWAP4 POP PUSH2 0x4436 JUMP JUMPDEST PUSH2 0x440C DUP6 PUSH2 0x516F JUMP JUMPDEST PUSH1 0x0 JUMPDEST DUP4 DUP2 LT ISZERO PUSH2 0x442E JUMPI DUP2 SLOAD DUP2 DUP10 ADD MSTORE PUSH1 0x1 DUP3 ADD SWAP2 POP PUSH1 0x20 DUP2 ADD SWAP1 POP PUSH2 0x440F JUMP JUMPDEST DUP1 DUP9 ADD SWAP6 POP POP POP JUMPDEST POP POP POP SWAP3 SWAP2 POP POP JUMP JUMPDEST PUSH1 0x0 PUSH2 0x444C PUSH1 0x5 DUP4 PUSH2 0x51A5 JUMP JUMPDEST SWAP2 POP PUSH2 0x4457 DUP3 PUSH2 0x557A JUMP JUMPDEST PUSH1 0x20 DUP3 ADD SWAP1 POP SWAP2 SWAP1 POP JUMP JUMPDEST PUSH1 0x0 PUSH2 0x446F PUSH1 0x19 DUP4 PUSH2 0x51B6 JUMP JUMPDEST SWAP2 POP PUSH2 0x447A DUP3 PUSH2 0x55A3 JUMP JUMPDEST PUSH1 0x20 DUP3 ADD SWAP1 POP SWAP2 SWAP1 POP JUMP JUMPDEST PUSH1 0x0 PUSH2 0x4492 PUSH1 0x19 DUP4 PUSH2 0x51A5 JUMP JUMPDEST SWAP2 POP PUSH2 0x449D DUP3 PUSH2 0x55CC JUMP JUMPDEST PUSH1 0x20 DUP3 ADD SWAP1 POP SWAP2 SWAP1 POP JUMP JUMPDEST PUSH1 0x0 PUSH2 0x44B5 PUSH1 0x8 DUP4 PUSH2 0x51B6 JUMP JUMPDEST SWAP2 POP PUSH2 0x44C0 DUP3 PUSH2 0x55F5 JUMP JUMPDEST PUSH1 0x20 DUP3 ADD SWAP1 POP SWAP2 SWAP1 POP JUMP JUMPDEST PUSH1 0x0 PUSH2 0x44D8 PUSH1 0x16 DUP4 PUSH2 0x51B6 JUMP JUMPDEST SWAP2 POP PUSH2 0x44E3 DUP3 PUSH2 0x561E JUMP JUMPDEST PUSH1 0x20 DUP3 ADD SWAP1 POP SWAP2 SWAP1 POP JUMP JUMPDEST PUSH1 0x0 PUSH2 0x44FB PUSH1 0x24 DUP4 PUSH2 0x51A5 JUMP JUMPDEST SWAP2 POP PUSH2 0x4506 DUP3 PUSH2 0x5647 JUMP JUMPDEST PUSH1 0x40 DUP3 ADD SWAP1 POP SWAP2 SWAP1 POP JUMP JUMPDEST PUSH1 0x0 PUSH2 0x451E PUSH1 0x14 DUP4 PUSH2 0x51B6 JUMP JUMPDEST SWAP2 POP PUSH2 0x4529 DUP3 PUSH2 0x5696 JUMP JUMPDEST PUSH1 0x20 DUP3 ADD SWAP1 POP SWAP2 SWAP1 POP JUMP JUMPDEST PUSH1 0x0 PUSH2 0x4541 PUSH1 0x1E DUP4 PUSH2 0x51B6 JUMP JUMPDEST SWAP2 POP PUSH2 0x454C DUP3 PUSH2 0x56BF JUMP JUMPDEST PUSH1 0x20 DUP3 ADD SWAP1 POP SWAP2 SWAP1 POP JUMP JUMPDEST PUSH1 0x0 PUSH2 0x4564 PUSH1 0x22 DUP4 PUSH2 0x51B6 JUMP JUMPDEST SWAP2 POP PUSH2 0x456F DUP3 PUSH2 0x56E8 JUMP JUMPDEST PUSH1 0x40 DUP3 ADD SWAP1 POP SWAP2 SWAP1 POP JUMP JUMPDEST PUSH1 0x0 PUSH2 0x4587 PUSH1 0x14 DUP4 PUSH2 0x51B6 JUMP JUMPDEST SWAP2 POP PUSH2 0x4592 DUP3 PUSH2 0x5737 JUMP JUMPDEST PUSH1 0x20 DUP3 ADD SWAP1 POP SWAP2 SWAP1 POP JUMP JUMPDEST PUSH1 0x0 PUSH2 0x45AA PUSH1 0x14 DUP4 PUSH2 0x51B6 JUMP JUMPDEST SWAP2 POP PUSH2 0x45B5 DUP3 PUSH2 0x5760 JUMP JUMPDEST PUSH1 0x20 DUP3 ADD SWAP1 POP SWAP2 SWAP1 POP JUMP JUMPDEST PUSH1 0x0 PUSH2 0x45CD PUSH1 0x26 DUP4 PUSH2 0x51A5 JUMP JUMPDEST SWAP2 POP PUSH2 0x45D8 DUP3 PUSH2 0x5789 JUMP JUMPDEST PUSH1 0x40 DUP3 ADD SWAP1 POP SWAP2 SWAP1 POP JUMP JUMPDEST PUSH1 0x0 PUSH2 0x45F0 PUSH1 0x9 DUP4 PUSH2 0x51A5 JUMP JUMPDEST SWAP2 POP PUSH2 0x45FB DUP3 PUSH2 0x57D8 JUMP JUMPDEST PUSH1 0x20 DUP3 ADD SWAP1 POP SWAP2 SWAP1 POP JUMP JUMPDEST PUSH1 0x0 PUSH2 0x4613 PUSH1 0x1B DUP4 PUSH2 0x51B6 JUMP JUMPDEST SWAP2 POP PUSH2 0x461E DUP3 PUSH2 0x5801 JUMP JUMPDEST PUSH1 0x20 DUP3 ADD SWAP1 POP SWAP2 SWAP1 POP JUMP JUMPDEST PUSH1 0x0 PUSH2 0x4636 PUSH1 0x1C DUP4 PUSH2 0x51B6 JUMP JUMPDEST SWAP2 POP PUSH2 0x4641 DUP3 PUSH2 0x582A JUMP JUMPDEST PUSH1 0x20 DUP3 ADD SWAP1 POP SWAP2 SWAP1 POP JUMP JUMPDEST PUSH1 0x0 PUSH2 0x4659 PUSH1 0x14 DUP4 PUSH2 0x51B6 JUMP JUMPDEST SWAP2 POP PUSH2 0x4664 DUP3 PUSH2 0x5853 JUMP JUMPDEST PUSH1 0x20 DUP3 ADD SWAP1 POP SWAP2 SWAP1 POP JUMP JUMPDEST PUSH1 0x0 PUSH2 0x467C PUSH1 0x22 DUP4 PUSH2 0x51B6 JUMP JUMPDEST SWAP2 POP PUSH2 0x4687 DUP3 PUSH2 0x587C JUMP JUMPDEST PUSH1 0x40 DUP3 ADD SWAP1 POP SWAP2 SWAP1 POP JUMP JUMPDEST PUSH1 0x0 PUSH2 0x469F PUSH1 0x1C DUP4 PUSH2 0x51B6 JUMP JUMPDEST SWAP2 POP PUSH2 0x46AA DUP3 PUSH2 0x58CB JUMP JUMPDEST PUSH1 0x20 DUP3 ADD SWAP1 POP SWAP2 SWAP1 POP JUMP JUMPDEST PUSH1 0x0 PUSH2 0x46C2 PUSH1 0x23 DUP4 PUSH2 0x51A5 JUMP JUMPDEST SWAP2 POP PUSH2 0x46CD DUP3 PUSH2 0x58F4 JUMP JUMPDEST PUSH1 0x40 DUP3 ADD SWAP1 POP SWAP2 SWAP1 POP JUMP JUMPDEST PUSH1 0x0 PUSH2 0x46E5 PUSH1 0x26 DUP4 PUSH2 0x51B6 JUMP JUMPDEST SWAP2 POP PUSH2 0x46F0 DUP3 PUSH2 0x5943 JUMP JUMPDEST PUSH1 0x40 DUP3 ADD SWAP1 POP SWAP2 SWAP1 POP JUMP JUMPDEST PUSH1 0x0 PUSH2 0x4708 PUSH1 0x15 DUP4 PUSH2 0x51B6 JUMP JUMPDEST SWAP2 POP PUSH2 0x4713 DUP3 PUSH2 0x5992 JUMP JUMPDEST PUSH1 0x20 DUP3 ADD SWAP1 POP SWAP2 SWAP1 POP JUMP JUMPDEST PUSH1 0x0 PUSH2 0x472B PUSH1 0x1B DUP4 PUSH2 0x51B6 JUMP JUMPDEST SWAP2 POP PUSH2 0x4736 DUP3 PUSH2 0x59BB JUMP JUMPDEST PUSH1 0x20 DUP3 ADD SWAP1 POP SWAP2 SWAP1 POP JUMP JUMPDEST PUSH1 0x0 PUSH2 0x474E PUSH1 0x18 DUP4 PUSH2 0x51B6 JUMP JUMPDEST SWAP2 POP PUSH2 0x4759 DUP3 PUSH2 0x59E4 JUMP JUMPDEST PUSH1 0x20 DUP3 ADD SWAP1 POP SWAP2 SWAP1 POP JUMP JUMPDEST PUSH1 0x0 PUSH2 0x4771 PUSH1 0x4 DUP4 PUSH2 0x51A5 JUMP JUMPDEST SWAP2 POP PUSH2 0x477C DUP3 PUSH2 0x5A0D JUMP JUMPDEST PUSH1 0x20 DUP3 ADD SWAP1 POP SWAP2 SWAP1 POP JUMP JUMPDEST PUSH1 0x0 PUSH2 0x4794 PUSH1 0x0 DUP4 PUSH2 0x51B6 JUMP JUMPDEST SWAP2 POP PUSH2 0x479F DUP3 PUSH2 0x5A36 JUMP JUMPDEST PUSH1 0x0 DUP3 ADD SWAP1 POP SWAP2 SWAP1 POP JUMP JUMPDEST PUSH1 0x0 PUSH2 0x47B7 PUSH1 0x5 DUP4 PUSH2 0x51A5 JUMP JUMPDEST SWAP2 POP PUSH2 0x47C2 DUP3 PUSH2 0x5A39 JUMP JUMPDEST PUSH1 0x20 DUP3 ADD SWAP1 POP SWAP2 SWAP1 POP JUMP JUMPDEST PUSH1 0x0 PUSH2 0x47DA PUSH1 0x24 DUP4 PUSH2 0x51B6 JUMP JUMPDEST SWAP2 POP PUSH2 0x47E5 DUP3 PUSH2 0x5A62 JUMP JUMPDEST PUSH1 0x40 DUP3 ADD SWAP1 POP SWAP2 SWAP1 POP JUMP JUMPDEST PUSH1 0x0 PUSH2 0x47FD PUSH1 0x1D DUP4 PUSH2 0x51A5 JUMP JUMPDEST SWAP2 POP PUSH2 0x4808 DUP3 PUSH2 0x5AB1 JUMP JUMPDEST PUSH1 0x20 DUP3 ADD SWAP1 POP SWAP2 SWAP1 POP JUMP JUMPDEST PUSH1 0x0 PUSH2 0x4820 PUSH1 0x1B DUP4 PUSH2 0x51B6 JUMP JUMPDEST SWAP2 POP PUSH2 0x482B DUP3 PUSH2 0x5ADA JUMP JUMPDEST PUSH1 0x20 DUP3 ADD SWAP1 POP SWAP2 SWAP1 POP JUMP JUMPDEST PUSH1 0x0 PUSH2 0x4843 PUSH1 0x16 DUP4 PUSH2 0x51B6 JUMP JUMPDEST SWAP2 POP PUSH2 0x484E DUP3 PUSH2 0x5B03 JUMP JUMPDEST PUSH1 0x20 DUP3 ADD SWAP1 POP SWAP2 SWAP1 POP JUMP JUMPDEST PUSH1 0x0 PUSH2 0x4866 PUSH1 0x8 DUP4 PUSH2 0x51A5 JUMP JUMPDEST SWAP2 POP PUSH2 0x4871 DUP3 PUSH2 0x5B2C JUMP JUMPDEST PUSH1 0x20 DUP3 ADD SWAP1 POP SWAP2 SWAP1 POP JUMP JUMPDEST PUSH1 0x0 PUSH2 0x4889 PUSH1 0x14 DUP4 PUSH2 0x51B6 JUMP JUMPDEST SWAP2 POP PUSH2 0x4894 DUP3 PUSH2 0x5B55 JUMP JUMPDEST PUSH1 0x20 DUP3 ADD SWAP1 POP SWAP2 SWAP1 POP JUMP JUMPDEST PUSH2 0x48A8 DUP2 PUSH2 0x529F JUMP JUMPDEST DUP3 MSTORE POP POP JUMP JUMPDEST PUSH2 0x48B7 DUP2 PUSH2 0x529F JUMP JUMPDEST DUP3 MSTORE POP POP JUMP JUMPDEST PUSH1 0x0 PUSH2 0x48C9 DUP3 DUP5 PUSH2 0x4231 JUMP JUMPDEST SWAP2 POP DUP2 SWAP1 POP SWAP3 SWAP2 POP POP JUMP JUMPDEST PUSH1 0x0 PUSH2 0x48E0 DUP3 DUP5 PUSH2 0x4262 JUMP JUMPDEST SWAP2 POP DUP2 SWAP1 POP SWAP3 SWAP2 POP POP JUMP JUMPDEST PUSH1 0x0 PUSH1 0x20 DUP3 ADD SWAP1 POP PUSH2 0x4900 PUSH1 0x0 DUP4 ADD DUP5 PUSH2 0x41F5 JUMP JUMPDEST SWAP3 SWAP2 POP POP JUMP JUMPDEST PUSH1 0x0 PUSH1 0x60 DUP3 ADD SWAP1 POP PUSH2 0x491B PUSH1 0x0 DUP4 ADD DUP6 PUSH2 0x4204 JUMP JUMPDEST PUSH2 0x4928 PUSH1 0x20 DUP4 ADD DUP5 PUSH2 0x4204 JUMP JUMPDEST DUP2 DUP2 SUB PUSH1 0x40 DUP4 ADD MSTORE PUSH2 0x4939 DUP2 PUSH2 0x4836 JUMP JUMPDEST SWAP1 POP SWAP4 SWAP3 POP POP POP JUMP JUMPDEST PUSH1 0x0 PUSH1 0x40 DUP3 ADD SWAP1 POP PUSH2 0x4957 PUSH1 0x0 DUP4 ADD DUP5 PUSH2 0x41F5 JUMP JUMPDEST DUP2 DUP2 SUB PUSH1 0x20 DUP4 ADD MSTORE PUSH2 0x4968 DUP2 PUSH2 0x443F JUMP JUMPDEST SWAP1 POP SWAP3 SWAP2 POP POP JUMP JUMPDEST PUSH1 0x0 PUSH1 0x40 DUP3 ADD SWAP1 POP PUSH2 0x4985 PUSH1 0x0 DUP4 ADD DUP5 PUSH2 0x41F5 JUMP JUMPDEST DUP2 DUP2 SUB PUSH1 0x20 DUP4 ADD MSTORE PUSH2 0x4996 DUP2 PUSH2 0x4764 JUMP JUMPDEST SWAP1 POP SWAP3 SWAP2 POP POP JUMP JUMPDEST PUSH1 0x0 PUSH1 0x40 DUP3 ADD SWAP1 POP PUSH2 0x49B3 PUSH1 0x0 DUP4 ADD DUP5 PUSH2 0x41F5 JUMP JUMPDEST DUP2 DUP2 SUB PUSH1 0x20 DUP4 ADD MSTORE PUSH2 0x49C4 DUP2 PUSH2 0x47AA JUMP JUMPDEST SWAP1 POP SWAP3 SWAP2 POP POP JUMP JUMPDEST PUSH1 0x0 PUSH1 0x40 DUP3 ADD SWAP1 POP PUSH2 0x49E1 PUSH1 0x0 DUP4 ADD DUP6 PUSH2 0x41F5 JUMP JUMPDEST PUSH2 0x49EE PUSH1 0x20 DUP4 ADD DUP5 PUSH2 0x489F JUMP JUMPDEST SWAP4 SWAP3 POP POP POP JUMP JUMPDEST PUSH1 0x0 PUSH1 0x20 DUP3 ADD SWAP1 POP PUSH2 0x4A0A PUSH1 0x0 DUP4 ADD DUP5 PUSH2 0x4213 JUMP JUMPDEST SWAP3 SWAP2 POP POP JUMP JUMPDEST PUSH1 0x0 PUSH1 0x60 DUP3 ADD SWAP1 POP PUSH2 0x4A25 PUSH1 0x0 DUP4 ADD DUP6 PUSH2 0x4222 JUMP JUMPDEST PUSH2 0x4A32 PUSH1 0x20 DUP4 ADD DUP5 PUSH2 0x4222 JUMP JUMPDEST DUP2 DUP2 SUB PUSH1 0x40 DUP4 ADD MSTORE PUSH2 0x4A43 DUP2 PUSH2 0x466F JUMP JUMPDEST SWAP1 POP SWAP4 SWAP3 POP POP POP JUMP JUMPDEST PUSH1 0x0 PUSH1 0x40 DUP3 ADD SWAP1 POP PUSH2 0x4A61 PUSH1 0x0 DUP4 ADD DUP5 PUSH2 0x4222 JUMP JUMPDEST DUP2 DUP2 SUB PUSH1 0x20 DUP4 ADD MSTORE PUSH2 0x4A72 DUP2 PUSH2 0x4629 JUMP JUMPDEST SWAP1 POP SWAP3 SWAP2 POP POP JUMP JUMPDEST PUSH1 0x0 PUSH1 0x20 DUP3 ADD SWAP1 POP PUSH2 0x4A8F PUSH1 0x0 DUP4 ADD DUP5 PUSH2 0x42E1 JUMP JUMPDEST SWAP3 SWAP2 POP POP JUMP JUMPDEST PUSH1 0x0 PUSH1 0x20 DUP3 ADD SWAP1 POP PUSH2 0x4AAA PUSH1 0x0 DUP4 ADD DUP5 PUSH2 0x42F0 JUMP JUMPDEST SWAP3 SWAP2 POP POP JUMP JUMPDEST PUSH1 0x0 PUSH1 0x20 DUP3 ADD SWAP1 POP PUSH2 0x4AC5 PUSH1 0x0 DUP4 ADD DUP5 PUSH2 0x42FF JUMP JUMPDEST SWAP3 SWAP2 POP POP JUMP JUMPDEST PUSH1 0x0 PUSH1 0x20 DUP3 ADD SWAP1 POP PUSH2 0x4AE0 PUSH1 0x0 DUP4 ADD DUP5 PUSH2 0x430E JUMP JUMPDEST SWAP3 SWAP2 POP POP JUMP JUMPDEST PUSH1 0x0 PUSH1 0x20 DUP3 ADD SWAP1 POP PUSH2 0x4AFB PUSH1 0x0 DUP4 ADD DUP5 PUSH2 0x431D JUMP JUMPDEST SWAP3 SWAP2 POP POP JUMP JUMPDEST PUSH1 0x0 PUSH1 0x20 DUP3 ADD SWAP1 POP PUSH2 0x4B16 PUSH1 0x0 DUP4 ADD DUP5 PUSH2 0x432C JUMP JUMPDEST SWAP3 SWAP2 POP POP JUMP JUMPDEST PUSH1 0x0 PUSH1 0x20 DUP3 ADD SWAP1 POP PUSH2 0x4B31 PUSH1 0x0 DUP4 ADD DUP5 PUSH2 0x433B JUMP JUMPDEST SWAP3 SWAP2 POP POP JUMP JUMPDEST PUSH1 0x0 PUSH1 0x20 DUP3 ADD SWAP1 POP PUSH2 0x4B4C PUSH1 0x0 DUP4 ADD DUP5 PUSH2 0x434A JUMP JUMPDEST SWAP3 SWAP2 POP POP JUMP JUMPDEST PUSH1 0x0 PUSH1 0x20 DUP3 ADD SWAP1 POP PUSH2 0x4B67 PUSH1 0x0 DUP4 ADD DUP5 PUSH2 0x4359 JUMP JUMPDEST SWAP3 SWAP2 POP POP JUMP JUMPDEST PUSH1 0x0 PUSH1 0x20 DUP3 ADD SWAP1 POP PUSH2 0x4B82 PUSH1 0x0 DUP4 ADD DUP5 PUSH2 0x4368 JUMP JUMPDEST SWAP3 SWAP2 POP POP JUMP JUMPDEST PUSH1 0x0 PUSH1 0x20 DUP3 ADD SWAP1 POP PUSH2 0x4B9D PUSH1 0x0 DUP4 ADD DUP5 PUSH2 0x4377 JUMP JUMPDEST SWAP3 SWAP2 POP POP JUMP JUMPDEST PUSH1 0x0 PUSH1 0x20 DUP3 ADD SWAP1 POP DUP2 DUP2 SUB PUSH1 0x0 DUP4 ADD MSTORE PUSH2 0x4BBD DUP2 DUP5 PUSH2 0x4386 JUMP JUMPDEST SWAP1 POP SWAP3 SWAP2 POP POP JUMP JUMPDEST PUSH1 0x0 PUSH1 0x40 DUP3 ADD SWAP1 POP DUP2 DUP2 SUB PUSH1 0x0 DUP4 ADD MSTORE PUSH2 0x4BDF DUP2 DUP6 PUSH2 0x4386 JUMP JUMPDEST SWAP1 POP PUSH2 0x4BEE PUSH1 0x20 DUP4 ADD DUP5 PUSH2 0x4213 JUMP JUMPDEST SWAP4 SWAP3 POP POP POP JUMP JUMPDEST PUSH1 0x0 PUSH1 0x60 DUP3 ADD SWAP1 POP DUP2 DUP2 SUB PUSH1 0x0 DUP4 ADD MSTORE PUSH2 0x4C0F DUP2 DUP5 PUSH2 0x43BF JUMP JUMPDEST SWAP1 POP DUP2 DUP2 SUB PUSH1 0x20 DUP4 ADD MSTORE PUSH2 0x4C22 DUP2 PUSH2 0x44A8 JUMP JUMPDEST SWAP1 POP DUP2 DUP2 SUB PUSH1 0x40 DUP4 ADD MSTORE PUSH2 0x4C35 DUP2 PUSH2 0x46D8 JUMP JUMPDEST SWAP1 POP SWAP3 SWAP2 POP POP JUMP JUMPDEST PUSH1 0x0 PUSH1 0x60 DUP3 ADD SWAP1 POP DUP2 DUP2 SUB PUSH1 0x0 DUP4 ADD MSTORE PUSH2 0x4C57 DUP2 DUP5 PUSH2 0x43BF JUMP JUMPDEST SWAP1 POP DUP2 DUP2 SUB PUSH1 0x20 DUP4 ADD MSTORE PUSH2 0x4C6A DUP2 PUSH2 0x4787 JUMP JUMPDEST SWAP1 POP DUP2 DUP2 SUB PUSH1 0x40 DUP4 ADD MSTORE PUSH2 0x4C7D DUP2 PUSH2 0x47CD JUMP JUMPDEST SWAP1 POP SWAP3 SWAP2 POP POP JUMP JUMPDEST PUSH1 0x0 PUSH1 0x20 DUP3 ADD SWAP1 POP DUP2 DUP2 SUB PUSH1 0x0 DUP4 ADD MSTORE PUSH2 0x4C9E DUP2 PUSH2 0x4485 JUMP JUMPDEST SWAP1 POP SWAP2 SWAP1 POP JUMP JUMPDEST PUSH1 0x0 PUSH1 0x20 DUP3 ADD SWAP1 POP DUP2 DUP2 SUB PUSH1 0x0 DUP4 ADD MSTORE PUSH2 0x4CBE DUP2 PUSH2 0x44EE JUMP JUMPDEST SWAP1 POP SWAP2 SWAP1 POP JUMP JUMPDEST PUSH1 0x0 PUSH1 0x20 DUP3 ADD SWAP1 POP DUP2 DUP2 SUB PUSH1 0x0 DUP4 ADD MSTORE PUSH2 0x4CDE DUP2 PUSH2 0x45C0 JUMP JUMPDEST SWAP1 POP SWAP2 SWAP1 POP JUMP JUMPDEST PUSH1 0x0 PUSH1 0x20 DUP3 ADD SWAP1 POP DUP2 DUP2 SUB PUSH1 0x0 DUP4 ADD MSTORE PUSH2 0x4CFE DUP2 PUSH2 0x45E3 JUMP JUMPDEST SWAP1 POP SWAP2 SWAP1 POP JUMP JUMPDEST PUSH1 0x0 PUSH1 0x20 DUP3 ADD SWAP1 POP DUP2 DUP2 SUB PUSH1 0x0 DUP4 ADD MSTORE PUSH2 0x4D1E DUP2 PUSH2 0x46B5 JUMP JUMPDEST SWAP1 POP SWAP2 SWAP1 POP JUMP JUMPDEST PUSH1 0x0 PUSH1 0x20 DUP3 ADD SWAP1 POP DUP2 DUP2 SUB PUSH1 0x0 DUP4 ADD MSTORE PUSH2 0x4D3E DUP2 PUSH2 0x47F0 JUMP JUMPDEST SWAP1 POP SWAP2 SWAP1 POP JUMP JUMPDEST PUSH1 0x0 PUSH1 0x20 DUP3 ADD SWAP1 POP DUP2 DUP2 SUB PUSH1 0x0 DUP4 ADD MSTORE PUSH2 0x4D5E DUP2 PUSH2 0x4859 JUMP JUMPDEST SWAP1 POP SWAP2 SWAP1 POP JUMP JUMPDEST PUSH1 0x0 PUSH1 0x20 DUP3 ADD SWAP1 POP PUSH2 0x4D7A PUSH1 0x0 DUP4 ADD DUP5 PUSH2 0x489F JUMP JUMPDEST SWAP3 SWAP2 POP POP JUMP JUMPDEST PUSH1 0x0 PUSH1 0x60 DUP3 ADD SWAP1 POP PUSH2 0x4D95 PUSH1 0x0 DUP4 ADD DUP6 PUSH2 0x48AE JUMP JUMPDEST PUSH2 0x4DA2 PUSH1 0x20 DUP4 ADD DUP5 PUSH2 0x42F0 JUMP JUMPDEST DUP2 DUP2 SUB PUSH1 0x40 DUP4 ADD MSTORE PUSH2 0x4DB3 DUP2 PUSH2 0x4534 JUMP JUMPDEST SWAP1 POP SWAP4 SWAP3 POP POP POP JUMP JUMPDEST PUSH1 0x0 PUSH1 0x60 DUP3 ADD SWAP1 POP PUSH2 0x4DD1 PUSH1 0x0 DUP4 ADD DUP6 PUSH2 0x48AE JUMP JUMPDEST PUSH2 0x4DDE PUSH1 0x20 DUP4 ADD DUP5 PUSH2 0x42F0 JUMP JUMPDEST DUP2 DUP2 SUB PUSH1 0x40 DUP4 ADD MSTORE PUSH2 0x4DEF DUP2 PUSH2 0x4557 JUMP JUMPDEST SWAP1 POP SWAP4 SWAP3 POP POP POP JUMP JUMPDEST PUSH1 0x0 PUSH1 0x60 DUP3 ADD SWAP1 POP PUSH2 0x4E0D PUSH1 0x0 DUP4 ADD DUP6 PUSH2 0x48AE JUMP JUMPDEST PUSH2 0x4E1A PUSH1 0x20 DUP4 ADD DUP5 PUSH2 0x42F0 JUMP JUMPDEST DUP2 DUP2 SUB PUSH1 0x40 DUP4 ADD MSTORE PUSH2 0x4E2B DUP2 PUSH2 0x4692 JUMP JUMPDEST SWAP1 POP SWAP4 SWAP3 POP POP POP JUMP JUMPDEST PUSH1 0x0 PUSH1 0x60 DUP3 ADD SWAP1 POP PUSH2 0x4E49 PUSH1 0x0 DUP4 ADD DUP6 PUSH2 0x48AE JUMP JUMPDEST PUSH2 0x4E56 PUSH1 0x20 DUP4 ADD DUP5 PUSH2 0x430E JUMP JUMPDEST DUP2 DUP2 SUB PUSH1 0x40 DUP4 ADD MSTORE PUSH2 0x4E67 DUP2 PUSH2 0x464C JUMP JUMPDEST SWAP1 POP SWAP4 SWAP3 POP POP POP JUMP JUMPDEST PUSH1 0x0 PUSH1 0x60 DUP3 ADD SWAP1 POP PUSH2 0x4E85 PUSH1 0x0 DUP4 ADD DUP6 PUSH2 0x48AE JUMP JUMPDEST PUSH2 0x4E92 PUSH1 0x20 DUP4 ADD DUP5 PUSH2 0x430E JUMP JUMPDEST DUP2 DUP2 SUB PUSH1 0x40 DUP4 ADD MSTORE PUSH2 0x4EA3 DUP2 PUSH2 0x471E JUMP JUMPDEST SWAP1 POP SWAP4 SWAP3 POP POP POP JUMP JUMPDEST PUSH1 0x0 PUSH1 0x60 DUP3 ADD SWAP1 POP PUSH2 0x4EC1 PUSH1 0x0 DUP4 ADD DUP6 PUSH2 0x48AE JUMP JUMPDEST PUSH2 0x4ECE PUSH1 0x20 DUP4 ADD DUP5 PUSH2 0x432C JUMP JUMPDEST DUP2 DUP2 SUB PUSH1 0x40 DUP4 ADD MSTORE PUSH2 0x4EDF DUP2 PUSH2 0x4511 JUMP JUMPDEST SWAP1 POP SWAP4 SWAP3 POP POP POP JUMP JUMPDEST PUSH1 0x0 PUSH1 0x60 DUP3 ADD SWAP1 POP PUSH2 0x4EFD PUSH1 0x0 DUP4 ADD DUP6 PUSH2 0x48AE JUMP JUMPDEST PUSH2 0x4F0A PUSH1 0x20 DUP4 ADD DUP5 PUSH2 0x432C JUMP JUMPDEST DUP2 DUP2 SUB PUSH1 0x40 DUP4 ADD MSTORE PUSH2 0x4F1B DUP2 PUSH2 0x4813 JUMP JUMPDEST SWAP1 POP SWAP4 SWAP3 POP POP POP JUMP JUMPDEST PUSH1 0x0 PUSH1 0x60 DUP3 ADD SWAP1 POP PUSH2 0x4F39 PUSH1 0x0 DUP4 ADD DUP6 PUSH2 0x48AE JUMP JUMPDEST PUSH2 0x4F46 PUSH1 0x20 DUP4 ADD DUP5 PUSH2 0x434A JUMP JUMPDEST DUP2 DUP2 SUB PUSH1 0x40 DUP4 ADD MSTORE PUSH2 0x4F57 DUP2 PUSH2 0x459D JUMP JUMPDEST SWAP1 POP SWAP4 SWAP3 POP POP POP JUMP JUMPDEST PUSH1 0x0 PUSH1 0x60 DUP3 ADD SWAP1 POP PUSH2 0x4F75 PUSH1 0x0 DUP4 ADD DUP6 PUSH2 0x48AE JUMP JUMPDEST PUSH2 0x4F82 PUSH1 0x20 DUP4 ADD DUP5 PUSH2 0x434A JUMP JUMPDEST DUP2 DUP2 SUB PUSH1 0x40 DUP4 ADD MSTORE PUSH2 0x4F93 DUP2 PUSH2 0x4606 JUMP JUMPDEST SWAP1 POP SWAP4 SWAP3 POP POP POP JUMP JUMPDEST PUSH1 0x0 PUSH1 0x60 DUP3 ADD SWAP1 POP PUSH2 0x4FB1 PUSH1 0x0 DUP4 ADD DUP6 PUSH2 0x48AE JUMP JUMPDEST PUSH2 0x4FBE PUSH1 0x20 DUP4 ADD DUP5 PUSH2 0x4359 JUMP JUMPDEST DUP2 DUP2 SUB PUSH1 0x40 DUP4 ADD MSTORE PUSH2 0x4FCF DUP2 PUSH2 0x457A JUMP JUMPDEST SWAP1 POP SWAP4 SWAP3 POP POP POP JUMP JUMPDEST PUSH1 0x0 PUSH1 0x60 DUP3 ADD SWAP1 POP PUSH2 0x4FED PUSH1 0x0 DUP4 ADD DUP6 PUSH2 0x48AE JUMP JUMPDEST PUSH2 0x4FFA PUSH1 0x20 DUP4 ADD DUP5 PUSH2 0x4377 JUMP JUMPDEST DUP2 DUP2 SUB PUSH1 0x40 DUP4 ADD MSTORE PUSH2 0x500B DUP2 PUSH2 0x487C JUMP JUMPDEST SWAP1 POP SWAP4 SWAP3 POP POP POP JUMP JUMPDEST PUSH1 0x0 PUSH1 0x60 DUP3 ADD SWAP1 POP PUSH2 0x5029 PUSH1 0x0 DUP4 ADD DUP6 PUSH2 0x48AE JUMP JUMPDEST PUSH2 0x5036 PUSH1 0x20 DUP4 ADD DUP5 PUSH2 0x48AE JUMP JUMPDEST DUP2 DUP2 SUB PUSH1 0x40 DUP4 ADD MSTORE PUSH2 0x5047 DUP2 PUSH2 0x4462 JUMP JUMPDEST SWAP1 POP SWAP4 SWAP3 POP POP POP JUMP JUMPDEST PUSH1 0x0 PUSH1 0x60 DUP3 ADD SWAP1 POP PUSH2 0x5065 PUSH1 0x0 DUP4 ADD DUP6 PUSH2 0x48AE JUMP JUMPDEST PUSH2 0x5072 PUSH1 0x20 DUP4 ADD DUP5 PUSH2 0x48AE JUMP JUMPDEST DUP2 DUP2 SUB PUSH1 0x40 DUP4 ADD MSTORE PUSH2 0x5083 DUP2 PUSH2 0x44CB JUMP JUMPDEST SWAP1 POP SWAP4 SWAP3 POP POP POP JUMP JUMPDEST PUSH1 0x0 PUSH1 0x60 DUP3 ADD SWAP1 POP PUSH2 0x50A1 PUSH1 0x0 DUP4 ADD DUP6 PUSH2 0x48AE JUMP JUMPDEST PUSH2 0x50AE PUSH1 0x20 DUP4 ADD DUP5 PUSH2 0x48AE JUMP JUMPDEST DUP2 DUP2 SUB PUSH1 0x40 DUP4 ADD MSTORE PUSH2 0x50BF DUP2 PUSH2 0x46FB JUMP JUMPDEST SWAP1 POP SWAP4 SWAP3 POP POP POP JUMP JUMPDEST PUSH1 0x0 PUSH1 0x60 DUP3 ADD SWAP1 POP PUSH2 0x50DD PUSH1 0x0 DUP4 ADD DUP6 PUSH2 0x48AE JUMP JUMPDEST PUSH2 0x50EA PUSH1 0x20 DUP4 ADD DUP5 PUSH2 0x48AE JUMP JUMPDEST DUP2 DUP2 SUB PUSH1 0x40 DUP4 ADD MSTORE PUSH2 0x50FB DUP2 PUSH2 0x4741 JUMP JUMPDEST SWAP1 POP SWAP4 SWAP3 POP POP POP JUMP JUMPDEST PUSH1 0x0 PUSH2 0x510E PUSH2 0x511F JUMP JUMPDEST SWAP1 POP PUSH2 0x511A DUP3 DUP3 PUSH2 0x53F0 JUMP JUMPDEST SWAP2 SWAP1 POP JUMP JUMPDEST PUSH1 0x0 PUSH1 0x40 MLOAD SWAP1 POP SWAP1 JUMP JUMPDEST PUSH1 0x0 PUSH8 0xFFFFFFFFFFFFFFFF DUP3 GT ISZERO PUSH2 0x5144 JUMPI PUSH2 0x5143 PUSH2 0x5526 JUMP JUMPDEST JUMPDEST PUSH2 0x514D DUP3 PUSH2 0x5569 JUMP JUMPDEST SWAP1 POP PUSH1 0x20 DUP2 ADD SWAP1 POP SWAP2 SWAP1 POP JUMP JUMPDEST PUSH1 0x0 DUP2 SWAP1 POP DUP2 PUSH1 0x0 MSTORE PUSH1 0x20 PUSH1 0x0 KECCAK256 SWAP1 POP SWAP2 SWAP1 POP JUMP JUMPDEST PUSH1 0x0 DUP2 SWAP1 POP DUP2 PUSH1 0x0 MSTORE PUSH1 0x20 PUSH1 0x0 KECCAK256 SWAP1 POP SWAP2 SWAP1 POP JUMP JUMPDEST PUSH1 0x0 DUP2 MLOAD SWAP1 POP SWAP2 SWAP1 POP JUMP JUMPDEST PUSH1 0x0 DUP2 MLOAD SWAP1 POP SWAP2 SWAP1 POP JUMP JUMPDEST PUSH1 0x0 DUP2 SWAP1 POP SWAP3 SWAP2 POP POP JUMP JUMPDEST PUSH1 0x0 DUP3 DUP3 MSTORE PUSH1 0x20 DUP3 ADD SWAP1 POP SWAP3 SWAP2 POP POP JUMP JUMPDEST PUSH1 0x0 DUP3 DUP3 MSTORE PUSH1 0x20 DUP3 ADD SWAP1 POP SWAP3 SWAP2 POP POP JUMP JUMPDEST PUSH1 0x0 PUSH2 0x51D2 DUP3 PUSH2 0x529F JUMP JUMPDEST SWAP2 POP PUSH2 0x51DD DUP4 PUSH2 0x529F JUMP JUMPDEST SWAP3 POP DUP3 PUSH32 0xFFFFFFFFFFFFFFFFFFFFFFFFFFFFFFFFFFFFFFFFFFFFFFFFFFFFFFFFFFFFFFFF SUB DUP3 GT ISZERO PUSH2 0x5212 JUMPI PUSH2 0x5211 PUSH2 0x546A JUMP JUMPDEST JUMPDEST DUP3 DUP3 ADD SWAP1 POP SWAP3 SWAP2 POP POP JUMP JUMPDEST PUSH1 0x0 PUSH2 0x5228 DUP3 PUSH2 0x529F JUMP JUMPDEST SWAP2 POP PUSH2 0x5233 DUP4 PUSH2 0x529F JUMP JUMPDEST SWAP3 POP DUP3 PUSH2 0x5243 JUMPI PUSH2 0x5242 PUSH2 0x5499 JUMP JUMPDEST JUMPDEST DUP3 DUP3 DIV SWAP1 POP SWAP3 SWAP2 POP POP JUMP JUMPDEST PUSH1 0x0 PUSH2 0x5259 DUP3 PUSH2 0x527F JUMP JUMPDEST SWAP1 POP SWAP2 SWAP1 POP JUMP JUMPDEST PUSH1 0x0 DUP2 ISZERO ISZERO SWAP1 POP SWAP2 SWAP1 POP JUMP JUMPDEST PUSH1 0x0 DUP2 SWAP1 POP PUSH2 0x527A DUP3 PUSH2 0x5B7E JUMP JUMPDEST SWAP2 SWAP1 POP JUMP JUMPDEST PUSH1 0x0 PUSH20 0xFFFFFFFFFFFFFFFFFFFFFFFFFFFFFFFFFFFFFFFF DUP3 AND SWAP1 POP SWAP2 SWAP1 POP JUMP JUMPDEST PUSH1 0x0 DUP2 SWAP1 POP SWAP2 SWAP1 POP JUMP JUMPDEST PUSH1 0x0 PUSH1 0xFF DUP3 AND SWAP1 POP SWAP2 SWAP1 POP JUMP JUMPDEST PUSH1 0x0 PUSH2 0x52C1 DUP3 PUSH2 0x526C JUMP JUMPDEST SWAP1 POP SWAP2 SWAP1 POP JUMP JUMPDEST PUSH1 0x0 PUSH2 0x52D3 DUP3 PUSH2 0x529F JUMP JUMPDEST SWAP1 POP SWAP2 SWAP1 POP JUMP JUMPDEST PUSH1 0x0 PUSH2 0x52E5 DUP3 PUSH2 0x52A9 JUMP JUMPDEST SWAP1 POP SWAP2 SWAP1 POP JUMP JUMPDEST PUSH1 0x0 PUSH2 0x52F7 DUP3 PUSH2 0x529F JUMP JUMPDEST SWAP1 POP SWAP2 SWAP1 POP JUMP JUMPDEST PUSH1 0x0 PUSH2 0x5309 DUP3 PUSH2 0x52A9 JUMP JUMPDEST SWAP1 POP SWAP2 SWAP1 POP JUMP JUMPDEST PUSH1 0x0 PUSH2 0x531B DUP3 PUSH2 0x529F JUMP JUMPDEST SWAP1 POP SWAP2 SWAP1 POP JUMP JUMPDEST PUSH1 0x0 PUSH2 0x532D DUP3 PUSH2 0x52A9 JUMP JUMPDEST SWAP1 POP SWAP2 SWAP1 POP JUMP JUMPDEST PUSH1 0x0 PUSH2 0x533F DUP3 PUSH2 0x529F JUMP JUMPDEST SWAP1 POP SWAP2 SWAP1 POP JUMP JUMPDEST PUSH1 0x0 PUSH2 0x5351 DUP3 PUSH2 0x529F JUMP JUMPDEST SWAP1 POP SWAP2 SWAP1 POP JUMP JUMPDEST PUSH1 0x0 PUSH2 0x5363 DUP3 PUSH2 0x52A9 JUMP JUMPDEST SWAP1 POP SWAP2 SWAP1 POP JUMP JUMPDEST PUSH1 0x0 PUSH2 0x5375 DUP3 PUSH2 0x529F JUMP JUMPDEST SWAP1 POP SWAP2 SWAP1 POP JUMP JUMPDEST DUP3 DUP2 DUP4 CALLDATACOPY PUSH1 0x0 DUP4 DUP4 ADD MSTORE POP POP POP JUMP JUMPDEST PUSH1 0x0 JUMPDEST DUP4 DUP2 LT ISZERO PUSH2 0x53A9 JUMPI DUP1 DUP3 ADD MLOAD DUP2 DUP5 ADD MSTORE PUSH1 0x20 DUP2 ADD SWAP1 POP PUSH2 0x538E JUMP JUMPDEST DUP4 DUP2 GT ISZERO PUSH2 0x53B8 JUMPI PUSH1 0x0 DUP5 DUP5 ADD MSTORE JUMPDEST POP POP POP POP JUMP JUMPDEST PUSH1 0x0 PUSH1 0x2 DUP3 DIV SWAP1 POP PUSH1 0x1 DUP3 AND DUP1 PUSH2 0x53D6 JUMPI PUSH1 0x7F DUP3 AND SWAP2 POP JUMPDEST PUSH1 0x20 DUP3 LT DUP2 EQ ISZERO PUSH2 0x53EA JUMPI PUSH2 0x53E9 PUSH2 0x54F7 JUMP JUMPDEST JUMPDEST POP SWAP2 SWAP1 POP JUMP JUMPDEST PUSH2 0x53F9 DUP3 PUSH2 0x5569 JUMP JUMPDEST DUP2 ADD DUP2 DUP2 LT PUSH8 0xFFFFFFFFFFFFFFFF DUP3 GT OR ISZERO PUSH2 0x5418 JUMPI PUSH2 0x5417 PUSH2 0x5526 JUMP JUMPDEST JUMPDEST DUP1 PUSH1 0x40 MSTORE POP POP POP JUMP JUMPDEST PUSH1 0x0 PUSH2 0x542C DUP3 PUSH2 0x529F JUMP JUMPDEST SWAP2 POP PUSH32 0xFFFFFFFFFFFFFFFFFFFFFFFFFFFFFFFFFFFFFFFFFFFFFFFFFFFFFFFFFFFFFFFF DUP3 EQ ISZERO PUSH2 0x545F JUMPI PUSH2 0x545E PUSH2 0x546A JUMP JUMPDEST JUMPDEST PUSH1 0x1 DUP3 ADD SWAP1 POP SWAP2 SWAP1 POP JUMP JUMPDEST PUSH32 0x4E487B7100000000000000000000000000000000000000000000000000000000 PUSH1 0x0 MSTORE PUSH1 0x11 PUSH1 0x4 MSTORE PUSH1 0x24 PUSH1 0x0 REVERT JUMPDEST PUSH32 0x4E487B7100000000000000000000000000000000000000000000000000000000 PUSH1 0x0 MSTORE PUSH1 0x12 PUSH1 0x4 MSTORE PUSH1 0x24 PUSH1 0x0 REVERT JUMPDEST PUSH32 0x4E487B7100000000000000000000000000000000000000000000000000000000 PUSH1 0x0 MSTORE PUSH1 0x21 PUSH1 0x4 MSTORE PUSH1 0x24 PUSH1 0x0 REVERT JUMPDEST PUSH32 0x4E487B7100000000000000000000000000000000000000000000000000000000 PUSH1 0x0 MSTORE PUSH1 0x22 PUSH1 0x4 MSTORE PUSH1 0x24 PUSH1 0x0 REVERT JUMPDEST PUSH32 0x4E487B7100000000000000000000000000000000000000000000000000000000 PUSH1 0x0 MSTORE PUSH1 0x41 PUSH1 0x4 MSTORE PUSH1 0x24 PUSH1 0x0 REVERT JUMPDEST PUSH1 0x0 DUP1 REVERT JUMPDEST PUSH1 0x0 DUP1 REVERT JUMPDEST PUSH1 0x0 DUP1 REVERT JUMPDEST PUSH1 0x0 DUP1 REVERT JUMPDEST PUSH1 0x0 PUSH1 0x1F NOT PUSH1 0x1F DUP4 ADD AND SWAP1 POP SWAP2 SWAP1 POP JUMP JUMPDEST PUSH32 0x4461766573000000000000000000000000000000000000000000000000000000 PUSH1 0x0 DUP3 ADD MSTORE POP JUMP JUMPDEST PUSH32 0x53746174652073686F756C642062652043616E63656C6C656400000000000000 PUSH1 0x0 DUP3 ADD MSTORE POP JUMP JUMPDEST PUSH32 0x52657374617572616E7420616C72656164792065786973747300000000000000 PUSH1 0x0 DUP3 ADD MSTORE POP JUMP JUMPDEST PUSH32 0x556E692043616665000000000000000000000000000000000000000000000000 PUSH1 0x0 DUP3 ADD MSTORE POP JUMP JUMPDEST PUSH32 0x53746174652073686F756C6420626520566F74696E6700000000000000000000 PUSH1 0x0 DUP3 ADD MSTORE POP JUMP JUMPDEST PUSH32 0x43616E206F6E6C7920626520657865637574656420696E20766F74696E672073 PUSH1 0x0 DUP3 ADD MSTORE PUSH32 0x7461746500000000000000000000000000000000000000000000000000000000 PUSH1 0x20 DUP3 ADD MSTORE POP JUMP JUMPDEST PUSH32 0x53686F756C6420626520657175616C20746F2032000000000000000000000000 PUSH1 0x0 DUP3 ADD MSTORE POP JUMP JUMPDEST PUSH32 0x546865206E756D206F6620667269656E64732073686F756C6420626520300000 PUSH1 0x0 DUP3 ADD MSTORE POP JUMP JUMPDEST PUSH32 0x546865206E756D206F662072657374617572616E74732073686F756C64206265 PUSH1 0x0 DUP3 ADD MSTORE PUSH32 0x2030000000000000000000000000000000000000000000000000000000000000 PUSH1 0x20 DUP3 ADD MSTORE POP JUMP JUMPDEST PUSH32 0x53686F756C6420626520657175616C20746F2034000000000000000000000000 PUSH1 0x0 DUP3 ADD MSTORE POP JUMP JUMPDEST PUSH32 0x53686F756C6420626520657175616C20746F2033000000000000000000000000 PUSH1 0x0 DUP3 ADD MSTORE POP JUMP JUMPDEST PUSH32 0x43616E206F6E6C7920626520657865637574656420696E206372656174696E67 PUSH1 0x0 DUP3 ADD MSTORE PUSH32 0x2073746174650000000000000000000000000000000000000000000000000000 PUSH1 0x20 DUP3 ADD MSTORE POP JUMP JUMPDEST PUSH32 0x554E535720436166650000000000000000000000000000000000000000000000 PUSH1 0x0 DUP3 ADD MSTORE POP JUMP JUMPDEST PUSH32 0x4E756D626572206F6620766F7465732073686F756C6420626520330000000000 PUSH1 0x0 DUP3 ADD MSTORE POP JUMP JUMPDEST PUSH32 0x566F74696E6720726573756C742073686F756C64206265207472756500000000 PUSH1 0x0 DUP3 ADD MSTORE POP JUMP JUMPDEST PUSH32 0x53686F756C6420626520657175616C20746F2031000000000000000000000000 PUSH1 0x0 DUP3 ADD MSTORE POP JUMP JUMPDEST PUSH32 0x657865637574696F6E2073686F756C64206E6F74206265207375636365737366 PUSH1 0x0 DUP3 ADD MSTORE PUSH32 0x756C000000000000000000000000000000000000000000000000000000000000 PUSH1 0x20 DUP3 ADD MSTORE POP JUMP JUMPDEST PUSH32 0x546865206E756D206F6620766F7465732073686F756C64206265203000000000 PUSH1 0x0 DUP3 ADD MSTORE POP JUMP JUMPDEST PUSH32 0x43616E206F6E6C7920626520657865637574656420627920746865206D616E61 PUSH1 0x0 DUP3 ADD MSTORE PUSH32 0x6765720000000000000000000000000000000000000000000000000000000000 PUSH1 0x20 DUP3 ADD MSTORE POP JUMP JUMPDEST PUSH32 0x53656C65637465642072657374617572616E742073686F756C6420626520556E PUSH1 0x0 DUP3 ADD MSTORE PUSH32 0x6920436166650000000000000000000000000000000000000000000000000000 PUSH1 0x20 DUP3 ADD MSTORE POP JUMP JUMPDEST PUSH32 0x53746174652073686F756C6420626520656E6465640000000000000000000000 PUSH1 0x0 DUP3 ADD MSTORE POP JUMP JUMPDEST PUSH32 0x4E756D626572206F6620766F7465732073686F756C6420626520310000000000 PUSH1 0x0 DUP3 ADD MSTORE POP JUMP JUMPDEST PUSH32 0x53746174652073686F756C64206265204372656174696E670000000000000000 PUSH1 0x0 DUP3 ADD MSTORE POP JUMP JUMPDEST PUSH32 0x4A6F686E00000000000000000000000000000000000000000000000000000000 PUSH1 0x0 DUP3 ADD MSTORE POP JUMP JUMPDEST POP JUMP JUMPDEST PUSH32 0x4A616D6573000000000000000000000000000000000000000000000000000000 PUSH1 0x0 DUP3 ADD MSTORE POP JUMP JUMPDEST PUSH32 0x54686520766F7465642072657374617572616E742073686F756C642062652065 PUSH1 0x0 DUP3 ADD MSTORE PUSH32 0x6D70747900000000000000000000000000000000000000000000000000000000 PUSH1 0x20 DUP3 ADD MSTORE POP JUMP JUMPDEST PUSH32 0x467269656E64206164647265737320616C726561647920657869737473000000 PUSH1 0x0 DUP3 ADD MSTORE POP JUMP JUMPDEST PUSH32 0x4E756D626572206F6620766F7465732073686F756C6420626520320000000000 PUSH1 0x0 DUP3 ADD MSTORE POP JUMP JUMPDEST PUSH32 0x4D616E616765722073686F756C64206265206163633000000000000000000000 PUSH1 0x0 DUP3 ADD MSTORE POP JUMP JUMPDEST PUSH32 0x4361742043616665000000000000000000000000000000000000000000000000 PUSH1 0x0 DUP3 ADD MSTORE POP JUMP JUMPDEST PUSH32 0x53686F756C6420626520657175616C20746F2035000000000000000000000000 PUSH1 0x0 DUP3 ADD MSTORE POP JUMP JUMPDEST PUSH1 0x4 DUP2 LT PUSH2 0x5B8F JUMPI PUSH2 0x5B8E PUSH2 0x54C8 JUMP JUMPDEST JUMPDEST POP JUMP JUMPDEST PUSH2 0x5B9B DUP2 PUSH2 0x524E JUMP JUMPDEST DUP2 EQ PUSH2 0x5BA6 JUMPI PUSH1 0x0 DUP1 REVERT JUMPDEST POP JUMP JUMPDEST PUSH2 0x5BB2 DUP2 PUSH2 0x5260 JUMP JUMPDEST DUP2 EQ PUSH2 0x5BBD JUMPI PUSH1 0x0 DUP1 REVERT JUMPDEST POP JUMP JUMPDEST PUSH2 0x5BC9 DUP2 PUSH2 0x529F JUMP JUMPDEST DUP2 EQ PUSH2 0x5BD4 JUMPI PUSH1 0x0 DUP1 REVERT JUMPDEST POP JUMP INVALID LOG2 PUSH5 0x6970667358 0x22 SLT KECCAK256 PUSH27 0x63B5779C442C8240B0D9CBC7E04D39909682E8B3405525C204B1E6 0xA6 SAR 0xCF SWAP1 PUSH5 0x736F6C6343 STOP ADDMOD SDIV STOP CALLER "
		},
		"gasEstimates": {
			"creation": {
				"codeDepositCost": "4713000",
				"executionCost": "infinite",
				"totalCost": "infinite"
			},
			"external": {
				"addFriend(address,string)": "infinite",
				"addRestaurant(string)": "infinite",
				"beforeAll()": "infinite",
				"cancelVoting()": "infinite",
				"cancelVotingFailure()": "infinite",
				"cancelVotingSuccess()": "infinite",
				"constructorTest()": "infinite",
				"doVote(uint256)": "infinite",
				"doVoteFailure0()": "infinite",
				"doVoteFailure1()": "infinite",
				"friends(address)": "infinite",
				"lunchVenueResult()": "infinite",
				"manager()": "infinite",
				"managerTest()": "infinite",
				"numFriends()": "2497",
				"numRestaurants()": "2518",
				"numVotes()": "2496",
				"restaurants(uint256)": "infinite",
				"setFriend()": "infinite",
				"setFriendFailure()": "infinite",
				"setRestaurant()": "infinite",
				"setRestaurantFailure2()": "infinite",
				"setSameFriend()": "infinite",
				"setSameRestaurant()": "infinite",
				"setVotingState()": "infinite",
				"startVoting()": "infinite",
				"state()": "2604",
				"vote1()": "infinite",
				"vote2()": "infinite",
				"vote3()": "infinite",
				"vote4()": "infinite",
				"voteAfterClosedFailure()": "infinite",
				"voteAfterClosedFailure2()": "infinite",
				"voteFailure()": "infinite",
				"voteFailure2()": "infinite",
				"voteFailure3()": "infinite",
				"voteOpen()": "2582",
				"votedRestaurant()": "infinite",
				"votes(uint256)": "infinite"
			}
		},
		"methodIdentifiers": {
			"addFriend(address,string)": "3b9f708d",
			"addRestaurant(string)": "6d77bd3e",
			"beforeAll()": "7fea0d4b",
			"cancelVoting()": "81f4b232",
			"cancelVotingFailure()": "37525afc",
			"cancelVotingSuccess()": "b64b116f",
			"constructorTest()": "27205128",
			"doVote(uint256)": "124258c6",
			"doVoteFailure0()": "8279a17f",
			"doVoteFailure1()": "7899fe2f",
			"friends(address)": "1ddabf7a",
			"lunchVenueResult()": "c09a7a5f",
			"manager()": "481c6a75",
			"managerTest()": "947aea86",
			"numFriends()": "47098f36",
			"numRestaurants()": "b798867f",
			"numVotes()": "a3bef4d7",
			"restaurants(uint256)": "ad5461d8",
			"setFriend()": "848b4427",
			"setFriendFailure()": "77440e06",
			"setRestaurant()": "12a4591a",
			"setRestaurantFailure2()": "6ec8df91",
			"setSameFriend()": "dcd17401",
			"setSameRestaurant()": "a743e776",
			"setVotingState()": "c351f495",
			"startVoting()": "1ec6b60a",
			"state()": "c19d93fb",
			"vote1()": "00430ba7",
			"vote2()": "a24a4e88",
			"vote3()": "2955fea3",
			"vote4()": "6a9fe400",
			"voteAfterClosedFailure()": "a5627cf0",
			"voteAfterClosedFailure2()": "0bb150d6",
			"voteFailure()": "a9a4070c",
			"voteFailure2()": "cd59bdc9",
			"voteFailure3()": "bcba4db6",
			"voteOpen()": "788d3851",
			"votedRestaurant()": "c1c16efc",
			"votes(uint256)": "5df81330"
		}
	},
	"abi": [
		{
			"inputs": [
				{
					"internalType": "address",
					"name": "friendAddress",
					"type": "address"
				},
				{
					"internalType": "string",
					"name": "name",
					"type": "string"
				}
			],
			"name": "addFriend",
			"outputs": [
				{
					"internalType": "uint256",
					"name": "",
					"type": "uint256"
				}
			],
			"stateMutability": "nonpayable",
			"type": "function"
		},
		{
			"inputs": [
				{
					"internalType": "string",
					"name": "name",
					"type": "string"
				}
			],
			"name": "addRestaurant",
			"outputs": [
				{
					"internalType": "uint256",
					"name": "",
					"type": "uint256"
				}
			],
			"stateMutability": "nonpayable",
			"type": "function"
		},
		{
			"inputs": [],
			"name": "beforeAll",
			"outputs": [],
			"stateMutability": "nonpayable",
			"type": "function"
		},
		{
			"inputs": [],
			"name": "cancelVoting",
			"outputs": [],
			"stateMutability": "nonpayable",
			"type": "function"
		},
		{
			"inputs": [],
			"name": "cancelVotingFailure",
			"outputs": [],
			"stateMutability": "nonpayable",
			"type": "function"
		},
		{
			"inputs": [],
			"name": "cancelVotingSuccess",
			"outputs": [],
			"stateMutability": "nonpayable",
			"type": "function"
		},
		{
			"inputs": [],
			"name": "constructorTest",
			"outputs": [],
			"stateMutability": "nonpayable",
			"type": "function"
		},
		{
			"inputs": [
				{
					"internalType": "uint256",
					"name": "restaurant",
					"type": "uint256"
				}
			],
			"name": "doVote",
			"outputs": [
				{
					"internalType": "bool",
					"name": "validVote",
					"type": "bool"
				}
			],
			"stateMutability": "nonpayable",
			"type": "function"
		},
		{
			"inputs": [],
			"name": "doVoteFailure0",
			"outputs": [],
			"stateMutability": "nonpayable",
			"type": "function"
		},
		{
			"inputs": [],
			"name": "doVoteFailure1",
			"outputs": [],
			"stateMutability": "nonpayable",
			"type": "function"
		},
		{
			"inputs": [
				{
					"internalType": "address",
					"name": "",
					"type": "address"
				}
			],
			"name": "friends",
			"outputs": [
				{
					"internalType": "string",
					"name": "name",
					"type": "string"
				},
				{
					"internalType": "bool",
					"name": "voted",
					"type": "bool"
				}
			],
			"stateMutability": "view",
			"type": "function"
		},
		{
			"inputs": [],
			"name": "lunchVenueResult",
			"outputs": [],
			"stateMutability": "nonpayable",
			"type": "function"
		},
		{
			"inputs": [],
			"name": "manager",
			"outputs": [
				{
					"internalType": "address",
					"name": "",
					"type": "address"
				}
			],
			"stateMutability": "view",
			"type": "function"
		},
		{
			"inputs": [],
			"name": "managerTest",
			"outputs": [],
			"stateMutability": "nonpayable",
			"type": "function"
		},
		{
			"inputs": [],
			"name": "numFriends",
			"outputs": [
				{
					"internalType": "uint256",
					"name": "",
					"type": "uint256"
				}
			],
			"stateMutability": "view",
			"type": "function"
		},
		{
			"inputs": [],
			"name": "numRestaurants",
			"outputs": [
				{
					"internalType": "uint256",
					"name": "",
					"type": "uint256"
				}
			],
			"stateMutability": "view",
			"type": "function"
		},
		{
			"inputs": [],
			"name": "numVotes",
			"outputs": [
				{
					"internalType": "uint256",
					"name": "",
					"type": "uint256"
				}
			],
			"stateMutability": "view",
			"type": "function"
		},
		{
			"inputs": [
				{
					"internalType": "uint256",
					"name": "",
					"type": "uint256"
				}
			],
			"name": "restaurants",
			"outputs": [
				{
					"internalType": "string",
					"name": "",
					"type": "string"
				}
			],
			"stateMutability": "view",
			"type": "function"
		},
		{
			"inputs": [],
			"name": "setFriend",
			"outputs": [],
			"stateMutability": "nonpayable",
			"type": "function"
		},
		{
			"inputs": [],
			"name": "setFriendFailure",
			"outputs": [],
			"stateMutability": "nonpayable",
			"type": "function"
		},
		{
			"inputs": [],
			"name": "setRestaurant",
			"outputs": [],
			"stateMutability": "nonpayable",
			"type": "function"
		},
		{
			"inputs": [],
			"name": "setRestaurantFailure2",
			"outputs": [],
			"stateMutability": "nonpayable",
			"type": "function"
		},
		{
			"inputs": [],
			"name": "setSameFriend",
			"outputs": [],
			"stateMutability": "nonpayable",
			"type": "function"
		},
		{
			"inputs": [],
			"name": "setSameRestaurant",
			"outputs": [],
			"stateMutability": "nonpayable",
			"type": "function"
		},
		{
			"inputs": [],
			"name": "setVotingState",
			"outputs": [],
			"stateMutability": "nonpayable",
			"type": "function"
		},
		{
			"inputs": [],
			"name": "startVoting",
			"outputs": [],
			"stateMutability": "nonpayable",
			"type": "function"
		},
		{
			"inputs": [],
			"name": "state",
			"outputs": [
				{
					"internalType": "enum LunchVenueUpdated.State",
					"name": "",
					"type": "uint8"
				}
			],
			"stateMutability": "view",
			"type": "function"
		},
		{
			"inputs": [],
			"name": "vote1",
			"outputs": [],
			"stateMutability": "nonpayable",
			"type": "function"
		},
		{
			"inputs": [],
			"name": "vote2",
			"outputs": [],
			"stateMutability": "nonpayable",
			"type": "function"
		},
		{
			"inputs": [],
			"name": "vote3",
			"outputs": [],
			"stateMutability": "nonpayable",
			"type": "function"
		},
		{
			"inputs": [],
			"name": "vote4",
			"outputs": [],
			"stateMutability": "nonpayable",
			"type": "function"
		},
		{
			"inputs": [],
			"name": "voteAfterClosedFailure",
			"outputs": [],
			"stateMutability": "nonpayable",
			"type": "function"
		},
		{
			"inputs": [],
			"name": "voteAfterClosedFailure2",
			"outputs": [],
			"stateMutability": "nonpayable",
			"type": "function"
		},
		{
			"inputs": [],
			"name": "voteFailure",
			"outputs": [],
			"stateMutability": "nonpayable",
			"type": "function"
		},
		{
			"inputs": [],
			"name": "voteFailure2",
			"outputs": [],
			"stateMutability": "nonpayable",
			"type": "function"
		},
		{
			"inputs": [],
			"name": "voteFailure3",
			"outputs": [],
			"stateMutability": "nonpayable",
			"type": "function"
		},
		{
			"inputs": [],
			"name": "voteOpen",
			"outputs": [
				{
					"internalType": "bool",
					"name": "",
					"type": "bool"
				}
			],
			"stateMutability": "view",
			"type": "function"
		},
		{
			"inputs": [],
			"name": "votedRestaurant",
			"outputs": [
				{
					"internalType": "string",
					"name": "",
					"type": "string"
				}
			],
			"stateMutability": "view",
			"type": "function"
		},
		{
			"inputs": [
				{
					"internalType": "uint256",
					"name": "",
					"type": "uint256"
				}
			],
			"name": "votes",
			"outputs": [
				{
					"internalType": "address",
					"name": "voterAddress",
					"type": "address"
				},
				{
					"internalType": "uint256",
					"name": "restaurant",
					"type": "uint256"
				}
			],
			"stateMutability": "view",
			"type": "function"
		}
	]
}