{
	"contracts/LunchVenue_new.sol": {
		"LunchVenueNew": {
			"abi": [
				{
					"inputs": [],
					"stateMutability": "nonpayable",
					"type": "constructor"
				},
				{
					"inputs": [],
					"name": "LunchVenue__FriendAddressAlreadyExists",
					"type": "error"
				},
				{
					"inputs": [],
					"name": "LunchVenue__OnlyInCreatingState",
					"type": "error"
				},
				{
					"inputs": [],
					"name": "LunchVenue__OnlyInVotingState",
					"type": "error"
				},
				{
					"inputs": [],
					"name": "LunchVenue__OnlyManager",
					"type": "error"
				},
				{
					"inputs": [],
					"name": "LunchVenue__RestaurantAlreadyExists",
					"type": "error"
				},
				{
					"inputs": [
						{
							"internalType": "address",
							"name": "friendAddress",
							"type": "address"
						},
						{
							"internalType": "string",
							"name": "name",
							"type": "string"
						}
					],
					"name": "addFriend",
					"outputs": [
						{
							"internalType": "uint256",
							"name": "",
							"type": "uint256"
						}
					],
					"stateMutability": "nonpayable",
					"type": "function"
				},
				{
					"inputs": [
						{
							"internalType": "string",
							"name": "name",
							"type": "string"
						}
					],
					"name": "addRestaurant",
					"outputs": [
						{
							"internalType": "uint256",
							"name": "",
							"type": "uint256"
						}
					],
					"stateMutability": "nonpayable",
					"type": "function"
				},
				{
					"inputs": [],
					"name": "cancelVoting",
					"outputs": [],
					"stateMutability": "nonpayable",
					"type": "function"
				},
				{
					"inputs": [
						{
							"internalType": "uint256",
							"name": "restaurant",
							"type": "uint256"
						}
					],
					"name": "doVote",
					"outputs": [
						{
							"internalType": "bool",
							"name": "validVote",
							"type": "bool"
						}
					],
					"stateMutability": "nonpayable",
					"type": "function"
				},
				{
					"inputs": [
						{
							"internalType": "address",
							"name": "",
							"type": "address"
						}
					],
					"name": "friends",
					"outputs": [
						{
							"internalType": "string",
							"name": "name",
							"type": "string"
						},
						{
							"internalType": "bool",
							"name": "voted",
							"type": "bool"
						}
					],
					"stateMutability": "view",
					"type": "function"
				},
				{
					"inputs": [],
					"name": "manager",
					"outputs": [
						{
							"internalType": "address",
							"name": "",
							"type": "address"
						}
					],
					"stateMutability": "view",
					"type": "function"
				},
				{
					"inputs": [],
					"name": "numFriends",
					"outputs": [
						{
							"internalType": "uint256",
							"name": "",
							"type": "uint256"
						}
					],
					"stateMutability": "view",
					"type": "function"
				},
				{
					"inputs": [],
					"name": "numRestaurants",
					"outputs": [
						{
							"internalType": "uint256",
							"name": "",
							"type": "uint256"
						}
					],
					"stateMutability": "view",
					"type": "function"
				},
				{
					"inputs": [],
					"name": "numVotes",
					"outputs": [
						{
							"internalType": "uint256",
							"name": "",
							"type": "uint256"
						}
					],
					"stateMutability": "view",
					"type": "function"
				},
				{
					"inputs": [
						{
							"internalType": "uint256",
							"name": "",
							"type": "uint256"
						}
					],
					"name": "restaurants",
					"outputs": [
						{
							"internalType": "string",
							"name": "",
							"type": "string"
						}
					],
					"stateMutability": "view",
					"type": "function"
				},
				{
					"inputs": [],
					"name": "startVoting",
					"outputs": [],
					"stateMutability": "nonpayable",
					"type": "function"
				},
				{
					"inputs": [],
					"name": "state",
					"outputs": [
						{
							"internalType": "enum LunchVenueNew.State",
							"name": "",
							"type": "uint8"
						}
					],
					"stateMutability": "view",
					"type": "function"
				},
				{
					"inputs": [],
					"name": "votedRestaurant",
					"outputs": [
						{
							"internalType": "string",
							"name": "",
							"type": "string"
						}
					],
					"stateMutability": "view",
					"type": "function"
				},
				{
					"inputs": [
						{
							"internalType": "uint256",
							"name": "",
							"type": "uint256"
						}
					],
					"name": "votes",
					"outputs": [
						{
							"internalType": "address",
							"name": "voterAddress",
							"type": "address"
						},
						{
							"internalType": "uint256",
							"name": "restaurant",
							"type": "uint256"
						}
					],
					"stateMutability": "view",
					"type": "function"
				}
			],
			"devdoc": {
				"author": "Dilum Bandara , CSIRO’s Data61 Edited by: Amos Tan, UNSW (z5440950) to fix bugs as mentioned in Lab 01",
				"details": "Bugs known: 1. A friend can vote more than once. While this was handy in testing our contract, it is undesirable as one could monopolise the selected venue.    Ideally, we should record a vote for a given address only once.    - added `friends[msg.sender].voted == false` in doVote function to ensure the voter has not voted before 2. The same restaurant and friend can be added multiple times leading to similar issues.    - enumerate existing restaurants and check if the restaurant already exists    - check if the friend's address already exists by checking if the name exists since doVote function checks if the friend's name exists before      allowing the friend to vote 3. While the contract is stuck at the doVote function, other functions can still be called. Also, once the voting starts, new venues and friends    can be added, making the whole process chaotic. In a typical voting process, voters are clear about who would vote and what to vote on before    voting starts to prevent any disputes. Hence, a good vote process should have well-defined create, vote open, and vote close phases.    - added state variable to keep track of the state of the contract (Creating, Voting, Ended, Cancelled)    - added modifiers to restrict functions to be called only in certain states 4. There is no way to disable the contract once it is deployed. Even the manager cannot do anything to stop the contract in case the team lunch    has to be cancelled.    - added cancelVoting function to allow the manager to cancel the contract 5. Gas consumption is not optimised. More simple data structures may help to reduce transaction fees.    - added unchecked for incrementing variable i in for loops    - remove initialisation of variable of 0    - added immutable type for manager variable since it will not be modified after contract construction    - rearrange the order of state variables, state variable and address variable are placed together to use one slot. Other comments: The contract below follows Natspec format: https://docs.soliditylang.org/en/v0.8.20/natspec-format.html along with the order of layout: https://docs.soliditylang.org/en/latest/style-guide.html#order-of-layout To show the bugs are fixed Contract Address: 0x02635535fD00449CcAB1d5961a2369B854Ae9A8A Bug 1: - Charlie tried to vote twice but it returns false for the second doVote function call.   https://sepolia.etherscan.io/tx/0xa67f15e27799e495d43ef740a678ebf52a8624498e0f2b02c1c33f938944a9bd Bug 2: - The same friend cannot be added multiple times.   https://sepolia.etherscan.io/tx/0x3712e476de603ed46801711e1365ac6acb3107df0535ab3a6b6a1b249b19b368 - The same restaurant cannot be added multiple times.   https://sepolia.etherscan.io/tx/0xe03c5a6c400fe60b1b423b4fa912ef8343435e306a9f399184d52f89bcf281b4 Bug 3: - Bob tried to vote in the creating state but failed.   https://sepolia.etherscan.io/tx/0x85be85a6a8c20e08e3248c11f236db433d10314b8ce15ea8a83426f1a35f005b - Bob tried to change the state of the contract from creating to voting but failed as he is not the manager.   https://sepolia.etherscan.io/tx/0x5ac030e060b6e29e822edc20e28c5ce16e79a19e91b0506f5113f14773360289 Bug 4 (using contract address 0xdCe03e7960870E43CC4EB603dfa3d4812DFAC0D4): - Bob tried to cancel the voting but fails because he is not the manager.   https://sepolia.etherscan.io/tx/0x837b77ba72423421955cdeab6bd564c8077f0a6fc02350982b9acf0aaca70d1a - Only Alice, the manager, can cancel the voting   https://sepolia.etherscan.io/tx/0xcdcbcbbbcd54b845c4c28a35d0a60b861a6d69f72eac7d3ee23b22a6ce37d73f",
				"kind": "dev",
				"methods": {
					"addFriend(address,string)": {
						"details": "To simplify the code duplication of friends is not checked",
						"params": {
							"friendAddress": "Friend’s account/address",
							"name": "Friend ’s name"
						},
						"returns": {
							"_0": "Number of friends added so far"
						}
					},
					"addRestaurant(string)": {
						"details": "To simplify the code, duplication of restaurants isn’t checked",
						"params": {
							"name": "Restaurant name"
						},
						"returns": {
							"_0": "Number of restaurants added so far"
						}
					},
					"cancelVoting()": {
						"details": "Only the manager can cancel the voting"
					},
					"constructor": {
						"details": "Set manager when contract starts"
					},
					"doVote(uint256)": {
						"details": "To simplify the code duplicate votes by a friend is not checked ",
						"params": {
							"restaurant": "Restaurant number being voted"
						},
						"returns": {
							"validVote": "Is the vote valid? A valid vote should be from a registered friend to a registered restaurant"
						}
					},
					"startVoting()": {
						"details": "Only the manager can start the voting"
					}
				},
				"title": "Contract to agree on the lunch venue",
				"version": 1
			},
			"evm": {
				"assembly": "    /* \"contracts/LunchVenue_new.sol\":4019:9968  contract LunchVenueNew {... */\n  mstore(0x40, 0xa0)\n    /* \"contracts/LunchVenue_new.sol\":5693:5855  constructor() {... */\n  callvalue\n  dup1\n  iszero\n  tag_1\n  jumpi\n  0x00\n  dup1\n  revert\ntag_1:\n  pop\n    /* \"contracts/LunchVenue_new.sol\":5727:5737  msg.sender */\n  caller\n    /* \"contracts/LunchVenue_new.sol\":5717:5737  manager = msg.sender */\n  0xffffffffffffffffffffffffffffffffffffffff\n  and\n  0x80\n  dup2\n  0xffffffffffffffffffffffffffffffffffffffff\n  and\n  0x60\n  shl\n  dup2\n  mstore\n  pop\n  pop\n    /* \"contracts/LunchVenue_new.sol\":5789:5803  State.Creating */\n  0x00\n    /* \"contracts/LunchVenue_new.sol\":5781:5786  state */\n  0x05\n  0x00\n    /* \"contracts/LunchVenue_new.sol\":5781:5803  state = State.Creating */\n  0x0100\n  exp\n  dup2\n  sload\n  dup2\n  0xff\n  mul\n  not\n  and\n  swap1\n  dup4\n  0x03\n  dup2\n  gt\n  iszero\n  tag_4\n  jumpi\n  tag_5\n  tag_6\n  jump\t// in\ntag_5:\ntag_4:\n  mul\n  or\n  swap1\n  sstore\n  pop\n    /* \"contracts/LunchVenue_new.sol\":4019:9968  contract LunchVenueNew {... */\n  jump(tag_7)\n    /* \"#utility.yul\":7:187   */\ntag_6:\n    /* \"#utility.yul\":55:132   */\n  0x4e487b7100000000000000000000000000000000000000000000000000000000\n    /* \"#utility.yul\":52:53   */\n  0x00\n    /* \"#utility.yul\":45:133   */\n  mstore\n    /* \"#utility.yul\":152:156   */\n  0x21\n    /* \"#utility.yul\":149:150   */\n  0x04\n    /* \"#utility.yul\":142:157   */\n  mstore\n    /* \"#utility.yul\":176:180   */\n  0x24\n    /* \"#utility.yul\":173:174   */\n  0x00\n    /* \"#utility.yul\":166:181   */\n  revert\n    /* \"contracts/LunchVenue_new.sol\":4019:9968  contract LunchVenueNew {... */\ntag_7:\n  shr(0x60, mload(0x80))\n  codecopy(0x00, dataOffset(sub_0), dataSize(sub_0))\n  0x00\n  assignImmutable(\"0x77c32b454bb61eb9df9e3848d0ded3e59753acda90ae58befe564733aec82e4c\")\n  return(0x00, dataSize(sub_0))\nstop\n\nsub_0: assembly {\n        /* \"contracts/LunchVenue_new.sol\":4019:9968  contract LunchVenueNew {... */\n      mstore(0x40, 0x80)\n      callvalue\n      dup1\n      iszero\n      tag_1\n      jumpi\n      0x00\n      dup1\n      revert\n    tag_1:\n      pop\n      jumpi(tag_2, lt(calldatasize, 0x04))\n      shr(0xe0, calldataload(0x00))\n      dup1\n      0x6d77bd3e\n      gt\n      tag_17\n      jumpi\n      dup1\n      0xad5461d8\n      gt\n      tag_18\n      jumpi\n      dup1\n      0xad5461d8\n      eq\n      tag_13\n      jumpi\n      dup1\n      0xb798867f\n      eq\n      tag_14\n      jumpi\n      dup1\n      0xc19d93fb\n      eq\n      tag_15\n      jumpi\n      dup1\n      0xc1c16efc\n      eq\n      tag_16\n      jumpi\n      jump(tag_2)\n    tag_18:\n      dup1\n      0x6d77bd3e\n      eq\n      tag_10\n      jumpi\n      dup1\n      0x81f4b232\n      eq\n      tag_11\n      jumpi\n      dup1\n      0xa3bef4d7\n      eq\n      tag_12\n      jumpi\n      jump(tag_2)\n    tag_17:\n      dup1\n      0x3b9f708d\n      gt\n      tag_19\n      jumpi\n      dup1\n      0x3b9f708d\n      eq\n      tag_6\n      jumpi\n      dup1\n      0x47098f36\n      eq\n      tag_7\n      jumpi\n      dup1\n      0x481c6a75\n      eq\n      tag_8\n      jumpi\n      dup1\n      0x5df81330\n      eq\n      tag_9\n      jumpi\n      jump(tag_2)\n    tag_19:\n      dup1\n      0x124258c6\n      eq\n      tag_3\n      jumpi\n      dup1\n      0x1ddabf7a\n      eq\n      tag_4\n      jumpi\n      dup1\n      0x1ec6b60a\n      eq\n      tag_5\n      jumpi\n    tag_2:\n      0x00\n      dup1\n      revert\n        /* \"contracts/LunchVenue_new.sol\":7730:8633  function doVote(... */\n    tag_3:\n      tag_20\n      0x04\n      dup1\n      calldatasize\n      sub\n      dup2\n      add\n      swap1\n      tag_21\n      swap2\n      swap1\n      tag_22\n      jump\t// in\n    tag_21:\n      tag_23\n      jump\t// in\n    tag_20:\n      mload(0x40)\n      tag_24\n      swap2\n      swap1\n      tag_25\n      jump\t// in\n    tag_24:\n      mload(0x40)\n      dup1\n      swap2\n      sub\n      swap1\n      return\n        /* \"contracts/LunchVenue_new.sol\":4392:4433  mapping(address => Friend) public friends */\n    tag_4:\n      tag_26\n      0x04\n      dup1\n      calldatasize\n      sub\n      dup2\n      add\n      swap1\n      tag_27\n      swap2\n      swap1\n      tag_28\n      jump\t// in\n    tag_27:\n      tag_29\n      jump\t// in\n    tag_26:\n      mload(0x40)\n      tag_30\n      swap3\n      swap2\n      swap1\n      tag_31\n      jump\t// in\n    tag_30:\n      mload(0x40)\n      dup1\n      swap2\n      sub\n      swap1\n      return\n        /* \"contracts/LunchVenue_new.sol\":8737:8829  function startVoting() public creatingState restricted {... */\n    tag_5:\n      tag_32\n      tag_33\n      jump\t// in\n    tag_32:\n      stop\n        /* \"contracts/LunchVenue_new.sol\":6910:7395  function addFriend(... */\n    tag_6:\n      tag_34\n      0x04\n      dup1\n      calldatasize\n      sub\n      dup2\n      add\n      swap1\n      tag_35\n      swap2\n      swap1\n      tag_36\n      jump\t// in\n    tag_35:\n      tag_37\n      jump\t// in\n    tag_34:\n      mload(0x40)\n      tag_38\n      swap2\n      swap1\n      tag_39\n      jump\t// in\n    tag_38:\n      mload(0x40)\n      dup1\n      swap2\n      sub\n      swap1\n      return\n        /* \"contracts/LunchVenue_new.sol\":4507:4529  uint public numFriends */\n    tag_7:\n      tag_40\n      tag_41\n      jump\t// in\n    tag_40:\n      mload(0x40)\n      tag_42\n      swap2\n      swap1\n      tag_39\n      jump\t// in\n    tag_42:\n      mload(0x40)\n      dup1\n      swap2\n      sub\n      swap1\n      return\n        /* \"contracts/LunchVenue_new.sol\":4561:4593  address public immutable manager */\n    tag_8:\n      tag_43\n      tag_44\n      jump\t// in\n    tag_43:\n      mload(0x40)\n      tag_45\n      swap2\n      swap1\n      tag_46\n      jump\t// in\n    tag_45:\n      mload(0x40)\n      dup1\n      swap2\n      sub\n      swap1\n      return\n        /* \"contracts/LunchVenue_new.sol\":4699:4733  mapping(uint => Vote) public votes */\n    tag_9:\n      tag_47\n      0x04\n      dup1\n      calldatasize\n      sub\n      dup2\n      add\n      swap1\n      tag_48\n      swap2\n      swap1\n      tag_22\n      jump\t// in\n    tag_48:\n      tag_49\n      jump\t// in\n    tag_47:\n      mload(0x40)\n      tag_50\n      swap3\n      swap2\n      swap1\n      tag_51\n      jump\t// in\n    tag_50:\n      mload(0x40)\n      dup1\n      swap2\n      sub\n      swap1\n      return\n        /* \"contracts/LunchVenue_new.sol\":6082:6627  function addRestaurant(... */\n    tag_10:\n      tag_52\n      0x04\n      dup1\n      calldatasize\n      sub\n      dup2\n      add\n      swap1\n      tag_53\n      swap2\n      swap1\n      tag_54\n      jump\t// in\n    tag_53:\n      tag_55\n      jump\t// in\n    tag_52:\n      mload(0x40)\n      tag_56\n      swap2\n      swap1\n      tag_39\n      jump\t// in\n    tag_56:\n      mload(0x40)\n      dup1\n      swap2\n      sub\n      swap1\n      return\n        /* \"contracts/LunchVenue_new.sol\":8935:9017  function cancelVoting() public restricted {... */\n    tag_11:\n      tag_57\n      tag_58\n      jump\t// in\n    tag_57:\n      stop\n        /* \"contracts/LunchVenue_new.sol\":4535:4555  uint public numVotes */\n    tag_12:\n      tag_59\n      tag_60\n      jump\t// in\n    tag_59:\n      mload(0x40)\n      tag_61\n      swap2\n      swap1\n      tag_39\n      jump\t// in\n    tag_61:\n      mload(0x40)\n      dup1\n      swap2\n      sub\n      swap1\n      return\n        /* \"contracts/LunchVenue_new.sol\":4300:4342  mapping(uint => string) public restaurants */\n    tag_13:\n      tag_62\n      0x04\n      dup1\n      calldatasize\n      sub\n      dup2\n      add\n      swap1\n      tag_63\n      swap2\n      swap1\n      tag_22\n      jump\t// in\n    tag_63:\n      tag_64\n      jump\t// in\n    tag_62:\n      mload(0x40)\n      tag_65\n      swap2\n      swap1\n      tag_66\n      jump\t// in\n    tag_65:\n      mload(0x40)\n      dup1\n      swap2\n      sub\n      swap1\n      return\n        /* \"contracts/LunchVenue_new.sol\":4475:4501  uint public numRestaurants */\n    tag_14:\n      tag_67\n      tag_68\n      jump\t// in\n    tag_67:\n      mload(0x40)\n      tag_69\n      swap2\n      swap1\n      tag_39\n      jump\t// in\n    tag_69:\n      mload(0x40)\n      dup1\n      swap2\n      sub\n      swap1\n      return\n        /* \"contracts/LunchVenue_new.sol\":4618:4636  State public state */\n    tag_15:\n      tag_70\n      tag_71\n      jump\t// in\n    tag_70:\n      mload(0x40)\n      tag_72\n      swap2\n      swap1\n      tag_73\n      jump\t// in\n    tag_72:\n      mload(0x40)\n      dup1\n      swap2\n      sub\n      swap1\n      return\n        /* \"contracts/LunchVenue_new.sol\":4642:4671  string public votedRestaurant */\n    tag_16:\n      tag_74\n      tag_75\n      jump\t// in\n    tag_74:\n      mload(0x40)\n      tag_76\n      swap2\n      swap1\n      tag_66\n      jump\t// in\n    tag_76:\n      mload(0x40)\n      dup1\n      swap2\n      sub\n      swap1\n      return\n        /* \"contracts/LunchVenue_new.sol\":7730:8633  function doVote(... */\n    tag_23:\n        /* \"contracts/LunchVenue_new.sol\":7805:7819  bool validVote */\n      0x00\n        /* \"contracts/LunchVenue_new.sol\":5556:5568  State.Voting */\n      0x01\n        /* \"contracts/LunchVenue_new.sol\":5547:5568  state != State.Voting */\n      0x03\n      dup2\n      gt\n      iszero\n      tag_78\n      jumpi\n      tag_79\n      tag_80\n      jump\t// in\n    tag_79:\n    tag_78:\n        /* \"contracts/LunchVenue_new.sol\":5547:5552  state */\n      0x05\n      0x00\n      swap1\n      sload\n      swap1\n      0x0100\n      exp\n      swap1\n      div\n      0xff\n      and\n        /* \"contracts/LunchVenue_new.sol\":5547:5568  state != State.Voting */\n      0x03\n      dup2\n      gt\n      iszero\n      tag_81\n      jumpi\n      tag_82\n      tag_80\n      jump\t// in\n    tag_82:\n    tag_81:\n      eq\n        /* \"contracts/LunchVenue_new.sol\":5543:5608  if (state != State.Voting) revert LunchVenue__OnlyInVotingState() */\n      tag_83\n      jumpi\n        /* \"contracts/LunchVenue_new.sol\":5577:5608  LunchVenue__OnlyInVotingState() */\n      mload(0x40)\n      0xd5be4c8d00000000000000000000000000000000000000000000000000000000\n      dup2\n      mstore\n      0x04\n      add\n      mload(0x40)\n      dup1\n      swap2\n      sub\n      swap1\n      revert\n        /* \"contracts/LunchVenue_new.sol\":5543:5608  if (state != State.Voting) revert LunchVenue__OnlyInVotingState() */\n    tag_83:\n        /* \"contracts/LunchVenue_new.sol\":7843:7848  false */\n      0x00\n        /* \"contracts/LunchVenue_new.sol\":7831:7848  validVote = false */\n      swap1\n      pop\n        /* \"contracts/LunchVenue_new.sol\":8034:8035  0 */\n      0x00\n        /* \"contracts/LunchVenue_new.sol\":7998:8005  friends */\n      0x01\n        /* \"contracts/LunchVenue_new.sol\":7998:8017  friends[msg.sender] */\n      0x00\n        /* \"contracts/LunchVenue_new.sol\":8006:8016  msg.sender */\n      caller\n        /* \"contracts/LunchVenue_new.sol\":7998:8017  friends[msg.sender] */\n      0xffffffffffffffffffffffffffffffffffffffff\n      and\n      0xffffffffffffffffffffffffffffffffffffffff\n      and\n      dup2\n      mstore\n      0x20\n      add\n      swap1\n      dup2\n      mstore\n      0x20\n      add\n      0x00\n      keccak256\n        /* \"contracts/LunchVenue_new.sol\":7998:8022  friends[msg.sender].name */\n      0x00\n      add\n        /* \"contracts/LunchVenue_new.sol\":7992:8030  bytes(friends[msg.sender].name).length */\n      dup1\n      sload\n      tag_85\n      swap1\n      tag_86\n      jump\t// in\n    tag_85:\n      swap1\n      pop\n        /* \"contracts/LunchVenue_new.sol\":7992:8035  bytes(friends[msg.sender].name).length != 0 */\n      eq\n      iszero\n        /* \"contracts/LunchVenue_new.sol\":7992:8085  bytes(friends[msg.sender].name).length != 0 &&... */\n      dup1\n      iszero\n      tag_87\n      jumpi\n      pop\n        /* \"contracts/LunchVenue_new.sol\":8080:8085  false */\n      0x00\n        /* \"contracts/LunchVenue_new.sol\":8051:8085  friends[msg.sender].voted == false */\n      iszero\n      iszero\n        /* \"contracts/LunchVenue_new.sol\":8051:8058  friends */\n      0x01\n        /* \"contracts/LunchVenue_new.sol\":8051:8070  friends[msg.sender] */\n      0x00\n        /* \"contracts/LunchVenue_new.sol\":8059:8069  msg.sender */\n      caller\n        /* \"contracts/LunchVenue_new.sol\":8051:8070  friends[msg.sender] */\n      0xffffffffffffffffffffffffffffffffffffffff\n      and\n      0xffffffffffffffffffffffffffffffffffffffff\n      and\n      dup2\n      mstore\n      0x20\n      add\n      swap1\n      dup2\n      mstore\n      0x20\n      add\n      0x00\n      keccak256\n        /* \"contracts/LunchVenue_new.sol\":8051:8076  friends[msg.sender].voted */\n      0x01\n      add\n      0x00\n      swap1\n      sload\n      swap1\n      0x0100\n      exp\n      swap1\n      div\n      0xff\n      and\n        /* \"contracts/LunchVenue_new.sol\":8051:8085  friends[msg.sender].voted == false */\n      iszero\n      iszero\n      eq\n        /* \"contracts/LunchVenue_new.sol\":7992:8085  bytes(friends[msg.sender].name).length != 0 &&... */\n    tag_87:\n        /* \"contracts/LunchVenue_new.sol\":7975:8488  if (... */\n      iszero\n      tag_88\n      jumpi\n        /* \"contracts/LunchVenue_new.sol\":8192:8193  0 */\n      0x00\n        /* \"contracts/LunchVenue_new.sol\":8157:8168  restaurants */\n      dup1\n        /* \"contracts/LunchVenue_new.sol\":8157:8180  restaurants[restaurant] */\n      0x00\n        /* \"contracts/LunchVenue_new.sol\":8169:8179  restaurant */\n      dup5\n        /* \"contracts/LunchVenue_new.sol\":8157:8180  restaurants[restaurant] */\n      dup2\n      mstore\n      0x20\n      add\n      swap1\n      dup2\n      mstore\n      0x20\n      add\n      0x00\n      keccak256\n        /* \"contracts/LunchVenue_new.sol\":8151:8188  bytes(restaurants[restaurant]).length */\n      dup1\n      sload\n      tag_89\n      swap1\n      tag_86\n      jump\t// in\n    tag_89:\n      swap1\n      pop\n        /* \"contracts/LunchVenue_new.sol\":8151:8193  bytes(restaurants[restaurant]).length != 0 */\n      eq\n        /* \"contracts/LunchVenue_new.sol\":8147:8478  if (bytes(restaurants[restaurant]).length != 0) {... */\n      tag_90\n      jumpi\n        /* \"contracts/LunchVenue_new.sol\":8225:8229  true */\n      0x01\n        /* \"contracts/LunchVenue_new.sol\":8213:8229  validVote = true */\n      swap1\n      pop\n        /* \"contracts/LunchVenue_new.sol\":8275:8279  true */\n      0x01\n        /* \"contracts/LunchVenue_new.sol\":8247:8254  friends */\n      dup1\n        /* \"contracts/LunchVenue_new.sol\":8247:8266  friends[msg.sender] */\n      0x00\n        /* \"contracts/LunchVenue_new.sol\":8255:8265  msg.sender */\n      caller\n        /* \"contracts/LunchVenue_new.sol\":8247:8266  friends[msg.sender] */\n      0xffffffffffffffffffffffffffffffffffffffff\n      and\n      0xffffffffffffffffffffffffffffffffffffffff\n      and\n      dup2\n      mstore\n      0x20\n      add\n      swap1\n      dup2\n      mstore\n      0x20\n      add\n      0x00\n      keccak256\n        /* \"contracts/LunchVenue_new.sol\":8247:8272  friends[msg.sender].voted */\n      0x01\n      add\n      0x00\n        /* \"contracts/LunchVenue_new.sol\":8247:8279  friends[msg.sender].voted = true */\n      0x0100\n      exp\n      dup2\n      sload\n      dup2\n      0xff\n      mul\n      not\n      and\n      swap1\n      dup4\n      iszero\n      iszero\n      mul\n      or\n      swap1\n      sstore\n      pop\n        /* \"contracts/LunchVenue_new.sol\":8297:8310  Vote memory v */\n      tag_91\n      tag_92\n      jump\t// in\n    tag_91:\n        /* \"contracts/LunchVenue_new.sol\":8345:8355  msg.sender */\n      caller\n        /* \"contracts/LunchVenue_new.sol\":8328:8329  v */\n      dup2\n        /* \"contracts/LunchVenue_new.sol\":8328:8342  v.voterAddress */\n      0x00\n      add\n        /* \"contracts/LunchVenue_new.sol\":8328:8355  v.voterAddress = msg.sender */\n      swap1\n      0xffffffffffffffffffffffffffffffffffffffff\n      and\n      swap1\n      dup2\n      0xffffffffffffffffffffffffffffffffffffffff\n      and\n      dup2\n      mstore\n      pop\n      pop\n        /* \"contracts/LunchVenue_new.sol\":8388:8398  restaurant */\n      dup3\n        /* \"contracts/LunchVenue_new.sol\":8373:8374  v */\n      dup2\n        /* \"contracts/LunchVenue_new.sol\":8373:8385  v.restaurant */\n      0x20\n      add\n        /* \"contracts/LunchVenue_new.sol\":8373:8398  v.restaurant = restaurant */\n      dup2\n      dup2\n      mstore\n      pop\n      pop\n        /* \"contracts/LunchVenue_new.sol\":8416:8424  numVotes */\n      0x04\n      0x00\n        /* \"contracts/LunchVenue_new.sol\":8416:8426  numVotes++ */\n      dup2\n      sload\n      dup1\n      swap3\n      swap2\n      swap1\n      tag_93\n      swap1\n      tag_94\n      jump\t// in\n    tag_93:\n      swap2\n      swap1\n      pop\n      sstore\n      pop\n        /* \"contracts/LunchVenue_new.sol\":8462:8463  v */\n      dup1\n        /* \"contracts/LunchVenue_new.sol\":8444:8449  votes */\n      0x07\n        /* \"contracts/LunchVenue_new.sol\":8444:8459  votes[numVotes] */\n      0x00\n        /* \"contracts/LunchVenue_new.sol\":8450:8458  numVotes */\n      sload(0x04)\n        /* \"contracts/LunchVenue_new.sol\":8444:8459  votes[numVotes] */\n      dup2\n      mstore\n      0x20\n      add\n      swap1\n      dup2\n      mstore\n      0x20\n      add\n      0x00\n      keccak256\n        /* \"contracts/LunchVenue_new.sol\":8444:8463  votes[numVotes] = v */\n      0x00\n      dup3\n      add\n      mload\n      dup2\n      0x00\n      add\n      exp(0x0100, 0x00)\n      dup2\n      sload\n      dup2\n      0xffffffffffffffffffffffffffffffffffffffff\n      mul\n      not\n      and\n      swap1\n      dup4\n      0xffffffffffffffffffffffffffffffffffffffff\n      and\n      mul\n      or\n      swap1\n      sstore\n      pop\n      0x20\n      dup3\n      add\n      mload\n      dup2\n      0x01\n      add\n      sstore\n      swap1\n      pop\n      pop\n        /* \"contracts/LunchVenue_new.sol\":8195:8478  {... */\n      pop\n        /* \"contracts/LunchVenue_new.sol\":8147:8478  if (bytes(restaurants[restaurant]).length != 0) {... */\n    tag_90:\n        /* \"contracts/LunchVenue_new.sol\":7975:8488  if (... */\n    tag_88:\n        /* \"contracts/LunchVenue_new.sol\":8531:8532  1 */\n      0x01\n        /* \"contracts/LunchVenue_new.sol\":8527:8528  2 */\n      0x02\n        /* \"contracts/LunchVenue_new.sol\":8514:8524  numFriends */\n      sload(0x03)\n        /* \"contracts/LunchVenue_new.sol\":8514:8528  numFriends / 2 */\n      tag_95\n      swap2\n      swap1\n      tag_96\n      jump\t// in\n    tag_95:\n        /* \"contracts/LunchVenue_new.sol\":8514:8532  numFriends / 2 + 1 */\n      tag_97\n      swap2\n      swap1\n      tag_98\n      jump\t// in\n    tag_97:\n        /* \"contracts/LunchVenue_new.sol\":8502:8510  numVotes */\n      sload(0x04)\n        /* \"contracts/LunchVenue_new.sol\":8502:8532  numVotes >= numFriends / 2 + 1 */\n      lt\n        /* \"contracts/LunchVenue_new.sol\":8498:8600  if (numVotes >= numFriends / 2 + 1) {... */\n      tag_99\n      jumpi\n        /* \"contracts/LunchVenue_new.sol\":8576:8589  finalResult() */\n      tag_100\n        /* \"contracts/LunchVenue_new.sol\":8576:8587  finalResult */\n      tag_101\n        /* \"contracts/LunchVenue_new.sol\":8576:8589  finalResult() */\n      jump\t// in\n    tag_100:\n        /* \"contracts/LunchVenue_new.sol\":8498:8600  if (numVotes >= numFriends / 2 + 1) {... */\n    tag_99:\n        /* \"contracts/LunchVenue_new.sol\":7730:8633  function doVote(... */\n      swap2\n      swap1\n      pop\n      jump\t// out\n        /* \"contracts/LunchVenue_new.sol\":4392:4433  mapping(address => Friend) public friends */\n    tag_29:\n      mstore(0x20, 0x01)\n      dup1\n      0x00\n      mstore\n      keccak256(0x00, 0x40)\n      0x00\n      swap2\n      pop\n      swap1\n      pop\n      dup1\n      0x00\n      add\n      dup1\n      sload\n      tag_102\n      swap1\n      tag_86\n      jump\t// in\n    tag_102:\n      dup1\n      0x1f\n      add\n      0x20\n      dup1\n      swap2\n      div\n      mul\n      0x20\n      add\n      mload(0x40)\n      swap1\n      dup2\n      add\n      0x40\n      mstore\n      dup1\n      swap3\n      swap2\n      swap1\n      dup2\n      dup2\n      mstore\n      0x20\n      add\n      dup3\n      dup1\n      sload\n      tag_103\n      swap1\n      tag_86\n      jump\t// in\n    tag_103:\n      dup1\n      iszero\n      tag_104\n      jumpi\n      dup1\n      0x1f\n      lt\n      tag_105\n      jumpi\n      0x0100\n      dup1\n      dup4\n      sload\n      div\n      mul\n      dup4\n      mstore\n      swap2\n      0x20\n      add\n      swap2\n      jump(tag_104)\n    tag_105:\n      dup3\n      add\n      swap2\n      swap1\n      0x00\n      mstore\n      keccak256(0x00, 0x20)\n      swap1\n    tag_106:\n      dup2\n      sload\n      dup2\n      mstore\n      swap1\n      0x01\n      add\n      swap1\n      0x20\n      add\n      dup1\n      dup4\n      gt\n      tag_106\n      jumpi\n      dup3\n      swap1\n      sub\n      0x1f\n      and\n      dup3\n      add\n      swap2\n    tag_104:\n      pop\n      pop\n      pop\n      pop\n      pop\n      swap1\n      dup1\n      0x01\n      add\n      0x00\n      swap1\n      sload\n      swap1\n      0x0100\n      exp\n      swap1\n      div\n      0xff\n      and\n      swap1\n      pop\n      dup3\n      jump\t// out\n        /* \"contracts/LunchVenue_new.sol\":8737:8829  function startVoting() public creatingState restricted {... */\n    tag_33:\n        /* \"contracts/LunchVenue_new.sol\":5372:5386  State.Creating */\n      0x00\n        /* \"contracts/LunchVenue_new.sol\":5363:5386  state != State.Creating */\n      0x03\n      dup2\n      gt\n      iszero\n      tag_108\n      jumpi\n      tag_109\n      tag_80\n      jump\t// in\n    tag_109:\n    tag_108:\n        /* \"contracts/LunchVenue_new.sol\":5363:5368  state */\n      0x05\n      0x00\n      swap1\n      sload\n      swap1\n      0x0100\n      exp\n      swap1\n      div\n      0xff\n      and\n        /* \"contracts/LunchVenue_new.sol\":5363:5386  state != State.Creating */\n      0x03\n      dup2\n      gt\n      iszero\n      tag_110\n      jumpi\n      tag_111\n      tag_80\n      jump\t// in\n    tag_111:\n    tag_110:\n      eq\n        /* \"contracts/LunchVenue_new.sol\":5359:5428  if (state != State.Creating) revert LunchVenue__OnlyInCreatingState() */\n      tag_112\n      jumpi\n        /* \"contracts/LunchVenue_new.sol\":5395:5428  LunchVenue__OnlyInCreatingState() */\n      mload(0x40)\n      0xb8fa265700000000000000000000000000000000000000000000000000000000\n      dup2\n      mstore\n      0x04\n      add\n      mload(0x40)\n      dup1\n      swap2\n      sub\n      swap1\n      revert\n        /* \"contracts/LunchVenue_new.sol\":5359:5428  if (state != State.Creating) revert LunchVenue__OnlyInCreatingState() */\n    tag_112:\n        /* \"contracts/LunchVenue_new.sol\":5199:5206  manager */\n      immutable(\"0x77c32b454bb61eb9df9e3848d0ded3e59753acda90ae58befe564733aec82e4c\")\n        /* \"contracts/LunchVenue_new.sol\":5185:5206  msg.sender != manager */\n      0xffffffffffffffffffffffffffffffffffffffff\n      and\n        /* \"contracts/LunchVenue_new.sol\":5185:5195  msg.sender */\n      caller\n        /* \"contracts/LunchVenue_new.sol\":5185:5206  msg.sender != manager */\n      0xffffffffffffffffffffffffffffffffffffffff\n      and\n      eq\n        /* \"contracts/LunchVenue_new.sol\":5181:5240  if (msg.sender != manager) revert LunchVenue__OnlyManager() */\n      tag_114\n      jumpi\n        /* \"contracts/LunchVenue_new.sol\":5215:5240  LunchVenue__OnlyManager() */\n      mload(0x40)\n      0x8a88558a00000000000000000000000000000000000000000000000000000000\n      dup2\n      mstore\n      0x04\n      add\n      mload(0x40)\n      dup1\n      swap2\n      sub\n      swap1\n      revert\n        /* \"contracts/LunchVenue_new.sol\":5181:5240  if (msg.sender != manager) revert LunchVenue__OnlyManager() */\n    tag_114:\n        /* \"contracts/LunchVenue_new.sol\":8810:8822  State.Voting */\n      0x01\n        /* \"contracts/LunchVenue_new.sol\":8802:8807  state */\n      0x05\n      0x00\n        /* \"contracts/LunchVenue_new.sol\":8802:8822  state = State.Voting */\n      0x0100\n      exp\n      dup2\n      sload\n      dup2\n      0xff\n      mul\n      not\n      and\n      swap1\n      dup4\n      0x03\n      dup2\n      gt\n      iszero\n      tag_116\n      jumpi\n      tag_117\n      tag_80\n      jump\t// in\n    tag_117:\n    tag_116:\n      mul\n      or\n      swap1\n      sstore\n      pop\n        /* \"contracts/LunchVenue_new.sol\":8737:8829  function startVoting() public creatingState restricted {... */\n      jump\t// out\n        /* \"contracts/LunchVenue_new.sol\":6910:7395  function addFriend(... */\n    tag_37:\n        /* \"contracts/LunchVenue_new.sol\":7035:7039  uint */\n      0x00\n        /* \"contracts/LunchVenue_new.sol\":5199:5206  manager */\n      immutable(\"0x77c32b454bb61eb9df9e3848d0ded3e59753acda90ae58befe564733aec82e4c\")\n        /* \"contracts/LunchVenue_new.sol\":5185:5206  msg.sender != manager */\n      0xffffffffffffffffffffffffffffffffffffffff\n      and\n        /* \"contracts/LunchVenue_new.sol\":5185:5195  msg.sender */\n      caller\n        /* \"contracts/LunchVenue_new.sol\":5185:5206  msg.sender != manager */\n      0xffffffffffffffffffffffffffffffffffffffff\n      and\n      eq\n        /* \"contracts/LunchVenue_new.sol\":5181:5240  if (msg.sender != manager) revert LunchVenue__OnlyManager() */\n      tag_119\n      jumpi\n        /* \"contracts/LunchVenue_new.sol\":5215:5240  LunchVenue__OnlyManager() */\n      mload(0x40)\n      0x8a88558a00000000000000000000000000000000000000000000000000000000\n      dup2\n      mstore\n      0x04\n      add\n      mload(0x40)\n      dup1\n      swap2\n      sub\n      swap1\n      revert\n        /* \"contracts/LunchVenue_new.sol\":5181:5240  if (msg.sender != manager) revert LunchVenue__OnlyManager() */\n    tag_119:\n        /* \"contracts/LunchVenue_new.sol\":5372:5386  State.Creating */\n      0x00\n        /* \"contracts/LunchVenue_new.sol\":5363:5386  state != State.Creating */\n      0x03\n      dup2\n      gt\n      iszero\n      tag_121\n      jumpi\n      tag_122\n      tag_80\n      jump\t// in\n    tag_122:\n    tag_121:\n        /* \"contracts/LunchVenue_new.sol\":5363:5368  state */\n      0x05\n      0x00\n      swap1\n      sload\n      swap1\n      0x0100\n      exp\n      swap1\n      div\n      0xff\n      and\n        /* \"contracts/LunchVenue_new.sol\":5363:5386  state != State.Creating */\n      0x03\n      dup2\n      gt\n      iszero\n      tag_123\n      jumpi\n      tag_124\n      tag_80\n      jump\t// in\n    tag_124:\n    tag_123:\n      eq\n        /* \"contracts/LunchVenue_new.sol\":5359:5428  if (state != State.Creating) revert LunchVenue__OnlyInCreatingState() */\n      tag_125\n      jumpi\n        /* \"contracts/LunchVenue_new.sol\":5395:5428  LunchVenue__OnlyInCreatingState() */\n      mload(0x40)\n      0xb8fa265700000000000000000000000000000000000000000000000000000000\n      dup2\n      mstore\n      0x04\n      add\n      mload(0x40)\n      dup1\n      swap2\n      sub\n      swap1\n      revert\n        /* \"contracts/LunchVenue_new.sol\":5359:5428  if (state != State.Creating) revert LunchVenue__OnlyInCreatingState() */\n    tag_125:\n        /* \"contracts/LunchVenue_new.sol\":7156:7157  0 */\n      0x00\n        /* \"contracts/LunchVenue_new.sol\":7117:7124  friends */\n      0x01\n        /* \"contracts/LunchVenue_new.sol\":7117:7139  friends[friendAddress] */\n      0x00\n        /* \"contracts/LunchVenue_new.sol\":7125:7138  friendAddress */\n      dup6\n        /* \"contracts/LunchVenue_new.sol\":7117:7139  friends[friendAddress] */\n      0xffffffffffffffffffffffffffffffffffffffff\n      and\n      0xffffffffffffffffffffffffffffffffffffffff\n      and\n      dup2\n      mstore\n      0x20\n      add\n      swap1\n      dup2\n      mstore\n      0x20\n      add\n      0x00\n      keccak256\n        /* \"contracts/LunchVenue_new.sol\":7117:7144  friends[friendAddress].name */\n      0x00\n      add\n        /* \"contracts/LunchVenue_new.sol\":7111:7152  bytes(friends[friendAddress].name).length */\n      dup1\n      sload\n      tag_127\n      swap1\n      tag_86\n      jump\t// in\n    tag_127:\n      swap1\n      pop\n        /* \"contracts/LunchVenue_new.sol\":7111:7157  bytes(friends[friendAddress].name).length != 0 */\n      eq\n        /* \"contracts/LunchVenue_new.sol\":7107:7231  if (bytes(friends[friendAddress].name).length != 0) {... */\n      tag_128\n      jumpi\n        /* \"contracts/LunchVenue_new.sol\":7180:7220  LunchVenue__FriendAddressAlreadyExists() */\n      mload(0x40)\n      0xddc5f0cc00000000000000000000000000000000000000000000000000000000\n      dup2\n      mstore\n      0x04\n      add\n      mload(0x40)\n      dup1\n      swap2\n      sub\n      swap1\n      revert\n        /* \"contracts/LunchVenue_new.sol\":7107:7231  if (bytes(friends[friendAddress].name).length != 0) {... */\n    tag_128:\n        /* \"contracts/LunchVenue_new.sol\":7240:7255  Friend memory f */\n      tag_129\n      tag_130\n      jump\t// in\n    tag_129:\n        /* \"contracts/LunchVenue_new.sol\":7274:7278  name */\n      dup3\n        /* \"contracts/LunchVenue_new.sol\":7265:7266  f */\n      dup2\n        /* \"contracts/LunchVenue_new.sol\":7265:7271  f.name */\n      0x00\n      add\n        /* \"contracts/LunchVenue_new.sol\":7265:7278  f.name = name */\n      dup2\n      swap1\n      mstore\n      pop\n        /* \"contracts/LunchVenue_new.sol\":7298:7303  false */\n      0x00\n        /* \"contracts/LunchVenue_new.sol\":7288:7289  f */\n      dup2\n        /* \"contracts/LunchVenue_new.sol\":7288:7295  f.voted */\n      0x20\n      add\n        /* \"contracts/LunchVenue_new.sol\":7288:7303  f.voted = false */\n      swap1\n      iszero\n      iszero\n      swap1\n      dup2\n      iszero\n      iszero\n      dup2\n      mstore\n      pop\n      pop\n        /* \"contracts/LunchVenue_new.sol\":7338:7339  f */\n      dup1\n        /* \"contracts/LunchVenue_new.sol\":7313:7320  friends */\n      0x01\n        /* \"contracts/LunchVenue_new.sol\":7313:7335  friends[friendAddress] */\n      0x00\n        /* \"contracts/LunchVenue_new.sol\":7321:7334  friendAddress */\n      dup7\n        /* \"contracts/LunchVenue_new.sol\":7313:7335  friends[friendAddress] */\n      0xffffffffffffffffffffffffffffffffffffffff\n      and\n      0xffffffffffffffffffffffffffffffffffffffff\n      and\n      dup2\n      mstore\n      0x20\n      add\n      swap1\n      dup2\n      mstore\n      0x20\n      add\n      0x00\n      keccak256\n        /* \"contracts/LunchVenue_new.sol\":7313:7339  friends[friendAddress] = f */\n      0x00\n      dup3\n      add\n      mload\n      dup2\n      0x00\n      add\n      swap1\n      dup1\n      mload\n      swap1\n      0x20\n      add\n      swap1\n      tag_131\n      swap3\n      swap2\n      swap1\n      tag_132\n      jump\t// in\n    tag_131:\n      pop\n      0x20\n      dup3\n      add\n      mload\n      dup2\n      0x01\n      add\n      exp(0x0100, 0x00)\n      dup2\n      sload\n      dup2\n      0xff\n      mul\n      not\n      and\n      swap1\n      dup4\n      iszero\n      iszero\n      mul\n      or\n      swap1\n      sstore\n      pop\n      swap1\n      pop\n      pop\n        /* \"contracts/LunchVenue_new.sol\":7349:7359  numFriends */\n      0x03\n      0x00\n        /* \"contracts/LunchVenue_new.sol\":7349:7361  numFriends++ */\n      dup2\n      sload\n      dup1\n      swap3\n      swap2\n      swap1\n      tag_133\n      swap1\n      tag_94\n      jump\t// in\n    tag_133:\n      swap2\n      swap1\n      pop\n      sstore\n      pop\n        /* \"contracts/LunchVenue_new.sol\":7378:7388  numFriends */\n      sload(0x03)\n        /* \"contracts/LunchVenue_new.sol\":7371:7388  return numFriends */\n      swap2\n      pop\n      pop\n        /* \"contracts/LunchVenue_new.sol\":6910:7395  function addFriend(... */\n      swap3\n      swap2\n      pop\n      pop\n      jump\t// out\n        /* \"contracts/LunchVenue_new.sol\":4507:4529  uint public numFriends */\n    tag_41:\n      sload(0x03)\n      dup2\n      jump\t// out\n        /* \"contracts/LunchVenue_new.sol\":4561:4593  address public immutable manager */\n    tag_44:\n      immutable(\"0x77c32b454bb61eb9df9e3848d0ded3e59753acda90ae58befe564733aec82e4c\")\n      dup2\n      jump\t// out\n        /* \"contracts/LunchVenue_new.sol\":4699:4733  mapping(uint => Vote) public votes */\n    tag_49:\n      mstore(0x20, 0x07)\n      dup1\n      0x00\n      mstore\n      keccak256(0x00, 0x40)\n      0x00\n      swap2\n      pop\n      swap1\n      pop\n      dup1\n      0x00\n      add\n      0x00\n      swap1\n      sload\n      swap1\n      0x0100\n      exp\n      swap1\n      div\n      0xffffffffffffffffffffffffffffffffffffffff\n      and\n      swap1\n      dup1\n      0x01\n      add\n      sload\n      swap1\n      pop\n      dup3\n      jump\t// out\n        /* \"contracts/LunchVenue_new.sol\":6082:6627  function addRestaurant(... */\n    tag_55:\n        /* \"contracts/LunchVenue_new.sol\":6180:6184  uint */\n      0x00\n        /* \"contracts/LunchVenue_new.sol\":5199:5206  manager */\n      immutable(\"0x77c32b454bb61eb9df9e3848d0ded3e59753acda90ae58befe564733aec82e4c\")\n        /* \"contracts/LunchVenue_new.sol\":5185:5206  msg.sender != manager */\n      0xffffffffffffffffffffffffffffffffffffffff\n      and\n        /* \"contracts/LunchVenue_new.sol\":5185:5195  msg.sender */\n      caller\n        /* \"contracts/LunchVenue_new.sol\":5185:5206  msg.sender != manager */\n      0xffffffffffffffffffffffffffffffffffffffff\n      and\n      eq\n        /* \"contracts/LunchVenue_new.sol\":5181:5240  if (msg.sender != manager) revert LunchVenue__OnlyManager() */\n      tag_135\n      jumpi\n        /* \"contracts/LunchVenue_new.sol\":5215:5240  LunchVenue__OnlyManager() */\n      mload(0x40)\n      0x8a88558a00000000000000000000000000000000000000000000000000000000\n      dup2\n      mstore\n      0x04\n      add\n      mload(0x40)\n      dup1\n      swap2\n      sub\n      swap1\n      revert\n        /* \"contracts/LunchVenue_new.sol\":5181:5240  if (msg.sender != manager) revert LunchVenue__OnlyManager() */\n    tag_135:\n        /* \"contracts/LunchVenue_new.sol\":5372:5386  State.Creating */\n      0x00\n        /* \"contracts/LunchVenue_new.sol\":5363:5386  state != State.Creating */\n      0x03\n      dup2\n      gt\n      iszero\n      tag_137\n      jumpi\n      tag_138\n      tag_80\n      jump\t// in\n    tag_138:\n    tag_137:\n        /* \"contracts/LunchVenue_new.sol\":5363:5368  state */\n      0x05\n      0x00\n      swap1\n      sload\n      swap1\n      0x0100\n      exp\n      swap1\n      div\n      0xff\n      and\n        /* \"contracts/LunchVenue_new.sol\":5363:5386  state != State.Creating */\n      0x03\n      dup2\n      gt\n      iszero\n      tag_139\n      jumpi\n      tag_140\n      tag_80\n      jump\t// in\n    tag_140:\n    tag_139:\n      eq\n        /* \"contracts/LunchVenue_new.sol\":5359:5428  if (state != State.Creating) revert LunchVenue__OnlyInCreatingState() */\n      tag_141\n      jumpi\n        /* \"contracts/LunchVenue_new.sol\":5395:5428  LunchVenue__OnlyInCreatingState() */\n      mload(0x40)\n      0xb8fa265700000000000000000000000000000000000000000000000000000000\n      dup2\n      mstore\n      0x04\n      add\n      mload(0x40)\n      dup1\n      swap2\n      sub\n      swap1\n      revert\n        /* \"contracts/LunchVenue_new.sol\":5359:5428  if (state != State.Creating) revert LunchVenue__OnlyInCreatingState() */\n    tag_141:\n        /* \"contracts/LunchVenue_new.sol\":6261:6267  uint i */\n      0x00\n        /* \"contracts/LunchVenue_new.sol\":6270:6271  1 */\n      0x01\n        /* \"contracts/LunchVenue_new.sol\":6261:6271  uint i = 1 */\n      swap1\n      pop\n        /* \"contracts/LunchVenue_new.sol\":6256:6520  for (uint i = 1; i <= numRestaurants; ) {... */\n    tag_143:\n        /* \"contracts/LunchVenue_new.sol\":6278:6292  numRestaurants */\n      sload(0x02)\n        /* \"contracts/LunchVenue_new.sol\":6273:6274  i */\n      dup2\n        /* \"contracts/LunchVenue_new.sol\":6273:6292  i <= numRestaurants */\n      gt\n        /* \"contracts/LunchVenue_new.sol\":6256:6520  for (uint i = 1; i <= numRestaurants; ) {... */\n      tag_144\n      jumpi\n        /* \"contracts/LunchVenue_new.sol\":6366:6370  name */\n      dup3\n        /* \"contracts/LunchVenue_new.sol\":6350:6372  keccak256(bytes(name)) */\n      dup1\n      mload\n      swap1\n      0x20\n      add\n      keccak256\n        /* \"contracts/LunchVenue_new.sol\":6330:6341  restaurants */\n      0x00\n        /* \"contracts/LunchVenue_new.sol\":6330:6344  restaurants[i] */\n      dup1\n        /* \"contracts/LunchVenue_new.sol\":6342:6343  i */\n      dup4\n        /* \"contracts/LunchVenue_new.sol\":6330:6344  restaurants[i] */\n      dup2\n      mstore\n      0x20\n      add\n      swap1\n      dup2\n      mstore\n      0x20\n      add\n      0x00\n      keccak256\n        /* \"contracts/LunchVenue_new.sol\":6314:6346  keccak256(bytes(restaurants[i])) */\n      mload(0x40)\n      tag_146\n      swap2\n      swap1\n      tag_147\n      jump\t// in\n    tag_146:\n      mload(0x40)\n      dup1\n      swap2\n      sub\n      swap1\n      keccak256\n        /* \"contracts/LunchVenue_new.sol\":6314:6372  keccak256(bytes(restaurants[i])) == keccak256(bytes(name)) */\n      eq\n        /* \"contracts/LunchVenue_new.sol\":6310:6451  if (keccak256(bytes(restaurants[i])) == keccak256(bytes(name))) {... */\n      iszero\n      tag_148\n      jumpi\n        /* \"contracts/LunchVenue_new.sol\":6399:6436  LunchVenue__RestaurantAlreadyExists() */\n      mload(0x40)\n      0x3a60529800000000000000000000000000000000000000000000000000000000\n      dup2\n      mstore\n      0x04\n      add\n      mload(0x40)\n      dup1\n      swap2\n      sub\n      swap1\n      revert\n        /* \"contracts/LunchVenue_new.sol\":6310:6451  if (keccak256(bytes(restaurants[i])) == keccak256(bytes(name))) {... */\n    tag_148:\n        /* \"contracts/LunchVenue_new.sol\":6492:6495  ++i */\n      dup1\n      0x01\n      add\n      swap1\n      pop\n        /* \"contracts/LunchVenue_new.sol\":6256:6520  for (uint i = 1; i <= numRestaurants; ) {... */\n      jump(tag_143)\n    tag_144:\n      pop\n        /* \"contracts/LunchVenue_new.sol\":6529:6543  numRestaurants */\n      0x02\n      0x00\n        /* \"contracts/LunchVenue_new.sol\":6529:6545  numRestaurants++ */\n      dup2\n      sload\n      dup1\n      swap3\n      swap2\n      swap1\n      tag_149\n      swap1\n      tag_94\n      jump\t// in\n    tag_149:\n      swap2\n      swap1\n      pop\n      sstore\n      pop\n        /* \"contracts/LunchVenue_new.sol\":6585:6589  name */\n      dup2\n        /* \"contracts/LunchVenue_new.sol\":6555:6566  restaurants */\n      0x00\n        /* \"contracts/LunchVenue_new.sol\":6555:6582  restaurants[numRestaurants] */\n      dup1\n        /* \"contracts/LunchVenue_new.sol\":6567:6581  numRestaurants */\n      sload(0x02)\n        /* \"contracts/LunchVenue_new.sol\":6555:6582  restaurants[numRestaurants] */\n      dup2\n      mstore\n      0x20\n      add\n      swap1\n      dup2\n      mstore\n      0x20\n      add\n      0x00\n      keccak256\n        /* \"contracts/LunchVenue_new.sol\":6555:6589  restaurants[numRestaurants] = name */\n      swap1\n      dup1\n      mload\n      swap1\n      0x20\n      add\n      swap1\n      tag_150\n      swap3\n      swap2\n      swap1\n      tag_132\n      jump\t// in\n    tag_150:\n      pop\n        /* \"contracts/LunchVenue_new.sol\":6606:6620  numRestaurants */\n      sload(0x02)\n        /* \"contracts/LunchVenue_new.sol\":6599:6620  return numRestaurants */\n      swap1\n      pop\n        /* \"contracts/LunchVenue_new.sol\":6082:6627  function addRestaurant(... */\n      swap2\n      swap1\n      pop\n      jump\t// out\n        /* \"contracts/LunchVenue_new.sol\":8935:9017  function cancelVoting() public restricted {... */\n    tag_58:\n        /* \"contracts/LunchVenue_new.sol\":5199:5206  manager */\n      immutable(\"0x77c32b454bb61eb9df9e3848d0ded3e59753acda90ae58befe564733aec82e4c\")\n        /* \"contracts/LunchVenue_new.sol\":5185:5206  msg.sender != manager */\n      0xffffffffffffffffffffffffffffffffffffffff\n      and\n        /* \"contracts/LunchVenue_new.sol\":5185:5195  msg.sender */\n      caller\n        /* \"contracts/LunchVenue_new.sol\":5185:5206  msg.sender != manager */\n      0xffffffffffffffffffffffffffffffffffffffff\n      and\n      eq\n        /* \"contracts/LunchVenue_new.sol\":5181:5240  if (msg.sender != manager) revert LunchVenue__OnlyManager() */\n      tag_152\n      jumpi\n        /* \"contracts/LunchVenue_new.sol\":5215:5240  LunchVenue__OnlyManager() */\n      mload(0x40)\n      0x8a88558a00000000000000000000000000000000000000000000000000000000\n      dup2\n      mstore\n      0x04\n      add\n      mload(0x40)\n      dup1\n      swap2\n      sub\n      swap1\n      revert\n        /* \"contracts/LunchVenue_new.sol\":5181:5240  if (msg.sender != manager) revert LunchVenue__OnlyManager() */\n    tag_152:\n        /* \"contracts/LunchVenue_new.sol\":8995:9010  State.Cancelled */\n      0x03\n        /* \"contracts/LunchVenue_new.sol\":8987:8992  state */\n      0x05\n      0x00\n        /* \"contracts/LunchVenue_new.sol\":8987:9010  state = State.Cancelled */\n      0x0100\n      exp\n      dup2\n      sload\n      dup2\n      0xff\n      mul\n      not\n      and\n      swap1\n      dup4\n      0x03\n      dup2\n      gt\n      iszero\n      tag_154\n      jumpi\n      tag_155\n      tag_80\n      jump\t// in\n    tag_155:\n    tag_154:\n      mul\n      or\n      swap1\n      sstore\n      pop\n        /* \"contracts/LunchVenue_new.sol\":8935:9017  function cancelVoting() public restricted {... */\n      jump\t// out\n        /* \"contracts/LunchVenue_new.sol\":4535:4555  uint public numVotes */\n    tag_60:\n      sload(0x04)\n      dup2\n      jump\t// out\n        /* \"contracts/LunchVenue_new.sol\":4300:4342  mapping(uint => string) public restaurants */\n    tag_64:\n      mstore(0x20, 0x00)\n      dup1\n      0x00\n      mstore\n      keccak256(0x00, 0x40)\n      0x00\n      swap2\n      pop\n      swap1\n      pop\n      dup1\n      sload\n      tag_156\n      swap1\n      tag_86\n      jump\t// in\n    tag_156:\n      dup1\n      0x1f\n      add\n      0x20\n      dup1\n      swap2\n      div\n      mul\n      0x20\n      add\n      mload(0x40)\n      swap1\n      dup2\n      add\n      0x40\n      mstore\n      dup1\n      swap3\n      swap2\n      swap1\n      dup2\n      dup2\n      mstore\n      0x20\n      add\n      dup3\n      dup1\n      sload\n      tag_157\n      swap1\n      tag_86\n      jump\t// in\n    tag_157:\n      dup1\n      iszero\n      tag_158\n      jumpi\n      dup1\n      0x1f\n      lt\n      tag_159\n      jumpi\n      0x0100\n      dup1\n      dup4\n      sload\n      div\n      mul\n      dup4\n      mstore\n      swap2\n      0x20\n      add\n      swap2\n      jump(tag_158)\n    tag_159:\n      dup3\n      add\n      swap2\n      swap1\n      0x00\n      mstore\n      keccak256(0x00, 0x20)\n      swap1\n    tag_160:\n      dup2\n      sload\n      dup2\n      mstore\n      swap1\n      0x01\n      add\n      swap1\n      0x20\n      add\n      dup1\n      dup4\n      gt\n      tag_160\n      jumpi\n      dup3\n      swap1\n      sub\n      0x1f\n      and\n      dup3\n      add\n      swap2\n    tag_158:\n      pop\n      pop\n      pop\n      pop\n      pop\n      dup2\n      jump\t// out\n        /* \"contracts/LunchVenue_new.sol\":4475:4501  uint public numRestaurants */\n    tag_68:\n      sload(0x02)\n      dup2\n      jump\t// out\n        /* \"contracts/LunchVenue_new.sol\":4618:4636  State public state */\n    tag_71:\n      0x05\n      0x00\n      swap1\n      sload\n      swap1\n      0x0100\n      exp\n      swap1\n      div\n      0xff\n      and\n      dup2\n      jump\t// out\n        /* \"contracts/LunchVenue_new.sol\":4642:4671  string public votedRestaurant */\n    tag_75:\n      0x06\n      dup1\n      sload\n      tag_161\n      swap1\n      tag_86\n      jump\t// in\n    tag_161:\n      dup1\n      0x1f\n      add\n      0x20\n      dup1\n      swap2\n      div\n      mul\n      0x20\n      add\n      mload(0x40)\n      swap1\n      dup2\n      add\n      0x40\n      mstore\n      dup1\n      swap3\n      swap2\n      swap1\n      dup2\n      dup2\n      mstore\n      0x20\n      add\n      dup3\n      dup1\n      sload\n      tag_162\n      swap1\n      tag_86\n      jump\t// in\n    tag_162:\n      dup1\n      iszero\n      tag_163\n      jumpi\n      dup1\n      0x1f\n      lt\n      tag_164\n      jumpi\n      0x0100\n      dup1\n      dup4\n      sload\n      div\n      mul\n      dup4\n      mstore\n      swap2\n      0x20\n      add\n      swap2\n      jump(tag_163)\n    tag_164:\n      dup3\n      add\n      swap2\n      swap1\n      0x00\n      mstore\n      keccak256(0x00, 0x20)\n      swap1\n    tag_165:\n      dup2\n      sload\n      dup2\n      mstore\n      swap1\n      0x01\n      add\n      swap1\n      0x20\n      add\n      dup1\n      dup4\n      gt\n      tag_165\n      jumpi\n      dup3\n      swap1\n      sub\n      0x1f\n      and\n      dup3\n      add\n      swap2\n    tag_163:\n      pop\n      pop\n      pop\n      pop\n      pop\n      dup2\n      jump\t// out\n        /* \"contracts/LunchVenue_new.sol\":9171:9966  function finalResult() private {... */\n    tag_101:\n        /* \"contracts/LunchVenue_new.sol\":9212:9229  uint highestVotes */\n      0x00\n        /* \"contracts/LunchVenue_new.sol\":9239:9261  uint highestRestaurant */\n      dup1\n        /* \"contracts/LunchVenue_new.sol\":9276:9282  uint i */\n      0x00\n        /* \"contracts/LunchVenue_new.sol\":9285:9286  1 */\n      0x01\n        /* \"contracts/LunchVenue_new.sol\":9276:9286  uint i = 1 */\n      swap1\n      pop\n        /* \"contracts/LunchVenue_new.sol\":9271:9830  for (uint i = 1; i <= numVotes; ) {... */\n    tag_167:\n        /* \"contracts/LunchVenue_new.sol\":9293:9301  numVotes */\n      sload(0x04)\n        /* \"contracts/LunchVenue_new.sol\":9288:9289  i */\n      dup2\n        /* \"contracts/LunchVenue_new.sol\":9288:9301  i <= numVotes */\n      gt\n        /* \"contracts/LunchVenue_new.sol\":9271:9830  for (uint i = 1; i <= numVotes; ) {... */\n      tag_168\n      jumpi\n        /* \"contracts/LunchVenue_new.sol\":9347:9361  uint voteCount */\n      0x00\n        /* \"contracts/LunchVenue_new.sol\":9364:9365  1 */\n      0x01\n        /* \"contracts/LunchVenue_new.sol\":9347:9365  uint voteCount = 1 */\n      swap1\n      pop\n        /* \"contracts/LunchVenue_new.sol\":9415:9416  0 */\n      0x00\n        /* \"contracts/LunchVenue_new.sol\":9383:9391  _results */\n      0x08\n        /* \"contracts/LunchVenue_new.sol\":9383:9412  _results[votes[i].restaurant] */\n      0x00\n        /* \"contracts/LunchVenue_new.sol\":9392:9397  votes */\n      0x07\n        /* \"contracts/LunchVenue_new.sol\":9392:9400  votes[i] */\n      0x00\n        /* \"contracts/LunchVenue_new.sol\":9398:9399  i */\n      dup7\n        /* \"contracts/LunchVenue_new.sol\":9392:9400  votes[i] */\n      dup2\n      mstore\n      0x20\n      add\n      swap1\n      dup2\n      mstore\n      0x20\n      add\n      0x00\n      keccak256\n        /* \"contracts/LunchVenue_new.sol\":9392:9411  votes[i].restaurant */\n      0x01\n      add\n      sload\n        /* \"contracts/LunchVenue_new.sol\":9383:9412  _results[votes[i].restaurant] */\n      dup2\n      mstore\n      0x20\n      add\n      swap1\n      dup2\n      mstore\n      0x20\n      add\n      0x00\n      keccak256\n      sload\n        /* \"contracts/LunchVenue_new.sol\":9383:9416  _results[votes[i].restaurant] > 0 */\n      gt\n        /* \"contracts/LunchVenue_new.sol\":9379:9535  if (_results[votes[i].restaurant] > 0) {... */\n      iszero\n      tag_170\n      jumpi\n        /* \"contracts/LunchVenue_new.sol\":9491:9499  _results */\n      0x08\n        /* \"contracts/LunchVenue_new.sol\":9491:9520  _results[votes[i].restaurant] */\n      0x00\n        /* \"contracts/LunchVenue_new.sol\":9500:9505  votes */\n      0x07\n        /* \"contracts/LunchVenue_new.sol\":9500:9508  votes[i] */\n      0x00\n        /* \"contracts/LunchVenue_new.sol\":9506:9507  i */\n      dup6\n        /* \"contracts/LunchVenue_new.sol\":9500:9508  votes[i] */\n      dup2\n      mstore\n      0x20\n      add\n      swap1\n      dup2\n      mstore\n      0x20\n      add\n      0x00\n      keccak256\n        /* \"contracts/LunchVenue_new.sol\":9500:9519  votes[i].restaurant */\n      0x01\n      add\n      sload\n        /* \"contracts/LunchVenue_new.sol\":9491:9520  _results[votes[i].restaurant] */\n      dup2\n      mstore\n      0x20\n      add\n      swap1\n      dup2\n      mstore\n      0x20\n      add\n      0x00\n      keccak256\n      sload\n        /* \"contracts/LunchVenue_new.sol\":9478:9520  voteCount += _results[votes[i].restaurant] */\n      dup2\n      tag_171\n      swap2\n      swap1\n      tag_98\n      jump\t// in\n    tag_171:\n      swap1\n      pop\n        /* \"contracts/LunchVenue_new.sol\":9379:9535  if (_results[votes[i].restaurant] > 0) {... */\n    tag_170:\n        /* \"contracts/LunchVenue_new.sol\":9580:9589  voteCount */\n      dup1\n        /* \"contracts/LunchVenue_new.sol\":9548:9556  _results */\n      0x08\n        /* \"contracts/LunchVenue_new.sol\":9548:9577  _results[votes[i].restaurant] */\n      0x00\n        /* \"contracts/LunchVenue_new.sol\":9557:9562  votes */\n      0x07\n        /* \"contracts/LunchVenue_new.sol\":9557:9565  votes[i] */\n      0x00\n        /* \"contracts/LunchVenue_new.sol\":9563:9564  i */\n      dup7\n        /* \"contracts/LunchVenue_new.sol\":9557:9565  votes[i] */\n      dup2\n      mstore\n      0x20\n      add\n      swap1\n      dup2\n      mstore\n      0x20\n      add\n      0x00\n      keccak256\n        /* \"contracts/LunchVenue_new.sol\":9557:9576  votes[i].restaurant */\n      0x01\n      add\n      sload\n        /* \"contracts/LunchVenue_new.sol\":9548:9577  _results[votes[i].restaurant] */\n      dup2\n      mstore\n      0x20\n      add\n      swap1\n      dup2\n      mstore\n      0x20\n      add\n      0x00\n      keccak256\n        /* \"contracts/LunchVenue_new.sol\":9548:9589  _results[votes[i].restaurant] = voteCount */\n      dup2\n      swap1\n      sstore\n      pop\n        /* \"contracts/LunchVenue_new.sol\":9619:9631  highestVotes */\n      dup4\n        /* \"contracts/LunchVenue_new.sol\":9607:9616  voteCount */\n      dup2\n        /* \"contracts/LunchVenue_new.sol\":9607:9631  voteCount > highestVotes */\n      gt\n        /* \"contracts/LunchVenue_new.sol\":9603:9761  if (voteCount > highestVotes) {... */\n      iszero\n      tag_172\n      jumpi\n        /* \"contracts/LunchVenue_new.sol\":9727:9732  votes */\n      0x07\n        /* \"contracts/LunchVenue_new.sol\":9727:9735  votes[i] */\n      0x00\n        /* \"contracts/LunchVenue_new.sol\":9733:9734  i */\n      dup4\n        /* \"contracts/LunchVenue_new.sol\":9727:9735  votes[i] */\n      dup2\n      mstore\n      0x20\n      add\n      swap1\n      dup2\n      mstore\n      0x20\n      add\n      0x00\n      keccak256\n        /* \"contracts/LunchVenue_new.sol\":9727:9746  votes[i].restaurant */\n      0x01\n      add\n      sload\n        /* \"contracts/LunchVenue_new.sol\":9707:9746  highestRestaurant = votes[i].restaurant */\n      swap3\n      pop\n        /* \"contracts/LunchVenue_new.sol\":9603:9761  if (voteCount > highestVotes) {... */\n    tag_172:\n        /* \"contracts/LunchVenue_new.sol\":9802:9805  ++i */\n      dup2\n      0x01\n      add\n      swap2\n      pop\n        /* \"contracts/LunchVenue_new.sol\":9305:9830  {... */\n      pop\n        /* \"contracts/LunchVenue_new.sol\":9271:9830  for (uint i = 1; i <= numVotes; ) {... */\n      jump(tag_167)\n    tag_168:\n      pop\n        /* \"contracts/LunchVenue_new.sol\":9857:9868  restaurants */\n      0x00\n        /* \"contracts/LunchVenue_new.sol\":9857:9887  restaurants[highestRestaurant] */\n      dup1\n        /* \"contracts/LunchVenue_new.sol\":9869:9886  highestRestaurant */\n      dup3\n        /* \"contracts/LunchVenue_new.sol\":9857:9887  restaurants[highestRestaurant] */\n      dup2\n      mstore\n      0x20\n      add\n      swap1\n      dup2\n      mstore\n      0x20\n      add\n      0x00\n      keccak256\n        /* \"contracts/LunchVenue_new.sol\":9839:9854  votedRestaurant */\n      0x06\n        /* \"contracts/LunchVenue_new.sol\":9839:9887  votedRestaurant = restaurants[highestRestaurant] */\n      swap1\n      dup1\n      sload\n      tag_173\n      swap1\n      tag_86\n      jump\t// in\n    tag_173:\n      tag_174\n      swap3\n      swap2\n      swap1\n      tag_175\n      jump\t// in\n    tag_174:\n      pop\n        /* \"contracts/LunchVenue_new.sol\":9925:9936  State.Ended */\n      0x02\n        /* \"contracts/LunchVenue_new.sol\":9917:9922  state */\n      0x05\n      0x00\n        /* \"contracts/LunchVenue_new.sol\":9917:9936  state = State.Ended */\n      0x0100\n      exp\n      dup2\n      sload\n      dup2\n      0xff\n      mul\n      not\n      and\n      swap1\n      dup4\n      0x03\n      dup2\n      gt\n      iszero\n      tag_176\n      jumpi\n      tag_177\n      tag_80\n      jump\t// in\n    tag_177:\n    tag_176:\n      mul\n      or\n      swap1\n      sstore\n      pop\n        /* \"contracts/LunchVenue_new.sol\":9202:9966  {... */\n      pop\n      pop\n        /* \"contracts/LunchVenue_new.sol\":9171:9966  function finalResult() private {... */\n      jump\t// out\n    tag_92:\n      mload(0x40)\n      dup1\n      0x40\n      add\n      0x40\n      mstore\n      dup1\n      and(0xffffffffffffffffffffffffffffffffffffffff, 0x00)\n      dup2\n      mstore\n      0x20\n      add\n      0x00\n      dup2\n      mstore\n      pop\n      swap1\n      jump\t// out\n    tag_130:\n      mload(0x40)\n      dup1\n      0x40\n      add\n      0x40\n      mstore\n      dup1\n      0x60\n      dup2\n      mstore\n      0x20\n      add\n      iszero(iszero(0x00))\n      dup2\n      mstore\n      pop\n      swap1\n      jump\t// out\n    tag_132:\n      dup3\n      dup1\n      sload\n      tag_178\n      swap1\n      tag_86\n      jump\t// in\n    tag_178:\n      swap1\n      0x00\n      mstore\n      keccak256(0x00, 0x20)\n      swap1\n      0x1f\n      add\n      0x20\n      swap1\n      div\n      dup2\n      add\n      swap3\n      dup3\n      tag_180\n      jumpi\n      0x00\n      dup6\n      sstore\n      jump(tag_179)\n    tag_180:\n      dup3\n      0x1f\n      lt\n      tag_181\n      jumpi\n      dup1\n      mload\n      not(0xff)\n      and\n      dup4\n      dup1\n      add\n      or\n      dup6\n      sstore\n      jump(tag_179)\n    tag_181:\n      dup3\n      dup1\n      add\n      0x01\n      add\n      dup6\n      sstore\n      dup3\n      iszero\n      tag_179\n      jumpi\n      swap2\n      dup3\n      add\n    tag_182:\n      dup3\n      dup2\n      gt\n      iszero\n      tag_183\n      jumpi\n      dup3\n      mload\n      dup3\n      sstore\n      swap2\n      0x20\n      add\n      swap2\n      swap1\n      0x01\n      add\n      swap1\n      jump(tag_182)\n    tag_183:\n    tag_179:\n      pop\n      swap1\n      pop\n      tag_184\n      swap2\n      swap1\n      tag_185\n      jump\t// in\n    tag_184:\n      pop\n      swap1\n      jump\t// out\n    tag_175:\n      dup3\n      dup1\n      sload\n      tag_186\n      swap1\n      tag_86\n      jump\t// in\n    tag_186:\n      swap1\n      0x00\n      mstore\n      keccak256(0x00, 0x20)\n      swap1\n      0x1f\n      add\n      0x20\n      swap1\n      div\n      dup2\n      add\n      swap3\n      dup3\n      tag_188\n      jumpi\n      0x00\n      dup6\n      sstore\n      jump(tag_187)\n    tag_188:\n      dup3\n      0x1f\n      lt\n      tag_189\n      jumpi\n      dup1\n      sload\n      dup6\n      sstore\n      jump(tag_187)\n    tag_189:\n      dup3\n      dup1\n      add\n      0x01\n      add\n      dup6\n      sstore\n      dup3\n      iszero\n      tag_187\n      jumpi\n      0x00\n      mstore\n      keccak256(0x00, 0x20)\n      swap2\n      0x1f\n      add\n      0x20\n      swap1\n      div\n      dup3\n      add\n    tag_190:\n      dup3\n      dup2\n      gt\n      iszero\n      tag_191\n      jumpi\n      dup3\n      sload\n      dup3\n      sstore\n      swap2\n      0x01\n      add\n      swap2\n      swap1\n      0x01\n      add\n      swap1\n      jump(tag_190)\n    tag_191:\n    tag_187:\n      pop\n      swap1\n      pop\n      tag_192\n      swap2\n      swap1\n      tag_185\n      jump\t// in\n    tag_192:\n      pop\n      swap1\n      jump\t// out\n    tag_185:\n    tag_193:\n      dup1\n      dup3\n      gt\n      iszero\n      tag_194\n      jumpi\n      0x00\n      dup2\n      0x00\n      swap1\n      sstore\n      pop\n      0x01\n      add\n      jump(tag_193)\n    tag_194:\n      pop\n      swap1\n      jump\t// out\n        /* \"#utility.yul\":7:419   */\n    tag_196:\n        /* \"#utility.yul\":85:90   */\n      0x00\n        /* \"#utility.yul\":110:176   */\n      tag_198\n        /* \"#utility.yul\":126:175   */\n      tag_199\n        /* \"#utility.yul\":168:174   */\n      dup5\n        /* \"#utility.yul\":126:175   */\n      tag_200\n      jump\t// in\n    tag_199:\n        /* \"#utility.yul\":110:176   */\n      tag_201\n      jump\t// in\n    tag_198:\n        /* \"#utility.yul\":101:176   */\n      swap1\n      pop\n        /* \"#utility.yul\":199:205   */\n      dup3\n        /* \"#utility.yul\":192:197   */\n      dup2\n        /* \"#utility.yul\":185:206   */\n      mstore\n        /* \"#utility.yul\":237:241   */\n      0x20\n        /* \"#utility.yul\":230:235   */\n      dup2\n        /* \"#utility.yul\":226:242   */\n      add\n        /* \"#utility.yul\":275:278   */\n      dup5\n        /* \"#utility.yul\":266:272   */\n      dup5\n        /* \"#utility.yul\":261:264   */\n      dup5\n        /* \"#utility.yul\":257:273   */\n      add\n        /* \"#utility.yul\":254:279   */\n      gt\n        /* \"#utility.yul\":251:253   */\n      iszero\n      tag_202\n      jumpi\n        /* \"#utility.yul\":282:361   */\n      tag_203\n      tag_204\n      jump\t// in\n    tag_203:\n        /* \"#utility.yul\":251:253   */\n    tag_202:\n        /* \"#utility.yul\":372:413   */\n      tag_205\n        /* \"#utility.yul\":406:412   */\n      dup5\n        /* \"#utility.yul\":401:404   */\n      dup3\n        /* \"#utility.yul\":396:399   */\n      dup6\n        /* \"#utility.yul\":372:413   */\n      tag_206\n      jump\t// in\n    tag_205:\n        /* \"#utility.yul\":91:419   */\n      pop\n      swap4\n      swap3\n      pop\n      pop\n      pop\n      jump\t// out\n        /* \"#utility.yul\":425:564   */\n    tag_207:\n        /* \"#utility.yul\":471:476   */\n      0x00\n        /* \"#utility.yul\":509:515   */\n      dup2\n        /* \"#utility.yul\":496:516   */\n      calldataload\n        /* \"#utility.yul\":487:516   */\n      swap1\n      pop\n        /* \"#utility.yul\":525:558   */\n      tag_209\n        /* \"#utility.yul\":552:557   */\n      dup2\n        /* \"#utility.yul\":525:558   */\n      tag_210\n      jump\t// in\n    tag_209:\n        /* \"#utility.yul\":477:564   */\n      swap3\n      swap2\n      pop\n      pop\n      jump\t// out\n        /* \"#utility.yul\":584:924   */\n    tag_211:\n        /* \"#utility.yul\":640:645   */\n      0x00\n        /* \"#utility.yul\":689:692   */\n      dup3\n        /* \"#utility.yul\":682:686   */\n      0x1f\n        /* \"#utility.yul\":674:680   */\n      dup4\n        /* \"#utility.yul\":670:687   */\n      add\n        /* \"#utility.yul\":666:693   */\n      slt\n        /* \"#utility.yul\":656:658   */\n      tag_213\n      jumpi\n        /* \"#utility.yul\":697:776   */\n      tag_214\n      tag_215\n      jump\t// in\n    tag_214:\n        /* \"#utility.yul\":656:658   */\n    tag_213:\n        /* \"#utility.yul\":814:820   */\n      dup2\n        /* \"#utility.yul\":801:821   */\n      calldataload\n        /* \"#utility.yul\":839:918   */\n      tag_216\n        /* \"#utility.yul\":914:917   */\n      dup5\n        /* \"#utility.yul\":906:912   */\n      dup3\n        /* \"#utility.yul\":899:903   */\n      0x20\n        /* \"#utility.yul\":891:897   */\n      dup7\n        /* \"#utility.yul\":887:904   */\n      add\n        /* \"#utility.yul\":839:918   */\n      tag_196\n      jump\t// in\n    tag_216:\n        /* \"#utility.yul\":830:918   */\n      swap2\n      pop\n        /* \"#utility.yul\":646:924   */\n      pop\n      swap3\n      swap2\n      pop\n      pop\n      jump\t// out\n        /* \"#utility.yul\":930:1069   */\n    tag_217:\n        /* \"#utility.yul\":976:981   */\n      0x00\n        /* \"#utility.yul\":1014:1020   */\n      dup2\n        /* \"#utility.yul\":1001:1021   */\n      calldataload\n        /* \"#utility.yul\":992:1021   */\n      swap1\n      pop\n        /* \"#utility.yul\":1030:1063   */\n      tag_219\n        /* \"#utility.yul\":1057:1062   */\n      dup2\n        /* \"#utility.yul\":1030:1063   */\n      tag_220\n      jump\t// in\n    tag_219:\n        /* \"#utility.yul\":982:1069   */\n      swap3\n      swap2\n      pop\n      pop\n      jump\t// out\n        /* \"#utility.yul\":1075:1404   */\n    tag_28:\n        /* \"#utility.yul\":1134:1140   */\n      0x00\n        /* \"#utility.yul\":1183:1185   */\n      0x20\n        /* \"#utility.yul\":1171:1180   */\n      dup3\n        /* \"#utility.yul\":1162:1169   */\n      dup5\n        /* \"#utility.yul\":1158:1181   */\n      sub\n        /* \"#utility.yul\":1154:1186   */\n      slt\n        /* \"#utility.yul\":1151:1153   */\n      iszero\n      tag_222\n      jumpi\n        /* \"#utility.yul\":1189:1268   */\n      tag_223\n      tag_224\n      jump\t// in\n    tag_223:\n        /* \"#utility.yul\":1151:1153   */\n    tag_222:\n        /* \"#utility.yul\":1309:1310   */\n      0x00\n        /* \"#utility.yul\":1334:1387   */\n      tag_225\n        /* \"#utility.yul\":1379:1386   */\n      dup5\n        /* \"#utility.yul\":1370:1376   */\n      dup3\n        /* \"#utility.yul\":1359:1368   */\n      dup6\n        /* \"#utility.yul\":1355:1377   */\n      add\n        /* \"#utility.yul\":1334:1387   */\n      tag_207\n      jump\t// in\n    tag_225:\n        /* \"#utility.yul\":1324:1387   */\n      swap2\n      pop\n        /* \"#utility.yul\":1280:1397   */\n      pop\n        /* \"#utility.yul\":1141:1404   */\n      swap3\n      swap2\n      pop\n      pop\n      jump\t// out\n        /* \"#utility.yul\":1410:2064   */\n    tag_36:\n        /* \"#utility.yul\":1488:1494   */\n      0x00\n        /* \"#utility.yul\":1496:1502   */\n      dup1\n        /* \"#utility.yul\":1545:1547   */\n      0x40\n        /* \"#utility.yul\":1533:1542   */\n      dup4\n        /* \"#utility.yul\":1524:1531   */\n      dup6\n        /* \"#utility.yul\":1520:1543   */\n      sub\n        /* \"#utility.yul\":1516:1548   */\n      slt\n        /* \"#utility.yul\":1513:1515   */\n      iszero\n      tag_227\n      jumpi\n        /* \"#utility.yul\":1551:1630   */\n      tag_228\n      tag_224\n      jump\t// in\n    tag_228:\n        /* \"#utility.yul\":1513:1515   */\n    tag_227:\n        /* \"#utility.yul\":1671:1672   */\n      0x00\n        /* \"#utility.yul\":1696:1749   */\n      tag_229\n        /* \"#utility.yul\":1741:1748   */\n      dup6\n        /* \"#utility.yul\":1732:1738   */\n      dup3\n        /* \"#utility.yul\":1721:1730   */\n      dup7\n        /* \"#utility.yul\":1717:1739   */\n      add\n        /* \"#utility.yul\":1696:1749   */\n      tag_207\n      jump\t// in\n    tag_229:\n        /* \"#utility.yul\":1686:1749   */\n      swap3\n      pop\n        /* \"#utility.yul\":1642:1759   */\n      pop\n        /* \"#utility.yul\":1826:1828   */\n      0x20\n        /* \"#utility.yul\":1815:1824   */\n      dup4\n        /* \"#utility.yul\":1811:1829   */\n      add\n        /* \"#utility.yul\":1798:1830   */\n      calldataload\n        /* \"#utility.yul\":1857:1875   */\n      0xffffffffffffffff\n        /* \"#utility.yul\":1849:1855   */\n      dup2\n        /* \"#utility.yul\":1846:1876   */\n      gt\n        /* \"#utility.yul\":1843:1845   */\n      iszero\n      tag_230\n      jumpi\n        /* \"#utility.yul\":1879:1958   */\n      tag_231\n      tag_232\n      jump\t// in\n    tag_231:\n        /* \"#utility.yul\":1843:1845   */\n    tag_230:\n        /* \"#utility.yul\":1984:2047   */\n      tag_233\n        /* \"#utility.yul\":2039:2046   */\n      dup6\n        /* \"#utility.yul\":2030:2036   */\n      dup3\n        /* \"#utility.yul\":2019:2028   */\n      dup7\n        /* \"#utility.yul\":2015:2037   */\n      add\n        /* \"#utility.yul\":1984:2047   */\n      tag_211\n      jump\t// in\n    tag_233:\n        /* \"#utility.yul\":1974:2047   */\n      swap2\n      pop\n        /* \"#utility.yul\":1769:2057   */\n      pop\n        /* \"#utility.yul\":1503:2064   */\n      swap3\n      pop\n      swap3\n      swap1\n      pop\n      jump\t// out\n        /* \"#utility.yul\":2070:2579   */\n    tag_54:\n        /* \"#utility.yul\":2139:2145   */\n      0x00\n        /* \"#utility.yul\":2188:2190   */\n      0x20\n        /* \"#utility.yul\":2176:2185   */\n      dup3\n        /* \"#utility.yul\":2167:2174   */\n      dup5\n        /* \"#utility.yul\":2163:2186   */\n      sub\n        /* \"#utility.yul\":2159:2191   */\n      slt\n        /* \"#utility.yul\":2156:2158   */\n      iszero\n      tag_235\n      jumpi\n        /* \"#utility.yul\":2194:2273   */\n      tag_236\n      tag_224\n      jump\t// in\n    tag_236:\n        /* \"#utility.yul\":2156:2158   */\n    tag_235:\n        /* \"#utility.yul\":2342:2343   */\n      0x00\n        /* \"#utility.yul\":2331:2340   */\n      dup3\n        /* \"#utility.yul\":2327:2344   */\n      add\n        /* \"#utility.yul\":2314:2345   */\n      calldataload\n        /* \"#utility.yul\":2372:2390   */\n      0xffffffffffffffff\n        /* \"#utility.yul\":2364:2370   */\n      dup2\n        /* \"#utility.yul\":2361:2391   */\n      gt\n        /* \"#utility.yul\":2358:2360   */\n      iszero\n      tag_237\n      jumpi\n        /* \"#utility.yul\":2394:2473   */\n      tag_238\n      tag_232\n      jump\t// in\n    tag_238:\n        /* \"#utility.yul\":2358:2360   */\n    tag_237:\n        /* \"#utility.yul\":2499:2562   */\n      tag_239\n        /* \"#utility.yul\":2554:2561   */\n      dup5\n        /* \"#utility.yul\":2545:2551   */\n      dup3\n        /* \"#utility.yul\":2534:2543   */\n      dup6\n        /* \"#utility.yul\":2530:2552   */\n      add\n        /* \"#utility.yul\":2499:2562   */\n      tag_211\n      jump\t// in\n    tag_239:\n        /* \"#utility.yul\":2489:2562   */\n      swap2\n      pop\n        /* \"#utility.yul\":2285:2572   */\n      pop\n        /* \"#utility.yul\":2146:2579   */\n      swap3\n      swap2\n      pop\n      pop\n      jump\t// out\n        /* \"#utility.yul\":2585:2914   */\n    tag_22:\n        /* \"#utility.yul\":2644:2650   */\n      0x00\n        /* \"#utility.yul\":2693:2695   */\n      0x20\n        /* \"#utility.yul\":2681:2690   */\n      dup3\n        /* \"#utility.yul\":2672:2679   */\n      dup5\n        /* \"#utility.yul\":2668:2691   */\n      sub\n        /* \"#utility.yul\":2664:2696   */\n      slt\n        /* \"#utility.yul\":2661:2663   */\n      iszero\n      tag_241\n      jumpi\n        /* \"#utility.yul\":2699:2778   */\n      tag_242\n      tag_224\n      jump\t// in\n    tag_242:\n        /* \"#utility.yul\":2661:2663   */\n    tag_241:\n        /* \"#utility.yul\":2819:2820   */\n      0x00\n        /* \"#utility.yul\":2844:2897   */\n      tag_243\n        /* \"#utility.yul\":2889:2896   */\n      dup5\n        /* \"#utility.yul\":2880:2886   */\n      dup3\n        /* \"#utility.yul\":2869:2878   */\n      dup6\n        /* \"#utility.yul\":2865:2887   */\n      add\n        /* \"#utility.yul\":2844:2897   */\n      tag_217\n      jump\t// in\n    tag_243:\n        /* \"#utility.yul\":2834:2897   */\n      swap2\n      pop\n        /* \"#utility.yul\":2790:2907   */\n      pop\n        /* \"#utility.yul\":2651:2914   */\n      swap3\n      swap2\n      pop\n      pop\n      jump\t// out\n        /* \"#utility.yul\":2920:3038   */\n    tag_244:\n        /* \"#utility.yul\":3007:3031   */\n      tag_246\n        /* \"#utility.yul\":3025:3030   */\n      dup2\n        /* \"#utility.yul\":3007:3031   */\n      tag_247\n      jump\t// in\n    tag_246:\n        /* \"#utility.yul\":3002:3005   */\n      dup3\n        /* \"#utility.yul\":2995:3032   */\n      mstore\n        /* \"#utility.yul\":2985:3038   */\n      pop\n      pop\n      jump\t// out\n        /* \"#utility.yul\":3044:3153   */\n    tag_248:\n        /* \"#utility.yul\":3125:3146   */\n      tag_250\n        /* \"#utility.yul\":3140:3145   */\n      dup2\n        /* \"#utility.yul\":3125:3146   */\n      tag_251\n      jump\t// in\n    tag_250:\n        /* \"#utility.yul\":3120:3123   */\n      dup3\n        /* \"#utility.yul\":3113:3147   */\n      mstore\n        /* \"#utility.yul\":3103:3153   */\n      pop\n      pop\n      jump\t// out\n        /* \"#utility.yul\":3181:4030   */\n    tag_252:\n        /* \"#utility.yul\":3286:3289   */\n      0x00\n        /* \"#utility.yul\":3323:3328   */\n      dup2\n        /* \"#utility.yul\":3317:3329   */\n      sload\n        /* \"#utility.yul\":3352:3388   */\n      tag_254\n        /* \"#utility.yul\":3378:3387   */\n      dup2\n        /* \"#utility.yul\":3352:3388   */\n      tag_86\n      jump\t// in\n    tag_254:\n        /* \"#utility.yul\":3404:3492   */\n      tag_255\n        /* \"#utility.yul\":3485:3491   */\n      dup2\n        /* \"#utility.yul\":3480:3483   */\n      dup7\n        /* \"#utility.yul\":3404:3492   */\n      tag_256\n      jump\t// in\n    tag_255:\n        /* \"#utility.yul\":3397:3492   */\n      swap5\n      pop\n        /* \"#utility.yul\":3523:3524   */\n      0x01\n        /* \"#utility.yul\":3512:3521   */\n      dup3\n        /* \"#utility.yul\":3508:3525   */\n      and\n        /* \"#utility.yul\":3539:3540   */\n      0x00\n        /* \"#utility.yul\":3534:3671   */\n      dup2\n      eq\n      tag_258\n      jumpi\n        /* \"#utility.yul\":3685:3686   */\n      0x01\n        /* \"#utility.yul\":3680:4024   */\n      dup2\n      eq\n      tag_259\n      jumpi\n        /* \"#utility.yul\":3501:4024   */\n      jump(tag_257)\n        /* \"#utility.yul\":3534:3671   */\n    tag_258:\n        /* \"#utility.yul\":3618:3622   */\n      0xff\n        /* \"#utility.yul\":3614:3623   */\n      not\n        /* \"#utility.yul\":3603:3612   */\n      dup4\n        /* \"#utility.yul\":3599:3624   */\n      and\n        /* \"#utility.yul\":3594:3597   */\n      dup7\n        /* \"#utility.yul\":3587:3625   */\n      mstore\n        /* \"#utility.yul\":3654:3660   */\n      dup2\n        /* \"#utility.yul\":3649:3652   */\n      dup7\n        /* \"#utility.yul\":3645:3661   */\n      add\n        /* \"#utility.yul\":3638:3661   */\n      swap4\n      pop\n        /* \"#utility.yul\":3534:3671   */\n      jump(tag_257)\n        /* \"#utility.yul\":3680:4024   */\n    tag_259:\n        /* \"#utility.yul\":3747:3788   */\n      tag_260\n        /* \"#utility.yul\":3782:3787   */\n      dup6\n        /* \"#utility.yul\":3747:3788   */\n      tag_261\n      jump\t// in\n    tag_260:\n        /* \"#utility.yul\":3810:3811   */\n      0x00\n        /* \"#utility.yul\":3824:3978   */\n    tag_262:\n        /* \"#utility.yul\":3838:3844   */\n      dup4\n        /* \"#utility.yul\":3835:3836   */\n      dup2\n        /* \"#utility.yul\":3832:3845   */\n      lt\n        /* \"#utility.yul\":3824:3978   */\n      iszero\n      tag_264\n      jumpi\n        /* \"#utility.yul\":3912:3919   */\n      dup2\n        /* \"#utility.yul\":3906:3920   */\n      sload\n        /* \"#utility.yul\":3902:3903   */\n      dup2\n        /* \"#utility.yul\":3897:3900   */\n      dup10\n        /* \"#utility.yul\":3893:3904   */\n      add\n        /* \"#utility.yul\":3886:3921   */\n      mstore\n        /* \"#utility.yul\":3962:3963   */\n      0x01\n        /* \"#utility.yul\":3953:3960   */\n      dup3\n        /* \"#utility.yul\":3949:3964   */\n      add\n        /* \"#utility.yul\":3938:3964   */\n      swap2\n      pop\n        /* \"#utility.yul\":3860:3864   */\n      0x20\n        /* \"#utility.yul\":3857:3858   */\n      dup2\n        /* \"#utility.yul\":3853:3865   */\n      add\n        /* \"#utility.yul\":3848:3865   */\n      swap1\n      pop\n        /* \"#utility.yul\":3824:3978   */\n      jump(tag_262)\n    tag_264:\n        /* \"#utility.yul\":4007:4013   */\n      dup4\n        /* \"#utility.yul\":4002:4005   */\n      dup9\n        /* \"#utility.yul\":3998:4014   */\n      add\n        /* \"#utility.yul\":3991:4014   */\n      swap6\n      pop\n        /* \"#utility.yul\":3687:4024   */\n      pop\n      pop\n        /* \"#utility.yul\":3501:4024   */\n    tag_257:\n      pop\n        /* \"#utility.yul\":3290:4030   */\n      pop\n      pop\n      swap3\n      swap2\n      pop\n      pop\n      jump\t// out\n        /* \"#utility.yul\":4036:4179   */\n    tag_265:\n        /* \"#utility.yul\":4129:4172   */\n      tag_267\n        /* \"#utility.yul\":4166:4171   */\n      dup2\n        /* \"#utility.yul\":4129:4172   */\n      tag_268\n      jump\t// in\n    tag_267:\n        /* \"#utility.yul\":4124:4127   */\n      dup3\n        /* \"#utility.yul\":4117:4173   */\n      mstore\n        /* \"#utility.yul\":4107:4179   */\n      pop\n      pop\n      jump\t// out\n        /* \"#utility.yul\":4185:4549   */\n    tag_269:\n        /* \"#utility.yul\":4273:4276   */\n      0x00\n        /* \"#utility.yul\":4301:4340   */\n      tag_271\n        /* \"#utility.yul\":4334:4339   */\n      dup3\n        /* \"#utility.yul\":4301:4340   */\n      tag_272\n      jump\t// in\n    tag_271:\n        /* \"#utility.yul\":4356:4427   */\n      tag_273\n        /* \"#utility.yul\":4420:4426   */\n      dup2\n        /* \"#utility.yul\":4415:4418   */\n      dup6\n        /* \"#utility.yul\":4356:4427   */\n      tag_274\n      jump\t// in\n    tag_273:\n        /* \"#utility.yul\":4349:4427   */\n      swap4\n      pop\n        /* \"#utility.yul\":4436:4488   */\n      tag_275\n        /* \"#utility.yul\":4481:4487   */\n      dup2\n        /* \"#utility.yul\":4476:4479   */\n      dup6\n        /* \"#utility.yul\":4469:4473   */\n      0x20\n        /* \"#utility.yul\":4462:4467   */\n      dup7\n        /* \"#utility.yul\":4458:4474   */\n      add\n        /* \"#utility.yul\":4436:4488   */\n      tag_276\n      jump\t// in\n    tag_275:\n        /* \"#utility.yul\":4513:4542   */\n      tag_277\n        /* \"#utility.yul\":4535:4541   */\n      dup2\n        /* \"#utility.yul\":4513:4542   */\n      tag_278\n      jump\t// in\n    tag_277:\n        /* \"#utility.yul\":4508:4511   */\n      dup5\n        /* \"#utility.yul\":4504:4543   */\n      add\n        /* \"#utility.yul\":4497:4543   */\n      swap2\n      pop\n        /* \"#utility.yul\":4277:4549   */\n      pop\n      swap3\n      swap2\n      pop\n      pop\n      jump\t// out\n        /* \"#utility.yul\":4555:4673   */\n    tag_279:\n        /* \"#utility.yul\":4642:4666   */\n      tag_281\n        /* \"#utility.yul\":4660:4665   */\n      dup2\n        /* \"#utility.yul\":4642:4666   */\n      tag_282\n      jump\t// in\n    tag_281:\n        /* \"#utility.yul\":4637:4640   */\n      dup3\n        /* \"#utility.yul\":4630:4667   */\n      mstore\n        /* \"#utility.yul\":4620:4673   */\n      pop\n      pop\n      jump\t// out\n        /* \"#utility.yul\":4679:4952   */\n    tag_147:\n        /* \"#utility.yul\":4810:4813   */\n      0x00\n        /* \"#utility.yul\":4832:4926   */\n      tag_284\n        /* \"#utility.yul\":4922:4925   */\n      dup3\n        /* \"#utility.yul\":4913:4919   */\n      dup5\n        /* \"#utility.yul\":4832:4926   */\n      tag_252\n      jump\t// in\n    tag_284:\n        /* \"#utility.yul\":4825:4926   */\n      swap2\n      pop\n        /* \"#utility.yul\":4943:4946   */\n      dup2\n        /* \"#utility.yul\":4936:4946   */\n      swap1\n      pop\n        /* \"#utility.yul\":4814:4952   */\n      swap3\n      swap2\n      pop\n      pop\n      jump\t// out\n        /* \"#utility.yul\":4958:5180   */\n    tag_46:\n        /* \"#utility.yul\":5051:5055   */\n      0x00\n        /* \"#utility.yul\":5089:5091   */\n      0x20\n        /* \"#utility.yul\":5078:5087   */\n      dup3\n        /* \"#utility.yul\":5074:5092   */\n      add\n        /* \"#utility.yul\":5066:5092   */\n      swap1\n      pop\n        /* \"#utility.yul\":5102:5173   */\n      tag_286\n        /* \"#utility.yul\":5170:5171   */\n      0x00\n        /* \"#utility.yul\":5159:5168   */\n      dup4\n        /* \"#utility.yul\":5155:5172   */\n      add\n        /* \"#utility.yul\":5146:5152   */\n      dup5\n        /* \"#utility.yul\":5102:5173   */\n      tag_244\n      jump\t// in\n    tag_286:\n        /* \"#utility.yul\":5056:5180   */\n      swap3\n      swap2\n      pop\n      pop\n      jump\t// out\n        /* \"#utility.yul\":5186:5518   */\n    tag_51:\n        /* \"#utility.yul\":5307:5311   */\n      0x00\n        /* \"#utility.yul\":5345:5347   */\n      0x40\n        /* \"#utility.yul\":5334:5343   */\n      dup3\n        /* \"#utility.yul\":5330:5348   */\n      add\n        /* \"#utility.yul\":5322:5348   */\n      swap1\n      pop\n        /* \"#utility.yul\":5358:5429   */\n      tag_288\n        /* \"#utility.yul\":5426:5427   */\n      0x00\n        /* \"#utility.yul\":5415:5424   */\n      dup4\n        /* \"#utility.yul\":5411:5428   */\n      add\n        /* \"#utility.yul\":5402:5408   */\n      dup6\n        /* \"#utility.yul\":5358:5429   */\n      tag_244\n      jump\t// in\n    tag_288:\n        /* \"#utility.yul\":5439:5511   */\n      tag_289\n        /* \"#utility.yul\":5507:5509   */\n      0x20\n        /* \"#utility.yul\":5496:5505   */\n      dup4\n        /* \"#utility.yul\":5492:5510   */\n      add\n        /* \"#utility.yul\":5483:5489   */\n      dup5\n        /* \"#utility.yul\":5439:5511   */\n      tag_279\n      jump\t// in\n    tag_289:\n        /* \"#utility.yul\":5312:5518   */\n      swap4\n      swap3\n      pop\n      pop\n      pop\n      jump\t// out\n        /* \"#utility.yul\":5524:5734   */\n    tag_25:\n        /* \"#utility.yul\":5611:5615   */\n      0x00\n        /* \"#utility.yul\":5649:5651   */\n      0x20\n        /* \"#utility.yul\":5638:5647   */\n      dup3\n        /* \"#utility.yul\":5634:5652   */\n      add\n        /* \"#utility.yul\":5626:5652   */\n      swap1\n      pop\n        /* \"#utility.yul\":5662:5727   */\n      tag_291\n        /* \"#utility.yul\":5724:5725   */\n      0x00\n        /* \"#utility.yul\":5713:5722   */\n      dup4\n        /* \"#utility.yul\":5709:5726   */\n      add\n        /* \"#utility.yul\":5700:5706   */\n      dup5\n        /* \"#utility.yul\":5662:5727   */\n      tag_248\n      jump\t// in\n    tag_291:\n        /* \"#utility.yul\":5616:5734   */\n      swap3\n      swap2\n      pop\n      pop\n      jump\t// out\n        /* \"#utility.yul\":5740:5974   */\n    tag_73:\n        /* \"#utility.yul\":5839:5843   */\n      0x00\n        /* \"#utility.yul\":5877:5879   */\n      0x20\n        /* \"#utility.yul\":5866:5875   */\n      dup3\n        /* \"#utility.yul\":5862:5880   */\n      add\n        /* \"#utility.yul\":5854:5880   */\n      swap1\n      pop\n        /* \"#utility.yul\":5890:5967   */\n      tag_293\n        /* \"#utility.yul\":5964:5965   */\n      0x00\n        /* \"#utility.yul\":5953:5962   */\n      dup4\n        /* \"#utility.yul\":5949:5966   */\n      add\n        /* \"#utility.yul\":5940:5946   */\n      dup5\n        /* \"#utility.yul\":5890:5967   */\n      tag_265\n      jump\t// in\n    tag_293:\n        /* \"#utility.yul\":5844:5974   */\n      swap3\n      swap2\n      pop\n      pop\n      jump\t// out\n        /* \"#utility.yul\":5980:6293   */\n    tag_66:\n        /* \"#utility.yul\":6093:6097   */\n      0x00\n        /* \"#utility.yul\":6131:6133   */\n      0x20\n        /* \"#utility.yul\":6120:6129   */\n      dup3\n        /* \"#utility.yul\":6116:6134   */\n      add\n        /* \"#utility.yul\":6108:6134   */\n      swap1\n      pop\n        /* \"#utility.yul\":6180:6189   */\n      dup2\n        /* \"#utility.yul\":6174:6178   */\n      dup2\n        /* \"#utility.yul\":6170:6190   */\n      sub\n        /* \"#utility.yul\":6166:6167   */\n      0x00\n        /* \"#utility.yul\":6155:6164   */\n      dup4\n        /* \"#utility.yul\":6151:6168   */\n      add\n        /* \"#utility.yul\":6144:6191   */\n      mstore\n        /* \"#utility.yul\":6208:6286   */\n      tag_295\n        /* \"#utility.yul\":6281:6285   */\n      dup2\n        /* \"#utility.yul\":6272:6278   */\n      dup5\n        /* \"#utility.yul\":6208:6286   */\n      tag_269\n      jump\t// in\n    tag_295:\n        /* \"#utility.yul\":6200:6286   */\n      swap1\n      pop\n        /* \"#utility.yul\":6098:6293   */\n      swap3\n      swap2\n      pop\n      pop\n      jump\t// out\n        /* \"#utility.yul\":6299:6710   */\n    tag_31:\n        /* \"#utility.yul\":6434:6438   */\n      0x00\n        /* \"#utility.yul\":6472:6474   */\n      0x40\n        /* \"#utility.yul\":6461:6470   */\n      dup3\n        /* \"#utility.yul\":6457:6475   */\n      add\n        /* \"#utility.yul\":6449:6475   */\n      swap1\n      pop\n        /* \"#utility.yul\":6521:6530   */\n      dup2\n        /* \"#utility.yul\":6515:6519   */\n      dup2\n        /* \"#utility.yul\":6511:6531   */\n      sub\n        /* \"#utility.yul\":6507:6508   */\n      0x00\n        /* \"#utility.yul\":6496:6505   */\n      dup4\n        /* \"#utility.yul\":6492:6509   */\n      add\n        /* \"#utility.yul\":6485:6532   */\n      mstore\n        /* \"#utility.yul\":6549:6627   */\n      tag_297\n        /* \"#utility.yul\":6622:6626   */\n      dup2\n        /* \"#utility.yul\":6613:6619   */\n      dup6\n        /* \"#utility.yul\":6549:6627   */\n      tag_269\n      jump\t// in\n    tag_297:\n        /* \"#utility.yul\":6541:6627   */\n      swap1\n      pop\n        /* \"#utility.yul\":6637:6703   */\n      tag_298\n        /* \"#utility.yul\":6699:6701   */\n      0x20\n        /* \"#utility.yul\":6688:6697   */\n      dup4\n        /* \"#utility.yul\":6684:6702   */\n      add\n        /* \"#utility.yul\":6675:6681   */\n      dup5\n        /* \"#utility.yul\":6637:6703   */\n      tag_248\n      jump\t// in\n    tag_298:\n        /* \"#utility.yul\":6439:6710   */\n      swap4\n      swap3\n      pop\n      pop\n      pop\n      jump\t// out\n        /* \"#utility.yul\":6716:6938   */\n    tag_39:\n        /* \"#utility.yul\":6809:6813   */\n      0x00\n        /* \"#utility.yul\":6847:6849   */\n      0x20\n        /* \"#utility.yul\":6836:6845   */\n      dup3\n        /* \"#utility.yul\":6832:6850   */\n      add\n        /* \"#utility.yul\":6824:6850   */\n      swap1\n      pop\n        /* \"#utility.yul\":6860:6931   */\n      tag_300\n        /* \"#utility.yul\":6928:6929   */\n      0x00\n        /* \"#utility.yul\":6917:6926   */\n      dup4\n        /* \"#utility.yul\":6913:6930   */\n      add\n        /* \"#utility.yul\":6904:6910   */\n      dup5\n        /* \"#utility.yul\":6860:6931   */\n      tag_279\n      jump\t// in\n    tag_300:\n        /* \"#utility.yul\":6814:6938   */\n      swap3\n      swap2\n      pop\n      pop\n      jump\t// out\n        /* \"#utility.yul\":6944:7073   */\n    tag_201:\n        /* \"#utility.yul\":6978:6984   */\n      0x00\n        /* \"#utility.yul\":7005:7025   */\n      tag_302\n      tag_303\n      jump\t// in\n    tag_302:\n        /* \"#utility.yul\":6995:7025   */\n      swap1\n      pop\n        /* \"#utility.yul\":7034:7067   */\n      tag_304\n        /* \"#utility.yul\":7062:7066   */\n      dup3\n        /* \"#utility.yul\":7054:7060   */\n      dup3\n        /* \"#utility.yul\":7034:7067   */\n      tag_305\n      jump\t// in\n    tag_304:\n        /* \"#utility.yul\":6985:7073   */\n      swap2\n      swap1\n      pop\n      jump\t// out\n        /* \"#utility.yul\":7079:7154   */\n    tag_303:\n        /* \"#utility.yul\":7112:7118   */\n      0x00\n        /* \"#utility.yul\":7145:7147   */\n      0x40\n        /* \"#utility.yul\":7139:7148   */\n      mload\n        /* \"#utility.yul\":7129:7148   */\n      swap1\n      pop\n        /* \"#utility.yul\":7119:7154   */\n      swap1\n      jump\t// out\n        /* \"#utility.yul\":7160:7468   */\n    tag_200:\n        /* \"#utility.yul\":7222:7226   */\n      0x00\n        /* \"#utility.yul\":7312:7330   */\n      0xffffffffffffffff\n        /* \"#utility.yul\":7304:7310   */\n      dup3\n        /* \"#utility.yul\":7301:7331   */\n      gt\n        /* \"#utility.yul\":7298:7300   */\n      iszero\n      tag_308\n      jumpi\n        /* \"#utility.yul\":7334:7352   */\n      tag_309\n      tag_310\n      jump\t// in\n    tag_309:\n        /* \"#utility.yul\":7298:7300   */\n    tag_308:\n        /* \"#utility.yul\":7372:7401   */\n      tag_311\n        /* \"#utility.yul\":7394:7400   */\n      dup3\n        /* \"#utility.yul\":7372:7401   */\n      tag_278\n      jump\t// in\n    tag_311:\n        /* \"#utility.yul\":7364:7401   */\n      swap1\n      pop\n        /* \"#utility.yul\":7456:7460   */\n      0x20\n        /* \"#utility.yul\":7450:7454   */\n      dup2\n        /* \"#utility.yul\":7446:7461   */\n      add\n        /* \"#utility.yul\":7438:7461   */\n      swap1\n      pop\n        /* \"#utility.yul\":7227:7468   */\n      swap2\n      swap1\n      pop\n      jump\t// out\n        /* \"#utility.yul\":7474:7618   */\n    tag_261:\n        /* \"#utility.yul\":7526:7530   */\n      0x00\n        /* \"#utility.yul\":7549:7552   */\n      dup2\n        /* \"#utility.yul\":7541:7552   */\n      swap1\n      pop\n        /* \"#utility.yul\":7572:7575   */\n      dup2\n        /* \"#utility.yul\":7569:7570   */\n      0x00\n        /* \"#utility.yul\":7562:7576   */\n      mstore\n        /* \"#utility.yul\":7606:7610   */\n      0x20\n        /* \"#utility.yul\":7603:7604   */\n      0x00\n        /* \"#utility.yul\":7593:7611   */\n      keccak256\n        /* \"#utility.yul\":7585:7611   */\n      swap1\n      pop\n        /* \"#utility.yul\":7531:7618   */\n      swap2\n      swap1\n      pop\n      jump\t// out\n        /* \"#utility.yul\":7624:7723   */\n    tag_272:\n        /* \"#utility.yul\":7676:7682   */\n      0x00\n        /* \"#utility.yul\":7710:7715   */\n      dup2\n        /* \"#utility.yul\":7704:7716   */\n      mload\n        /* \"#utility.yul\":7694:7716   */\n      swap1\n      pop\n        /* \"#utility.yul\":7683:7723   */\n      swap2\n      swap1\n      pop\n      jump\t// out\n        /* \"#utility.yul\":7729:7876   */\n    tag_256:\n        /* \"#utility.yul\":7830:7841   */\n      0x00\n        /* \"#utility.yul\":7867:7870   */\n      dup2\n        /* \"#utility.yul\":7852:7870   */\n      swap1\n      pop\n        /* \"#utility.yul\":7842:7876   */\n      swap3\n      swap2\n      pop\n      pop\n      jump\t// out\n        /* \"#utility.yul\":7882:8051   */\n    tag_274:\n        /* \"#utility.yul\":7966:7977   */\n      0x00\n        /* \"#utility.yul\":8000:8006   */\n      dup3\n        /* \"#utility.yul\":7995:7998   */\n      dup3\n        /* \"#utility.yul\":7988:8007   */\n      mstore\n        /* \"#utility.yul\":8040:8044   */\n      0x20\n        /* \"#utility.yul\":8035:8038   */\n      dup3\n        /* \"#utility.yul\":8031:8045   */\n      add\n        /* \"#utility.yul\":8016:8045   */\n      swap1\n      pop\n        /* \"#utility.yul\":7978:8051   */\n      swap3\n      swap2\n      pop\n      pop\n      jump\t// out\n        /* \"#utility.yul\":8057:8362   */\n    tag_98:\n        /* \"#utility.yul\":8097:8100   */\n      0x00\n        /* \"#utility.yul\":8116:8136   */\n      tag_317\n        /* \"#utility.yul\":8134:8135   */\n      dup3\n        /* \"#utility.yul\":8116:8136   */\n      tag_282\n      jump\t// in\n    tag_317:\n        /* \"#utility.yul\":8111:8136   */\n      swap2\n      pop\n        /* \"#utility.yul\":8150:8170   */\n      tag_318\n        /* \"#utility.yul\":8168:8169   */\n      dup4\n        /* \"#utility.yul\":8150:8170   */\n      tag_282\n      jump\t// in\n    tag_318:\n        /* \"#utility.yul\":8145:8170   */\n      swap3\n      pop\n        /* \"#utility.yul\":8304:8305   */\n      dup3\n        /* \"#utility.yul\":8236:8302   */\n      0xffffffffffffffffffffffffffffffffffffffffffffffffffffffffffffffff\n        /* \"#utility.yul\":8232:8306   */\n      sub\n        /* \"#utility.yul\":8229:8230   */\n      dup3\n        /* \"#utility.yul\":8226:8307   */\n      gt\n        /* \"#utility.yul\":8223:8225   */\n      iszero\n      tag_319\n      jumpi\n        /* \"#utility.yul\":8310:8328   */\n      tag_320\n      tag_321\n      jump\t// in\n    tag_320:\n        /* \"#utility.yul\":8223:8225   */\n    tag_319:\n        /* \"#utility.yul\":8354:8355   */\n      dup3\n        /* \"#utility.yul\":8351:8352   */\n      dup3\n        /* \"#utility.yul\":8347:8356   */\n      add\n        /* \"#utility.yul\":8340:8356   */\n      swap1\n      pop\n        /* \"#utility.yul\":8101:8362   */\n      swap3\n      swap2\n      pop\n      pop\n      jump\t// out\n        /* \"#utility.yul\":8368:8553   */\n    tag_96:\n        /* \"#utility.yul\":8408:8409   */\n      0x00\n        /* \"#utility.yul\":8425:8445   */\n      tag_323\n        /* \"#utility.yul\":8443:8444   */\n      dup3\n        /* \"#utility.yul\":8425:8445   */\n      tag_282\n      jump\t// in\n    tag_323:\n        /* \"#utility.yul\":8420:8445   */\n      swap2\n      pop\n        /* \"#utility.yul\":8459:8479   */\n      tag_324\n        /* \"#utility.yul\":8477:8478   */\n      dup4\n        /* \"#utility.yul\":8459:8479   */\n      tag_282\n      jump\t// in\n    tag_324:\n        /* \"#utility.yul\":8454:8479   */\n      swap3\n      pop\n        /* \"#utility.yul\":8498:8499   */\n      dup3\n        /* \"#utility.yul\":8488:8490   */\n      tag_325\n      jumpi\n        /* \"#utility.yul\":8503:8521   */\n      tag_326\n      tag_327\n      jump\t// in\n    tag_326:\n        /* \"#utility.yul\":8488:8490   */\n    tag_325:\n        /* \"#utility.yul\":8545:8546   */\n      dup3\n        /* \"#utility.yul\":8542:8543   */\n      dup3\n        /* \"#utility.yul\":8538:8547   */\n      div\n        /* \"#utility.yul\":8533:8547   */\n      swap1\n      pop\n        /* \"#utility.yul\":8410:8553   */\n      swap3\n      swap2\n      pop\n      pop\n      jump\t// out\n        /* \"#utility.yul\":8559:8655   */\n    tag_247:\n        /* \"#utility.yul\":8596:8603   */\n      0x00\n        /* \"#utility.yul\":8625:8649   */\n      tag_329\n        /* \"#utility.yul\":8643:8648   */\n      dup3\n        /* \"#utility.yul\":8625:8649   */\n      tag_330\n      jump\t// in\n    tag_329:\n        /* \"#utility.yul\":8614:8649   */\n      swap1\n      pop\n        /* \"#utility.yul\":8604:8655   */\n      swap2\n      swap1\n      pop\n      jump\t// out\n        /* \"#utility.yul\":8661:8751   */\n    tag_251:\n        /* \"#utility.yul\":8695:8702   */\n      0x00\n        /* \"#utility.yul\":8738:8743   */\n      dup2\n        /* \"#utility.yul\":8731:8744   */\n      iszero\n        /* \"#utility.yul\":8724:8745   */\n      iszero\n        /* \"#utility.yul\":8713:8745   */\n      swap1\n      pop\n        /* \"#utility.yul\":8703:8751   */\n      swap2\n      swap1\n      pop\n      jump\t// out\n        /* \"#utility.yul\":8757:8884   */\n    tag_332:\n        /* \"#utility.yul\":8802:8809   */\n      0x00\n        /* \"#utility.yul\":8831:8836   */\n      dup2\n        /* \"#utility.yul\":8820:8836   */\n      swap1\n      pop\n        /* \"#utility.yul\":8837:8878   */\n      tag_334\n        /* \"#utility.yul\":8872:8877   */\n      dup3\n        /* \"#utility.yul\":8837:8878   */\n      tag_335\n      jump\t// in\n    tag_334:\n        /* \"#utility.yul\":8810:8884   */\n      swap2\n      swap1\n      pop\n      jump\t// out\n        /* \"#utility.yul\":8890:9016   */\n    tag_330:\n        /* \"#utility.yul\":8927:8934   */\n      0x00\n        /* \"#utility.yul\":8967:9009   */\n      0xffffffffffffffffffffffffffffffffffffffff\n        /* \"#utility.yul\":8960:8965   */\n      dup3\n        /* \"#utility.yul\":8956:9010   */\n      and\n        /* \"#utility.yul\":8945:9010   */\n      swap1\n      pop\n        /* \"#utility.yul\":8935:9016   */\n      swap2\n      swap1\n      pop\n      jump\t// out\n        /* \"#utility.yul\":9022:9099   */\n    tag_282:\n        /* \"#utility.yul\":9059:9066   */\n      0x00\n        /* \"#utility.yul\":9088:9093   */\n      dup2\n        /* \"#utility.yul\":9077:9093   */\n      swap1\n      pop\n        /* \"#utility.yul\":9067:9099   */\n      swap2\n      swap1\n      pop\n      jump\t// out\n        /* \"#utility.yul\":9105:9232   */\n    tag_268:\n        /* \"#utility.yul\":9161:9170   */\n      0x00\n        /* \"#utility.yul\":9194:9226   */\n      tag_339\n        /* \"#utility.yul\":9220:9225   */\n      dup3\n        /* \"#utility.yul\":9194:9226   */\n      tag_332\n      jump\t// in\n    tag_339:\n        /* \"#utility.yul\":9181:9226   */\n      swap1\n      pop\n        /* \"#utility.yul\":9171:9232   */\n      swap2\n      swap1\n      pop\n      jump\t// out\n        /* \"#utility.yul\":9238:9392   */\n    tag_206:\n        /* \"#utility.yul\":9322:9328   */\n      dup3\n        /* \"#utility.yul\":9317:9320   */\n      dup2\n        /* \"#utility.yul\":9312:9315   */\n      dup4\n        /* \"#utility.yul\":9299:9329   */\n      calldatacopy\n        /* \"#utility.yul\":9384:9385   */\n      0x00\n        /* \"#utility.yul\":9375:9381   */\n      dup4\n        /* \"#utility.yul\":9370:9373   */\n      dup4\n        /* \"#utility.yul\":9366:9382   */\n      add\n        /* \"#utility.yul\":9359:9386   */\n      mstore\n        /* \"#utility.yul\":9289:9392   */\n      pop\n      pop\n      pop\n      jump\t// out\n        /* \"#utility.yul\":9398:9705   */\n    tag_276:\n        /* \"#utility.yul\":9466:9467   */\n      0x00\n        /* \"#utility.yul\":9476:9589   */\n    tag_342:\n        /* \"#utility.yul\":9490:9496   */\n      dup4\n        /* \"#utility.yul\":9487:9488   */\n      dup2\n        /* \"#utility.yul\":9484:9497   */\n      lt\n        /* \"#utility.yul\":9476:9589   */\n      iszero\n      tag_344\n      jumpi\n        /* \"#utility.yul\":9575:9576   */\n      dup1\n        /* \"#utility.yul\":9570:9573   */\n      dup3\n        /* \"#utility.yul\":9566:9577   */\n      add\n        /* \"#utility.yul\":9560:9578   */\n      mload\n        /* \"#utility.yul\":9556:9557   */\n      dup2\n        /* \"#utility.yul\":9551:9554   */\n      dup5\n        /* \"#utility.yul\":9547:9558   */\n      add\n        /* \"#utility.yul\":9540:9579   */\n      mstore\n        /* \"#utility.yul\":9512:9514   */\n      0x20\n        /* \"#utility.yul\":9509:9510   */\n      dup2\n        /* \"#utility.yul\":9505:9515   */\n      add\n        /* \"#utility.yul\":9500:9515   */\n      swap1\n      pop\n        /* \"#utility.yul\":9476:9589   */\n      jump(tag_342)\n    tag_344:\n        /* \"#utility.yul\":9607:9613   */\n      dup4\n        /* \"#utility.yul\":9604:9605   */\n      dup2\n        /* \"#utility.yul\":9601:9614   */\n      gt\n        /* \"#utility.yul\":9598:9600   */\n      iszero\n      tag_345\n      jumpi\n        /* \"#utility.yul\":9687:9688   */\n      0x00\n        /* \"#utility.yul\":9678:9684   */\n      dup5\n        /* \"#utility.yul\":9673:9676   */\n      dup5\n        /* \"#utility.yul\":9669:9685   */\n      add\n        /* \"#utility.yul\":9662:9689   */\n      mstore\n        /* \"#utility.yul\":9598:9600   */\n    tag_345:\n        /* \"#utility.yul\":9447:9705   */\n      pop\n      pop\n      pop\n      pop\n      jump\t// out\n        /* \"#utility.yul\":9711:10031   */\n    tag_86:\n        /* \"#utility.yul\":9755:9761   */\n      0x00\n        /* \"#utility.yul\":9792:9793   */\n      0x02\n        /* \"#utility.yul\":9786:9790   */\n      dup3\n        /* \"#utility.yul\":9782:9794   */\n      div\n        /* \"#utility.yul\":9772:9794   */\n      swap1\n      pop\n        /* \"#utility.yul\":9839:9840   */\n      0x01\n        /* \"#utility.yul\":9833:9837   */\n      dup3\n        /* \"#utility.yul\":9829:9841   */\n      and\n        /* \"#utility.yul\":9860:9878   */\n      dup1\n        /* \"#utility.yul\":9850:9852   */\n      tag_347\n      jumpi\n        /* \"#utility.yul\":9916:9920   */\n      0x7f\n        /* \"#utility.yul\":9908:9914   */\n      dup3\n        /* \"#utility.yul\":9904:9921   */\n      and\n        /* \"#utility.yul\":9894:9921   */\n      swap2\n      pop\n        /* \"#utility.yul\":9850:9852   */\n    tag_347:\n        /* \"#utility.yul\":9978:9980   */\n      0x20\n        /* \"#utility.yul\":9970:9976   */\n      dup3\n        /* \"#utility.yul\":9967:9981   */\n      lt\n        /* \"#utility.yul\":9947:9965   */\n      dup2\n        /* \"#utility.yul\":9944:9982   */\n      eq\n        /* \"#utility.yul\":9941:9943   */\n      iszero\n      tag_348\n      jumpi\n        /* \"#utility.yul\":9997:10015   */\n      tag_349\n      tag_350\n      jump\t// in\n    tag_349:\n        /* \"#utility.yul\":9941:9943   */\n    tag_348:\n        /* \"#utility.yul\":9762:10031   */\n      pop\n      swap2\n      swap1\n      pop\n      jump\t// out\n        /* \"#utility.yul\":10037:10318   */\n    tag_305:\n        /* \"#utility.yul\":10120:10147   */\n      tag_352\n        /* \"#utility.yul\":10142:10146   */\n      dup3\n        /* \"#utility.yul\":10120:10147   */\n      tag_278\n      jump\t// in\n    tag_352:\n        /* \"#utility.yul\":10112:10118   */\n      dup2\n        /* \"#utility.yul\":10108:10148   */\n      add\n        /* \"#utility.yul\":10250:10256   */\n      dup2\n        /* \"#utility.yul\":10238:10248   */\n      dup2\n        /* \"#utility.yul\":10235:10257   */\n      lt\n        /* \"#utility.yul\":10214:10232   */\n      0xffffffffffffffff\n        /* \"#utility.yul\":10202:10212   */\n      dup3\n        /* \"#utility.yul\":10199:10233   */\n      gt\n        /* \"#utility.yul\":10196:10258   */\n      or\n        /* \"#utility.yul\":10193:10195   */\n      iszero\n      tag_353\n      jumpi\n        /* \"#utility.yul\":10261:10279   */\n      tag_354\n      tag_310\n      jump\t// in\n    tag_354:\n        /* \"#utility.yul\":10193:10195   */\n    tag_353:\n        /* \"#utility.yul\":10301:10311   */\n      dup1\n        /* \"#utility.yul\":10297:10299   */\n      0x40\n        /* \"#utility.yul\":10290:10312   */\n      mstore\n        /* \"#utility.yul\":10080:10318   */\n      pop\n      pop\n      pop\n      jump\t// out\n        /* \"#utility.yul\":10324:10557   */\n    tag_94:\n        /* \"#utility.yul\":10363:10366   */\n      0x00\n        /* \"#utility.yul\":10386:10410   */\n      tag_356\n        /* \"#utility.yul\":10404:10409   */\n      dup3\n        /* \"#utility.yul\":10386:10410   */\n      tag_282\n      jump\t// in\n    tag_356:\n        /* \"#utility.yul\":10377:10410   */\n      swap2\n      pop\n        /* \"#utility.yul\":10432:10498   */\n      0xffffffffffffffffffffffffffffffffffffffffffffffffffffffffffffffff\n        /* \"#utility.yul\":10425:10430   */\n      dup3\n        /* \"#utility.yul\":10422:10499   */\n      eq\n        /* \"#utility.yul\":10419:10421   */\n      iszero\n      tag_357\n      jumpi\n        /* \"#utility.yul\":10502:10520   */\n      tag_358\n      tag_321\n      jump\t// in\n    tag_358:\n        /* \"#utility.yul\":10419:10421   */\n    tag_357:\n        /* \"#utility.yul\":10549:10550   */\n      0x01\n        /* \"#utility.yul\":10542:10547   */\n      dup3\n        /* \"#utility.yul\":10538:10551   */\n      add\n        /* \"#utility.yul\":10531:10551   */\n      swap1\n      pop\n        /* \"#utility.yul\":10367:10557   */\n      swap2\n      swap1\n      pop\n      jump\t// out\n        /* \"#utility.yul\":10563:10743   */\n    tag_321:\n        /* \"#utility.yul\":10611:10688   */\n      0x4e487b7100000000000000000000000000000000000000000000000000000000\n        /* \"#utility.yul\":10608:10609   */\n      0x00\n        /* \"#utility.yul\":10601:10689   */\n      mstore\n        /* \"#utility.yul\":10708:10712   */\n      0x11\n        /* \"#utility.yul\":10705:10706   */\n      0x04\n        /* \"#utility.yul\":10698:10713   */\n      mstore\n        /* \"#utility.yul\":10732:10736   */\n      0x24\n        /* \"#utility.yul\":10729:10730   */\n      0x00\n        /* \"#utility.yul\":10722:10737   */\n      revert\n        /* \"#utility.yul\":10749:10929   */\n    tag_327:\n        /* \"#utility.yul\":10797:10874   */\n      0x4e487b7100000000000000000000000000000000000000000000000000000000\n        /* \"#utility.yul\":10794:10795   */\n      0x00\n        /* \"#utility.yul\":10787:10875   */\n      mstore\n        /* \"#utility.yul\":10894:10898   */\n      0x12\n        /* \"#utility.yul\":10891:10892   */\n      0x04\n        /* \"#utility.yul\":10884:10899   */\n      mstore\n        /* \"#utility.yul\":10918:10922   */\n      0x24\n        /* \"#utility.yul\":10915:10916   */\n      0x00\n        /* \"#utility.yul\":10908:10923   */\n      revert\n        /* \"#utility.yul\":10935:11115   */\n    tag_80:\n        /* \"#utility.yul\":10983:11060   */\n      0x4e487b7100000000000000000000000000000000000000000000000000000000\n        /* \"#utility.yul\":10980:10981   */\n      0x00\n        /* \"#utility.yul\":10973:11061   */\n      mstore\n        /* \"#utility.yul\":11080:11084   */\n      0x21\n        /* \"#utility.yul\":11077:11078   */\n      0x04\n        /* \"#utility.yul\":11070:11085   */\n      mstore\n        /* \"#utility.yul\":11104:11108   */\n      0x24\n        /* \"#utility.yul\":11101:11102   */\n      0x00\n        /* \"#utility.yul\":11094:11109   */\n      revert\n        /* \"#utility.yul\":11121:11301   */\n    tag_350:\n        /* \"#utility.yul\":11169:11246   */\n      0x4e487b7100000000000000000000000000000000000000000000000000000000\n        /* \"#utility.yul\":11166:11167   */\n      0x00\n        /* \"#utility.yul\":11159:11247   */\n      mstore\n        /* \"#utility.yul\":11266:11270   */\n      0x22\n        /* \"#utility.yul\":11263:11264   */\n      0x04\n        /* \"#utility.yul\":11256:11271   */\n      mstore\n        /* \"#utility.yul\":11290:11294   */\n      0x24\n        /* \"#utility.yul\":11287:11288   */\n      0x00\n        /* \"#utility.yul\":11280:11295   */\n      revert\n        /* \"#utility.yul\":11307:11487   */\n    tag_310:\n        /* \"#utility.yul\":11355:11432   */\n      0x4e487b7100000000000000000000000000000000000000000000000000000000\n        /* \"#utility.yul\":11352:11353   */\n      0x00\n        /* \"#utility.yul\":11345:11433   */\n      mstore\n        /* \"#utility.yul\":11452:11456   */\n      0x41\n        /* \"#utility.yul\":11449:11450   */\n      0x04\n        /* \"#utility.yul\":11442:11457   */\n      mstore\n        /* \"#utility.yul\":11476:11480   */\n      0x24\n        /* \"#utility.yul\":11473:11474   */\n      0x00\n        /* \"#utility.yul\":11466:11481   */\n      revert\n        /* \"#utility.yul\":11493:11610   */\n    tag_215:\n        /* \"#utility.yul\":11602:11603   */\n      0x00\n        /* \"#utility.yul\":11599:11600   */\n      dup1\n        /* \"#utility.yul\":11592:11604   */\n      revert\n        /* \"#utility.yul\":11616:11733   */\n    tag_204:\n        /* \"#utility.yul\":11725:11726   */\n      0x00\n        /* \"#utility.yul\":11722:11723   */\n      dup1\n        /* \"#utility.yul\":11715:11727   */\n      revert\n        /* \"#utility.yul\":11739:11856   */\n    tag_232:\n        /* \"#utility.yul\":11848:11849   */\n      0x00\n        /* \"#utility.yul\":11845:11846   */\n      dup1\n        /* \"#utility.yul\":11838:11850   */\n      revert\n        /* \"#utility.yul\":11862:11979   */\n    tag_224:\n        /* \"#utility.yul\":11971:11972   */\n      0x00\n        /* \"#utility.yul\":11968:11969   */\n      dup1\n        /* \"#utility.yul\":11961:11973   */\n      revert\n        /* \"#utility.yul\":11985:12087   */\n    tag_278:\n        /* \"#utility.yul\":12026:12032   */\n      0x00\n        /* \"#utility.yul\":12077:12079   */\n      0x1f\n        /* \"#utility.yul\":12073:12080   */\n      not\n        /* \"#utility.yul\":12068:12070   */\n      0x1f\n        /* \"#utility.yul\":12061:12066   */\n      dup4\n        /* \"#utility.yul\":12057:12071   */\n      add\n        /* \"#utility.yul\":12053:12081   */\n      and\n        /* \"#utility.yul\":12043:12081   */\n      swap1\n      pop\n        /* \"#utility.yul\":12033:12087   */\n      swap2\n      swap1\n      pop\n      jump\t// out\n        /* \"#utility.yul\":12093:12206   */\n    tag_335:\n        /* \"#utility.yul\":12174:12175   */\n      0x04\n        /* \"#utility.yul\":12167:12172   */\n      dup2\n        /* \"#utility.yul\":12164:12176   */\n      lt\n        /* \"#utility.yul\":12154:12156   */\n      tag_370\n      jumpi\n        /* \"#utility.yul\":12180:12198   */\n      tag_371\n      tag_80\n      jump\t// in\n    tag_371:\n        /* \"#utility.yul\":12154:12156   */\n    tag_370:\n        /* \"#utility.yul\":12144:12206   */\n      pop\n      jump\t// out\n        /* \"#utility.yul\":12212:12334   */\n    tag_210:\n        /* \"#utility.yul\":12285:12309   */\n      tag_373\n        /* \"#utility.yul\":12303:12308   */\n      dup2\n        /* \"#utility.yul\":12285:12309   */\n      tag_247\n      jump\t// in\n    tag_373:\n        /* \"#utility.yul\":12278:12283   */\n      dup2\n        /* \"#utility.yul\":12275:12310   */\n      eq\n        /* \"#utility.yul\":12265:12267   */\n      tag_374\n      jumpi\n        /* \"#utility.yul\":12324:12325   */\n      0x00\n        /* \"#utility.yul\":12321:12322   */\n      dup1\n        /* \"#utility.yul\":12314:12326   */\n      revert\n        /* \"#utility.yul\":12265:12267   */\n    tag_374:\n        /* \"#utility.yul\":12255:12334   */\n      pop\n      jump\t// out\n        /* \"#utility.yul\":12340:12462   */\n    tag_220:\n        /* \"#utility.yul\":12413:12437   */\n      tag_376\n        /* \"#utility.yul\":12431:12436   */\n      dup2\n        /* \"#utility.yul\":12413:12437   */\n      tag_282\n      jump\t// in\n    tag_376:\n        /* \"#utility.yul\":12406:12411   */\n      dup2\n        /* \"#utility.yul\":12403:12438   */\n      eq\n        /* \"#utility.yul\":12393:12395   */\n      tag_377\n      jumpi\n        /* \"#utility.yul\":12452:12453   */\n      0x00\n        /* \"#utility.yul\":12449:12450   */\n      dup1\n        /* \"#utility.yul\":12442:12454   */\n      revert\n        /* \"#utility.yul\":12393:12395   */\n    tag_377:\n        /* \"#utility.yul\":12383:12462   */\n      pop\n      jump\t// out\n\n    auxdata: 0xa26469706673582212204285c0720b527c628f9df5ebfce4d591ad6254ac04306ba5d2e653a64d3afb9064736f6c63430008050033\n}\n",
				"bytecode": {
					"linkReferences": {},
					"object": "60a060405234801561001057600080fd5b503373ffffffffffffffffffffffffffffffffffffffff1660808173ffffffffffffffffffffffffffffffffffffffff1660601b815250506000600560006101000a81548160ff0219169083600381111561006e5761006d610078565b5b02179055506100a7565b7f4e487b7100000000000000000000000000000000000000000000000000000000600052602160045260246000fd5b60805160601c61180e6100e1600039600081816106af01528181610763015281816109a901528181610a130152610bd3015261180e6000f3fe608060405234801561001057600080fd5b50600436106100ea5760003560e01c80636d77bd3e1161008c578063ad5461d811610066578063ad5461d81461024f578063b798867f1461027f578063c19d93fb1461029d578063c1c16efc146102bb576100ea565b80636d77bd3e146101f757806381f4b23214610227578063a3bef4d714610231576100ea565b80633b9f708d116100c85780633b9f708d1461015a57806347098f361461018a578063481c6a75146101a85780635df81330146101c6576100ea565b8063124258c6146100ef5780631ddabf7a1461011f5780631ec6b60a14610150575b600080fd5b610109600480360381019061010491906111f3565b6102d9565b604051610116919061136f565b60405180910390f35b61013960048036038101906101349190611121565b610587565b6040516101479291906113c7565b60405180910390f35b610158610640565b005b610174600480360381019061016f919061114e565b61075f565b60405161018191906113f7565b60405180910390f35b6101926109a1565b60405161019f91906113f7565b60405180910390f35b6101b06109a7565b6040516101bd919061132b565b60405180910390f35b6101e060048036038101906101db91906111f3565b6109cb565b6040516101ee929190611346565b60405180910390f35b610211600480360381019061020c91906111aa565b610a0f565b60405161021e91906113f7565b60405180910390f35b61022f610bd1565b005b610239610c83565b60405161024691906113f7565b60405180910390f35b610269600480360381019061026491906111f3565b610c89565b60405161027691906113a5565b60405180910390f35b610287610d29565b60405161029491906113f7565b60405180910390f35b6102a5610d2f565b6040516102b2919061138a565b60405180910390f35b6102c3610d42565b6040516102d091906113a5565b60405180910390f35b6000600160038111156102ef576102ee6116e4565b5b600560009054906101000a900460ff166003811115610311576103106116e4565b5b14610348576040517fd5be4c8d00000000000000000000000000000000000000000000000000000000815260040160405180910390fd5b600090506000600160003373ffffffffffffffffffffffffffffffffffffffff1673ffffffffffffffffffffffffffffffffffffffff168152602001908152602001600020600001805461039b906115da565b9050141580156103fe575060001515600160003373ffffffffffffffffffffffffffffffffffffffff1673ffffffffffffffffffffffffffffffffffffffff16815260200190815260200160002060010160009054906101000a900460ff161515145b156105565760008060008481526020019081526020016000208054610422906115da565b905014610555576001905060018060003373ffffffffffffffffffffffffffffffffffffffff1673ffffffffffffffffffffffffffffffffffffffff16815260200190815260200160002060010160006101000a81548160ff02191690831515021790555061048f610f0b565b33816000019073ffffffffffffffffffffffffffffffffffffffff16908173ffffffffffffffffffffffffffffffffffffffff168152505082816020018181525050600460008154809291906104e49061163d565b91905055508060076000600454815260200190815260200160002060008201518160000160006101000a81548173ffffffffffffffffffffffffffffffffffffffff021916908373ffffffffffffffffffffffffffffffffffffffff16021790555060208201518160010155905050505b5b6001600260035461056791906114fa565b61057191906114a4565b6004541061058257610581610dd0565b5b919050565b60016020528060005260406000206000915090508060000180546105aa906115da565b80601f01602080910402602001604051908101604052809291908181526020018280546105d6906115da565b80156106235780601f106105f857610100808354040283529160200191610623565b820191906000526020600020905b81548152906001019060200180831161060657829003601f168201915b5050505050908060010160009054906101000a900460ff16905082565b60006003811115610654576106536116e4565b5b600560009054906101000a900460ff166003811115610676576106756116e4565b5b146106ad576040517fb8fa265700000000000000000000000000000000000000000000000000000000815260040160405180910390fd5b7f000000000000000000000000000000000000000000000000000000000000000073ffffffffffffffffffffffffffffffffffffffff163373ffffffffffffffffffffffffffffffffffffffff1614610732576040517f8a88558a00000000000000000000000000000000000000000000000000000000815260040160405180910390fd5b6001600560006101000a81548160ff02191690836003811115610758576107576116e4565b5b0217905550565b60007f000000000000000000000000000000000000000000000000000000000000000073ffffffffffffffffffffffffffffffffffffffff163373ffffffffffffffffffffffffffffffffffffffff16146107e6576040517f8a88558a00000000000000000000000000000000000000000000000000000000815260040160405180910390fd5b600060038111156107fa576107f96116e4565b5b600560009054906101000a900460ff16600381111561081c5761081b6116e4565b5b14610853576040517fb8fa265700000000000000000000000000000000000000000000000000000000815260040160405180910390fd5b6000600160008573ffffffffffffffffffffffffffffffffffffffff1673ffffffffffffffffffffffffffffffffffffffff16815260200190815260200160002060000180546108a2906115da565b9050146108db576040517fddc5f0cc00000000000000000000000000000000000000000000000000000000815260040160405180910390fd5b6108e3610f3b565b828160000181905250600081602001901515908115158152505080600160008673ffffffffffffffffffffffffffffffffffffffff1673ffffffffffffffffffffffffffffffffffffffff1681526020019081526020016000206000820151816000019080519060200190610959929190610f57565b5060208201518160010160006101000a81548160ff021916908315150217905550905050600360008154809291906109909061163d565b919050555060035491505092915050565b60035481565b7f000000000000000000000000000000000000000000000000000000000000000081565b60076020528060005260406000206000915090508060000160009054906101000a900473ffffffffffffffffffffffffffffffffffffffff16908060010154905082565b60007f000000000000000000000000000000000000000000000000000000000000000073ffffffffffffffffffffffffffffffffffffffff163373ffffffffffffffffffffffffffffffffffffffff1614610a96576040517f8a88558a00000000000000000000000000000000000000000000000000000000815260040160405180910390fd5b60006003811115610aaa57610aa96116e4565b5b600560009054906101000a900460ff166003811115610acc57610acb6116e4565b5b14610b03576040517fb8fa265700000000000000000000000000000000000000000000000000000000815260040160405180910390fd5b6000600190505b6002548111610b85578280519060200120600080838152602001908152602001600020604051610b3a9190611314565b60405180910390201415610b7a576040517f3a60529800000000000000000000000000000000000000000000000000000000815260040160405180910390fd5b806001019050610b0a565b5060026000815480929190610b999061163d565b91905055508160008060025481526020019081526020016000209080519060200190610bc6929190610f57565b506002549050919050565b7f000000000000000000000000000000000000000000000000000000000000000073ffffffffffffffffffffffffffffffffffffffff163373ffffffffffffffffffffffffffffffffffffffff1614610c56576040517f8a88558a00000000000000000000000000000000000000000000000000000000815260040160405180910390fd5b6003600560006101000a81548160ff02191690836003811115610c7c57610c7b6116e4565b5b0217905550565b60045481565b60006020528060005260406000206000915090508054610ca8906115da565b80601f0160208091040260200160405190810160405280929190818152602001828054610cd4906115da565b8015610d215780601f10610cf657610100808354040283529160200191610d21565b820191906000526020600020905b815481529060010190602001808311610d0457829003601f168201915b505050505081565b60025481565b600560009054906101000a900460ff1681565b60068054610d4f906115da565b80601f0160208091040260200160405190810160405280929190818152602001828054610d7b906115da565b8015610dc85780601f10610d9d57610100808354040283529160200191610dc8565b820191906000526020600020905b815481529060010190602001808311610dab57829003601f168201915b505050505081565b6000806000600190505b6004548111610eaf5760006001905060006008600060076000868152602001908152602001600020600101548152602001908152602001600020541115610e535760086000600760008581526020019081526020016000206001015481526020019081526020016000205481610e5091906114a4565b90505b8060086000600760008681526020019081526020016000206001015481526020019081526020016000208190555083811115610ea357600760008381526020019081526020016000206001015492505b81600101915050610dda565b506000808281526020019081526020016000206006908054610ed0906115da565b610edb929190610fdd565b506002600560006101000a81548160ff02191690836003811115610f0257610f016116e4565b5b02179055505050565b6040518060400160405280600073ffffffffffffffffffffffffffffffffffffffff168152602001600081525090565b6040518060400160405280606081526020016000151581525090565b828054610f63906115da565b90600052602060002090601f016020900481019282610f855760008555610fcc565b82601f10610f9e57805160ff1916838001178555610fcc565b82800160010185558215610fcc579182015b82811115610fcb578251825591602001919060010190610fb0565b5b509050610fd9919061106a565b5090565b828054610fe9906115da565b90600052602060002090601f01602090048101928261100b5760008555611059565b82601f1061101c5780548555611059565b8280016001018555821561105957600052602060002091601f016020900482015b8281111561105857825482559160010191906001019061103d565b5b509050611066919061106a565b5090565b5b8082111561108357600081600090555060010161106b565b5090565b600061109a61109584611437565b611412565b9050828152602081018484840111156110b6576110b5611776565b5b6110c1848285611598565b509392505050565b6000813590506110d8816117aa565b92915050565b600082601f8301126110f3576110f2611771565b5b8135611103848260208601611087565b91505092915050565b60008135905061111b816117c1565b92915050565b60006020828403121561113757611136611780565b5b6000611145848285016110c9565b91505092915050565b6000806040838503121561116557611164611780565b5b6000611173858286016110c9565b925050602083013567ffffffffffffffff8111156111945761119361177b565b5b6111a0858286016110de565b9150509250929050565b6000602082840312156111c0576111bf611780565b5b600082013567ffffffffffffffff8111156111de576111dd61177b565b5b6111ea848285016110de565b91505092915050565b60006020828403121561120957611208611780565b5b60006112178482850161110c565b91505092915050565b6112298161152b565b82525050565b6112388161153d565b82525050565b6000815461124b816115da565b6112558186611488565b945060018216600081146112705760018114611281576112b4565b60ff198316865281860193506112b4565b61128a85611468565b60005b838110156112ac5781548189015260018201915060208101905061128d565b838801955050505b50505092915050565b6112c681611586565b82525050565b60006112d78261147d565b6112e18185611493565b93506112f18185602086016115a7565b6112fa81611785565b840191505092915050565b61130e8161157c565b82525050565b6000611320828461123e565b915081905092915050565b60006020820190506113406000830184611220565b92915050565b600060408201905061135b6000830185611220565b6113686020830184611305565b9392505050565b6000602082019050611384600083018461122f565b92915050565b600060208201905061139f60008301846112bd565b92915050565b600060208201905081810360008301526113bf81846112cc565b905092915050565b600060408201905081810360008301526113e181856112cc565b90506113f0602083018461122f565b9392505050565b600060208201905061140c6000830184611305565b92915050565b600061141c61142d565b9050611428828261160c565b919050565b6000604051905090565b600067ffffffffffffffff82111561145257611451611742565b5b61145b82611785565b9050602081019050919050565b60008190508160005260206000209050919050565b600081519050919050565b600081905092915050565b600082825260208201905092915050565b60006114af8261157c565b91506114ba8361157c565b9250827fffffffffffffffffffffffffffffffffffffffffffffffffffffffffffffffff038211156114ef576114ee611686565b5b828201905092915050565b60006115058261157c565b91506115108361157c565b9250826115205761151f6116b5565b5b828204905092915050565b60006115368261155c565b9050919050565b60008115159050919050565b600081905061155782611796565b919050565b600073ffffffffffffffffffffffffffffffffffffffff82169050919050565b6000819050919050565b600061159182611549565b9050919050565b82818337600083830152505050565b60005b838110156115c55780820151818401526020810190506115aa565b838111156115d4576000848401525b50505050565b600060028204905060018216806115f257607f821691505b6020821081141561160657611605611713565b5b50919050565b61161582611785565b810181811067ffffffffffffffff8211171561163457611633611742565b5b80604052505050565b60006116488261157c565b91507fffffffffffffffffffffffffffffffffffffffffffffffffffffffffffffffff82141561167b5761167a611686565b5b600182019050919050565b7f4e487b7100000000000000000000000000000000000000000000000000000000600052601160045260246000fd5b7f4e487b7100000000000000000000000000000000000000000000000000000000600052601260045260246000fd5b7f4e487b7100000000000000000000000000000000000000000000000000000000600052602160045260246000fd5b7f4e487b7100000000000000000000000000000000000000000000000000000000600052602260045260246000fd5b7f4e487b7100000000000000000000000000000000000000000000000000000000600052604160045260246000fd5b600080fd5b600080fd5b600080fd5b600080fd5b6000601f19601f8301169050919050565b600481106117a7576117a66116e4565b5b50565b6117b38161152b565b81146117be57600080fd5b50565b6117ca8161157c565b81146117d557600080fd5b5056fea26469706673582212204285c0720b527c628f9df5ebfce4d591ad6254ac04306ba5d2e653a64d3afb9064736f6c63430008050033",
					"opcodes": "PUSH1 0xA0 PUSH1 0x40 MSTORE CALLVALUE DUP1 ISZERO PUSH2 0x10 JUMPI PUSH1 0x0 DUP1 REVERT JUMPDEST POP CALLER PUSH20 0xFFFFFFFFFFFFFFFFFFFFFFFFFFFFFFFFFFFFFFFF AND PUSH1 0x80 DUP2 PUSH20 0xFFFFFFFFFFFFFFFFFFFFFFFFFFFFFFFFFFFFFFFF AND PUSH1 0x60 SHL DUP2 MSTORE POP POP PUSH1 0x0 PUSH1 0x5 PUSH1 0x0 PUSH2 0x100 EXP DUP2 SLOAD DUP2 PUSH1 0xFF MUL NOT AND SWAP1 DUP4 PUSH1 0x3 DUP2 GT ISZERO PUSH2 0x6E JUMPI PUSH2 0x6D PUSH2 0x78 JUMP JUMPDEST JUMPDEST MUL OR SWAP1 SSTORE POP PUSH2 0xA7 JUMP JUMPDEST PUSH32 0x4E487B7100000000000000000000000000000000000000000000000000000000 PUSH1 0x0 MSTORE PUSH1 0x21 PUSH1 0x4 MSTORE PUSH1 0x24 PUSH1 0x0 REVERT JUMPDEST PUSH1 0x80 MLOAD PUSH1 0x60 SHR PUSH2 0x180E PUSH2 0xE1 PUSH1 0x0 CODECOPY PUSH1 0x0 DUP2 DUP2 PUSH2 0x6AF ADD MSTORE DUP2 DUP2 PUSH2 0x763 ADD MSTORE DUP2 DUP2 PUSH2 0x9A9 ADD MSTORE DUP2 DUP2 PUSH2 0xA13 ADD MSTORE PUSH2 0xBD3 ADD MSTORE PUSH2 0x180E PUSH1 0x0 RETURN INVALID PUSH1 0x80 PUSH1 0x40 MSTORE CALLVALUE DUP1 ISZERO PUSH2 0x10 JUMPI PUSH1 0x0 DUP1 REVERT JUMPDEST POP PUSH1 0x4 CALLDATASIZE LT PUSH2 0xEA JUMPI PUSH1 0x0 CALLDATALOAD PUSH1 0xE0 SHR DUP1 PUSH4 0x6D77BD3E GT PUSH2 0x8C JUMPI DUP1 PUSH4 0xAD5461D8 GT PUSH2 0x66 JUMPI DUP1 PUSH4 0xAD5461D8 EQ PUSH2 0x24F JUMPI DUP1 PUSH4 0xB798867F EQ PUSH2 0x27F JUMPI DUP1 PUSH4 0xC19D93FB EQ PUSH2 0x29D JUMPI DUP1 PUSH4 0xC1C16EFC EQ PUSH2 0x2BB JUMPI PUSH2 0xEA JUMP JUMPDEST DUP1 PUSH4 0x6D77BD3E EQ PUSH2 0x1F7 JUMPI DUP1 PUSH4 0x81F4B232 EQ PUSH2 0x227 JUMPI DUP1 PUSH4 0xA3BEF4D7 EQ PUSH2 0x231 JUMPI PUSH2 0xEA JUMP JUMPDEST DUP1 PUSH4 0x3B9F708D GT PUSH2 0xC8 JUMPI DUP1 PUSH4 0x3B9F708D EQ PUSH2 0x15A JUMPI DUP1 PUSH4 0x47098F36 EQ PUSH2 0x18A JUMPI DUP1 PUSH4 0x481C6A75 EQ PUSH2 0x1A8 JUMPI DUP1 PUSH4 0x5DF81330 EQ PUSH2 0x1C6 JUMPI PUSH2 0xEA JUMP JUMPDEST DUP1 PUSH4 0x124258C6 EQ PUSH2 0xEF JUMPI DUP1 PUSH4 0x1DDABF7A EQ PUSH2 0x11F JUMPI DUP1 PUSH4 0x1EC6B60A EQ PUSH2 0x150 JUMPI JUMPDEST PUSH1 0x0 DUP1 REVERT JUMPDEST PUSH2 0x109 PUSH1 0x4 DUP1 CALLDATASIZE SUB DUP2 ADD SWAP1 PUSH2 0x104 SWAP2 SWAP1 PUSH2 0x11F3 JUMP JUMPDEST PUSH2 0x2D9 JUMP JUMPDEST PUSH1 0x40 MLOAD PUSH2 0x116 SWAP2 SWAP1 PUSH2 0x136F JUMP JUMPDEST PUSH1 0x40 MLOAD DUP1 SWAP2 SUB SWAP1 RETURN JUMPDEST PUSH2 0x139 PUSH1 0x4 DUP1 CALLDATASIZE SUB DUP2 ADD SWAP1 PUSH2 0x134 SWAP2 SWAP1 PUSH2 0x1121 JUMP JUMPDEST PUSH2 0x587 JUMP JUMPDEST PUSH1 0x40 MLOAD PUSH2 0x147 SWAP3 SWAP2 SWAP1 PUSH2 0x13C7 JUMP JUMPDEST PUSH1 0x40 MLOAD DUP1 SWAP2 SUB SWAP1 RETURN JUMPDEST PUSH2 0x158 PUSH2 0x640 JUMP JUMPDEST STOP JUMPDEST PUSH2 0x174 PUSH1 0x4 DUP1 CALLDATASIZE SUB DUP2 ADD SWAP1 PUSH2 0x16F SWAP2 SWAP1 PUSH2 0x114E JUMP JUMPDEST PUSH2 0x75F JUMP JUMPDEST PUSH1 0x40 MLOAD PUSH2 0x181 SWAP2 SWAP1 PUSH2 0x13F7 JUMP JUMPDEST PUSH1 0x40 MLOAD DUP1 SWAP2 SUB SWAP1 RETURN JUMPDEST PUSH2 0x192 PUSH2 0x9A1 JUMP JUMPDEST PUSH1 0x40 MLOAD PUSH2 0x19F SWAP2 SWAP1 PUSH2 0x13F7 JUMP JUMPDEST PUSH1 0x40 MLOAD DUP1 SWAP2 SUB SWAP1 RETURN JUMPDEST PUSH2 0x1B0 PUSH2 0x9A7 JUMP JUMPDEST PUSH1 0x40 MLOAD PUSH2 0x1BD SWAP2 SWAP1 PUSH2 0x132B JUMP JUMPDEST PUSH1 0x40 MLOAD DUP1 SWAP2 SUB SWAP1 RETURN JUMPDEST PUSH2 0x1E0 PUSH1 0x4 DUP1 CALLDATASIZE SUB DUP2 ADD SWAP1 PUSH2 0x1DB SWAP2 SWAP1 PUSH2 0x11F3 JUMP JUMPDEST PUSH2 0x9CB JUMP JUMPDEST PUSH1 0x40 MLOAD PUSH2 0x1EE SWAP3 SWAP2 SWAP1 PUSH2 0x1346 JUMP JUMPDEST PUSH1 0x40 MLOAD DUP1 SWAP2 SUB SWAP1 RETURN JUMPDEST PUSH2 0x211 PUSH1 0x4 DUP1 CALLDATASIZE SUB DUP2 ADD SWAP1 PUSH2 0x20C SWAP2 SWAP1 PUSH2 0x11AA JUMP JUMPDEST PUSH2 0xA0F JUMP JUMPDEST PUSH1 0x40 MLOAD PUSH2 0x21E SWAP2 SWAP1 PUSH2 0x13F7 JUMP JUMPDEST PUSH1 0x40 MLOAD DUP1 SWAP2 SUB SWAP1 RETURN JUMPDEST PUSH2 0x22F PUSH2 0xBD1 JUMP JUMPDEST STOP JUMPDEST PUSH2 0x239 PUSH2 0xC83 JUMP JUMPDEST PUSH1 0x40 MLOAD PUSH2 0x246 SWAP2 SWAP1 PUSH2 0x13F7 JUMP JUMPDEST PUSH1 0x40 MLOAD DUP1 SWAP2 SUB SWAP1 RETURN JUMPDEST PUSH2 0x269 PUSH1 0x4 DUP1 CALLDATASIZE SUB DUP2 ADD SWAP1 PUSH2 0x264 SWAP2 SWAP1 PUSH2 0x11F3 JUMP JUMPDEST PUSH2 0xC89 JUMP JUMPDEST PUSH1 0x40 MLOAD PUSH2 0x276 SWAP2 SWAP1 PUSH2 0x13A5 JUMP JUMPDEST PUSH1 0x40 MLOAD DUP1 SWAP2 SUB SWAP1 RETURN JUMPDEST PUSH2 0x287 PUSH2 0xD29 JUMP JUMPDEST PUSH1 0x40 MLOAD PUSH2 0x294 SWAP2 SWAP1 PUSH2 0x13F7 JUMP JUMPDEST PUSH1 0x40 MLOAD DUP1 SWAP2 SUB SWAP1 RETURN JUMPDEST PUSH2 0x2A5 PUSH2 0xD2F JUMP JUMPDEST PUSH1 0x40 MLOAD PUSH2 0x2B2 SWAP2 SWAP1 PUSH2 0x138A JUMP JUMPDEST PUSH1 0x40 MLOAD DUP1 SWAP2 SUB SWAP1 RETURN JUMPDEST PUSH2 0x2C3 PUSH2 0xD42 JUMP JUMPDEST PUSH1 0x40 MLOAD PUSH2 0x2D0 SWAP2 SWAP1 PUSH2 0x13A5 JUMP JUMPDEST PUSH1 0x40 MLOAD DUP1 SWAP2 SUB SWAP1 RETURN JUMPDEST PUSH1 0x0 PUSH1 0x1 PUSH1 0x3 DUP2 GT ISZERO PUSH2 0x2EF JUMPI PUSH2 0x2EE PUSH2 0x16E4 JUMP JUMPDEST JUMPDEST PUSH1 0x5 PUSH1 0x0 SWAP1 SLOAD SWAP1 PUSH2 0x100 EXP SWAP1 DIV PUSH1 0xFF AND PUSH1 0x3 DUP2 GT ISZERO PUSH2 0x311 JUMPI PUSH2 0x310 PUSH2 0x16E4 JUMP JUMPDEST JUMPDEST EQ PUSH2 0x348 JUMPI PUSH1 0x40 MLOAD PUSH32 0xD5BE4C8D00000000000000000000000000000000000000000000000000000000 DUP2 MSTORE PUSH1 0x4 ADD PUSH1 0x40 MLOAD DUP1 SWAP2 SUB SWAP1 REVERT JUMPDEST PUSH1 0x0 SWAP1 POP PUSH1 0x0 PUSH1 0x1 PUSH1 0x0 CALLER PUSH20 0xFFFFFFFFFFFFFFFFFFFFFFFFFFFFFFFFFFFFFFFF AND PUSH20 0xFFFFFFFFFFFFFFFFFFFFFFFFFFFFFFFFFFFFFFFF AND DUP2 MSTORE PUSH1 0x20 ADD SWAP1 DUP2 MSTORE PUSH1 0x20 ADD PUSH1 0x0 KECCAK256 PUSH1 0x0 ADD DUP1 SLOAD PUSH2 0x39B SWAP1 PUSH2 0x15DA JUMP JUMPDEST SWAP1 POP EQ ISZERO DUP1 ISZERO PUSH2 0x3FE JUMPI POP PUSH1 0x0 ISZERO ISZERO PUSH1 0x1 PUSH1 0x0 CALLER PUSH20 0xFFFFFFFFFFFFFFFFFFFFFFFFFFFFFFFFFFFFFFFF AND PUSH20 0xFFFFFFFFFFFFFFFFFFFFFFFFFFFFFFFFFFFFFFFF AND DUP2 MSTORE PUSH1 0x20 ADD SWAP1 DUP2 MSTORE PUSH1 0x20 ADD PUSH1 0x0 KECCAK256 PUSH1 0x1 ADD PUSH1 0x0 SWAP1 SLOAD SWAP1 PUSH2 0x100 EXP SWAP1 DIV PUSH1 0xFF AND ISZERO ISZERO EQ JUMPDEST ISZERO PUSH2 0x556 JUMPI PUSH1 0x0 DUP1 PUSH1 0x0 DUP5 DUP2 MSTORE PUSH1 0x20 ADD SWAP1 DUP2 MSTORE PUSH1 0x20 ADD PUSH1 0x0 KECCAK256 DUP1 SLOAD PUSH2 0x422 SWAP1 PUSH2 0x15DA JUMP JUMPDEST SWAP1 POP EQ PUSH2 0x555 JUMPI PUSH1 0x1 SWAP1 POP PUSH1 0x1 DUP1 PUSH1 0x0 CALLER PUSH20 0xFFFFFFFFFFFFFFFFFFFFFFFFFFFFFFFFFFFFFFFF AND PUSH20 0xFFFFFFFFFFFFFFFFFFFFFFFFFFFFFFFFFFFFFFFF AND DUP2 MSTORE PUSH1 0x20 ADD SWAP1 DUP2 MSTORE PUSH1 0x20 ADD PUSH1 0x0 KECCAK256 PUSH1 0x1 ADD PUSH1 0x0 PUSH2 0x100 EXP DUP2 SLOAD DUP2 PUSH1 0xFF MUL NOT AND SWAP1 DUP4 ISZERO ISZERO MUL OR SWAP1 SSTORE POP PUSH2 0x48F PUSH2 0xF0B JUMP JUMPDEST CALLER DUP2 PUSH1 0x0 ADD SWAP1 PUSH20 0xFFFFFFFFFFFFFFFFFFFFFFFFFFFFFFFFFFFFFFFF AND SWAP1 DUP2 PUSH20 0xFFFFFFFFFFFFFFFFFFFFFFFFFFFFFFFFFFFFFFFF AND DUP2 MSTORE POP POP DUP3 DUP2 PUSH1 0x20 ADD DUP2 DUP2 MSTORE POP POP PUSH1 0x4 PUSH1 0x0 DUP2 SLOAD DUP1 SWAP3 SWAP2 SWAP1 PUSH2 0x4E4 SWAP1 PUSH2 0x163D JUMP JUMPDEST SWAP2 SWAP1 POP SSTORE POP DUP1 PUSH1 0x7 PUSH1 0x0 PUSH1 0x4 SLOAD DUP2 MSTORE PUSH1 0x20 ADD SWAP1 DUP2 MSTORE PUSH1 0x20 ADD PUSH1 0x0 KECCAK256 PUSH1 0x0 DUP3 ADD MLOAD DUP2 PUSH1 0x0 ADD PUSH1 0x0 PUSH2 0x100 EXP DUP2 SLOAD DUP2 PUSH20 0xFFFFFFFFFFFFFFFFFFFFFFFFFFFFFFFFFFFFFFFF MUL NOT AND SWAP1 DUP4 PUSH20 0xFFFFFFFFFFFFFFFFFFFFFFFFFFFFFFFFFFFFFFFF AND MUL OR SWAP1 SSTORE POP PUSH1 0x20 DUP3 ADD MLOAD DUP2 PUSH1 0x1 ADD SSTORE SWAP1 POP POP POP JUMPDEST JUMPDEST PUSH1 0x1 PUSH1 0x2 PUSH1 0x3 SLOAD PUSH2 0x567 SWAP2 SWAP1 PUSH2 0x14FA JUMP JUMPDEST PUSH2 0x571 SWAP2 SWAP1 PUSH2 0x14A4 JUMP JUMPDEST PUSH1 0x4 SLOAD LT PUSH2 0x582 JUMPI PUSH2 0x581 PUSH2 0xDD0 JUMP JUMPDEST JUMPDEST SWAP2 SWAP1 POP JUMP JUMPDEST PUSH1 0x1 PUSH1 0x20 MSTORE DUP1 PUSH1 0x0 MSTORE PUSH1 0x40 PUSH1 0x0 KECCAK256 PUSH1 0x0 SWAP2 POP SWAP1 POP DUP1 PUSH1 0x0 ADD DUP1 SLOAD PUSH2 0x5AA SWAP1 PUSH2 0x15DA JUMP JUMPDEST DUP1 PUSH1 0x1F ADD PUSH1 0x20 DUP1 SWAP2 DIV MUL PUSH1 0x20 ADD PUSH1 0x40 MLOAD SWAP1 DUP2 ADD PUSH1 0x40 MSTORE DUP1 SWAP3 SWAP2 SWAP1 DUP2 DUP2 MSTORE PUSH1 0x20 ADD DUP3 DUP1 SLOAD PUSH2 0x5D6 SWAP1 PUSH2 0x15DA JUMP JUMPDEST DUP1 ISZERO PUSH2 0x623 JUMPI DUP1 PUSH1 0x1F LT PUSH2 0x5F8 JUMPI PUSH2 0x100 DUP1 DUP4 SLOAD DIV MUL DUP4 MSTORE SWAP2 PUSH1 0x20 ADD SWAP2 PUSH2 0x623 JUMP JUMPDEST DUP3 ADD SWAP2 SWAP1 PUSH1 0x0 MSTORE PUSH1 0x20 PUSH1 0x0 KECCAK256 SWAP1 JUMPDEST DUP2 SLOAD DUP2 MSTORE SWAP1 PUSH1 0x1 ADD SWAP1 PUSH1 0x20 ADD DUP1 DUP4 GT PUSH2 0x606 JUMPI DUP3 SWAP1 SUB PUSH1 0x1F AND DUP3 ADD SWAP2 JUMPDEST POP POP POP POP POP SWAP1 DUP1 PUSH1 0x1 ADD PUSH1 0x0 SWAP1 SLOAD SWAP1 PUSH2 0x100 EXP SWAP1 DIV PUSH1 0xFF AND SWAP1 POP DUP3 JUMP JUMPDEST PUSH1 0x0 PUSH1 0x3 DUP2 GT ISZERO PUSH2 0x654 JUMPI PUSH2 0x653 PUSH2 0x16E4 JUMP JUMPDEST JUMPDEST PUSH1 0x5 PUSH1 0x0 SWAP1 SLOAD SWAP1 PUSH2 0x100 EXP SWAP1 DIV PUSH1 0xFF AND PUSH1 0x3 DUP2 GT ISZERO PUSH2 0x676 JUMPI PUSH2 0x675 PUSH2 0x16E4 JUMP JUMPDEST JUMPDEST EQ PUSH2 0x6AD JUMPI PUSH1 0x40 MLOAD PUSH32 0xB8FA265700000000000000000000000000000000000000000000000000000000 DUP2 MSTORE PUSH1 0x4 ADD PUSH1 0x40 MLOAD DUP1 SWAP2 SUB SWAP1 REVERT JUMPDEST PUSH32 0x0 PUSH20 0xFFFFFFFFFFFFFFFFFFFFFFFFFFFFFFFFFFFFFFFF AND CALLER PUSH20 0xFFFFFFFFFFFFFFFFFFFFFFFFFFFFFFFFFFFFFFFF AND EQ PUSH2 0x732 JUMPI PUSH1 0x40 MLOAD PUSH32 0x8A88558A00000000000000000000000000000000000000000000000000000000 DUP2 MSTORE PUSH1 0x4 ADD PUSH1 0x40 MLOAD DUP1 SWAP2 SUB SWAP1 REVERT JUMPDEST PUSH1 0x1 PUSH1 0x5 PUSH1 0x0 PUSH2 0x100 EXP DUP2 SLOAD DUP2 PUSH1 0xFF MUL NOT AND SWAP1 DUP4 PUSH1 0x3 DUP2 GT ISZERO PUSH2 0x758 JUMPI PUSH2 0x757 PUSH2 0x16E4 JUMP JUMPDEST JUMPDEST MUL OR SWAP1 SSTORE POP JUMP JUMPDEST PUSH1 0x0 PUSH32 0x0 PUSH20 0xFFFFFFFFFFFFFFFFFFFFFFFFFFFFFFFFFFFFFFFF AND CALLER PUSH20 0xFFFFFFFFFFFFFFFFFFFFFFFFFFFFFFFFFFFFFFFF AND EQ PUSH2 0x7E6 JUMPI PUSH1 0x40 MLOAD PUSH32 0x8A88558A00000000000000000000000000000000000000000000000000000000 DUP2 MSTORE PUSH1 0x4 ADD PUSH1 0x40 MLOAD DUP1 SWAP2 SUB SWAP1 REVERT JUMPDEST PUSH1 0x0 PUSH1 0x3 DUP2 GT ISZERO PUSH2 0x7FA JUMPI PUSH2 0x7F9 PUSH2 0x16E4 JUMP JUMPDEST JUMPDEST PUSH1 0x5 PUSH1 0x0 SWAP1 SLOAD SWAP1 PUSH2 0x100 EXP SWAP1 DIV PUSH1 0xFF AND PUSH1 0x3 DUP2 GT ISZERO PUSH2 0x81C JUMPI PUSH2 0x81B PUSH2 0x16E4 JUMP JUMPDEST JUMPDEST EQ PUSH2 0x853 JUMPI PUSH1 0x40 MLOAD PUSH32 0xB8FA265700000000000000000000000000000000000000000000000000000000 DUP2 MSTORE PUSH1 0x4 ADD PUSH1 0x40 MLOAD DUP1 SWAP2 SUB SWAP1 REVERT JUMPDEST PUSH1 0x0 PUSH1 0x1 PUSH1 0x0 DUP6 PUSH20 0xFFFFFFFFFFFFFFFFFFFFFFFFFFFFFFFFFFFFFFFF AND PUSH20 0xFFFFFFFFFFFFFFFFFFFFFFFFFFFFFFFFFFFFFFFF AND DUP2 MSTORE PUSH1 0x20 ADD SWAP1 DUP2 MSTORE PUSH1 0x20 ADD PUSH1 0x0 KECCAK256 PUSH1 0x0 ADD DUP1 SLOAD PUSH2 0x8A2 SWAP1 PUSH2 0x15DA JUMP JUMPDEST SWAP1 POP EQ PUSH2 0x8DB JUMPI PUSH1 0x40 MLOAD PUSH32 0xDDC5F0CC00000000000000000000000000000000000000000000000000000000 DUP2 MSTORE PUSH1 0x4 ADD PUSH1 0x40 MLOAD DUP1 SWAP2 SUB SWAP1 REVERT JUMPDEST PUSH2 0x8E3 PUSH2 0xF3B JUMP JUMPDEST DUP3 DUP2 PUSH1 0x0 ADD DUP2 SWAP1 MSTORE POP PUSH1 0x0 DUP2 PUSH1 0x20 ADD SWAP1 ISZERO ISZERO SWAP1 DUP2 ISZERO ISZERO DUP2 MSTORE POP POP DUP1 PUSH1 0x1 PUSH1 0x0 DUP7 PUSH20 0xFFFFFFFFFFFFFFFFFFFFFFFFFFFFFFFFFFFFFFFF AND PUSH20 0xFFFFFFFFFFFFFFFFFFFFFFFFFFFFFFFFFFFFFFFF AND DUP2 MSTORE PUSH1 0x20 ADD SWAP1 DUP2 MSTORE PUSH1 0x20 ADD PUSH1 0x0 KECCAK256 PUSH1 0x0 DUP3 ADD MLOAD DUP2 PUSH1 0x0 ADD SWAP1 DUP1 MLOAD SWAP1 PUSH1 0x20 ADD SWAP1 PUSH2 0x959 SWAP3 SWAP2 SWAP1 PUSH2 0xF57 JUMP JUMPDEST POP PUSH1 0x20 DUP3 ADD MLOAD DUP2 PUSH1 0x1 ADD PUSH1 0x0 PUSH2 0x100 EXP DUP2 SLOAD DUP2 PUSH1 0xFF MUL NOT AND SWAP1 DUP4 ISZERO ISZERO MUL OR SWAP1 SSTORE POP SWAP1 POP POP PUSH1 0x3 PUSH1 0x0 DUP2 SLOAD DUP1 SWAP3 SWAP2 SWAP1 PUSH2 0x990 SWAP1 PUSH2 0x163D JUMP JUMPDEST SWAP2 SWAP1 POP SSTORE POP PUSH1 0x3 SLOAD SWAP2 POP POP SWAP3 SWAP2 POP POP JUMP JUMPDEST PUSH1 0x3 SLOAD DUP2 JUMP JUMPDEST PUSH32 0x0 DUP2 JUMP JUMPDEST PUSH1 0x7 PUSH1 0x20 MSTORE DUP1 PUSH1 0x0 MSTORE PUSH1 0x40 PUSH1 0x0 KECCAK256 PUSH1 0x0 SWAP2 POP SWAP1 POP DUP1 PUSH1 0x0 ADD PUSH1 0x0 SWAP1 SLOAD SWAP1 PUSH2 0x100 EXP SWAP1 DIV PUSH20 0xFFFFFFFFFFFFFFFFFFFFFFFFFFFFFFFFFFFFFFFF AND SWAP1 DUP1 PUSH1 0x1 ADD SLOAD SWAP1 POP DUP3 JUMP JUMPDEST PUSH1 0x0 PUSH32 0x0 PUSH20 0xFFFFFFFFFFFFFFFFFFFFFFFFFFFFFFFFFFFFFFFF AND CALLER PUSH20 0xFFFFFFFFFFFFFFFFFFFFFFFFFFFFFFFFFFFFFFFF AND EQ PUSH2 0xA96 JUMPI PUSH1 0x40 MLOAD PUSH32 0x8A88558A00000000000000000000000000000000000000000000000000000000 DUP2 MSTORE PUSH1 0x4 ADD PUSH1 0x40 MLOAD DUP1 SWAP2 SUB SWAP1 REVERT JUMPDEST PUSH1 0x0 PUSH1 0x3 DUP2 GT ISZERO PUSH2 0xAAA JUMPI PUSH2 0xAA9 PUSH2 0x16E4 JUMP JUMPDEST JUMPDEST PUSH1 0x5 PUSH1 0x0 SWAP1 SLOAD SWAP1 PUSH2 0x100 EXP SWAP1 DIV PUSH1 0xFF AND PUSH1 0x3 DUP2 GT ISZERO PUSH2 0xACC JUMPI PUSH2 0xACB PUSH2 0x16E4 JUMP JUMPDEST JUMPDEST EQ PUSH2 0xB03 JUMPI PUSH1 0x40 MLOAD PUSH32 0xB8FA265700000000000000000000000000000000000000000000000000000000 DUP2 MSTORE PUSH1 0x4 ADD PUSH1 0x40 MLOAD DUP1 SWAP2 SUB SWAP1 REVERT JUMPDEST PUSH1 0x0 PUSH1 0x1 SWAP1 POP JUMPDEST PUSH1 0x2 SLOAD DUP2 GT PUSH2 0xB85 JUMPI DUP3 DUP1 MLOAD SWAP1 PUSH1 0x20 ADD KECCAK256 PUSH1 0x0 DUP1 DUP4 DUP2 MSTORE PUSH1 0x20 ADD SWAP1 DUP2 MSTORE PUSH1 0x20 ADD PUSH1 0x0 KECCAK256 PUSH1 0x40 MLOAD PUSH2 0xB3A SWAP2 SWAP1 PUSH2 0x1314 JUMP JUMPDEST PUSH1 0x40 MLOAD DUP1 SWAP2 SUB SWAP1 KECCAK256 EQ ISZERO PUSH2 0xB7A JUMPI PUSH1 0x40 MLOAD PUSH32 0x3A60529800000000000000000000000000000000000000000000000000000000 DUP2 MSTORE PUSH1 0x4 ADD PUSH1 0x40 MLOAD DUP1 SWAP2 SUB SWAP1 REVERT JUMPDEST DUP1 PUSH1 0x1 ADD SWAP1 POP PUSH2 0xB0A JUMP JUMPDEST POP PUSH1 0x2 PUSH1 0x0 DUP2 SLOAD DUP1 SWAP3 SWAP2 SWAP1 PUSH2 0xB99 SWAP1 PUSH2 0x163D JUMP JUMPDEST SWAP2 SWAP1 POP SSTORE POP DUP2 PUSH1 0x0 DUP1 PUSH1 0x2 SLOAD DUP2 MSTORE PUSH1 0x20 ADD SWAP1 DUP2 MSTORE PUSH1 0x20 ADD PUSH1 0x0 KECCAK256 SWAP1 DUP1 MLOAD SWAP1 PUSH1 0x20 ADD SWAP1 PUSH2 0xBC6 SWAP3 SWAP2 SWAP1 PUSH2 0xF57 JUMP JUMPDEST POP PUSH1 0x2 SLOAD SWAP1 POP SWAP2 SWAP1 POP JUMP JUMPDEST PUSH32 0x0 PUSH20 0xFFFFFFFFFFFFFFFFFFFFFFFFFFFFFFFFFFFFFFFF AND CALLER PUSH20 0xFFFFFFFFFFFFFFFFFFFFFFFFFFFFFFFFFFFFFFFF AND EQ PUSH2 0xC56 JUMPI PUSH1 0x40 MLOAD PUSH32 0x8A88558A00000000000000000000000000000000000000000000000000000000 DUP2 MSTORE PUSH1 0x4 ADD PUSH1 0x40 MLOAD DUP1 SWAP2 SUB SWAP1 REVERT JUMPDEST PUSH1 0x3 PUSH1 0x5 PUSH1 0x0 PUSH2 0x100 EXP DUP2 SLOAD DUP2 PUSH1 0xFF MUL NOT AND SWAP1 DUP4 PUSH1 0x3 DUP2 GT ISZERO PUSH2 0xC7C JUMPI PUSH2 0xC7B PUSH2 0x16E4 JUMP JUMPDEST JUMPDEST MUL OR SWAP1 SSTORE POP JUMP JUMPDEST PUSH1 0x4 SLOAD DUP2 JUMP JUMPDEST PUSH1 0x0 PUSH1 0x20 MSTORE DUP1 PUSH1 0x0 MSTORE PUSH1 0x40 PUSH1 0x0 KECCAK256 PUSH1 0x0 SWAP2 POP SWAP1 POP DUP1 SLOAD PUSH2 0xCA8 SWAP1 PUSH2 0x15DA JUMP JUMPDEST DUP1 PUSH1 0x1F ADD PUSH1 0x20 DUP1 SWAP2 DIV MUL PUSH1 0x20 ADD PUSH1 0x40 MLOAD SWAP1 DUP2 ADD PUSH1 0x40 MSTORE DUP1 SWAP3 SWAP2 SWAP1 DUP2 DUP2 MSTORE PUSH1 0x20 ADD DUP3 DUP1 SLOAD PUSH2 0xCD4 SWAP1 PUSH2 0x15DA JUMP JUMPDEST DUP1 ISZERO PUSH2 0xD21 JUMPI DUP1 PUSH1 0x1F LT PUSH2 0xCF6 JUMPI PUSH2 0x100 DUP1 DUP4 SLOAD DIV MUL DUP4 MSTORE SWAP2 PUSH1 0x20 ADD SWAP2 PUSH2 0xD21 JUMP JUMPDEST DUP3 ADD SWAP2 SWAP1 PUSH1 0x0 MSTORE PUSH1 0x20 PUSH1 0x0 KECCAK256 SWAP1 JUMPDEST DUP2 SLOAD DUP2 MSTORE SWAP1 PUSH1 0x1 ADD SWAP1 PUSH1 0x20 ADD DUP1 DUP4 GT PUSH2 0xD04 JUMPI DUP3 SWAP1 SUB PUSH1 0x1F AND DUP3 ADD SWAP2 JUMPDEST POP POP POP POP POP DUP2 JUMP JUMPDEST PUSH1 0x2 SLOAD DUP2 JUMP JUMPDEST PUSH1 0x5 PUSH1 0x0 SWAP1 SLOAD SWAP1 PUSH2 0x100 EXP SWAP1 DIV PUSH1 0xFF AND DUP2 JUMP JUMPDEST PUSH1 0x6 DUP1 SLOAD PUSH2 0xD4F SWAP1 PUSH2 0x15DA JUMP JUMPDEST DUP1 PUSH1 0x1F ADD PUSH1 0x20 DUP1 SWAP2 DIV MUL PUSH1 0x20 ADD PUSH1 0x40 MLOAD SWAP1 DUP2 ADD PUSH1 0x40 MSTORE DUP1 SWAP3 SWAP2 SWAP1 DUP2 DUP2 MSTORE PUSH1 0x20 ADD DUP3 DUP1 SLOAD PUSH2 0xD7B SWAP1 PUSH2 0x15DA JUMP JUMPDEST DUP1 ISZERO PUSH2 0xDC8 JUMPI DUP1 PUSH1 0x1F LT PUSH2 0xD9D JUMPI PUSH2 0x100 DUP1 DUP4 SLOAD DIV MUL DUP4 MSTORE SWAP2 PUSH1 0x20 ADD SWAP2 PUSH2 0xDC8 JUMP JUMPDEST DUP3 ADD SWAP2 SWAP1 PUSH1 0x0 MSTORE PUSH1 0x20 PUSH1 0x0 KECCAK256 SWAP1 JUMPDEST DUP2 SLOAD DUP2 MSTORE SWAP1 PUSH1 0x1 ADD SWAP1 PUSH1 0x20 ADD DUP1 DUP4 GT PUSH2 0xDAB JUMPI DUP3 SWAP1 SUB PUSH1 0x1F AND DUP3 ADD SWAP2 JUMPDEST POP POP POP POP POP DUP2 JUMP JUMPDEST PUSH1 0x0 DUP1 PUSH1 0x0 PUSH1 0x1 SWAP1 POP JUMPDEST PUSH1 0x4 SLOAD DUP2 GT PUSH2 0xEAF JUMPI PUSH1 0x0 PUSH1 0x1 SWAP1 POP PUSH1 0x0 PUSH1 0x8 PUSH1 0x0 PUSH1 0x7 PUSH1 0x0 DUP7 DUP2 MSTORE PUSH1 0x20 ADD SWAP1 DUP2 MSTORE PUSH1 0x20 ADD PUSH1 0x0 KECCAK256 PUSH1 0x1 ADD SLOAD DUP2 MSTORE PUSH1 0x20 ADD SWAP1 DUP2 MSTORE PUSH1 0x20 ADD PUSH1 0x0 KECCAK256 SLOAD GT ISZERO PUSH2 0xE53 JUMPI PUSH1 0x8 PUSH1 0x0 PUSH1 0x7 PUSH1 0x0 DUP6 DUP2 MSTORE PUSH1 0x20 ADD SWAP1 DUP2 MSTORE PUSH1 0x20 ADD PUSH1 0x0 KECCAK256 PUSH1 0x1 ADD SLOAD DUP2 MSTORE PUSH1 0x20 ADD SWAP1 DUP2 MSTORE PUSH1 0x20 ADD PUSH1 0x0 KECCAK256 SLOAD DUP2 PUSH2 0xE50 SWAP2 SWAP1 PUSH2 0x14A4 JUMP JUMPDEST SWAP1 POP JUMPDEST DUP1 PUSH1 0x8 PUSH1 0x0 PUSH1 0x7 PUSH1 0x0 DUP7 DUP2 MSTORE PUSH1 0x20 ADD SWAP1 DUP2 MSTORE PUSH1 0x20 ADD PUSH1 0x0 KECCAK256 PUSH1 0x1 ADD SLOAD DUP2 MSTORE PUSH1 0x20 ADD SWAP1 DUP2 MSTORE PUSH1 0x20 ADD PUSH1 0x0 KECCAK256 DUP2 SWAP1 SSTORE POP DUP4 DUP2 GT ISZERO PUSH2 0xEA3 JUMPI PUSH1 0x7 PUSH1 0x0 DUP4 DUP2 MSTORE PUSH1 0x20 ADD SWAP1 DUP2 MSTORE PUSH1 0x20 ADD PUSH1 0x0 KECCAK256 PUSH1 0x1 ADD SLOAD SWAP3 POP JUMPDEST DUP2 PUSH1 0x1 ADD SWAP2 POP POP PUSH2 0xDDA JUMP JUMPDEST POP PUSH1 0x0 DUP1 DUP3 DUP2 MSTORE PUSH1 0x20 ADD SWAP1 DUP2 MSTORE PUSH1 0x20 ADD PUSH1 0x0 KECCAK256 PUSH1 0x6 SWAP1 DUP1 SLOAD PUSH2 0xED0 SWAP1 PUSH2 0x15DA JUMP JUMPDEST PUSH2 0xEDB SWAP3 SWAP2 SWAP1 PUSH2 0xFDD JUMP JUMPDEST POP PUSH1 0x2 PUSH1 0x5 PUSH1 0x0 PUSH2 0x100 EXP DUP2 SLOAD DUP2 PUSH1 0xFF MUL NOT AND SWAP1 DUP4 PUSH1 0x3 DUP2 GT ISZERO PUSH2 0xF02 JUMPI PUSH2 0xF01 PUSH2 0x16E4 JUMP JUMPDEST JUMPDEST MUL OR SWAP1 SSTORE POP POP POP JUMP JUMPDEST PUSH1 0x40 MLOAD DUP1 PUSH1 0x40 ADD PUSH1 0x40 MSTORE DUP1 PUSH1 0x0 PUSH20 0xFFFFFFFFFFFFFFFFFFFFFFFFFFFFFFFFFFFFFFFF AND DUP2 MSTORE PUSH1 0x20 ADD PUSH1 0x0 DUP2 MSTORE POP SWAP1 JUMP JUMPDEST PUSH1 0x40 MLOAD DUP1 PUSH1 0x40 ADD PUSH1 0x40 MSTORE DUP1 PUSH1 0x60 DUP2 MSTORE PUSH1 0x20 ADD PUSH1 0x0 ISZERO ISZERO DUP2 MSTORE POP SWAP1 JUMP JUMPDEST DUP3 DUP1 SLOAD PUSH2 0xF63 SWAP1 PUSH2 0x15DA JUMP JUMPDEST SWAP1 PUSH1 0x0 MSTORE PUSH1 0x20 PUSH1 0x0 KECCAK256 SWAP1 PUSH1 0x1F ADD PUSH1 0x20 SWAP1 DIV DUP2 ADD SWAP3 DUP3 PUSH2 0xF85 JUMPI PUSH1 0x0 DUP6 SSTORE PUSH2 0xFCC JUMP JUMPDEST DUP3 PUSH1 0x1F LT PUSH2 0xF9E JUMPI DUP1 MLOAD PUSH1 0xFF NOT AND DUP4 DUP1 ADD OR DUP6 SSTORE PUSH2 0xFCC JUMP JUMPDEST DUP3 DUP1 ADD PUSH1 0x1 ADD DUP6 SSTORE DUP3 ISZERO PUSH2 0xFCC JUMPI SWAP2 DUP3 ADD JUMPDEST DUP3 DUP2 GT ISZERO PUSH2 0xFCB JUMPI DUP3 MLOAD DUP3 SSTORE SWAP2 PUSH1 0x20 ADD SWAP2 SWAP1 PUSH1 0x1 ADD SWAP1 PUSH2 0xFB0 JUMP JUMPDEST JUMPDEST POP SWAP1 POP PUSH2 0xFD9 SWAP2 SWAP1 PUSH2 0x106A JUMP JUMPDEST POP SWAP1 JUMP JUMPDEST DUP3 DUP1 SLOAD PUSH2 0xFE9 SWAP1 PUSH2 0x15DA JUMP JUMPDEST SWAP1 PUSH1 0x0 MSTORE PUSH1 0x20 PUSH1 0x0 KECCAK256 SWAP1 PUSH1 0x1F ADD PUSH1 0x20 SWAP1 DIV DUP2 ADD SWAP3 DUP3 PUSH2 0x100B JUMPI PUSH1 0x0 DUP6 SSTORE PUSH2 0x1059 JUMP JUMPDEST DUP3 PUSH1 0x1F LT PUSH2 0x101C JUMPI DUP1 SLOAD DUP6 SSTORE PUSH2 0x1059 JUMP JUMPDEST DUP3 DUP1 ADD PUSH1 0x1 ADD DUP6 SSTORE DUP3 ISZERO PUSH2 0x1059 JUMPI PUSH1 0x0 MSTORE PUSH1 0x20 PUSH1 0x0 KECCAK256 SWAP2 PUSH1 0x1F ADD PUSH1 0x20 SWAP1 DIV DUP3 ADD JUMPDEST DUP3 DUP2 GT ISZERO PUSH2 0x1058 JUMPI DUP3 SLOAD DUP3 SSTORE SWAP2 PUSH1 0x1 ADD SWAP2 SWAP1 PUSH1 0x1 ADD SWAP1 PUSH2 0x103D JUMP JUMPDEST JUMPDEST POP SWAP1 POP PUSH2 0x1066 SWAP2 SWAP1 PUSH2 0x106A JUMP JUMPDEST POP SWAP1 JUMP JUMPDEST JUMPDEST DUP1 DUP3 GT ISZERO PUSH2 0x1083 JUMPI PUSH1 0x0 DUP2 PUSH1 0x0 SWAP1 SSTORE POP PUSH1 0x1 ADD PUSH2 0x106B JUMP JUMPDEST POP SWAP1 JUMP JUMPDEST PUSH1 0x0 PUSH2 0x109A PUSH2 0x1095 DUP5 PUSH2 0x1437 JUMP JUMPDEST PUSH2 0x1412 JUMP JUMPDEST SWAP1 POP DUP3 DUP2 MSTORE PUSH1 0x20 DUP2 ADD DUP5 DUP5 DUP5 ADD GT ISZERO PUSH2 0x10B6 JUMPI PUSH2 0x10B5 PUSH2 0x1776 JUMP JUMPDEST JUMPDEST PUSH2 0x10C1 DUP5 DUP3 DUP6 PUSH2 0x1598 JUMP JUMPDEST POP SWAP4 SWAP3 POP POP POP JUMP JUMPDEST PUSH1 0x0 DUP2 CALLDATALOAD SWAP1 POP PUSH2 0x10D8 DUP2 PUSH2 0x17AA JUMP JUMPDEST SWAP3 SWAP2 POP POP JUMP JUMPDEST PUSH1 0x0 DUP3 PUSH1 0x1F DUP4 ADD SLT PUSH2 0x10F3 JUMPI PUSH2 0x10F2 PUSH2 0x1771 JUMP JUMPDEST JUMPDEST DUP2 CALLDATALOAD PUSH2 0x1103 DUP5 DUP3 PUSH1 0x20 DUP7 ADD PUSH2 0x1087 JUMP JUMPDEST SWAP2 POP POP SWAP3 SWAP2 POP POP JUMP JUMPDEST PUSH1 0x0 DUP2 CALLDATALOAD SWAP1 POP PUSH2 0x111B DUP2 PUSH2 0x17C1 JUMP JUMPDEST SWAP3 SWAP2 POP POP JUMP JUMPDEST PUSH1 0x0 PUSH1 0x20 DUP3 DUP5 SUB SLT ISZERO PUSH2 0x1137 JUMPI PUSH2 0x1136 PUSH2 0x1780 JUMP JUMPDEST JUMPDEST PUSH1 0x0 PUSH2 0x1145 DUP5 DUP3 DUP6 ADD PUSH2 0x10C9 JUMP JUMPDEST SWAP2 POP POP SWAP3 SWAP2 POP POP JUMP JUMPDEST PUSH1 0x0 DUP1 PUSH1 0x40 DUP4 DUP6 SUB SLT ISZERO PUSH2 0x1165 JUMPI PUSH2 0x1164 PUSH2 0x1780 JUMP JUMPDEST JUMPDEST PUSH1 0x0 PUSH2 0x1173 DUP6 DUP3 DUP7 ADD PUSH2 0x10C9 JUMP JUMPDEST SWAP3 POP POP PUSH1 0x20 DUP4 ADD CALLDATALOAD PUSH8 0xFFFFFFFFFFFFFFFF DUP2 GT ISZERO PUSH2 0x1194 JUMPI PUSH2 0x1193 PUSH2 0x177B JUMP JUMPDEST JUMPDEST PUSH2 0x11A0 DUP6 DUP3 DUP7 ADD PUSH2 0x10DE JUMP JUMPDEST SWAP2 POP POP SWAP3 POP SWAP3 SWAP1 POP JUMP JUMPDEST PUSH1 0x0 PUSH1 0x20 DUP3 DUP5 SUB SLT ISZERO PUSH2 0x11C0 JUMPI PUSH2 0x11BF PUSH2 0x1780 JUMP JUMPDEST JUMPDEST PUSH1 0x0 DUP3 ADD CALLDATALOAD PUSH8 0xFFFFFFFFFFFFFFFF DUP2 GT ISZERO PUSH2 0x11DE JUMPI PUSH2 0x11DD PUSH2 0x177B JUMP JUMPDEST JUMPDEST PUSH2 0x11EA DUP5 DUP3 DUP6 ADD PUSH2 0x10DE JUMP JUMPDEST SWAP2 POP POP SWAP3 SWAP2 POP POP JUMP JUMPDEST PUSH1 0x0 PUSH1 0x20 DUP3 DUP5 SUB SLT ISZERO PUSH2 0x1209 JUMPI PUSH2 0x1208 PUSH2 0x1780 JUMP JUMPDEST JUMPDEST PUSH1 0x0 PUSH2 0x1217 DUP5 DUP3 DUP6 ADD PUSH2 0x110C JUMP JUMPDEST SWAP2 POP POP SWAP3 SWAP2 POP POP JUMP JUMPDEST PUSH2 0x1229 DUP2 PUSH2 0x152B JUMP JUMPDEST DUP3 MSTORE POP POP JUMP JUMPDEST PUSH2 0x1238 DUP2 PUSH2 0x153D JUMP JUMPDEST DUP3 MSTORE POP POP JUMP JUMPDEST PUSH1 0x0 DUP2 SLOAD PUSH2 0x124B DUP2 PUSH2 0x15DA JUMP JUMPDEST PUSH2 0x1255 DUP2 DUP7 PUSH2 0x1488 JUMP JUMPDEST SWAP5 POP PUSH1 0x1 DUP3 AND PUSH1 0x0 DUP2 EQ PUSH2 0x1270 JUMPI PUSH1 0x1 DUP2 EQ PUSH2 0x1281 JUMPI PUSH2 0x12B4 JUMP JUMPDEST PUSH1 0xFF NOT DUP4 AND DUP7 MSTORE DUP2 DUP7 ADD SWAP4 POP PUSH2 0x12B4 JUMP JUMPDEST PUSH2 0x128A DUP6 PUSH2 0x1468 JUMP JUMPDEST PUSH1 0x0 JUMPDEST DUP4 DUP2 LT ISZERO PUSH2 0x12AC JUMPI DUP2 SLOAD DUP2 DUP10 ADD MSTORE PUSH1 0x1 DUP3 ADD SWAP2 POP PUSH1 0x20 DUP2 ADD SWAP1 POP PUSH2 0x128D JUMP JUMPDEST DUP4 DUP9 ADD SWAP6 POP POP POP JUMPDEST POP POP POP SWAP3 SWAP2 POP POP JUMP JUMPDEST PUSH2 0x12C6 DUP2 PUSH2 0x1586 JUMP JUMPDEST DUP3 MSTORE POP POP JUMP JUMPDEST PUSH1 0x0 PUSH2 0x12D7 DUP3 PUSH2 0x147D JUMP JUMPDEST PUSH2 0x12E1 DUP2 DUP6 PUSH2 0x1493 JUMP JUMPDEST SWAP4 POP PUSH2 0x12F1 DUP2 DUP6 PUSH1 0x20 DUP7 ADD PUSH2 0x15A7 JUMP JUMPDEST PUSH2 0x12FA DUP2 PUSH2 0x1785 JUMP JUMPDEST DUP5 ADD SWAP2 POP POP SWAP3 SWAP2 POP POP JUMP JUMPDEST PUSH2 0x130E DUP2 PUSH2 0x157C JUMP JUMPDEST DUP3 MSTORE POP POP JUMP JUMPDEST PUSH1 0x0 PUSH2 0x1320 DUP3 DUP5 PUSH2 0x123E JUMP JUMPDEST SWAP2 POP DUP2 SWAP1 POP SWAP3 SWAP2 POP POP JUMP JUMPDEST PUSH1 0x0 PUSH1 0x20 DUP3 ADD SWAP1 POP PUSH2 0x1340 PUSH1 0x0 DUP4 ADD DUP5 PUSH2 0x1220 JUMP JUMPDEST SWAP3 SWAP2 POP POP JUMP JUMPDEST PUSH1 0x0 PUSH1 0x40 DUP3 ADD SWAP1 POP PUSH2 0x135B PUSH1 0x0 DUP4 ADD DUP6 PUSH2 0x1220 JUMP JUMPDEST PUSH2 0x1368 PUSH1 0x20 DUP4 ADD DUP5 PUSH2 0x1305 JUMP JUMPDEST SWAP4 SWAP3 POP POP POP JUMP JUMPDEST PUSH1 0x0 PUSH1 0x20 DUP3 ADD SWAP1 POP PUSH2 0x1384 PUSH1 0x0 DUP4 ADD DUP5 PUSH2 0x122F JUMP JUMPDEST SWAP3 SWAP2 POP POP JUMP JUMPDEST PUSH1 0x0 PUSH1 0x20 DUP3 ADD SWAP1 POP PUSH2 0x139F PUSH1 0x0 DUP4 ADD DUP5 PUSH2 0x12BD JUMP JUMPDEST SWAP3 SWAP2 POP POP JUMP JUMPDEST PUSH1 0x0 PUSH1 0x20 DUP3 ADD SWAP1 POP DUP2 DUP2 SUB PUSH1 0x0 DUP4 ADD MSTORE PUSH2 0x13BF DUP2 DUP5 PUSH2 0x12CC JUMP JUMPDEST SWAP1 POP SWAP3 SWAP2 POP POP JUMP JUMPDEST PUSH1 0x0 PUSH1 0x40 DUP3 ADD SWAP1 POP DUP2 DUP2 SUB PUSH1 0x0 DUP4 ADD MSTORE PUSH2 0x13E1 DUP2 DUP6 PUSH2 0x12CC JUMP JUMPDEST SWAP1 POP PUSH2 0x13F0 PUSH1 0x20 DUP4 ADD DUP5 PUSH2 0x122F JUMP JUMPDEST SWAP4 SWAP3 POP POP POP JUMP JUMPDEST PUSH1 0x0 PUSH1 0x20 DUP3 ADD SWAP1 POP PUSH2 0x140C PUSH1 0x0 DUP4 ADD DUP5 PUSH2 0x1305 JUMP JUMPDEST SWAP3 SWAP2 POP POP JUMP JUMPDEST PUSH1 0x0 PUSH2 0x141C PUSH2 0x142D JUMP JUMPDEST SWAP1 POP PUSH2 0x1428 DUP3 DUP3 PUSH2 0x160C JUMP JUMPDEST SWAP2 SWAP1 POP JUMP JUMPDEST PUSH1 0x0 PUSH1 0x40 MLOAD SWAP1 POP SWAP1 JUMP JUMPDEST PUSH1 0x0 PUSH8 0xFFFFFFFFFFFFFFFF DUP3 GT ISZERO PUSH2 0x1452 JUMPI PUSH2 0x1451 PUSH2 0x1742 JUMP JUMPDEST JUMPDEST PUSH2 0x145B DUP3 PUSH2 0x1785 JUMP JUMPDEST SWAP1 POP PUSH1 0x20 DUP2 ADD SWAP1 POP SWAP2 SWAP1 POP JUMP JUMPDEST PUSH1 0x0 DUP2 SWAP1 POP DUP2 PUSH1 0x0 MSTORE PUSH1 0x20 PUSH1 0x0 KECCAK256 SWAP1 POP SWAP2 SWAP1 POP JUMP JUMPDEST PUSH1 0x0 DUP2 MLOAD SWAP1 POP SWAP2 SWAP1 POP JUMP JUMPDEST PUSH1 0x0 DUP2 SWAP1 POP SWAP3 SWAP2 POP POP JUMP JUMPDEST PUSH1 0x0 DUP3 DUP3 MSTORE PUSH1 0x20 DUP3 ADD SWAP1 POP SWAP3 SWAP2 POP POP JUMP JUMPDEST PUSH1 0x0 PUSH2 0x14AF DUP3 PUSH2 0x157C JUMP JUMPDEST SWAP2 POP PUSH2 0x14BA DUP4 PUSH2 0x157C JUMP JUMPDEST SWAP3 POP DUP3 PUSH32 0xFFFFFFFFFFFFFFFFFFFFFFFFFFFFFFFFFFFFFFFFFFFFFFFFFFFFFFFFFFFFFFFF SUB DUP3 GT ISZERO PUSH2 0x14EF JUMPI PUSH2 0x14EE PUSH2 0x1686 JUMP JUMPDEST JUMPDEST DUP3 DUP3 ADD SWAP1 POP SWAP3 SWAP2 POP POP JUMP JUMPDEST PUSH1 0x0 PUSH2 0x1505 DUP3 PUSH2 0x157C JUMP JUMPDEST SWAP2 POP PUSH2 0x1510 DUP4 PUSH2 0x157C JUMP JUMPDEST SWAP3 POP DUP3 PUSH2 0x1520 JUMPI PUSH2 0x151F PUSH2 0x16B5 JUMP JUMPDEST JUMPDEST DUP3 DUP3 DIV SWAP1 POP SWAP3 SWAP2 POP POP JUMP JUMPDEST PUSH1 0x0 PUSH2 0x1536 DUP3 PUSH2 0x155C JUMP JUMPDEST SWAP1 POP SWAP2 SWAP1 POP JUMP JUMPDEST PUSH1 0x0 DUP2 ISZERO ISZERO SWAP1 POP SWAP2 SWAP1 POP JUMP JUMPDEST PUSH1 0x0 DUP2 SWAP1 POP PUSH2 0x1557 DUP3 PUSH2 0x1796 JUMP JUMPDEST SWAP2 SWAP1 POP JUMP JUMPDEST PUSH1 0x0 PUSH20 0xFFFFFFFFFFFFFFFFFFFFFFFFFFFFFFFFFFFFFFFF DUP3 AND SWAP1 POP SWAP2 SWAP1 POP JUMP JUMPDEST PUSH1 0x0 DUP2 SWAP1 POP SWAP2 SWAP1 POP JUMP JUMPDEST PUSH1 0x0 PUSH2 0x1591 DUP3 PUSH2 0x1549 JUMP JUMPDEST SWAP1 POP SWAP2 SWAP1 POP JUMP JUMPDEST DUP3 DUP2 DUP4 CALLDATACOPY PUSH1 0x0 DUP4 DUP4 ADD MSTORE POP POP POP JUMP JUMPDEST PUSH1 0x0 JUMPDEST DUP4 DUP2 LT ISZERO PUSH2 0x15C5 JUMPI DUP1 DUP3 ADD MLOAD DUP2 DUP5 ADD MSTORE PUSH1 0x20 DUP2 ADD SWAP1 POP PUSH2 0x15AA JUMP JUMPDEST DUP4 DUP2 GT ISZERO PUSH2 0x15D4 JUMPI PUSH1 0x0 DUP5 DUP5 ADD MSTORE JUMPDEST POP POP POP POP JUMP JUMPDEST PUSH1 0x0 PUSH1 0x2 DUP3 DIV SWAP1 POP PUSH1 0x1 DUP3 AND DUP1 PUSH2 0x15F2 JUMPI PUSH1 0x7F DUP3 AND SWAP2 POP JUMPDEST PUSH1 0x20 DUP3 LT DUP2 EQ ISZERO PUSH2 0x1606 JUMPI PUSH2 0x1605 PUSH2 0x1713 JUMP JUMPDEST JUMPDEST POP SWAP2 SWAP1 POP JUMP JUMPDEST PUSH2 0x1615 DUP3 PUSH2 0x1785 JUMP JUMPDEST DUP2 ADD DUP2 DUP2 LT PUSH8 0xFFFFFFFFFFFFFFFF DUP3 GT OR ISZERO PUSH2 0x1634 JUMPI PUSH2 0x1633 PUSH2 0x1742 JUMP JUMPDEST JUMPDEST DUP1 PUSH1 0x40 MSTORE POP POP POP JUMP JUMPDEST PUSH1 0x0 PUSH2 0x1648 DUP3 PUSH2 0x157C JUMP JUMPDEST SWAP2 POP PUSH32 0xFFFFFFFFFFFFFFFFFFFFFFFFFFFFFFFFFFFFFFFFFFFFFFFFFFFFFFFFFFFFFFFF DUP3 EQ ISZERO PUSH2 0x167B JUMPI PUSH2 0x167A PUSH2 0x1686 JUMP JUMPDEST JUMPDEST PUSH1 0x1 DUP3 ADD SWAP1 POP SWAP2 SWAP1 POP JUMP JUMPDEST PUSH32 0x4E487B7100000000000000000000000000000000000000000000000000000000 PUSH1 0x0 MSTORE PUSH1 0x11 PUSH1 0x4 MSTORE PUSH1 0x24 PUSH1 0x0 REVERT JUMPDEST PUSH32 0x4E487B7100000000000000000000000000000000000000000000000000000000 PUSH1 0x0 MSTORE PUSH1 0x12 PUSH1 0x4 MSTORE PUSH1 0x24 PUSH1 0x0 REVERT JUMPDEST PUSH32 0x4E487B7100000000000000000000000000000000000000000000000000000000 PUSH1 0x0 MSTORE PUSH1 0x21 PUSH1 0x4 MSTORE PUSH1 0x24 PUSH1 0x0 REVERT JUMPDEST PUSH32 0x4E487B7100000000000000000000000000000000000000000000000000000000 PUSH1 0x0 MSTORE PUSH1 0x22 PUSH1 0x4 MSTORE PUSH1 0x24 PUSH1 0x0 REVERT JUMPDEST PUSH32 0x4E487B7100000000000000000000000000000000000000000000000000000000 PUSH1 0x0 MSTORE PUSH1 0x41 PUSH1 0x4 MSTORE PUSH1 0x24 PUSH1 0x0 REVERT JUMPDEST PUSH1 0x0 DUP1 REVERT JUMPDEST PUSH1 0x0 DUP1 REVERT JUMPDEST PUSH1 0x0 DUP1 REVERT JUMPDEST PUSH1 0x0 DUP1 REVERT JUMPDEST PUSH1 0x0 PUSH1 0x1F NOT PUSH1 0x1F DUP4 ADD AND SWAP1 POP SWAP2 SWAP1 POP JUMP JUMPDEST PUSH1 0x4 DUP2 LT PUSH2 0x17A7 JUMPI PUSH2 0x17A6 PUSH2 0x16E4 JUMP JUMPDEST JUMPDEST POP JUMP JUMPDEST PUSH2 0x17B3 DUP2 PUSH2 0x152B JUMP JUMPDEST DUP2 EQ PUSH2 0x17BE JUMPI PUSH1 0x0 DUP1 REVERT JUMPDEST POP JUMP JUMPDEST PUSH2 0x17CA DUP2 PUSH2 0x157C JUMP JUMPDEST DUP2 EQ PUSH2 0x17D5 JUMPI PUSH1 0x0 DUP1 REVERT JUMPDEST POP JUMP INVALID LOG2 PUSH5 0x6970667358 0x22 SLT KECCAK256 TIMESTAMP DUP6 0xC0 PUSH19 0xB527C628F9DF5EBFCE4D591AD6254AC04306B 0xA5 0xD2 0xE6 MSTORE8 0xA6 0x4D GASPRICE 0xFB SWAP1 PUSH5 0x736F6C6343 STOP ADDMOD SDIV STOP CALLER "
				},
				"gasEstimates": {
					"creation": {
						"codeDepositCost": "1231600",
						"executionCost": "infinite",
						"totalCost": "infinite"
					},
					"external": {
						"addFriend(address,string)": "infinite",
						"addRestaurant(string)": "infinite",
						"cancelVoting()": "infinite",
						"doVote(uint256)": "infinite",
						"friends(address)": "infinite",
						"manager()": "infinite",
						"numFriends()": "2474",
						"numRestaurants()": "2473",
						"numVotes()": "2496",
						"restaurants(uint256)": "infinite",
						"startVoting()": "infinite",
						"state()": "2626",
						"votedRestaurant()": "infinite",
						"votes(uint256)": "infinite"
					},
					"internal": {
						"finalResult()": "infinite"
					}
				},
				"methodIdentifiers": {
					"addFriend(address,string)": "3b9f708d",
					"addRestaurant(string)": "6d77bd3e",
					"cancelVoting()": "81f4b232",
					"doVote(uint256)": "124258c6",
					"friends(address)": "1ddabf7a",
					"manager()": "481c6a75",
					"numFriends()": "47098f36",
					"numRestaurants()": "b798867f",
					"numVotes()": "a3bef4d7",
					"restaurants(uint256)": "ad5461d8",
					"startVoting()": "1ec6b60a",
					"state()": "c19d93fb",
					"votedRestaurant()": "c1c16efc",
					"votes(uint256)": "5df81330"
				}
			},
			"storageLayout": {
				"storage": [
					{
						"astId": 21,
						"contract": "contracts/LunchVenue_new.sol:LunchVenueNew",
						"label": "restaurants",
						"offset": 0,
						"slot": "0",
						"type": "t_mapping(t_uint256,t_string_storage)"
					},
					{
						"astId": 26,
						"contract": "contracts/LunchVenue_new.sol:LunchVenueNew",
						"label": "friends",
						"offset": 0,
						"slot": "1",
						"type": "t_mapping(t_address,t_struct(Friend)7_storage)"
					},
					{
						"astId": 28,
						"contract": "contracts/LunchVenue_new.sol:LunchVenueNew",
						"label": "numRestaurants",
						"offset": 0,
						"slot": "2",
						"type": "t_uint256"
					},
					{
						"astId": 30,
						"contract": "contracts/LunchVenue_new.sol:LunchVenueNew",
						"label": "numFriends",
						"offset": 0,
						"slot": "3",
						"type": "t_uint256"
					},
					{
						"astId": 32,
						"contract": "contracts/LunchVenue_new.sol:LunchVenueNew",
						"label": "numVotes",
						"offset": 0,
						"slot": "4",
						"type": "t_uint256"
					},
					{
						"astId": 37,
						"contract": "contracts/LunchVenue_new.sol:LunchVenueNew",
						"label": "state",
						"offset": 0,
						"slot": "5",
						"type": "t_enum(State)17"
					},
					{
						"astId": 39,
						"contract": "contracts/LunchVenue_new.sol:LunchVenueNew",
						"label": "votedRestaurant",
						"offset": 0,
						"slot": "6",
						"type": "t_string_storage"
					},
					{
						"astId": 44,
						"contract": "contracts/LunchVenue_new.sol:LunchVenueNew",
						"label": "votes",
						"offset": 0,
						"slot": "7",
						"type": "t_mapping(t_uint256,t_struct(Vote)12_storage)"
					},
					{
						"astId": 48,
						"contract": "contracts/LunchVenue_new.sol:LunchVenueNew",
						"label": "_results",
						"offset": 0,
						"slot": "8",
						"type": "t_mapping(t_uint256,t_uint256)"
					}
				],
				"types": {
					"t_address": {
						"encoding": "inplace",
						"label": "address",
						"numberOfBytes": "20"
					},
					"t_bool": {
						"encoding": "inplace",
						"label": "bool",
						"numberOfBytes": "1"
					},
					"t_enum(State)17": {
						"encoding": "inplace",
						"label": "enum LunchVenueNew.State",
						"numberOfBytes": "1"
					},
					"t_mapping(t_address,t_struct(Friend)7_storage)": {
						"encoding": "mapping",
						"key": "t_address",
						"label": "mapping(address => struct LunchVenueNew.Friend)",
						"numberOfBytes": "32",
						"value": "t_struct(Friend)7_storage"
					},
					"t_mapping(t_uint256,t_string_storage)": {
						"encoding": "mapping",
						"key": "t_uint256",
						"label": "mapping(uint256 => string)",
						"numberOfBytes": "32",
						"value": "t_string_storage"
					},
					"t_mapping(t_uint256,t_struct(Vote)12_storage)": {
						"encoding": "mapping",
						"key": "t_uint256",
						"label": "mapping(uint256 => struct LunchVenueNew.Vote)",
						"numberOfBytes": "32",
						"value": "t_struct(Vote)12_storage"
					},
					"t_mapping(t_uint256,t_uint256)": {
						"encoding": "mapping",
						"key": "t_uint256",
						"label": "mapping(uint256 => uint256)",
						"numberOfBytes": "32",
						"value": "t_uint256"
					},
					"t_string_storage": {
						"encoding": "bytes",
						"label": "string",
						"numberOfBytes": "32"
					},
					"t_struct(Friend)7_storage": {
						"encoding": "inplace",
						"label": "struct LunchVenueNew.Friend",
						"members": [
							{
								"astId": 4,
								"contract": "contracts/LunchVenue_new.sol:LunchVenueNew",
								"label": "name",
								"offset": 0,
								"slot": "0",
								"type": "t_string_storage"
							},
							{
								"astId": 6,
								"contract": "contracts/LunchVenue_new.sol:LunchVenueNew",
								"label": "voted",
								"offset": 0,
								"slot": "1",
								"type": "t_bool"
							}
						],
						"numberOfBytes": "64"
					},
					"t_struct(Vote)12_storage": {
						"encoding": "inplace",
						"label": "struct LunchVenueNew.Vote",
						"members": [
							{
								"astId": 9,
								"contract": "contracts/LunchVenue_new.sol:LunchVenueNew",
								"label": "voterAddress",
								"offset": 0,
								"slot": "0",
								"type": "t_address"
							},
							{
								"astId": 11,
								"contract": "contracts/LunchVenue_new.sol:LunchVenueNew",
								"label": "restaurant",
								"offset": 0,
								"slot": "1",
								"type": "t_uint256"
							}
						],
						"numberOfBytes": "64"
					},
					"t_uint256": {
						"encoding": "inplace",
						"label": "uint256",
						"numberOfBytes": "32"
					}
				}
			},
			"userdoc": {
				"kind": "user",
				"methods": {
					"addFriend(address,string)": {
						"notice": "Add a new friend to voter list"
					},
					"addRestaurant(string)": {
						"notice": "Add a new restaurant"
					},
					"cancelVoting()": {
						"notice": "Cancel the voting"
					},
					"doVote(uint256)": {
						"notice": "Vote for a restaurant"
					},
					"startVoting()": {
						"notice": "Start the voting"
					}
				},
				"version": 1
			}
		}
	}
}