{
	"contracts/LunchVenue.sol": {
		"LunchVenue": {
			"abi": [
				{
					"inputs": [],
					"stateMutability": "nonpayable",
					"type": "constructor"
				},
				{
					"inputs": [
						{
							"internalType": "address",
							"name": "friendAddress",
							"type": "address"
						},
						{
							"internalType": "string",
							"name": "name",
							"type": "string"
						}
					],
					"name": "addFriend",
					"outputs": [
						{
							"internalType": "uint256",
							"name": "",
							"type": "uint256"
						}
					],
					"stateMutability": "nonpayable",
					"type": "function"
				},
				{
					"inputs": [
						{
							"internalType": "string",
							"name": "name",
							"type": "string"
						}
					],
					"name": "addRestaurant",
					"outputs": [
						{
							"internalType": "uint256",
							"name": "",
							"type": "uint256"
						}
					],
					"stateMutability": "nonpayable",
					"type": "function"
				},
				{
					"inputs": [
						{
							"internalType": "uint256",
							"name": "restaurant",
							"type": "uint256"
						}
					],
					"name": "doVote",
					"outputs": [
						{
							"internalType": "bool",
							"name": "validVote",
							"type": "bool"
						}
					],
					"stateMutability": "nonpayable",
					"type": "function"
				},
				{
					"inputs": [
						{
							"internalType": "address",
							"name": "",
							"type": "address"
						}
					],
					"name": "friends",
					"outputs": [
						{
							"internalType": "string",
							"name": "name",
							"type": "string"
						},
						{
							"internalType": "bool",
							"name": "voted",
							"type": "bool"
						}
					],
					"stateMutability": "view",
					"type": "function"
				},
				{
					"inputs": [],
					"name": "manager",
					"outputs": [
						{
							"internalType": "address",
							"name": "",
							"type": "address"
						}
					],
					"stateMutability": "view",
					"type": "function"
				},
				{
					"inputs": [],
					"name": "numFriends",
					"outputs": [
						{
							"internalType": "uint256",
							"name": "",
							"type": "uint256"
						}
					],
					"stateMutability": "view",
					"type": "function"
				},
				{
					"inputs": [],
					"name": "numRestaurants",
					"outputs": [
						{
							"internalType": "uint256",
							"name": "",
							"type": "uint256"
						}
					],
					"stateMutability": "view",
					"type": "function"
				},
				{
					"inputs": [],
					"name": "numVotes",
					"outputs": [
						{
							"internalType": "uint256",
							"name": "",
							"type": "uint256"
						}
					],
					"stateMutability": "view",
					"type": "function"
				},
				{
					"inputs": [
						{
							"internalType": "uint256",
							"name": "",
							"type": "uint256"
						}
					],
					"name": "restaurants",
					"outputs": [
						{
							"internalType": "string",
							"name": "",
							"type": "string"
						}
					],
					"stateMutability": "view",
					"type": "function"
				},
				{
					"inputs": [],
					"name": "voteOpen",
					"outputs": [
						{
							"internalType": "bool",
							"name": "",
							"type": "bool"
						}
					],
					"stateMutability": "view",
					"type": "function"
				},
				{
					"inputs": [],
					"name": "votedRestaurant",
					"outputs": [
						{
							"internalType": "string",
							"name": "",
							"type": "string"
						}
					],
					"stateMutability": "view",
					"type": "function"
				},
				{
					"inputs": [
						{
							"internalType": "uint256",
							"name": "",
							"type": "uint256"
						}
					],
					"name": "votes",
					"outputs": [
						{
							"internalType": "address",
							"name": "voterAddress",
							"type": "address"
						},
						{
							"internalType": "uint256",
							"name": "restaurant",
							"type": "uint256"
						}
					],
					"stateMutability": "view",
					"type": "function"
				}
			],
			"devdoc": {
				"author": "Dilum Bandara, CSIRO's Data61",
				"kind": "dev",
				"methods": {
					"addFriend(address,string)": {
						"details": "To simplify the code duplication of friends is not checked",
						"params": {
							"friendAddress": "Friend's account/address",
							"name": "Friend's name"
						},
						"returns": {
							"_0": "Number of friends added so far"
						}
					},
					"addRestaurant(string)": {
						"details": "To simplify the code, duplication of restaurants isn't checked",
						"params": {
							"name": "Restaurant name"
						},
						"returns": {
							"_0": "Number of restaurants added so far"
						}
					},
					"constructor": {
						"details": "Set manager when contract starts"
					},
					"doVote(uint256)": {
						"details": "To simplify the code duplicate votes by a friend is not checked",
						"params": {
							"restaurant": "Restaurant number being voted"
						},
						"returns": {
							"validVote": "Is the vote valid? A valid vote should be from a registered friend to registered restaurant"
						}
					}
				},
				"title": "Contract to agree on the lunch venue",
				"version": 1
			},
			"evm": {
				"assembly": "    /* \"contracts/LunchVenue.sol\":157:4305  contract LunchVenue {... */\n  mstore(0x40, 0x80)\n    /* \"contracts/LunchVenue.sol\":555:556  0 */\n  0x00\n    /* \"contracts/LunchVenue.sol\":526:556  uint public numRestaurants = 0 */\n  0x02\n  sstore\n    /* \"contracts/LunchVenue.sol\":587:588  0 */\n  0x00\n    /* \"contracts/LunchVenue.sol\":562:588  uint public numFriends = 0 */\n  0x03\n  sstore\n    /* \"contracts/LunchVenue.sol\":617:618  0 */\n  0x00\n    /* \"contracts/LunchVenue.sol\":594:618  uint public numVotes = 0 */\n  0x04\n  sstore\n    /* \"contracts/LunchVenue.sol\":670:704  string public votedRestaurant = \"\" */\n  mload(0x40)\n  dup1\n  0x20\n  add\n  0x40\n  mstore\n  dup1\n  0x00\n  dup2\n  mstore\n  pop\n  0x06\n  swap1\n  dup1\n  mload\n  swap1\n  0x20\n  add\n  swap1\n  tag_1\n  swap3\n  swap2\n  swap1\n  tag_2\n  jump\t// in\ntag_1:\n  pop\n    /* \"contracts/LunchVenue.sol\":926:930  true */\n  0x01\n    /* \"contracts/LunchVenue.sol\":903:930  bool public voteOpen = true */\n  0x09\n  exp(0x0100, 0x00)\n  dup2\n  sload\n  dup2\n  0xff\n  mul\n  not\n  and\n  swap1\n  dup4\n  iszero\n  iszero\n  mul\n  or\n  swap1\n  sstore\n  pop\n    /* \"contracts/LunchVenue.sol\":1015:1101  constructor () {... */\n  callvalue\n  dup1\n  iszero\n  tag_3\n  jumpi\n  0x00\n  dup1\n  revert\ntag_3:\n  pop\n    /* \"contracts/LunchVenue.sol\":1050:1060  msg.sender */\n  caller\n    /* \"contracts/LunchVenue.sol\":1040:1047  manager */\n  0x05\n  0x00\n    /* \"contracts/LunchVenue.sol\":1040:1060  manager = msg.sender */\n  0x0100\n  exp\n  dup2\n  sload\n  dup2\n  0xffffffffffffffffffffffffffffffffffffffff\n  mul\n  not\n  and\n  swap1\n  dup4\n  0xffffffffffffffffffffffffffffffffffffffff\n  and\n  mul\n  or\n  swap1\n  sstore\n  pop\n    /* \"contracts/LunchVenue.sol\":157:4305  contract LunchVenue {... */\n  jump(tag_6)\ntag_2:\n  dup3\n  dup1\n  sload\n  tag_7\n  swap1\n  tag_8\n  jump\t// in\ntag_7:\n  swap1\n  0x00\n  mstore\n  keccak256(0x00, 0x20)\n  swap1\n  0x1f\n  add\n  0x20\n  swap1\n  div\n  dup2\n  add\n  swap3\n  dup3\n  tag_10\n  jumpi\n  0x00\n  dup6\n  sstore\n  jump(tag_9)\ntag_10:\n  dup3\n  0x1f\n  lt\n  tag_11\n  jumpi\n  dup1\n  mload\n  not(0xff)\n  and\n  dup4\n  dup1\n  add\n  or\n  dup6\n  sstore\n  jump(tag_9)\ntag_11:\n  dup3\n  dup1\n  add\n  0x01\n  add\n  dup6\n  sstore\n  dup3\n  iszero\n  tag_9\n  jumpi\n  swap2\n  dup3\n  add\ntag_12:\n  dup3\n  dup2\n  gt\n  iszero\n  tag_13\n  jumpi\n  dup3\n  mload\n  dup3\n  sstore\n  swap2\n  0x20\n  add\n  swap2\n  swap1\n  0x01\n  add\n  swap1\n  jump(tag_12)\ntag_13:\ntag_9:\n  pop\n  swap1\n  pop\n  tag_14\n  swap2\n  swap1\n  tag_15\n  jump\t// in\ntag_14:\n  pop\n  swap1\n  jump\t// out\ntag_15:\ntag_16:\n  dup1\n  dup3\n  gt\n  iszero\n  tag_17\n  jumpi\n  0x00\n  dup2\n  0x00\n  swap1\n  sstore\n  pop\n  0x01\n  add\n  jump(tag_16)\ntag_17:\n  pop\n  swap1\n  jump\t// out\n    /* \"#utility.yul\":7:327   */\ntag_8:\n    /* \"#utility.yul\":51:57   */\n  0x00\n    /* \"#utility.yul\":88:89   */\n  0x02\n    /* \"#utility.yul\":82:86   */\n  dup3\n    /* \"#utility.yul\":78:90   */\n  div\n    /* \"#utility.yul\":68:90   */\n  swap1\n  pop\n    /* \"#utility.yul\":135:136   */\n  0x01\n    /* \"#utility.yul\":129:133   */\n  dup3\n    /* \"#utility.yul\":125:137   */\n  and\n    /* \"#utility.yul\":156:174   */\n  dup1\n    /* \"#utility.yul\":146:148   */\n  tag_20\n  jumpi\n    /* \"#utility.yul\":212:216   */\n  0x7f\n    /* \"#utility.yul\":204:210   */\n  dup3\n    /* \"#utility.yul\":200:217   */\n  and\n    /* \"#utility.yul\":190:217   */\n  swap2\n  pop\n    /* \"#utility.yul\":146:148   */\ntag_20:\n    /* \"#utility.yul\":274:276   */\n  0x20\n    /* \"#utility.yul\":266:272   */\n  dup3\n    /* \"#utility.yul\":263:277   */\n  lt\n    /* \"#utility.yul\":243:261   */\n  dup2\n    /* \"#utility.yul\":240:278   */\n  eq\n    /* \"#utility.yul\":237:239   */\n  iszero\n  tag_21\n  jumpi\n    /* \"#utility.yul\":293:311   */\n  tag_22\n  tag_23\n  jump\t// in\ntag_22:\n    /* \"#utility.yul\":237:239   */\ntag_21:\n    /* \"#utility.yul\":58:327   */\n  pop\n  swap2\n  swap1\n  pop\n  jump\t// out\n    /* \"#utility.yul\":333:513   */\ntag_23:\n    /* \"#utility.yul\":381:458   */\n  0x4e487b7100000000000000000000000000000000000000000000000000000000\n    /* \"#utility.yul\":378:379   */\n  0x00\n    /* \"#utility.yul\":371:459   */\n  mstore\n    /* \"#utility.yul\":478:482   */\n  0x22\n    /* \"#utility.yul\":475:476   */\n  0x04\n    /* \"#utility.yul\":468:483   */\n  mstore\n    /* \"#utility.yul\":502:506   */\n  0x24\n    /* \"#utility.yul\":499:500   */\n  0x00\n    /* \"#utility.yul\":492:507   */\n  revert\n    /* \"contracts/LunchVenue.sol\":157:4305  contract LunchVenue {... */\ntag_6:\n  dataSize(sub_0)\n  dup1\n  dataOffset(sub_0)\n  0x00\n  codecopy\n  0x00\n  return\nstop\n\nsub_0: assembly {\n        /* \"contracts/LunchVenue.sol\":157:4305  contract LunchVenue {... */\n      mstore(0x40, 0x80)\n      callvalue\n      dup1\n      iszero\n      tag_1\n      jumpi\n      0x00\n      dup1\n      revert\n    tag_1:\n      pop\n      jumpi(tag_2, lt(calldatasize, 0x04))\n      shr(0xe0, calldataload(0x00))\n      dup1\n      0x6d77bd3e\n      gt\n      tag_15\n      jumpi\n      dup1\n      0x6d77bd3e\n      eq\n      tag_9\n      jumpi\n      dup1\n      0x788d3851\n      eq\n      tag_10\n      jumpi\n      dup1\n      0xa3bef4d7\n      eq\n      tag_11\n      jumpi\n      dup1\n      0xad5461d8\n      eq\n      tag_12\n      jumpi\n      dup1\n      0xb798867f\n      eq\n      tag_13\n      jumpi\n      dup1\n      0xc1c16efc\n      eq\n      tag_14\n      jumpi\n      jump(tag_2)\n    tag_15:\n      dup1\n      0x124258c6\n      eq\n      tag_3\n      jumpi\n      dup1\n      0x1ddabf7a\n      eq\n      tag_4\n      jumpi\n      dup1\n      0x3b9f708d\n      eq\n      tag_5\n      jumpi\n      dup1\n      0x47098f36\n      eq\n      tag_6\n      jumpi\n      dup1\n      0x481c6a75\n      eq\n      tag_7\n      jumpi\n      dup1\n      0x5df81330\n      eq\n      tag_8\n      jumpi\n    tag_2:\n      0x00\n      dup1\n      revert\n        /* \"contracts/LunchVenue.sol\":2379:3094  function doVote(uint restaurant) public votingOpen returns (bool validVote) {... */\n    tag_3:\n      tag_16\n      0x04\n      dup1\n      calldatasize\n      sub\n      dup2\n      add\n      swap1\n      tag_17\n      swap2\n      swap1\n      tag_18\n      jump\t// in\n    tag_17:\n      tag_19\n      jump\t// in\n    tag_16:\n      mload(0x40)\n      tag_20\n      swap2\n      swap1\n      tag_21\n      jump\t// in\n    tag_20:\n      mload(0x40)\n      dup1\n      swap2\n      sub\n      swap1\n      return\n        /* \"contracts/LunchVenue.sol\":442:484  mapping (address => Friend) public friends */\n    tag_4:\n      tag_22\n      0x04\n      dup1\n      calldatasize\n      sub\n      dup2\n      add\n      swap1\n      tag_23\n      swap2\n      swap1\n      tag_24\n      jump\t// in\n    tag_23:\n      tag_25\n      jump\t// in\n    tag_22:\n      mload(0x40)\n      tag_26\n      swap3\n      swap2\n      swap1\n      tag_27\n      jump\t// in\n    tag_26:\n      mload(0x40)\n      dup1\n      swap2\n      sub\n      swap1\n      return\n        /* \"contracts/LunchVenue.sol\":1793:2053  function addFriend(address friendAddress, string memory name) public restricted returns (uint) {... */\n    tag_5:\n      tag_28\n      0x04\n      dup1\n      calldatasize\n      sub\n      dup2\n      add\n      swap1\n      tag_29\n      swap2\n      swap1\n      tag_30\n      jump\t// in\n    tag_29:\n      tag_31\n      jump\t// in\n    tag_28:\n      mload(0x40)\n      tag_32\n      swap2\n      swap1\n      tag_33\n      jump\t// in\n    tag_32:\n      mload(0x40)\n      dup1\n      swap2\n      sub\n      swap1\n      return\n        /* \"contracts/LunchVenue.sol\":562:588  uint public numFriends = 0 */\n    tag_6:\n      tag_34\n      tag_35\n      jump\t// in\n    tag_34:\n      mload(0x40)\n      tag_36\n      swap2\n      swap1\n      tag_33\n      jump\t// in\n    tag_36:\n      mload(0x40)\n      dup1\n      swap2\n      sub\n      swap1\n      return\n        /* \"contracts/LunchVenue.sol\":624:646  address public manager */\n    tag_7:\n      tag_37\n      tag_38\n      jump\t// in\n    tag_37:\n      mload(0x40)\n      tag_39\n      swap2\n      swap1\n      tag_40\n      jump\t// in\n    tag_39:\n      mload(0x40)\n      dup1\n      swap2\n      sub\n      swap1\n      return\n        /* \"contracts/LunchVenue.sol\":733:768  mapping (uint => Vote) public votes */\n    tag_8:\n      tag_41\n      0x04\n      dup1\n      calldatasize\n      sub\n      dup2\n      add\n      swap1\n      tag_42\n      swap2\n      swap1\n      tag_18\n      jump\t// in\n    tag_42:\n      tag_43\n      jump\t// in\n    tag_41:\n      mload(0x40)\n      tag_44\n      swap3\n      swap2\n      swap1\n      tag_45\n      jump\t// in\n    tag_44:\n      mload(0x40)\n      dup1\n      swap2\n      sub\n      swap1\n      return\n        /* \"contracts/LunchVenue.sol\":1326:1510  function addRestaurant(string memory name) public restricted returns (uint) {... */\n    tag_9:\n      tag_46\n      0x04\n      dup1\n      calldatasize\n      sub\n      dup2\n      add\n      swap1\n      tag_47\n      swap2\n      swap1\n      tag_48\n      jump\t// in\n    tag_47:\n      tag_49\n      jump\t// in\n    tag_46:\n      mload(0x40)\n      tag_50\n      swap2\n      swap1\n      tag_33\n      jump\t// in\n    tag_50:\n      mload(0x40)\n      dup1\n      swap2\n      sub\n      swap1\n      return\n        /* \"contracts/LunchVenue.sol\":903:930  bool public voteOpen = true */\n    tag_10:\n      tag_51\n      tag_52\n      jump\t// in\n    tag_51:\n      mload(0x40)\n      tag_53\n      swap2\n      swap1\n      tag_21\n      jump\t// in\n    tag_53:\n      mload(0x40)\n      dup1\n      swap2\n      sub\n      swap1\n      return\n        /* \"contracts/LunchVenue.sol\":594:618  uint public numVotes = 0 */\n    tag_11:\n      tag_54\n      tag_55\n      jump\t// in\n    tag_54:\n      mload(0x40)\n      tag_56\n      swap2\n      swap1\n      tag_33\n      jump\t// in\n    tag_56:\n      mload(0x40)\n      dup1\n      swap2\n      sub\n      swap1\n      return\n        /* \"contracts/LunchVenue.sol\":349:392  mapping (uint => string) public restaurants */\n    tag_12:\n      tag_57\n      0x04\n      dup1\n      calldatasize\n      sub\n      dup2\n      add\n      swap1\n      tag_58\n      swap2\n      swap1\n      tag_18\n      jump\t// in\n    tag_58:\n      tag_59\n      jump\t// in\n    tag_57:\n      mload(0x40)\n      tag_60\n      swap2\n      swap1\n      tag_61\n      jump\t// in\n    tag_60:\n      mload(0x40)\n      dup1\n      swap2\n      sub\n      swap1\n      return\n        /* \"contracts/LunchVenue.sol\":526:556  uint public numRestaurants = 0 */\n    tag_13:\n      tag_62\n      tag_63\n      jump\t// in\n    tag_62:\n      mload(0x40)\n      tag_64\n      swap2\n      swap1\n      tag_33\n      jump\t// in\n    tag_64:\n      mload(0x40)\n      dup1\n      swap2\n      sub\n      swap1\n      return\n        /* \"contracts/LunchVenue.sol\":670:704  string public votedRestaurant = \"\" */\n    tag_14:\n      tag_65\n      tag_66\n      jump\t// in\n    tag_65:\n      mload(0x40)\n      tag_67\n      swap2\n      swap1\n      tag_61\n      jump\t// in\n    tag_67:\n      mload(0x40)\n      dup1\n      swap2\n      sub\n      swap1\n      return\n        /* \"contracts/LunchVenue.sol\":2379:3094  function doVote(uint restaurant) public votingOpen returns (bool validVote) {... */\n    tag_19:\n        /* \"contracts/LunchVenue.sol\":2439:2453  bool validVote */\n      0x00\n        /* \"contracts/LunchVenue.sol\":4241:4245  true */\n      0x01\n        /* \"contracts/LunchVenue.sol\":4229:4245  voteOpen == true */\n      iszero\n      iszero\n        /* \"contracts/LunchVenue.sol\":4229:4237  voteOpen */\n      0x09\n      0x00\n      swap1\n      sload\n      swap1\n      0x0100\n      exp\n      swap1\n      div\n      0xff\n      and\n        /* \"contracts/LunchVenue.sol\":4229:4245  voteOpen == true */\n      iszero\n      iszero\n      eq\n        /* \"contracts/LunchVenue.sol\":4221:4285  require(voteOpen == true, \"Can vote only while voting is open.\") */\n      tag_69\n      jumpi\n      mload(0x40)\n      0x08c379a000000000000000000000000000000000000000000000000000000000\n      dup2\n      mstore\n      0x04\n      add\n      tag_70\n      swap1\n      tag_71\n      jump\t// in\n    tag_70:\n      mload(0x40)\n      dup1\n      swap2\n      sub\n      swap1\n      revert\n    tag_69:\n        /* \"contracts/LunchVenue.sol\":2477:2482  false */\n      0x00\n        /* \"contracts/LunchVenue.sol\":2465:2482  validVote = false */\n      swap1\n      pop\n        /* \"contracts/LunchVenue.sol\":2559:2560  0 */\n      0x00\n        /* \"contracts/LunchVenue.sol\":2523:2530  friends */\n      0x01\n        /* \"contracts/LunchVenue.sol\":2523:2542  friends[msg.sender] */\n      0x00\n        /* \"contracts/LunchVenue.sol\":2531:2541  msg.sender */\n      caller\n        /* \"contracts/LunchVenue.sol\":2523:2542  friends[msg.sender] */\n      0xffffffffffffffffffffffffffffffffffffffff\n      and\n      0xffffffffffffffffffffffffffffffffffffffff\n      and\n      dup2\n      mstore\n      0x20\n      add\n      swap1\n      dup2\n      mstore\n      0x20\n      add\n      0x00\n      keccak256\n        /* \"contracts/LunchVenue.sol\":2523:2547  friends[msg.sender].name */\n      0x00\n      add\n        /* \"contracts/LunchVenue.sol\":2517:2555  bytes(friends[msg.sender].name).length */\n      dup1\n      sload\n      tag_73\n      swap1\n      tag_74\n      jump\t// in\n    tag_73:\n      swap1\n      pop\n        /* \"contracts/LunchVenue.sol\":2517:2560  bytes(friends[msg.sender].name).length != 0 */\n      eq\n        /* \"contracts/LunchVenue.sol\":2513:2964  if (bytes(friends[msg.sender].name).length != 0) { //Does friend exist?... */\n      tag_75\n      jumpi\n        /* \"contracts/LunchVenue.sol\":2642:2643  0 */\n      0x00\n        /* \"contracts/LunchVenue.sol\":2607:2618  restaurants */\n      dup1\n        /* \"contracts/LunchVenue.sol\":2607:2630  restaurants[restaurant] */\n      0x00\n        /* \"contracts/LunchVenue.sol\":2619:2629  restaurant */\n      dup5\n        /* \"contracts/LunchVenue.sol\":2607:2630  restaurants[restaurant] */\n      dup2\n      mstore\n      0x20\n      add\n      swap1\n      dup2\n      mstore\n      0x20\n      add\n      0x00\n      keccak256\n        /* \"contracts/LunchVenue.sol\":2601:2638  bytes(restaurants[restaurant]).length */\n      dup1\n      sload\n      tag_76\n      swap1\n      tag_74\n      jump\t// in\n    tag_76:\n      swap1\n      pop\n        /* \"contracts/LunchVenue.sol\":2601:2643  bytes(restaurants[restaurant]).length != 0 */\n      eq\n        /* \"contracts/LunchVenue.sol\":2597:2954  if (bytes(restaurants[restaurant]).length != 0) { //Does restaurant exists?... */\n      tag_77\n      jumpi\n        /* \"contracts/LunchVenue.sol\":2701:2705  true */\n      0x01\n        /* \"contracts/LunchVenue.sol\":2689:2705  validVote = true */\n      swap1\n      pop\n        /* \"contracts/LunchVenue.sol\":2751:2755  true */\n      0x01\n        /* \"contracts/LunchVenue.sol\":2723:2730  friends */\n      dup1\n        /* \"contracts/LunchVenue.sol\":2723:2742  friends[msg.sender] */\n      0x00\n        /* \"contracts/LunchVenue.sol\":2731:2741  msg.sender */\n      caller\n        /* \"contracts/LunchVenue.sol\":2723:2742  friends[msg.sender] */\n      0xffffffffffffffffffffffffffffffffffffffff\n      and\n      0xffffffffffffffffffffffffffffffffffffffff\n      and\n      dup2\n      mstore\n      0x20\n      add\n      swap1\n      dup2\n      mstore\n      0x20\n      add\n      0x00\n      keccak256\n        /* \"contracts/LunchVenue.sol\":2723:2748  friends[msg.sender].voted */\n      0x01\n      add\n      0x00\n        /* \"contracts/LunchVenue.sol\":2723:2755  friends[msg.sender].voted = true */\n      0x0100\n      exp\n      dup2\n      sload\n      dup2\n      0xff\n      mul\n      not\n      and\n      swap1\n      dup4\n      iszero\n      iszero\n      mul\n      or\n      swap1\n      sstore\n      pop\n        /* \"contracts/LunchVenue.sol\":2773:2786  Vote memory v */\n      tag_78\n      tag_79\n      jump\t// in\n    tag_78:\n        /* \"contracts/LunchVenue.sol\":2821:2831  msg.sender */\n      caller\n        /* \"contracts/LunchVenue.sol\":2804:2805  v */\n      dup2\n        /* \"contracts/LunchVenue.sol\":2804:2818  v.voterAddress */\n      0x00\n      add\n        /* \"contracts/LunchVenue.sol\":2804:2831  v.voterAddress = msg.sender */\n      swap1\n      0xffffffffffffffffffffffffffffffffffffffff\n      and\n      swap1\n      dup2\n      0xffffffffffffffffffffffffffffffffffffffff\n      and\n      dup2\n      mstore\n      pop\n      pop\n        /* \"contracts/LunchVenue.sol\":2864:2874  restaurant */\n      dup3\n        /* \"contracts/LunchVenue.sol\":2849:2850  v */\n      dup2\n        /* \"contracts/LunchVenue.sol\":2849:2861  v.restaurant */\n      0x20\n      add\n        /* \"contracts/LunchVenue.sol\":2849:2874  v.restaurant = restaurant */\n      dup2\n      dup2\n      mstore\n      pop\n      pop\n        /* \"contracts/LunchVenue.sol\":2892:2900  numVotes */\n      0x04\n      0x00\n        /* \"contracts/LunchVenue.sol\":2892:2902  numVotes++ */\n      dup2\n      sload\n      dup1\n      swap3\n      swap2\n      swap1\n      tag_80\n      swap1\n      tag_81\n      jump\t// in\n    tag_80:\n      swap2\n      swap1\n      pop\n      sstore\n      pop\n        /* \"contracts/LunchVenue.sol\":2938:2939  v */\n      dup1\n        /* \"contracts/LunchVenue.sol\":2920:2925  votes */\n      0x07\n        /* \"contracts/LunchVenue.sol\":2920:2935  votes[numVotes] */\n      0x00\n        /* \"contracts/LunchVenue.sol\":2926:2934  numVotes */\n      sload(0x04)\n        /* \"contracts/LunchVenue.sol\":2920:2935  votes[numVotes] */\n      dup2\n      mstore\n      0x20\n      add\n      swap1\n      dup2\n      mstore\n      0x20\n      add\n      0x00\n      keccak256\n        /* \"contracts/LunchVenue.sol\":2920:2939  votes[numVotes] = v */\n      0x00\n      dup3\n      add\n      mload\n      dup2\n      0x00\n      add\n      exp(0x0100, 0x00)\n      dup2\n      sload\n      dup2\n      0xffffffffffffffffffffffffffffffffffffffff\n      mul\n      not\n      and\n      swap1\n      dup4\n      0xffffffffffffffffffffffffffffffffffffffff\n      and\n      mul\n      or\n      swap1\n      sstore\n      pop\n      0x20\n      dup3\n      add\n      mload\n      dup2\n      0x01\n      add\n      sstore\n      swap1\n      pop\n      pop\n        /* \"contracts/LunchVenue.sol\":2645:2954  { //Does restaurant exists?... */\n      pop\n        /* \"contracts/LunchVenue.sol\":2597:2954  if (bytes(restaurants[restaurant]).length != 0) { //Does restaurant exists?... */\n    tag_77:\n        /* \"contracts/LunchVenue.sol\":2513:2964  if (bytes(friends[msg.sender].name).length != 0) { //Does friend exist?... */\n    tag_75:\n        /* \"contracts/LunchVenue.sol\":3005:3006  1 */\n      0x01\n        /* \"contracts/LunchVenue.sol\":3001:3002  2 */\n      0x02\n        /* \"contracts/LunchVenue.sol\":2990:3000  numFriends */\n      sload(0x03)\n        /* \"contracts/LunchVenue.sol\":2990:3002  numFriends/2 */\n      tag_82\n      swap2\n      swap1\n      tag_83\n      jump\t// in\n    tag_82:\n        /* \"contracts/LunchVenue.sol\":2990:3006  numFriends/2 + 1 */\n      tag_84\n      swap2\n      swap1\n      tag_85\n      jump\t// in\n    tag_84:\n        /* \"contracts/LunchVenue.sol\":2978:2986  numVotes */\n      sload(0x04)\n        /* \"contracts/LunchVenue.sol\":2978:3006  numVotes >= numFriends/2 + 1 */\n      lt\n        /* \"contracts/LunchVenue.sol\":2974:3062  if (numVotes >= numFriends/2 + 1) { //Quorum is met... */\n      tag_86\n      jumpi\n        /* \"contracts/LunchVenue.sol\":3038:3051  finalResult() */\n      tag_87\n        /* \"contracts/LunchVenue.sol\":3038:3049  finalResult */\n      tag_88\n        /* \"contracts/LunchVenue.sol\":3038:3051  finalResult() */\n      jump\t// in\n    tag_87:\n        /* \"contracts/LunchVenue.sol\":2974:3062  if (numVotes >= numFriends/2 + 1) { //Quorum is met... */\n    tag_86:\n        /* \"contracts/LunchVenue.sol\":2379:3094  function doVote(uint restaurant) public votingOpen returns (bool validVote) {... */\n      swap2\n      swap1\n      pop\n      jump\t// out\n        /* \"contracts/LunchVenue.sol\":442:484  mapping (address => Friend) public friends */\n    tag_25:\n      mstore(0x20, 0x01)\n      dup1\n      0x00\n      mstore\n      keccak256(0x00, 0x40)\n      0x00\n      swap2\n      pop\n      swap1\n      pop\n      dup1\n      0x00\n      add\n      dup1\n      sload\n      tag_89\n      swap1\n      tag_74\n      jump\t// in\n    tag_89:\n      dup1\n      0x1f\n      add\n      0x20\n      dup1\n      swap2\n      div\n      mul\n      0x20\n      add\n      mload(0x40)\n      swap1\n      dup2\n      add\n      0x40\n      mstore\n      dup1\n      swap3\n      swap2\n      swap1\n      dup2\n      dup2\n      mstore\n      0x20\n      add\n      dup3\n      dup1\n      sload\n      tag_90\n      swap1\n      tag_74\n      jump\t// in\n    tag_90:\n      dup1\n      iszero\n      tag_91\n      jumpi\n      dup1\n      0x1f\n      lt\n      tag_92\n      jumpi\n      0x0100\n      dup1\n      dup4\n      sload\n      div\n      mul\n      dup4\n      mstore\n      swap2\n      0x20\n      add\n      swap2\n      jump(tag_91)\n    tag_92:\n      dup3\n      add\n      swap2\n      swap1\n      0x00\n      mstore\n      keccak256(0x00, 0x20)\n      swap1\n    tag_93:\n      dup2\n      sload\n      dup2\n      mstore\n      swap1\n      0x01\n      add\n      swap1\n      0x20\n      add\n      dup1\n      dup4\n      gt\n      tag_93\n      jumpi\n      dup3\n      swap1\n      sub\n      0x1f\n      and\n      dup3\n      add\n      swap2\n    tag_91:\n      pop\n      pop\n      pop\n      pop\n      pop\n      swap1\n      dup1\n      0x01\n      add\n      0x00\n      swap1\n      sload\n      swap1\n      0x0100\n      exp\n      swap1\n      div\n      0xff\n      and\n      swap1\n      pop\n      dup3\n      jump\t// out\n        /* \"contracts/LunchVenue.sol\":1793:2053  function addFriend(address friendAddress, string memory name) public restricted returns (uint) {... */\n    tag_31:\n        /* \"contracts/LunchVenue.sol\":1882:1886  uint */\n      0x00\n        /* \"contracts/LunchVenue.sol\":4056:4063  manager */\n      0x05\n      0x00\n      swap1\n      sload\n      swap1\n      0x0100\n      exp\n      swap1\n      div\n      0xffffffffffffffffffffffffffffffffffffffff\n      and\n        /* \"contracts/LunchVenue.sol\":4042:4063  msg.sender == manager */\n      0xffffffffffffffffffffffffffffffffffffffff\n      and\n        /* \"contracts/LunchVenue.sol\":4042:4052  msg.sender */\n      caller\n        /* \"contracts/LunchVenue.sol\":4042:4063  msg.sender == manager */\n      0xffffffffffffffffffffffffffffffffffffffff\n      and\n      eq\n        /* \"contracts/LunchVenue.sol\":4033:4103  require (msg.sender == manager, \"Can only be executed by the manager\") */\n      tag_95\n      jumpi\n      mload(0x40)\n      0x08c379a000000000000000000000000000000000000000000000000000000000\n      dup2\n      mstore\n      0x04\n      add\n      tag_96\n      swap1\n      tag_97\n      jump\t// in\n    tag_96:\n      mload(0x40)\n      dup1\n      swap2\n      sub\n      swap1\n      revert\n    tag_95:\n        /* \"contracts/LunchVenue.sol\":1898:1913  Friend memory f */\n      tag_99\n      tag_100\n      jump\t// in\n    tag_99:\n        /* \"contracts/LunchVenue.sol\":1932:1936  name */\n      dup3\n        /* \"contracts/LunchVenue.sol\":1923:1924  f */\n      dup2\n        /* \"contracts/LunchVenue.sol\":1923:1929  f.name */\n      0x00\n      add\n        /* \"contracts/LunchVenue.sol\":1923:1936  f.name = name */\n      dup2\n      swap1\n      mstore\n      pop\n        /* \"contracts/LunchVenue.sol\":1956:1961  false */\n      0x00\n        /* \"contracts/LunchVenue.sol\":1946:1947  f */\n      dup2\n        /* \"contracts/LunchVenue.sol\":1946:1953  f.voted */\n      0x20\n      add\n        /* \"contracts/LunchVenue.sol\":1946:1961  f.voted = false */\n      swap1\n      iszero\n      iszero\n      swap1\n      dup2\n      iszero\n      iszero\n      dup2\n      mstore\n      pop\n      pop\n        /* \"contracts/LunchVenue.sol\":1996:1997  f */\n      dup1\n        /* \"contracts/LunchVenue.sol\":1971:1978  friends */\n      0x01\n        /* \"contracts/LunchVenue.sol\":1971:1993  friends[friendAddress] */\n      0x00\n        /* \"contracts/LunchVenue.sol\":1979:1992  friendAddress */\n      dup7\n        /* \"contracts/LunchVenue.sol\":1971:1993  friends[friendAddress] */\n      0xffffffffffffffffffffffffffffffffffffffff\n      and\n      0xffffffffffffffffffffffffffffffffffffffff\n      and\n      dup2\n      mstore\n      0x20\n      add\n      swap1\n      dup2\n      mstore\n      0x20\n      add\n      0x00\n      keccak256\n        /* \"contracts/LunchVenue.sol\":1971:1997  friends[friendAddress] = f */\n      0x00\n      dup3\n      add\n      mload\n      dup2\n      0x00\n      add\n      swap1\n      dup1\n      mload\n      swap1\n      0x20\n      add\n      swap1\n      tag_101\n      swap3\n      swap2\n      swap1\n      tag_102\n      jump\t// in\n    tag_101:\n      pop\n      0x20\n      dup3\n      add\n      mload\n      dup2\n      0x01\n      add\n      exp(0x0100, 0x00)\n      dup2\n      sload\n      dup2\n      0xff\n      mul\n      not\n      and\n      swap1\n      dup4\n      iszero\n      iszero\n      mul\n      or\n      swap1\n      sstore\n      pop\n      swap1\n      pop\n      pop\n        /* \"contracts/LunchVenue.sol\":2007:2017  numFriends */\n      0x03\n      0x00\n        /* \"contracts/LunchVenue.sol\":2007:2019  numFriends++ */\n      dup2\n      sload\n      dup1\n      swap3\n      swap2\n      swap1\n      tag_103\n      swap1\n      tag_81\n      jump\t// in\n    tag_103:\n      swap2\n      swap1\n      pop\n      sstore\n      pop\n        /* \"contracts/LunchVenue.sol\":2036:2046  numFriends */\n      sload(0x03)\n        /* \"contracts/LunchVenue.sol\":2029:2046  return numFriends */\n      swap2\n      pop\n      pop\n        /* \"contracts/LunchVenue.sol\":1793:2053  function addFriend(address friendAddress, string memory name) public restricted returns (uint) {... */\n      swap3\n      swap2\n      pop\n      pop\n      jump\t// out\n        /* \"contracts/LunchVenue.sol\":562:588  uint public numFriends = 0 */\n    tag_35:\n      sload(0x03)\n      dup2\n      jump\t// out\n        /* \"contracts/LunchVenue.sol\":624:646  address public manager */\n    tag_38:\n      0x05\n      0x00\n      swap1\n      sload\n      swap1\n      0x0100\n      exp\n      swap1\n      div\n      0xffffffffffffffffffffffffffffffffffffffff\n      and\n      dup2\n      jump\t// out\n        /* \"contracts/LunchVenue.sol\":733:768  mapping (uint => Vote) public votes */\n    tag_43:\n      mstore(0x20, 0x07)\n      dup1\n      0x00\n      mstore\n      keccak256(0x00, 0x40)\n      0x00\n      swap2\n      pop\n      swap1\n      pop\n      dup1\n      0x00\n      add\n      0x00\n      swap1\n      sload\n      swap1\n      0x0100\n      exp\n      swap1\n      div\n      0xffffffffffffffffffffffffffffffffffffffff\n      and\n      swap1\n      dup1\n      0x01\n      add\n      sload\n      swap1\n      pop\n      dup3\n      jump\t// out\n        /* \"contracts/LunchVenue.sol\":1326:1510  function addRestaurant(string memory name) public restricted returns (uint) {... */\n    tag_49:\n        /* \"contracts/LunchVenue.sol\":1396:1400  uint */\n      0x00\n        /* \"contracts/LunchVenue.sol\":4056:4063  manager */\n      0x05\n      0x00\n      swap1\n      sload\n      swap1\n      0x0100\n      exp\n      swap1\n      div\n      0xffffffffffffffffffffffffffffffffffffffff\n      and\n        /* \"contracts/LunchVenue.sol\":4042:4063  msg.sender == manager */\n      0xffffffffffffffffffffffffffffffffffffffff\n      and\n        /* \"contracts/LunchVenue.sol\":4042:4052  msg.sender */\n      caller\n        /* \"contracts/LunchVenue.sol\":4042:4063  msg.sender == manager */\n      0xffffffffffffffffffffffffffffffffffffffff\n      and\n      eq\n        /* \"contracts/LunchVenue.sol\":4033:4103  require (msg.sender == manager, \"Can only be executed by the manager\") */\n      tag_105\n      jumpi\n      mload(0x40)\n      0x08c379a000000000000000000000000000000000000000000000000000000000\n      dup2\n      mstore\n      0x04\n      add\n      tag_106\n      swap1\n      tag_97\n      jump\t// in\n    tag_106:\n      mload(0x40)\n      dup1\n      swap2\n      sub\n      swap1\n      revert\n    tag_105:\n        /* \"contracts/LunchVenue.sol\":1412:1426  numRestaurants */\n      0x02\n      0x00\n        /* \"contracts/LunchVenue.sol\":1412:1428  numRestaurants++ */\n      dup2\n      sload\n      dup1\n      swap3\n      swap2\n      swap1\n      tag_108\n      swap1\n      tag_81\n      jump\t// in\n    tag_108:\n      swap2\n      swap1\n      pop\n      sstore\n      pop\n        /* \"contracts/LunchVenue.sol\":1468:1472  name */\n      dup2\n        /* \"contracts/LunchVenue.sol\":1438:1449  restaurants */\n      0x00\n        /* \"contracts/LunchVenue.sol\":1438:1465  restaurants[numRestaurants] */\n      dup1\n        /* \"contracts/LunchVenue.sol\":1450:1464  numRestaurants */\n      sload(0x02)\n        /* \"contracts/LunchVenue.sol\":1438:1465  restaurants[numRestaurants] */\n      dup2\n      mstore\n      0x20\n      add\n      swap1\n      dup2\n      mstore\n      0x20\n      add\n      0x00\n      keccak256\n        /* \"contracts/LunchVenue.sol\":1438:1472  restaurants[numRestaurants] = name */\n      swap1\n      dup1\n      mload\n      swap1\n      0x20\n      add\n      swap1\n      tag_109\n      swap3\n      swap2\n      swap1\n      tag_102\n      jump\t// in\n    tag_109:\n      pop\n        /* \"contracts/LunchVenue.sol\":1489:1503  numRestaurants */\n      sload(0x02)\n        /* \"contracts/LunchVenue.sol\":1482:1503  return numRestaurants */\n      swap1\n      pop\n        /* \"contracts/LunchVenue.sol\":1326:1510  function addRestaurant(string memory name) public restricted returns (uint) {... */\n      swap2\n      swap1\n      pop\n      jump\t// out\n        /* \"contracts/LunchVenue.sol\":903:930  bool public voteOpen = true */\n    tag_52:\n      0x09\n      0x00\n      swap1\n      sload\n      swap1\n      0x0100\n      exp\n      swap1\n      div\n      0xff\n      and\n      dup2\n      jump\t// out\n        /* \"contracts/LunchVenue.sol\":594:618  uint public numVotes = 0 */\n    tag_55:\n      sload(0x04)\n      dup2\n      jump\t// out\n        /* \"contracts/LunchVenue.sol\":349:392  mapping (uint => string) public restaurants */\n    tag_59:\n      mstore(0x20, 0x00)\n      dup1\n      0x00\n      mstore\n      keccak256(0x00, 0x40)\n      0x00\n      swap2\n      pop\n      swap1\n      pop\n      dup1\n      sload\n      tag_110\n      swap1\n      tag_74\n      jump\t// in\n    tag_110:\n      dup1\n      0x1f\n      add\n      0x20\n      dup1\n      swap2\n      div\n      mul\n      0x20\n      add\n      mload(0x40)\n      swap1\n      dup2\n      add\n      0x40\n      mstore\n      dup1\n      swap3\n      swap2\n      swap1\n      dup2\n      dup2\n      mstore\n      0x20\n      add\n      dup3\n      dup1\n      sload\n      tag_111\n      swap1\n      tag_74\n      jump\t// in\n    tag_111:\n      dup1\n      iszero\n      tag_112\n      jumpi\n      dup1\n      0x1f\n      lt\n      tag_113\n      jumpi\n      0x0100\n      dup1\n      dup4\n      sload\n      div\n      mul\n      dup4\n      mstore\n      swap2\n      0x20\n      add\n      swap2\n      jump(tag_112)\n    tag_113:\n      dup3\n      add\n      swap2\n      swap1\n      0x00\n      mstore\n      keccak256(0x00, 0x20)\n      swap1\n    tag_114:\n      dup2\n      sload\n      dup2\n      mstore\n      swap1\n      0x01\n      add\n      swap1\n      0x20\n      add\n      dup1\n      dup4\n      gt\n      tag_114\n      jumpi\n      dup3\n      swap1\n      sub\n      0x1f\n      and\n      dup3\n      add\n      swap2\n    tag_112:\n      pop\n      pop\n      pop\n      pop\n      pop\n      dup2\n      jump\t// out\n        /* \"contracts/LunchVenue.sol\":526:556  uint public numRestaurants = 0 */\n    tag_63:\n      sload(0x02)\n      dup2\n      jump\t// out\n        /* \"contracts/LunchVenue.sol\":670:704  string public votedRestaurant = \"\" */\n    tag_66:\n      0x06\n      dup1\n      sload\n      tag_115\n      swap1\n      tag_74\n      jump\t// in\n    tag_115:\n      dup1\n      0x1f\n      add\n      0x20\n      dup1\n      swap2\n      div\n      mul\n      0x20\n      add\n      mload(0x40)\n      swap1\n      dup2\n      add\n      0x40\n      mstore\n      dup1\n      swap3\n      swap2\n      swap1\n      dup2\n      dup2\n      mstore\n      0x20\n      add\n      dup3\n      dup1\n      sload\n      tag_116\n      swap1\n      tag_74\n      jump\t// in\n    tag_116:\n      dup1\n      iszero\n      tag_117\n      jumpi\n      dup1\n      0x1f\n      lt\n      tag_118\n      jumpi\n      0x0100\n      dup1\n      dup4\n      sload\n      div\n      mul\n      dup4\n      mstore\n      swap2\n      0x20\n      add\n      swap2\n      jump(tag_117)\n    tag_118:\n      dup3\n      add\n      swap2\n      swap1\n      0x00\n      mstore\n      keccak256(0x00, 0x20)\n      swap1\n    tag_119:\n      dup2\n      sload\n      dup2\n      mstore\n      swap1\n      0x01\n      add\n      swap1\n      0x20\n      add\n      dup1\n      dup4\n      gt\n      tag_119\n      jumpi\n      dup3\n      swap1\n      sub\n      0x1f\n      and\n      dup3\n      add\n      swap2\n    tag_117:\n      pop\n      pop\n      pop\n      pop\n      pop\n      dup2\n      jump\t// out\n        /* \"contracts/LunchVenue.sol\":3248:3940  function finalResult() private {... */\n    tag_88:\n        /* \"contracts/LunchVenue.sol\":3289:3306  uint highestVotes */\n      0x00\n        /* \"contracts/LunchVenue.sol\":3320:3342  uint highestRestaurant */\n      dup1\n        /* \"contracts/LunchVenue.sol\":3362:3368  uint i */\n      0x00\n        /* \"contracts/LunchVenue.sol\":3371:3372  1 */\n      0x01\n        /* \"contracts/LunchVenue.sol\":3362:3372  uint i = 1 */\n      swap1\n      pop\n        /* \"contracts/LunchVenue.sol\":3357:3830  for (uint i = 1; i <= numVotes; ++i) { //For each vote... */\n    tag_121:\n        /* \"contracts/LunchVenue.sol\":3379:3387  numVotes */\n      sload(0x04)\n        /* \"contracts/LunchVenue.sol\":3374:3375  i */\n      dup2\n        /* \"contracts/LunchVenue.sol\":3374:3387  i <= numVotes */\n      gt\n        /* \"contracts/LunchVenue.sol\":3357:3830  for (uint i = 1; i <= numVotes; ++i) { //For each vote... */\n      tag_122\n      jumpi\n        /* \"contracts/LunchVenue.sol\":3424:3438  uint voteCount */\n      0x00\n        /* \"contracts/LunchVenue.sol\":3441:3442  1 */\n      0x01\n        /* \"contracts/LunchVenue.sol\":3424:3442  uint voteCount = 1 */\n      swap1\n      pop\n        /* \"contracts/LunchVenue.sol\":3491:3492  0 */\n      0x00\n        /* \"contracts/LunchVenue.sol\":3459:3467  _results */\n      0x08\n        /* \"contracts/LunchVenue.sol\":3459:3488  _results[votes[i].restaurant] */\n      0x00\n        /* \"contracts/LunchVenue.sol\":3468:3473  votes */\n      0x07\n        /* \"contracts/LunchVenue.sol\":3468:3476  votes[i] */\n      0x00\n        /* \"contracts/LunchVenue.sol\":3474:3475  i */\n      dup7\n        /* \"contracts/LunchVenue.sol\":3468:3476  votes[i] */\n      dup2\n      mstore\n      0x20\n      add\n      swap1\n      dup2\n      mstore\n      0x20\n      add\n      0x00\n      keccak256\n        /* \"contracts/LunchVenue.sol\":3468:3487  votes[i].restaurant */\n      0x01\n      add\n      sload\n        /* \"contracts/LunchVenue.sol\":3459:3488  _results[votes[i].restaurant] */\n      dup2\n      mstore\n      0x20\n      add\n      swap1\n      dup2\n      mstore\n      0x20\n      add\n      0x00\n      keccak256\n      sload\n        /* \"contracts/LunchVenue.sol\":3459:3492  _results[votes[i].restaurant] > 0 */\n      gt\n        /* \"contracts/LunchVenue.sol\":3456:3595  if(_results[votes[i].restaurant] > 0) { // Already start counting... */\n      iszero\n      tag_124\n      jumpi\n        /* \"contracts/LunchVenue.sol\":3551:3559  _results */\n      0x08\n        /* \"contracts/LunchVenue.sol\":3551:3580  _results[votes[i].restaurant] */\n      0x00\n        /* \"contracts/LunchVenue.sol\":3560:3565  votes */\n      0x07\n        /* \"contracts/LunchVenue.sol\":3560:3568  votes[i] */\n      0x00\n        /* \"contracts/LunchVenue.sol\":3566:3567  i */\n      dup6\n        /* \"contracts/LunchVenue.sol\":3560:3568  votes[i] */\n      dup2\n      mstore\n      0x20\n      add\n      swap1\n      dup2\n      mstore\n      0x20\n      add\n      0x00\n      keccak256\n        /* \"contracts/LunchVenue.sol\":3560:3579  votes[i].restaurant */\n      0x01\n      add\n      sload\n        /* \"contracts/LunchVenue.sol\":3551:3580  _results[votes[i].restaurant] */\n      dup2\n      mstore\n      0x20\n      add\n      swap1\n      dup2\n      mstore\n      0x20\n      add\n      0x00\n      keccak256\n      sload\n        /* \"contracts/LunchVenue.sol\":3538:3580  voteCount += _results[votes[i].restaurant] */\n      dup2\n      tag_125\n      swap2\n      swap1\n      tag_85\n      jump\t// in\n    tag_125:\n      swap1\n      pop\n        /* \"contracts/LunchVenue.sol\":3456:3595  if(_results[votes[i].restaurant] > 0) { // Already start counting... */\n    tag_124:\n        /* \"contracts/LunchVenue.sol\":3640:3649  voteCount */\n      dup1\n        /* \"contracts/LunchVenue.sol\":3608:3616  _results */\n      0x08\n        /* \"contracts/LunchVenue.sol\":3608:3637  _results[votes[i].restaurant] */\n      0x00\n        /* \"contracts/LunchVenue.sol\":3617:3622  votes */\n      0x07\n        /* \"contracts/LunchVenue.sol\":3617:3625  votes[i] */\n      0x00\n        /* \"contracts/LunchVenue.sol\":3623:3624  i */\n      dup7\n        /* \"contracts/LunchVenue.sol\":3617:3625  votes[i] */\n      dup2\n      mstore\n      0x20\n      add\n      swap1\n      dup2\n      mstore\n      0x20\n      add\n      0x00\n      keccak256\n        /* \"contracts/LunchVenue.sol\":3617:3636  votes[i].restaurant */\n      0x01\n      add\n      sload\n        /* \"contracts/LunchVenue.sol\":3608:3637  _results[votes[i].restaurant] */\n      dup2\n      mstore\n      0x20\n      add\n      swap1\n      dup2\n      mstore\n      0x20\n      add\n      0x00\n      keccak256\n        /* \"contracts/LunchVenue.sol\":3608:3649  _results[votes[i].restaurant] = voteCount */\n      dup2\n      swap1\n      sstore\n      pop\n        /* \"contracts/LunchVenue.sol\":3679:3691  highestVotes */\n      dup4\n        /* \"contracts/LunchVenue.sol\":3667:3676  voteCount */\n      dup2\n        /* \"contracts/LunchVenue.sol\":3667:3691  voteCount > highestVotes */\n      gt\n        /* \"contracts/LunchVenue.sol\":3664:3820  if(voteCount > highestVotes) { //New winner... */\n      iszero\n      tag_126\n      jumpi\n        /* \"contracts/LunchVenue.sol\":3739:3748  voteCount */\n      dup1\n        /* \"contracts/LunchVenue.sol\":3724:3748  highestVotes = voteCount */\n      swap4\n      pop\n        /* \"contracts/LunchVenue.sol\":3786:3791  votes */\n      0x07\n        /* \"contracts/LunchVenue.sol\":3786:3794  votes[i] */\n      0x00\n        /* \"contracts/LunchVenue.sol\":3792:3793  i */\n      dup4\n        /* \"contracts/LunchVenue.sol\":3786:3794  votes[i] */\n      dup2\n      mstore\n      0x20\n      add\n      swap1\n      dup2\n      mstore\n      0x20\n      add\n      0x00\n      keccak256\n        /* \"contracts/LunchVenue.sol\":3786:3805  votes[i].restaurant */\n      0x01\n      add\n      sload\n        /* \"contracts/LunchVenue.sol\":3766:3805  highestRestaurant = votes[i].restaurant */\n      swap3\n      pop\n        /* \"contracts/LunchVenue.sol\":3664:3820  if(voteCount > highestVotes) { //New winner... */\n    tag_126:\n        /* \"contracts/LunchVenue.sol\":3394:3830  { //For each vote... */\n      pop\n        /* \"contracts/LunchVenue.sol\":3389:3392  ++i */\n      dup1\n      tag_127\n      swap1\n      tag_81\n      jump\t// in\n    tag_127:\n      swap1\n      pop\n        /* \"contracts/LunchVenue.sol\":3357:3830  for (uint i = 1; i <= numVotes; ++i) { //For each vote... */\n      jump(tag_121)\n    tag_122:\n      pop\n        /* \"contracts/LunchVenue.sol\":3857:3868  restaurants */\n      0x00\n        /* \"contracts/LunchVenue.sol\":3857:3887  restaurants[highestRestaurant] */\n      dup1\n        /* \"contracts/LunchVenue.sol\":3869:3886  highestRestaurant */\n      dup3\n        /* \"contracts/LunchVenue.sol\":3857:3887  restaurants[highestRestaurant] */\n      dup2\n      mstore\n      0x20\n      add\n      swap1\n      dup2\n      mstore\n      0x20\n      add\n      0x00\n      keccak256\n        /* \"contracts/LunchVenue.sol\":3839:3854  votedRestaurant */\n      0x06\n        /* \"contracts/LunchVenue.sol\":3839:3887  votedRestaurant = restaurants[highestRestaurant] */\n      swap1\n      dup1\n      sload\n      tag_128\n      swap1\n      tag_74\n      jump\t// in\n    tag_128:\n      tag_129\n      swap3\n      swap2\n      swap1\n      tag_130\n      jump\t// in\n    tag_129:\n      pop\n        /* \"contracts/LunchVenue.sol\":3928:3933  false */\n      0x00\n        /* \"contracts/LunchVenue.sol\":3917:3925  voteOpen */\n      0x09\n      0x00\n        /* \"contracts/LunchVenue.sol\":3917:3933  voteOpen = false */\n      0x0100\n      exp\n      dup2\n      sload\n      dup2\n      0xff\n      mul\n      not\n      and\n      swap1\n      dup4\n      iszero\n      iszero\n      mul\n      or\n      swap1\n      sstore\n      pop\n        /* \"contracts/LunchVenue.sol\":3279:3940  {... */\n      pop\n      pop\n        /* \"contracts/LunchVenue.sol\":3248:3940  function finalResult() private {... */\n      jump\t// out\n    tag_79:\n      mload(0x40)\n      dup1\n      0x40\n      add\n      0x40\n      mstore\n      dup1\n      and(0xffffffffffffffffffffffffffffffffffffffff, 0x00)\n      dup2\n      mstore\n      0x20\n      add\n      0x00\n      dup2\n      mstore\n      pop\n      swap1\n      jump\t// out\n    tag_100:\n      mload(0x40)\n      dup1\n      0x40\n      add\n      0x40\n      mstore\n      dup1\n      0x60\n      dup2\n      mstore\n      0x20\n      add\n      iszero(iszero(0x00))\n      dup2\n      mstore\n      pop\n      swap1\n      jump\t// out\n    tag_102:\n      dup3\n      dup1\n      sload\n      tag_131\n      swap1\n      tag_74\n      jump\t// in\n    tag_131:\n      swap1\n      0x00\n      mstore\n      keccak256(0x00, 0x20)\n      swap1\n      0x1f\n      add\n      0x20\n      swap1\n      div\n      dup2\n      add\n      swap3\n      dup3\n      tag_133\n      jumpi\n      0x00\n      dup6\n      sstore\n      jump(tag_132)\n    tag_133:\n      dup3\n      0x1f\n      lt\n      tag_134\n      jumpi\n      dup1\n      mload\n      not(0xff)\n      and\n      dup4\n      dup1\n      add\n      or\n      dup6\n      sstore\n      jump(tag_132)\n    tag_134:\n      dup3\n      dup1\n      add\n      0x01\n      add\n      dup6\n      sstore\n      dup3\n      iszero\n      tag_132\n      jumpi\n      swap2\n      dup3\n      add\n    tag_135:\n      dup3\n      dup2\n      gt\n      iszero\n      tag_136\n      jumpi\n      dup3\n      mload\n      dup3\n      sstore\n      swap2\n      0x20\n      add\n      swap2\n      swap1\n      0x01\n      add\n      swap1\n      jump(tag_135)\n    tag_136:\n    tag_132:\n      pop\n      swap1\n      pop\n      tag_137\n      swap2\n      swap1\n      tag_138\n      jump\t// in\n    tag_137:\n      pop\n      swap1\n      jump\t// out\n    tag_130:\n      dup3\n      dup1\n      sload\n      tag_139\n      swap1\n      tag_74\n      jump\t// in\n    tag_139:\n      swap1\n      0x00\n      mstore\n      keccak256(0x00, 0x20)\n      swap1\n      0x1f\n      add\n      0x20\n      swap1\n      div\n      dup2\n      add\n      swap3\n      dup3\n      tag_141\n      jumpi\n      0x00\n      dup6\n      sstore\n      jump(tag_140)\n    tag_141:\n      dup3\n      0x1f\n      lt\n      tag_142\n      jumpi\n      dup1\n      sload\n      dup6\n      sstore\n      jump(tag_140)\n    tag_142:\n      dup3\n      dup1\n      add\n      0x01\n      add\n      dup6\n      sstore\n      dup3\n      iszero\n      tag_140\n      jumpi\n      0x00\n      mstore\n      keccak256(0x00, 0x20)\n      swap2\n      0x1f\n      add\n      0x20\n      swap1\n      div\n      dup3\n      add\n    tag_143:\n      dup3\n      dup2\n      gt\n      iszero\n      tag_144\n      jumpi\n      dup3\n      sload\n      dup3\n      sstore\n      swap2\n      0x01\n      add\n      swap2\n      swap1\n      0x01\n      add\n      swap1\n      jump(tag_143)\n    tag_144:\n    tag_140:\n      pop\n      swap1\n      pop\n      tag_145\n      swap2\n      swap1\n      tag_138\n      jump\t// in\n    tag_145:\n      pop\n      swap1\n      jump\t// out\n    tag_138:\n    tag_146:\n      dup1\n      dup3\n      gt\n      iszero\n      tag_147\n      jumpi\n      0x00\n      dup2\n      0x00\n      swap1\n      sstore\n      pop\n      0x01\n      add\n      jump(tag_146)\n    tag_147:\n      pop\n      swap1\n      jump\t// out\n        /* \"#utility.yul\":7:419   */\n    tag_149:\n        /* \"#utility.yul\":85:90   */\n      0x00\n        /* \"#utility.yul\":110:176   */\n      tag_151\n        /* \"#utility.yul\":126:175   */\n      tag_152\n        /* \"#utility.yul\":168:174   */\n      dup5\n        /* \"#utility.yul\":126:175   */\n      tag_153\n      jump\t// in\n    tag_152:\n        /* \"#utility.yul\":110:176   */\n      tag_154\n      jump\t// in\n    tag_151:\n        /* \"#utility.yul\":101:176   */\n      swap1\n      pop\n        /* \"#utility.yul\":199:205   */\n      dup3\n        /* \"#utility.yul\":192:197   */\n      dup2\n        /* \"#utility.yul\":185:206   */\n      mstore\n        /* \"#utility.yul\":237:241   */\n      0x20\n        /* \"#utility.yul\":230:235   */\n      dup2\n        /* \"#utility.yul\":226:242   */\n      add\n        /* \"#utility.yul\":275:278   */\n      dup5\n        /* \"#utility.yul\":266:272   */\n      dup5\n        /* \"#utility.yul\":261:264   */\n      dup5\n        /* \"#utility.yul\":257:273   */\n      add\n        /* \"#utility.yul\":254:279   */\n      gt\n        /* \"#utility.yul\":251:253   */\n      iszero\n      tag_155\n      jumpi\n        /* \"#utility.yul\":282:361   */\n      tag_156\n      tag_157\n      jump\t// in\n    tag_156:\n        /* \"#utility.yul\":251:253   */\n    tag_155:\n        /* \"#utility.yul\":372:413   */\n      tag_158\n        /* \"#utility.yul\":406:412   */\n      dup5\n        /* \"#utility.yul\":401:404   */\n      dup3\n        /* \"#utility.yul\":396:399   */\n      dup6\n        /* \"#utility.yul\":372:413   */\n      tag_159\n      jump\t// in\n    tag_158:\n        /* \"#utility.yul\":91:419   */\n      pop\n      swap4\n      swap3\n      pop\n      pop\n      pop\n      jump\t// out\n        /* \"#utility.yul\":425:564   */\n    tag_160:\n        /* \"#utility.yul\":471:476   */\n      0x00\n        /* \"#utility.yul\":509:515   */\n      dup2\n        /* \"#utility.yul\":496:516   */\n      calldataload\n        /* \"#utility.yul\":487:516   */\n      swap1\n      pop\n        /* \"#utility.yul\":525:558   */\n      tag_162\n        /* \"#utility.yul\":552:557   */\n      dup2\n        /* \"#utility.yul\":525:558   */\n      tag_163\n      jump\t// in\n    tag_162:\n        /* \"#utility.yul\":477:564   */\n      swap3\n      swap2\n      pop\n      pop\n      jump\t// out\n        /* \"#utility.yul\":584:924   */\n    tag_164:\n        /* \"#utility.yul\":640:645   */\n      0x00\n        /* \"#utility.yul\":689:692   */\n      dup3\n        /* \"#utility.yul\":682:686   */\n      0x1f\n        /* \"#utility.yul\":674:680   */\n      dup4\n        /* \"#utility.yul\":670:687   */\n      add\n        /* \"#utility.yul\":666:693   */\n      slt\n        /* \"#utility.yul\":656:658   */\n      tag_166\n      jumpi\n        /* \"#utility.yul\":697:776   */\n      tag_167\n      tag_168\n      jump\t// in\n    tag_167:\n        /* \"#utility.yul\":656:658   */\n    tag_166:\n        /* \"#utility.yul\":814:820   */\n      dup2\n        /* \"#utility.yul\":801:821   */\n      calldataload\n        /* \"#utility.yul\":839:918   */\n      tag_169\n        /* \"#utility.yul\":914:917   */\n      dup5\n        /* \"#utility.yul\":906:912   */\n      dup3\n        /* \"#utility.yul\":899:903   */\n      0x20\n        /* \"#utility.yul\":891:897   */\n      dup7\n        /* \"#utility.yul\":887:904   */\n      add\n        /* \"#utility.yul\":839:918   */\n      tag_149\n      jump\t// in\n    tag_169:\n        /* \"#utility.yul\":830:918   */\n      swap2\n      pop\n        /* \"#utility.yul\":646:924   */\n      pop\n      swap3\n      swap2\n      pop\n      pop\n      jump\t// out\n        /* \"#utility.yul\":930:1069   */\n    tag_170:\n        /* \"#utility.yul\":976:981   */\n      0x00\n        /* \"#utility.yul\":1014:1020   */\n      dup2\n        /* \"#utility.yul\":1001:1021   */\n      calldataload\n        /* \"#utility.yul\":992:1021   */\n      swap1\n      pop\n        /* \"#utility.yul\":1030:1063   */\n      tag_172\n        /* \"#utility.yul\":1057:1062   */\n      dup2\n        /* \"#utility.yul\":1030:1063   */\n      tag_173\n      jump\t// in\n    tag_172:\n        /* \"#utility.yul\":982:1069   */\n      swap3\n      swap2\n      pop\n      pop\n      jump\t// out\n        /* \"#utility.yul\":1075:1404   */\n    tag_24:\n        /* \"#utility.yul\":1134:1140   */\n      0x00\n        /* \"#utility.yul\":1183:1185   */\n      0x20\n        /* \"#utility.yul\":1171:1180   */\n      dup3\n        /* \"#utility.yul\":1162:1169   */\n      dup5\n        /* \"#utility.yul\":1158:1181   */\n      sub\n        /* \"#utility.yul\":1154:1186   */\n      slt\n        /* \"#utility.yul\":1151:1153   */\n      iszero\n      tag_175\n      jumpi\n        /* \"#utility.yul\":1189:1268   */\n      tag_176\n      tag_177\n      jump\t// in\n    tag_176:\n        /* \"#utility.yul\":1151:1153   */\n    tag_175:\n        /* \"#utility.yul\":1309:1310   */\n      0x00\n        /* \"#utility.yul\":1334:1387   */\n      tag_178\n        /* \"#utility.yul\":1379:1386   */\n      dup5\n        /* \"#utility.yul\":1370:1376   */\n      dup3\n        /* \"#utility.yul\":1359:1368   */\n      dup6\n        /* \"#utility.yul\":1355:1377   */\n      add\n        /* \"#utility.yul\":1334:1387   */\n      tag_160\n      jump\t// in\n    tag_178:\n        /* \"#utility.yul\":1324:1387   */\n      swap2\n      pop\n        /* \"#utility.yul\":1280:1397   */\n      pop\n        /* \"#utility.yul\":1141:1404   */\n      swap3\n      swap2\n      pop\n      pop\n      jump\t// out\n        /* \"#utility.yul\":1410:2064   */\n    tag_30:\n        /* \"#utility.yul\":1488:1494   */\n      0x00\n        /* \"#utility.yul\":1496:1502   */\n      dup1\n        /* \"#utility.yul\":1545:1547   */\n      0x40\n        /* \"#utility.yul\":1533:1542   */\n      dup4\n        /* \"#utility.yul\":1524:1531   */\n      dup6\n        /* \"#utility.yul\":1520:1543   */\n      sub\n        /* \"#utility.yul\":1516:1548   */\n      slt\n        /* \"#utility.yul\":1513:1515   */\n      iszero\n      tag_180\n      jumpi\n        /* \"#utility.yul\":1551:1630   */\n      tag_181\n      tag_177\n      jump\t// in\n    tag_181:\n        /* \"#utility.yul\":1513:1515   */\n    tag_180:\n        /* \"#utility.yul\":1671:1672   */\n      0x00\n        /* \"#utility.yul\":1696:1749   */\n      tag_182\n        /* \"#utility.yul\":1741:1748   */\n      dup6\n        /* \"#utility.yul\":1732:1738   */\n      dup3\n        /* \"#utility.yul\":1721:1730   */\n      dup7\n        /* \"#utility.yul\":1717:1739   */\n      add\n        /* \"#utility.yul\":1696:1749   */\n      tag_160\n      jump\t// in\n    tag_182:\n        /* \"#utility.yul\":1686:1749   */\n      swap3\n      pop\n        /* \"#utility.yul\":1642:1759   */\n      pop\n        /* \"#utility.yul\":1826:1828   */\n      0x20\n        /* \"#utility.yul\":1815:1824   */\n      dup4\n        /* \"#utility.yul\":1811:1829   */\n      add\n        /* \"#utility.yul\":1798:1830   */\n      calldataload\n        /* \"#utility.yul\":1857:1875   */\n      0xffffffffffffffff\n        /* \"#utility.yul\":1849:1855   */\n      dup2\n        /* \"#utility.yul\":1846:1876   */\n      gt\n        /* \"#utility.yul\":1843:1845   */\n      iszero\n      tag_183\n      jumpi\n        /* \"#utility.yul\":1879:1958   */\n      tag_184\n      tag_185\n      jump\t// in\n    tag_184:\n        /* \"#utility.yul\":1843:1845   */\n    tag_183:\n        /* \"#utility.yul\":1984:2047   */\n      tag_186\n        /* \"#utility.yul\":2039:2046   */\n      dup6\n        /* \"#utility.yul\":2030:2036   */\n      dup3\n        /* \"#utility.yul\":2019:2028   */\n      dup7\n        /* \"#utility.yul\":2015:2037   */\n      add\n        /* \"#utility.yul\":1984:2047   */\n      tag_164\n      jump\t// in\n    tag_186:\n        /* \"#utility.yul\":1974:2047   */\n      swap2\n      pop\n        /* \"#utility.yul\":1769:2057   */\n      pop\n        /* \"#utility.yul\":1503:2064   */\n      swap3\n      pop\n      swap3\n      swap1\n      pop\n      jump\t// out\n        /* \"#utility.yul\":2070:2579   */\n    tag_48:\n        /* \"#utility.yul\":2139:2145   */\n      0x00\n        /* \"#utility.yul\":2188:2190   */\n      0x20\n        /* \"#utility.yul\":2176:2185   */\n      dup3\n        /* \"#utility.yul\":2167:2174   */\n      dup5\n        /* \"#utility.yul\":2163:2186   */\n      sub\n        /* \"#utility.yul\":2159:2191   */\n      slt\n        /* \"#utility.yul\":2156:2158   */\n      iszero\n      tag_188\n      jumpi\n        /* \"#utility.yul\":2194:2273   */\n      tag_189\n      tag_177\n      jump\t// in\n    tag_189:\n        /* \"#utility.yul\":2156:2158   */\n    tag_188:\n        /* \"#utility.yul\":2342:2343   */\n      0x00\n        /* \"#utility.yul\":2331:2340   */\n      dup3\n        /* \"#utility.yul\":2327:2344   */\n      add\n        /* \"#utility.yul\":2314:2345   */\n      calldataload\n        /* \"#utility.yul\":2372:2390   */\n      0xffffffffffffffff\n        /* \"#utility.yul\":2364:2370   */\n      dup2\n        /* \"#utility.yul\":2361:2391   */\n      gt\n        /* \"#utility.yul\":2358:2360   */\n      iszero\n      tag_190\n      jumpi\n        /* \"#utility.yul\":2394:2473   */\n      tag_191\n      tag_185\n      jump\t// in\n    tag_191:\n        /* \"#utility.yul\":2358:2360   */\n    tag_190:\n        /* \"#utility.yul\":2499:2562   */\n      tag_192\n        /* \"#utility.yul\":2554:2561   */\n      dup5\n        /* \"#utility.yul\":2545:2551   */\n      dup3\n        /* \"#utility.yul\":2534:2543   */\n      dup6\n        /* \"#utility.yul\":2530:2552   */\n      add\n        /* \"#utility.yul\":2499:2562   */\n      tag_164\n      jump\t// in\n    tag_192:\n        /* \"#utility.yul\":2489:2562   */\n      swap2\n      pop\n        /* \"#utility.yul\":2285:2572   */\n      pop\n        /* \"#utility.yul\":2146:2579   */\n      swap3\n      swap2\n      pop\n      pop\n      jump\t// out\n        /* \"#utility.yul\":2585:2914   */\n    tag_18:\n        /* \"#utility.yul\":2644:2650   */\n      0x00\n        /* \"#utility.yul\":2693:2695   */\n      0x20\n        /* \"#utility.yul\":2681:2690   */\n      dup3\n        /* \"#utility.yul\":2672:2679   */\n      dup5\n        /* \"#utility.yul\":2668:2691   */\n      sub\n        /* \"#utility.yul\":2664:2696   */\n      slt\n        /* \"#utility.yul\":2661:2663   */\n      iszero\n      tag_194\n      jumpi\n        /* \"#utility.yul\":2699:2778   */\n      tag_195\n      tag_177\n      jump\t// in\n    tag_195:\n        /* \"#utility.yul\":2661:2663   */\n    tag_194:\n        /* \"#utility.yul\":2819:2820   */\n      0x00\n        /* \"#utility.yul\":2844:2897   */\n      tag_196\n        /* \"#utility.yul\":2889:2896   */\n      dup5\n        /* \"#utility.yul\":2880:2886   */\n      dup3\n        /* \"#utility.yul\":2869:2878   */\n      dup6\n        /* \"#utility.yul\":2865:2887   */\n      add\n        /* \"#utility.yul\":2844:2897   */\n      tag_170\n      jump\t// in\n    tag_196:\n        /* \"#utility.yul\":2834:2897   */\n      swap2\n      pop\n        /* \"#utility.yul\":2790:2907   */\n      pop\n        /* \"#utility.yul\":2651:2914   */\n      swap3\n      swap2\n      pop\n      pop\n      jump\t// out\n        /* \"#utility.yul\":2920:3038   */\n    tag_197:\n        /* \"#utility.yul\":3007:3031   */\n      tag_199\n        /* \"#utility.yul\":3025:3030   */\n      dup2\n        /* \"#utility.yul\":3007:3031   */\n      tag_200\n      jump\t// in\n    tag_199:\n        /* \"#utility.yul\":3002:3005   */\n      dup3\n        /* \"#utility.yul\":2995:3032   */\n      mstore\n        /* \"#utility.yul\":2985:3038   */\n      pop\n      pop\n      jump\t// out\n        /* \"#utility.yul\":3044:3153   */\n    tag_201:\n        /* \"#utility.yul\":3125:3146   */\n      tag_203\n        /* \"#utility.yul\":3140:3145   */\n      dup2\n        /* \"#utility.yul\":3125:3146   */\n      tag_204\n      jump\t// in\n    tag_203:\n        /* \"#utility.yul\":3120:3123   */\n      dup3\n        /* \"#utility.yul\":3113:3147   */\n      mstore\n        /* \"#utility.yul\":3103:3153   */\n      pop\n      pop\n      jump\t// out\n        /* \"#utility.yul\":3159:3523   */\n    tag_205:\n        /* \"#utility.yul\":3247:3250   */\n      0x00\n        /* \"#utility.yul\":3275:3314   */\n      tag_207\n        /* \"#utility.yul\":3308:3313   */\n      dup3\n        /* \"#utility.yul\":3275:3314   */\n      tag_208\n      jump\t// in\n    tag_207:\n        /* \"#utility.yul\":3330:3401   */\n      tag_209\n        /* \"#utility.yul\":3394:3400   */\n      dup2\n        /* \"#utility.yul\":3389:3392   */\n      dup6\n        /* \"#utility.yul\":3330:3401   */\n      tag_210\n      jump\t// in\n    tag_209:\n        /* \"#utility.yul\":3323:3401   */\n      swap4\n      pop\n        /* \"#utility.yul\":3410:3462   */\n      tag_211\n        /* \"#utility.yul\":3455:3461   */\n      dup2\n        /* \"#utility.yul\":3450:3453   */\n      dup6\n        /* \"#utility.yul\":3443:3447   */\n      0x20\n        /* \"#utility.yul\":3436:3441   */\n      dup7\n        /* \"#utility.yul\":3432:3448   */\n      add\n        /* \"#utility.yul\":3410:3462   */\n      tag_212\n      jump\t// in\n    tag_211:\n        /* \"#utility.yul\":3487:3516   */\n      tag_213\n        /* \"#utility.yul\":3509:3515   */\n      dup2\n        /* \"#utility.yul\":3487:3516   */\n      tag_214\n      jump\t// in\n    tag_213:\n        /* \"#utility.yul\":3482:3485   */\n      dup5\n        /* \"#utility.yul\":3478:3517   */\n      add\n        /* \"#utility.yul\":3471:3517   */\n      swap2\n      pop\n        /* \"#utility.yul\":3251:3523   */\n      pop\n      swap3\n      swap2\n      pop\n      pop\n      jump\t// out\n        /* \"#utility.yul\":3529:3895   */\n    tag_215:\n        /* \"#utility.yul\":3671:3674   */\n      0x00\n        /* \"#utility.yul\":3692:3759   */\n      tag_217\n        /* \"#utility.yul\":3756:3758   */\n      0x23\n        /* \"#utility.yul\":3751:3754   */\n      dup4\n        /* \"#utility.yul\":3692:3759   */\n      tag_210\n      jump\t// in\n    tag_217:\n        /* \"#utility.yul\":3685:3759   */\n      swap2\n      pop\n        /* \"#utility.yul\":3768:3861   */\n      tag_218\n        /* \"#utility.yul\":3857:3860   */\n      dup3\n        /* \"#utility.yul\":3768:3861   */\n      tag_219\n      jump\t// in\n    tag_218:\n        /* \"#utility.yul\":3886:3888   */\n      0x40\n        /* \"#utility.yul\":3881:3884   */\n      dup3\n        /* \"#utility.yul\":3877:3889   */\n      add\n        /* \"#utility.yul\":3870:3889   */\n      swap1\n      pop\n        /* \"#utility.yul\":3675:3895   */\n      swap2\n      swap1\n      pop\n      jump\t// out\n        /* \"#utility.yul\":3901:4267   */\n    tag_220:\n        /* \"#utility.yul\":4043:4046   */\n      0x00\n        /* \"#utility.yul\":4064:4131   */\n      tag_222\n        /* \"#utility.yul\":4128:4130   */\n      0x23\n        /* \"#utility.yul\":4123:4126   */\n      dup4\n        /* \"#utility.yul\":4064:4131   */\n      tag_210\n      jump\t// in\n    tag_222:\n        /* \"#utility.yul\":4057:4131   */\n      swap2\n      pop\n        /* \"#utility.yul\":4140:4233   */\n      tag_223\n        /* \"#utility.yul\":4229:4232   */\n      dup3\n        /* \"#utility.yul\":4140:4233   */\n      tag_224\n      jump\t// in\n    tag_223:\n        /* \"#utility.yul\":4258:4260   */\n      0x40\n        /* \"#utility.yul\":4253:4256   */\n      dup3\n        /* \"#utility.yul\":4249:4261   */\n      add\n        /* \"#utility.yul\":4242:4261   */\n      swap1\n      pop\n        /* \"#utility.yul\":4047:4267   */\n      swap2\n      swap1\n      pop\n      jump\t// out\n        /* \"#utility.yul\":4273:4391   */\n    tag_225:\n        /* \"#utility.yul\":4360:4384   */\n      tag_227\n        /* \"#utility.yul\":4378:4383   */\n      dup2\n        /* \"#utility.yul\":4360:4384   */\n      tag_228\n      jump\t// in\n    tag_227:\n        /* \"#utility.yul\":4355:4358   */\n      dup3\n        /* \"#utility.yul\":4348:4385   */\n      mstore\n        /* \"#utility.yul\":4338:4391   */\n      pop\n      pop\n      jump\t// out\n        /* \"#utility.yul\":4397:4619   */\n    tag_40:\n        /* \"#utility.yul\":4490:4494   */\n      0x00\n        /* \"#utility.yul\":4528:4530   */\n      0x20\n        /* \"#utility.yul\":4517:4526   */\n      dup3\n        /* \"#utility.yul\":4513:4531   */\n      add\n        /* \"#utility.yul\":4505:4531   */\n      swap1\n      pop\n        /* \"#utility.yul\":4541:4612   */\n      tag_230\n        /* \"#utility.yul\":4609:4610   */\n      0x00\n        /* \"#utility.yul\":4598:4607   */\n      dup4\n        /* \"#utility.yul\":4594:4611   */\n      add\n        /* \"#utility.yul\":4585:4591   */\n      dup5\n        /* \"#utility.yul\":4541:4612   */\n      tag_197\n      jump\t// in\n    tag_230:\n        /* \"#utility.yul\":4495:4619   */\n      swap3\n      swap2\n      pop\n      pop\n      jump\t// out\n        /* \"#utility.yul\":4625:4957   */\n    tag_45:\n        /* \"#utility.yul\":4746:4750   */\n      0x00\n        /* \"#utility.yul\":4784:4786   */\n      0x40\n        /* \"#utility.yul\":4773:4782   */\n      dup3\n        /* \"#utility.yul\":4769:4787   */\n      add\n        /* \"#utility.yul\":4761:4787   */\n      swap1\n      pop\n        /* \"#utility.yul\":4797:4868   */\n      tag_232\n        /* \"#utility.yul\":4865:4866   */\n      0x00\n        /* \"#utility.yul\":4854:4863   */\n      dup4\n        /* \"#utility.yul\":4850:4867   */\n      add\n        /* \"#utility.yul\":4841:4847   */\n      dup6\n        /* \"#utility.yul\":4797:4868   */\n      tag_197\n      jump\t// in\n    tag_232:\n        /* \"#utility.yul\":4878:4950   */\n      tag_233\n        /* \"#utility.yul\":4946:4948   */\n      0x20\n        /* \"#utility.yul\":4935:4944   */\n      dup4\n        /* \"#utility.yul\":4931:4949   */\n      add\n        /* \"#utility.yul\":4922:4928   */\n      dup5\n        /* \"#utility.yul\":4878:4950   */\n      tag_225\n      jump\t// in\n    tag_233:\n        /* \"#utility.yul\":4751:4957   */\n      swap4\n      swap3\n      pop\n      pop\n      pop\n      jump\t// out\n        /* \"#utility.yul\":4963:5173   */\n    tag_21:\n        /* \"#utility.yul\":5050:5054   */\n      0x00\n        /* \"#utility.yul\":5088:5090   */\n      0x20\n        /* \"#utility.yul\":5077:5086   */\n      dup3\n        /* \"#utility.yul\":5073:5091   */\n      add\n        /* \"#utility.yul\":5065:5091   */\n      swap1\n      pop\n        /* \"#utility.yul\":5101:5166   */\n      tag_235\n        /* \"#utility.yul\":5163:5164   */\n      0x00\n        /* \"#utility.yul\":5152:5161   */\n      dup4\n        /* \"#utility.yul\":5148:5165   */\n      add\n        /* \"#utility.yul\":5139:5145   */\n      dup5\n        /* \"#utility.yul\":5101:5166   */\n      tag_201\n      jump\t// in\n    tag_235:\n        /* \"#utility.yul\":5055:5173   */\n      swap3\n      swap2\n      pop\n      pop\n      jump\t// out\n        /* \"#utility.yul\":5179:5492   */\n    tag_61:\n        /* \"#utility.yul\":5292:5296   */\n      0x00\n        /* \"#utility.yul\":5330:5332   */\n      0x20\n        /* \"#utility.yul\":5319:5328   */\n      dup3\n        /* \"#utility.yul\":5315:5333   */\n      add\n        /* \"#utility.yul\":5307:5333   */\n      swap1\n      pop\n        /* \"#utility.yul\":5379:5388   */\n      dup2\n        /* \"#utility.yul\":5373:5377   */\n      dup2\n        /* \"#utility.yul\":5369:5389   */\n      sub\n        /* \"#utility.yul\":5365:5366   */\n      0x00\n        /* \"#utility.yul\":5354:5363   */\n      dup4\n        /* \"#utility.yul\":5350:5367   */\n      add\n        /* \"#utility.yul\":5343:5390   */\n      mstore\n        /* \"#utility.yul\":5407:5485   */\n      tag_237\n        /* \"#utility.yul\":5480:5484   */\n      dup2\n        /* \"#utility.yul\":5471:5477   */\n      dup5\n        /* \"#utility.yul\":5407:5485   */\n      tag_205\n      jump\t// in\n    tag_237:\n        /* \"#utility.yul\":5399:5485   */\n      swap1\n      pop\n        /* \"#utility.yul\":5297:5492   */\n      swap3\n      swap2\n      pop\n      pop\n      jump\t// out\n        /* \"#utility.yul\":5498:5909   */\n    tag_27:\n        /* \"#utility.yul\":5633:5637   */\n      0x00\n        /* \"#utility.yul\":5671:5673   */\n      0x40\n        /* \"#utility.yul\":5660:5669   */\n      dup3\n        /* \"#utility.yul\":5656:5674   */\n      add\n        /* \"#utility.yul\":5648:5674   */\n      swap1\n      pop\n        /* \"#utility.yul\":5720:5729   */\n      dup2\n        /* \"#utility.yul\":5714:5718   */\n      dup2\n        /* \"#utility.yul\":5710:5730   */\n      sub\n        /* \"#utility.yul\":5706:5707   */\n      0x00\n        /* \"#utility.yul\":5695:5704   */\n      dup4\n        /* \"#utility.yul\":5691:5708   */\n      add\n        /* \"#utility.yul\":5684:5731   */\n      mstore\n        /* \"#utility.yul\":5748:5826   */\n      tag_239\n        /* \"#utility.yul\":5821:5825   */\n      dup2\n        /* \"#utility.yul\":5812:5818   */\n      dup6\n        /* \"#utility.yul\":5748:5826   */\n      tag_205\n      jump\t// in\n    tag_239:\n        /* \"#utility.yul\":5740:5826   */\n      swap1\n      pop\n        /* \"#utility.yul\":5836:5902   */\n      tag_240\n        /* \"#utility.yul\":5898:5900   */\n      0x20\n        /* \"#utility.yul\":5887:5896   */\n      dup4\n        /* \"#utility.yul\":5883:5901   */\n      add\n        /* \"#utility.yul\":5874:5880   */\n      dup5\n        /* \"#utility.yul\":5836:5902   */\n      tag_201\n      jump\t// in\n    tag_240:\n        /* \"#utility.yul\":5638:5909   */\n      swap4\n      swap3\n      pop\n      pop\n      pop\n      jump\t// out\n        /* \"#utility.yul\":5915:6334   */\n    tag_97:\n        /* \"#utility.yul\":6081:6085   */\n      0x00\n        /* \"#utility.yul\":6119:6121   */\n      0x20\n        /* \"#utility.yul\":6108:6117   */\n      dup3\n        /* \"#utility.yul\":6104:6122   */\n      add\n        /* \"#utility.yul\":6096:6122   */\n      swap1\n      pop\n        /* \"#utility.yul\":6168:6177   */\n      dup2\n        /* \"#utility.yul\":6162:6166   */\n      dup2\n        /* \"#utility.yul\":6158:6178   */\n      sub\n        /* \"#utility.yul\":6154:6155   */\n      0x00\n        /* \"#utility.yul\":6143:6152   */\n      dup4\n        /* \"#utility.yul\":6139:6156   */\n      add\n        /* \"#utility.yul\":6132:6179   */\n      mstore\n        /* \"#utility.yul\":6196:6327   */\n      tag_242\n        /* \"#utility.yul\":6322:6326   */\n      dup2\n        /* \"#utility.yul\":6196:6327   */\n      tag_215\n      jump\t// in\n    tag_242:\n        /* \"#utility.yul\":6188:6327   */\n      swap1\n      pop\n        /* \"#utility.yul\":6086:6334   */\n      swap2\n      swap1\n      pop\n      jump\t// out\n        /* \"#utility.yul\":6340:6759   */\n    tag_71:\n        /* \"#utility.yul\":6506:6510   */\n      0x00\n        /* \"#utility.yul\":6544:6546   */\n      0x20\n        /* \"#utility.yul\":6533:6542   */\n      dup3\n        /* \"#utility.yul\":6529:6547   */\n      add\n        /* \"#utility.yul\":6521:6547   */\n      swap1\n      pop\n        /* \"#utility.yul\":6593:6602   */\n      dup2\n        /* \"#utility.yul\":6587:6591   */\n      dup2\n        /* \"#utility.yul\":6583:6603   */\n      sub\n        /* \"#utility.yul\":6579:6580   */\n      0x00\n        /* \"#utility.yul\":6568:6577   */\n      dup4\n        /* \"#utility.yul\":6564:6581   */\n      add\n        /* \"#utility.yul\":6557:6604   */\n      mstore\n        /* \"#utility.yul\":6621:6752   */\n      tag_244\n        /* \"#utility.yul\":6747:6751   */\n      dup2\n        /* \"#utility.yul\":6621:6752   */\n      tag_220\n      jump\t// in\n    tag_244:\n        /* \"#utility.yul\":6613:6752   */\n      swap1\n      pop\n        /* \"#utility.yul\":6511:6759   */\n      swap2\n      swap1\n      pop\n      jump\t// out\n        /* \"#utility.yul\":6765:6987   */\n    tag_33:\n        /* \"#utility.yul\":6858:6862   */\n      0x00\n        /* \"#utility.yul\":6896:6898   */\n      0x20\n        /* \"#utility.yul\":6885:6894   */\n      dup3\n        /* \"#utility.yul\":6881:6899   */\n      add\n        /* \"#utility.yul\":6873:6899   */\n      swap1\n      pop\n        /* \"#utility.yul\":6909:6980   */\n      tag_246\n        /* \"#utility.yul\":6977:6978   */\n      0x00\n        /* \"#utility.yul\":6966:6975   */\n      dup4\n        /* \"#utility.yul\":6962:6979   */\n      add\n        /* \"#utility.yul\":6953:6959   */\n      dup5\n        /* \"#utility.yul\":6909:6980   */\n      tag_225\n      jump\t// in\n    tag_246:\n        /* \"#utility.yul\":6863:6987   */\n      swap3\n      swap2\n      pop\n      pop\n      jump\t// out\n        /* \"#utility.yul\":6993:7122   */\n    tag_154:\n        /* \"#utility.yul\":7027:7033   */\n      0x00\n        /* \"#utility.yul\":7054:7074   */\n      tag_248\n      tag_249\n      jump\t// in\n    tag_248:\n        /* \"#utility.yul\":7044:7074   */\n      swap1\n      pop\n        /* \"#utility.yul\":7083:7116   */\n      tag_250\n        /* \"#utility.yul\":7111:7115   */\n      dup3\n        /* \"#utility.yul\":7103:7109   */\n      dup3\n        /* \"#utility.yul\":7083:7116   */\n      tag_251\n      jump\t// in\n    tag_250:\n        /* \"#utility.yul\":7034:7122   */\n      swap2\n      swap1\n      pop\n      jump\t// out\n        /* \"#utility.yul\":7128:7203   */\n    tag_249:\n        /* \"#utility.yul\":7161:7167   */\n      0x00\n        /* \"#utility.yul\":7194:7196   */\n      0x40\n        /* \"#utility.yul\":7188:7197   */\n      mload\n        /* \"#utility.yul\":7178:7197   */\n      swap1\n      pop\n        /* \"#utility.yul\":7168:7203   */\n      swap1\n      jump\t// out\n        /* \"#utility.yul\":7209:7517   */\n    tag_153:\n        /* \"#utility.yul\":7271:7275   */\n      0x00\n        /* \"#utility.yul\":7361:7379   */\n      0xffffffffffffffff\n        /* \"#utility.yul\":7353:7359   */\n      dup3\n        /* \"#utility.yul\":7350:7380   */\n      gt\n        /* \"#utility.yul\":7347:7349   */\n      iszero\n      tag_254\n      jumpi\n        /* \"#utility.yul\":7383:7401   */\n      tag_255\n      tag_256\n      jump\t// in\n    tag_255:\n        /* \"#utility.yul\":7347:7349   */\n    tag_254:\n        /* \"#utility.yul\":7421:7450   */\n      tag_257\n        /* \"#utility.yul\":7443:7449   */\n      dup3\n        /* \"#utility.yul\":7421:7450   */\n      tag_214\n      jump\t// in\n    tag_257:\n        /* \"#utility.yul\":7413:7450   */\n      swap1\n      pop\n        /* \"#utility.yul\":7505:7509   */\n      0x20\n        /* \"#utility.yul\":7499:7503   */\n      dup2\n        /* \"#utility.yul\":7495:7510   */\n      add\n        /* \"#utility.yul\":7487:7510   */\n      swap1\n      pop\n        /* \"#utility.yul\":7276:7517   */\n      swap2\n      swap1\n      pop\n      jump\t// out\n        /* \"#utility.yul\":7523:7622   */\n    tag_208:\n        /* \"#utility.yul\":7575:7581   */\n      0x00\n        /* \"#utility.yul\":7609:7614   */\n      dup2\n        /* \"#utility.yul\":7603:7615   */\n      mload\n        /* \"#utility.yul\":7593:7615   */\n      swap1\n      pop\n        /* \"#utility.yul\":7582:7622   */\n      swap2\n      swap1\n      pop\n      jump\t// out\n        /* \"#utility.yul\":7628:7797   */\n    tag_210:\n        /* \"#utility.yul\":7712:7723   */\n      0x00\n        /* \"#utility.yul\":7746:7752   */\n      dup3\n        /* \"#utility.yul\":7741:7744   */\n      dup3\n        /* \"#utility.yul\":7734:7753   */\n      mstore\n        /* \"#utility.yul\":7786:7790   */\n      0x20\n        /* \"#utility.yul\":7781:7784   */\n      dup3\n        /* \"#utility.yul\":7777:7791   */\n      add\n        /* \"#utility.yul\":7762:7791   */\n      swap1\n      pop\n        /* \"#utility.yul\":7724:7797   */\n      swap3\n      swap2\n      pop\n      pop\n      jump\t// out\n        /* \"#utility.yul\":7803:8108   */\n    tag_85:\n        /* \"#utility.yul\":7843:7846   */\n      0x00\n        /* \"#utility.yul\":7862:7882   */\n      tag_261\n        /* \"#utility.yul\":7880:7881   */\n      dup3\n        /* \"#utility.yul\":7862:7882   */\n      tag_228\n      jump\t// in\n    tag_261:\n        /* \"#utility.yul\":7857:7882   */\n      swap2\n      pop\n        /* \"#utility.yul\":7896:7916   */\n      tag_262\n        /* \"#utility.yul\":7914:7915   */\n      dup4\n        /* \"#utility.yul\":7896:7916   */\n      tag_228\n      jump\t// in\n    tag_262:\n        /* \"#utility.yul\":7891:7916   */\n      swap3\n      pop\n        /* \"#utility.yul\":8050:8051   */\n      dup3\n        /* \"#utility.yul\":7982:8048   */\n      0xffffffffffffffffffffffffffffffffffffffffffffffffffffffffffffffff\n        /* \"#utility.yul\":7978:8052   */\n      sub\n        /* \"#utility.yul\":7975:7976   */\n      dup3\n        /* \"#utility.yul\":7972:8053   */\n      gt\n        /* \"#utility.yul\":7969:7971   */\n      iszero\n      tag_263\n      jumpi\n        /* \"#utility.yul\":8056:8074   */\n      tag_264\n      tag_265\n      jump\t// in\n    tag_264:\n        /* \"#utility.yul\":7969:7971   */\n    tag_263:\n        /* \"#utility.yul\":8100:8101   */\n      dup3\n        /* \"#utility.yul\":8097:8098   */\n      dup3\n        /* \"#utility.yul\":8093:8102   */\n      add\n        /* \"#utility.yul\":8086:8102   */\n      swap1\n      pop\n        /* \"#utility.yul\":7847:8108   */\n      swap3\n      swap2\n      pop\n      pop\n      jump\t// out\n        /* \"#utility.yul\":8114:8299   */\n    tag_83:\n        /* \"#utility.yul\":8154:8155   */\n      0x00\n        /* \"#utility.yul\":8171:8191   */\n      tag_267\n        /* \"#utility.yul\":8189:8190   */\n      dup3\n        /* \"#utility.yul\":8171:8191   */\n      tag_228\n      jump\t// in\n    tag_267:\n        /* \"#utility.yul\":8166:8191   */\n      swap2\n      pop\n        /* \"#utility.yul\":8205:8225   */\n      tag_268\n        /* \"#utility.yul\":8223:8224   */\n      dup4\n        /* \"#utility.yul\":8205:8225   */\n      tag_228\n      jump\t// in\n    tag_268:\n        /* \"#utility.yul\":8200:8225   */\n      swap3\n      pop\n        /* \"#utility.yul\":8244:8245   */\n      dup3\n        /* \"#utility.yul\":8234:8236   */\n      tag_269\n      jumpi\n        /* \"#utility.yul\":8249:8267   */\n      tag_270\n      tag_271\n      jump\t// in\n    tag_270:\n        /* \"#utility.yul\":8234:8236   */\n    tag_269:\n        /* \"#utility.yul\":8291:8292   */\n      dup3\n        /* \"#utility.yul\":8288:8289   */\n      dup3\n        /* \"#utility.yul\":8284:8293   */\n      div\n        /* \"#utility.yul\":8279:8293   */\n      swap1\n      pop\n        /* \"#utility.yul\":8156:8299   */\n      swap3\n      swap2\n      pop\n      pop\n      jump\t// out\n        /* \"#utility.yul\":8305:8401   */\n    tag_200:\n        /* \"#utility.yul\":8342:8349   */\n      0x00\n        /* \"#utility.yul\":8371:8395   */\n      tag_273\n        /* \"#utility.yul\":8389:8394   */\n      dup3\n        /* \"#utility.yul\":8371:8395   */\n      tag_274\n      jump\t// in\n    tag_273:\n        /* \"#utility.yul\":8360:8395   */\n      swap1\n      pop\n        /* \"#utility.yul\":8350:8401   */\n      swap2\n      swap1\n      pop\n      jump\t// out\n        /* \"#utility.yul\":8407:8497   */\n    tag_204:\n        /* \"#utility.yul\":8441:8448   */\n      0x00\n        /* \"#utility.yul\":8484:8489   */\n      dup2\n        /* \"#utility.yul\":8477:8490   */\n      iszero\n        /* \"#utility.yul\":8470:8491   */\n      iszero\n        /* \"#utility.yul\":8459:8491   */\n      swap1\n      pop\n        /* \"#utility.yul\":8449:8497   */\n      swap2\n      swap1\n      pop\n      jump\t// out\n        /* \"#utility.yul\":8503:8629   */\n    tag_274:\n        /* \"#utility.yul\":8540:8547   */\n      0x00\n        /* \"#utility.yul\":8580:8622   */\n      0xffffffffffffffffffffffffffffffffffffffff\n        /* \"#utility.yul\":8573:8578   */\n      dup3\n        /* \"#utility.yul\":8569:8623   */\n      and\n        /* \"#utility.yul\":8558:8623   */\n      swap1\n      pop\n        /* \"#utility.yul\":8548:8629   */\n      swap2\n      swap1\n      pop\n      jump\t// out\n        /* \"#utility.yul\":8635:8712   */\n    tag_228:\n        /* \"#utility.yul\":8672:8679   */\n      0x00\n        /* \"#utility.yul\":8701:8706   */\n      dup2\n        /* \"#utility.yul\":8690:8706   */\n      swap1\n      pop\n        /* \"#utility.yul\":8680:8712   */\n      swap2\n      swap1\n      pop\n      jump\t// out\n        /* \"#utility.yul\":8718:8872   */\n    tag_159:\n        /* \"#utility.yul\":8802:8808   */\n      dup3\n        /* \"#utility.yul\":8797:8800   */\n      dup2\n        /* \"#utility.yul\":8792:8795   */\n      dup4\n        /* \"#utility.yul\":8779:8809   */\n      calldatacopy\n        /* \"#utility.yul\":8864:8865   */\n      0x00\n        /* \"#utility.yul\":8855:8861   */\n      dup4\n        /* \"#utility.yul\":8850:8853   */\n      dup4\n        /* \"#utility.yul\":8846:8862   */\n      add\n        /* \"#utility.yul\":8839:8866   */\n      mstore\n        /* \"#utility.yul\":8769:8872   */\n      pop\n      pop\n      pop\n      jump\t// out\n        /* \"#utility.yul\":8878:9185   */\n    tag_212:\n        /* \"#utility.yul\":8946:8947   */\n      0x00\n        /* \"#utility.yul\":8956:9069   */\n    tag_280:\n        /* \"#utility.yul\":8970:8976   */\n      dup4\n        /* \"#utility.yul\":8967:8968   */\n      dup2\n        /* \"#utility.yul\":8964:8977   */\n      lt\n        /* \"#utility.yul\":8956:9069   */\n      iszero\n      tag_282\n      jumpi\n        /* \"#utility.yul\":9055:9056   */\n      dup1\n        /* \"#utility.yul\":9050:9053   */\n      dup3\n        /* \"#utility.yul\":9046:9057   */\n      add\n        /* \"#utility.yul\":9040:9058   */\n      mload\n        /* \"#utility.yul\":9036:9037   */\n      dup2\n        /* \"#utility.yul\":9031:9034   */\n      dup5\n        /* \"#utility.yul\":9027:9038   */\n      add\n        /* \"#utility.yul\":9020:9059   */\n      mstore\n        /* \"#utility.yul\":8992:8994   */\n      0x20\n        /* \"#utility.yul\":8989:8990   */\n      dup2\n        /* \"#utility.yul\":8985:8995   */\n      add\n        /* \"#utility.yul\":8980:8995   */\n      swap1\n      pop\n        /* \"#utility.yul\":8956:9069   */\n      jump(tag_280)\n    tag_282:\n        /* \"#utility.yul\":9087:9093   */\n      dup4\n        /* \"#utility.yul\":9084:9085   */\n      dup2\n        /* \"#utility.yul\":9081:9094   */\n      gt\n        /* \"#utility.yul\":9078:9080   */\n      iszero\n      tag_283\n      jumpi\n        /* \"#utility.yul\":9167:9168   */\n      0x00\n        /* \"#utility.yul\":9158:9164   */\n      dup5\n        /* \"#utility.yul\":9153:9156   */\n      dup5\n        /* \"#utility.yul\":9149:9165   */\n      add\n        /* \"#utility.yul\":9142:9169   */\n      mstore\n        /* \"#utility.yul\":9078:9080   */\n    tag_283:\n        /* \"#utility.yul\":8927:9185   */\n      pop\n      pop\n      pop\n      pop\n      jump\t// out\n        /* \"#utility.yul\":9191:9511   */\n    tag_74:\n        /* \"#utility.yul\":9235:9241   */\n      0x00\n        /* \"#utility.yul\":9272:9273   */\n      0x02\n        /* \"#utility.yul\":9266:9270   */\n      dup3\n        /* \"#utility.yul\":9262:9274   */\n      div\n        /* \"#utility.yul\":9252:9274   */\n      swap1\n      pop\n        /* \"#utility.yul\":9319:9320   */\n      0x01\n        /* \"#utility.yul\":9313:9317   */\n      dup3\n        /* \"#utility.yul\":9309:9321   */\n      and\n        /* \"#utility.yul\":9340:9358   */\n      dup1\n        /* \"#utility.yul\":9330:9332   */\n      tag_285\n      jumpi\n        /* \"#utility.yul\":9396:9400   */\n      0x7f\n        /* \"#utility.yul\":9388:9394   */\n      dup3\n        /* \"#utility.yul\":9384:9401   */\n      and\n        /* \"#utility.yul\":9374:9401   */\n      swap2\n      pop\n        /* \"#utility.yul\":9330:9332   */\n    tag_285:\n        /* \"#utility.yul\":9458:9460   */\n      0x20\n        /* \"#utility.yul\":9450:9456   */\n      dup3\n        /* \"#utility.yul\":9447:9461   */\n      lt\n        /* \"#utility.yul\":9427:9445   */\n      dup2\n        /* \"#utility.yul\":9424:9462   */\n      eq\n        /* \"#utility.yul\":9421:9423   */\n      iszero\n      tag_286\n      jumpi\n        /* \"#utility.yul\":9477:9495   */\n      tag_287\n      tag_288\n      jump\t// in\n    tag_287:\n        /* \"#utility.yul\":9421:9423   */\n    tag_286:\n        /* \"#utility.yul\":9242:9511   */\n      pop\n      swap2\n      swap1\n      pop\n      jump\t// out\n        /* \"#utility.yul\":9517:9798   */\n    tag_251:\n        /* \"#utility.yul\":9600:9627   */\n      tag_290\n        /* \"#utility.yul\":9622:9626   */\n      dup3\n        /* \"#utility.yul\":9600:9627   */\n      tag_214\n      jump\t// in\n    tag_290:\n        /* \"#utility.yul\":9592:9598   */\n      dup2\n        /* \"#utility.yul\":9588:9628   */\n      add\n        /* \"#utility.yul\":9730:9736   */\n      dup2\n        /* \"#utility.yul\":9718:9728   */\n      dup2\n        /* \"#utility.yul\":9715:9737   */\n      lt\n        /* \"#utility.yul\":9694:9712   */\n      0xffffffffffffffff\n        /* \"#utility.yul\":9682:9692   */\n      dup3\n        /* \"#utility.yul\":9679:9713   */\n      gt\n        /* \"#utility.yul\":9676:9738   */\n      or\n        /* \"#utility.yul\":9673:9675   */\n      iszero\n      tag_291\n      jumpi\n        /* \"#utility.yul\":9741:9759   */\n      tag_292\n      tag_256\n      jump\t// in\n    tag_292:\n        /* \"#utility.yul\":9673:9675   */\n    tag_291:\n        /* \"#utility.yul\":9781:9791   */\n      dup1\n        /* \"#utility.yul\":9777:9779   */\n      0x40\n        /* \"#utility.yul\":9770:9792   */\n      mstore\n        /* \"#utility.yul\":9560:9798   */\n      pop\n      pop\n      pop\n      jump\t// out\n        /* \"#utility.yul\":9804:10037   */\n    tag_81:\n        /* \"#utility.yul\":9843:9846   */\n      0x00\n        /* \"#utility.yul\":9866:9890   */\n      tag_294\n        /* \"#utility.yul\":9884:9889   */\n      dup3\n        /* \"#utility.yul\":9866:9890   */\n      tag_228\n      jump\t// in\n    tag_294:\n        /* \"#utility.yul\":9857:9890   */\n      swap2\n      pop\n        /* \"#utility.yul\":9912:9978   */\n      0xffffffffffffffffffffffffffffffffffffffffffffffffffffffffffffffff\n        /* \"#utility.yul\":9905:9910   */\n      dup3\n        /* \"#utility.yul\":9902:9979   */\n      eq\n        /* \"#utility.yul\":9899:9901   */\n      iszero\n      tag_295\n      jumpi\n        /* \"#utility.yul\":9982:10000   */\n      tag_296\n      tag_265\n      jump\t// in\n    tag_296:\n        /* \"#utility.yul\":9899:9901   */\n    tag_295:\n        /* \"#utility.yul\":10029:10030   */\n      0x01\n        /* \"#utility.yul\":10022:10027   */\n      dup3\n        /* \"#utility.yul\":10018:10031   */\n      add\n        /* \"#utility.yul\":10011:10031   */\n      swap1\n      pop\n        /* \"#utility.yul\":9847:10037   */\n      swap2\n      swap1\n      pop\n      jump\t// out\n        /* \"#utility.yul\":10043:10223   */\n    tag_265:\n        /* \"#utility.yul\":10091:10168   */\n      0x4e487b7100000000000000000000000000000000000000000000000000000000\n        /* \"#utility.yul\":10088:10089   */\n      0x00\n        /* \"#utility.yul\":10081:10169   */\n      mstore\n        /* \"#utility.yul\":10188:10192   */\n      0x11\n        /* \"#utility.yul\":10185:10186   */\n      0x04\n        /* \"#utility.yul\":10178:10193   */\n      mstore\n        /* \"#utility.yul\":10212:10216   */\n      0x24\n        /* \"#utility.yul\":10209:10210   */\n      0x00\n        /* \"#utility.yul\":10202:10217   */\n      revert\n        /* \"#utility.yul\":10229:10409   */\n    tag_271:\n        /* \"#utility.yul\":10277:10354   */\n      0x4e487b7100000000000000000000000000000000000000000000000000000000\n        /* \"#utility.yul\":10274:10275   */\n      0x00\n        /* \"#utility.yul\":10267:10355   */\n      mstore\n        /* \"#utility.yul\":10374:10378   */\n      0x12\n        /* \"#utility.yul\":10371:10372   */\n      0x04\n        /* \"#utility.yul\":10364:10379   */\n      mstore\n        /* \"#utility.yul\":10398:10402   */\n      0x24\n        /* \"#utility.yul\":10395:10396   */\n      0x00\n        /* \"#utility.yul\":10388:10403   */\n      revert\n        /* \"#utility.yul\":10415:10595   */\n    tag_288:\n        /* \"#utility.yul\":10463:10540   */\n      0x4e487b7100000000000000000000000000000000000000000000000000000000\n        /* \"#utility.yul\":10460:10461   */\n      0x00\n        /* \"#utility.yul\":10453:10541   */\n      mstore\n        /* \"#utility.yul\":10560:10564   */\n      0x22\n        /* \"#utility.yul\":10557:10558   */\n      0x04\n        /* \"#utility.yul\":10550:10565   */\n      mstore\n        /* \"#utility.yul\":10584:10588   */\n      0x24\n        /* \"#utility.yul\":10581:10582   */\n      0x00\n        /* \"#utility.yul\":10574:10589   */\n      revert\n        /* \"#utility.yul\":10601:10781   */\n    tag_256:\n        /* \"#utility.yul\":10649:10726   */\n      0x4e487b7100000000000000000000000000000000000000000000000000000000\n        /* \"#utility.yul\":10646:10647   */\n      0x00\n        /* \"#utility.yul\":10639:10727   */\n      mstore\n        /* \"#utility.yul\":10746:10750   */\n      0x41\n        /* \"#utility.yul\":10743:10744   */\n      0x04\n        /* \"#utility.yul\":10736:10751   */\n      mstore\n        /* \"#utility.yul\":10770:10774   */\n      0x24\n        /* \"#utility.yul\":10767:10768   */\n      0x00\n        /* \"#utility.yul\":10760:10775   */\n      revert\n        /* \"#utility.yul\":10787:10904   */\n    tag_168:\n        /* \"#utility.yul\":10896:10897   */\n      0x00\n        /* \"#utility.yul\":10893:10894   */\n      dup1\n        /* \"#utility.yul\":10886:10898   */\n      revert\n        /* \"#utility.yul\":10910:11027   */\n    tag_157:\n        /* \"#utility.yul\":11019:11020   */\n      0x00\n        /* \"#utility.yul\":11016:11017   */\n      dup1\n        /* \"#utility.yul\":11009:11021   */\n      revert\n        /* \"#utility.yul\":11033:11150   */\n    tag_185:\n        /* \"#utility.yul\":11142:11143   */\n      0x00\n        /* \"#utility.yul\":11139:11140   */\n      dup1\n        /* \"#utility.yul\":11132:11144   */\n      revert\n        /* \"#utility.yul\":11156:11273   */\n    tag_177:\n        /* \"#utility.yul\":11265:11266   */\n      0x00\n        /* \"#utility.yul\":11262:11263   */\n      dup1\n        /* \"#utility.yul\":11255:11267   */\n      revert\n        /* \"#utility.yul\":11279:11381   */\n    tag_214:\n        /* \"#utility.yul\":11320:11326   */\n      0x00\n        /* \"#utility.yul\":11371:11373   */\n      0x1f\n        /* \"#utility.yul\":11367:11374   */\n      not\n        /* \"#utility.yul\":11362:11364   */\n      0x1f\n        /* \"#utility.yul\":11355:11360   */\n      dup4\n        /* \"#utility.yul\":11351:11365   */\n      add\n        /* \"#utility.yul\":11347:11375   */\n      and\n        /* \"#utility.yul\":11337:11375   */\n      swap1\n      pop\n        /* \"#utility.yul\":11327:11381   */\n      swap2\n      swap1\n      pop\n      jump\t// out\n        /* \"#utility.yul\":11387:11609   */\n    tag_219:\n        /* \"#utility.yul\":11527:11561   */\n      0x43616e206f6e6c7920626520657865637574656420627920746865206d616e61\n        /* \"#utility.yul\":11523:11524   */\n      0x00\n        /* \"#utility.yul\":11515:11521   */\n      dup3\n        /* \"#utility.yul\":11511:11525   */\n      add\n        /* \"#utility.yul\":11504:11562   */\n      mstore\n        /* \"#utility.yul\":11596:11601   */\n      0x6765720000000000000000000000000000000000000000000000000000000000\n        /* \"#utility.yul\":11591:11593   */\n      0x20\n        /* \"#utility.yul\":11583:11589   */\n      dup3\n        /* \"#utility.yul\":11579:11594   */\n      add\n        /* \"#utility.yul\":11572:11602   */\n      mstore\n        /* \"#utility.yul\":11493:11609   */\n      pop\n      jump\t// out\n        /* \"#utility.yul\":11615:11837   */\n    tag_224:\n        /* \"#utility.yul\":11755:11789   */\n      0x43616e20766f7465206f6e6c79207768696c6520766f74696e67206973206f70\n        /* \"#utility.yul\":11751:11752   */\n      0x00\n        /* \"#utility.yul\":11743:11749   */\n      dup3\n        /* \"#utility.yul\":11739:11753   */\n      add\n        /* \"#utility.yul\":11732:11790   */\n      mstore\n        /* \"#utility.yul\":11824:11829   */\n      0x656e2e0000000000000000000000000000000000000000000000000000000000\n        /* \"#utility.yul\":11819:11821   */\n      0x20\n        /* \"#utility.yul\":11811:11817   */\n      dup3\n        /* \"#utility.yul\":11807:11822   */\n      add\n        /* \"#utility.yul\":11800:11830   */\n      mstore\n        /* \"#utility.yul\":11721:11837   */\n      pop\n      jump\t// out\n        /* \"#utility.yul\":11843:11965   */\n    tag_163:\n        /* \"#utility.yul\":11916:11940   */\n      tag_309\n        /* \"#utility.yul\":11934:11939   */\n      dup2\n        /* \"#utility.yul\":11916:11940   */\n      tag_200\n      jump\t// in\n    tag_309:\n        /* \"#utility.yul\":11909:11914   */\n      dup2\n        /* \"#utility.yul\":11906:11941   */\n      eq\n        /* \"#utility.yul\":11896:11898   */\n      tag_310\n      jumpi\n        /* \"#utility.yul\":11955:11956   */\n      0x00\n        /* \"#utility.yul\":11952:11953   */\n      dup1\n        /* \"#utility.yul\":11945:11957   */\n      revert\n        /* \"#utility.yul\":11896:11898   */\n    tag_310:\n        /* \"#utility.yul\":11886:11965   */\n      pop\n      jump\t// out\n        /* \"#utility.yul\":11971:12093   */\n    tag_173:\n        /* \"#utility.yul\":12044:12068   */\n      tag_312\n        /* \"#utility.yul\":12062:12067   */\n      dup2\n        /* \"#utility.yul\":12044:12068   */\n      tag_228\n      jump\t// in\n    tag_312:\n        /* \"#utility.yul\":12037:12042   */\n      dup2\n        /* \"#utility.yul\":12034:12069   */\n      eq\n        /* \"#utility.yul\":12024:12026   */\n      tag_313\n      jumpi\n        /* \"#utility.yul\":12083:12084   */\n      0x00\n        /* \"#utility.yul\":12080:12081   */\n      dup1\n        /* \"#utility.yul\":12073:12085   */\n      revert\n        /* \"#utility.yul\":12024:12026   */\n    tag_313:\n        /* \"#utility.yul\":12014:12093   */\n      pop\n      jump\t// out\n\n    auxdata: 0xa26469706673582212202f6174c1c52578836dfcf0a6c7fdc37ed243c5635707669e808d66b0d6747f7164736f6c63430008050033\n}\n",
				"bytecode": {
					"linkReferences": {},
					"object": "608060405260006002556000600355600060045560405180602001604052806000815250600690805190602001906200003a929190620000ab565b506001600960006101000a81548160ff0219169083151502179055503480156200006357600080fd5b5033600560006101000a81548173ffffffffffffffffffffffffffffffffffffffff021916908373ffffffffffffffffffffffffffffffffffffffff160217905550620001c0565b828054620000b9906200015b565b90600052602060002090601f016020900481019282620000dd576000855562000129565b82601f10620000f857805160ff191683800117855562000129565b8280016001018555821562000129579182015b82811115620001285782518255916020019190600101906200010b565b5b5090506200013891906200013c565b5090565b5b80821115620001575760008160009055506001016200013d565b5090565b600060028204905060018216806200017457607f821691505b602082108114156200018b576200018a62000191565b5b50919050565b7f4e487b7100000000000000000000000000000000000000000000000000000000600052602260045260246000fd5b61138380620001d06000396000f3fe608060405234801561001057600080fd5b50600436106100b45760003560e01c80636d77bd3e116100715780636d77bd3e146101b7578063788d3851146101e7578063a3bef4d714610205578063ad5461d814610223578063b798867f14610253578063c1c16efc14610271576100b4565b8063124258c6146100b95780631ddabf7a146100e95780633b9f708d1461011a57806347098f361461014a578063481c6a75146101685780635df8133014610186575b600080fd5b6100d360048036038101906100ce9190610d8c565b61028f565b6040516100e09190610ea9565b60405180910390f35b61010360048036038101906100fe9190610cba565b6104c5565b604051610111929190610ee6565b60405180910390f35b610134600480360381019061012f9190610ce7565b61057e565b6040516101419190610f56565b60405180910390f35b6101526106d6565b60405161015f9190610f56565b60405180910390f35b6101706106dc565b60405161017d9190610e65565b60405180910390f35b6101a0600480360381019061019b9190610d8c565b610702565b6040516101ae929190610e80565b60405180910390f35b6101d160048036038101906101cc9190610d43565b610746565b6040516101de9190610f56565b60405180910390f35b6101ef610823565b6040516101fc9190610ea9565b60405180910390f35b61020d610836565b60405161021a9190610f56565b60405180910390f35b61023d60048036038101906102389190610d8c565b61083c565b60405161024a9190610ec4565b60405180910390f35b61025b6108dc565b6040516102689190610f56565b60405180910390f35b6102796108e2565b6040516102869190610ec4565b60405180910390f35b600060011515600960009054906101000a900460ff161515146102e7576040517f08c379a00000000000000000000000000000000000000000000000000000000081526004016102de90610f36565b60405180910390fd5b600090506000600160003373ffffffffffffffffffffffffffffffffffffffff1673ffffffffffffffffffffffffffffffffffffffff168152602001908152602001600020600001805461033a906110f4565b9050146104945760008060008481526020019081526020016000208054610360906110f4565b905014610493576001905060018060003373ffffffffffffffffffffffffffffffffffffffff1673ffffffffffffffffffffffffffffffffffffffff16815260200190815260200160002060010160006101000a81548160ff0219169083151502179055506103cd610aa4565b33816000019073ffffffffffffffffffffffffffffffffffffffff16908173ffffffffffffffffffffffffffffffffffffffff1681525050828160200181815250506004600081548092919061042290611157565b91905055508060076000600454815260200190815260200160002060008201518160000160006101000a81548173ffffffffffffffffffffffffffffffffffffffff021916908373ffffffffffffffffffffffffffffffffffffffff16021790555060208201518160010155905050505b5b600160026003546104a59190611039565b6104af9190610fe3565b600454106104c0576104bf610970565b5b919050565b60016020528060005260406000206000915090508060000180546104e8906110f4565b80601f0160208091040260200160405190810160405280929190818152602001828054610514906110f4565b80156105615780601f1061053657610100808354040283529160200191610561565b820191906000526020600020905b81548152906001019060200180831161054457829003601f168201915b5050505050908060010160009054906101000a900460ff16905082565b6000600560009054906101000a900473ffffffffffffffffffffffffffffffffffffffff1673ffffffffffffffffffffffffffffffffffffffff163373ffffffffffffffffffffffffffffffffffffffff1614610610576040517f08c379a000000000000000000000000000000000000000000000000000000000815260040161060790610f16565b60405180910390fd5b610618610ad4565b828160000181905250600081602001901515908115158152505080600160008673ffffffffffffffffffffffffffffffffffffffff1673ffffffffffffffffffffffffffffffffffffffff168152602001908152602001600020600082015181600001908051906020019061068e929190610af0565b5060208201518160010160006101000a81548160ff021916908315150217905550905050600360008154809291906106c590611157565b919050555060035491505092915050565b60035481565b600560009054906101000a900473ffffffffffffffffffffffffffffffffffffffff1681565b60076020528060005260406000206000915090508060000160009054906101000a900473ffffffffffffffffffffffffffffffffffffffff16908060010154905082565b6000600560009054906101000a900473ffffffffffffffffffffffffffffffffffffffff1673ffffffffffffffffffffffffffffffffffffffff163373ffffffffffffffffffffffffffffffffffffffff16146107d8576040517f08c379a00000000000000000000000000000000000000000000000000000000081526004016107cf90610f16565b60405180910390fd5b600260008154809291906107eb90611157565b91905055508160008060025481526020019081526020016000209080519060200190610818929190610af0565b506002549050919050565b600960009054906101000a900460ff1681565b60045481565b6000602052806000526040600020600091509050805461085b906110f4565b80601f0160208091040260200160405190810160405280929190818152602001828054610887906110f4565b80156108d45780601f106108a9576101008083540402835291602001916108d4565b820191906000526020600020905b8154815290600101906020018083116108b757829003601f168201915b505050505081565b60025481565b600680546108ef906110f4565b80601f016020809104026020016040519081016040528092919081815260200182805461091b906110f4565b80156109685780601f1061093d57610100808354040283529160200191610968565b820191906000526020600020905b81548152906001019060200180831161094b57829003601f168201915b505050505081565b6000806000600190505b6004548111610a5857600060019050600060086000600760008681526020019081526020016000206001015481526020019081526020016000205411156109f357600860006007600085815260200190815260200160002060010154815260200190815260200160002054816109f09190610fe3565b90505b8060086000600760008681526020019081526020016000206001015481526020019081526020016000208190555083811115610a4657809350600760008381526020019081526020016000206001015492505b5080610a5190611157565b905061097a565b506000808281526020019081526020016000206006908054610a79906110f4565b610a84929190610b76565b506000600960006101000a81548160ff0219169083151502179055505050565b6040518060400160405280600073ffffffffffffffffffffffffffffffffffffffff168152602001600081525090565b6040518060400160405280606081526020016000151581525090565b828054610afc906110f4565b90600052602060002090601f016020900481019282610b1e5760008555610b65565b82601f10610b3757805160ff1916838001178555610b65565b82800160010185558215610b65579182015b82811115610b64578251825591602001919060010190610b49565b5b509050610b729190610c03565b5090565b828054610b82906110f4565b90600052602060002090601f016020900481019282610ba45760008555610bf2565b82601f10610bb55780548555610bf2565b82800160010185558215610bf257600052602060002091601f016020900482015b82811115610bf1578254825591600101919060010190610bd6565b5b509050610bff9190610c03565b5090565b5b80821115610c1c576000816000905550600101610c04565b5090565b6000610c33610c2e84610f96565b610f71565b905082815260208101848484011115610c4f57610c4e611261565b5b610c5a8482856110b2565b509392505050565b600081359050610c718161131f565b92915050565b600082601f830112610c8c57610c8b61125c565b5b8135610c9c848260208601610c20565b91505092915050565b600081359050610cb481611336565b92915050565b600060208284031215610cd057610ccf61126b565b5b6000610cde84828501610c62565b91505092915050565b60008060408385031215610cfe57610cfd61126b565b5b6000610d0c85828601610c62565b925050602083013567ffffffffffffffff811115610d2d57610d2c611266565b5b610d3985828601610c77565b9150509250929050565b600060208284031215610d5957610d5861126b565b5b600082013567ffffffffffffffff811115610d7757610d76611266565b5b610d8384828501610c77565b91505092915050565b600060208284031215610da257610da161126b565b5b6000610db084828501610ca5565b91505092915050565b610dc28161106a565b82525050565b610dd18161107c565b82525050565b6000610de282610fc7565b610dec8185610fd2565b9350610dfc8185602086016110c1565b610e0581611270565b840191505092915050565b6000610e1d602383610fd2565b9150610e2882611281565b604082019050919050565b6000610e40602383610fd2565b9150610e4b826112d0565b604082019050919050565b610e5f816110a8565b82525050565b6000602082019050610e7a6000830184610db9565b92915050565b6000604082019050610e956000830185610db9565b610ea26020830184610e56565b9392505050565b6000602082019050610ebe6000830184610dc8565b92915050565b60006020820190508181036000830152610ede8184610dd7565b905092915050565b60006040820190508181036000830152610f008185610dd7565b9050610f0f6020830184610dc8565b9392505050565b60006020820190508181036000830152610f2f81610e10565b9050919050565b60006020820190508181036000830152610f4f81610e33565b9050919050565b6000602082019050610f6b6000830184610e56565b92915050565b6000610f7b610f8c565b9050610f878282611126565b919050565b6000604051905090565b600067ffffffffffffffff821115610fb157610fb061122d565b5b610fba82611270565b9050602081019050919050565b600081519050919050565b600082825260208201905092915050565b6000610fee826110a8565b9150610ff9836110a8565b9250827fffffffffffffffffffffffffffffffffffffffffffffffffffffffffffffffff0382111561102e5761102d6111a0565b5b828201905092915050565b6000611044826110a8565b915061104f836110a8565b92508261105f5761105e6111cf565b5b828204905092915050565b600061107582611088565b9050919050565b60008115159050919050565b600073ffffffffffffffffffffffffffffffffffffffff82169050919050565b6000819050919050565b82818337600083830152505050565b60005b838110156110df5780820151818401526020810190506110c4565b838111156110ee576000848401525b50505050565b6000600282049050600182168061110c57607f821691505b602082108114156111205761111f6111fe565b5b50919050565b61112f82611270565b810181811067ffffffffffffffff8211171561114e5761114d61122d565b5b80604052505050565b6000611162826110a8565b91507fffffffffffffffffffffffffffffffffffffffffffffffffffffffffffffffff821415611195576111946111a0565b5b600182019050919050565b7f4e487b7100000000000000000000000000000000000000000000000000000000600052601160045260246000fd5b7f4e487b7100000000000000000000000000000000000000000000000000000000600052601260045260246000fd5b7f4e487b7100000000000000000000000000000000000000000000000000000000600052602260045260246000fd5b7f4e487b7100000000000000000000000000000000000000000000000000000000600052604160045260246000fd5b600080fd5b600080fd5b600080fd5b600080fd5b6000601f19601f8301169050919050565b7f43616e206f6e6c7920626520657865637574656420627920746865206d616e6160008201527f6765720000000000000000000000000000000000000000000000000000000000602082015250565b7f43616e20766f7465206f6e6c79207768696c6520766f74696e67206973206f7060008201527f656e2e0000000000000000000000000000000000000000000000000000000000602082015250565b6113288161106a565b811461133357600080fd5b50565b61133f816110a8565b811461134a57600080fd5b5056fea26469706673582212202f6174c1c52578836dfcf0a6c7fdc37ed243c5635707669e808d66b0d6747f7164736f6c63430008050033",
					"opcodes": "PUSH1 0x80 PUSH1 0x40 MSTORE PUSH1 0x0 PUSH1 0x2 SSTORE PUSH1 0x0 PUSH1 0x3 SSTORE PUSH1 0x0 PUSH1 0x4 SSTORE PUSH1 0x40 MLOAD DUP1 PUSH1 0x20 ADD PUSH1 0x40 MSTORE DUP1 PUSH1 0x0 DUP2 MSTORE POP PUSH1 0x6 SWAP1 DUP1 MLOAD SWAP1 PUSH1 0x20 ADD SWAP1 PUSH3 0x3A SWAP3 SWAP2 SWAP1 PUSH3 0xAB JUMP JUMPDEST POP PUSH1 0x1 PUSH1 0x9 PUSH1 0x0 PUSH2 0x100 EXP DUP2 SLOAD DUP2 PUSH1 0xFF MUL NOT AND SWAP1 DUP4 ISZERO ISZERO MUL OR SWAP1 SSTORE POP CALLVALUE DUP1 ISZERO PUSH3 0x63 JUMPI PUSH1 0x0 DUP1 REVERT JUMPDEST POP CALLER PUSH1 0x5 PUSH1 0x0 PUSH2 0x100 EXP DUP2 SLOAD DUP2 PUSH20 0xFFFFFFFFFFFFFFFFFFFFFFFFFFFFFFFFFFFFFFFF MUL NOT AND SWAP1 DUP4 PUSH20 0xFFFFFFFFFFFFFFFFFFFFFFFFFFFFFFFFFFFFFFFF AND MUL OR SWAP1 SSTORE POP PUSH3 0x1C0 JUMP JUMPDEST DUP3 DUP1 SLOAD PUSH3 0xB9 SWAP1 PUSH3 0x15B JUMP JUMPDEST SWAP1 PUSH1 0x0 MSTORE PUSH1 0x20 PUSH1 0x0 KECCAK256 SWAP1 PUSH1 0x1F ADD PUSH1 0x20 SWAP1 DIV DUP2 ADD SWAP3 DUP3 PUSH3 0xDD JUMPI PUSH1 0x0 DUP6 SSTORE PUSH3 0x129 JUMP JUMPDEST DUP3 PUSH1 0x1F LT PUSH3 0xF8 JUMPI DUP1 MLOAD PUSH1 0xFF NOT AND DUP4 DUP1 ADD OR DUP6 SSTORE PUSH3 0x129 JUMP JUMPDEST DUP3 DUP1 ADD PUSH1 0x1 ADD DUP6 SSTORE DUP3 ISZERO PUSH3 0x129 JUMPI SWAP2 DUP3 ADD JUMPDEST DUP3 DUP2 GT ISZERO PUSH3 0x128 JUMPI DUP3 MLOAD DUP3 SSTORE SWAP2 PUSH1 0x20 ADD SWAP2 SWAP1 PUSH1 0x1 ADD SWAP1 PUSH3 0x10B JUMP JUMPDEST JUMPDEST POP SWAP1 POP PUSH3 0x138 SWAP2 SWAP1 PUSH3 0x13C JUMP JUMPDEST POP SWAP1 JUMP JUMPDEST JUMPDEST DUP1 DUP3 GT ISZERO PUSH3 0x157 JUMPI PUSH1 0x0 DUP2 PUSH1 0x0 SWAP1 SSTORE POP PUSH1 0x1 ADD PUSH3 0x13D JUMP JUMPDEST POP SWAP1 JUMP JUMPDEST PUSH1 0x0 PUSH1 0x2 DUP3 DIV SWAP1 POP PUSH1 0x1 DUP3 AND DUP1 PUSH3 0x174 JUMPI PUSH1 0x7F DUP3 AND SWAP2 POP JUMPDEST PUSH1 0x20 DUP3 LT DUP2 EQ ISZERO PUSH3 0x18B JUMPI PUSH3 0x18A PUSH3 0x191 JUMP JUMPDEST JUMPDEST POP SWAP2 SWAP1 POP JUMP JUMPDEST PUSH32 0x4E487B7100000000000000000000000000000000000000000000000000000000 PUSH1 0x0 MSTORE PUSH1 0x22 PUSH1 0x4 MSTORE PUSH1 0x24 PUSH1 0x0 REVERT JUMPDEST PUSH2 0x1383 DUP1 PUSH3 0x1D0 PUSH1 0x0 CODECOPY PUSH1 0x0 RETURN INVALID PUSH1 0x80 PUSH1 0x40 MSTORE CALLVALUE DUP1 ISZERO PUSH2 0x10 JUMPI PUSH1 0x0 DUP1 REVERT JUMPDEST POP PUSH1 0x4 CALLDATASIZE LT PUSH2 0xB4 JUMPI PUSH1 0x0 CALLDATALOAD PUSH1 0xE0 SHR DUP1 PUSH4 0x6D77BD3E GT PUSH2 0x71 JUMPI DUP1 PUSH4 0x6D77BD3E EQ PUSH2 0x1B7 JUMPI DUP1 PUSH4 0x788D3851 EQ PUSH2 0x1E7 JUMPI DUP1 PUSH4 0xA3BEF4D7 EQ PUSH2 0x205 JUMPI DUP1 PUSH4 0xAD5461D8 EQ PUSH2 0x223 JUMPI DUP1 PUSH4 0xB798867F EQ PUSH2 0x253 JUMPI DUP1 PUSH4 0xC1C16EFC EQ PUSH2 0x271 JUMPI PUSH2 0xB4 JUMP JUMPDEST DUP1 PUSH4 0x124258C6 EQ PUSH2 0xB9 JUMPI DUP1 PUSH4 0x1DDABF7A EQ PUSH2 0xE9 JUMPI DUP1 PUSH4 0x3B9F708D EQ PUSH2 0x11A JUMPI DUP1 PUSH4 0x47098F36 EQ PUSH2 0x14A JUMPI DUP1 PUSH4 0x481C6A75 EQ PUSH2 0x168 JUMPI DUP1 PUSH4 0x5DF81330 EQ PUSH2 0x186 JUMPI JUMPDEST PUSH1 0x0 DUP1 REVERT JUMPDEST PUSH2 0xD3 PUSH1 0x4 DUP1 CALLDATASIZE SUB DUP2 ADD SWAP1 PUSH2 0xCE SWAP2 SWAP1 PUSH2 0xD8C JUMP JUMPDEST PUSH2 0x28F JUMP JUMPDEST PUSH1 0x40 MLOAD PUSH2 0xE0 SWAP2 SWAP1 PUSH2 0xEA9 JUMP JUMPDEST PUSH1 0x40 MLOAD DUP1 SWAP2 SUB SWAP1 RETURN JUMPDEST PUSH2 0x103 PUSH1 0x4 DUP1 CALLDATASIZE SUB DUP2 ADD SWAP1 PUSH2 0xFE SWAP2 SWAP1 PUSH2 0xCBA JUMP JUMPDEST PUSH2 0x4C5 JUMP JUMPDEST PUSH1 0x40 MLOAD PUSH2 0x111 SWAP3 SWAP2 SWAP1 PUSH2 0xEE6 JUMP JUMPDEST PUSH1 0x40 MLOAD DUP1 SWAP2 SUB SWAP1 RETURN JUMPDEST PUSH2 0x134 PUSH1 0x4 DUP1 CALLDATASIZE SUB DUP2 ADD SWAP1 PUSH2 0x12F SWAP2 SWAP1 PUSH2 0xCE7 JUMP JUMPDEST PUSH2 0x57E JUMP JUMPDEST PUSH1 0x40 MLOAD PUSH2 0x141 SWAP2 SWAP1 PUSH2 0xF56 JUMP JUMPDEST PUSH1 0x40 MLOAD DUP1 SWAP2 SUB SWAP1 RETURN JUMPDEST PUSH2 0x152 PUSH2 0x6D6 JUMP JUMPDEST PUSH1 0x40 MLOAD PUSH2 0x15F SWAP2 SWAP1 PUSH2 0xF56 JUMP JUMPDEST PUSH1 0x40 MLOAD DUP1 SWAP2 SUB SWAP1 RETURN JUMPDEST PUSH2 0x170 PUSH2 0x6DC JUMP JUMPDEST PUSH1 0x40 MLOAD PUSH2 0x17D SWAP2 SWAP1 PUSH2 0xE65 JUMP JUMPDEST PUSH1 0x40 MLOAD DUP1 SWAP2 SUB SWAP1 RETURN JUMPDEST PUSH2 0x1A0 PUSH1 0x4 DUP1 CALLDATASIZE SUB DUP2 ADD SWAP1 PUSH2 0x19B SWAP2 SWAP1 PUSH2 0xD8C JUMP JUMPDEST PUSH2 0x702 JUMP JUMPDEST PUSH1 0x40 MLOAD PUSH2 0x1AE SWAP3 SWAP2 SWAP1 PUSH2 0xE80 JUMP JUMPDEST PUSH1 0x40 MLOAD DUP1 SWAP2 SUB SWAP1 RETURN JUMPDEST PUSH2 0x1D1 PUSH1 0x4 DUP1 CALLDATASIZE SUB DUP2 ADD SWAP1 PUSH2 0x1CC SWAP2 SWAP1 PUSH2 0xD43 JUMP JUMPDEST PUSH2 0x746 JUMP JUMPDEST PUSH1 0x40 MLOAD PUSH2 0x1DE SWAP2 SWAP1 PUSH2 0xF56 JUMP JUMPDEST PUSH1 0x40 MLOAD DUP1 SWAP2 SUB SWAP1 RETURN JUMPDEST PUSH2 0x1EF PUSH2 0x823 JUMP JUMPDEST PUSH1 0x40 MLOAD PUSH2 0x1FC SWAP2 SWAP1 PUSH2 0xEA9 JUMP JUMPDEST PUSH1 0x40 MLOAD DUP1 SWAP2 SUB SWAP1 RETURN JUMPDEST PUSH2 0x20D PUSH2 0x836 JUMP JUMPDEST PUSH1 0x40 MLOAD PUSH2 0x21A SWAP2 SWAP1 PUSH2 0xF56 JUMP JUMPDEST PUSH1 0x40 MLOAD DUP1 SWAP2 SUB SWAP1 RETURN JUMPDEST PUSH2 0x23D PUSH1 0x4 DUP1 CALLDATASIZE SUB DUP2 ADD SWAP1 PUSH2 0x238 SWAP2 SWAP1 PUSH2 0xD8C JUMP JUMPDEST PUSH2 0x83C JUMP JUMPDEST PUSH1 0x40 MLOAD PUSH2 0x24A SWAP2 SWAP1 PUSH2 0xEC4 JUMP JUMPDEST PUSH1 0x40 MLOAD DUP1 SWAP2 SUB SWAP1 RETURN JUMPDEST PUSH2 0x25B PUSH2 0x8DC JUMP JUMPDEST PUSH1 0x40 MLOAD PUSH2 0x268 SWAP2 SWAP1 PUSH2 0xF56 JUMP JUMPDEST PUSH1 0x40 MLOAD DUP1 SWAP2 SUB SWAP1 RETURN JUMPDEST PUSH2 0x279 PUSH2 0x8E2 JUMP JUMPDEST PUSH1 0x40 MLOAD PUSH2 0x286 SWAP2 SWAP1 PUSH2 0xEC4 JUMP JUMPDEST PUSH1 0x40 MLOAD DUP1 SWAP2 SUB SWAP1 RETURN JUMPDEST PUSH1 0x0 PUSH1 0x1 ISZERO ISZERO PUSH1 0x9 PUSH1 0x0 SWAP1 SLOAD SWAP1 PUSH2 0x100 EXP SWAP1 DIV PUSH1 0xFF AND ISZERO ISZERO EQ PUSH2 0x2E7 JUMPI PUSH1 0x40 MLOAD PUSH32 0x8C379A000000000000000000000000000000000000000000000000000000000 DUP2 MSTORE PUSH1 0x4 ADD PUSH2 0x2DE SWAP1 PUSH2 0xF36 JUMP JUMPDEST PUSH1 0x40 MLOAD DUP1 SWAP2 SUB SWAP1 REVERT JUMPDEST PUSH1 0x0 SWAP1 POP PUSH1 0x0 PUSH1 0x1 PUSH1 0x0 CALLER PUSH20 0xFFFFFFFFFFFFFFFFFFFFFFFFFFFFFFFFFFFFFFFF AND PUSH20 0xFFFFFFFFFFFFFFFFFFFFFFFFFFFFFFFFFFFFFFFF AND DUP2 MSTORE PUSH1 0x20 ADD SWAP1 DUP2 MSTORE PUSH1 0x20 ADD PUSH1 0x0 KECCAK256 PUSH1 0x0 ADD DUP1 SLOAD PUSH2 0x33A SWAP1 PUSH2 0x10F4 JUMP JUMPDEST SWAP1 POP EQ PUSH2 0x494 JUMPI PUSH1 0x0 DUP1 PUSH1 0x0 DUP5 DUP2 MSTORE PUSH1 0x20 ADD SWAP1 DUP2 MSTORE PUSH1 0x20 ADD PUSH1 0x0 KECCAK256 DUP1 SLOAD PUSH2 0x360 SWAP1 PUSH2 0x10F4 JUMP JUMPDEST SWAP1 POP EQ PUSH2 0x493 JUMPI PUSH1 0x1 SWAP1 POP PUSH1 0x1 DUP1 PUSH1 0x0 CALLER PUSH20 0xFFFFFFFFFFFFFFFFFFFFFFFFFFFFFFFFFFFFFFFF AND PUSH20 0xFFFFFFFFFFFFFFFFFFFFFFFFFFFFFFFFFFFFFFFF AND DUP2 MSTORE PUSH1 0x20 ADD SWAP1 DUP2 MSTORE PUSH1 0x20 ADD PUSH1 0x0 KECCAK256 PUSH1 0x1 ADD PUSH1 0x0 PUSH2 0x100 EXP DUP2 SLOAD DUP2 PUSH1 0xFF MUL NOT AND SWAP1 DUP4 ISZERO ISZERO MUL OR SWAP1 SSTORE POP PUSH2 0x3CD PUSH2 0xAA4 JUMP JUMPDEST CALLER DUP2 PUSH1 0x0 ADD SWAP1 PUSH20 0xFFFFFFFFFFFFFFFFFFFFFFFFFFFFFFFFFFFFFFFF AND SWAP1 DUP2 PUSH20 0xFFFFFFFFFFFFFFFFFFFFFFFFFFFFFFFFFFFFFFFF AND DUP2 MSTORE POP POP DUP3 DUP2 PUSH1 0x20 ADD DUP2 DUP2 MSTORE POP POP PUSH1 0x4 PUSH1 0x0 DUP2 SLOAD DUP1 SWAP3 SWAP2 SWAP1 PUSH2 0x422 SWAP1 PUSH2 0x1157 JUMP JUMPDEST SWAP2 SWAP1 POP SSTORE POP DUP1 PUSH1 0x7 PUSH1 0x0 PUSH1 0x4 SLOAD DUP2 MSTORE PUSH1 0x20 ADD SWAP1 DUP2 MSTORE PUSH1 0x20 ADD PUSH1 0x0 KECCAK256 PUSH1 0x0 DUP3 ADD MLOAD DUP2 PUSH1 0x0 ADD PUSH1 0x0 PUSH2 0x100 EXP DUP2 SLOAD DUP2 PUSH20 0xFFFFFFFFFFFFFFFFFFFFFFFFFFFFFFFFFFFFFFFF MUL NOT AND SWAP1 DUP4 PUSH20 0xFFFFFFFFFFFFFFFFFFFFFFFFFFFFFFFFFFFFFFFF AND MUL OR SWAP1 SSTORE POP PUSH1 0x20 DUP3 ADD MLOAD DUP2 PUSH1 0x1 ADD SSTORE SWAP1 POP POP POP JUMPDEST JUMPDEST PUSH1 0x1 PUSH1 0x2 PUSH1 0x3 SLOAD PUSH2 0x4A5 SWAP2 SWAP1 PUSH2 0x1039 JUMP JUMPDEST PUSH2 0x4AF SWAP2 SWAP1 PUSH2 0xFE3 JUMP JUMPDEST PUSH1 0x4 SLOAD LT PUSH2 0x4C0 JUMPI PUSH2 0x4BF PUSH2 0x970 JUMP JUMPDEST JUMPDEST SWAP2 SWAP1 POP JUMP JUMPDEST PUSH1 0x1 PUSH1 0x20 MSTORE DUP1 PUSH1 0x0 MSTORE PUSH1 0x40 PUSH1 0x0 KECCAK256 PUSH1 0x0 SWAP2 POP SWAP1 POP DUP1 PUSH1 0x0 ADD DUP1 SLOAD PUSH2 0x4E8 SWAP1 PUSH2 0x10F4 JUMP JUMPDEST DUP1 PUSH1 0x1F ADD PUSH1 0x20 DUP1 SWAP2 DIV MUL PUSH1 0x20 ADD PUSH1 0x40 MLOAD SWAP1 DUP2 ADD PUSH1 0x40 MSTORE DUP1 SWAP3 SWAP2 SWAP1 DUP2 DUP2 MSTORE PUSH1 0x20 ADD DUP3 DUP1 SLOAD PUSH2 0x514 SWAP1 PUSH2 0x10F4 JUMP JUMPDEST DUP1 ISZERO PUSH2 0x561 JUMPI DUP1 PUSH1 0x1F LT PUSH2 0x536 JUMPI PUSH2 0x100 DUP1 DUP4 SLOAD DIV MUL DUP4 MSTORE SWAP2 PUSH1 0x20 ADD SWAP2 PUSH2 0x561 JUMP JUMPDEST DUP3 ADD SWAP2 SWAP1 PUSH1 0x0 MSTORE PUSH1 0x20 PUSH1 0x0 KECCAK256 SWAP1 JUMPDEST DUP2 SLOAD DUP2 MSTORE SWAP1 PUSH1 0x1 ADD SWAP1 PUSH1 0x20 ADD DUP1 DUP4 GT PUSH2 0x544 JUMPI DUP3 SWAP1 SUB PUSH1 0x1F AND DUP3 ADD SWAP2 JUMPDEST POP POP POP POP POP SWAP1 DUP1 PUSH1 0x1 ADD PUSH1 0x0 SWAP1 SLOAD SWAP1 PUSH2 0x100 EXP SWAP1 DIV PUSH1 0xFF AND SWAP1 POP DUP3 JUMP JUMPDEST PUSH1 0x0 PUSH1 0x5 PUSH1 0x0 SWAP1 SLOAD SWAP1 PUSH2 0x100 EXP SWAP1 DIV PUSH20 0xFFFFFFFFFFFFFFFFFFFFFFFFFFFFFFFFFFFFFFFF AND PUSH20 0xFFFFFFFFFFFFFFFFFFFFFFFFFFFFFFFFFFFFFFFF AND CALLER PUSH20 0xFFFFFFFFFFFFFFFFFFFFFFFFFFFFFFFFFFFFFFFF AND EQ PUSH2 0x610 JUMPI PUSH1 0x40 MLOAD PUSH32 0x8C379A000000000000000000000000000000000000000000000000000000000 DUP2 MSTORE PUSH1 0x4 ADD PUSH2 0x607 SWAP1 PUSH2 0xF16 JUMP JUMPDEST PUSH1 0x40 MLOAD DUP1 SWAP2 SUB SWAP1 REVERT JUMPDEST PUSH2 0x618 PUSH2 0xAD4 JUMP JUMPDEST DUP3 DUP2 PUSH1 0x0 ADD DUP2 SWAP1 MSTORE POP PUSH1 0x0 DUP2 PUSH1 0x20 ADD SWAP1 ISZERO ISZERO SWAP1 DUP2 ISZERO ISZERO DUP2 MSTORE POP POP DUP1 PUSH1 0x1 PUSH1 0x0 DUP7 PUSH20 0xFFFFFFFFFFFFFFFFFFFFFFFFFFFFFFFFFFFFFFFF AND PUSH20 0xFFFFFFFFFFFFFFFFFFFFFFFFFFFFFFFFFFFFFFFF AND DUP2 MSTORE PUSH1 0x20 ADD SWAP1 DUP2 MSTORE PUSH1 0x20 ADD PUSH1 0x0 KECCAK256 PUSH1 0x0 DUP3 ADD MLOAD DUP2 PUSH1 0x0 ADD SWAP1 DUP1 MLOAD SWAP1 PUSH1 0x20 ADD SWAP1 PUSH2 0x68E SWAP3 SWAP2 SWAP1 PUSH2 0xAF0 JUMP JUMPDEST POP PUSH1 0x20 DUP3 ADD MLOAD DUP2 PUSH1 0x1 ADD PUSH1 0x0 PUSH2 0x100 EXP DUP2 SLOAD DUP2 PUSH1 0xFF MUL NOT AND SWAP1 DUP4 ISZERO ISZERO MUL OR SWAP1 SSTORE POP SWAP1 POP POP PUSH1 0x3 PUSH1 0x0 DUP2 SLOAD DUP1 SWAP3 SWAP2 SWAP1 PUSH2 0x6C5 SWAP1 PUSH2 0x1157 JUMP JUMPDEST SWAP2 SWAP1 POP SSTORE POP PUSH1 0x3 SLOAD SWAP2 POP POP SWAP3 SWAP2 POP POP JUMP JUMPDEST PUSH1 0x3 SLOAD DUP2 JUMP JUMPDEST PUSH1 0x5 PUSH1 0x0 SWAP1 SLOAD SWAP1 PUSH2 0x100 EXP SWAP1 DIV PUSH20 0xFFFFFFFFFFFFFFFFFFFFFFFFFFFFFFFFFFFFFFFF AND DUP2 JUMP JUMPDEST PUSH1 0x7 PUSH1 0x20 MSTORE DUP1 PUSH1 0x0 MSTORE PUSH1 0x40 PUSH1 0x0 KECCAK256 PUSH1 0x0 SWAP2 POP SWAP1 POP DUP1 PUSH1 0x0 ADD PUSH1 0x0 SWAP1 SLOAD SWAP1 PUSH2 0x100 EXP SWAP1 DIV PUSH20 0xFFFFFFFFFFFFFFFFFFFFFFFFFFFFFFFFFFFFFFFF AND SWAP1 DUP1 PUSH1 0x1 ADD SLOAD SWAP1 POP DUP3 JUMP JUMPDEST PUSH1 0x0 PUSH1 0x5 PUSH1 0x0 SWAP1 SLOAD SWAP1 PUSH2 0x100 EXP SWAP1 DIV PUSH20 0xFFFFFFFFFFFFFFFFFFFFFFFFFFFFFFFFFFFFFFFF AND PUSH20 0xFFFFFFFFFFFFFFFFFFFFFFFFFFFFFFFFFFFFFFFF AND CALLER PUSH20 0xFFFFFFFFFFFFFFFFFFFFFFFFFFFFFFFFFFFFFFFF AND EQ PUSH2 0x7D8 JUMPI PUSH1 0x40 MLOAD PUSH32 0x8C379A000000000000000000000000000000000000000000000000000000000 DUP2 MSTORE PUSH1 0x4 ADD PUSH2 0x7CF SWAP1 PUSH2 0xF16 JUMP JUMPDEST PUSH1 0x40 MLOAD DUP1 SWAP2 SUB SWAP1 REVERT JUMPDEST PUSH1 0x2 PUSH1 0x0 DUP2 SLOAD DUP1 SWAP3 SWAP2 SWAP1 PUSH2 0x7EB SWAP1 PUSH2 0x1157 JUMP JUMPDEST SWAP2 SWAP1 POP SSTORE POP DUP2 PUSH1 0x0 DUP1 PUSH1 0x2 SLOAD DUP2 MSTORE PUSH1 0x20 ADD SWAP1 DUP2 MSTORE PUSH1 0x20 ADD PUSH1 0x0 KECCAK256 SWAP1 DUP1 MLOAD SWAP1 PUSH1 0x20 ADD SWAP1 PUSH2 0x818 SWAP3 SWAP2 SWAP1 PUSH2 0xAF0 JUMP JUMPDEST POP PUSH1 0x2 SLOAD SWAP1 POP SWAP2 SWAP1 POP JUMP JUMPDEST PUSH1 0x9 PUSH1 0x0 SWAP1 SLOAD SWAP1 PUSH2 0x100 EXP SWAP1 DIV PUSH1 0xFF AND DUP2 JUMP JUMPDEST PUSH1 0x4 SLOAD DUP2 JUMP JUMPDEST PUSH1 0x0 PUSH1 0x20 MSTORE DUP1 PUSH1 0x0 MSTORE PUSH1 0x40 PUSH1 0x0 KECCAK256 PUSH1 0x0 SWAP2 POP SWAP1 POP DUP1 SLOAD PUSH2 0x85B SWAP1 PUSH2 0x10F4 JUMP JUMPDEST DUP1 PUSH1 0x1F ADD PUSH1 0x20 DUP1 SWAP2 DIV MUL PUSH1 0x20 ADD PUSH1 0x40 MLOAD SWAP1 DUP2 ADD PUSH1 0x40 MSTORE DUP1 SWAP3 SWAP2 SWAP1 DUP2 DUP2 MSTORE PUSH1 0x20 ADD DUP3 DUP1 SLOAD PUSH2 0x887 SWAP1 PUSH2 0x10F4 JUMP JUMPDEST DUP1 ISZERO PUSH2 0x8D4 JUMPI DUP1 PUSH1 0x1F LT PUSH2 0x8A9 JUMPI PUSH2 0x100 DUP1 DUP4 SLOAD DIV MUL DUP4 MSTORE SWAP2 PUSH1 0x20 ADD SWAP2 PUSH2 0x8D4 JUMP JUMPDEST DUP3 ADD SWAP2 SWAP1 PUSH1 0x0 MSTORE PUSH1 0x20 PUSH1 0x0 KECCAK256 SWAP1 JUMPDEST DUP2 SLOAD DUP2 MSTORE SWAP1 PUSH1 0x1 ADD SWAP1 PUSH1 0x20 ADD DUP1 DUP4 GT PUSH2 0x8B7 JUMPI DUP3 SWAP1 SUB PUSH1 0x1F AND DUP3 ADD SWAP2 JUMPDEST POP POP POP POP POP DUP2 JUMP JUMPDEST PUSH1 0x2 SLOAD DUP2 JUMP JUMPDEST PUSH1 0x6 DUP1 SLOAD PUSH2 0x8EF SWAP1 PUSH2 0x10F4 JUMP JUMPDEST DUP1 PUSH1 0x1F ADD PUSH1 0x20 DUP1 SWAP2 DIV MUL PUSH1 0x20 ADD PUSH1 0x40 MLOAD SWAP1 DUP2 ADD PUSH1 0x40 MSTORE DUP1 SWAP3 SWAP2 SWAP1 DUP2 DUP2 MSTORE PUSH1 0x20 ADD DUP3 DUP1 SLOAD PUSH2 0x91B SWAP1 PUSH2 0x10F4 JUMP JUMPDEST DUP1 ISZERO PUSH2 0x968 JUMPI DUP1 PUSH1 0x1F LT PUSH2 0x93D JUMPI PUSH2 0x100 DUP1 DUP4 SLOAD DIV MUL DUP4 MSTORE SWAP2 PUSH1 0x20 ADD SWAP2 PUSH2 0x968 JUMP JUMPDEST DUP3 ADD SWAP2 SWAP1 PUSH1 0x0 MSTORE PUSH1 0x20 PUSH1 0x0 KECCAK256 SWAP1 JUMPDEST DUP2 SLOAD DUP2 MSTORE SWAP1 PUSH1 0x1 ADD SWAP1 PUSH1 0x20 ADD DUP1 DUP4 GT PUSH2 0x94B JUMPI DUP3 SWAP1 SUB PUSH1 0x1F AND DUP3 ADD SWAP2 JUMPDEST POP POP POP POP POP DUP2 JUMP JUMPDEST PUSH1 0x0 DUP1 PUSH1 0x0 PUSH1 0x1 SWAP1 POP JUMPDEST PUSH1 0x4 SLOAD DUP2 GT PUSH2 0xA58 JUMPI PUSH1 0x0 PUSH1 0x1 SWAP1 POP PUSH1 0x0 PUSH1 0x8 PUSH1 0x0 PUSH1 0x7 PUSH1 0x0 DUP7 DUP2 MSTORE PUSH1 0x20 ADD SWAP1 DUP2 MSTORE PUSH1 0x20 ADD PUSH1 0x0 KECCAK256 PUSH1 0x1 ADD SLOAD DUP2 MSTORE PUSH1 0x20 ADD SWAP1 DUP2 MSTORE PUSH1 0x20 ADD PUSH1 0x0 KECCAK256 SLOAD GT ISZERO PUSH2 0x9F3 JUMPI PUSH1 0x8 PUSH1 0x0 PUSH1 0x7 PUSH1 0x0 DUP6 DUP2 MSTORE PUSH1 0x20 ADD SWAP1 DUP2 MSTORE PUSH1 0x20 ADD PUSH1 0x0 KECCAK256 PUSH1 0x1 ADD SLOAD DUP2 MSTORE PUSH1 0x20 ADD SWAP1 DUP2 MSTORE PUSH1 0x20 ADD PUSH1 0x0 KECCAK256 SLOAD DUP2 PUSH2 0x9F0 SWAP2 SWAP1 PUSH2 0xFE3 JUMP JUMPDEST SWAP1 POP JUMPDEST DUP1 PUSH1 0x8 PUSH1 0x0 PUSH1 0x7 PUSH1 0x0 DUP7 DUP2 MSTORE PUSH1 0x20 ADD SWAP1 DUP2 MSTORE PUSH1 0x20 ADD PUSH1 0x0 KECCAK256 PUSH1 0x1 ADD SLOAD DUP2 MSTORE PUSH1 0x20 ADD SWAP1 DUP2 MSTORE PUSH1 0x20 ADD PUSH1 0x0 KECCAK256 DUP2 SWAP1 SSTORE POP DUP4 DUP2 GT ISZERO PUSH2 0xA46 JUMPI DUP1 SWAP4 POP PUSH1 0x7 PUSH1 0x0 DUP4 DUP2 MSTORE PUSH1 0x20 ADD SWAP1 DUP2 MSTORE PUSH1 0x20 ADD PUSH1 0x0 KECCAK256 PUSH1 0x1 ADD SLOAD SWAP3 POP JUMPDEST POP DUP1 PUSH2 0xA51 SWAP1 PUSH2 0x1157 JUMP JUMPDEST SWAP1 POP PUSH2 0x97A JUMP JUMPDEST POP PUSH1 0x0 DUP1 DUP3 DUP2 MSTORE PUSH1 0x20 ADD SWAP1 DUP2 MSTORE PUSH1 0x20 ADD PUSH1 0x0 KECCAK256 PUSH1 0x6 SWAP1 DUP1 SLOAD PUSH2 0xA79 SWAP1 PUSH2 0x10F4 JUMP JUMPDEST PUSH2 0xA84 SWAP3 SWAP2 SWAP1 PUSH2 0xB76 JUMP JUMPDEST POP PUSH1 0x0 PUSH1 0x9 PUSH1 0x0 PUSH2 0x100 EXP DUP2 SLOAD DUP2 PUSH1 0xFF MUL NOT AND SWAP1 DUP4 ISZERO ISZERO MUL OR SWAP1 SSTORE POP POP POP JUMP JUMPDEST PUSH1 0x40 MLOAD DUP1 PUSH1 0x40 ADD PUSH1 0x40 MSTORE DUP1 PUSH1 0x0 PUSH20 0xFFFFFFFFFFFFFFFFFFFFFFFFFFFFFFFFFFFFFFFF AND DUP2 MSTORE PUSH1 0x20 ADD PUSH1 0x0 DUP2 MSTORE POP SWAP1 JUMP JUMPDEST PUSH1 0x40 MLOAD DUP1 PUSH1 0x40 ADD PUSH1 0x40 MSTORE DUP1 PUSH1 0x60 DUP2 MSTORE PUSH1 0x20 ADD PUSH1 0x0 ISZERO ISZERO DUP2 MSTORE POP SWAP1 JUMP JUMPDEST DUP3 DUP1 SLOAD PUSH2 0xAFC SWAP1 PUSH2 0x10F4 JUMP JUMPDEST SWAP1 PUSH1 0x0 MSTORE PUSH1 0x20 PUSH1 0x0 KECCAK256 SWAP1 PUSH1 0x1F ADD PUSH1 0x20 SWAP1 DIV DUP2 ADD SWAP3 DUP3 PUSH2 0xB1E JUMPI PUSH1 0x0 DUP6 SSTORE PUSH2 0xB65 JUMP JUMPDEST DUP3 PUSH1 0x1F LT PUSH2 0xB37 JUMPI DUP1 MLOAD PUSH1 0xFF NOT AND DUP4 DUP1 ADD OR DUP6 SSTORE PUSH2 0xB65 JUMP JUMPDEST DUP3 DUP1 ADD PUSH1 0x1 ADD DUP6 SSTORE DUP3 ISZERO PUSH2 0xB65 JUMPI SWAP2 DUP3 ADD JUMPDEST DUP3 DUP2 GT ISZERO PUSH2 0xB64 JUMPI DUP3 MLOAD DUP3 SSTORE SWAP2 PUSH1 0x20 ADD SWAP2 SWAP1 PUSH1 0x1 ADD SWAP1 PUSH2 0xB49 JUMP JUMPDEST JUMPDEST POP SWAP1 POP PUSH2 0xB72 SWAP2 SWAP1 PUSH2 0xC03 JUMP JUMPDEST POP SWAP1 JUMP JUMPDEST DUP3 DUP1 SLOAD PUSH2 0xB82 SWAP1 PUSH2 0x10F4 JUMP JUMPDEST SWAP1 PUSH1 0x0 MSTORE PUSH1 0x20 PUSH1 0x0 KECCAK256 SWAP1 PUSH1 0x1F ADD PUSH1 0x20 SWAP1 DIV DUP2 ADD SWAP3 DUP3 PUSH2 0xBA4 JUMPI PUSH1 0x0 DUP6 SSTORE PUSH2 0xBF2 JUMP JUMPDEST DUP3 PUSH1 0x1F LT PUSH2 0xBB5 JUMPI DUP1 SLOAD DUP6 SSTORE PUSH2 0xBF2 JUMP JUMPDEST DUP3 DUP1 ADD PUSH1 0x1 ADD DUP6 SSTORE DUP3 ISZERO PUSH2 0xBF2 JUMPI PUSH1 0x0 MSTORE PUSH1 0x20 PUSH1 0x0 KECCAK256 SWAP2 PUSH1 0x1F ADD PUSH1 0x20 SWAP1 DIV DUP3 ADD JUMPDEST DUP3 DUP2 GT ISZERO PUSH2 0xBF1 JUMPI DUP3 SLOAD DUP3 SSTORE SWAP2 PUSH1 0x1 ADD SWAP2 SWAP1 PUSH1 0x1 ADD SWAP1 PUSH2 0xBD6 JUMP JUMPDEST JUMPDEST POP SWAP1 POP PUSH2 0xBFF SWAP2 SWAP1 PUSH2 0xC03 JUMP JUMPDEST POP SWAP1 JUMP JUMPDEST JUMPDEST DUP1 DUP3 GT ISZERO PUSH2 0xC1C JUMPI PUSH1 0x0 DUP2 PUSH1 0x0 SWAP1 SSTORE POP PUSH1 0x1 ADD PUSH2 0xC04 JUMP JUMPDEST POP SWAP1 JUMP JUMPDEST PUSH1 0x0 PUSH2 0xC33 PUSH2 0xC2E DUP5 PUSH2 0xF96 JUMP JUMPDEST PUSH2 0xF71 JUMP JUMPDEST SWAP1 POP DUP3 DUP2 MSTORE PUSH1 0x20 DUP2 ADD DUP5 DUP5 DUP5 ADD GT ISZERO PUSH2 0xC4F JUMPI PUSH2 0xC4E PUSH2 0x1261 JUMP JUMPDEST JUMPDEST PUSH2 0xC5A DUP5 DUP3 DUP6 PUSH2 0x10B2 JUMP JUMPDEST POP SWAP4 SWAP3 POP POP POP JUMP JUMPDEST PUSH1 0x0 DUP2 CALLDATALOAD SWAP1 POP PUSH2 0xC71 DUP2 PUSH2 0x131F JUMP JUMPDEST SWAP3 SWAP2 POP POP JUMP JUMPDEST PUSH1 0x0 DUP3 PUSH1 0x1F DUP4 ADD SLT PUSH2 0xC8C JUMPI PUSH2 0xC8B PUSH2 0x125C JUMP JUMPDEST JUMPDEST DUP2 CALLDATALOAD PUSH2 0xC9C DUP5 DUP3 PUSH1 0x20 DUP7 ADD PUSH2 0xC20 JUMP JUMPDEST SWAP2 POP POP SWAP3 SWAP2 POP POP JUMP JUMPDEST PUSH1 0x0 DUP2 CALLDATALOAD SWAP1 POP PUSH2 0xCB4 DUP2 PUSH2 0x1336 JUMP JUMPDEST SWAP3 SWAP2 POP POP JUMP JUMPDEST PUSH1 0x0 PUSH1 0x20 DUP3 DUP5 SUB SLT ISZERO PUSH2 0xCD0 JUMPI PUSH2 0xCCF PUSH2 0x126B JUMP JUMPDEST JUMPDEST PUSH1 0x0 PUSH2 0xCDE DUP5 DUP3 DUP6 ADD PUSH2 0xC62 JUMP JUMPDEST SWAP2 POP POP SWAP3 SWAP2 POP POP JUMP JUMPDEST PUSH1 0x0 DUP1 PUSH1 0x40 DUP4 DUP6 SUB SLT ISZERO PUSH2 0xCFE JUMPI PUSH2 0xCFD PUSH2 0x126B JUMP JUMPDEST JUMPDEST PUSH1 0x0 PUSH2 0xD0C DUP6 DUP3 DUP7 ADD PUSH2 0xC62 JUMP JUMPDEST SWAP3 POP POP PUSH1 0x20 DUP4 ADD CALLDATALOAD PUSH8 0xFFFFFFFFFFFFFFFF DUP2 GT ISZERO PUSH2 0xD2D JUMPI PUSH2 0xD2C PUSH2 0x1266 JUMP JUMPDEST JUMPDEST PUSH2 0xD39 DUP6 DUP3 DUP7 ADD PUSH2 0xC77 JUMP JUMPDEST SWAP2 POP POP SWAP3 POP SWAP3 SWAP1 POP JUMP JUMPDEST PUSH1 0x0 PUSH1 0x20 DUP3 DUP5 SUB SLT ISZERO PUSH2 0xD59 JUMPI PUSH2 0xD58 PUSH2 0x126B JUMP JUMPDEST JUMPDEST PUSH1 0x0 DUP3 ADD CALLDATALOAD PUSH8 0xFFFFFFFFFFFFFFFF DUP2 GT ISZERO PUSH2 0xD77 JUMPI PUSH2 0xD76 PUSH2 0x1266 JUMP JUMPDEST JUMPDEST PUSH2 0xD83 DUP5 DUP3 DUP6 ADD PUSH2 0xC77 JUMP JUMPDEST SWAP2 POP POP SWAP3 SWAP2 POP POP JUMP JUMPDEST PUSH1 0x0 PUSH1 0x20 DUP3 DUP5 SUB SLT ISZERO PUSH2 0xDA2 JUMPI PUSH2 0xDA1 PUSH2 0x126B JUMP JUMPDEST JUMPDEST PUSH1 0x0 PUSH2 0xDB0 DUP5 DUP3 DUP6 ADD PUSH2 0xCA5 JUMP JUMPDEST SWAP2 POP POP SWAP3 SWAP2 POP POP JUMP JUMPDEST PUSH2 0xDC2 DUP2 PUSH2 0x106A JUMP JUMPDEST DUP3 MSTORE POP POP JUMP JUMPDEST PUSH2 0xDD1 DUP2 PUSH2 0x107C JUMP JUMPDEST DUP3 MSTORE POP POP JUMP JUMPDEST PUSH1 0x0 PUSH2 0xDE2 DUP3 PUSH2 0xFC7 JUMP JUMPDEST PUSH2 0xDEC DUP2 DUP6 PUSH2 0xFD2 JUMP JUMPDEST SWAP4 POP PUSH2 0xDFC DUP2 DUP6 PUSH1 0x20 DUP7 ADD PUSH2 0x10C1 JUMP JUMPDEST PUSH2 0xE05 DUP2 PUSH2 0x1270 JUMP JUMPDEST DUP5 ADD SWAP2 POP POP SWAP3 SWAP2 POP POP JUMP JUMPDEST PUSH1 0x0 PUSH2 0xE1D PUSH1 0x23 DUP4 PUSH2 0xFD2 JUMP JUMPDEST SWAP2 POP PUSH2 0xE28 DUP3 PUSH2 0x1281 JUMP JUMPDEST PUSH1 0x40 DUP3 ADD SWAP1 POP SWAP2 SWAP1 POP JUMP JUMPDEST PUSH1 0x0 PUSH2 0xE40 PUSH1 0x23 DUP4 PUSH2 0xFD2 JUMP JUMPDEST SWAP2 POP PUSH2 0xE4B DUP3 PUSH2 0x12D0 JUMP JUMPDEST PUSH1 0x40 DUP3 ADD SWAP1 POP SWAP2 SWAP1 POP JUMP JUMPDEST PUSH2 0xE5F DUP2 PUSH2 0x10A8 JUMP JUMPDEST DUP3 MSTORE POP POP JUMP JUMPDEST PUSH1 0x0 PUSH1 0x20 DUP3 ADD SWAP1 POP PUSH2 0xE7A PUSH1 0x0 DUP4 ADD DUP5 PUSH2 0xDB9 JUMP JUMPDEST SWAP3 SWAP2 POP POP JUMP JUMPDEST PUSH1 0x0 PUSH1 0x40 DUP3 ADD SWAP1 POP PUSH2 0xE95 PUSH1 0x0 DUP4 ADD DUP6 PUSH2 0xDB9 JUMP JUMPDEST PUSH2 0xEA2 PUSH1 0x20 DUP4 ADD DUP5 PUSH2 0xE56 JUMP JUMPDEST SWAP4 SWAP3 POP POP POP JUMP JUMPDEST PUSH1 0x0 PUSH1 0x20 DUP3 ADD SWAP1 POP PUSH2 0xEBE PUSH1 0x0 DUP4 ADD DUP5 PUSH2 0xDC8 JUMP JUMPDEST SWAP3 SWAP2 POP POP JUMP JUMPDEST PUSH1 0x0 PUSH1 0x20 DUP3 ADD SWAP1 POP DUP2 DUP2 SUB PUSH1 0x0 DUP4 ADD MSTORE PUSH2 0xEDE DUP2 DUP5 PUSH2 0xDD7 JUMP JUMPDEST SWAP1 POP SWAP3 SWAP2 POP POP JUMP JUMPDEST PUSH1 0x0 PUSH1 0x40 DUP3 ADD SWAP1 POP DUP2 DUP2 SUB PUSH1 0x0 DUP4 ADD MSTORE PUSH2 0xF00 DUP2 DUP6 PUSH2 0xDD7 JUMP JUMPDEST SWAP1 POP PUSH2 0xF0F PUSH1 0x20 DUP4 ADD DUP5 PUSH2 0xDC8 JUMP JUMPDEST SWAP4 SWAP3 POP POP POP JUMP JUMPDEST PUSH1 0x0 PUSH1 0x20 DUP3 ADD SWAP1 POP DUP2 DUP2 SUB PUSH1 0x0 DUP4 ADD MSTORE PUSH2 0xF2F DUP2 PUSH2 0xE10 JUMP JUMPDEST SWAP1 POP SWAP2 SWAP1 POP JUMP JUMPDEST PUSH1 0x0 PUSH1 0x20 DUP3 ADD SWAP1 POP DUP2 DUP2 SUB PUSH1 0x0 DUP4 ADD MSTORE PUSH2 0xF4F DUP2 PUSH2 0xE33 JUMP JUMPDEST SWAP1 POP SWAP2 SWAP1 POP JUMP JUMPDEST PUSH1 0x0 PUSH1 0x20 DUP3 ADD SWAP1 POP PUSH2 0xF6B PUSH1 0x0 DUP4 ADD DUP5 PUSH2 0xE56 JUMP JUMPDEST SWAP3 SWAP2 POP POP JUMP JUMPDEST PUSH1 0x0 PUSH2 0xF7B PUSH2 0xF8C JUMP JUMPDEST SWAP1 POP PUSH2 0xF87 DUP3 DUP3 PUSH2 0x1126 JUMP JUMPDEST SWAP2 SWAP1 POP JUMP JUMPDEST PUSH1 0x0 PUSH1 0x40 MLOAD SWAP1 POP SWAP1 JUMP JUMPDEST PUSH1 0x0 PUSH8 0xFFFFFFFFFFFFFFFF DUP3 GT ISZERO PUSH2 0xFB1 JUMPI PUSH2 0xFB0 PUSH2 0x122D JUMP JUMPDEST JUMPDEST PUSH2 0xFBA DUP3 PUSH2 0x1270 JUMP JUMPDEST SWAP1 POP PUSH1 0x20 DUP2 ADD SWAP1 POP SWAP2 SWAP1 POP JUMP JUMPDEST PUSH1 0x0 DUP2 MLOAD SWAP1 POP SWAP2 SWAP1 POP JUMP JUMPDEST PUSH1 0x0 DUP3 DUP3 MSTORE PUSH1 0x20 DUP3 ADD SWAP1 POP SWAP3 SWAP2 POP POP JUMP JUMPDEST PUSH1 0x0 PUSH2 0xFEE DUP3 PUSH2 0x10A8 JUMP JUMPDEST SWAP2 POP PUSH2 0xFF9 DUP4 PUSH2 0x10A8 JUMP JUMPDEST SWAP3 POP DUP3 PUSH32 0xFFFFFFFFFFFFFFFFFFFFFFFFFFFFFFFFFFFFFFFFFFFFFFFFFFFFFFFFFFFFFFFF SUB DUP3 GT ISZERO PUSH2 0x102E JUMPI PUSH2 0x102D PUSH2 0x11A0 JUMP JUMPDEST JUMPDEST DUP3 DUP3 ADD SWAP1 POP SWAP3 SWAP2 POP POP JUMP JUMPDEST PUSH1 0x0 PUSH2 0x1044 DUP3 PUSH2 0x10A8 JUMP JUMPDEST SWAP2 POP PUSH2 0x104F DUP4 PUSH2 0x10A8 JUMP JUMPDEST SWAP3 POP DUP3 PUSH2 0x105F JUMPI PUSH2 0x105E PUSH2 0x11CF JUMP JUMPDEST JUMPDEST DUP3 DUP3 DIV SWAP1 POP SWAP3 SWAP2 POP POP JUMP JUMPDEST PUSH1 0x0 PUSH2 0x1075 DUP3 PUSH2 0x1088 JUMP JUMPDEST SWAP1 POP SWAP2 SWAP1 POP JUMP JUMPDEST PUSH1 0x0 DUP2 ISZERO ISZERO SWAP1 POP SWAP2 SWAP1 POP JUMP JUMPDEST PUSH1 0x0 PUSH20 0xFFFFFFFFFFFFFFFFFFFFFFFFFFFFFFFFFFFFFFFF DUP3 AND SWAP1 POP SWAP2 SWAP1 POP JUMP JUMPDEST PUSH1 0x0 DUP2 SWAP1 POP SWAP2 SWAP1 POP JUMP JUMPDEST DUP3 DUP2 DUP4 CALLDATACOPY PUSH1 0x0 DUP4 DUP4 ADD MSTORE POP POP POP JUMP JUMPDEST PUSH1 0x0 JUMPDEST DUP4 DUP2 LT ISZERO PUSH2 0x10DF JUMPI DUP1 DUP3 ADD MLOAD DUP2 DUP5 ADD MSTORE PUSH1 0x20 DUP2 ADD SWAP1 POP PUSH2 0x10C4 JUMP JUMPDEST DUP4 DUP2 GT ISZERO PUSH2 0x10EE JUMPI PUSH1 0x0 DUP5 DUP5 ADD MSTORE JUMPDEST POP POP POP POP JUMP JUMPDEST PUSH1 0x0 PUSH1 0x2 DUP3 DIV SWAP1 POP PUSH1 0x1 DUP3 AND DUP1 PUSH2 0x110C JUMPI PUSH1 0x7F DUP3 AND SWAP2 POP JUMPDEST PUSH1 0x20 DUP3 LT DUP2 EQ ISZERO PUSH2 0x1120 JUMPI PUSH2 0x111F PUSH2 0x11FE JUMP JUMPDEST JUMPDEST POP SWAP2 SWAP1 POP JUMP JUMPDEST PUSH2 0x112F DUP3 PUSH2 0x1270 JUMP JUMPDEST DUP2 ADD DUP2 DUP2 LT PUSH8 0xFFFFFFFFFFFFFFFF DUP3 GT OR ISZERO PUSH2 0x114E JUMPI PUSH2 0x114D PUSH2 0x122D JUMP JUMPDEST JUMPDEST DUP1 PUSH1 0x40 MSTORE POP POP POP JUMP JUMPDEST PUSH1 0x0 PUSH2 0x1162 DUP3 PUSH2 0x10A8 JUMP JUMPDEST SWAP2 POP PUSH32 0xFFFFFFFFFFFFFFFFFFFFFFFFFFFFFFFFFFFFFFFFFFFFFFFFFFFFFFFFFFFFFFFF DUP3 EQ ISZERO PUSH2 0x1195 JUMPI PUSH2 0x1194 PUSH2 0x11A0 JUMP JUMPDEST JUMPDEST PUSH1 0x1 DUP3 ADD SWAP1 POP SWAP2 SWAP1 POP JUMP JUMPDEST PUSH32 0x4E487B7100000000000000000000000000000000000000000000000000000000 PUSH1 0x0 MSTORE PUSH1 0x11 PUSH1 0x4 MSTORE PUSH1 0x24 PUSH1 0x0 REVERT JUMPDEST PUSH32 0x4E487B7100000000000000000000000000000000000000000000000000000000 PUSH1 0x0 MSTORE PUSH1 0x12 PUSH1 0x4 MSTORE PUSH1 0x24 PUSH1 0x0 REVERT JUMPDEST PUSH32 0x4E487B7100000000000000000000000000000000000000000000000000000000 PUSH1 0x0 MSTORE PUSH1 0x22 PUSH1 0x4 MSTORE PUSH1 0x24 PUSH1 0x0 REVERT JUMPDEST PUSH32 0x4E487B7100000000000000000000000000000000000000000000000000000000 PUSH1 0x0 MSTORE PUSH1 0x41 PUSH1 0x4 MSTORE PUSH1 0x24 PUSH1 0x0 REVERT JUMPDEST PUSH1 0x0 DUP1 REVERT JUMPDEST PUSH1 0x0 DUP1 REVERT JUMPDEST PUSH1 0x0 DUP1 REVERT JUMPDEST PUSH1 0x0 DUP1 REVERT JUMPDEST PUSH1 0x0 PUSH1 0x1F NOT PUSH1 0x1F DUP4 ADD AND SWAP1 POP SWAP2 SWAP1 POP JUMP JUMPDEST PUSH32 0x43616E206F6E6C7920626520657865637574656420627920746865206D616E61 PUSH1 0x0 DUP3 ADD MSTORE PUSH32 0x6765720000000000000000000000000000000000000000000000000000000000 PUSH1 0x20 DUP3 ADD MSTORE POP JUMP JUMPDEST PUSH32 0x43616E20766F7465206F6E6C79207768696C6520766F74696E67206973206F70 PUSH1 0x0 DUP3 ADD MSTORE PUSH32 0x656E2E0000000000000000000000000000000000000000000000000000000000 PUSH1 0x20 DUP3 ADD MSTORE POP JUMP JUMPDEST PUSH2 0x1328 DUP2 PUSH2 0x106A JUMP JUMPDEST DUP2 EQ PUSH2 0x1333 JUMPI PUSH1 0x0 DUP1 REVERT JUMPDEST POP JUMP JUMPDEST PUSH2 0x133F DUP2 PUSH2 0x10A8 JUMP JUMPDEST DUP2 EQ PUSH2 0x134A JUMPI PUSH1 0x0 DUP1 REVERT JUMPDEST POP JUMP INVALID LOG2 PUSH5 0x6970667358 0x22 SLT KECCAK256 0x2F PUSH2 0x74C1 0xC5 0x25 PUSH25 0x836DFCF0A6C7FDC37ED243C5635707669E808D66B0D6747F71 PUSH5 0x736F6C6343 STOP ADDMOD SDIV STOP CALLER "
				},
				"gasEstimates": {
					"creation": {
						"codeDepositCost": "999000",
						"executionCost": "infinite",
						"totalCost": "infinite"
					},
					"external": {
						"addFriend(address,string)": "infinite",
						"addRestaurant(string)": "infinite",
						"doVote(uint256)": "infinite",
						"friends(address)": "infinite",
						"manager()": "2603",
						"numFriends()": "2496",
						"numRestaurants()": "2517",
						"numVotes()": "2473",
						"restaurants(uint256)": "infinite",
						"voteOpen()": "2493",
						"votedRestaurant()": "infinite",
						"votes(uint256)": "infinite"
					},
					"internal": {
						"finalResult()": "infinite"
					}
				},
				"methodIdentifiers": {
					"addFriend(address,string)": "3b9f708d",
					"addRestaurant(string)": "6d77bd3e",
					"doVote(uint256)": "124258c6",
					"friends(address)": "1ddabf7a",
					"manager()": "481c6a75",
					"numFriends()": "47098f36",
					"numRestaurants()": "b798867f",
					"numVotes()": "a3bef4d7",
					"restaurants(uint256)": "ad5461d8",
					"voteOpen()": "788d3851",
					"votedRestaurant()": "c1c16efc",
					"votes(uint256)": "5df81330"
				}
			},
			"storageLayout": {
				"storage": [
					{
						"astId": 16,
						"contract": "contracts/LunchVenue.sol:LunchVenue",
						"label": "restaurants",
						"offset": 0,
						"slot": "0",
						"type": "t_mapping(t_uint256,t_string_storage)"
					},
					{
						"astId": 21,
						"contract": "contracts/LunchVenue.sol:LunchVenue",
						"label": "friends",
						"offset": 0,
						"slot": "1",
						"type": "t_mapping(t_address,t_struct(Friend)7_storage)"
					},
					{
						"astId": 24,
						"contract": "contracts/LunchVenue.sol:LunchVenue",
						"label": "numRestaurants",
						"offset": 0,
						"slot": "2",
						"type": "t_uint256"
					},
					{
						"astId": 27,
						"contract": "contracts/LunchVenue.sol:LunchVenue",
						"label": "numFriends",
						"offset": 0,
						"slot": "3",
						"type": "t_uint256"
					},
					{
						"astId": 30,
						"contract": "contracts/LunchVenue.sol:LunchVenue",
						"label": "numVotes",
						"offset": 0,
						"slot": "4",
						"type": "t_uint256"
					},
					{
						"astId": 32,
						"contract": "contracts/LunchVenue.sol:LunchVenue",
						"label": "manager",
						"offset": 0,
						"slot": "5",
						"type": "t_address"
					},
					{
						"astId": 35,
						"contract": "contracts/LunchVenue.sol:LunchVenue",
						"label": "votedRestaurant",
						"offset": 0,
						"slot": "6",
						"type": "t_string_storage"
					},
					{
						"astId": 40,
						"contract": "contracts/LunchVenue.sol:LunchVenue",
						"label": "votes",
						"offset": 0,
						"slot": "7",
						"type": "t_mapping(t_uint256,t_struct(Vote)12_storage)"
					},
					{
						"astId": 44,
						"contract": "contracts/LunchVenue.sol:LunchVenue",
						"label": "_results",
						"offset": 0,
						"slot": "8",
						"type": "t_mapping(t_uint256,t_uint256)"
					},
					{
						"astId": 47,
						"contract": "contracts/LunchVenue.sol:LunchVenue",
						"label": "voteOpen",
						"offset": 0,
						"slot": "9",
						"type": "t_bool"
					}
				],
				"types": {
					"t_address": {
						"encoding": "inplace",
						"label": "address",
						"numberOfBytes": "20"
					},
					"t_bool": {
						"encoding": "inplace",
						"label": "bool",
						"numberOfBytes": "1"
					},
					"t_mapping(t_address,t_struct(Friend)7_storage)": {
						"encoding": "mapping",
						"key": "t_address",
						"label": "mapping(address => struct LunchVenue.Friend)",
						"numberOfBytes": "32",
						"value": "t_struct(Friend)7_storage"
					},
					"t_mapping(t_uint256,t_string_storage)": {
						"encoding": "mapping",
						"key": "t_uint256",
						"label": "mapping(uint256 => string)",
						"numberOfBytes": "32",
						"value": "t_string_storage"
					},
					"t_mapping(t_uint256,t_struct(Vote)12_storage)": {
						"encoding": "mapping",
						"key": "t_uint256",
						"label": "mapping(uint256 => struct LunchVenue.Vote)",
						"numberOfBytes": "32",
						"value": "t_struct(Vote)12_storage"
					},
					"t_mapping(t_uint256,t_uint256)": {
						"encoding": "mapping",
						"key": "t_uint256",
						"label": "mapping(uint256 => uint256)",
						"numberOfBytes": "32",
						"value": "t_uint256"
					},
					"t_string_storage": {
						"encoding": "bytes",
						"label": "string",
						"numberOfBytes": "32"
					},
					"t_struct(Friend)7_storage": {
						"encoding": "inplace",
						"label": "struct LunchVenue.Friend",
						"members": [
							{
								"astId": 4,
								"contract": "contracts/LunchVenue.sol:LunchVenue",
								"label": "name",
								"offset": 0,
								"slot": "0",
								"type": "t_string_storage"
							},
							{
								"astId": 6,
								"contract": "contracts/LunchVenue.sol:LunchVenue",
								"label": "voted",
								"offset": 0,
								"slot": "1",
								"type": "t_bool"
							}
						],
						"numberOfBytes": "64"
					},
					"t_struct(Vote)12_storage": {
						"encoding": "inplace",
						"label": "struct LunchVenue.Vote",
						"members": [
							{
								"astId": 9,
								"contract": "contracts/LunchVenue.sol:LunchVenue",
								"label": "voterAddress",
								"offset": 0,
								"slot": "0",
								"type": "t_address"
							},
							{
								"astId": 11,
								"contract": "contracts/LunchVenue.sol:LunchVenue",
								"label": "restaurant",
								"offset": 0,
								"slot": "1",
								"type": "t_uint256"
							}
						],
						"numberOfBytes": "64"
					},
					"t_uint256": {
						"encoding": "inplace",
						"label": "uint256",
						"numberOfBytes": "32"
					}
				}
			},
			"userdoc": {
				"kind": "user",
				"methods": {
					"addFriend(address,string)": {
						"notice": "Add a new friend to voter list"
					},
					"addRestaurant(string)": {
						"notice": "Add a new restaurant"
					},
					"doVote(uint256)": {
						"notice": "Vote for a restaurant"
					}
				},
				"version": 1
			}
		}
	}
}