{
	"contracts/LunchVenue_updated.sol": {
		"LunchVenueUpdated": {
			"abi": [
				{
					"inputs": [],
					"stateMutability": "nonpayable",
					"type": "constructor"
				},
				{
					"inputs": [
						{
							"internalType": "address",
							"name": "friendAddress",
							"type": "address"
						},
						{
							"internalType": "string",
							"name": "name",
							"type": "string"
						}
					],
					"name": "addFriend",
					"outputs": [
						{
							"internalType": "uint256",
							"name": "",
							"type": "uint256"
						}
					],
					"stateMutability": "nonpayable",
					"type": "function"
				},
				{
					"inputs": [
						{
							"internalType": "string",
							"name": "name",
							"type": "string"
						}
					],
					"name": "addRestaurant",
					"outputs": [
						{
							"internalType": "uint256",
							"name": "",
							"type": "uint256"
						}
					],
					"stateMutability": "nonpayable",
					"type": "function"
				},
				{
					"inputs": [],
					"name": "cancelVoting",
					"outputs": [],
					"stateMutability": "nonpayable",
					"type": "function"
				},
				{
					"inputs": [
						{
							"internalType": "uint256",
							"name": "restaurant",
							"type": "uint256"
						}
					],
					"name": "doVote",
					"outputs": [
						{
							"internalType": "bool",
							"name": "validVote",
							"type": "bool"
						}
					],
					"stateMutability": "nonpayable",
					"type": "function"
				},
				{
					"inputs": [
						{
							"internalType": "address",
							"name": "",
							"type": "address"
						}
					],
					"name": "friends",
					"outputs": [
						{
							"internalType": "string",
							"name": "name",
							"type": "string"
						},
						{
							"internalType": "bool",
							"name": "voted",
							"type": "bool"
						}
					],
					"stateMutability": "view",
					"type": "function"
				},
				{
					"inputs": [],
					"name": "manager",
					"outputs": [
						{
							"internalType": "address",
							"name": "",
							"type": "address"
						}
					],
					"stateMutability": "view",
					"type": "function"
				},
				{
					"inputs": [],
					"name": "numFriends",
					"outputs": [
						{
							"internalType": "uint256",
							"name": "",
							"type": "uint256"
						}
					],
					"stateMutability": "view",
					"type": "function"
				},
				{
					"inputs": [],
					"name": "numRestaurants",
					"outputs": [
						{
							"internalType": "uint256",
							"name": "",
							"type": "uint256"
						}
					],
					"stateMutability": "view",
					"type": "function"
				},
				{
					"inputs": [],
					"name": "numVotes",
					"outputs": [
						{
							"internalType": "uint256",
							"name": "",
							"type": "uint256"
						}
					],
					"stateMutability": "view",
					"type": "function"
				},
				{
					"inputs": [
						{
							"internalType": "uint256",
							"name": "",
							"type": "uint256"
						}
					],
					"name": "restaurants",
					"outputs": [
						{
							"internalType": "string",
							"name": "",
							"type": "string"
						}
					],
					"stateMutability": "view",
					"type": "function"
				},
				{
					"inputs": [],
					"name": "startVoting",
					"outputs": [],
					"stateMutability": "nonpayable",
					"type": "function"
				},
				{
					"inputs": [],
					"name": "state",
					"outputs": [
						{
							"internalType": "enum LunchVenueUpdated.State",
							"name": "",
							"type": "uint8"
						}
					],
					"stateMutability": "view",
					"type": "function"
				},
				{
					"inputs": [],
					"name": "voteOpen",
					"outputs": [
						{
							"internalType": "bool",
							"name": "",
							"type": "bool"
						}
					],
					"stateMutability": "view",
					"type": "function"
				},
				{
					"inputs": [],
					"name": "votedRestaurant",
					"outputs": [
						{
							"internalType": "string",
							"name": "",
							"type": "string"
						}
					],
					"stateMutability": "view",
					"type": "function"
				},
				{
					"inputs": [
						{
							"internalType": "uint256",
							"name": "",
							"type": "uint256"
						}
					],
					"name": "votes",
					"outputs": [
						{
							"internalType": "address",
							"name": "voterAddress",
							"type": "address"
						},
						{
							"internalType": "uint256",
							"name": "restaurant",
							"type": "uint256"
						}
					],
					"stateMutability": "view",
					"type": "function"
				}
			],
			"devdoc": {
				"author": "Dilum Bandara , CSIRO’s Data61 Edited by: Van Nam Duong, UNSW (z5412692) to fix the following issues",
				"details": "Issue known: 1. A friend can vote more than once. While this was handy in testing our contract, it is undesirable as one could monopolise the selected venue.    Ideally, we should record a vote for a given address only once.    - doVote function now checks if friends[msg.sender] == false to allow voting 2. The same restaurant and friend can be added multiple times leading to similar issues.    - Go through list of restaurants that are currently open and determine if the restaurant already exists    - Go through list of friends that are currently open and determine if the friend already exists 3. While the contract is stuck at the doVote function, other functions can still be called. Also, once the voting starts, new venues and friends    can be added, making the whole process chaotic. In a typical voting process, voters are clear about who would vote and what to vote on before    voting starts to prevent any disputes. Hence, a good vote process should have well-defined create, vote open, and vote close phases.    - Created a state enum variable to record the contract's current status (Creating, Voting, Closed).    - Added modifiers to limit the states in which functions can be called 4. There is no way to disable the contract once it is deployed. Even the manager cannot do anything to stop the contract in case the team lunch    has to be cancelled.    - Added `Cancelled State` to keep track the state has been cancelled     - Added `cancelVote` function to allow the manager to cancel the contract 5. Gas consumption is not optimised. More simple data structures may help to reduce transaction fees.    - Added `unchecked` for incrementing variable i in for loops    - Removed initialisation of variable of 0 as public global variable are 0, or empty string    - Immutable (constant) type for manager variable since it will not be modified after contract construction    - Rearranged the order of state variables, state variable and address variable are placed together to use one slot. 6. Bonus: Unit Test do not cover all possible cases, e.g., we do not check the doVote function with an invalid restaurant number    - Fixed in Testing To show the bugs are fixed Address: https://sepolia.etherscan.io/address/0xb107c50e3e771a2b2200591262f0759c9a93d8bc Manager: 0x14F35082e87F9c09797443A1E591C26fA5784aDc Alice: 0x9e0E6C08B59942207137A731bB64ECd124565697 Bob: 0x7cad0Db1199CEC9a688a520565c9ccc577A2D71b  Bug 1: - Bob vote but fail because he is not a friend   https://sepolia.etherscan.io/tx/0x9176ab6c7a76edd140868106db5331e5433b9213132ec8010afefabf78d75f7c Bug 2: - Add Alice:   https://sepolia.etherscan.io/tx/0xa3c45b7c32a80444f46556bd6329e196e8f7ce2be81e41da883a5f3e10b082e6 - Add Alice again but fail with \"Friend address already exists\"   https://sepolia.etherscan.io/tx/0x10776fd15607935f1db6dfd4eee78daf8eb9e96c4be6905348af229737ac3d0f Bug 3: - Alice tried to vote in the Creating State but failed.   https://sepolia.etherscan.io/tx/0xce09ef8eef423c713fc90ea3f8bff1721e7abd334e21a70db3fa98d5a7b18e7b - Manager then open Voting State   https://sepolia.etherscan.io/tx/0xb4807101db1e69ab09b9a4dfe1e9cbab83b40eaca5fd55a0e7c5fdb4564dbd2b - Alice try to vote again and success: .  https://sepolia.etherscan.io/tx/0x57633c13be1e8d0f5be52f7296b1580cf340e154471d821882780be1946f0003 Bug 4: - Alice can not cancel Voting as a friend but not a manager.   https://sepolia.etherscan.io/tx/0xa262a4f725c2e728d89c000f6a38028fabeb56ed975492870adce4bb08c43dbe - Only Manager can cancel voting   https://sepolia.etherscan.io/tx/0x7bf8102e477ae3cf4183d00a996aa9d35743a030f579adeada64249cc2a038ea Bug 5:  - Gas reduce from 40000 - 60000 in LunchVenue.sol to 26000 average in LunchVenue_updated.sol Bug 6: Can not vote invalid number ( can not vote restaurant with id 10 but only have 2 restaurants)",
				"kind": "dev",
				"methods": {
					"addFriend(address,string)": {
						"details": "To simplify the code duplication of friends is not checked",
						"params": {
							"friendAddress": "Friend’s account/address",
							"name": "Friend ’s name"
						},
						"returns": {
							"_0": "Number of friends added so far"
						}
					},
					"addRestaurant(string)": {
						"details": "To simplify the code, duplication of restaurants isn’t checked",
						"params": {
							"name": "Restaurant name"
						},
						"returns": {
							"_0": "Number of restaurants added so far"
						}
					},
					"cancelVoting()": {
						"details": "Only the manager can cancel the voting"
					},
					"constructor": {
						"details": "Set manager when contract starts"
					},
					"doVote(uint256)": {
						"details": "To simplify the code duplicate votes by a friend is not checked ",
						"params": {
							"restaurant": "Restaurant number being voted"
						},
						"returns": {
							"validVote": "Is the vote valid? A valid vote should be from a registered friend to a registered restaurant"
						}
					},
					"startVoting()": {
						"details": "Only the manager can start the voting"
					}
				},
				"title": "Contract to agree on the lunch venue",
				"version": 1
			},
			"evm": {
				"assembly": "    /* \"contracts/LunchVenue_updated.sol\":4310:10485  contract LunchVenueUpdated {... */\n  mstore(0x40, 0xa0)\n    /* \"contracts/LunchVenue_updated.sol\":5474:5478  true */\n  0x01\n    /* \"contracts/LunchVenue_updated.sol\":5451:5478  bool public voteOpen = true */\n  0x09\n  exp(0x0100, 0x00)\n  dup2\n  sload\n  dup2\n  0xff\n  mul\n  not\n  and\n  swap1\n  dup4\n  iszero\n  iszero\n  mul\n  or\n  swap1\n  sstore\n  pop\n    /* \"contracts/LunchVenue_updated.sol\":5564:5727  constructor () {... */\n  callvalue\n  dup1\n  iszero\n  tag_1\n  jumpi\n  0x00\n  dup1\n  revert\ntag_1:\n  pop\n    /* \"contracts/LunchVenue_updated.sol\":5599:5609  msg.sender */\n  caller\n    /* \"contracts/LunchVenue_updated.sol\":5589:5609  manager = msg.sender */\n  0xffffffffffffffffffffffffffffffffffffffff\n  and\n  0x80\n  dup2\n  0xffffffffffffffffffffffffffffffffffffffff\n  and\n  0x60\n  shl\n  dup2\n  mstore\n  pop\n  pop\n    /* \"contracts/LunchVenue_updated.sol\":5661:5675  State.Creating */\n  0x00\n    /* \"contracts/LunchVenue_updated.sol\":5653:5658  state */\n  0x05\n  0x00\n    /* \"contracts/LunchVenue_updated.sol\":5653:5675  state = State.Creating */\n  0x0100\n  exp\n  dup2\n  sload\n  dup2\n  0xff\n  mul\n  not\n  and\n  swap1\n  dup4\n  0x03\n  dup2\n  gt\n  iszero\n  tag_4\n  jumpi\n  tag_5\n  tag_6\n  jump\t// in\ntag_5:\ntag_4:\n  mul\n  or\n  swap1\n  sstore\n  pop\n    /* \"contracts/LunchVenue_updated.sol\":4310:10485  contract LunchVenueUpdated {... */\n  jump(tag_7)\n    /* \"#utility.yul\":7:187   */\ntag_6:\n    /* \"#utility.yul\":55:132   */\n  0x4e487b7100000000000000000000000000000000000000000000000000000000\n    /* \"#utility.yul\":52:53   */\n  0x00\n    /* \"#utility.yul\":45:133   */\n  mstore\n    /* \"#utility.yul\":152:156   */\n  0x21\n    /* \"#utility.yul\":149:150   */\n  0x04\n    /* \"#utility.yul\":142:157   */\n  mstore\n    /* \"#utility.yul\":176:180   */\n  0x24\n    /* \"#utility.yul\":173:174   */\n  0x00\n    /* \"#utility.yul\":166:181   */\n  revert\n    /* \"contracts/LunchVenue_updated.sol\":4310:10485  contract LunchVenueUpdated {... */\ntag_7:\n  shr(0x60, mload(0x80))\n  codecopy(0x00, dataOffset(sub_0), dataSize(sub_0))\n  0x00\n  assignImmutable(\"0x77c32b454bb61eb9df9e3848d0ded3e59753acda90ae58befe564733aec82e4c\")\n  return(0x00, dataSize(sub_0))\nstop\n\nsub_0: assembly {\n        /* \"contracts/LunchVenue_updated.sol\":4310:10485  contract LunchVenueUpdated {... */\n      mstore(0x40, 0x80)\n      callvalue\n      dup1\n      iszero\n      tag_1\n      jumpi\n      0x00\n      dup1\n      revert\n    tag_1:\n      pop\n      jumpi(tag_2, lt(calldatasize, 0x04))\n      shr(0xe0, calldataload(0x00))\n      dup1\n      0x6d77bd3e\n      gt\n      tag_18\n      jumpi\n      dup1\n      0xad5461d8\n      gt\n      tag_19\n      jumpi\n      dup1\n      0xad5461d8\n      eq\n      tag_14\n      jumpi\n      dup1\n      0xb798867f\n      eq\n      tag_15\n      jumpi\n      dup1\n      0xc19d93fb\n      eq\n      tag_16\n      jumpi\n      dup1\n      0xc1c16efc\n      eq\n      tag_17\n      jumpi\n      jump(tag_2)\n    tag_19:\n      dup1\n      0x6d77bd3e\n      eq\n      tag_10\n      jumpi\n      dup1\n      0x788d3851\n      eq\n      tag_11\n      jumpi\n      dup1\n      0x81f4b232\n      eq\n      tag_12\n      jumpi\n      dup1\n      0xa3bef4d7\n      eq\n      tag_13\n      jumpi\n      jump(tag_2)\n    tag_18:\n      dup1\n      0x3b9f708d\n      gt\n      tag_20\n      jumpi\n      dup1\n      0x3b9f708d\n      eq\n      tag_6\n      jumpi\n      dup1\n      0x47098f36\n      eq\n      tag_7\n      jumpi\n      dup1\n      0x481c6a75\n      eq\n      tag_8\n      jumpi\n      dup1\n      0x5df81330\n      eq\n      tag_9\n      jumpi\n      jump(tag_2)\n    tag_20:\n      dup1\n      0x124258c6\n      eq\n      tag_3\n      jumpi\n      dup1\n      0x1ddabf7a\n      eq\n      tag_4\n      jumpi\n      dup1\n      0x1ec6b60a\n      eq\n      tag_5\n      jumpi\n    tag_2:\n      0x00\n      dup1\n      revert\n        /* \"contracts/LunchVenue_updated.sol\":7587:8522  function doVote(uint restaurant) public votingOpen returns (bool validVote) {... */\n    tag_3:\n      tag_21\n      0x04\n      dup1\n      calldatasize\n      sub\n      dup2\n      add\n      swap1\n      tag_22\n      swap2\n      swap1\n      tag_23\n      jump\t// in\n    tag_22:\n      tag_24\n      jump\t// in\n    tag_21:\n      mload(0x40)\n      tag_25\n      swap2\n      swap1\n      tag_26\n      jump\t// in\n    tag_25:\n      mload(0x40)\n      dup1\n      swap2\n      sub\n      swap1\n      return\n        /* \"contracts/LunchVenue_updated.sol\":4925:4967  mapping (address => Friend) public friends */\n    tag_4:\n      tag_27\n      0x04\n      dup1\n      calldatasize\n      sub\n      dup2\n      add\n      swap1\n      tag_28\n      swap2\n      swap1\n      tag_29\n      jump\t// in\n    tag_28:\n      tag_30\n      jump\t// in\n    tag_27:\n      mload(0x40)\n      tag_31\n      swap3\n      swap2\n      swap1\n      tag_32\n      jump\t// in\n    tag_31:\n      mload(0x40)\n      dup1\n      swap2\n      sub\n      swap1\n      return\n        /* \"contracts/LunchVenue_updated.sol\":8628:8720  function startVoting() public creatingState restricted {... */\n    tag_5:\n      tag_33\n      tag_34\n      jump\t// in\n    tag_33:\n      stop\n        /* \"contracts/LunchVenue_updated.sol\":6802:7252  function addFriend(address friendAddress, string memory name) public restricted creatingState returns (uint) {... */\n    tag_6:\n      tag_35\n      0x04\n      dup1\n      calldatasize\n      sub\n      dup2\n      add\n      swap1\n      tag_36\n      swap2\n      swap1\n      tag_37\n      jump\t// in\n    tag_36:\n      tag_38\n      jump\t// in\n    tag_35:\n      mload(0x40)\n      tag_39\n      swap2\n      swap1\n      tag_40\n      jump\t// in\n    tag_39:\n      mload(0x40)\n      dup1\n      swap2\n      sub\n      swap1\n      return\n        /* \"contracts/LunchVenue_updated.sol\":5041:5063  uint public numFriends */\n    tag_7:\n      tag_41\n      tag_42\n      jump\t// in\n    tag_41:\n      mload(0x40)\n      tag_43\n      swap2\n      swap1\n      tag_40\n      jump\t// in\n    tag_43:\n      mload(0x40)\n      dup1\n      swap2\n      sub\n      swap1\n      return\n        /* \"contracts/LunchVenue_updated.sol\":5144:5176  address public immutable manager */\n    tag_8:\n      tag_44\n      tag_45\n      jump\t// in\n    tag_44:\n      mload(0x40)\n      tag_46\n      swap2\n      swap1\n      tag_47\n      jump\t// in\n    tag_46:\n      mload(0x40)\n      dup1\n      swap2\n      sub\n      swap1\n      return\n        /* \"contracts/LunchVenue_updated.sol\":5282:5317  mapping (uint => Vote) public votes */\n    tag_9:\n      tag_48\n      0x04\n      dup1\n      calldatasize\n      sub\n      dup2\n      add\n      swap1\n      tag_49\n      swap2\n      swap1\n      tag_23\n      jump\t// in\n    tag_49:\n      tag_50\n      jump\t// in\n    tag_48:\n      mload(0x40)\n      tag_51\n      swap3\n      swap2\n      swap1\n      tag_52\n      jump\t// in\n    tag_51:\n      mload(0x40)\n      dup1\n      swap2\n      sub\n      swap1\n      return\n        /* \"contracts/LunchVenue_updated.sol\":5954:6519  function addRestaurant(string memory name) public restricted creatingState returns (uint) {... */\n    tag_10:\n      tag_53\n      0x04\n      dup1\n      calldatasize\n      sub\n      dup2\n      add\n      swap1\n      tag_54\n      swap2\n      swap1\n      tag_55\n      jump\t// in\n    tag_54:\n      tag_56\n      jump\t// in\n    tag_53:\n      mload(0x40)\n      tag_57\n      swap2\n      swap1\n      tag_40\n      jump\t// in\n    tag_57:\n      mload(0x40)\n      dup1\n      swap2\n      sub\n      swap1\n      return\n        /* \"contracts/LunchVenue_updated.sol\":5451:5478  bool public voteOpen = true */\n    tag_11:\n      tag_58\n      tag_59\n      jump\t// in\n    tag_58:\n      mload(0x40)\n      tag_60\n      swap2\n      swap1\n      tag_26\n      jump\t// in\n    tag_60:\n      mload(0x40)\n      dup1\n      swap2\n      sub\n      swap1\n      return\n        /* \"contracts/LunchVenue_updated.sol\":8890:8972  function cancelVoting() public restricted {... */\n    tag_12:\n      tag_61\n      tag_62\n      jump\t// in\n    tag_61:\n      stop\n        /* \"contracts/LunchVenue_updated.sol\":5069:5089  uint public numVotes */\n    tag_13:\n      tag_63\n      tag_64\n      jump\t// in\n    tag_63:\n      mload(0x40)\n      tag_65\n      swap2\n      swap1\n      tag_40\n      jump\t// in\n    tag_65:\n      mload(0x40)\n      dup1\n      swap2\n      sub\n      swap1\n      return\n        /* \"contracts/LunchVenue_updated.sol\":4832:4875  mapping (uint => string) public restaurants */\n    tag_14:\n      tag_66\n      0x04\n      dup1\n      calldatasize\n      sub\n      dup2\n      add\n      swap1\n      tag_67\n      swap2\n      swap1\n      tag_23\n      jump\t// in\n    tag_67:\n      tag_68\n      jump\t// in\n    tag_66:\n      mload(0x40)\n      tag_69\n      swap2\n      swap1\n      tag_70\n      jump\t// in\n    tag_69:\n      mload(0x40)\n      dup1\n      swap2\n      sub\n      swap1\n      return\n        /* \"contracts/LunchVenue_updated.sol\":5009:5035  uint public numRestaurants */\n    tag_15:\n      tag_71\n      tag_72\n      jump\t// in\n    tag_71:\n      mload(0x40)\n      tag_73\n      swap2\n      swap1\n      tag_40\n      jump\t// in\n    tag_73:\n      mload(0x40)\n      dup1\n      swap2\n      sub\n      swap1\n      return\n        /* \"contracts/LunchVenue_updated.sol\":5201:5219  State public state */\n    tag_16:\n      tag_74\n      tag_75\n      jump\t// in\n    tag_74:\n      mload(0x40)\n      tag_76\n      swap2\n      swap1\n      tag_77\n      jump\t// in\n    tag_76:\n      mload(0x40)\n      dup1\n      swap2\n      sub\n      swap1\n      return\n        /* \"contracts/LunchVenue_updated.sol\":5225:5254  string public votedRestaurant */\n    tag_17:\n      tag_78\n      tag_79\n      jump\t// in\n    tag_78:\n      mload(0x40)\n      tag_80\n      swap2\n      swap1\n      tag_70\n      jump\t// in\n    tag_80:\n      mload(0x40)\n      dup1\n      swap2\n      sub\n      swap1\n      return\n        /* \"contracts/LunchVenue_updated.sol\":7587:8522  function doVote(uint restaurant) public votingOpen returns (bool validVote) {... */\n    tag_24:\n        /* \"contracts/LunchVenue_updated.sol\":7647:7661  bool validVote */\n      0x00\n        /* \"contracts/LunchVenue_updated.sol\":10411:10423  State.Voting */\n      0x01\n        /* \"contracts/LunchVenue_updated.sol\":10402:10423  state == State.Voting */\n      0x03\n      dup2\n      gt\n      iszero\n      tag_82\n      jumpi\n      tag_83\n      tag_84\n      jump\t// in\n    tag_83:\n    tag_82:\n        /* \"contracts/LunchVenue_updated.sol\":10402:10407  state */\n      0x05\n      0x00\n      swap1\n      sload\n      swap1\n      0x0100\n      exp\n      swap1\n      div\n      0xff\n      and\n        /* \"contracts/LunchVenue_updated.sol\":10402:10423  state == State.Voting */\n      0x03\n      dup2\n      gt\n      iszero\n      tag_85\n      jumpi\n      tag_86\n      tag_84\n      jump\t// in\n    tag_86:\n    tag_85:\n      eq\n        /* \"contracts/LunchVenue_updated.sol\":10394:10464  require(state == State.Voting, \"Can only be executed in voting state\") */\n      tag_87\n      jumpi\n      mload(0x40)\n      0x08c379a000000000000000000000000000000000000000000000000000000000\n      dup2\n      mstore\n      0x04\n      add\n      tag_88\n      swap1\n      tag_89\n      jump\t// in\n    tag_88:\n      mload(0x40)\n      dup1\n      swap2\n      sub\n      swap1\n      revert\n    tag_87:\n        /* \"contracts/LunchVenue_updated.sol\":7685:7690  false */\n      0x00\n        /* \"contracts/LunchVenue_updated.sol\":7673:7690  validVote = false */\n      swap1\n      pop\n        /* \"contracts/LunchVenue_updated.sol\":7825:7826  0 */\n      0x00\n        /* \"contracts/LunchVenue_updated.sol\":7789:7796  friends */\n      0x01\n        /* \"contracts/LunchVenue_updated.sol\":7789:7808  friends[msg.sender] */\n      0x00\n        /* \"contracts/LunchVenue_updated.sol\":7797:7807  msg.sender */\n      caller\n        /* \"contracts/LunchVenue_updated.sol\":7789:7808  friends[msg.sender] */\n      0xffffffffffffffffffffffffffffffffffffffff\n      and\n      0xffffffffffffffffffffffffffffffffffffffff\n      and\n      dup2\n      mstore\n      0x20\n      add\n      swap1\n      dup2\n      mstore\n      0x20\n      add\n      0x00\n      keccak256\n        /* \"contracts/LunchVenue_updated.sol\":7789:7813  friends[msg.sender].name */\n      0x00\n      add\n        /* \"contracts/LunchVenue_updated.sol\":7783:7821  bytes(friends[msg.sender].name).length */\n      dup1\n      sload\n      tag_91\n      swap1\n      tag_92\n      jump\t// in\n    tag_91:\n      swap1\n      pop\n        /* \"contracts/LunchVenue_updated.sol\":7783:7826  bytes(friends[msg.sender].name).length != 0 */\n      eq\n        /* \"contracts/LunchVenue_updated.sol\":7779:8377  if (bytes(friends[msg.sender].name).length != 0) { //Does friend exist?... */\n      tag_93\n      jumpi\n        /* \"contracts/LunchVenue_updated.sol\":7896:7901  false */\n      0x00\n        /* \"contracts/LunchVenue_updated.sol\":7867:7901  friends[msg.sender].voted == false */\n      iszero\n      iszero\n        /* \"contracts/LunchVenue_updated.sol\":7867:7874  friends */\n      0x01\n        /* \"contracts/LunchVenue_updated.sol\":7867:7886  friends[msg.sender] */\n      0x00\n        /* \"contracts/LunchVenue_updated.sol\":7875:7885  msg.sender */\n      caller\n        /* \"contracts/LunchVenue_updated.sol\":7867:7886  friends[msg.sender] */\n      0xffffffffffffffffffffffffffffffffffffffff\n      and\n      0xffffffffffffffffffffffffffffffffffffffff\n      and\n      dup2\n      mstore\n      0x20\n      add\n      swap1\n      dup2\n      mstore\n      0x20\n      add\n      0x00\n      keccak256\n        /* \"contracts/LunchVenue_updated.sol\":7867:7892  friends[msg.sender].voted */\n      0x01\n      add\n      0x00\n      swap1\n      sload\n      swap1\n      0x0100\n      exp\n      swap1\n      div\n      0xff\n      and\n        /* \"contracts/LunchVenue_updated.sol\":7867:7901  friends[msg.sender].voted == false */\n      iszero\n      iszero\n      eq\n        /* \"contracts/LunchVenue_updated.sol\":7863:8367  if (friends[msg.sender].voted == false) { //ISSUE_1: A friend can vote only one time... */\n      iszero\n      tag_94\n      jumpi\n        /* \"contracts/LunchVenue_updated.sol\":8009:8010  0 */\n      0x00\n        /* \"contracts/LunchVenue_updated.sol\":7974:7985  restaurants */\n      dup1\n        /* \"contracts/LunchVenue_updated.sol\":7974:7997  restaurants[restaurant] */\n      0x00\n        /* \"contracts/LunchVenue_updated.sol\":7986:7996  restaurant */\n      dup5\n        /* \"contracts/LunchVenue_updated.sol\":7974:7997  restaurants[restaurant] */\n      dup2\n      mstore\n      0x20\n      add\n      swap1\n      dup2\n      mstore\n      0x20\n      add\n      0x00\n      keccak256\n        /* \"contracts/LunchVenue_updated.sol\":7968:8005  bytes(restaurants[restaurant]).length */\n      dup1\n      sload\n      tag_95\n      swap1\n      tag_92\n      jump\t// in\n    tag_95:\n      swap1\n      pop\n        /* \"contracts/LunchVenue_updated.sol\":7968:8010  bytes(restaurants[restaurant]).length != 0 */\n      eq\n        /* \"contracts/LunchVenue_updated.sol\":7964:8353  if (bytes(restaurants[restaurant]).length != 0) { //Does restaurant exists?... */\n      tag_96\n      jumpi\n        /* \"contracts/LunchVenue_updated.sol\":8072:8076  true */\n      0x01\n        /* \"contracts/LunchVenue_updated.sol\":8060:8076  validVote = true */\n      swap1\n      pop\n        /* \"contracts/LunchVenue_updated.sol\":8126:8130  true */\n      0x01\n        /* \"contracts/LunchVenue_updated.sol\":8098:8105  friends */\n      dup1\n        /* \"contracts/LunchVenue_updated.sol\":8098:8117  friends[msg.sender] */\n      0x00\n        /* \"contracts/LunchVenue_updated.sol\":8106:8116  msg.sender */\n      caller\n        /* \"contracts/LunchVenue_updated.sol\":8098:8117  friends[msg.sender] */\n      0xffffffffffffffffffffffffffffffffffffffff\n      and\n      0xffffffffffffffffffffffffffffffffffffffff\n      and\n      dup2\n      mstore\n      0x20\n      add\n      swap1\n      dup2\n      mstore\n      0x20\n      add\n      0x00\n      keccak256\n        /* \"contracts/LunchVenue_updated.sol\":8098:8123  friends[msg.sender].voted */\n      0x01\n      add\n      0x00\n        /* \"contracts/LunchVenue_updated.sol\":8098:8130  friends[msg.sender].voted = true */\n      0x0100\n      exp\n      dup2\n      sload\n      dup2\n      0xff\n      mul\n      not\n      and\n      swap1\n      dup4\n      iszero\n      iszero\n      mul\n      or\n      swap1\n      sstore\n      pop\n        /* \"contracts/LunchVenue_updated.sol\":8152:8165  Vote memory v */\n      tag_97\n      tag_98\n      jump\t// in\n    tag_97:\n        /* \"contracts/LunchVenue_updated.sol\":8204:8214  msg.sender */\n      caller\n        /* \"contracts/LunchVenue_updated.sol\":8187:8188  v */\n      dup2\n        /* \"contracts/LunchVenue_updated.sol\":8187:8201  v.voterAddress */\n      0x00\n      add\n        /* \"contracts/LunchVenue_updated.sol\":8187:8214  v.voterAddress = msg.sender */\n      swap1\n      0xffffffffffffffffffffffffffffffffffffffff\n      and\n      swap1\n      dup2\n      0xffffffffffffffffffffffffffffffffffffffff\n      and\n      dup2\n      mstore\n      pop\n      pop\n        /* \"contracts/LunchVenue_updated.sol\":8251:8261  restaurant */\n      dup3\n        /* \"contracts/LunchVenue_updated.sol\":8236:8237  v */\n      dup2\n        /* \"contracts/LunchVenue_updated.sol\":8236:8248  v.restaurant */\n      0x20\n      add\n        /* \"contracts/LunchVenue_updated.sol\":8236:8261  v.restaurant = restaurant */\n      dup2\n      dup2\n      mstore\n      pop\n      pop\n        /* \"contracts/LunchVenue_updated.sol\":8283:8291  numVotes */\n      0x04\n      0x00\n        /* \"contracts/LunchVenue_updated.sol\":8283:8293  numVotes++ */\n      dup2\n      sload\n      dup1\n      swap3\n      swap2\n      swap1\n      tag_99\n      swap1\n      tag_100\n      jump\t// in\n    tag_99:\n      swap2\n      swap1\n      pop\n      sstore\n      pop\n        /* \"contracts/LunchVenue_updated.sol\":8333:8334  v */\n      dup1\n        /* \"contracts/LunchVenue_updated.sol\":8315:8320  votes */\n      0x07\n        /* \"contracts/LunchVenue_updated.sol\":8315:8330  votes[numVotes] */\n      0x00\n        /* \"contracts/LunchVenue_updated.sol\":8321:8329  numVotes */\n      sload(0x04)\n        /* \"contracts/LunchVenue_updated.sol\":8315:8330  votes[numVotes] */\n      dup2\n      mstore\n      0x20\n      add\n      swap1\n      dup2\n      mstore\n      0x20\n      add\n      0x00\n      keccak256\n        /* \"contracts/LunchVenue_updated.sol\":8315:8334  votes[numVotes] = v */\n      0x00\n      dup3\n      add\n      mload\n      dup2\n      0x00\n      add\n      exp(0x0100, 0x00)\n      dup2\n      sload\n      dup2\n      0xffffffffffffffffffffffffffffffffffffffff\n      mul\n      not\n      and\n      swap1\n      dup4\n      0xffffffffffffffffffffffffffffffffffffffff\n      and\n      mul\n      or\n      swap1\n      sstore\n      pop\n      0x20\n      dup3\n      add\n      mload\n      dup2\n      0x01\n      add\n      sstore\n      swap1\n      pop\n      pop\n        /* \"contracts/LunchVenue_updated.sol\":8012:8353  { //Does restaurant exists?... */\n      pop\n        /* \"contracts/LunchVenue_updated.sol\":7964:8353  if (bytes(restaurants[restaurant]).length != 0) { //Does restaurant exists?... */\n    tag_96:\n        /* \"contracts/LunchVenue_updated.sol\":7863:8367  if (friends[msg.sender].voted == false) { //ISSUE_1: A friend can vote only one time... */\n    tag_94:\n        /* \"contracts/LunchVenue_updated.sol\":7779:8377  if (bytes(friends[msg.sender].name).length != 0) { //Does friend exist?... */\n    tag_93:\n        /* \"contracts/LunchVenue_updated.sol\":8420:8421  1 */\n      0x01\n        /* \"contracts/LunchVenue_updated.sol\":8416:8417  2 */\n      0x02\n        /* \"contracts/LunchVenue_updated.sol\":8403:8413  numFriends */\n      sload(0x03)\n        /* \"contracts/LunchVenue_updated.sol\":8403:8417  numFriends / 2 */\n      tag_101\n      swap2\n      swap1\n      tag_102\n      jump\t// in\n    tag_101:\n        /* \"contracts/LunchVenue_updated.sol\":8403:8421  numFriends / 2 + 1 */\n      tag_103\n      swap2\n      swap1\n      tag_104\n      jump\t// in\n    tag_103:\n        /* \"contracts/LunchVenue_updated.sol\":8391:8399  numVotes */\n      sload(0x04)\n        /* \"contracts/LunchVenue_updated.sol\":8391:8421  numVotes >= numFriends / 2 + 1 */\n      lt\n        /* \"contracts/LunchVenue_updated.sol\":8387:8489  if (numVotes >= numFriends / 2 + 1) {... */\n      tag_105\n      jumpi\n        /* \"contracts/LunchVenue_updated.sol\":8465:8478  finalResult() */\n      tag_106\n        /* \"contracts/LunchVenue_updated.sol\":8465:8476  finalResult */\n      tag_107\n        /* \"contracts/LunchVenue_updated.sol\":8465:8478  finalResult() */\n      jump\t// in\n    tag_106:\n        /* \"contracts/LunchVenue_updated.sol\":8387:8489  if (numVotes >= numFriends / 2 + 1) {... */\n    tag_105:\n        /* \"contracts/LunchVenue_updated.sol\":7587:8522  function doVote(uint restaurant) public votingOpen returns (bool validVote) {... */\n      swap2\n      swap1\n      pop\n      jump\t// out\n        /* \"contracts/LunchVenue_updated.sol\":4925:4967  mapping (address => Friend) public friends */\n    tag_30:\n      mstore(0x20, 0x01)\n      dup1\n      0x00\n      mstore\n      keccak256(0x00, 0x40)\n      0x00\n      swap2\n      pop\n      swap1\n      pop\n      dup1\n      0x00\n      add\n      dup1\n      sload\n      tag_108\n      swap1\n      tag_92\n      jump\t// in\n    tag_108:\n      dup1\n      0x1f\n      add\n      0x20\n      dup1\n      swap2\n      div\n      mul\n      0x20\n      add\n      mload(0x40)\n      swap1\n      dup2\n      add\n      0x40\n      mstore\n      dup1\n      swap3\n      swap2\n      swap1\n      dup2\n      dup2\n      mstore\n      0x20\n      add\n      dup3\n      dup1\n      sload\n      tag_109\n      swap1\n      tag_92\n      jump\t// in\n    tag_109:\n      dup1\n      iszero\n      tag_110\n      jumpi\n      dup1\n      0x1f\n      lt\n      tag_111\n      jumpi\n      0x0100\n      dup1\n      dup4\n      sload\n      div\n      mul\n      dup4\n      mstore\n      swap2\n      0x20\n      add\n      swap2\n      jump(tag_110)\n    tag_111:\n      dup3\n      add\n      swap2\n      swap1\n      0x00\n      mstore\n      keccak256(0x00, 0x20)\n      swap1\n    tag_112:\n      dup2\n      sload\n      dup2\n      mstore\n      swap1\n      0x01\n      add\n      swap1\n      0x20\n      add\n      dup1\n      dup4\n      gt\n      tag_112\n      jumpi\n      dup3\n      swap1\n      sub\n      0x1f\n      and\n      dup3\n      add\n      swap2\n    tag_110:\n      pop\n      pop\n      pop\n      pop\n      pop\n      swap1\n      dup1\n      0x01\n      add\n      0x00\n      swap1\n      sload\n      swap1\n      0x0100\n      exp\n      swap1\n      div\n      0xff\n      and\n      swap1\n      pop\n      dup3\n      jump\t// out\n        /* \"contracts/LunchVenue_updated.sol\":8628:8720  function startVoting() public creatingState restricted {... */\n    tag_34:\n        /* \"contracts/LunchVenue_updated.sol\":10223:10237  State.Creating */\n      0x00\n        /* \"contracts/LunchVenue_updated.sol\":10214:10237  state == State.Creating */\n      0x03\n      dup2\n      gt\n      iszero\n      tag_114\n      jumpi\n      tag_115\n      tag_84\n      jump\t// in\n    tag_115:\n    tag_114:\n        /* \"contracts/LunchVenue_updated.sol\":10214:10219  state */\n      0x05\n      0x00\n      swap1\n      sload\n      swap1\n      0x0100\n      exp\n      swap1\n      div\n      0xff\n      and\n        /* \"contracts/LunchVenue_updated.sol\":10214:10237  state == State.Creating */\n      0x03\n      dup2\n      gt\n      iszero\n      tag_116\n      jumpi\n      tag_117\n      tag_84\n      jump\t// in\n    tag_117:\n    tag_116:\n      eq\n        /* \"contracts/LunchVenue_updated.sol\":10206:10280  require(state == State.Creating, \"Can only be executed in creating state\") */\n      tag_118\n      jumpi\n      mload(0x40)\n      0x08c379a000000000000000000000000000000000000000000000000000000000\n      dup2\n      mstore\n      0x04\n      add\n      tag_119\n      swap1\n      tag_120\n      jump\t// in\n    tag_119:\n      mload(0x40)\n      dup1\n      swap2\n      sub\n      swap1\n      revert\n    tag_118:\n        /* \"contracts/LunchVenue_updated.sol\":10040:10047  manager */\n      immutable(\"0x77c32b454bb61eb9df9e3848d0ded3e59753acda90ae58befe564733aec82e4c\")\n        /* \"contracts/LunchVenue_updated.sol\":10026:10047  msg.sender == manager */\n      0xffffffffffffffffffffffffffffffffffffffff\n      and\n        /* \"contracts/LunchVenue_updated.sol\":10026:10036  msg.sender */\n      caller\n        /* \"contracts/LunchVenue_updated.sol\":10026:10047  msg.sender == manager */\n      0xffffffffffffffffffffffffffffffffffffffff\n      and\n      eq\n        /* \"contracts/LunchVenue_updated.sol\":10018:10087  require(msg.sender == manager, \"Can only be executed by the manager\") */\n      tag_122\n      jumpi\n      mload(0x40)\n      0x08c379a000000000000000000000000000000000000000000000000000000000\n      dup2\n      mstore\n      0x04\n      add\n      tag_123\n      swap1\n      tag_124\n      jump\t// in\n    tag_123:\n      mload(0x40)\n      dup1\n      swap2\n      sub\n      swap1\n      revert\n    tag_122:\n        /* \"contracts/LunchVenue_updated.sol\":8701:8713  State.Voting */\n      0x01\n        /* \"contracts/LunchVenue_updated.sol\":8693:8698  state */\n      0x05\n      0x00\n        /* \"contracts/LunchVenue_updated.sol\":8693:8713  state = State.Voting */\n      0x0100\n      exp\n      dup2\n      sload\n      dup2\n      0xff\n      mul\n      not\n      and\n      swap1\n      dup4\n      0x03\n      dup2\n      gt\n      iszero\n      tag_126\n      jumpi\n      tag_127\n      tag_84\n      jump\t// in\n    tag_127:\n    tag_126:\n      mul\n      or\n      swap1\n      sstore\n      pop\n        /* \"contracts/LunchVenue_updated.sol\":8628:8720  function startVoting() public creatingState restricted {... */\n      jump\t// out\n        /* \"contracts/LunchVenue_updated.sol\":6802:7252  function addFriend(address friendAddress, string memory name) public restricted creatingState returns (uint) {... */\n    tag_38:\n        /* \"contracts/LunchVenue_updated.sol\":6905:6909  uint */\n      0x00\n        /* \"contracts/LunchVenue_updated.sol\":10040:10047  manager */\n      immutable(\"0x77c32b454bb61eb9df9e3848d0ded3e59753acda90ae58befe564733aec82e4c\")\n        /* \"contracts/LunchVenue_updated.sol\":10026:10047  msg.sender == manager */\n      0xffffffffffffffffffffffffffffffffffffffff\n      and\n        /* \"contracts/LunchVenue_updated.sol\":10026:10036  msg.sender */\n      caller\n        /* \"contracts/LunchVenue_updated.sol\":10026:10047  msg.sender == manager */\n      0xffffffffffffffffffffffffffffffffffffffff\n      and\n      eq\n        /* \"contracts/LunchVenue_updated.sol\":10018:10087  require(msg.sender == manager, \"Can only be executed by the manager\") */\n      tag_129\n      jumpi\n      mload(0x40)\n      0x08c379a000000000000000000000000000000000000000000000000000000000\n      dup2\n      mstore\n      0x04\n      add\n      tag_130\n      swap1\n      tag_124\n      jump\t// in\n    tag_130:\n      mload(0x40)\n      dup1\n      swap2\n      sub\n      swap1\n      revert\n    tag_129:\n        /* \"contracts/LunchVenue_updated.sol\":10223:10237  State.Creating */\n      0x00\n        /* \"contracts/LunchVenue_updated.sol\":10214:10237  state == State.Creating */\n      0x03\n      dup2\n      gt\n      iszero\n      tag_132\n      jumpi\n      tag_133\n      tag_84\n      jump\t// in\n    tag_133:\n    tag_132:\n        /* \"contracts/LunchVenue_updated.sol\":10214:10219  state */\n      0x05\n      0x00\n      swap1\n      sload\n      swap1\n      0x0100\n      exp\n      swap1\n      div\n      0xff\n      and\n        /* \"contracts/LunchVenue_updated.sol\":10214:10237  state == State.Creating */\n      0x03\n      dup2\n      gt\n      iszero\n      tag_134\n      jumpi\n      tag_135\n      tag_84\n      jump\t// in\n    tag_135:\n    tag_134:\n      eq\n        /* \"contracts/LunchVenue_updated.sol\":10206:10280  require(state == State.Creating, \"Can only be executed in creating state\") */\n      tag_136\n      jumpi\n      mload(0x40)\n      0x08c379a000000000000000000000000000000000000000000000000000000000\n      dup2\n      mstore\n      0x04\n      add\n      tag_137\n      swap1\n      tag_120\n      jump\t// in\n    tag_137:\n      mload(0x40)\n      dup1\n      swap2\n      sub\n      swap1\n      revert\n    tag_136:\n        /* \"contracts/LunchVenue_updated.sol\":7021:7022  0 */\n      0x00\n        /* \"contracts/LunchVenue_updated.sol\":6982:6989  friends */\n      0x01\n        /* \"contracts/LunchVenue_updated.sol\":6982:7004  friends[friendAddress] */\n      0x00\n        /* \"contracts/LunchVenue_updated.sol\":6990:7003  friendAddress */\n      dup6\n        /* \"contracts/LunchVenue_updated.sol\":6982:7004  friends[friendAddress] */\n      0xffffffffffffffffffffffffffffffffffffffff\n      and\n      0xffffffffffffffffffffffffffffffffffffffff\n      and\n      dup2\n      mstore\n      0x20\n      add\n      swap1\n      dup2\n      mstore\n      0x20\n      add\n      0x00\n      keccak256\n        /* \"contracts/LunchVenue_updated.sol\":6982:7009  friends[friendAddress].name */\n      0x00\n      add\n        /* \"contracts/LunchVenue_updated.sol\":6976:7017  bytes(friends[friendAddress].name).length */\n      dup1\n      sload\n      tag_139\n      swap1\n      tag_92\n      jump\t// in\n    tag_139:\n      swap1\n      pop\n        /* \"contracts/LunchVenue_updated.sol\":6976:7022  bytes(friends[friendAddress].name).length != 0 */\n      eq\n        /* \"contracts/LunchVenue_updated.sol\":6972:7088  if (bytes(friends[friendAddress].name).length != 0) {... */\n      tag_140\n      jumpi\n        /* \"contracts/LunchVenue_updated.sol\":7038:7077  revert(\"Friend address already exists\") */\n      mload(0x40)\n      0x08c379a000000000000000000000000000000000000000000000000000000000\n      dup2\n      mstore\n      0x04\n      add\n      tag_141\n      swap1\n      tag_142\n      jump\t// in\n    tag_141:\n      mload(0x40)\n      dup1\n      swap2\n      sub\n      swap1\n      revert\n        /* \"contracts/LunchVenue_updated.sol\":6972:7088  if (bytes(friends[friendAddress].name).length != 0) {... */\n    tag_140:\n        /* \"contracts/LunchVenue_updated.sol\":7097:7112  Friend memory f */\n      tag_143\n      tag_144\n      jump\t// in\n    tag_143:\n        /* \"contracts/LunchVenue_updated.sol\":7131:7135  name */\n      dup3\n        /* \"contracts/LunchVenue_updated.sol\":7122:7123  f */\n      dup2\n        /* \"contracts/LunchVenue_updated.sol\":7122:7128  f.name */\n      0x00\n      add\n        /* \"contracts/LunchVenue_updated.sol\":7122:7135  f.name = name */\n      dup2\n      swap1\n      mstore\n      pop\n        /* \"contracts/LunchVenue_updated.sol\":7155:7160  false */\n      0x00\n        /* \"contracts/LunchVenue_updated.sol\":7145:7146  f */\n      dup2\n        /* \"contracts/LunchVenue_updated.sol\":7145:7152  f.voted */\n      0x20\n      add\n        /* \"contracts/LunchVenue_updated.sol\":7145:7160  f.voted = false */\n      swap1\n      iszero\n      iszero\n      swap1\n      dup2\n      iszero\n      iszero\n      dup2\n      mstore\n      pop\n      pop\n        /* \"contracts/LunchVenue_updated.sol\":7195:7196  f */\n      dup1\n        /* \"contracts/LunchVenue_updated.sol\":7170:7177  friends */\n      0x01\n        /* \"contracts/LunchVenue_updated.sol\":7170:7192  friends[friendAddress] */\n      0x00\n        /* \"contracts/LunchVenue_updated.sol\":7178:7191  friendAddress */\n      dup7\n        /* \"contracts/LunchVenue_updated.sol\":7170:7192  friends[friendAddress] */\n      0xffffffffffffffffffffffffffffffffffffffff\n      and\n      0xffffffffffffffffffffffffffffffffffffffff\n      and\n      dup2\n      mstore\n      0x20\n      add\n      swap1\n      dup2\n      mstore\n      0x20\n      add\n      0x00\n      keccak256\n        /* \"contracts/LunchVenue_updated.sol\":7170:7196  friends[friendAddress] = f */\n      0x00\n      dup3\n      add\n      mload\n      dup2\n      0x00\n      add\n      swap1\n      dup1\n      mload\n      swap1\n      0x20\n      add\n      swap1\n      tag_145\n      swap3\n      swap2\n      swap1\n      tag_146\n      jump\t// in\n    tag_145:\n      pop\n      0x20\n      dup3\n      add\n      mload\n      dup2\n      0x01\n      add\n      exp(0x0100, 0x00)\n      dup2\n      sload\n      dup2\n      0xff\n      mul\n      not\n      and\n      swap1\n      dup4\n      iszero\n      iszero\n      mul\n      or\n      swap1\n      sstore\n      pop\n      swap1\n      pop\n      pop\n        /* \"contracts/LunchVenue_updated.sol\":7206:7216  numFriends */\n      0x03\n      0x00\n        /* \"contracts/LunchVenue_updated.sol\":7206:7218  numFriends++ */\n      dup2\n      sload\n      dup1\n      swap3\n      swap2\n      swap1\n      tag_147\n      swap1\n      tag_100\n      jump\t// in\n    tag_147:\n      swap2\n      swap1\n      pop\n      sstore\n      pop\n        /* \"contracts/LunchVenue_updated.sol\":7235:7245  numFriends */\n      sload(0x03)\n        /* \"contracts/LunchVenue_updated.sol\":7228:7245  return numFriends */\n      swap2\n      pop\n      pop\n        /* \"contracts/LunchVenue_updated.sol\":6802:7252  function addFriend(address friendAddress, string memory name) public restricted creatingState returns (uint) {... */\n      swap3\n      swap2\n      pop\n      pop\n      jump\t// out\n        /* \"contracts/LunchVenue_updated.sol\":5041:5063  uint public numFriends */\n    tag_42:\n      sload(0x03)\n      dup2\n      jump\t// out\n        /* \"contracts/LunchVenue_updated.sol\":5144:5176  address public immutable manager */\n    tag_45:\n      immutable(\"0x77c32b454bb61eb9df9e3848d0ded3e59753acda90ae58befe564733aec82e4c\")\n      dup2\n      jump\t// out\n        /* \"contracts/LunchVenue_updated.sol\":5282:5317  mapping (uint => Vote) public votes */\n    tag_50:\n      mstore(0x20, 0x07)\n      dup1\n      0x00\n      mstore\n      keccak256(0x00, 0x40)\n      0x00\n      swap2\n      pop\n      swap1\n      pop\n      dup1\n      0x00\n      add\n      0x00\n      swap1\n      sload\n      swap1\n      0x0100\n      exp\n      swap1\n      div\n      0xffffffffffffffffffffffffffffffffffffffff\n      and\n      swap1\n      dup1\n      0x01\n      add\n      sload\n      swap1\n      pop\n      dup3\n      jump\t// out\n        /* \"contracts/LunchVenue_updated.sol\":5954:6519  function addRestaurant(string memory name) public restricted creatingState returns (uint) {... */\n    tag_56:\n        /* \"contracts/LunchVenue_updated.sol\":6038:6042  uint */\n      0x00\n        /* \"contracts/LunchVenue_updated.sol\":10040:10047  manager */\n      immutable(\"0x77c32b454bb61eb9df9e3848d0ded3e59753acda90ae58befe564733aec82e4c\")\n        /* \"contracts/LunchVenue_updated.sol\":10026:10047  msg.sender == manager */\n      0xffffffffffffffffffffffffffffffffffffffff\n      and\n        /* \"contracts/LunchVenue_updated.sol\":10026:10036  msg.sender */\n      caller\n        /* \"contracts/LunchVenue_updated.sol\":10026:10047  msg.sender == manager */\n      0xffffffffffffffffffffffffffffffffffffffff\n      and\n      eq\n        /* \"contracts/LunchVenue_updated.sol\":10018:10087  require(msg.sender == manager, \"Can only be executed by the manager\") */\n      tag_149\n      jumpi\n      mload(0x40)\n      0x08c379a000000000000000000000000000000000000000000000000000000000\n      dup2\n      mstore\n      0x04\n      add\n      tag_150\n      swap1\n      tag_124\n      jump\t// in\n    tag_150:\n      mload(0x40)\n      dup1\n      swap2\n      sub\n      swap1\n      revert\n    tag_149:\n        /* \"contracts/LunchVenue_updated.sol\":10223:10237  State.Creating */\n      0x00\n        /* \"contracts/LunchVenue_updated.sol\":10214:10237  state == State.Creating */\n      0x03\n      dup2\n      gt\n      iszero\n      tag_152\n      jumpi\n      tag_153\n      tag_84\n      jump\t// in\n    tag_153:\n    tag_152:\n        /* \"contracts/LunchVenue_updated.sol\":10214:10219  state */\n      0x05\n      0x00\n      swap1\n      sload\n      swap1\n      0x0100\n      exp\n      swap1\n      div\n      0xff\n      and\n        /* \"contracts/LunchVenue_updated.sol\":10214:10237  state == State.Creating */\n      0x03\n      dup2\n      gt\n      iszero\n      tag_154\n      jumpi\n      tag_155\n      tag_84\n      jump\t// in\n    tag_155:\n    tag_154:\n      eq\n        /* \"contracts/LunchVenue_updated.sol\":10206:10280  require(state == State.Creating, \"Can only be executed in creating state\") */\n      tag_156\n      jumpi\n      mload(0x40)\n      0x08c379a000000000000000000000000000000000000000000000000000000000\n      dup2\n      mstore\n      0x04\n      add\n      tag_157\n      swap1\n      tag_120\n      jump\t// in\n    tag_157:\n      mload(0x40)\n      dup1\n      swap2\n      sub\n      swap1\n      revert\n    tag_156:\n        /* \"contracts/LunchVenue_updated.sol\":6114:6120  uint i */\n      0x00\n        /* \"contracts/LunchVenue_updated.sol\":6123:6124  1 */\n      0x01\n        /* \"contracts/LunchVenue_updated.sol\":6114:6124  uint i = 1 */\n      swap1\n      pop\n        /* \"contracts/LunchVenue_updated.sol\":6109:6412  for (uint i = 1; i <= numRestaurants;) {... */\n    tag_159:\n        /* \"contracts/LunchVenue_updated.sol\":6131:6145  numRestaurants */\n      sload(0x02)\n        /* \"contracts/LunchVenue_updated.sol\":6126:6127  i */\n      dup2\n        /* \"contracts/LunchVenue_updated.sol\":6126:6145  i <= numRestaurants */\n      gt\n        /* \"contracts/LunchVenue_updated.sol\":6109:6412  for (uint i = 1; i <= numRestaurants;) {... */\n      tag_160\n      jumpi\n        /* \"contracts/LunchVenue_updated.sol\":6218:6222  name */\n      dup3\n        /* \"contracts/LunchVenue_updated.sol\":6202:6224  keccak256(bytes(name)) */\n      dup1\n      mload\n      swap1\n      0x20\n      add\n      keccak256\n        /* \"contracts/LunchVenue_updated.sol\":6182:6193  restaurants */\n      0x00\n        /* \"contracts/LunchVenue_updated.sol\":6182:6196  restaurants[i] */\n      dup1\n        /* \"contracts/LunchVenue_updated.sol\":6194:6195  i */\n      dup4\n        /* \"contracts/LunchVenue_updated.sol\":6182:6196  restaurants[i] */\n      dup2\n      mstore\n      0x20\n      add\n      swap1\n      dup2\n      mstore\n      0x20\n      add\n      0x00\n      keccak256\n        /* \"contracts/LunchVenue_updated.sol\":6166:6198  keccak256(bytes(restaurants[i])) */\n      mload(0x40)\n      tag_162\n      swap2\n      swap1\n      tag_163\n      jump\t// in\n    tag_162:\n      mload(0x40)\n      dup1\n      swap2\n      sub\n      swap1\n      keccak256\n        /* \"contracts/LunchVenue_updated.sol\":6166:6224  keccak256(bytes(restaurants[i])) == keccak256(bytes(name)) */\n      eq\n        /* \"contracts/LunchVenue_updated.sol\":6162:6294  if (keccak256(bytes(restaurants[i])) == keccak256(bytes(name))) {... */\n      iszero\n      tag_164\n      jumpi\n        /* \"contracts/LunchVenue_updated.sol\":6244:6279  revert(\"Restaurant already exists\") */\n      mload(0x40)\n      0x08c379a000000000000000000000000000000000000000000000000000000000\n      dup2\n      mstore\n      0x04\n      add\n      tag_165\n      swap1\n      tag_166\n      jump\t// in\n    tag_165:\n      mload(0x40)\n      dup1\n      swap2\n      sub\n      swap1\n      revert\n        /* \"contracts/LunchVenue_updated.sol\":6162:6294  if (keccak256(bytes(restaurants[i])) == keccak256(bytes(name))) {... */\n    tag_164:\n        /* \"contracts/LunchVenue_updated.sol\":6384:6387  ++i */\n      dup1\n      0x01\n      add\n      swap1\n      pop\n        /* \"contracts/LunchVenue_updated.sol\":6109:6412  for (uint i = 1; i <= numRestaurants;) {... */\n      jump(tag_159)\n    tag_160:\n      pop\n        /* \"contracts/LunchVenue_updated.sol\":6421:6435  numRestaurants */\n      0x02\n      0x00\n        /* \"contracts/LunchVenue_updated.sol\":6421:6437  numRestaurants++ */\n      dup2\n      sload\n      dup1\n      swap3\n      swap2\n      swap1\n      tag_167\n      swap1\n      tag_100\n      jump\t// in\n    tag_167:\n      swap2\n      swap1\n      pop\n      sstore\n      pop\n        /* \"contracts/LunchVenue_updated.sol\":6477:6481  name */\n      dup2\n        /* \"contracts/LunchVenue_updated.sol\":6447:6458  restaurants */\n      0x00\n        /* \"contracts/LunchVenue_updated.sol\":6447:6474  restaurants[numRestaurants] */\n      dup1\n        /* \"contracts/LunchVenue_updated.sol\":6459:6473  numRestaurants */\n      sload(0x02)\n        /* \"contracts/LunchVenue_updated.sol\":6447:6474  restaurants[numRestaurants] */\n      dup2\n      mstore\n      0x20\n      add\n      swap1\n      dup2\n      mstore\n      0x20\n      add\n      0x00\n      keccak256\n        /* \"contracts/LunchVenue_updated.sol\":6447:6481  restaurants[numRestaurants] = name */\n      swap1\n      dup1\n      mload\n      swap1\n      0x20\n      add\n      swap1\n      tag_168\n      swap3\n      swap2\n      swap1\n      tag_146\n      jump\t// in\n    tag_168:\n      pop\n        /* \"contracts/LunchVenue_updated.sol\":6498:6512  numRestaurants */\n      sload(0x02)\n        /* \"contracts/LunchVenue_updated.sol\":6491:6512  return numRestaurants */\n      swap1\n      pop\n        /* \"contracts/LunchVenue_updated.sol\":5954:6519  function addRestaurant(string memory name) public restricted creatingState returns (uint) {... */\n      swap2\n      swap1\n      pop\n      jump\t// out\n        /* \"contracts/LunchVenue_updated.sol\":5451:5478  bool public voteOpen = true */\n    tag_59:\n      0x09\n      0x00\n      swap1\n      sload\n      swap1\n      0x0100\n      exp\n      swap1\n      div\n      0xff\n      and\n      dup2\n      jump\t// out\n        /* \"contracts/LunchVenue_updated.sol\":8890:8972  function cancelVoting() public restricted {... */\n    tag_62:\n        /* \"contracts/LunchVenue_updated.sol\":10040:10047  manager */\n      immutable(\"0x77c32b454bb61eb9df9e3848d0ded3e59753acda90ae58befe564733aec82e4c\")\n        /* \"contracts/LunchVenue_updated.sol\":10026:10047  msg.sender == manager */\n      0xffffffffffffffffffffffffffffffffffffffff\n      and\n        /* \"contracts/LunchVenue_updated.sol\":10026:10036  msg.sender */\n      caller\n        /* \"contracts/LunchVenue_updated.sol\":10026:10047  msg.sender == manager */\n      0xffffffffffffffffffffffffffffffffffffffff\n      and\n      eq\n        /* \"contracts/LunchVenue_updated.sol\":10018:10087  require(msg.sender == manager, \"Can only be executed by the manager\") */\n      tag_170\n      jumpi\n      mload(0x40)\n      0x08c379a000000000000000000000000000000000000000000000000000000000\n      dup2\n      mstore\n      0x04\n      add\n      tag_171\n      swap1\n      tag_124\n      jump\t// in\n    tag_171:\n      mload(0x40)\n      dup1\n      swap2\n      sub\n      swap1\n      revert\n    tag_170:\n        /* \"contracts/LunchVenue_updated.sol\":8950:8965  State.Cancelled */\n      0x03\n        /* \"contracts/LunchVenue_updated.sol\":8942:8947  state */\n      0x05\n      0x00\n        /* \"contracts/LunchVenue_updated.sol\":8942:8965  state = State.Cancelled */\n      0x0100\n      exp\n      dup2\n      sload\n      dup2\n      0xff\n      mul\n      not\n      and\n      swap1\n      dup4\n      0x03\n      dup2\n      gt\n      iszero\n      tag_173\n      jumpi\n      tag_174\n      tag_84\n      jump\t// in\n    tag_174:\n    tag_173:\n      mul\n      or\n      swap1\n      sstore\n      pop\n        /* \"contracts/LunchVenue_updated.sol\":8890:8972  function cancelVoting() public restricted {... */\n      jump\t// out\n        /* \"contracts/LunchVenue_updated.sol\":5069:5089  uint public numVotes */\n    tag_64:\n      sload(0x04)\n      dup2\n      jump\t// out\n        /* \"contracts/LunchVenue_updated.sol\":4832:4875  mapping (uint => string) public restaurants */\n    tag_68:\n      mstore(0x20, 0x00)\n      dup1\n      0x00\n      mstore\n      keccak256(0x00, 0x40)\n      0x00\n      swap2\n      pop\n      swap1\n      pop\n      dup1\n      sload\n      tag_175\n      swap1\n      tag_92\n      jump\t// in\n    tag_175:\n      dup1\n      0x1f\n      add\n      0x20\n      dup1\n      swap2\n      div\n      mul\n      0x20\n      add\n      mload(0x40)\n      swap1\n      dup2\n      add\n      0x40\n      mstore\n      dup1\n      swap3\n      swap2\n      swap1\n      dup2\n      dup2\n      mstore\n      0x20\n      add\n      dup3\n      dup1\n      sload\n      tag_176\n      swap1\n      tag_92\n      jump\t// in\n    tag_176:\n      dup1\n      iszero\n      tag_177\n      jumpi\n      dup1\n      0x1f\n      lt\n      tag_178\n      jumpi\n      0x0100\n      dup1\n      dup4\n      sload\n      div\n      mul\n      dup4\n      mstore\n      swap2\n      0x20\n      add\n      swap2\n      jump(tag_177)\n    tag_178:\n      dup3\n      add\n      swap2\n      swap1\n      0x00\n      mstore\n      keccak256(0x00, 0x20)\n      swap1\n    tag_179:\n      dup2\n      sload\n      dup2\n      mstore\n      swap1\n      0x01\n      add\n      swap1\n      0x20\n      add\n      dup1\n      dup4\n      gt\n      tag_179\n      jumpi\n      dup3\n      swap1\n      sub\n      0x1f\n      and\n      dup3\n      add\n      swap2\n    tag_177:\n      pop\n      pop\n      pop\n      pop\n      pop\n      dup2\n      jump\t// out\n        /* \"contracts/LunchVenue_updated.sol\":5009:5035  uint public numRestaurants */\n    tag_72:\n      sload(0x02)\n      dup2\n      jump\t// out\n        /* \"contracts/LunchVenue_updated.sol\":5201:5219  State public state */\n    tag_75:\n      0x05\n      0x00\n      swap1\n      sload\n      swap1\n      0x0100\n      exp\n      swap1\n      div\n      0xff\n      and\n      dup2\n      jump\t// out\n        /* \"contracts/LunchVenue_updated.sol\":5225:5254  string public votedRestaurant */\n    tag_79:\n      0x06\n      dup1\n      sload\n      tag_180\n      swap1\n      tag_92\n      jump\t// in\n    tag_180:\n      dup1\n      0x1f\n      add\n      0x20\n      dup1\n      swap2\n      div\n      mul\n      0x20\n      add\n      mload(0x40)\n      swap1\n      dup2\n      add\n      0x40\n      mstore\n      dup1\n      swap3\n      swap2\n      swap1\n      dup2\n      dup2\n      mstore\n      0x20\n      add\n      dup3\n      dup1\n      sload\n      tag_181\n      swap1\n      tag_92\n      jump\t// in\n    tag_181:\n      dup1\n      iszero\n      tag_182\n      jumpi\n      dup1\n      0x1f\n      lt\n      tag_183\n      jumpi\n      0x0100\n      dup1\n      dup4\n      sload\n      div\n      mul\n      dup4\n      mstore\n      swap2\n      0x20\n      add\n      swap2\n      jump(tag_182)\n    tag_183:\n      dup3\n      add\n      swap2\n      swap1\n      0x00\n      mstore\n      keccak256(0x00, 0x20)\n      swap1\n    tag_184:\n      dup2\n      sload\n      dup2\n      mstore\n      swap1\n      0x01\n      add\n      swap1\n      0x20\n      add\n      dup1\n      dup4\n      gt\n      tag_184\n      jumpi\n      dup3\n      swap1\n      sub\n      0x1f\n      and\n      dup3\n      add\n      swap2\n    tag_182:\n      pop\n      pop\n      pop\n      pop\n      pop\n      dup2\n      jump\t// out\n        /* \"contracts/LunchVenue_updated.sol\":9126:9927  function finalResult() private {... */\n    tag_107:\n        /* \"contracts/LunchVenue_updated.sol\":9167:9184  uint highestVotes */\n      0x00\n        /* \"contracts/LunchVenue_updated.sol\":9194:9216  uint highestRestaurant */\n      dup1\n        /* \"contracts/LunchVenue_updated.sol\":9231:9237  uint i */\n      0x00\n        /* \"contracts/LunchVenue_updated.sol\":9240:9241  1 */\n      0x01\n        /* \"contracts/LunchVenue_updated.sol\":9231:9241  uint i = 1 */\n      swap1\n      pop\n        /* \"contracts/LunchVenue_updated.sol\":9226:9789  for (uint i = 1; i <= numVotes; ) { //For each vote... */\n    tag_186:\n        /* \"contracts/LunchVenue_updated.sol\":9248:9256  numVotes */\n      sload(0x04)\n        /* \"contracts/LunchVenue_updated.sol\":9243:9244  i */\n      dup2\n        /* \"contracts/LunchVenue_updated.sol\":9243:9256  i <= numVotes */\n      gt\n        /* \"contracts/LunchVenue_updated.sol\":9226:9789  for (uint i = 1; i <= numVotes; ) { //For each vote... */\n      tag_187\n      jumpi\n        /* \"contracts/LunchVenue_updated.sol\":9290:9304  uint voteCount */\n      0x00\n        /* \"contracts/LunchVenue_updated.sol\":9307:9308  1 */\n      0x01\n        /* \"contracts/LunchVenue_updated.sol\":9290:9308  uint voteCount = 1 */\n      swap1\n      pop\n        /* \"contracts/LunchVenue_updated.sol\":9358:9359  0 */\n      0x00\n        /* \"contracts/LunchVenue_updated.sol\":9326:9334  _results */\n      0x08\n        /* \"contracts/LunchVenue_updated.sol\":9326:9355  _results[votes[i].restaurant] */\n      0x00\n        /* \"contracts/LunchVenue_updated.sol\":9335:9340  votes */\n      0x07\n        /* \"contracts/LunchVenue_updated.sol\":9335:9343  votes[i] */\n      0x00\n        /* \"contracts/LunchVenue_updated.sol\":9341:9342  i */\n      dup7\n        /* \"contracts/LunchVenue_updated.sol\":9335:9343  votes[i] */\n      dup2\n      mstore\n      0x20\n      add\n      swap1\n      dup2\n      mstore\n      0x20\n      add\n      0x00\n      keccak256\n        /* \"contracts/LunchVenue_updated.sol\":9335:9354  votes[i].restaurant */\n      0x01\n      add\n      sload\n        /* \"contracts/LunchVenue_updated.sol\":9326:9355  _results[votes[i].restaurant] */\n      dup2\n      mstore\n      0x20\n      add\n      swap1\n      dup2\n      mstore\n      0x20\n      add\n      0x00\n      keccak256\n      sload\n        /* \"contracts/LunchVenue_updated.sol\":9326:9359  _results[votes[i].restaurant] > 0 */\n      gt\n        /* \"contracts/LunchVenue_updated.sol\":9322:9462  if (_results[votes[i].restaurant] > 0) { // Already start counting... */\n      iszero\n      tag_189\n      jumpi\n        /* \"contracts/LunchVenue_updated.sol\":9418:9426  _results */\n      0x08\n        /* \"contracts/LunchVenue_updated.sol\":9418:9447  _results[votes[i].restaurant] */\n      0x00\n        /* \"contracts/LunchVenue_updated.sol\":9427:9432  votes */\n      0x07\n        /* \"contracts/LunchVenue_updated.sol\":9427:9435  votes[i] */\n      0x00\n        /* \"contracts/LunchVenue_updated.sol\":9433:9434  i */\n      dup6\n        /* \"contracts/LunchVenue_updated.sol\":9427:9435  votes[i] */\n      dup2\n      mstore\n      0x20\n      add\n      swap1\n      dup2\n      mstore\n      0x20\n      add\n      0x00\n      keccak256\n        /* \"contracts/LunchVenue_updated.sol\":9427:9446  votes[i].restaurant */\n      0x01\n      add\n      sload\n        /* \"contracts/LunchVenue_updated.sol\":9418:9447  _results[votes[i].restaurant] */\n      dup2\n      mstore\n      0x20\n      add\n      swap1\n      dup2\n      mstore\n      0x20\n      add\n      0x00\n      keccak256\n      sload\n        /* \"contracts/LunchVenue_updated.sol\":9405:9447  voteCount += _results[votes[i].restaurant] */\n      dup2\n      tag_190\n      swap2\n      swap1\n      tag_104\n      jump\t// in\n    tag_190:\n      swap1\n      pop\n        /* \"contracts/LunchVenue_updated.sol\":9322:9462  if (_results[votes[i].restaurant] > 0) { // Already start counting... */\n    tag_189:\n        /* \"contracts/LunchVenue_updated.sol\":9507:9516  voteCount */\n      dup1\n        /* \"contracts/LunchVenue_updated.sol\":9475:9483  _results */\n      0x08\n        /* \"contracts/LunchVenue_updated.sol\":9475:9504  _results[votes[i].restaurant] */\n      0x00\n        /* \"contracts/LunchVenue_updated.sol\":9484:9489  votes */\n      0x07\n        /* \"contracts/LunchVenue_updated.sol\":9484:9492  votes[i] */\n      0x00\n        /* \"contracts/LunchVenue_updated.sol\":9490:9491  i */\n      dup7\n        /* \"contracts/LunchVenue_updated.sol\":9484:9492  votes[i] */\n      dup2\n      mstore\n      0x20\n      add\n      swap1\n      dup2\n      mstore\n      0x20\n      add\n      0x00\n      keccak256\n        /* \"contracts/LunchVenue_updated.sol\":9484:9503  votes[i].restaurant */\n      0x01\n      add\n      sload\n        /* \"contracts/LunchVenue_updated.sol\":9475:9504  _results[votes[i].restaurant] */\n      dup2\n      mstore\n      0x20\n      add\n      swap1\n      dup2\n      mstore\n      0x20\n      add\n      0x00\n      keccak256\n        /* \"contracts/LunchVenue_updated.sol\":9475:9516  _results[votes[i].restaurant] = voteCount */\n      dup2\n      swap1\n      sstore\n      pop\n        /* \"contracts/LunchVenue_updated.sol\":9545:9557  highestVotes */\n      dup4\n        /* \"contracts/LunchVenue_updated.sol\":9533:9542  voteCount */\n      dup2\n        /* \"contracts/LunchVenue_updated.sol\":9533:9557  voteCount > highestVotes */\n      gt\n        /* \"contracts/LunchVenue_updated.sol\":9530:9671  if(voteCount > highestVotes) { // New winner highestVotes = voteCount;... */\n      iszero\n      tag_191\n      jumpi\n        /* \"contracts/LunchVenue_updated.sol\":9637:9642  votes */\n      0x07\n        /* \"contracts/LunchVenue_updated.sol\":9637:9645  votes[i] */\n      0x00\n        /* \"contracts/LunchVenue_updated.sol\":9643:9644  i */\n      dup4\n        /* \"contracts/LunchVenue_updated.sol\":9637:9645  votes[i] */\n      dup2\n      mstore\n      0x20\n      add\n      swap1\n      dup2\n      mstore\n      0x20\n      add\n      0x00\n      keccak256\n        /* \"contracts/LunchVenue_updated.sol\":9637:9656  votes[i].restaurant */\n      0x01\n      add\n      sload\n        /* \"contracts/LunchVenue_updated.sol\":9617:9656  highestRestaurant = votes[i].restaurant */\n      swap3\n      pop\n        /* \"contracts/LunchVenue_updated.sol\":9530:9671  if(voteCount > highestVotes) { // New winner highestVotes = voteCount;... */\n    tag_191:\n        /* \"contracts/LunchVenue_updated.sol\":9761:9764  ++i */\n      dup2\n      0x01\n      add\n      swap2\n      pop\n        /* \"contracts/LunchVenue_updated.sol\":9260:9789  { //For each vote... */\n      pop\n        /* \"contracts/LunchVenue_updated.sol\":9226:9789  for (uint i = 1; i <= numVotes; ) { //For each vote... */\n      jump(tag_186)\n    tag_187:\n      pop\n        /* \"contracts/LunchVenue_updated.sol\":9816:9827  restaurants */\n      0x00\n        /* \"contracts/LunchVenue_updated.sol\":9816:9846  restaurants[highestRestaurant] */\n      dup1\n        /* \"contracts/LunchVenue_updated.sol\":9828:9845  highestRestaurant */\n      dup3\n        /* \"contracts/LunchVenue_updated.sol\":9816:9846  restaurants[highestRestaurant] */\n      dup2\n      mstore\n      0x20\n      add\n      swap1\n      dup2\n      mstore\n      0x20\n      add\n      0x00\n      keccak256\n        /* \"contracts/LunchVenue_updated.sol\":9798:9813  votedRestaurant */\n      0x06\n        /* \"contracts/LunchVenue_updated.sol\":9798:9846  votedRestaurant = restaurants[highestRestaurant] */\n      swap1\n      dup1\n      sload\n      tag_192\n      swap1\n      tag_92\n      jump\t// in\n    tag_192:\n      tag_193\n      swap3\n      swap2\n      swap1\n      tag_194\n      jump\t// in\n    tag_193:\n      pop\n        /* \"contracts/LunchVenue_updated.sol\":9884:9896  State.Closed */\n      0x02\n        /* \"contracts/LunchVenue_updated.sol\":9876:9881  state */\n      0x05\n      0x00\n        /* \"contracts/LunchVenue_updated.sol\":9876:9896  state = State.Closed */\n      0x0100\n      exp\n      dup2\n      sload\n      dup2\n      0xff\n      mul\n      not\n      and\n      swap1\n      dup4\n      0x03\n      dup2\n      gt\n      iszero\n      tag_195\n      jumpi\n      tag_196\n      tag_84\n      jump\t// in\n    tag_196:\n    tag_195:\n      mul\n      or\n      swap1\n      sstore\n      pop\n        /* \"contracts/LunchVenue_updated.sol\":9157:9927  {... */\n      pop\n      pop\n        /* \"contracts/LunchVenue_updated.sol\":9126:9927  function finalResult() private {... */\n      jump\t// out\n    tag_98:\n      mload(0x40)\n      dup1\n      0x40\n      add\n      0x40\n      mstore\n      dup1\n      and(0xffffffffffffffffffffffffffffffffffffffff, 0x00)\n      dup2\n      mstore\n      0x20\n      add\n      0x00\n      dup2\n      mstore\n      pop\n      swap1\n      jump\t// out\n    tag_144:\n      mload(0x40)\n      dup1\n      0x40\n      add\n      0x40\n      mstore\n      dup1\n      0x60\n      dup2\n      mstore\n      0x20\n      add\n      iszero(iszero(0x00))\n      dup2\n      mstore\n      pop\n      swap1\n      jump\t// out\n    tag_146:\n      dup3\n      dup1\n      sload\n      tag_197\n      swap1\n      tag_92\n      jump\t// in\n    tag_197:\n      swap1\n      0x00\n      mstore\n      keccak256(0x00, 0x20)\n      swap1\n      0x1f\n      add\n      0x20\n      swap1\n      div\n      dup2\n      add\n      swap3\n      dup3\n      tag_199\n      jumpi\n      0x00\n      dup6\n      sstore\n      jump(tag_198)\n    tag_199:\n      dup3\n      0x1f\n      lt\n      tag_200\n      jumpi\n      dup1\n      mload\n      not(0xff)\n      and\n      dup4\n      dup1\n      add\n      or\n      dup6\n      sstore\n      jump(tag_198)\n    tag_200:\n      dup3\n      dup1\n      add\n      0x01\n      add\n      dup6\n      sstore\n      dup3\n      iszero\n      tag_198\n      jumpi\n      swap2\n      dup3\n      add\n    tag_201:\n      dup3\n      dup2\n      gt\n      iszero\n      tag_202\n      jumpi\n      dup3\n      mload\n      dup3\n      sstore\n      swap2\n      0x20\n      add\n      swap2\n      swap1\n      0x01\n      add\n      swap1\n      jump(tag_201)\n    tag_202:\n    tag_198:\n      pop\n      swap1\n      pop\n      tag_203\n      swap2\n      swap1\n      tag_204\n      jump\t// in\n    tag_203:\n      pop\n      swap1\n      jump\t// out\n    tag_194:\n      dup3\n      dup1\n      sload\n      tag_205\n      swap1\n      tag_92\n      jump\t// in\n    tag_205:\n      swap1\n      0x00\n      mstore\n      keccak256(0x00, 0x20)\n      swap1\n      0x1f\n      add\n      0x20\n      swap1\n      div\n      dup2\n      add\n      swap3\n      dup3\n      tag_207\n      jumpi\n      0x00\n      dup6\n      sstore\n      jump(tag_206)\n    tag_207:\n      dup3\n      0x1f\n      lt\n      tag_208\n      jumpi\n      dup1\n      sload\n      dup6\n      sstore\n      jump(tag_206)\n    tag_208:\n      dup3\n      dup1\n      add\n      0x01\n      add\n      dup6\n      sstore\n      dup3\n      iszero\n      tag_206\n      jumpi\n      0x00\n      mstore\n      keccak256(0x00, 0x20)\n      swap2\n      0x1f\n      add\n      0x20\n      swap1\n      div\n      dup3\n      add\n    tag_209:\n      dup3\n      dup2\n      gt\n      iszero\n      tag_210\n      jumpi\n      dup3\n      sload\n      dup3\n      sstore\n      swap2\n      0x01\n      add\n      swap2\n      swap1\n      0x01\n      add\n      swap1\n      jump(tag_209)\n    tag_210:\n    tag_206:\n      pop\n      swap1\n      pop\n      tag_211\n      swap2\n      swap1\n      tag_204\n      jump\t// in\n    tag_211:\n      pop\n      swap1\n      jump\t// out\n    tag_204:\n    tag_212:\n      dup1\n      dup3\n      gt\n      iszero\n      tag_213\n      jumpi\n      0x00\n      dup2\n      0x00\n      swap1\n      sstore\n      pop\n      0x01\n      add\n      jump(tag_212)\n    tag_213:\n      pop\n      swap1\n      jump\t// out\n        /* \"#utility.yul\":7:419   */\n    tag_215:\n        /* \"#utility.yul\":85:90   */\n      0x00\n        /* \"#utility.yul\":110:176   */\n      tag_217\n        /* \"#utility.yul\":126:175   */\n      tag_218\n        /* \"#utility.yul\":168:174   */\n      dup5\n        /* \"#utility.yul\":126:175   */\n      tag_219\n      jump\t// in\n    tag_218:\n        /* \"#utility.yul\":110:176   */\n      tag_220\n      jump\t// in\n    tag_217:\n        /* \"#utility.yul\":101:176   */\n      swap1\n      pop\n        /* \"#utility.yul\":199:205   */\n      dup3\n        /* \"#utility.yul\":192:197   */\n      dup2\n        /* \"#utility.yul\":185:206   */\n      mstore\n        /* \"#utility.yul\":237:241   */\n      0x20\n        /* \"#utility.yul\":230:235   */\n      dup2\n        /* \"#utility.yul\":226:242   */\n      add\n        /* \"#utility.yul\":275:278   */\n      dup5\n        /* \"#utility.yul\":266:272   */\n      dup5\n        /* \"#utility.yul\":261:264   */\n      dup5\n        /* \"#utility.yul\":257:273   */\n      add\n        /* \"#utility.yul\":254:279   */\n      gt\n        /* \"#utility.yul\":251:253   */\n      iszero\n      tag_221\n      jumpi\n        /* \"#utility.yul\":282:361   */\n      tag_222\n      tag_223\n      jump\t// in\n    tag_222:\n        /* \"#utility.yul\":251:253   */\n    tag_221:\n        /* \"#utility.yul\":372:413   */\n      tag_224\n        /* \"#utility.yul\":406:412   */\n      dup5\n        /* \"#utility.yul\":401:404   */\n      dup3\n        /* \"#utility.yul\":396:399   */\n      dup6\n        /* \"#utility.yul\":372:413   */\n      tag_225\n      jump\t// in\n    tag_224:\n        /* \"#utility.yul\":91:419   */\n      pop\n      swap4\n      swap3\n      pop\n      pop\n      pop\n      jump\t// out\n        /* \"#utility.yul\":425:564   */\n    tag_226:\n        /* \"#utility.yul\":471:476   */\n      0x00\n        /* \"#utility.yul\":509:515   */\n      dup2\n        /* \"#utility.yul\":496:516   */\n      calldataload\n        /* \"#utility.yul\":487:516   */\n      swap1\n      pop\n        /* \"#utility.yul\":525:558   */\n      tag_228\n        /* \"#utility.yul\":552:557   */\n      dup2\n        /* \"#utility.yul\":525:558   */\n      tag_229\n      jump\t// in\n    tag_228:\n        /* \"#utility.yul\":477:564   */\n      swap3\n      swap2\n      pop\n      pop\n      jump\t// out\n        /* \"#utility.yul\":584:924   */\n    tag_230:\n        /* \"#utility.yul\":640:645   */\n      0x00\n        /* \"#utility.yul\":689:692   */\n      dup3\n        /* \"#utility.yul\":682:686   */\n      0x1f\n        /* \"#utility.yul\":674:680   */\n      dup4\n        /* \"#utility.yul\":670:687   */\n      add\n        /* \"#utility.yul\":666:693   */\n      slt\n        /* \"#utility.yul\":656:658   */\n      tag_232\n      jumpi\n        /* \"#utility.yul\":697:776   */\n      tag_233\n      tag_234\n      jump\t// in\n    tag_233:\n        /* \"#utility.yul\":656:658   */\n    tag_232:\n        /* \"#utility.yul\":814:820   */\n      dup2\n        /* \"#utility.yul\":801:821   */\n      calldataload\n        /* \"#utility.yul\":839:918   */\n      tag_235\n        /* \"#utility.yul\":914:917   */\n      dup5\n        /* \"#utility.yul\":906:912   */\n      dup3\n        /* \"#utility.yul\":899:903   */\n      0x20\n        /* \"#utility.yul\":891:897   */\n      dup7\n        /* \"#utility.yul\":887:904   */\n      add\n        /* \"#utility.yul\":839:918   */\n      tag_215\n      jump\t// in\n    tag_235:\n        /* \"#utility.yul\":830:918   */\n      swap2\n      pop\n        /* \"#utility.yul\":646:924   */\n      pop\n      swap3\n      swap2\n      pop\n      pop\n      jump\t// out\n        /* \"#utility.yul\":930:1069   */\n    tag_236:\n        /* \"#utility.yul\":976:981   */\n      0x00\n        /* \"#utility.yul\":1014:1020   */\n      dup2\n        /* \"#utility.yul\":1001:1021   */\n      calldataload\n        /* \"#utility.yul\":992:1021   */\n      swap1\n      pop\n        /* \"#utility.yul\":1030:1063   */\n      tag_238\n        /* \"#utility.yul\":1057:1062   */\n      dup2\n        /* \"#utility.yul\":1030:1063   */\n      tag_239\n      jump\t// in\n    tag_238:\n        /* \"#utility.yul\":982:1069   */\n      swap3\n      swap2\n      pop\n      pop\n      jump\t// out\n        /* \"#utility.yul\":1075:1404   */\n    tag_29:\n        /* \"#utility.yul\":1134:1140   */\n      0x00\n        /* \"#utility.yul\":1183:1185   */\n      0x20\n        /* \"#utility.yul\":1171:1180   */\n      dup3\n        /* \"#utility.yul\":1162:1169   */\n      dup5\n        /* \"#utility.yul\":1158:1181   */\n      sub\n        /* \"#utility.yul\":1154:1186   */\n      slt\n        /* \"#utility.yul\":1151:1153   */\n      iszero\n      tag_241\n      jumpi\n        /* \"#utility.yul\":1189:1268   */\n      tag_242\n      tag_243\n      jump\t// in\n    tag_242:\n        /* \"#utility.yul\":1151:1153   */\n    tag_241:\n        /* \"#utility.yul\":1309:1310   */\n      0x00\n        /* \"#utility.yul\":1334:1387   */\n      tag_244\n        /* \"#utility.yul\":1379:1386   */\n      dup5\n        /* \"#utility.yul\":1370:1376   */\n      dup3\n        /* \"#utility.yul\":1359:1368   */\n      dup6\n        /* \"#utility.yul\":1355:1377   */\n      add\n        /* \"#utility.yul\":1334:1387   */\n      tag_226\n      jump\t// in\n    tag_244:\n        /* \"#utility.yul\":1324:1387   */\n      swap2\n      pop\n        /* \"#utility.yul\":1280:1397   */\n      pop\n        /* \"#utility.yul\":1141:1404   */\n      swap3\n      swap2\n      pop\n      pop\n      jump\t// out\n        /* \"#utility.yul\":1410:2064   */\n    tag_37:\n        /* \"#utility.yul\":1488:1494   */\n      0x00\n        /* \"#utility.yul\":1496:1502   */\n      dup1\n        /* \"#utility.yul\":1545:1547   */\n      0x40\n        /* \"#utility.yul\":1533:1542   */\n      dup4\n        /* \"#utility.yul\":1524:1531   */\n      dup6\n        /* \"#utility.yul\":1520:1543   */\n      sub\n        /* \"#utility.yul\":1516:1548   */\n      slt\n        /* \"#utility.yul\":1513:1515   */\n      iszero\n      tag_246\n      jumpi\n        /* \"#utility.yul\":1551:1630   */\n      tag_247\n      tag_243\n      jump\t// in\n    tag_247:\n        /* \"#utility.yul\":1513:1515   */\n    tag_246:\n        /* \"#utility.yul\":1671:1672   */\n      0x00\n        /* \"#utility.yul\":1696:1749   */\n      tag_248\n        /* \"#utility.yul\":1741:1748   */\n      dup6\n        /* \"#utility.yul\":1732:1738   */\n      dup3\n        /* \"#utility.yul\":1721:1730   */\n      dup7\n        /* \"#utility.yul\":1717:1739   */\n      add\n        /* \"#utility.yul\":1696:1749   */\n      tag_226\n      jump\t// in\n    tag_248:\n        /* \"#utility.yul\":1686:1749   */\n      swap3\n      pop\n        /* \"#utility.yul\":1642:1759   */\n      pop\n        /* \"#utility.yul\":1826:1828   */\n      0x20\n        /* \"#utility.yul\":1815:1824   */\n      dup4\n        /* \"#utility.yul\":1811:1829   */\n      add\n        /* \"#utility.yul\":1798:1830   */\n      calldataload\n        /* \"#utility.yul\":1857:1875   */\n      0xffffffffffffffff\n        /* \"#utility.yul\":1849:1855   */\n      dup2\n        /* \"#utility.yul\":1846:1876   */\n      gt\n        /* \"#utility.yul\":1843:1845   */\n      iszero\n      tag_249\n      jumpi\n        /* \"#utility.yul\":1879:1958   */\n      tag_250\n      tag_251\n      jump\t// in\n    tag_250:\n        /* \"#utility.yul\":1843:1845   */\n    tag_249:\n        /* \"#utility.yul\":1984:2047   */\n      tag_252\n        /* \"#utility.yul\":2039:2046   */\n      dup6\n        /* \"#utility.yul\":2030:2036   */\n      dup3\n        /* \"#utility.yul\":2019:2028   */\n      dup7\n        /* \"#utility.yul\":2015:2037   */\n      add\n        /* \"#utility.yul\":1984:2047   */\n      tag_230\n      jump\t// in\n    tag_252:\n        /* \"#utility.yul\":1974:2047   */\n      swap2\n      pop\n        /* \"#utility.yul\":1769:2057   */\n      pop\n        /* \"#utility.yul\":1503:2064   */\n      swap3\n      pop\n      swap3\n      swap1\n      pop\n      jump\t// out\n        /* \"#utility.yul\":2070:2579   */\n    tag_55:\n        /* \"#utility.yul\":2139:2145   */\n      0x00\n        /* \"#utility.yul\":2188:2190   */\n      0x20\n        /* \"#utility.yul\":2176:2185   */\n      dup3\n        /* \"#utility.yul\":2167:2174   */\n      dup5\n        /* \"#utility.yul\":2163:2186   */\n      sub\n        /* \"#utility.yul\":2159:2191   */\n      slt\n        /* \"#utility.yul\":2156:2158   */\n      iszero\n      tag_254\n      jumpi\n        /* \"#utility.yul\":2194:2273   */\n      tag_255\n      tag_243\n      jump\t// in\n    tag_255:\n        /* \"#utility.yul\":2156:2158   */\n    tag_254:\n        /* \"#utility.yul\":2342:2343   */\n      0x00\n        /* \"#utility.yul\":2331:2340   */\n      dup3\n        /* \"#utility.yul\":2327:2344   */\n      add\n        /* \"#utility.yul\":2314:2345   */\n      calldataload\n        /* \"#utility.yul\":2372:2390   */\n      0xffffffffffffffff\n        /* \"#utility.yul\":2364:2370   */\n      dup2\n        /* \"#utility.yul\":2361:2391   */\n      gt\n        /* \"#utility.yul\":2358:2360   */\n      iszero\n      tag_256\n      jumpi\n        /* \"#utility.yul\":2394:2473   */\n      tag_257\n      tag_251\n      jump\t// in\n    tag_257:\n        /* \"#utility.yul\":2358:2360   */\n    tag_256:\n        /* \"#utility.yul\":2499:2562   */\n      tag_258\n        /* \"#utility.yul\":2554:2561   */\n      dup5\n        /* \"#utility.yul\":2545:2551   */\n      dup3\n        /* \"#utility.yul\":2534:2543   */\n      dup6\n        /* \"#utility.yul\":2530:2552   */\n      add\n        /* \"#utility.yul\":2499:2562   */\n      tag_230\n      jump\t// in\n    tag_258:\n        /* \"#utility.yul\":2489:2562   */\n      swap2\n      pop\n        /* \"#utility.yul\":2285:2572   */\n      pop\n        /* \"#utility.yul\":2146:2579   */\n      swap3\n      swap2\n      pop\n      pop\n      jump\t// out\n        /* \"#utility.yul\":2585:2914   */\n    tag_23:\n        /* \"#utility.yul\":2644:2650   */\n      0x00\n        /* \"#utility.yul\":2693:2695   */\n      0x20\n        /* \"#utility.yul\":2681:2690   */\n      dup3\n        /* \"#utility.yul\":2672:2679   */\n      dup5\n        /* \"#utility.yul\":2668:2691   */\n      sub\n        /* \"#utility.yul\":2664:2696   */\n      slt\n        /* \"#utility.yul\":2661:2663   */\n      iszero\n      tag_260\n      jumpi\n        /* \"#utility.yul\":2699:2778   */\n      tag_261\n      tag_243\n      jump\t// in\n    tag_261:\n        /* \"#utility.yul\":2661:2663   */\n    tag_260:\n        /* \"#utility.yul\":2819:2820   */\n      0x00\n        /* \"#utility.yul\":2844:2897   */\n      tag_262\n        /* \"#utility.yul\":2889:2896   */\n      dup5\n        /* \"#utility.yul\":2880:2886   */\n      dup3\n        /* \"#utility.yul\":2869:2878   */\n      dup6\n        /* \"#utility.yul\":2865:2887   */\n      add\n        /* \"#utility.yul\":2844:2897   */\n      tag_236\n      jump\t// in\n    tag_262:\n        /* \"#utility.yul\":2834:2897   */\n      swap2\n      pop\n        /* \"#utility.yul\":2790:2907   */\n      pop\n        /* \"#utility.yul\":2651:2914   */\n      swap3\n      swap2\n      pop\n      pop\n      jump\t// out\n        /* \"#utility.yul\":2920:3038   */\n    tag_263:\n        /* \"#utility.yul\":3007:3031   */\n      tag_265\n        /* \"#utility.yul\":3025:3030   */\n      dup2\n        /* \"#utility.yul\":3007:3031   */\n      tag_266\n      jump\t// in\n    tag_265:\n        /* \"#utility.yul\":3002:3005   */\n      dup3\n        /* \"#utility.yul\":2995:3032   */\n      mstore\n        /* \"#utility.yul\":2985:3038   */\n      pop\n      pop\n      jump\t// out\n        /* \"#utility.yul\":3044:3153   */\n    tag_267:\n        /* \"#utility.yul\":3125:3146   */\n      tag_269\n        /* \"#utility.yul\":3140:3145   */\n      dup2\n        /* \"#utility.yul\":3125:3146   */\n      tag_270\n      jump\t// in\n    tag_269:\n        /* \"#utility.yul\":3120:3123   */\n      dup3\n        /* \"#utility.yul\":3113:3147   */\n      mstore\n        /* \"#utility.yul\":3103:3153   */\n      pop\n      pop\n      jump\t// out\n        /* \"#utility.yul\":3181:4030   */\n    tag_271:\n        /* \"#utility.yul\":3286:3289   */\n      0x00\n        /* \"#utility.yul\":3323:3328   */\n      dup2\n        /* \"#utility.yul\":3317:3329   */\n      sload\n        /* \"#utility.yul\":3352:3388   */\n      tag_273\n        /* \"#utility.yul\":3378:3387   */\n      dup2\n        /* \"#utility.yul\":3352:3388   */\n      tag_92\n      jump\t// in\n    tag_273:\n        /* \"#utility.yul\":3404:3492   */\n      tag_274\n        /* \"#utility.yul\":3485:3491   */\n      dup2\n        /* \"#utility.yul\":3480:3483   */\n      dup7\n        /* \"#utility.yul\":3404:3492   */\n      tag_275\n      jump\t// in\n    tag_274:\n        /* \"#utility.yul\":3397:3492   */\n      swap5\n      pop\n        /* \"#utility.yul\":3523:3524   */\n      0x01\n        /* \"#utility.yul\":3512:3521   */\n      dup3\n        /* \"#utility.yul\":3508:3525   */\n      and\n        /* \"#utility.yul\":3539:3540   */\n      0x00\n        /* \"#utility.yul\":3534:3671   */\n      dup2\n      eq\n      tag_277\n      jumpi\n        /* \"#utility.yul\":3685:3686   */\n      0x01\n        /* \"#utility.yul\":3680:4024   */\n      dup2\n      eq\n      tag_278\n      jumpi\n        /* \"#utility.yul\":3501:4024   */\n      jump(tag_276)\n        /* \"#utility.yul\":3534:3671   */\n    tag_277:\n        /* \"#utility.yul\":3618:3622   */\n      0xff\n        /* \"#utility.yul\":3614:3623   */\n      not\n        /* \"#utility.yul\":3603:3612   */\n      dup4\n        /* \"#utility.yul\":3599:3624   */\n      and\n        /* \"#utility.yul\":3594:3597   */\n      dup7\n        /* \"#utility.yul\":3587:3625   */\n      mstore\n        /* \"#utility.yul\":3654:3660   */\n      dup2\n        /* \"#utility.yul\":3649:3652   */\n      dup7\n        /* \"#utility.yul\":3645:3661   */\n      add\n        /* \"#utility.yul\":3638:3661   */\n      swap4\n      pop\n        /* \"#utility.yul\":3534:3671   */\n      jump(tag_276)\n        /* \"#utility.yul\":3680:4024   */\n    tag_278:\n        /* \"#utility.yul\":3747:3788   */\n      tag_279\n        /* \"#utility.yul\":3782:3787   */\n      dup6\n        /* \"#utility.yul\":3747:3788   */\n      tag_280\n      jump\t// in\n    tag_279:\n        /* \"#utility.yul\":3810:3811   */\n      0x00\n        /* \"#utility.yul\":3824:3978   */\n    tag_281:\n        /* \"#utility.yul\":3838:3844   */\n      dup4\n        /* \"#utility.yul\":3835:3836   */\n      dup2\n        /* \"#utility.yul\":3832:3845   */\n      lt\n        /* \"#utility.yul\":3824:3978   */\n      iszero\n      tag_283\n      jumpi\n        /* \"#utility.yul\":3912:3919   */\n      dup2\n        /* \"#utility.yul\":3906:3920   */\n      sload\n        /* \"#utility.yul\":3902:3903   */\n      dup2\n        /* \"#utility.yul\":3897:3900   */\n      dup10\n        /* \"#utility.yul\":3893:3904   */\n      add\n        /* \"#utility.yul\":3886:3921   */\n      mstore\n        /* \"#utility.yul\":3962:3963   */\n      0x01\n        /* \"#utility.yul\":3953:3960   */\n      dup3\n        /* \"#utility.yul\":3949:3964   */\n      add\n        /* \"#utility.yul\":3938:3964   */\n      swap2\n      pop\n        /* \"#utility.yul\":3860:3864   */\n      0x20\n        /* \"#utility.yul\":3857:3858   */\n      dup2\n        /* \"#utility.yul\":3853:3865   */\n      add\n        /* \"#utility.yul\":3848:3865   */\n      swap1\n      pop\n        /* \"#utility.yul\":3824:3978   */\n      jump(tag_281)\n    tag_283:\n        /* \"#utility.yul\":4007:4013   */\n      dup4\n        /* \"#utility.yul\":4002:4005   */\n      dup9\n        /* \"#utility.yul\":3998:4014   */\n      add\n        /* \"#utility.yul\":3991:4014   */\n      swap6\n      pop\n        /* \"#utility.yul\":3687:4024   */\n      pop\n      pop\n        /* \"#utility.yul\":3501:4024   */\n    tag_276:\n      pop\n        /* \"#utility.yul\":3290:4030   */\n      pop\n      pop\n      swap3\n      swap2\n      pop\n      pop\n      jump\t// out\n        /* \"#utility.yul\":4036:4179   */\n    tag_284:\n        /* \"#utility.yul\":4129:4172   */\n      tag_286\n        /* \"#utility.yul\":4166:4171   */\n      dup2\n        /* \"#utility.yul\":4129:4172   */\n      tag_287\n      jump\t// in\n    tag_286:\n        /* \"#utility.yul\":4124:4127   */\n      dup3\n        /* \"#utility.yul\":4117:4173   */\n      mstore\n        /* \"#utility.yul\":4107:4179   */\n      pop\n      pop\n      jump\t// out\n        /* \"#utility.yul\":4185:4549   */\n    tag_288:\n        /* \"#utility.yul\":4273:4276   */\n      0x00\n        /* \"#utility.yul\":4301:4340   */\n      tag_290\n        /* \"#utility.yul\":4334:4339   */\n      dup3\n        /* \"#utility.yul\":4301:4340   */\n      tag_291\n      jump\t// in\n    tag_290:\n        /* \"#utility.yul\":4356:4427   */\n      tag_292\n        /* \"#utility.yul\":4420:4426   */\n      dup2\n        /* \"#utility.yul\":4415:4418   */\n      dup6\n        /* \"#utility.yul\":4356:4427   */\n      tag_293\n      jump\t// in\n    tag_292:\n        /* \"#utility.yul\":4349:4427   */\n      swap4\n      pop\n        /* \"#utility.yul\":4436:4488   */\n      tag_294\n        /* \"#utility.yul\":4481:4487   */\n      dup2\n        /* \"#utility.yul\":4476:4479   */\n      dup6\n        /* \"#utility.yul\":4469:4473   */\n      0x20\n        /* \"#utility.yul\":4462:4467   */\n      dup7\n        /* \"#utility.yul\":4458:4474   */\n      add\n        /* \"#utility.yul\":4436:4488   */\n      tag_295\n      jump\t// in\n    tag_294:\n        /* \"#utility.yul\":4513:4542   */\n      tag_296\n        /* \"#utility.yul\":4535:4541   */\n      dup2\n        /* \"#utility.yul\":4513:4542   */\n      tag_297\n      jump\t// in\n    tag_296:\n        /* \"#utility.yul\":4508:4511   */\n      dup5\n        /* \"#utility.yul\":4504:4543   */\n      add\n        /* \"#utility.yul\":4497:4543   */\n      swap2\n      pop\n        /* \"#utility.yul\":4277:4549   */\n      pop\n      swap3\n      swap2\n      pop\n      pop\n      jump\t// out\n        /* \"#utility.yul\":4555:4921   */\n    tag_298:\n        /* \"#utility.yul\":4697:4700   */\n      0x00\n        /* \"#utility.yul\":4718:4785   */\n      tag_300\n        /* \"#utility.yul\":4782:4784   */\n      0x19\n        /* \"#utility.yul\":4777:4780   */\n      dup4\n        /* \"#utility.yul\":4718:4785   */\n      tag_293\n      jump\t// in\n    tag_300:\n        /* \"#utility.yul\":4711:4785   */\n      swap2\n      pop\n        /* \"#utility.yul\":4794:4887   */\n      tag_301\n        /* \"#utility.yul\":4883:4886   */\n      dup3\n        /* \"#utility.yul\":4794:4887   */\n      tag_302\n      jump\t// in\n    tag_301:\n        /* \"#utility.yul\":4912:4914   */\n      0x20\n        /* \"#utility.yul\":4907:4910   */\n      dup3\n        /* \"#utility.yul\":4903:4915   */\n      add\n        /* \"#utility.yul\":4896:4915   */\n      swap1\n      pop\n        /* \"#utility.yul\":4701:4921   */\n      swap2\n      swap1\n      pop\n      jump\t// out\n        /* \"#utility.yul\":4927:5293   */\n    tag_303:\n        /* \"#utility.yul\":5069:5072   */\n      0x00\n        /* \"#utility.yul\":5090:5157   */\n      tag_305\n        /* \"#utility.yul\":5154:5156   */\n      0x24\n        /* \"#utility.yul\":5149:5152   */\n      dup4\n        /* \"#utility.yul\":5090:5157   */\n      tag_293\n      jump\t// in\n    tag_305:\n        /* \"#utility.yul\":5083:5157   */\n      swap2\n      pop\n        /* \"#utility.yul\":5166:5259   */\n      tag_306\n        /* \"#utility.yul\":5255:5258   */\n      dup3\n        /* \"#utility.yul\":5166:5259   */\n      tag_307\n      jump\t// in\n    tag_306:\n        /* \"#utility.yul\":5284:5286   */\n      0x40\n        /* \"#utility.yul\":5279:5282   */\n      dup3\n        /* \"#utility.yul\":5275:5287   */\n      add\n        /* \"#utility.yul\":5268:5287   */\n      swap1\n      pop\n        /* \"#utility.yul\":5073:5293   */\n      swap2\n      swap1\n      pop\n      jump\t// out\n        /* \"#utility.yul\":5299:5665   */\n    tag_308:\n        /* \"#utility.yul\":5441:5444   */\n      0x00\n        /* \"#utility.yul\":5462:5529   */\n      tag_310\n        /* \"#utility.yul\":5526:5528   */\n      0x26\n        /* \"#utility.yul\":5521:5524   */\n      dup4\n        /* \"#utility.yul\":5462:5529   */\n      tag_293\n      jump\t// in\n    tag_310:\n        /* \"#utility.yul\":5455:5529   */\n      swap2\n      pop\n        /* \"#utility.yul\":5538:5631   */\n      tag_311\n        /* \"#utility.yul\":5627:5630   */\n      dup3\n        /* \"#utility.yul\":5538:5631   */\n      tag_312\n      jump\t// in\n    tag_311:\n        /* \"#utility.yul\":5656:5658   */\n      0x40\n        /* \"#utility.yul\":5651:5654   */\n      dup3\n        /* \"#utility.yul\":5647:5659   */\n      add\n        /* \"#utility.yul\":5640:5659   */\n      swap1\n      pop\n        /* \"#utility.yul\":5445:5665   */\n      swap2\n      swap1\n      pop\n      jump\t// out\n        /* \"#utility.yul\":5671:6037   */\n    tag_313:\n        /* \"#utility.yul\":5813:5816   */\n      0x00\n        /* \"#utility.yul\":5834:5901   */\n      tag_315\n        /* \"#utility.yul\":5898:5900   */\n      0x23\n        /* \"#utility.yul\":5893:5896   */\n      dup4\n        /* \"#utility.yul\":5834:5901   */\n      tag_293\n      jump\t// in\n    tag_315:\n        /* \"#utility.yul\":5827:5901   */\n      swap2\n      pop\n        /* \"#utility.yul\":5910:6003   */\n      tag_316\n        /* \"#utility.yul\":5999:6002   */\n      dup3\n        /* \"#utility.yul\":5910:6003   */\n      tag_317\n      jump\t// in\n    tag_316:\n        /* \"#utility.yul\":6028:6030   */\n      0x40\n        /* \"#utility.yul\":6023:6026   */\n      dup3\n        /* \"#utility.yul\":6019:6031   */\n      add\n        /* \"#utility.yul\":6012:6031   */\n      swap1\n      pop\n        /* \"#utility.yul\":5817:6037   */\n      swap2\n      swap1\n      pop\n      jump\t// out\n        /* \"#utility.yul\":6043:6409   */\n    tag_318:\n        /* \"#utility.yul\":6185:6188   */\n      0x00\n        /* \"#utility.yul\":6206:6273   */\n      tag_320\n        /* \"#utility.yul\":6270:6272   */\n      0x1d\n        /* \"#utility.yul\":6265:6268   */\n      dup4\n        /* \"#utility.yul\":6206:6273   */\n      tag_293\n      jump\t// in\n    tag_320:\n        /* \"#utility.yul\":6199:6273   */\n      swap2\n      pop\n        /* \"#utility.yul\":6282:6375   */\n      tag_321\n        /* \"#utility.yul\":6371:6374   */\n      dup3\n        /* \"#utility.yul\":6282:6375   */\n      tag_322\n      jump\t// in\n    tag_321:\n        /* \"#utility.yul\":6400:6402   */\n      0x20\n        /* \"#utility.yul\":6395:6398   */\n      dup3\n        /* \"#utility.yul\":6391:6403   */\n      add\n        /* \"#utility.yul\":6384:6403   */\n      swap1\n      pop\n        /* \"#utility.yul\":6189:6409   */\n      swap2\n      swap1\n      pop\n      jump\t// out\n        /* \"#utility.yul\":6415:6533   */\n    tag_323:\n        /* \"#utility.yul\":6502:6526   */\n      tag_325\n        /* \"#utility.yul\":6520:6525   */\n      dup2\n        /* \"#utility.yul\":6502:6526   */\n      tag_326\n      jump\t// in\n    tag_325:\n        /* \"#utility.yul\":6497:6500   */\n      dup3\n        /* \"#utility.yul\":6490:6527   */\n      mstore\n        /* \"#utility.yul\":6480:6533   */\n      pop\n      pop\n      jump\t// out\n        /* \"#utility.yul\":6539:6812   */\n    tag_163:\n        /* \"#utility.yul\":6670:6673   */\n      0x00\n        /* \"#utility.yul\":6692:6786   */\n      tag_328\n        /* \"#utility.yul\":6782:6785   */\n      dup3\n        /* \"#utility.yul\":6773:6779   */\n      dup5\n        /* \"#utility.yul\":6692:6786   */\n      tag_271\n      jump\t// in\n    tag_328:\n        /* \"#utility.yul\":6685:6786   */\n      swap2\n      pop\n        /* \"#utility.yul\":6803:6806   */\n      dup2\n        /* \"#utility.yul\":6796:6806   */\n      swap1\n      pop\n        /* \"#utility.yul\":6674:6812   */\n      swap3\n      swap2\n      pop\n      pop\n      jump\t// out\n        /* \"#utility.yul\":6818:7040   */\n    tag_47:\n        /* \"#utility.yul\":6911:6915   */\n      0x00\n        /* \"#utility.yul\":6949:6951   */\n      0x20\n        /* \"#utility.yul\":6938:6947   */\n      dup3\n        /* \"#utility.yul\":6934:6952   */\n      add\n        /* \"#utility.yul\":6926:6952   */\n      swap1\n      pop\n        /* \"#utility.yul\":6962:7033   */\n      tag_330\n        /* \"#utility.yul\":7030:7031   */\n      0x00\n        /* \"#utility.yul\":7019:7028   */\n      dup4\n        /* \"#utility.yul\":7015:7032   */\n      add\n        /* \"#utility.yul\":7006:7012   */\n      dup5\n        /* \"#utility.yul\":6962:7033   */\n      tag_263\n      jump\t// in\n    tag_330:\n        /* \"#utility.yul\":6916:7040   */\n      swap3\n      swap2\n      pop\n      pop\n      jump\t// out\n        /* \"#utility.yul\":7046:7378   */\n    tag_52:\n        /* \"#utility.yul\":7167:7171   */\n      0x00\n        /* \"#utility.yul\":7205:7207   */\n      0x40\n        /* \"#utility.yul\":7194:7203   */\n      dup3\n        /* \"#utility.yul\":7190:7208   */\n      add\n        /* \"#utility.yul\":7182:7208   */\n      swap1\n      pop\n        /* \"#utility.yul\":7218:7289   */\n      tag_332\n        /* \"#utility.yul\":7286:7287   */\n      0x00\n        /* \"#utility.yul\":7275:7284   */\n      dup4\n        /* \"#utility.yul\":7271:7288   */\n      add\n        /* \"#utility.yul\":7262:7268   */\n      dup6\n        /* \"#utility.yul\":7218:7289   */\n      tag_263\n      jump\t// in\n    tag_332:\n        /* \"#utility.yul\":7299:7371   */\n      tag_333\n        /* \"#utility.yul\":7367:7369   */\n      0x20\n        /* \"#utility.yul\":7356:7365   */\n      dup4\n        /* \"#utility.yul\":7352:7370   */\n      add\n        /* \"#utility.yul\":7343:7349   */\n      dup5\n        /* \"#utility.yul\":7299:7371   */\n      tag_323\n      jump\t// in\n    tag_333:\n        /* \"#utility.yul\":7172:7378   */\n      swap4\n      swap3\n      pop\n      pop\n      pop\n      jump\t// out\n        /* \"#utility.yul\":7384:7594   */\n    tag_26:\n        /* \"#utility.yul\":7471:7475   */\n      0x00\n        /* \"#utility.yul\":7509:7511   */\n      0x20\n        /* \"#utility.yul\":7498:7507   */\n      dup3\n        /* \"#utility.yul\":7494:7512   */\n      add\n        /* \"#utility.yul\":7486:7512   */\n      swap1\n      pop\n        /* \"#utility.yul\":7522:7587   */\n      tag_335\n        /* \"#utility.yul\":7584:7585   */\n      0x00\n        /* \"#utility.yul\":7573:7582   */\n      dup4\n        /* \"#utility.yul\":7569:7586   */\n      add\n        /* \"#utility.yul\":7560:7566   */\n      dup5\n        /* \"#utility.yul\":7522:7587   */\n      tag_267\n      jump\t// in\n    tag_335:\n        /* \"#utility.yul\":7476:7594   */\n      swap3\n      swap2\n      pop\n      pop\n      jump\t// out\n        /* \"#utility.yul\":7600:7834   */\n    tag_77:\n        /* \"#utility.yul\":7699:7703   */\n      0x00\n        /* \"#utility.yul\":7737:7739   */\n      0x20\n        /* \"#utility.yul\":7726:7735   */\n      dup3\n        /* \"#utility.yul\":7722:7740   */\n      add\n        /* \"#utility.yul\":7714:7740   */\n      swap1\n      pop\n        /* \"#utility.yul\":7750:7827   */\n      tag_337\n        /* \"#utility.yul\":7824:7825   */\n      0x00\n        /* \"#utility.yul\":7813:7822   */\n      dup4\n        /* \"#utility.yul\":7809:7826   */\n      add\n        /* \"#utility.yul\":7800:7806   */\n      dup5\n        /* \"#utility.yul\":7750:7827   */\n      tag_284\n      jump\t// in\n    tag_337:\n        /* \"#utility.yul\":7704:7834   */\n      swap3\n      swap2\n      pop\n      pop\n      jump\t// out\n        /* \"#utility.yul\":7840:8153   */\n    tag_70:\n        /* \"#utility.yul\":7953:7957   */\n      0x00\n        /* \"#utility.yul\":7991:7993   */\n      0x20\n        /* \"#utility.yul\":7980:7989   */\n      dup3\n        /* \"#utility.yul\":7976:7994   */\n      add\n        /* \"#utility.yul\":7968:7994   */\n      swap1\n      pop\n        /* \"#utility.yul\":8040:8049   */\n      dup2\n        /* \"#utility.yul\":8034:8038   */\n      dup2\n        /* \"#utility.yul\":8030:8050   */\n      sub\n        /* \"#utility.yul\":8026:8027   */\n      0x00\n        /* \"#utility.yul\":8015:8024   */\n      dup4\n        /* \"#utility.yul\":8011:8028   */\n      add\n        /* \"#utility.yul\":8004:8051   */\n      mstore\n        /* \"#utility.yul\":8068:8146   */\n      tag_339\n        /* \"#utility.yul\":8141:8145   */\n      dup2\n        /* \"#utility.yul\":8132:8138   */\n      dup5\n        /* \"#utility.yul\":8068:8146   */\n      tag_288\n      jump\t// in\n    tag_339:\n        /* \"#utility.yul\":8060:8146   */\n      swap1\n      pop\n        /* \"#utility.yul\":7958:8153   */\n      swap3\n      swap2\n      pop\n      pop\n      jump\t// out\n        /* \"#utility.yul\":8159:8570   */\n    tag_32:\n        /* \"#utility.yul\":8294:8298   */\n      0x00\n        /* \"#utility.yul\":8332:8334   */\n      0x40\n        /* \"#utility.yul\":8321:8330   */\n      dup3\n        /* \"#utility.yul\":8317:8335   */\n      add\n        /* \"#utility.yul\":8309:8335   */\n      swap1\n      pop\n        /* \"#utility.yul\":8381:8390   */\n      dup2\n        /* \"#utility.yul\":8375:8379   */\n      dup2\n        /* \"#utility.yul\":8371:8391   */\n      sub\n        /* \"#utility.yul\":8367:8368   */\n      0x00\n        /* \"#utility.yul\":8356:8365   */\n      dup4\n        /* \"#utility.yul\":8352:8369   */\n      add\n        /* \"#utility.yul\":8345:8392   */\n      mstore\n        /* \"#utility.yul\":8409:8487   */\n      tag_341\n        /* \"#utility.yul\":8482:8486   */\n      dup2\n        /* \"#utility.yul\":8473:8479   */\n      dup6\n        /* \"#utility.yul\":8409:8487   */\n      tag_288\n      jump\t// in\n    tag_341:\n        /* \"#utility.yul\":8401:8487   */\n      swap1\n      pop\n        /* \"#utility.yul\":8497:8563   */\n      tag_342\n        /* \"#utility.yul\":8559:8561   */\n      0x20\n        /* \"#utility.yul\":8548:8557   */\n      dup4\n        /* \"#utility.yul\":8544:8562   */\n      add\n        /* \"#utility.yul\":8535:8541   */\n      dup5\n        /* \"#utility.yul\":8497:8563   */\n      tag_267\n      jump\t// in\n    tag_342:\n        /* \"#utility.yul\":8299:8570   */\n      swap4\n      swap3\n      pop\n      pop\n      pop\n      jump\t// out\n        /* \"#utility.yul\":8576:8995   */\n    tag_166:\n        /* \"#utility.yul\":8742:8746   */\n      0x00\n        /* \"#utility.yul\":8780:8782   */\n      0x20\n        /* \"#utility.yul\":8769:8778   */\n      dup3\n        /* \"#utility.yul\":8765:8783   */\n      add\n        /* \"#utility.yul\":8757:8783   */\n      swap1\n      pop\n        /* \"#utility.yul\":8829:8838   */\n      dup2\n        /* \"#utility.yul\":8823:8827   */\n      dup2\n        /* \"#utility.yul\":8819:8839   */\n      sub\n        /* \"#utility.yul\":8815:8816   */\n      0x00\n        /* \"#utility.yul\":8804:8813   */\n      dup4\n        /* \"#utility.yul\":8800:8817   */\n      add\n        /* \"#utility.yul\":8793:8840   */\n      mstore\n        /* \"#utility.yul\":8857:8988   */\n      tag_344\n        /* \"#utility.yul\":8983:8987   */\n      dup2\n        /* \"#utility.yul\":8857:8988   */\n      tag_298\n      jump\t// in\n    tag_344:\n        /* \"#utility.yul\":8849:8988   */\n      swap1\n      pop\n        /* \"#utility.yul\":8747:8995   */\n      swap2\n      swap1\n      pop\n      jump\t// out\n        /* \"#utility.yul\":9001:9420   */\n    tag_89:\n        /* \"#utility.yul\":9167:9171   */\n      0x00\n        /* \"#utility.yul\":9205:9207   */\n      0x20\n        /* \"#utility.yul\":9194:9203   */\n      dup3\n        /* \"#utility.yul\":9190:9208   */\n      add\n        /* \"#utility.yul\":9182:9208   */\n      swap1\n      pop\n        /* \"#utility.yul\":9254:9263   */\n      dup2\n        /* \"#utility.yul\":9248:9252   */\n      dup2\n        /* \"#utility.yul\":9244:9264   */\n      sub\n        /* \"#utility.yul\":9240:9241   */\n      0x00\n        /* \"#utility.yul\":9229:9238   */\n      dup4\n        /* \"#utility.yul\":9225:9242   */\n      add\n        /* \"#utility.yul\":9218:9265   */\n      mstore\n        /* \"#utility.yul\":9282:9413   */\n      tag_346\n        /* \"#utility.yul\":9408:9412   */\n      dup2\n        /* \"#utility.yul\":9282:9413   */\n      tag_303\n      jump\t// in\n    tag_346:\n        /* \"#utility.yul\":9274:9413   */\n      swap1\n      pop\n        /* \"#utility.yul\":9172:9420   */\n      swap2\n      swap1\n      pop\n      jump\t// out\n        /* \"#utility.yul\":9426:9845   */\n    tag_120:\n        /* \"#utility.yul\":9592:9596   */\n      0x00\n        /* \"#utility.yul\":9630:9632   */\n      0x20\n        /* \"#utility.yul\":9619:9628   */\n      dup3\n        /* \"#utility.yul\":9615:9633   */\n      add\n        /* \"#utility.yul\":9607:9633   */\n      swap1\n      pop\n        /* \"#utility.yul\":9679:9688   */\n      dup2\n        /* \"#utility.yul\":9673:9677   */\n      dup2\n        /* \"#utility.yul\":9669:9689   */\n      sub\n        /* \"#utility.yul\":9665:9666   */\n      0x00\n        /* \"#utility.yul\":9654:9663   */\n      dup4\n        /* \"#utility.yul\":9650:9667   */\n      add\n        /* \"#utility.yul\":9643:9690   */\n      mstore\n        /* \"#utility.yul\":9707:9838   */\n      tag_348\n        /* \"#utility.yul\":9833:9837   */\n      dup2\n        /* \"#utility.yul\":9707:9838   */\n      tag_308\n      jump\t// in\n    tag_348:\n        /* \"#utility.yul\":9699:9838   */\n      swap1\n      pop\n        /* \"#utility.yul\":9597:9845   */\n      swap2\n      swap1\n      pop\n      jump\t// out\n        /* \"#utility.yul\":9851:10270   */\n    tag_124:\n        /* \"#utility.yul\":10017:10021   */\n      0x00\n        /* \"#utility.yul\":10055:10057   */\n      0x20\n        /* \"#utility.yul\":10044:10053   */\n      dup3\n        /* \"#utility.yul\":10040:10058   */\n      add\n        /* \"#utility.yul\":10032:10058   */\n      swap1\n      pop\n        /* \"#utility.yul\":10104:10113   */\n      dup2\n        /* \"#utility.yul\":10098:10102   */\n      dup2\n        /* \"#utility.yul\":10094:10114   */\n      sub\n        /* \"#utility.yul\":10090:10091   */\n      0x00\n        /* \"#utility.yul\":10079:10088   */\n      dup4\n        /* \"#utility.yul\":10075:10092   */\n      add\n        /* \"#utility.yul\":10068:10115   */\n      mstore\n        /* \"#utility.yul\":10132:10263   */\n      tag_350\n        /* \"#utility.yul\":10258:10262   */\n      dup2\n        /* \"#utility.yul\":10132:10263   */\n      tag_313\n      jump\t// in\n    tag_350:\n        /* \"#utility.yul\":10124:10263   */\n      swap1\n      pop\n        /* \"#utility.yul\":10022:10270   */\n      swap2\n      swap1\n      pop\n      jump\t// out\n        /* \"#utility.yul\":10276:10695   */\n    tag_142:\n        /* \"#utility.yul\":10442:10446   */\n      0x00\n        /* \"#utility.yul\":10480:10482   */\n      0x20\n        /* \"#utility.yul\":10469:10478   */\n      dup3\n        /* \"#utility.yul\":10465:10483   */\n      add\n        /* \"#utility.yul\":10457:10483   */\n      swap1\n      pop\n        /* \"#utility.yul\":10529:10538   */\n      dup2\n        /* \"#utility.yul\":10523:10527   */\n      dup2\n        /* \"#utility.yul\":10519:10539   */\n      sub\n        /* \"#utility.yul\":10515:10516   */\n      0x00\n        /* \"#utility.yul\":10504:10513   */\n      dup4\n        /* \"#utility.yul\":10500:10517   */\n      add\n        /* \"#utility.yul\":10493:10540   */\n      mstore\n        /* \"#utility.yul\":10557:10688   */\n      tag_352\n        /* \"#utility.yul\":10683:10687   */\n      dup2\n        /* \"#utility.yul\":10557:10688   */\n      tag_318\n      jump\t// in\n    tag_352:\n        /* \"#utility.yul\":10549:10688   */\n      swap1\n      pop\n        /* \"#utility.yul\":10447:10695   */\n      swap2\n      swap1\n      pop\n      jump\t// out\n        /* \"#utility.yul\":10701:10923   */\n    tag_40:\n        /* \"#utility.yul\":10794:10798   */\n      0x00\n        /* \"#utility.yul\":10832:10834   */\n      0x20\n        /* \"#utility.yul\":10821:10830   */\n      dup3\n        /* \"#utility.yul\":10817:10835   */\n      add\n        /* \"#utility.yul\":10809:10835   */\n      swap1\n      pop\n        /* \"#utility.yul\":10845:10916   */\n      tag_354\n        /* \"#utility.yul\":10913:10914   */\n      0x00\n        /* \"#utility.yul\":10902:10911   */\n      dup4\n        /* \"#utility.yul\":10898:10915   */\n      add\n        /* \"#utility.yul\":10889:10895   */\n      dup5\n        /* \"#utility.yul\":10845:10916   */\n      tag_323\n      jump\t// in\n    tag_354:\n        /* \"#utility.yul\":10799:10923   */\n      swap3\n      swap2\n      pop\n      pop\n      jump\t// out\n        /* \"#utility.yul\":10929:11058   */\n    tag_220:\n        /* \"#utility.yul\":10963:10969   */\n      0x00\n        /* \"#utility.yul\":10990:11010   */\n      tag_356\n      tag_357\n      jump\t// in\n    tag_356:\n        /* \"#utility.yul\":10980:11010   */\n      swap1\n      pop\n        /* \"#utility.yul\":11019:11052   */\n      tag_358\n        /* \"#utility.yul\":11047:11051   */\n      dup3\n        /* \"#utility.yul\":11039:11045   */\n      dup3\n        /* \"#utility.yul\":11019:11052   */\n      tag_359\n      jump\t// in\n    tag_358:\n        /* \"#utility.yul\":10970:11058   */\n      swap2\n      swap1\n      pop\n      jump\t// out\n        /* \"#utility.yul\":11064:11139   */\n    tag_357:\n        /* \"#utility.yul\":11097:11103   */\n      0x00\n        /* \"#utility.yul\":11130:11132   */\n      0x40\n        /* \"#utility.yul\":11124:11133   */\n      mload\n        /* \"#utility.yul\":11114:11133   */\n      swap1\n      pop\n        /* \"#utility.yul\":11104:11139   */\n      swap1\n      jump\t// out\n        /* \"#utility.yul\":11145:11453   */\n    tag_219:\n        /* \"#utility.yul\":11207:11211   */\n      0x00\n        /* \"#utility.yul\":11297:11315   */\n      0xffffffffffffffff\n        /* \"#utility.yul\":11289:11295   */\n      dup3\n        /* \"#utility.yul\":11286:11316   */\n      gt\n        /* \"#utility.yul\":11283:11285   */\n      iszero\n      tag_362\n      jumpi\n        /* \"#utility.yul\":11319:11337   */\n      tag_363\n      tag_364\n      jump\t// in\n    tag_363:\n        /* \"#utility.yul\":11283:11285   */\n    tag_362:\n        /* \"#utility.yul\":11357:11386   */\n      tag_365\n        /* \"#utility.yul\":11379:11385   */\n      dup3\n        /* \"#utility.yul\":11357:11386   */\n      tag_297\n      jump\t// in\n    tag_365:\n        /* \"#utility.yul\":11349:11386   */\n      swap1\n      pop\n        /* \"#utility.yul\":11441:11445   */\n      0x20\n        /* \"#utility.yul\":11435:11439   */\n      dup2\n        /* \"#utility.yul\":11431:11446   */\n      add\n        /* \"#utility.yul\":11423:11446   */\n      swap1\n      pop\n        /* \"#utility.yul\":11212:11453   */\n      swap2\n      swap1\n      pop\n      jump\t// out\n        /* \"#utility.yul\":11459:11603   */\n    tag_280:\n        /* \"#utility.yul\":11511:11515   */\n      0x00\n        /* \"#utility.yul\":11534:11537   */\n      dup2\n        /* \"#utility.yul\":11526:11537   */\n      swap1\n      pop\n        /* \"#utility.yul\":11557:11560   */\n      dup2\n        /* \"#utility.yul\":11554:11555   */\n      0x00\n        /* \"#utility.yul\":11547:11561   */\n      mstore\n        /* \"#utility.yul\":11591:11595   */\n      0x20\n        /* \"#utility.yul\":11588:11589   */\n      0x00\n        /* \"#utility.yul\":11578:11596   */\n      keccak256\n        /* \"#utility.yul\":11570:11596   */\n      swap1\n      pop\n        /* \"#utility.yul\":11516:11603   */\n      swap2\n      swap1\n      pop\n      jump\t// out\n        /* \"#utility.yul\":11609:11708   */\n    tag_291:\n        /* \"#utility.yul\":11661:11667   */\n      0x00\n        /* \"#utility.yul\":11695:11700   */\n      dup2\n        /* \"#utility.yul\":11689:11701   */\n      mload\n        /* \"#utility.yul\":11679:11701   */\n      swap1\n      pop\n        /* \"#utility.yul\":11668:11708   */\n      swap2\n      swap1\n      pop\n      jump\t// out\n        /* \"#utility.yul\":11714:11861   */\n    tag_275:\n        /* \"#utility.yul\":11815:11826   */\n      0x00\n        /* \"#utility.yul\":11852:11855   */\n      dup2\n        /* \"#utility.yul\":11837:11855   */\n      swap1\n      pop\n        /* \"#utility.yul\":11827:11861   */\n      swap3\n      swap2\n      pop\n      pop\n      jump\t// out\n        /* \"#utility.yul\":11867:12036   */\n    tag_293:\n        /* \"#utility.yul\":11951:11962   */\n      0x00\n        /* \"#utility.yul\":11985:11991   */\n      dup3\n        /* \"#utility.yul\":11980:11983   */\n      dup3\n        /* \"#utility.yul\":11973:11992   */\n      mstore\n        /* \"#utility.yul\":12025:12029   */\n      0x20\n        /* \"#utility.yul\":12020:12023   */\n      dup3\n        /* \"#utility.yul\":12016:12030   */\n      add\n        /* \"#utility.yul\":12001:12030   */\n      swap1\n      pop\n        /* \"#utility.yul\":11963:12036   */\n      swap3\n      swap2\n      pop\n      pop\n      jump\t// out\n        /* \"#utility.yul\":12042:12347   */\n    tag_104:\n        /* \"#utility.yul\":12082:12085   */\n      0x00\n        /* \"#utility.yul\":12101:12121   */\n      tag_371\n        /* \"#utility.yul\":12119:12120   */\n      dup3\n        /* \"#utility.yul\":12101:12121   */\n      tag_326\n      jump\t// in\n    tag_371:\n        /* \"#utility.yul\":12096:12121   */\n      swap2\n      pop\n        /* \"#utility.yul\":12135:12155   */\n      tag_372\n        /* \"#utility.yul\":12153:12154   */\n      dup4\n        /* \"#utility.yul\":12135:12155   */\n      tag_326\n      jump\t// in\n    tag_372:\n        /* \"#utility.yul\":12130:12155   */\n      swap3\n      pop\n        /* \"#utility.yul\":12289:12290   */\n      dup3\n        /* \"#utility.yul\":12221:12287   */\n      0xffffffffffffffffffffffffffffffffffffffffffffffffffffffffffffffff\n        /* \"#utility.yul\":12217:12291   */\n      sub\n        /* \"#utility.yul\":12214:12215   */\n      dup3\n        /* \"#utility.yul\":12211:12292   */\n      gt\n        /* \"#utility.yul\":12208:12210   */\n      iszero\n      tag_373\n      jumpi\n        /* \"#utility.yul\":12295:12313   */\n      tag_374\n      tag_375\n      jump\t// in\n    tag_374:\n        /* \"#utility.yul\":12208:12210   */\n    tag_373:\n        /* \"#utility.yul\":12339:12340   */\n      dup3\n        /* \"#utility.yul\":12336:12337   */\n      dup3\n        /* \"#utility.yul\":12332:12341   */\n      add\n        /* \"#utility.yul\":12325:12341   */\n      swap1\n      pop\n        /* \"#utility.yul\":12086:12347   */\n      swap3\n      swap2\n      pop\n      pop\n      jump\t// out\n        /* \"#utility.yul\":12353:12538   */\n    tag_102:\n        /* \"#utility.yul\":12393:12394   */\n      0x00\n        /* \"#utility.yul\":12410:12430   */\n      tag_377\n        /* \"#utility.yul\":12428:12429   */\n      dup3\n        /* \"#utility.yul\":12410:12430   */\n      tag_326\n      jump\t// in\n    tag_377:\n        /* \"#utility.yul\":12405:12430   */\n      swap2\n      pop\n        /* \"#utility.yul\":12444:12464   */\n      tag_378\n        /* \"#utility.yul\":12462:12463   */\n      dup4\n        /* \"#utility.yul\":12444:12464   */\n      tag_326\n      jump\t// in\n    tag_378:\n        /* \"#utility.yul\":12439:12464   */\n      swap3\n      pop\n        /* \"#utility.yul\":12483:12484   */\n      dup3\n        /* \"#utility.yul\":12473:12475   */\n      tag_379\n      jumpi\n        /* \"#utility.yul\":12488:12506   */\n      tag_380\n      tag_381\n      jump\t// in\n    tag_380:\n        /* \"#utility.yul\":12473:12475   */\n    tag_379:\n        /* \"#utility.yul\":12530:12531   */\n      dup3\n        /* \"#utility.yul\":12527:12528   */\n      dup3\n        /* \"#utility.yul\":12523:12532   */\n      div\n        /* \"#utility.yul\":12518:12532   */\n      swap1\n      pop\n        /* \"#utility.yul\":12395:12538   */\n      swap3\n      swap2\n      pop\n      pop\n      jump\t// out\n        /* \"#utility.yul\":12544:12640   */\n    tag_266:\n        /* \"#utility.yul\":12581:12588   */\n      0x00\n        /* \"#utility.yul\":12610:12634   */\n      tag_383\n        /* \"#utility.yul\":12628:12633   */\n      dup3\n        /* \"#utility.yul\":12610:12634   */\n      tag_384\n      jump\t// in\n    tag_383:\n        /* \"#utility.yul\":12599:12634   */\n      swap1\n      pop\n        /* \"#utility.yul\":12589:12640   */\n      swap2\n      swap1\n      pop\n      jump\t// out\n        /* \"#utility.yul\":12646:12736   */\n    tag_270:\n        /* \"#utility.yul\":12680:12687   */\n      0x00\n        /* \"#utility.yul\":12723:12728   */\n      dup2\n        /* \"#utility.yul\":12716:12729   */\n      iszero\n        /* \"#utility.yul\":12709:12730   */\n      iszero\n        /* \"#utility.yul\":12698:12730   */\n      swap1\n      pop\n        /* \"#utility.yul\":12688:12736   */\n      swap2\n      swap1\n      pop\n      jump\t// out\n        /* \"#utility.yul\":12742:12869   */\n    tag_386:\n        /* \"#utility.yul\":12787:12794   */\n      0x00\n        /* \"#utility.yul\":12816:12821   */\n      dup2\n        /* \"#utility.yul\":12805:12821   */\n      swap1\n      pop\n        /* \"#utility.yul\":12822:12863   */\n      tag_388\n        /* \"#utility.yul\":12857:12862   */\n      dup3\n        /* \"#utility.yul\":12822:12863   */\n      tag_389\n      jump\t// in\n    tag_388:\n        /* \"#utility.yul\":12795:12869   */\n      swap2\n      swap1\n      pop\n      jump\t// out\n        /* \"#utility.yul\":12875:13001   */\n    tag_384:\n        /* \"#utility.yul\":12912:12919   */\n      0x00\n        /* \"#utility.yul\":12952:12994   */\n      0xffffffffffffffffffffffffffffffffffffffff\n        /* \"#utility.yul\":12945:12950   */\n      dup3\n        /* \"#utility.yul\":12941:12995   */\n      and\n        /* \"#utility.yul\":12930:12995   */\n      swap1\n      pop\n        /* \"#utility.yul\":12920:13001   */\n      swap2\n      swap1\n      pop\n      jump\t// out\n        /* \"#utility.yul\":13007:13084   */\n    tag_326:\n        /* \"#utility.yul\":13044:13051   */\n      0x00\n        /* \"#utility.yul\":13073:13078   */\n      dup2\n        /* \"#utility.yul\":13062:13078   */\n      swap1\n      pop\n        /* \"#utility.yul\":13052:13084   */\n      swap2\n      swap1\n      pop\n      jump\t// out\n        /* \"#utility.yul\":13090:13217   */\n    tag_287:\n        /* \"#utility.yul\":13146:13155   */\n      0x00\n        /* \"#utility.yul\":13179:13211   */\n      tag_393\n        /* \"#utility.yul\":13205:13210   */\n      dup3\n        /* \"#utility.yul\":13179:13211   */\n      tag_386\n      jump\t// in\n    tag_393:\n        /* \"#utility.yul\":13166:13211   */\n      swap1\n      pop\n        /* \"#utility.yul\":13156:13217   */\n      swap2\n      swap1\n      pop\n      jump\t// out\n        /* \"#utility.yul\":13223:13377   */\n    tag_225:\n        /* \"#utility.yul\":13307:13313   */\n      dup3\n        /* \"#utility.yul\":13302:13305   */\n      dup2\n        /* \"#utility.yul\":13297:13300   */\n      dup4\n        /* \"#utility.yul\":13284:13314   */\n      calldatacopy\n        /* \"#utility.yul\":13369:13370   */\n      0x00\n        /* \"#utility.yul\":13360:13366   */\n      dup4\n        /* \"#utility.yul\":13355:13358   */\n      dup4\n        /* \"#utility.yul\":13351:13367   */\n      add\n        /* \"#utility.yul\":13344:13371   */\n      mstore\n        /* \"#utility.yul\":13274:13377   */\n      pop\n      pop\n      pop\n      jump\t// out\n        /* \"#utility.yul\":13383:13690   */\n    tag_295:\n        /* \"#utility.yul\":13451:13452   */\n      0x00\n        /* \"#utility.yul\":13461:13574   */\n    tag_396:\n        /* \"#utility.yul\":13475:13481   */\n      dup4\n        /* \"#utility.yul\":13472:13473   */\n      dup2\n        /* \"#utility.yul\":13469:13482   */\n      lt\n        /* \"#utility.yul\":13461:13574   */\n      iszero\n      tag_398\n      jumpi\n        /* \"#utility.yul\":13560:13561   */\n      dup1\n        /* \"#utility.yul\":13555:13558   */\n      dup3\n        /* \"#utility.yul\":13551:13562   */\n      add\n        /* \"#utility.yul\":13545:13563   */\n      mload\n        /* \"#utility.yul\":13541:13542   */\n      dup2\n        /* \"#utility.yul\":13536:13539   */\n      dup5\n        /* \"#utility.yul\":13532:13543   */\n      add\n        /* \"#utility.yul\":13525:13564   */\n      mstore\n        /* \"#utility.yul\":13497:13499   */\n      0x20\n        /* \"#utility.yul\":13494:13495   */\n      dup2\n        /* \"#utility.yul\":13490:13500   */\n      add\n        /* \"#utility.yul\":13485:13500   */\n      swap1\n      pop\n        /* \"#utility.yul\":13461:13574   */\n      jump(tag_396)\n    tag_398:\n        /* \"#utility.yul\":13592:13598   */\n      dup4\n        /* \"#utility.yul\":13589:13590   */\n      dup2\n        /* \"#utility.yul\":13586:13599   */\n      gt\n        /* \"#utility.yul\":13583:13585   */\n      iszero\n      tag_399\n      jumpi\n        /* \"#utility.yul\":13672:13673   */\n      0x00\n        /* \"#utility.yul\":13663:13669   */\n      dup5\n        /* \"#utility.yul\":13658:13661   */\n      dup5\n        /* \"#utility.yul\":13654:13670   */\n      add\n        /* \"#utility.yul\":13647:13674   */\n      mstore\n        /* \"#utility.yul\":13583:13585   */\n    tag_399:\n        /* \"#utility.yul\":13432:13690   */\n      pop\n      pop\n      pop\n      pop\n      jump\t// out\n        /* \"#utility.yul\":13696:14016   */\n    tag_92:\n        /* \"#utility.yul\":13740:13746   */\n      0x00\n        /* \"#utility.yul\":13777:13778   */\n      0x02\n        /* \"#utility.yul\":13771:13775   */\n      dup3\n        /* \"#utility.yul\":13767:13779   */\n      div\n        /* \"#utility.yul\":13757:13779   */\n      swap1\n      pop\n        /* \"#utility.yul\":13824:13825   */\n      0x01\n        /* \"#utility.yul\":13818:13822   */\n      dup3\n        /* \"#utility.yul\":13814:13826   */\n      and\n        /* \"#utility.yul\":13845:13863   */\n      dup1\n        /* \"#utility.yul\":13835:13837   */\n      tag_401\n      jumpi\n        /* \"#utility.yul\":13901:13905   */\n      0x7f\n        /* \"#utility.yul\":13893:13899   */\n      dup3\n        /* \"#utility.yul\":13889:13906   */\n      and\n        /* \"#utility.yul\":13879:13906   */\n      swap2\n      pop\n        /* \"#utility.yul\":13835:13837   */\n    tag_401:\n        /* \"#utility.yul\":13963:13965   */\n      0x20\n        /* \"#utility.yul\":13955:13961   */\n      dup3\n        /* \"#utility.yul\":13952:13966   */\n      lt\n        /* \"#utility.yul\":13932:13950   */\n      dup2\n        /* \"#utility.yul\":13929:13967   */\n      eq\n        /* \"#utility.yul\":13926:13928   */\n      iszero\n      tag_402\n      jumpi\n        /* \"#utility.yul\":13982:14000   */\n      tag_403\n      tag_404\n      jump\t// in\n    tag_403:\n        /* \"#utility.yul\":13926:13928   */\n    tag_402:\n        /* \"#utility.yul\":13747:14016   */\n      pop\n      swap2\n      swap1\n      pop\n      jump\t// out\n        /* \"#utility.yul\":14022:14303   */\n    tag_359:\n        /* \"#utility.yul\":14105:14132   */\n      tag_406\n        /* \"#utility.yul\":14127:14131   */\n      dup3\n        /* \"#utility.yul\":14105:14132   */\n      tag_297\n      jump\t// in\n    tag_406:\n        /* \"#utility.yul\":14097:14103   */\n      dup2\n        /* \"#utility.yul\":14093:14133   */\n      add\n        /* \"#utility.yul\":14235:14241   */\n      dup2\n        /* \"#utility.yul\":14223:14233   */\n      dup2\n        /* \"#utility.yul\":14220:14242   */\n      lt\n        /* \"#utility.yul\":14199:14217   */\n      0xffffffffffffffff\n        /* \"#utility.yul\":14187:14197   */\n      dup3\n        /* \"#utility.yul\":14184:14218   */\n      gt\n        /* \"#utility.yul\":14181:14243   */\n      or\n        /* \"#utility.yul\":14178:14180   */\n      iszero\n      tag_407\n      jumpi\n        /* \"#utility.yul\":14246:14264   */\n      tag_408\n      tag_364\n      jump\t// in\n    tag_408:\n        /* \"#utility.yul\":14178:14180   */\n    tag_407:\n        /* \"#utility.yul\":14286:14296   */\n      dup1\n        /* \"#utility.yul\":14282:14284   */\n      0x40\n        /* \"#utility.yul\":14275:14297   */\n      mstore\n        /* \"#utility.yul\":14065:14303   */\n      pop\n      pop\n      pop\n      jump\t// out\n        /* \"#utility.yul\":14309:14542   */\n    tag_100:\n        /* \"#utility.yul\":14348:14351   */\n      0x00\n        /* \"#utility.yul\":14371:14395   */\n      tag_410\n        /* \"#utility.yul\":14389:14394   */\n      dup3\n        /* \"#utility.yul\":14371:14395   */\n      tag_326\n      jump\t// in\n    tag_410:\n        /* \"#utility.yul\":14362:14395   */\n      swap2\n      pop\n        /* \"#utility.yul\":14417:14483   */\n      0xffffffffffffffffffffffffffffffffffffffffffffffffffffffffffffffff\n        /* \"#utility.yul\":14410:14415   */\n      dup3\n        /* \"#utility.yul\":14407:14484   */\n      eq\n        /* \"#utility.yul\":14404:14406   */\n      iszero\n      tag_411\n      jumpi\n        /* \"#utility.yul\":14487:14505   */\n      tag_412\n      tag_375\n      jump\t// in\n    tag_412:\n        /* \"#utility.yul\":14404:14406   */\n    tag_411:\n        /* \"#utility.yul\":14534:14535   */\n      0x01\n        /* \"#utility.yul\":14527:14532   */\n      dup3\n        /* \"#utility.yul\":14523:14536   */\n      add\n        /* \"#utility.yul\":14516:14536   */\n      swap1\n      pop\n        /* \"#utility.yul\":14352:14542   */\n      swap2\n      swap1\n      pop\n      jump\t// out\n        /* \"#utility.yul\":14548:14728   */\n    tag_375:\n        /* \"#utility.yul\":14596:14673   */\n      0x4e487b7100000000000000000000000000000000000000000000000000000000\n        /* \"#utility.yul\":14593:14594   */\n      0x00\n        /* \"#utility.yul\":14586:14674   */\n      mstore\n        /* \"#utility.yul\":14693:14697   */\n      0x11\n        /* \"#utility.yul\":14690:14691   */\n      0x04\n        /* \"#utility.yul\":14683:14698   */\n      mstore\n        /* \"#utility.yul\":14717:14721   */\n      0x24\n        /* \"#utility.yul\":14714:14715   */\n      0x00\n        /* \"#utility.yul\":14707:14722   */\n      revert\n        /* \"#utility.yul\":14734:14914   */\n    tag_381:\n        /* \"#utility.yul\":14782:14859   */\n      0x4e487b7100000000000000000000000000000000000000000000000000000000\n        /* \"#utility.yul\":14779:14780   */\n      0x00\n        /* \"#utility.yul\":14772:14860   */\n      mstore\n        /* \"#utility.yul\":14879:14883   */\n      0x12\n        /* \"#utility.yul\":14876:14877   */\n      0x04\n        /* \"#utility.yul\":14869:14884   */\n      mstore\n        /* \"#utility.yul\":14903:14907   */\n      0x24\n        /* \"#utility.yul\":14900:14901   */\n      0x00\n        /* \"#utility.yul\":14893:14908   */\n      revert\n        /* \"#utility.yul\":14920:15100   */\n    tag_84:\n        /* \"#utility.yul\":14968:15045   */\n      0x4e487b7100000000000000000000000000000000000000000000000000000000\n        /* \"#utility.yul\":14965:14966   */\n      0x00\n        /* \"#utility.yul\":14958:15046   */\n      mstore\n        /* \"#utility.yul\":15065:15069   */\n      0x21\n        /* \"#utility.yul\":15062:15063   */\n      0x04\n        /* \"#utility.yul\":15055:15070   */\n      mstore\n        /* \"#utility.yul\":15089:15093   */\n      0x24\n        /* \"#utility.yul\":15086:15087   */\n      0x00\n        /* \"#utility.yul\":15079:15094   */\n      revert\n        /* \"#utility.yul\":15106:15286   */\n    tag_404:\n        /* \"#utility.yul\":15154:15231   */\n      0x4e487b7100000000000000000000000000000000000000000000000000000000\n        /* \"#utility.yul\":15151:15152   */\n      0x00\n        /* \"#utility.yul\":15144:15232   */\n      mstore\n        /* \"#utility.yul\":15251:15255   */\n      0x22\n        /* \"#utility.yul\":15248:15249   */\n      0x04\n        /* \"#utility.yul\":15241:15256   */\n      mstore\n        /* \"#utility.yul\":15275:15279   */\n      0x24\n        /* \"#utility.yul\":15272:15273   */\n      0x00\n        /* \"#utility.yul\":15265:15280   */\n      revert\n        /* \"#utility.yul\":15292:15472   */\n    tag_364:\n        /* \"#utility.yul\":15340:15417   */\n      0x4e487b7100000000000000000000000000000000000000000000000000000000\n        /* \"#utility.yul\":15337:15338   */\n      0x00\n        /* \"#utility.yul\":15330:15418   */\n      mstore\n        /* \"#utility.yul\":15437:15441   */\n      0x41\n        /* \"#utility.yul\":15434:15435   */\n      0x04\n        /* \"#utility.yul\":15427:15442   */\n      mstore\n        /* \"#utility.yul\":15461:15465   */\n      0x24\n        /* \"#utility.yul\":15458:15459   */\n      0x00\n        /* \"#utility.yul\":15451:15466   */\n      revert\n        /* \"#utility.yul\":15478:15595   */\n    tag_234:\n        /* \"#utility.yul\":15587:15588   */\n      0x00\n        /* \"#utility.yul\":15584:15585   */\n      dup1\n        /* \"#utility.yul\":15577:15589   */\n      revert\n        /* \"#utility.yul\":15601:15718   */\n    tag_223:\n        /* \"#utility.yul\":15710:15711   */\n      0x00\n        /* \"#utility.yul\":15707:15708   */\n      dup1\n        /* \"#utility.yul\":15700:15712   */\n      revert\n        /* \"#utility.yul\":15724:15841   */\n    tag_251:\n        /* \"#utility.yul\":15833:15834   */\n      0x00\n        /* \"#utility.yul\":15830:15831   */\n      dup1\n        /* \"#utility.yul\":15823:15835   */\n      revert\n        /* \"#utility.yul\":15847:15964   */\n    tag_243:\n        /* \"#utility.yul\":15956:15957   */\n      0x00\n        /* \"#utility.yul\":15953:15954   */\n      dup1\n        /* \"#utility.yul\":15946:15958   */\n      revert\n        /* \"#utility.yul\":15970:16072   */\n    tag_297:\n        /* \"#utility.yul\":16011:16017   */\n      0x00\n        /* \"#utility.yul\":16062:16064   */\n      0x1f\n        /* \"#utility.yul\":16058:16065   */\n      not\n        /* \"#utility.yul\":16053:16055   */\n      0x1f\n        /* \"#utility.yul\":16046:16051   */\n      dup4\n        /* \"#utility.yul\":16042:16056   */\n      add\n        /* \"#utility.yul\":16038:16066   */\n      and\n        /* \"#utility.yul\":16028:16066   */\n      swap1\n      pop\n        /* \"#utility.yul\":16018:16072   */\n      swap2\n      swap1\n      pop\n      jump\t// out\n        /* \"#utility.yul\":16078:16253   */\n    tag_302:\n        /* \"#utility.yul\":16218:16245   */\n      0x52657374617572616e7420616c72656164792065786973747300000000000000\n        /* \"#utility.yul\":16214:16215   */\n      0x00\n        /* \"#utility.yul\":16206:16212   */\n      dup3\n        /* \"#utility.yul\":16202:16216   */\n      add\n        /* \"#utility.yul\":16195:16246   */\n      mstore\n        /* \"#utility.yul\":16184:16253   */\n      pop\n      jump\t// out\n        /* \"#utility.yul\":16259:16482   */\n    tag_307:\n        /* \"#utility.yul\":16399:16433   */\n      0x43616e206f6e6c7920626520657865637574656420696e20766f74696e672073\n        /* \"#utility.yul\":16395:16396   */\n      0x00\n        /* \"#utility.yul\":16387:16393   */\n      dup3\n        /* \"#utility.yul\":16383:16397   */\n      add\n        /* \"#utility.yul\":16376:16434   */\n      mstore\n        /* \"#utility.yul\":16468:16474   */\n      0x7461746500000000000000000000000000000000000000000000000000000000\n        /* \"#utility.yul\":16463:16465   */\n      0x20\n        /* \"#utility.yul\":16455:16461   */\n      dup3\n        /* \"#utility.yul\":16451:16466   */\n      add\n        /* \"#utility.yul\":16444:16475   */\n      mstore\n        /* \"#utility.yul\":16365:16482   */\n      pop\n      jump\t// out\n        /* \"#utility.yul\":16488:16713   */\n    tag_312:\n        /* \"#utility.yul\":16628:16662   */\n      0x43616e206f6e6c7920626520657865637574656420696e206372656174696e67\n        /* \"#utility.yul\":16624:16625   */\n      0x00\n        /* \"#utility.yul\":16616:16622   */\n      dup3\n        /* \"#utility.yul\":16612:16626   */\n      add\n        /* \"#utility.yul\":16605:16663   */\n      mstore\n        /* \"#utility.yul\":16697:16705   */\n      0x2073746174650000000000000000000000000000000000000000000000000000\n        /* \"#utility.yul\":16692:16694   */\n      0x20\n        /* \"#utility.yul\":16684:16690   */\n      dup3\n        /* \"#utility.yul\":16680:16695   */\n      add\n        /* \"#utility.yul\":16673:16706   */\n      mstore\n        /* \"#utility.yul\":16594:16713   */\n      pop\n      jump\t// out\n        /* \"#utility.yul\":16719:16941   */\n    tag_317:\n        /* \"#utility.yul\":16859:16893   */\n      0x43616e206f6e6c7920626520657865637574656420627920746865206d616e61\n        /* \"#utility.yul\":16855:16856   */\n      0x00\n        /* \"#utility.yul\":16847:16853   */\n      dup3\n        /* \"#utility.yul\":16843:16857   */\n      add\n        /* \"#utility.yul\":16836:16894   */\n      mstore\n        /* \"#utility.yul\":16928:16933   */\n      0x6765720000000000000000000000000000000000000000000000000000000000\n        /* \"#utility.yul\":16923:16925   */\n      0x20\n        /* \"#utility.yul\":16915:16921   */\n      dup3\n        /* \"#utility.yul\":16911:16926   */\n      add\n        /* \"#utility.yul\":16904:16934   */\n      mstore\n        /* \"#utility.yul\":16825:16941   */\n      pop\n      jump\t// out\n        /* \"#utility.yul\":16947:17126   */\n    tag_322:\n        /* \"#utility.yul\":17087:17118   */\n      0x467269656e64206164647265737320616c726561647920657869737473000000\n        /* \"#utility.yul\":17083:17084   */\n      0x00\n        /* \"#utility.yul\":17075:17081   */\n      dup3\n        /* \"#utility.yul\":17071:17085   */\n      add\n        /* \"#utility.yul\":17064:17119   */\n      mstore\n        /* \"#utility.yul\":17053:17126   */\n      pop\n      jump\t// out\n        /* \"#utility.yul\":17132:17245   */\n    tag_389:\n        /* \"#utility.yul\":17213:17214   */\n      0x04\n        /* \"#utility.yul\":17206:17211   */\n      dup2\n        /* \"#utility.yul\":17203:17215   */\n      lt\n        /* \"#utility.yul\":17193:17195   */\n      tag_429\n      jumpi\n        /* \"#utility.yul\":17219:17237   */\n      tag_430\n      tag_84\n      jump\t// in\n    tag_430:\n        /* \"#utility.yul\":17193:17195   */\n    tag_429:\n        /* \"#utility.yul\":17183:17245   */\n      pop\n      jump\t// out\n        /* \"#utility.yul\":17251:17373   */\n    tag_229:\n        /* \"#utility.yul\":17324:17348   */\n      tag_432\n        /* \"#utility.yul\":17342:17347   */\n      dup2\n        /* \"#utility.yul\":17324:17348   */\n      tag_266\n      jump\t// in\n    tag_432:\n        /* \"#utility.yul\":17317:17322   */\n      dup2\n        /* \"#utility.yul\":17314:17349   */\n      eq\n        /* \"#utility.yul\":17304:17306   */\n      tag_433\n      jumpi\n        /* \"#utility.yul\":17363:17364   */\n      0x00\n        /* \"#utility.yul\":17360:17361   */\n      dup1\n        /* \"#utility.yul\":17353:17365   */\n      revert\n        /* \"#utility.yul\":17304:17306   */\n    tag_433:\n        /* \"#utility.yul\":17294:17373   */\n      pop\n      jump\t// out\n        /* \"#utility.yul\":17379:17501   */\n    tag_239:\n        /* \"#utility.yul\":17452:17476   */\n      tag_435\n        /* \"#utility.yul\":17470:17475   */\n      dup2\n        /* \"#utility.yul\":17452:17476   */\n      tag_326\n      jump\t// in\n    tag_435:\n        /* \"#utility.yul\":17445:17450   */\n      dup2\n        /* \"#utility.yul\":17442:17477   */\n      eq\n        /* \"#utility.yul\":17432:17434   */\n      tag_436\n      jumpi\n        /* \"#utility.yul\":17491:17492   */\n      0x00\n        /* \"#utility.yul\":17488:17489   */\n      dup1\n        /* \"#utility.yul\":17481:17493   */\n      revert\n        /* \"#utility.yul\":17432:17434   */\n    tag_436:\n        /* \"#utility.yul\":17422:17501   */\n      pop\n      jump\t// out\n\n    auxdata: 0xa26469706673582212207509e60b0a26f8dfc6db608f1114872c8d7c271c02fc2da65ecc030a91798a7964736f6c63430008050033\n}\n",
				"bytecode": {
					"linkReferences": {},
					"object": "60a06040526001600960006101000a81548160ff02191690831515021790555034801561002b57600080fd5b503373ffffffffffffffffffffffffffffffffffffffff1660808173ffffffffffffffffffffffffffffffffffffffff1660601b815250506000600560006101000a81548160ff0219169083600381111561008957610088610093565b5b02179055506100c2565b7f4e487b7100000000000000000000000000000000000000000000000000000000600052602160045260246000fd5b60805160601c611b2e6100fc600039600081816106e6015281816107a301528181610a0401528181610a6e0152610c5c0152611b2e6000f3fe608060405234801561001057600080fd5b50600436106100f55760003560e01c80636d77bd3e11610097578063ad5461d811610066578063ad5461d814610278578063b798867f146102a8578063c19d93fb146102c6578063c1c16efc146102e4576100f5565b80636d77bd3e14610202578063788d38511461023257806381f4b23214610250578063a3bef4d71461025a576100f5565b80633b9f708d116100d35780633b9f708d1461016557806347098f3614610195578063481c6a75146101b35780635df81330146101d1576100f5565b8063124258c6146100fa5780631ddabf7a1461012a5780631ec6b60a1461015b575b600080fd5b610114600480360381019061010f9190611285565b610302565b60405161012191906114b0565b60405180910390f35b610144600480360381019061013f91906111b3565b6105b5565b604051610152929190611508565b60405180910390f35b61016361066e565b005b61017f600480360381019061017a91906111e0565b61079f565b60405161018c91906115d8565b60405180910390f35b61019d6109fc565b6040516101aa91906115d8565b60405180910390f35b6101bb610a02565b6040516101c8919061146c565b60405180910390f35b6101eb60048036038101906101e69190611285565b610a26565b6040516101f9929190611487565b60405180910390f35b61021c6004803603810190610217919061123c565b610a6a565b60405161022991906115d8565b60405180910390f35b61023a610c47565b60405161024791906114b0565b60405180910390f35b610258610c5a565b005b610262610d15565b60405161026f91906115d8565b60405180910390f35b610292600480360381019061028d9190611285565b610d1b565b60405161029f91906114e6565b60405180910390f35b6102b0610dbb565b6040516102bd91906115d8565b60405180910390f35b6102ce610dc1565b6040516102db91906114cb565b60405180910390f35b6102ec610dd4565b6040516102f991906114e6565b60405180910390f35b600060016003811115610318576103176118c5565b5b600560009054906101000a900460ff16600381111561033a576103396118c5565b5b1461037a576040517f08c379a000000000000000000000000000000000000000000000000000000000815260040161037190611558565b60405180910390fd5b600090506000600160003373ffffffffffffffffffffffffffffffffffffffff1673ffffffffffffffffffffffffffffffffffffffff16815260200190815260200160002060000180546103cd906117bb565b9050146105845760001515600160003373ffffffffffffffffffffffffffffffffffffffff1673ffffffffffffffffffffffffffffffffffffffff16815260200190815260200160002060010160009054906101000a900460ff1615151415610583576000806000848152602001908152602001600020805461044f906117bb565b905014610582576001905060018060003373ffffffffffffffffffffffffffffffffffffffff1673ffffffffffffffffffffffffffffffffffffffff16815260200190815260200160002060010160006101000a81548160ff0219169083151502179055506104bc610f9d565b33816000019073ffffffffffffffffffffffffffffffffffffffff16908173ffffffffffffffffffffffffffffffffffffffff168152505082816020018181525050600460008154809291906105119061181e565b91905055508060076000600454815260200190815260200160002060008201518160000160006101000a81548173ffffffffffffffffffffffffffffffffffffffff021916908373ffffffffffffffffffffffffffffffffffffffff16021790555060208201518160010155905050505b5b5b6001600260035461059591906116db565b61059f9190611685565b600454106105b0576105af610e62565b5b919050565b60016020528060005260406000206000915090508060000180546105d8906117bb565b80601f0160208091040260200160405190810160405280929190818152602001828054610604906117bb565b80156106515780601f1061062657610100808354040283529160200191610651565b820191906000526020600020905b81548152906001019060200180831161063457829003601f168201915b5050505050908060010160009054906101000a900460ff16905082565b60006003811115610682576106816118c5565b5b600560009054906101000a900460ff1660038111156106a4576106a36118c5565b5b146106e4576040517f08c379a00000000000000000000000000000000000000000000000000000000081526004016106db90611578565b60405180910390fd5b7f000000000000000000000000000000000000000000000000000000000000000073ffffffffffffffffffffffffffffffffffffffff163373ffffffffffffffffffffffffffffffffffffffff1614610772576040517f08c379a000000000000000000000000000000000000000000000000000000000815260040161076990611598565b60405180910390fd5b6001600560006101000a81548160ff02191690836003811115610798576107976118c5565b5b0217905550565b60007f000000000000000000000000000000000000000000000000000000000000000073ffffffffffffffffffffffffffffffffffffffff163373ffffffffffffffffffffffffffffffffffffffff161461082f576040517f08c379a000000000000000000000000000000000000000000000000000000000815260040161082690611598565b60405180910390fd5b60006003811115610843576108426118c5565b5b600560009054906101000a900460ff166003811115610865576108646118c5565b5b146108a5576040517f08c379a000000000000000000000000000000000000000000000000000000000815260040161089c90611578565b60405180910390fd5b6000600160008573ffffffffffffffffffffffffffffffffffffffff1673ffffffffffffffffffffffffffffffffffffffff16815260200190815260200160002060000180546108f4906117bb565b905014610936576040517f08c379a000000000000000000000000000000000000000000000000000000000815260040161092d906115b8565b60405180910390fd5b61093e610fcd565b828160000181905250600081602001901515908115158152505080600160008673ffffffffffffffffffffffffffffffffffffffff1673ffffffffffffffffffffffffffffffffffffffff16815260200190815260200160002060008201518160000190805190602001906109b4929190610fe9565b5060208201518160010160006101000a81548160ff021916908315150217905550905050600360008154809291906109eb9061181e565b919050555060035491505092915050565b60035481565b7f000000000000000000000000000000000000000000000000000000000000000081565b60076020528060005260406000206000915090508060000160009054906101000a900473ffffffffffffffffffffffffffffffffffffffff16908060010154905082565b60007f000000000000000000000000000000000000000000000000000000000000000073ffffffffffffffffffffffffffffffffffffffff163373ffffffffffffffffffffffffffffffffffffffff1614610afa576040517f08c379a0000000000000000000000000000000000000000000000000000000008152600401610af190611598565b60405180910390fd5b60006003811115610b0e57610b0d6118c5565b5b600560009054906101000a900460ff166003811115610b3057610b2f6118c5565b5b14610b70576040517f08c379a0000000000000000000000000000000000000000000000000000000008152600401610b6790611578565b60405180910390fd5b6000600190505b6002548111610bfb578280519060200120600080838152602001908152602001600020604051610ba79190611455565b60405180910390201415610bf0576040517f08c379a0000000000000000000000000000000000000000000000000000000008152600401610be790611538565b60405180910390fd5b806001019050610b77565b5060026000815480929190610c0f9061181e565b91905055508160008060025481526020019081526020016000209080519060200190610c3c929190610fe9565b506002549050919050565b600960009054906101000a900460ff1681565b7f000000000000000000000000000000000000000000000000000000000000000073ffffffffffffffffffffffffffffffffffffffff163373ffffffffffffffffffffffffffffffffffffffff1614610ce8576040517f08c379a0000000000000000000000000000000000000000000000000000000008152600401610cdf90611598565b60405180910390fd5b6003600560006101000a81548160ff02191690836003811115610d0e57610d0d6118c5565b5b0217905550565b60045481565b60006020528060005260406000206000915090508054610d3a906117bb565b80601f0160208091040260200160405190810160405280929190818152602001828054610d66906117bb565b8015610db35780601f10610d8857610100808354040283529160200191610db3565b820191906000526020600020905b815481529060010190602001808311610d9657829003601f168201915b505050505081565b60025481565b600560009054906101000a900460ff1681565b60068054610de1906117bb565b80601f0160208091040260200160405190810160405280929190818152602001828054610e0d906117bb565b8015610e5a5780601f10610e2f57610100808354040283529160200191610e5a565b820191906000526020600020905b815481529060010190602001808311610e3d57829003601f168201915b505050505081565b6000806000600190505b6004548111610f415760006001905060006008600060076000868152602001908152602001600020600101548152602001908152602001600020541115610ee55760086000600760008581526020019081526020016000206001015481526020019081526020016000205481610ee29190611685565b90505b8060086000600760008681526020019081526020016000206001015481526020019081526020016000208190555083811115610f3557600760008381526020019081526020016000206001015492505b81600101915050610e6c565b506000808281526020019081526020016000206006908054610f62906117bb565b610f6d92919061106f565b506002600560006101000a81548160ff02191690836003811115610f9457610f936118c5565b5b02179055505050565b6040518060400160405280600073ffffffffffffffffffffffffffffffffffffffff168152602001600081525090565b6040518060400160405280606081526020016000151581525090565b828054610ff5906117bb565b90600052602060002090601f016020900481019282611017576000855561105e565b82601f1061103057805160ff191683800117855561105e565b8280016001018555821561105e579182015b8281111561105d578251825591602001919060010190611042565b5b50905061106b91906110fc565b5090565b82805461107b906117bb565b90600052602060002090601f01602090048101928261109d57600085556110eb565b82601f106110ae57805485556110eb565b828001600101855582156110eb57600052602060002091601f016020900482015b828111156110ea5782548255916001019190600101906110cf565b5b5090506110f891906110fc565b5090565b5b808211156111155760008160009055506001016110fd565b5090565b600061112c61112784611618565b6115f3565b90508281526020810184848401111561114857611147611957565b5b611153848285611779565b509392505050565b60008135905061116a81611aca565b92915050565b600082601f83011261118557611184611952565b5b8135611195848260208601611119565b91505092915050565b6000813590506111ad81611ae1565b92915050565b6000602082840312156111c9576111c8611961565b5b60006111d78482850161115b565b91505092915050565b600080604083850312156111f7576111f6611961565b5b60006112058582860161115b565b925050602083013567ffffffffffffffff8111156112265761122561195c565b5b61123285828601611170565b9150509250929050565b60006020828403121561125257611251611961565b5b600082013567ffffffffffffffff8111156112705761126f61195c565b5b61127c84828501611170565b91505092915050565b60006020828403121561129b5761129a611961565b5b60006112a98482850161119e565b91505092915050565b6112bb8161170c565b82525050565b6112ca8161171e565b82525050565b600081546112dd816117bb565b6112e78186611669565b94506001821660008114611302576001811461131357611346565b60ff19831686528186019350611346565b61131c85611649565b60005b8381101561133e5781548189015260018201915060208101905061131f565b838801955050505b50505092915050565b61135881611767565b82525050565b60006113698261165e565b6113738185611674565b9350611383818560208601611788565b61138c81611966565b840191505092915050565b60006113a4601983611674565b91506113af82611977565b602082019050919050565b60006113c7602483611674565b91506113d2826119a0565b604082019050919050565b60006113ea602683611674565b91506113f5826119ef565b604082019050919050565b600061140d602383611674565b915061141882611a3e565b604082019050919050565b6000611430601d83611674565b915061143b82611a8d565b602082019050919050565b61144f8161175d565b82525050565b600061146182846112d0565b915081905092915050565b600060208201905061148160008301846112b2565b92915050565b600060408201905061149c60008301856112b2565b6114a96020830184611446565b9392505050565b60006020820190506114c560008301846112c1565b92915050565b60006020820190506114e0600083018461134f565b92915050565b60006020820190508181036000830152611500818461135e565b905092915050565b60006040820190508181036000830152611522818561135e565b905061153160208301846112c1565b9392505050565b6000602082019050818103600083015261155181611397565b9050919050565b60006020820190508181036000830152611571816113ba565b9050919050565b60006020820190508181036000830152611591816113dd565b9050919050565b600060208201905081810360008301526115b181611400565b9050919050565b600060208201905081810360008301526115d181611423565b9050919050565b60006020820190506115ed6000830184611446565b92915050565b60006115fd61160e565b905061160982826117ed565b919050565b6000604051905090565b600067ffffffffffffffff82111561163357611632611923565b5b61163c82611966565b9050602081019050919050565b60008190508160005260206000209050919050565b600081519050919050565b600081905092915050565b600082825260208201905092915050565b60006116908261175d565b915061169b8361175d565b9250827fffffffffffffffffffffffffffffffffffffffffffffffffffffffffffffffff038211156116d0576116cf611867565b5b828201905092915050565b60006116e68261175d565b91506116f18361175d565b92508261170157611700611896565b5b828204905092915050565b60006117178261173d565b9050919050565b60008115159050919050565b600081905061173882611ab6565b919050565b600073ffffffffffffffffffffffffffffffffffffffff82169050919050565b6000819050919050565b60006117728261172a565b9050919050565b82818337600083830152505050565b60005b838110156117a657808201518184015260208101905061178b565b838111156117b5576000848401525b50505050565b600060028204905060018216806117d357607f821691505b602082108114156117e7576117e66118f4565b5b50919050565b6117f682611966565b810181811067ffffffffffffffff8211171561181557611814611923565b5b80604052505050565b60006118298261175d565b91507fffffffffffffffffffffffffffffffffffffffffffffffffffffffffffffffff82141561185c5761185b611867565b5b600182019050919050565b7f4e487b7100000000000000000000000000000000000000000000000000000000600052601160045260246000fd5b7f4e487b7100000000000000000000000000000000000000000000000000000000600052601260045260246000fd5b7f4e487b7100000000000000000000000000000000000000000000000000000000600052602160045260246000fd5b7f4e487b7100000000000000000000000000000000000000000000000000000000600052602260045260246000fd5b7f4e487b7100000000000000000000000000000000000000000000000000000000600052604160045260246000fd5b600080fd5b600080fd5b600080fd5b600080fd5b6000601f19601f8301169050919050565b7f52657374617572616e7420616c72656164792065786973747300000000000000600082015250565b7f43616e206f6e6c7920626520657865637574656420696e20766f74696e67207360008201527f7461746500000000000000000000000000000000000000000000000000000000602082015250565b7f43616e206f6e6c7920626520657865637574656420696e206372656174696e6760008201527f2073746174650000000000000000000000000000000000000000000000000000602082015250565b7f43616e206f6e6c7920626520657865637574656420627920746865206d616e6160008201527f6765720000000000000000000000000000000000000000000000000000000000602082015250565b7f467269656e64206164647265737320616c726561647920657869737473000000600082015250565b60048110611ac757611ac66118c5565b5b50565b611ad38161170c565b8114611ade57600080fd5b50565b611aea8161175d565b8114611af557600080fd5b5056fea26469706673582212207509e60b0a26f8dfc6db608f1114872c8d7c271c02fc2da65ecc030a91798a7964736f6c63430008050033",
					"opcodes": "PUSH1 0xA0 PUSH1 0x40 MSTORE PUSH1 0x1 PUSH1 0x9 PUSH1 0x0 PUSH2 0x100 EXP DUP2 SLOAD DUP2 PUSH1 0xFF MUL NOT AND SWAP1 DUP4 ISZERO ISZERO MUL OR SWAP1 SSTORE POP CALLVALUE DUP1 ISZERO PUSH2 0x2B JUMPI PUSH1 0x0 DUP1 REVERT JUMPDEST POP CALLER PUSH20 0xFFFFFFFFFFFFFFFFFFFFFFFFFFFFFFFFFFFFFFFF AND PUSH1 0x80 DUP2 PUSH20 0xFFFFFFFFFFFFFFFFFFFFFFFFFFFFFFFFFFFFFFFF AND PUSH1 0x60 SHL DUP2 MSTORE POP POP PUSH1 0x0 PUSH1 0x5 PUSH1 0x0 PUSH2 0x100 EXP DUP2 SLOAD DUP2 PUSH1 0xFF MUL NOT AND SWAP1 DUP4 PUSH1 0x3 DUP2 GT ISZERO PUSH2 0x89 JUMPI PUSH2 0x88 PUSH2 0x93 JUMP JUMPDEST JUMPDEST MUL OR SWAP1 SSTORE POP PUSH2 0xC2 JUMP JUMPDEST PUSH32 0x4E487B7100000000000000000000000000000000000000000000000000000000 PUSH1 0x0 MSTORE PUSH1 0x21 PUSH1 0x4 MSTORE PUSH1 0x24 PUSH1 0x0 REVERT JUMPDEST PUSH1 0x80 MLOAD PUSH1 0x60 SHR PUSH2 0x1B2E PUSH2 0xFC PUSH1 0x0 CODECOPY PUSH1 0x0 DUP2 DUP2 PUSH2 0x6E6 ADD MSTORE DUP2 DUP2 PUSH2 0x7A3 ADD MSTORE DUP2 DUP2 PUSH2 0xA04 ADD MSTORE DUP2 DUP2 PUSH2 0xA6E ADD MSTORE PUSH2 0xC5C ADD MSTORE PUSH2 0x1B2E PUSH1 0x0 RETURN INVALID PUSH1 0x80 PUSH1 0x40 MSTORE CALLVALUE DUP1 ISZERO PUSH2 0x10 JUMPI PUSH1 0x0 DUP1 REVERT JUMPDEST POP PUSH1 0x4 CALLDATASIZE LT PUSH2 0xF5 JUMPI PUSH1 0x0 CALLDATALOAD PUSH1 0xE0 SHR DUP1 PUSH4 0x6D77BD3E GT PUSH2 0x97 JUMPI DUP1 PUSH4 0xAD5461D8 GT PUSH2 0x66 JUMPI DUP1 PUSH4 0xAD5461D8 EQ PUSH2 0x278 JUMPI DUP1 PUSH4 0xB798867F EQ PUSH2 0x2A8 JUMPI DUP1 PUSH4 0xC19D93FB EQ PUSH2 0x2C6 JUMPI DUP1 PUSH4 0xC1C16EFC EQ PUSH2 0x2E4 JUMPI PUSH2 0xF5 JUMP JUMPDEST DUP1 PUSH4 0x6D77BD3E EQ PUSH2 0x202 JUMPI DUP1 PUSH4 0x788D3851 EQ PUSH2 0x232 JUMPI DUP1 PUSH4 0x81F4B232 EQ PUSH2 0x250 JUMPI DUP1 PUSH4 0xA3BEF4D7 EQ PUSH2 0x25A JUMPI PUSH2 0xF5 JUMP JUMPDEST DUP1 PUSH4 0x3B9F708D GT PUSH2 0xD3 JUMPI DUP1 PUSH4 0x3B9F708D EQ PUSH2 0x165 JUMPI DUP1 PUSH4 0x47098F36 EQ PUSH2 0x195 JUMPI DUP1 PUSH4 0x481C6A75 EQ PUSH2 0x1B3 JUMPI DUP1 PUSH4 0x5DF81330 EQ PUSH2 0x1D1 JUMPI PUSH2 0xF5 JUMP JUMPDEST DUP1 PUSH4 0x124258C6 EQ PUSH2 0xFA JUMPI DUP1 PUSH4 0x1DDABF7A EQ PUSH2 0x12A JUMPI DUP1 PUSH4 0x1EC6B60A EQ PUSH2 0x15B JUMPI JUMPDEST PUSH1 0x0 DUP1 REVERT JUMPDEST PUSH2 0x114 PUSH1 0x4 DUP1 CALLDATASIZE SUB DUP2 ADD SWAP1 PUSH2 0x10F SWAP2 SWAP1 PUSH2 0x1285 JUMP JUMPDEST PUSH2 0x302 JUMP JUMPDEST PUSH1 0x40 MLOAD PUSH2 0x121 SWAP2 SWAP1 PUSH2 0x14B0 JUMP JUMPDEST PUSH1 0x40 MLOAD DUP1 SWAP2 SUB SWAP1 RETURN JUMPDEST PUSH2 0x144 PUSH1 0x4 DUP1 CALLDATASIZE SUB DUP2 ADD SWAP1 PUSH2 0x13F SWAP2 SWAP1 PUSH2 0x11B3 JUMP JUMPDEST PUSH2 0x5B5 JUMP JUMPDEST PUSH1 0x40 MLOAD PUSH2 0x152 SWAP3 SWAP2 SWAP1 PUSH2 0x1508 JUMP JUMPDEST PUSH1 0x40 MLOAD DUP1 SWAP2 SUB SWAP1 RETURN JUMPDEST PUSH2 0x163 PUSH2 0x66E JUMP JUMPDEST STOP JUMPDEST PUSH2 0x17F PUSH1 0x4 DUP1 CALLDATASIZE SUB DUP2 ADD SWAP1 PUSH2 0x17A SWAP2 SWAP1 PUSH2 0x11E0 JUMP JUMPDEST PUSH2 0x79F JUMP JUMPDEST PUSH1 0x40 MLOAD PUSH2 0x18C SWAP2 SWAP1 PUSH2 0x15D8 JUMP JUMPDEST PUSH1 0x40 MLOAD DUP1 SWAP2 SUB SWAP1 RETURN JUMPDEST PUSH2 0x19D PUSH2 0x9FC JUMP JUMPDEST PUSH1 0x40 MLOAD PUSH2 0x1AA SWAP2 SWAP1 PUSH2 0x15D8 JUMP JUMPDEST PUSH1 0x40 MLOAD DUP1 SWAP2 SUB SWAP1 RETURN JUMPDEST PUSH2 0x1BB PUSH2 0xA02 JUMP JUMPDEST PUSH1 0x40 MLOAD PUSH2 0x1C8 SWAP2 SWAP1 PUSH2 0x146C JUMP JUMPDEST PUSH1 0x40 MLOAD DUP1 SWAP2 SUB SWAP1 RETURN JUMPDEST PUSH2 0x1EB PUSH1 0x4 DUP1 CALLDATASIZE SUB DUP2 ADD SWAP1 PUSH2 0x1E6 SWAP2 SWAP1 PUSH2 0x1285 JUMP JUMPDEST PUSH2 0xA26 JUMP JUMPDEST PUSH1 0x40 MLOAD PUSH2 0x1F9 SWAP3 SWAP2 SWAP1 PUSH2 0x1487 JUMP JUMPDEST PUSH1 0x40 MLOAD DUP1 SWAP2 SUB SWAP1 RETURN JUMPDEST PUSH2 0x21C PUSH1 0x4 DUP1 CALLDATASIZE SUB DUP2 ADD SWAP1 PUSH2 0x217 SWAP2 SWAP1 PUSH2 0x123C JUMP JUMPDEST PUSH2 0xA6A JUMP JUMPDEST PUSH1 0x40 MLOAD PUSH2 0x229 SWAP2 SWAP1 PUSH2 0x15D8 JUMP JUMPDEST PUSH1 0x40 MLOAD DUP1 SWAP2 SUB SWAP1 RETURN JUMPDEST PUSH2 0x23A PUSH2 0xC47 JUMP JUMPDEST PUSH1 0x40 MLOAD PUSH2 0x247 SWAP2 SWAP1 PUSH2 0x14B0 JUMP JUMPDEST PUSH1 0x40 MLOAD DUP1 SWAP2 SUB SWAP1 RETURN JUMPDEST PUSH2 0x258 PUSH2 0xC5A JUMP JUMPDEST STOP JUMPDEST PUSH2 0x262 PUSH2 0xD15 JUMP JUMPDEST PUSH1 0x40 MLOAD PUSH2 0x26F SWAP2 SWAP1 PUSH2 0x15D8 JUMP JUMPDEST PUSH1 0x40 MLOAD DUP1 SWAP2 SUB SWAP1 RETURN JUMPDEST PUSH2 0x292 PUSH1 0x4 DUP1 CALLDATASIZE SUB DUP2 ADD SWAP1 PUSH2 0x28D SWAP2 SWAP1 PUSH2 0x1285 JUMP JUMPDEST PUSH2 0xD1B JUMP JUMPDEST PUSH1 0x40 MLOAD PUSH2 0x29F SWAP2 SWAP1 PUSH2 0x14E6 JUMP JUMPDEST PUSH1 0x40 MLOAD DUP1 SWAP2 SUB SWAP1 RETURN JUMPDEST PUSH2 0x2B0 PUSH2 0xDBB JUMP JUMPDEST PUSH1 0x40 MLOAD PUSH2 0x2BD SWAP2 SWAP1 PUSH2 0x15D8 JUMP JUMPDEST PUSH1 0x40 MLOAD DUP1 SWAP2 SUB SWAP1 RETURN JUMPDEST PUSH2 0x2CE PUSH2 0xDC1 JUMP JUMPDEST PUSH1 0x40 MLOAD PUSH2 0x2DB SWAP2 SWAP1 PUSH2 0x14CB JUMP JUMPDEST PUSH1 0x40 MLOAD DUP1 SWAP2 SUB SWAP1 RETURN JUMPDEST PUSH2 0x2EC PUSH2 0xDD4 JUMP JUMPDEST PUSH1 0x40 MLOAD PUSH2 0x2F9 SWAP2 SWAP1 PUSH2 0x14E6 JUMP JUMPDEST PUSH1 0x40 MLOAD DUP1 SWAP2 SUB SWAP1 RETURN JUMPDEST PUSH1 0x0 PUSH1 0x1 PUSH1 0x3 DUP2 GT ISZERO PUSH2 0x318 JUMPI PUSH2 0x317 PUSH2 0x18C5 JUMP JUMPDEST JUMPDEST PUSH1 0x5 PUSH1 0x0 SWAP1 SLOAD SWAP1 PUSH2 0x100 EXP SWAP1 DIV PUSH1 0xFF AND PUSH1 0x3 DUP2 GT ISZERO PUSH2 0x33A JUMPI PUSH2 0x339 PUSH2 0x18C5 JUMP JUMPDEST JUMPDEST EQ PUSH2 0x37A JUMPI PUSH1 0x40 MLOAD PUSH32 0x8C379A000000000000000000000000000000000000000000000000000000000 DUP2 MSTORE PUSH1 0x4 ADD PUSH2 0x371 SWAP1 PUSH2 0x1558 JUMP JUMPDEST PUSH1 0x40 MLOAD DUP1 SWAP2 SUB SWAP1 REVERT JUMPDEST PUSH1 0x0 SWAP1 POP PUSH1 0x0 PUSH1 0x1 PUSH1 0x0 CALLER PUSH20 0xFFFFFFFFFFFFFFFFFFFFFFFFFFFFFFFFFFFFFFFF AND PUSH20 0xFFFFFFFFFFFFFFFFFFFFFFFFFFFFFFFFFFFFFFFF AND DUP2 MSTORE PUSH1 0x20 ADD SWAP1 DUP2 MSTORE PUSH1 0x20 ADD PUSH1 0x0 KECCAK256 PUSH1 0x0 ADD DUP1 SLOAD PUSH2 0x3CD SWAP1 PUSH2 0x17BB JUMP JUMPDEST SWAP1 POP EQ PUSH2 0x584 JUMPI PUSH1 0x0 ISZERO ISZERO PUSH1 0x1 PUSH1 0x0 CALLER PUSH20 0xFFFFFFFFFFFFFFFFFFFFFFFFFFFFFFFFFFFFFFFF AND PUSH20 0xFFFFFFFFFFFFFFFFFFFFFFFFFFFFFFFFFFFFFFFF AND DUP2 MSTORE PUSH1 0x20 ADD SWAP1 DUP2 MSTORE PUSH1 0x20 ADD PUSH1 0x0 KECCAK256 PUSH1 0x1 ADD PUSH1 0x0 SWAP1 SLOAD SWAP1 PUSH2 0x100 EXP SWAP1 DIV PUSH1 0xFF AND ISZERO ISZERO EQ ISZERO PUSH2 0x583 JUMPI PUSH1 0x0 DUP1 PUSH1 0x0 DUP5 DUP2 MSTORE PUSH1 0x20 ADD SWAP1 DUP2 MSTORE PUSH1 0x20 ADD PUSH1 0x0 KECCAK256 DUP1 SLOAD PUSH2 0x44F SWAP1 PUSH2 0x17BB JUMP JUMPDEST SWAP1 POP EQ PUSH2 0x582 JUMPI PUSH1 0x1 SWAP1 POP PUSH1 0x1 DUP1 PUSH1 0x0 CALLER PUSH20 0xFFFFFFFFFFFFFFFFFFFFFFFFFFFFFFFFFFFFFFFF AND PUSH20 0xFFFFFFFFFFFFFFFFFFFFFFFFFFFFFFFFFFFFFFFF AND DUP2 MSTORE PUSH1 0x20 ADD SWAP1 DUP2 MSTORE PUSH1 0x20 ADD PUSH1 0x0 KECCAK256 PUSH1 0x1 ADD PUSH1 0x0 PUSH2 0x100 EXP DUP2 SLOAD DUP2 PUSH1 0xFF MUL NOT AND SWAP1 DUP4 ISZERO ISZERO MUL OR SWAP1 SSTORE POP PUSH2 0x4BC PUSH2 0xF9D JUMP JUMPDEST CALLER DUP2 PUSH1 0x0 ADD SWAP1 PUSH20 0xFFFFFFFFFFFFFFFFFFFFFFFFFFFFFFFFFFFFFFFF AND SWAP1 DUP2 PUSH20 0xFFFFFFFFFFFFFFFFFFFFFFFFFFFFFFFFFFFFFFFF AND DUP2 MSTORE POP POP DUP3 DUP2 PUSH1 0x20 ADD DUP2 DUP2 MSTORE POP POP PUSH1 0x4 PUSH1 0x0 DUP2 SLOAD DUP1 SWAP3 SWAP2 SWAP1 PUSH2 0x511 SWAP1 PUSH2 0x181E JUMP JUMPDEST SWAP2 SWAP1 POP SSTORE POP DUP1 PUSH1 0x7 PUSH1 0x0 PUSH1 0x4 SLOAD DUP2 MSTORE PUSH1 0x20 ADD SWAP1 DUP2 MSTORE PUSH1 0x20 ADD PUSH1 0x0 KECCAK256 PUSH1 0x0 DUP3 ADD MLOAD DUP2 PUSH1 0x0 ADD PUSH1 0x0 PUSH2 0x100 EXP DUP2 SLOAD DUP2 PUSH20 0xFFFFFFFFFFFFFFFFFFFFFFFFFFFFFFFFFFFFFFFF MUL NOT AND SWAP1 DUP4 PUSH20 0xFFFFFFFFFFFFFFFFFFFFFFFFFFFFFFFFFFFFFFFF AND MUL OR SWAP1 SSTORE POP PUSH1 0x20 DUP3 ADD MLOAD DUP2 PUSH1 0x1 ADD SSTORE SWAP1 POP POP POP JUMPDEST JUMPDEST JUMPDEST PUSH1 0x1 PUSH1 0x2 PUSH1 0x3 SLOAD PUSH2 0x595 SWAP2 SWAP1 PUSH2 0x16DB JUMP JUMPDEST PUSH2 0x59F SWAP2 SWAP1 PUSH2 0x1685 JUMP JUMPDEST PUSH1 0x4 SLOAD LT PUSH2 0x5B0 JUMPI PUSH2 0x5AF PUSH2 0xE62 JUMP JUMPDEST JUMPDEST SWAP2 SWAP1 POP JUMP JUMPDEST PUSH1 0x1 PUSH1 0x20 MSTORE DUP1 PUSH1 0x0 MSTORE PUSH1 0x40 PUSH1 0x0 KECCAK256 PUSH1 0x0 SWAP2 POP SWAP1 POP DUP1 PUSH1 0x0 ADD DUP1 SLOAD PUSH2 0x5D8 SWAP1 PUSH2 0x17BB JUMP JUMPDEST DUP1 PUSH1 0x1F ADD PUSH1 0x20 DUP1 SWAP2 DIV MUL PUSH1 0x20 ADD PUSH1 0x40 MLOAD SWAP1 DUP2 ADD PUSH1 0x40 MSTORE DUP1 SWAP3 SWAP2 SWAP1 DUP2 DUP2 MSTORE PUSH1 0x20 ADD DUP3 DUP1 SLOAD PUSH2 0x604 SWAP1 PUSH2 0x17BB JUMP JUMPDEST DUP1 ISZERO PUSH2 0x651 JUMPI DUP1 PUSH1 0x1F LT PUSH2 0x626 JUMPI PUSH2 0x100 DUP1 DUP4 SLOAD DIV MUL DUP4 MSTORE SWAP2 PUSH1 0x20 ADD SWAP2 PUSH2 0x651 JUMP JUMPDEST DUP3 ADD SWAP2 SWAP1 PUSH1 0x0 MSTORE PUSH1 0x20 PUSH1 0x0 KECCAK256 SWAP1 JUMPDEST DUP2 SLOAD DUP2 MSTORE SWAP1 PUSH1 0x1 ADD SWAP1 PUSH1 0x20 ADD DUP1 DUP4 GT PUSH2 0x634 JUMPI DUP3 SWAP1 SUB PUSH1 0x1F AND DUP3 ADD SWAP2 JUMPDEST POP POP POP POP POP SWAP1 DUP1 PUSH1 0x1 ADD PUSH1 0x0 SWAP1 SLOAD SWAP1 PUSH2 0x100 EXP SWAP1 DIV PUSH1 0xFF AND SWAP1 POP DUP3 JUMP JUMPDEST PUSH1 0x0 PUSH1 0x3 DUP2 GT ISZERO PUSH2 0x682 JUMPI PUSH2 0x681 PUSH2 0x18C5 JUMP JUMPDEST JUMPDEST PUSH1 0x5 PUSH1 0x0 SWAP1 SLOAD SWAP1 PUSH2 0x100 EXP SWAP1 DIV PUSH1 0xFF AND PUSH1 0x3 DUP2 GT ISZERO PUSH2 0x6A4 JUMPI PUSH2 0x6A3 PUSH2 0x18C5 JUMP JUMPDEST JUMPDEST EQ PUSH2 0x6E4 JUMPI PUSH1 0x40 MLOAD PUSH32 0x8C379A000000000000000000000000000000000000000000000000000000000 DUP2 MSTORE PUSH1 0x4 ADD PUSH2 0x6DB SWAP1 PUSH2 0x1578 JUMP JUMPDEST PUSH1 0x40 MLOAD DUP1 SWAP2 SUB SWAP1 REVERT JUMPDEST PUSH32 0x0 PUSH20 0xFFFFFFFFFFFFFFFFFFFFFFFFFFFFFFFFFFFFFFFF AND CALLER PUSH20 0xFFFFFFFFFFFFFFFFFFFFFFFFFFFFFFFFFFFFFFFF AND EQ PUSH2 0x772 JUMPI PUSH1 0x40 MLOAD PUSH32 0x8C379A000000000000000000000000000000000000000000000000000000000 DUP2 MSTORE PUSH1 0x4 ADD PUSH2 0x769 SWAP1 PUSH2 0x1598 JUMP JUMPDEST PUSH1 0x40 MLOAD DUP1 SWAP2 SUB SWAP1 REVERT JUMPDEST PUSH1 0x1 PUSH1 0x5 PUSH1 0x0 PUSH2 0x100 EXP DUP2 SLOAD DUP2 PUSH1 0xFF MUL NOT AND SWAP1 DUP4 PUSH1 0x3 DUP2 GT ISZERO PUSH2 0x798 JUMPI PUSH2 0x797 PUSH2 0x18C5 JUMP JUMPDEST JUMPDEST MUL OR SWAP1 SSTORE POP JUMP JUMPDEST PUSH1 0x0 PUSH32 0x0 PUSH20 0xFFFFFFFFFFFFFFFFFFFFFFFFFFFFFFFFFFFFFFFF AND CALLER PUSH20 0xFFFFFFFFFFFFFFFFFFFFFFFFFFFFFFFFFFFFFFFF AND EQ PUSH2 0x82F JUMPI PUSH1 0x40 MLOAD PUSH32 0x8C379A000000000000000000000000000000000000000000000000000000000 DUP2 MSTORE PUSH1 0x4 ADD PUSH2 0x826 SWAP1 PUSH2 0x1598 JUMP JUMPDEST PUSH1 0x40 MLOAD DUP1 SWAP2 SUB SWAP1 REVERT JUMPDEST PUSH1 0x0 PUSH1 0x3 DUP2 GT ISZERO PUSH2 0x843 JUMPI PUSH2 0x842 PUSH2 0x18C5 JUMP JUMPDEST JUMPDEST PUSH1 0x5 PUSH1 0x0 SWAP1 SLOAD SWAP1 PUSH2 0x100 EXP SWAP1 DIV PUSH1 0xFF AND PUSH1 0x3 DUP2 GT ISZERO PUSH2 0x865 JUMPI PUSH2 0x864 PUSH2 0x18C5 JUMP JUMPDEST JUMPDEST EQ PUSH2 0x8A5 JUMPI PUSH1 0x40 MLOAD PUSH32 0x8C379A000000000000000000000000000000000000000000000000000000000 DUP2 MSTORE PUSH1 0x4 ADD PUSH2 0x89C SWAP1 PUSH2 0x1578 JUMP JUMPDEST PUSH1 0x40 MLOAD DUP1 SWAP2 SUB SWAP1 REVERT JUMPDEST PUSH1 0x0 PUSH1 0x1 PUSH1 0x0 DUP6 PUSH20 0xFFFFFFFFFFFFFFFFFFFFFFFFFFFFFFFFFFFFFFFF AND PUSH20 0xFFFFFFFFFFFFFFFFFFFFFFFFFFFFFFFFFFFFFFFF AND DUP2 MSTORE PUSH1 0x20 ADD SWAP1 DUP2 MSTORE PUSH1 0x20 ADD PUSH1 0x0 KECCAK256 PUSH1 0x0 ADD DUP1 SLOAD PUSH2 0x8F4 SWAP1 PUSH2 0x17BB JUMP JUMPDEST SWAP1 POP EQ PUSH2 0x936 JUMPI PUSH1 0x40 MLOAD PUSH32 0x8C379A000000000000000000000000000000000000000000000000000000000 DUP2 MSTORE PUSH1 0x4 ADD PUSH2 0x92D SWAP1 PUSH2 0x15B8 JUMP JUMPDEST PUSH1 0x40 MLOAD DUP1 SWAP2 SUB SWAP1 REVERT JUMPDEST PUSH2 0x93E PUSH2 0xFCD JUMP JUMPDEST DUP3 DUP2 PUSH1 0x0 ADD DUP2 SWAP1 MSTORE POP PUSH1 0x0 DUP2 PUSH1 0x20 ADD SWAP1 ISZERO ISZERO SWAP1 DUP2 ISZERO ISZERO DUP2 MSTORE POP POP DUP1 PUSH1 0x1 PUSH1 0x0 DUP7 PUSH20 0xFFFFFFFFFFFFFFFFFFFFFFFFFFFFFFFFFFFFFFFF AND PUSH20 0xFFFFFFFFFFFFFFFFFFFFFFFFFFFFFFFFFFFFFFFF AND DUP2 MSTORE PUSH1 0x20 ADD SWAP1 DUP2 MSTORE PUSH1 0x20 ADD PUSH1 0x0 KECCAK256 PUSH1 0x0 DUP3 ADD MLOAD DUP2 PUSH1 0x0 ADD SWAP1 DUP1 MLOAD SWAP1 PUSH1 0x20 ADD SWAP1 PUSH2 0x9B4 SWAP3 SWAP2 SWAP1 PUSH2 0xFE9 JUMP JUMPDEST POP PUSH1 0x20 DUP3 ADD MLOAD DUP2 PUSH1 0x1 ADD PUSH1 0x0 PUSH2 0x100 EXP DUP2 SLOAD DUP2 PUSH1 0xFF MUL NOT AND SWAP1 DUP4 ISZERO ISZERO MUL OR SWAP1 SSTORE POP SWAP1 POP POP PUSH1 0x3 PUSH1 0x0 DUP2 SLOAD DUP1 SWAP3 SWAP2 SWAP1 PUSH2 0x9EB SWAP1 PUSH2 0x181E JUMP JUMPDEST SWAP2 SWAP1 POP SSTORE POP PUSH1 0x3 SLOAD SWAP2 POP POP SWAP3 SWAP2 POP POP JUMP JUMPDEST PUSH1 0x3 SLOAD DUP2 JUMP JUMPDEST PUSH32 0x0 DUP2 JUMP JUMPDEST PUSH1 0x7 PUSH1 0x20 MSTORE DUP1 PUSH1 0x0 MSTORE PUSH1 0x40 PUSH1 0x0 KECCAK256 PUSH1 0x0 SWAP2 POP SWAP1 POP DUP1 PUSH1 0x0 ADD PUSH1 0x0 SWAP1 SLOAD SWAP1 PUSH2 0x100 EXP SWAP1 DIV PUSH20 0xFFFFFFFFFFFFFFFFFFFFFFFFFFFFFFFFFFFFFFFF AND SWAP1 DUP1 PUSH1 0x1 ADD SLOAD SWAP1 POP DUP3 JUMP JUMPDEST PUSH1 0x0 PUSH32 0x0 PUSH20 0xFFFFFFFFFFFFFFFFFFFFFFFFFFFFFFFFFFFFFFFF AND CALLER PUSH20 0xFFFFFFFFFFFFFFFFFFFFFFFFFFFFFFFFFFFFFFFF AND EQ PUSH2 0xAFA JUMPI PUSH1 0x40 MLOAD PUSH32 0x8C379A000000000000000000000000000000000000000000000000000000000 DUP2 MSTORE PUSH1 0x4 ADD PUSH2 0xAF1 SWAP1 PUSH2 0x1598 JUMP JUMPDEST PUSH1 0x40 MLOAD DUP1 SWAP2 SUB SWAP1 REVERT JUMPDEST PUSH1 0x0 PUSH1 0x3 DUP2 GT ISZERO PUSH2 0xB0E JUMPI PUSH2 0xB0D PUSH2 0x18C5 JUMP JUMPDEST JUMPDEST PUSH1 0x5 PUSH1 0x0 SWAP1 SLOAD SWAP1 PUSH2 0x100 EXP SWAP1 DIV PUSH1 0xFF AND PUSH1 0x3 DUP2 GT ISZERO PUSH2 0xB30 JUMPI PUSH2 0xB2F PUSH2 0x18C5 JUMP JUMPDEST JUMPDEST EQ PUSH2 0xB70 JUMPI PUSH1 0x40 MLOAD PUSH32 0x8C379A000000000000000000000000000000000000000000000000000000000 DUP2 MSTORE PUSH1 0x4 ADD PUSH2 0xB67 SWAP1 PUSH2 0x1578 JUMP JUMPDEST PUSH1 0x40 MLOAD DUP1 SWAP2 SUB SWAP1 REVERT JUMPDEST PUSH1 0x0 PUSH1 0x1 SWAP1 POP JUMPDEST PUSH1 0x2 SLOAD DUP2 GT PUSH2 0xBFB JUMPI DUP3 DUP1 MLOAD SWAP1 PUSH1 0x20 ADD KECCAK256 PUSH1 0x0 DUP1 DUP4 DUP2 MSTORE PUSH1 0x20 ADD SWAP1 DUP2 MSTORE PUSH1 0x20 ADD PUSH1 0x0 KECCAK256 PUSH1 0x40 MLOAD PUSH2 0xBA7 SWAP2 SWAP1 PUSH2 0x1455 JUMP JUMPDEST PUSH1 0x40 MLOAD DUP1 SWAP2 SUB SWAP1 KECCAK256 EQ ISZERO PUSH2 0xBF0 JUMPI PUSH1 0x40 MLOAD PUSH32 0x8C379A000000000000000000000000000000000000000000000000000000000 DUP2 MSTORE PUSH1 0x4 ADD PUSH2 0xBE7 SWAP1 PUSH2 0x1538 JUMP JUMPDEST PUSH1 0x40 MLOAD DUP1 SWAP2 SUB SWAP1 REVERT JUMPDEST DUP1 PUSH1 0x1 ADD SWAP1 POP PUSH2 0xB77 JUMP JUMPDEST POP PUSH1 0x2 PUSH1 0x0 DUP2 SLOAD DUP1 SWAP3 SWAP2 SWAP1 PUSH2 0xC0F SWAP1 PUSH2 0x181E JUMP JUMPDEST SWAP2 SWAP1 POP SSTORE POP DUP2 PUSH1 0x0 DUP1 PUSH1 0x2 SLOAD DUP2 MSTORE PUSH1 0x20 ADD SWAP1 DUP2 MSTORE PUSH1 0x20 ADD PUSH1 0x0 KECCAK256 SWAP1 DUP1 MLOAD SWAP1 PUSH1 0x20 ADD SWAP1 PUSH2 0xC3C SWAP3 SWAP2 SWAP1 PUSH2 0xFE9 JUMP JUMPDEST POP PUSH1 0x2 SLOAD SWAP1 POP SWAP2 SWAP1 POP JUMP JUMPDEST PUSH1 0x9 PUSH1 0x0 SWAP1 SLOAD SWAP1 PUSH2 0x100 EXP SWAP1 DIV PUSH1 0xFF AND DUP2 JUMP JUMPDEST PUSH32 0x0 PUSH20 0xFFFFFFFFFFFFFFFFFFFFFFFFFFFFFFFFFFFFFFFF AND CALLER PUSH20 0xFFFFFFFFFFFFFFFFFFFFFFFFFFFFFFFFFFFFFFFF AND EQ PUSH2 0xCE8 JUMPI PUSH1 0x40 MLOAD PUSH32 0x8C379A000000000000000000000000000000000000000000000000000000000 DUP2 MSTORE PUSH1 0x4 ADD PUSH2 0xCDF SWAP1 PUSH2 0x1598 JUMP JUMPDEST PUSH1 0x40 MLOAD DUP1 SWAP2 SUB SWAP1 REVERT JUMPDEST PUSH1 0x3 PUSH1 0x5 PUSH1 0x0 PUSH2 0x100 EXP DUP2 SLOAD DUP2 PUSH1 0xFF MUL NOT AND SWAP1 DUP4 PUSH1 0x3 DUP2 GT ISZERO PUSH2 0xD0E JUMPI PUSH2 0xD0D PUSH2 0x18C5 JUMP JUMPDEST JUMPDEST MUL OR SWAP1 SSTORE POP JUMP JUMPDEST PUSH1 0x4 SLOAD DUP2 JUMP JUMPDEST PUSH1 0x0 PUSH1 0x20 MSTORE DUP1 PUSH1 0x0 MSTORE PUSH1 0x40 PUSH1 0x0 KECCAK256 PUSH1 0x0 SWAP2 POP SWAP1 POP DUP1 SLOAD PUSH2 0xD3A SWAP1 PUSH2 0x17BB JUMP JUMPDEST DUP1 PUSH1 0x1F ADD PUSH1 0x20 DUP1 SWAP2 DIV MUL PUSH1 0x20 ADD PUSH1 0x40 MLOAD SWAP1 DUP2 ADD PUSH1 0x40 MSTORE DUP1 SWAP3 SWAP2 SWAP1 DUP2 DUP2 MSTORE PUSH1 0x20 ADD DUP3 DUP1 SLOAD PUSH2 0xD66 SWAP1 PUSH2 0x17BB JUMP JUMPDEST DUP1 ISZERO PUSH2 0xDB3 JUMPI DUP1 PUSH1 0x1F LT PUSH2 0xD88 JUMPI PUSH2 0x100 DUP1 DUP4 SLOAD DIV MUL DUP4 MSTORE SWAP2 PUSH1 0x20 ADD SWAP2 PUSH2 0xDB3 JUMP JUMPDEST DUP3 ADD SWAP2 SWAP1 PUSH1 0x0 MSTORE PUSH1 0x20 PUSH1 0x0 KECCAK256 SWAP1 JUMPDEST DUP2 SLOAD DUP2 MSTORE SWAP1 PUSH1 0x1 ADD SWAP1 PUSH1 0x20 ADD DUP1 DUP4 GT PUSH2 0xD96 JUMPI DUP3 SWAP1 SUB PUSH1 0x1F AND DUP3 ADD SWAP2 JUMPDEST POP POP POP POP POP DUP2 JUMP JUMPDEST PUSH1 0x2 SLOAD DUP2 JUMP JUMPDEST PUSH1 0x5 PUSH1 0x0 SWAP1 SLOAD SWAP1 PUSH2 0x100 EXP SWAP1 DIV PUSH1 0xFF AND DUP2 JUMP JUMPDEST PUSH1 0x6 DUP1 SLOAD PUSH2 0xDE1 SWAP1 PUSH2 0x17BB JUMP JUMPDEST DUP1 PUSH1 0x1F ADD PUSH1 0x20 DUP1 SWAP2 DIV MUL PUSH1 0x20 ADD PUSH1 0x40 MLOAD SWAP1 DUP2 ADD PUSH1 0x40 MSTORE DUP1 SWAP3 SWAP2 SWAP1 DUP2 DUP2 MSTORE PUSH1 0x20 ADD DUP3 DUP1 SLOAD PUSH2 0xE0D SWAP1 PUSH2 0x17BB JUMP JUMPDEST DUP1 ISZERO PUSH2 0xE5A JUMPI DUP1 PUSH1 0x1F LT PUSH2 0xE2F JUMPI PUSH2 0x100 DUP1 DUP4 SLOAD DIV MUL DUP4 MSTORE SWAP2 PUSH1 0x20 ADD SWAP2 PUSH2 0xE5A JUMP JUMPDEST DUP3 ADD SWAP2 SWAP1 PUSH1 0x0 MSTORE PUSH1 0x20 PUSH1 0x0 KECCAK256 SWAP1 JUMPDEST DUP2 SLOAD DUP2 MSTORE SWAP1 PUSH1 0x1 ADD SWAP1 PUSH1 0x20 ADD DUP1 DUP4 GT PUSH2 0xE3D JUMPI DUP3 SWAP1 SUB PUSH1 0x1F AND DUP3 ADD SWAP2 JUMPDEST POP POP POP POP POP DUP2 JUMP JUMPDEST PUSH1 0x0 DUP1 PUSH1 0x0 PUSH1 0x1 SWAP1 POP JUMPDEST PUSH1 0x4 SLOAD DUP2 GT PUSH2 0xF41 JUMPI PUSH1 0x0 PUSH1 0x1 SWAP1 POP PUSH1 0x0 PUSH1 0x8 PUSH1 0x0 PUSH1 0x7 PUSH1 0x0 DUP7 DUP2 MSTORE PUSH1 0x20 ADD SWAP1 DUP2 MSTORE PUSH1 0x20 ADD PUSH1 0x0 KECCAK256 PUSH1 0x1 ADD SLOAD DUP2 MSTORE PUSH1 0x20 ADD SWAP1 DUP2 MSTORE PUSH1 0x20 ADD PUSH1 0x0 KECCAK256 SLOAD GT ISZERO PUSH2 0xEE5 JUMPI PUSH1 0x8 PUSH1 0x0 PUSH1 0x7 PUSH1 0x0 DUP6 DUP2 MSTORE PUSH1 0x20 ADD SWAP1 DUP2 MSTORE PUSH1 0x20 ADD PUSH1 0x0 KECCAK256 PUSH1 0x1 ADD SLOAD DUP2 MSTORE PUSH1 0x20 ADD SWAP1 DUP2 MSTORE PUSH1 0x20 ADD PUSH1 0x0 KECCAK256 SLOAD DUP2 PUSH2 0xEE2 SWAP2 SWAP1 PUSH2 0x1685 JUMP JUMPDEST SWAP1 POP JUMPDEST DUP1 PUSH1 0x8 PUSH1 0x0 PUSH1 0x7 PUSH1 0x0 DUP7 DUP2 MSTORE PUSH1 0x20 ADD SWAP1 DUP2 MSTORE PUSH1 0x20 ADD PUSH1 0x0 KECCAK256 PUSH1 0x1 ADD SLOAD DUP2 MSTORE PUSH1 0x20 ADD SWAP1 DUP2 MSTORE PUSH1 0x20 ADD PUSH1 0x0 KECCAK256 DUP2 SWAP1 SSTORE POP DUP4 DUP2 GT ISZERO PUSH2 0xF35 JUMPI PUSH1 0x7 PUSH1 0x0 DUP4 DUP2 MSTORE PUSH1 0x20 ADD SWAP1 DUP2 MSTORE PUSH1 0x20 ADD PUSH1 0x0 KECCAK256 PUSH1 0x1 ADD SLOAD SWAP3 POP JUMPDEST DUP2 PUSH1 0x1 ADD SWAP2 POP POP PUSH2 0xE6C JUMP JUMPDEST POP PUSH1 0x0 DUP1 DUP3 DUP2 MSTORE PUSH1 0x20 ADD SWAP1 DUP2 MSTORE PUSH1 0x20 ADD PUSH1 0x0 KECCAK256 PUSH1 0x6 SWAP1 DUP1 SLOAD PUSH2 0xF62 SWAP1 PUSH2 0x17BB JUMP JUMPDEST PUSH2 0xF6D SWAP3 SWAP2 SWAP1 PUSH2 0x106F JUMP JUMPDEST POP PUSH1 0x2 PUSH1 0x5 PUSH1 0x0 PUSH2 0x100 EXP DUP2 SLOAD DUP2 PUSH1 0xFF MUL NOT AND SWAP1 DUP4 PUSH1 0x3 DUP2 GT ISZERO PUSH2 0xF94 JUMPI PUSH2 0xF93 PUSH2 0x18C5 JUMP JUMPDEST JUMPDEST MUL OR SWAP1 SSTORE POP POP POP JUMP JUMPDEST PUSH1 0x40 MLOAD DUP1 PUSH1 0x40 ADD PUSH1 0x40 MSTORE DUP1 PUSH1 0x0 PUSH20 0xFFFFFFFFFFFFFFFFFFFFFFFFFFFFFFFFFFFFFFFF AND DUP2 MSTORE PUSH1 0x20 ADD PUSH1 0x0 DUP2 MSTORE POP SWAP1 JUMP JUMPDEST PUSH1 0x40 MLOAD DUP1 PUSH1 0x40 ADD PUSH1 0x40 MSTORE DUP1 PUSH1 0x60 DUP2 MSTORE PUSH1 0x20 ADD PUSH1 0x0 ISZERO ISZERO DUP2 MSTORE POP SWAP1 JUMP JUMPDEST DUP3 DUP1 SLOAD PUSH2 0xFF5 SWAP1 PUSH2 0x17BB JUMP JUMPDEST SWAP1 PUSH1 0x0 MSTORE PUSH1 0x20 PUSH1 0x0 KECCAK256 SWAP1 PUSH1 0x1F ADD PUSH1 0x20 SWAP1 DIV DUP2 ADD SWAP3 DUP3 PUSH2 0x1017 JUMPI PUSH1 0x0 DUP6 SSTORE PUSH2 0x105E JUMP JUMPDEST DUP3 PUSH1 0x1F LT PUSH2 0x1030 JUMPI DUP1 MLOAD PUSH1 0xFF NOT AND DUP4 DUP1 ADD OR DUP6 SSTORE PUSH2 0x105E JUMP JUMPDEST DUP3 DUP1 ADD PUSH1 0x1 ADD DUP6 SSTORE DUP3 ISZERO PUSH2 0x105E JUMPI SWAP2 DUP3 ADD JUMPDEST DUP3 DUP2 GT ISZERO PUSH2 0x105D JUMPI DUP3 MLOAD DUP3 SSTORE SWAP2 PUSH1 0x20 ADD SWAP2 SWAP1 PUSH1 0x1 ADD SWAP1 PUSH2 0x1042 JUMP JUMPDEST JUMPDEST POP SWAP1 POP PUSH2 0x106B SWAP2 SWAP1 PUSH2 0x10FC JUMP JUMPDEST POP SWAP1 JUMP JUMPDEST DUP3 DUP1 SLOAD PUSH2 0x107B SWAP1 PUSH2 0x17BB JUMP JUMPDEST SWAP1 PUSH1 0x0 MSTORE PUSH1 0x20 PUSH1 0x0 KECCAK256 SWAP1 PUSH1 0x1F ADD PUSH1 0x20 SWAP1 DIV DUP2 ADD SWAP3 DUP3 PUSH2 0x109D JUMPI PUSH1 0x0 DUP6 SSTORE PUSH2 0x10EB JUMP JUMPDEST DUP3 PUSH1 0x1F LT PUSH2 0x10AE JUMPI DUP1 SLOAD DUP6 SSTORE PUSH2 0x10EB JUMP JUMPDEST DUP3 DUP1 ADD PUSH1 0x1 ADD DUP6 SSTORE DUP3 ISZERO PUSH2 0x10EB JUMPI PUSH1 0x0 MSTORE PUSH1 0x20 PUSH1 0x0 KECCAK256 SWAP2 PUSH1 0x1F ADD PUSH1 0x20 SWAP1 DIV DUP3 ADD JUMPDEST DUP3 DUP2 GT ISZERO PUSH2 0x10EA JUMPI DUP3 SLOAD DUP3 SSTORE SWAP2 PUSH1 0x1 ADD SWAP2 SWAP1 PUSH1 0x1 ADD SWAP1 PUSH2 0x10CF JUMP JUMPDEST JUMPDEST POP SWAP1 POP PUSH2 0x10F8 SWAP2 SWAP1 PUSH2 0x10FC JUMP JUMPDEST POP SWAP1 JUMP JUMPDEST JUMPDEST DUP1 DUP3 GT ISZERO PUSH2 0x1115 JUMPI PUSH1 0x0 DUP2 PUSH1 0x0 SWAP1 SSTORE POP PUSH1 0x1 ADD PUSH2 0x10FD JUMP JUMPDEST POP SWAP1 JUMP JUMPDEST PUSH1 0x0 PUSH2 0x112C PUSH2 0x1127 DUP5 PUSH2 0x1618 JUMP JUMPDEST PUSH2 0x15F3 JUMP JUMPDEST SWAP1 POP DUP3 DUP2 MSTORE PUSH1 0x20 DUP2 ADD DUP5 DUP5 DUP5 ADD GT ISZERO PUSH2 0x1148 JUMPI PUSH2 0x1147 PUSH2 0x1957 JUMP JUMPDEST JUMPDEST PUSH2 0x1153 DUP5 DUP3 DUP6 PUSH2 0x1779 JUMP JUMPDEST POP SWAP4 SWAP3 POP POP POP JUMP JUMPDEST PUSH1 0x0 DUP2 CALLDATALOAD SWAP1 POP PUSH2 0x116A DUP2 PUSH2 0x1ACA JUMP JUMPDEST SWAP3 SWAP2 POP POP JUMP JUMPDEST PUSH1 0x0 DUP3 PUSH1 0x1F DUP4 ADD SLT PUSH2 0x1185 JUMPI PUSH2 0x1184 PUSH2 0x1952 JUMP JUMPDEST JUMPDEST DUP2 CALLDATALOAD PUSH2 0x1195 DUP5 DUP3 PUSH1 0x20 DUP7 ADD PUSH2 0x1119 JUMP JUMPDEST SWAP2 POP POP SWAP3 SWAP2 POP POP JUMP JUMPDEST PUSH1 0x0 DUP2 CALLDATALOAD SWAP1 POP PUSH2 0x11AD DUP2 PUSH2 0x1AE1 JUMP JUMPDEST SWAP3 SWAP2 POP POP JUMP JUMPDEST PUSH1 0x0 PUSH1 0x20 DUP3 DUP5 SUB SLT ISZERO PUSH2 0x11C9 JUMPI PUSH2 0x11C8 PUSH2 0x1961 JUMP JUMPDEST JUMPDEST PUSH1 0x0 PUSH2 0x11D7 DUP5 DUP3 DUP6 ADD PUSH2 0x115B JUMP JUMPDEST SWAP2 POP POP SWAP3 SWAP2 POP POP JUMP JUMPDEST PUSH1 0x0 DUP1 PUSH1 0x40 DUP4 DUP6 SUB SLT ISZERO PUSH2 0x11F7 JUMPI PUSH2 0x11F6 PUSH2 0x1961 JUMP JUMPDEST JUMPDEST PUSH1 0x0 PUSH2 0x1205 DUP6 DUP3 DUP7 ADD PUSH2 0x115B JUMP JUMPDEST SWAP3 POP POP PUSH1 0x20 DUP4 ADD CALLDATALOAD PUSH8 0xFFFFFFFFFFFFFFFF DUP2 GT ISZERO PUSH2 0x1226 JUMPI PUSH2 0x1225 PUSH2 0x195C JUMP JUMPDEST JUMPDEST PUSH2 0x1232 DUP6 DUP3 DUP7 ADD PUSH2 0x1170 JUMP JUMPDEST SWAP2 POP POP SWAP3 POP SWAP3 SWAP1 POP JUMP JUMPDEST PUSH1 0x0 PUSH1 0x20 DUP3 DUP5 SUB SLT ISZERO PUSH2 0x1252 JUMPI PUSH2 0x1251 PUSH2 0x1961 JUMP JUMPDEST JUMPDEST PUSH1 0x0 DUP3 ADD CALLDATALOAD PUSH8 0xFFFFFFFFFFFFFFFF DUP2 GT ISZERO PUSH2 0x1270 JUMPI PUSH2 0x126F PUSH2 0x195C JUMP JUMPDEST JUMPDEST PUSH2 0x127C DUP5 DUP3 DUP6 ADD PUSH2 0x1170 JUMP JUMPDEST SWAP2 POP POP SWAP3 SWAP2 POP POP JUMP JUMPDEST PUSH1 0x0 PUSH1 0x20 DUP3 DUP5 SUB SLT ISZERO PUSH2 0x129B JUMPI PUSH2 0x129A PUSH2 0x1961 JUMP JUMPDEST JUMPDEST PUSH1 0x0 PUSH2 0x12A9 DUP5 DUP3 DUP6 ADD PUSH2 0x119E JUMP JUMPDEST SWAP2 POP POP SWAP3 SWAP2 POP POP JUMP JUMPDEST PUSH2 0x12BB DUP2 PUSH2 0x170C JUMP JUMPDEST DUP3 MSTORE POP POP JUMP JUMPDEST PUSH2 0x12CA DUP2 PUSH2 0x171E JUMP JUMPDEST DUP3 MSTORE POP POP JUMP JUMPDEST PUSH1 0x0 DUP2 SLOAD PUSH2 0x12DD DUP2 PUSH2 0x17BB JUMP JUMPDEST PUSH2 0x12E7 DUP2 DUP7 PUSH2 0x1669 JUMP JUMPDEST SWAP5 POP PUSH1 0x1 DUP3 AND PUSH1 0x0 DUP2 EQ PUSH2 0x1302 JUMPI PUSH1 0x1 DUP2 EQ PUSH2 0x1313 JUMPI PUSH2 0x1346 JUMP JUMPDEST PUSH1 0xFF NOT DUP4 AND DUP7 MSTORE DUP2 DUP7 ADD SWAP4 POP PUSH2 0x1346 JUMP JUMPDEST PUSH2 0x131C DUP6 PUSH2 0x1649 JUMP JUMPDEST PUSH1 0x0 JUMPDEST DUP4 DUP2 LT ISZERO PUSH2 0x133E JUMPI DUP2 SLOAD DUP2 DUP10 ADD MSTORE PUSH1 0x1 DUP3 ADD SWAP2 POP PUSH1 0x20 DUP2 ADD SWAP1 POP PUSH2 0x131F JUMP JUMPDEST DUP4 DUP9 ADD SWAP6 POP POP POP JUMPDEST POP POP POP SWAP3 SWAP2 POP POP JUMP JUMPDEST PUSH2 0x1358 DUP2 PUSH2 0x1767 JUMP JUMPDEST DUP3 MSTORE POP POP JUMP JUMPDEST PUSH1 0x0 PUSH2 0x1369 DUP3 PUSH2 0x165E JUMP JUMPDEST PUSH2 0x1373 DUP2 DUP6 PUSH2 0x1674 JUMP JUMPDEST SWAP4 POP PUSH2 0x1383 DUP2 DUP6 PUSH1 0x20 DUP7 ADD PUSH2 0x1788 JUMP JUMPDEST PUSH2 0x138C DUP2 PUSH2 0x1966 JUMP JUMPDEST DUP5 ADD SWAP2 POP POP SWAP3 SWAP2 POP POP JUMP JUMPDEST PUSH1 0x0 PUSH2 0x13A4 PUSH1 0x19 DUP4 PUSH2 0x1674 JUMP JUMPDEST SWAP2 POP PUSH2 0x13AF DUP3 PUSH2 0x1977 JUMP JUMPDEST PUSH1 0x20 DUP3 ADD SWAP1 POP SWAP2 SWAP1 POP JUMP JUMPDEST PUSH1 0x0 PUSH2 0x13C7 PUSH1 0x24 DUP4 PUSH2 0x1674 JUMP JUMPDEST SWAP2 POP PUSH2 0x13D2 DUP3 PUSH2 0x19A0 JUMP JUMPDEST PUSH1 0x40 DUP3 ADD SWAP1 POP SWAP2 SWAP1 POP JUMP JUMPDEST PUSH1 0x0 PUSH2 0x13EA PUSH1 0x26 DUP4 PUSH2 0x1674 JUMP JUMPDEST SWAP2 POP PUSH2 0x13F5 DUP3 PUSH2 0x19EF JUMP JUMPDEST PUSH1 0x40 DUP3 ADD SWAP1 POP SWAP2 SWAP1 POP JUMP JUMPDEST PUSH1 0x0 PUSH2 0x140D PUSH1 0x23 DUP4 PUSH2 0x1674 JUMP JUMPDEST SWAP2 POP PUSH2 0x1418 DUP3 PUSH2 0x1A3E JUMP JUMPDEST PUSH1 0x40 DUP3 ADD SWAP1 POP SWAP2 SWAP1 POP JUMP JUMPDEST PUSH1 0x0 PUSH2 0x1430 PUSH1 0x1D DUP4 PUSH2 0x1674 JUMP JUMPDEST SWAP2 POP PUSH2 0x143B DUP3 PUSH2 0x1A8D JUMP JUMPDEST PUSH1 0x20 DUP3 ADD SWAP1 POP SWAP2 SWAP1 POP JUMP JUMPDEST PUSH2 0x144F DUP2 PUSH2 0x175D JUMP JUMPDEST DUP3 MSTORE POP POP JUMP JUMPDEST PUSH1 0x0 PUSH2 0x1461 DUP3 DUP5 PUSH2 0x12D0 JUMP JUMPDEST SWAP2 POP DUP2 SWAP1 POP SWAP3 SWAP2 POP POP JUMP JUMPDEST PUSH1 0x0 PUSH1 0x20 DUP3 ADD SWAP1 POP PUSH2 0x1481 PUSH1 0x0 DUP4 ADD DUP5 PUSH2 0x12B2 JUMP JUMPDEST SWAP3 SWAP2 POP POP JUMP JUMPDEST PUSH1 0x0 PUSH1 0x40 DUP3 ADD SWAP1 POP PUSH2 0x149C PUSH1 0x0 DUP4 ADD DUP6 PUSH2 0x12B2 JUMP JUMPDEST PUSH2 0x14A9 PUSH1 0x20 DUP4 ADD DUP5 PUSH2 0x1446 JUMP JUMPDEST SWAP4 SWAP3 POP POP POP JUMP JUMPDEST PUSH1 0x0 PUSH1 0x20 DUP3 ADD SWAP1 POP PUSH2 0x14C5 PUSH1 0x0 DUP4 ADD DUP5 PUSH2 0x12C1 JUMP JUMPDEST SWAP3 SWAP2 POP POP JUMP JUMPDEST PUSH1 0x0 PUSH1 0x20 DUP3 ADD SWAP1 POP PUSH2 0x14E0 PUSH1 0x0 DUP4 ADD DUP5 PUSH2 0x134F JUMP JUMPDEST SWAP3 SWAP2 POP POP JUMP JUMPDEST PUSH1 0x0 PUSH1 0x20 DUP3 ADD SWAP1 POP DUP2 DUP2 SUB PUSH1 0x0 DUP4 ADD MSTORE PUSH2 0x1500 DUP2 DUP5 PUSH2 0x135E JUMP JUMPDEST SWAP1 POP SWAP3 SWAP2 POP POP JUMP JUMPDEST PUSH1 0x0 PUSH1 0x40 DUP3 ADD SWAP1 POP DUP2 DUP2 SUB PUSH1 0x0 DUP4 ADD MSTORE PUSH2 0x1522 DUP2 DUP6 PUSH2 0x135E JUMP JUMPDEST SWAP1 POP PUSH2 0x1531 PUSH1 0x20 DUP4 ADD DUP5 PUSH2 0x12C1 JUMP JUMPDEST SWAP4 SWAP3 POP POP POP JUMP JUMPDEST PUSH1 0x0 PUSH1 0x20 DUP3 ADD SWAP1 POP DUP2 DUP2 SUB PUSH1 0x0 DUP4 ADD MSTORE PUSH2 0x1551 DUP2 PUSH2 0x1397 JUMP JUMPDEST SWAP1 POP SWAP2 SWAP1 POP JUMP JUMPDEST PUSH1 0x0 PUSH1 0x20 DUP3 ADD SWAP1 POP DUP2 DUP2 SUB PUSH1 0x0 DUP4 ADD MSTORE PUSH2 0x1571 DUP2 PUSH2 0x13BA JUMP JUMPDEST SWAP1 POP SWAP2 SWAP1 POP JUMP JUMPDEST PUSH1 0x0 PUSH1 0x20 DUP3 ADD SWAP1 POP DUP2 DUP2 SUB PUSH1 0x0 DUP4 ADD MSTORE PUSH2 0x1591 DUP2 PUSH2 0x13DD JUMP JUMPDEST SWAP1 POP SWAP2 SWAP1 POP JUMP JUMPDEST PUSH1 0x0 PUSH1 0x20 DUP3 ADD SWAP1 POP DUP2 DUP2 SUB PUSH1 0x0 DUP4 ADD MSTORE PUSH2 0x15B1 DUP2 PUSH2 0x1400 JUMP JUMPDEST SWAP1 POP SWAP2 SWAP1 POP JUMP JUMPDEST PUSH1 0x0 PUSH1 0x20 DUP3 ADD SWAP1 POP DUP2 DUP2 SUB PUSH1 0x0 DUP4 ADD MSTORE PUSH2 0x15D1 DUP2 PUSH2 0x1423 JUMP JUMPDEST SWAP1 POP SWAP2 SWAP1 POP JUMP JUMPDEST PUSH1 0x0 PUSH1 0x20 DUP3 ADD SWAP1 POP PUSH2 0x15ED PUSH1 0x0 DUP4 ADD DUP5 PUSH2 0x1446 JUMP JUMPDEST SWAP3 SWAP2 POP POP JUMP JUMPDEST PUSH1 0x0 PUSH2 0x15FD PUSH2 0x160E JUMP JUMPDEST SWAP1 POP PUSH2 0x1609 DUP3 DUP3 PUSH2 0x17ED JUMP JUMPDEST SWAP2 SWAP1 POP JUMP JUMPDEST PUSH1 0x0 PUSH1 0x40 MLOAD SWAP1 POP SWAP1 JUMP JUMPDEST PUSH1 0x0 PUSH8 0xFFFFFFFFFFFFFFFF DUP3 GT ISZERO PUSH2 0x1633 JUMPI PUSH2 0x1632 PUSH2 0x1923 JUMP JUMPDEST JUMPDEST PUSH2 0x163C DUP3 PUSH2 0x1966 JUMP JUMPDEST SWAP1 POP PUSH1 0x20 DUP2 ADD SWAP1 POP SWAP2 SWAP1 POP JUMP JUMPDEST PUSH1 0x0 DUP2 SWAP1 POP DUP2 PUSH1 0x0 MSTORE PUSH1 0x20 PUSH1 0x0 KECCAK256 SWAP1 POP SWAP2 SWAP1 POP JUMP JUMPDEST PUSH1 0x0 DUP2 MLOAD SWAP1 POP SWAP2 SWAP1 POP JUMP JUMPDEST PUSH1 0x0 DUP2 SWAP1 POP SWAP3 SWAP2 POP POP JUMP JUMPDEST PUSH1 0x0 DUP3 DUP3 MSTORE PUSH1 0x20 DUP3 ADD SWAP1 POP SWAP3 SWAP2 POP POP JUMP JUMPDEST PUSH1 0x0 PUSH2 0x1690 DUP3 PUSH2 0x175D JUMP JUMPDEST SWAP2 POP PUSH2 0x169B DUP4 PUSH2 0x175D JUMP JUMPDEST SWAP3 POP DUP3 PUSH32 0xFFFFFFFFFFFFFFFFFFFFFFFFFFFFFFFFFFFFFFFFFFFFFFFFFFFFFFFFFFFFFFFF SUB DUP3 GT ISZERO PUSH2 0x16D0 JUMPI PUSH2 0x16CF PUSH2 0x1867 JUMP JUMPDEST JUMPDEST DUP3 DUP3 ADD SWAP1 POP SWAP3 SWAP2 POP POP JUMP JUMPDEST PUSH1 0x0 PUSH2 0x16E6 DUP3 PUSH2 0x175D JUMP JUMPDEST SWAP2 POP PUSH2 0x16F1 DUP4 PUSH2 0x175D JUMP JUMPDEST SWAP3 POP DUP3 PUSH2 0x1701 JUMPI PUSH2 0x1700 PUSH2 0x1896 JUMP JUMPDEST JUMPDEST DUP3 DUP3 DIV SWAP1 POP SWAP3 SWAP2 POP POP JUMP JUMPDEST PUSH1 0x0 PUSH2 0x1717 DUP3 PUSH2 0x173D JUMP JUMPDEST SWAP1 POP SWAP2 SWAP1 POP JUMP JUMPDEST PUSH1 0x0 DUP2 ISZERO ISZERO SWAP1 POP SWAP2 SWAP1 POP JUMP JUMPDEST PUSH1 0x0 DUP2 SWAP1 POP PUSH2 0x1738 DUP3 PUSH2 0x1AB6 JUMP JUMPDEST SWAP2 SWAP1 POP JUMP JUMPDEST PUSH1 0x0 PUSH20 0xFFFFFFFFFFFFFFFFFFFFFFFFFFFFFFFFFFFFFFFF DUP3 AND SWAP1 POP SWAP2 SWAP1 POP JUMP JUMPDEST PUSH1 0x0 DUP2 SWAP1 POP SWAP2 SWAP1 POP JUMP JUMPDEST PUSH1 0x0 PUSH2 0x1772 DUP3 PUSH2 0x172A JUMP JUMPDEST SWAP1 POP SWAP2 SWAP1 POP JUMP JUMPDEST DUP3 DUP2 DUP4 CALLDATACOPY PUSH1 0x0 DUP4 DUP4 ADD MSTORE POP POP POP JUMP JUMPDEST PUSH1 0x0 JUMPDEST DUP4 DUP2 LT ISZERO PUSH2 0x17A6 JUMPI DUP1 DUP3 ADD MLOAD DUP2 DUP5 ADD MSTORE PUSH1 0x20 DUP2 ADD SWAP1 POP PUSH2 0x178B JUMP JUMPDEST DUP4 DUP2 GT ISZERO PUSH2 0x17B5 JUMPI PUSH1 0x0 DUP5 DUP5 ADD MSTORE JUMPDEST POP POP POP POP JUMP JUMPDEST PUSH1 0x0 PUSH1 0x2 DUP3 DIV SWAP1 POP PUSH1 0x1 DUP3 AND DUP1 PUSH2 0x17D3 JUMPI PUSH1 0x7F DUP3 AND SWAP2 POP JUMPDEST PUSH1 0x20 DUP3 LT DUP2 EQ ISZERO PUSH2 0x17E7 JUMPI PUSH2 0x17E6 PUSH2 0x18F4 JUMP JUMPDEST JUMPDEST POP SWAP2 SWAP1 POP JUMP JUMPDEST PUSH2 0x17F6 DUP3 PUSH2 0x1966 JUMP JUMPDEST DUP2 ADD DUP2 DUP2 LT PUSH8 0xFFFFFFFFFFFFFFFF DUP3 GT OR ISZERO PUSH2 0x1815 JUMPI PUSH2 0x1814 PUSH2 0x1923 JUMP JUMPDEST JUMPDEST DUP1 PUSH1 0x40 MSTORE POP POP POP JUMP JUMPDEST PUSH1 0x0 PUSH2 0x1829 DUP3 PUSH2 0x175D JUMP JUMPDEST SWAP2 POP PUSH32 0xFFFFFFFFFFFFFFFFFFFFFFFFFFFFFFFFFFFFFFFFFFFFFFFFFFFFFFFFFFFFFFFF DUP3 EQ ISZERO PUSH2 0x185C JUMPI PUSH2 0x185B PUSH2 0x1867 JUMP JUMPDEST JUMPDEST PUSH1 0x1 DUP3 ADD SWAP1 POP SWAP2 SWAP1 POP JUMP JUMPDEST PUSH32 0x4E487B7100000000000000000000000000000000000000000000000000000000 PUSH1 0x0 MSTORE PUSH1 0x11 PUSH1 0x4 MSTORE PUSH1 0x24 PUSH1 0x0 REVERT JUMPDEST PUSH32 0x4E487B7100000000000000000000000000000000000000000000000000000000 PUSH1 0x0 MSTORE PUSH1 0x12 PUSH1 0x4 MSTORE PUSH1 0x24 PUSH1 0x0 REVERT JUMPDEST PUSH32 0x4E487B7100000000000000000000000000000000000000000000000000000000 PUSH1 0x0 MSTORE PUSH1 0x21 PUSH1 0x4 MSTORE PUSH1 0x24 PUSH1 0x0 REVERT JUMPDEST PUSH32 0x4E487B7100000000000000000000000000000000000000000000000000000000 PUSH1 0x0 MSTORE PUSH1 0x22 PUSH1 0x4 MSTORE PUSH1 0x24 PUSH1 0x0 REVERT JUMPDEST PUSH32 0x4E487B7100000000000000000000000000000000000000000000000000000000 PUSH1 0x0 MSTORE PUSH1 0x41 PUSH1 0x4 MSTORE PUSH1 0x24 PUSH1 0x0 REVERT JUMPDEST PUSH1 0x0 DUP1 REVERT JUMPDEST PUSH1 0x0 DUP1 REVERT JUMPDEST PUSH1 0x0 DUP1 REVERT JUMPDEST PUSH1 0x0 DUP1 REVERT JUMPDEST PUSH1 0x0 PUSH1 0x1F NOT PUSH1 0x1F DUP4 ADD AND SWAP1 POP SWAP2 SWAP1 POP JUMP JUMPDEST PUSH32 0x52657374617572616E7420616C72656164792065786973747300000000000000 PUSH1 0x0 DUP3 ADD MSTORE POP JUMP JUMPDEST PUSH32 0x43616E206F6E6C7920626520657865637574656420696E20766F74696E672073 PUSH1 0x0 DUP3 ADD MSTORE PUSH32 0x7461746500000000000000000000000000000000000000000000000000000000 PUSH1 0x20 DUP3 ADD MSTORE POP JUMP JUMPDEST PUSH32 0x43616E206F6E6C7920626520657865637574656420696E206372656174696E67 PUSH1 0x0 DUP3 ADD MSTORE PUSH32 0x2073746174650000000000000000000000000000000000000000000000000000 PUSH1 0x20 DUP3 ADD MSTORE POP JUMP JUMPDEST PUSH32 0x43616E206F6E6C7920626520657865637574656420627920746865206D616E61 PUSH1 0x0 DUP3 ADD MSTORE PUSH32 0x6765720000000000000000000000000000000000000000000000000000000000 PUSH1 0x20 DUP3 ADD MSTORE POP JUMP JUMPDEST PUSH32 0x467269656E64206164647265737320616C726561647920657869737473000000 PUSH1 0x0 DUP3 ADD MSTORE POP JUMP JUMPDEST PUSH1 0x4 DUP2 LT PUSH2 0x1AC7 JUMPI PUSH2 0x1AC6 PUSH2 0x18C5 JUMP JUMPDEST JUMPDEST POP JUMP JUMPDEST PUSH2 0x1AD3 DUP2 PUSH2 0x170C JUMP JUMPDEST DUP2 EQ PUSH2 0x1ADE JUMPI PUSH1 0x0 DUP1 REVERT JUMPDEST POP JUMP JUMPDEST PUSH2 0x1AEA DUP2 PUSH2 0x175D JUMP JUMPDEST DUP2 EQ PUSH2 0x1AF5 JUMPI PUSH1 0x0 DUP1 REVERT JUMPDEST POP JUMP INVALID LOG2 PUSH5 0x6970667358 0x22 SLT KECCAK256 PUSH22 0x9E60B0A26F8DFC6DB608F1114872C8D7C271C02FC2D 0xA6 0x5E 0xCC SUB EXP SWAP2 PUSH26 0x8A7964736F6C6343000805003300000000000000000000000000 "
				},
				"gasEstimates": {
					"creation": {
						"codeDepositCost": "1391600",
						"executionCost": "infinite",
						"totalCost": "infinite"
					},
					"external": {
						"addFriend(address,string)": "infinite",
						"addRestaurant(string)": "infinite",
						"cancelVoting()": "infinite",
						"doVote(uint256)": "infinite",
						"friends(address)": "infinite",
						"manager()": "infinite",
						"numFriends()": "2474",
						"numRestaurants()": "2473",
						"numVotes()": "2518",
						"restaurants(uint256)": "infinite",
						"startVoting()": "infinite",
						"state()": "2626",
						"voteOpen()": "2516",
						"votedRestaurant()": "infinite",
						"votes(uint256)": "infinite"
					},
					"internal": {
						"finalResult()": "infinite"
					}
				},
				"methodIdentifiers": {
					"addFriend(address,string)": "3b9f708d",
					"addRestaurant(string)": "6d77bd3e",
					"cancelVoting()": "81f4b232",
					"doVote(uint256)": "124258c6",
					"friends(address)": "1ddabf7a",
					"manager()": "481c6a75",
					"numFriends()": "47098f36",
					"numRestaurants()": "b798867f",
					"numVotes()": "a3bef4d7",
					"restaurants(uint256)": "ad5461d8",
					"startVoting()": "1ec6b60a",
					"state()": "c19d93fb",
					"voteOpen()": "788d3851",
					"votedRestaurant()": "c1c16efc",
					"votes(uint256)": "5df81330"
				}
			},
			"storageLayout": {
				"storage": [
					{
						"astId": 21,
						"contract": "contracts/LunchVenue_updated.sol:LunchVenueUpdated",
						"label": "restaurants",
						"offset": 0,
						"slot": "0",
						"type": "t_mapping(t_uint256,t_string_storage)"
					},
					{
						"astId": 26,
						"contract": "contracts/LunchVenue_updated.sol:LunchVenueUpdated",
						"label": "friends",
						"offset": 0,
						"slot": "1",
						"type": "t_mapping(t_address,t_struct(Friend)7_storage)"
					},
					{
						"astId": 28,
						"contract": "contracts/LunchVenue_updated.sol:LunchVenueUpdated",
						"label": "numRestaurants",
						"offset": 0,
						"slot": "2",
						"type": "t_uint256"
					},
					{
						"astId": 30,
						"contract": "contracts/LunchVenue_updated.sol:LunchVenueUpdated",
						"label": "numFriends",
						"offset": 0,
						"slot": "3",
						"type": "t_uint256"
					},
					{
						"astId": 32,
						"contract": "contracts/LunchVenue_updated.sol:LunchVenueUpdated",
						"label": "numVotes",
						"offset": 0,
						"slot": "4",
						"type": "t_uint256"
					},
					{
						"astId": 37,
						"contract": "contracts/LunchVenue_updated.sol:LunchVenueUpdated",
						"label": "state",
						"offset": 0,
						"slot": "5",
						"type": "t_enum(State)17"
					},
					{
						"astId": 39,
						"contract": "contracts/LunchVenue_updated.sol:LunchVenueUpdated",
						"label": "votedRestaurant",
						"offset": 0,
						"slot": "6",
						"type": "t_string_storage"
					},
					{
						"astId": 44,
						"contract": "contracts/LunchVenue_updated.sol:LunchVenueUpdated",
						"label": "votes",
						"offset": 0,
						"slot": "7",
						"type": "t_mapping(t_uint256,t_struct(Vote)12_storage)"
					},
					{
						"astId": 48,
						"contract": "contracts/LunchVenue_updated.sol:LunchVenueUpdated",
						"label": "_results",
						"offset": 0,
						"slot": "8",
						"type": "t_mapping(t_uint256,t_uint256)"
					},
					{
						"astId": 51,
						"contract": "contracts/LunchVenue_updated.sol:LunchVenueUpdated",
						"label": "voteOpen",
						"offset": 0,
						"slot": "9",
						"type": "t_bool"
					}
				],
				"types": {
					"t_address": {
						"encoding": "inplace",
						"label": "address",
						"numberOfBytes": "20"
					},
					"t_bool": {
						"encoding": "inplace",
						"label": "bool",
						"numberOfBytes": "1"
					},
					"t_enum(State)17": {
						"encoding": "inplace",
						"label": "enum LunchVenueUpdated.State",
						"numberOfBytes": "1"
					},
					"t_mapping(t_address,t_struct(Friend)7_storage)": {
						"encoding": "mapping",
						"key": "t_address",
						"label": "mapping(address => struct LunchVenueUpdated.Friend)",
						"numberOfBytes": "32",
						"value": "t_struct(Friend)7_storage"
					},
					"t_mapping(t_uint256,t_string_storage)": {
						"encoding": "mapping",
						"key": "t_uint256",
						"label": "mapping(uint256 => string)",
						"numberOfBytes": "32",
						"value": "t_string_storage"
					},
					"t_mapping(t_uint256,t_struct(Vote)12_storage)": {
						"encoding": "mapping",
						"key": "t_uint256",
						"label": "mapping(uint256 => struct LunchVenueUpdated.Vote)",
						"numberOfBytes": "32",
						"value": "t_struct(Vote)12_storage"
					},
					"t_mapping(t_uint256,t_uint256)": {
						"encoding": "mapping",
						"key": "t_uint256",
						"label": "mapping(uint256 => uint256)",
						"numberOfBytes": "32",
						"value": "t_uint256"
					},
					"t_string_storage": {
						"encoding": "bytes",
						"label": "string",
						"numberOfBytes": "32"
					},
					"t_struct(Friend)7_storage": {
						"encoding": "inplace",
						"label": "struct LunchVenueUpdated.Friend",
						"members": [
							{
								"astId": 4,
								"contract": "contracts/LunchVenue_updated.sol:LunchVenueUpdated",
								"label": "name",
								"offset": 0,
								"slot": "0",
								"type": "t_string_storage"
							},
							{
								"astId": 6,
								"contract": "contracts/LunchVenue_updated.sol:LunchVenueUpdated",
								"label": "voted",
								"offset": 0,
								"slot": "1",
								"type": "t_bool"
							}
						],
						"numberOfBytes": "64"
					},
					"t_struct(Vote)12_storage": {
						"encoding": "inplace",
						"label": "struct LunchVenueUpdated.Vote",
						"members": [
							{
								"astId": 9,
								"contract": "contracts/LunchVenue_updated.sol:LunchVenueUpdated",
								"label": "voterAddress",
								"offset": 0,
								"slot": "0",
								"type": "t_address"
							},
							{
								"astId": 11,
								"contract": "contracts/LunchVenue_updated.sol:LunchVenueUpdated",
								"label": "restaurant",
								"offset": 0,
								"slot": "1",
								"type": "t_uint256"
							}
						],
						"numberOfBytes": "64"
					},
					"t_uint256": {
						"encoding": "inplace",
						"label": "uint256",
						"numberOfBytes": "32"
					}
				}
			},
			"userdoc": {
				"kind": "user",
				"methods": {
					"addFriend(address,string)": {
						"notice": "Add a new friend to voter list"
					},
					"addRestaurant(string)": {
						"notice": "Add a new restaurant"
					},
					"cancelVoting()": {
						"notice": "Cancel the voting"
					},
					"doVote(uint256)": {
						"notice": "Vote for a restaurant"
					},
					"startVoting()": {
						"notice": "Start the voting"
					}
				},
				"version": 1
			}
		}
	}
}